{
	"data": {
		"bytecode": {
			"linkReferences": {},
			"object": "60808060405260018060a01b03193381600354161760035560028160045416176004556000338152600860205260408120600160ff198254161790556005549068010000000000000000821015620000b15760018201806005558210156200009d57600590527f036b6384b5eca791c62761152d0c79bb0604c104a5fb6f4eb0703f3154bb3db0018054909116331790556166789081620000c68239f35b634e487b7160e01b81526032600452602490fd5b634e487b7160e01b81526041600452602490fdfe6080604052600436101561001257600080fd5b60003560e01c806302b572d614613333578063041cbb16146132bc57806305d0af0b14612e855780630b0fe44c14612e545780630c2ed96714612de25780630f8472ff14612da5578063103bb2b514612d6857806312ee84ef14612c655780631c787f3e14612c475780631e98fd1c14612bec57806327b5084514611d7a57806330d51a3214611d3e578063350f31ea14611c575780633f81714c14611a9757806351d0487614611a6b57806352023610146113545780635a272403146112885780635c8d05a4146111e75780635d977ee114611139578063673047ba146110935780636f0243f31461106a57806370b9e00214610fa35780637cf388ee14610e675780637f7c080814610e1b5780637f8c678f14610dd157806394284cbd14610da8578063951a566214610d115780639d6ffce014610b315780639f89a4b214610ad6578063a2b2fb5514610a85578063a559934e14610a39578063aaedfcd11461096f578063acfa58d21461022c578063af66932614610768578063b11e3c1a14610729578063b358fa8e146106b5578063b46b9a2d14610668578063b4a99a4e1461063f578063bfbe3ef714610613578063cb4e841b146105ea578063d888e7dc14610563578063da31f88a1461039f578063dc9a04cf14610353578063ddcd640814610307578063f09610c7146102af578063f29155ef14610286578063fb7ef3771461025d5763fdd719b11461022c57600080fd5b3461025857602036600319011261025857600435600052600f6020526020604060002054604051908152f35b600080fd5b34610258576000366003190112610258576002546040516001600160a01b039091168152602090f35b34610258576000366003190112610258576016546040516001600160a01b039091168152602090f35b34610258576040366003190112610258576102c861337d565b6001600160a01b03166000908152600e6020526040902080546024359190821015610258576020916102f991613414565b90546040519160031b1c8152f35b346102585760203660031901126102585761032061337d565b6003546001600160a01b03919061033a9083163314613cac565b166001600160601b0360a01b6004541617600455600080f35b346102585760203660031901126102585761036c61337d565b6003546001600160a01b0391906103869083163314613cac565b166001600160601b0360a01b6016541617601655600080f35b346102585760203660031901126102585760043560005260096020526040600020604051806103ce818461394c565b036103d990826134b5565b60405191826103eb816001840161394c565b036103f690846134b5565b60405180610407816002850161394c565b0361041290826134b5565b60405180610423816003860161394c565b0361042e90826134b5565b6040518061043f816004870161394c565b0361044a90826134b5565b604051908161045c816005880161394c565b0361046790836134b5565b6040519283610479816006890161394c565b0361048490856134b5565b60405194856104968160078a0161394c565b036104a190876134b5565b604051806008819901906104b49161394c565b036104bf90886134b5565b604051988998610120808b528a016104d691613571565b89810360208b01526104e791613571565b88810360408a01526104f891613571565b878103606089015261050991613571565b868103608088015261051a91613571565b85810360a087015261052b91613571565b84810360c086015261053c91613571565b83810360e085015261054d91613571565b82810361010084015261055f91613571565b0390f35b34610258576040366003190112610258576004356001600160401b038111610258576105939036906004016134f1565b602435906002821015610258576105d66105c29161055f93604051938492604060208501526060840190613571565b90604083015203601f1981018352826134b5565b604051918291602083526020830190613571565b3461025857602036600319011261025857600435600054811015610258576102f9602091613393565b3461025857602036600319011261025857600435600052600c6020526020604060002054604051908152f35b34610258576000366003190112610258576003546040516001600160a01b039091168152602090f35b346102585760403660031901126102585760043563ffffffff81168103610258576106969060243590614a4b565b9061055f60405192839215158352604060208401526040830190613c57565b346102585760603660031901126102585760406106d061337d565b6001600160a01b0316600081815260136020908152838220602435808452908252848320604435808552908352858420549484526012835285842091845290825284832090835281529083902054835192835290820152f35b34610258576020366003190112610258576001600160a01b0361074a61337d565b166000526008602052602060ff604060002054166040519015158152f35b346102585761077636613538565b6000828152600a60209081526040808320600101546001600160a01b039081168085526013845282852087865284528285208686528452828520546004805460025495516323b872dd60e01b815233928101929092529484166024820152604481018290529497909695909491939192889284926064928492165af1801561096357610936575b5080600052601485526040600020826000528552604060002083600052855260ff6002604060002001541681600052601286526040600020836000528652604060002084600052865261085e604060002054610858836146ea565b9061612f565b82600052601287526040600020846000528752604060002085600052875260406000205581600052601286526040600020836000528652604060002084600052865260406000205494600482101561092057604080516001600160a01b03949094168452602084019490945292820193909352426060820152608081019390935260a083015260c0820152600060e08201527f7a349466f0b119934b2376706bf145e6fabe7eb4b8c4cba23bb8f5dc9cb74b759061010090a160405160018152f35b634e487b7160e01b600052602160045260246000fd5b61095590863d881161095c575b61094d81836134b5565b8101906143ab565b50856107fd565b503d610943565b6040513d6000823e3d90fd5b34610258576060366003190112610258576004356001600160401b0381116102585761099f9036906004016134f1565b6016546001600160a01b031633036109ce576109c46020916044359060243590614e59565b6040519015158152f35b60405162461bcd60e51b815260206004820152603760248201527f7b2266726f6d223a2022466943616d2e736f6c222c2022636f6465223a20332c60448201527f20226d657373616765223a20224f6e6c7920504f53227d0000000000000000006064820152608490fd5b3461025857602036600319011261025857610a5261337d565b6003546001600160a01b039190610a6c9083163314613cac565b166001600160601b0360a01b6002541617600255600080f35b34610258576020366003190112610258576004356015548110156102585760209060156000527f55f448fdea98c4d29eb340757ef0a66cd03dbb9538908a6a81d96026b71ec4750154604051908152f35b34610258576020366003190112610258576004356005548110156102585760056000527f036b6384b5eca791c62761152d0c79bb0604c104a5fb6f4eb0703f3154bb3db001546040516001600160a01b039091168152602090f35b3461025857602036600319011261025857610b4a61337d565b336000526008602052610b69600160ff60406000205416151514613d93565b6001600160a01b0381166000908152600e6020526040902054610b8b906149fb565b9060005b6001600160a01b0382166000908152600e602052604090208054821015610cfb5781610bba91613414565b90549060031b1c600052600a602052604060002060405190610bdb82613463565b8054825260018101546001600160a01b031660208301526002810154610c00816136fb565b90610c0e60405192836134b5565b80825260208201906002840160005260206000206000925b828410610c8157505050508291600d916040610c7c9695015260038101546060840152610c556004820161476b565b6080840152015460a0820152610c6b8286614149565b52610c768185614149565b50613f04565b610b8f565b60056020600192604051610c9481613448565b855481528486015483820152610cb460ff6002880154166040830161432c565b604051610ccf81610cc88160038b0161394c565b03826134b5565b6060820152604051610ce881610cc88160048b0161394c565b6080820152815201920193019290610c26565b6040516020808252819061055f90820187613c57565b34610258576060366003190112610258576044356001600160401b0381116102585736602382011215610258578060040135610d4c816136fb565b610d5960405191826134b5565b81815260209260248483019360051b82010192368411610258576024859201905b848210610d995782610d9185602435600435614890565b604051908152f35b81358152908201908201610d7a565b34610258576000366003190112610258576004546040516001600160a01b039091168152602090f35b3461025857610ddf36613538565b90336000526008602052610dff600160ff60406000205416151514613d93565b600052600b602052601060406000200155602060405160018152f35b3461025857602036600319011261025857610e34614727565b50600435600052600a60205261055f610e53600460406000200161476b565b604051918291602083526020830190613aa6565b346102585760208060031936011261025857610e81614857565b50600435600052600a815260406000209060405191610e9f83613463565b805483526001808201546001600160a01b0316838501526002808301805491929190610eca826136fb565b93610ed860405195866134b5565b828552600091825286822090878087015b858510610f31578a82600d8b8b604085015260038101546060850152610f116004820161476b565b6080850152015460a083015261055f604051928284938452830190613b68565b8691600591604051610f4281613448565b865481528487015483820152610f6160ff87890154166040830161432c565b604051610f7581610cc88160038c0161394c565b6060820152604051610f8e81610cc88160048c0161394c565b60808201528152019301930192918890610ee9565b3461025857610fb136613712565b909160405192836080810193606093602095858785015281518091528660a0850192019060005b8882821061102e575050505093610fff61101a95601f199586868303016040870152613aa6565b6001600160a01b0390921690830152039081018452836134b5565b61055f604051928284938452830190613571565b9092949697809650600192946110596040885180518452858101518685015201516040830190613a99565b019401910191889496959392610fd8565b3461025857602036600319011261025857600435600154811015610258576102f96020916133dd565b34610258576020806003193601126102585760043560005260108152604060002060405190818382549182815201908192600052846000209060005b868282106111255786866110e5828803836134b5565b604051928392818401908285525180915260408401929160005b82811061110e57505050500390f35b8351855286955093810193928101926001016110ff565b8354855290930192600192830192016110cf565b3461025857602036600319011261025857611152614071565b50600435600052600b60205261055f604060002060ff6011604051926111778461342c565b80548452611187600182016139e2565b6020850152600b8101546040850152600c8101546060850152600d8101546080850152600e81015460a0850152600f81015460c0850152601081015460e08501520154161515610100820152604051918291602083526020830190613635565b3461025857602036600319011261025857600435600052600b60205260406000208054611216600183016139e2565b91600b81015490600c81015490600d810154600e820154600f8301549160ff60116010860154950154169461125d604051998a998a526101208060208c01528a0190613596565b9660408901526060880152608087015260a086015260c085015260e084015215156101008301520390f35b34610258576020366003190112610258576112a161337d565b6003546001600160a01b0391906112bb9083163314613cac565b168060005260086020526040600020600160ff19825416179055600554600160401b81101561133e576001810180600555811015611328577f036b6384b5eca791c62761152d0c79bb0604c104a5fb6f4eb0703f3154bb3db00180546001600160a01b0319169091179055005b634e487b7160e01b600052603260045260246000fd5b634e487b7160e01b600052604160045260246000fd5b34610258576101a0366003190112610258576004356001600160401b038111610258576113859036906004016134f1565b6024356001600160401b038111610258576113a49036906004016134f1565b6044356001600160401b038111610258576113c39036906004016134f1565b6064356001600160401b038111610258576113e29036906004016134f1565b6084356001600160401b038111610258576114019036906004016134f1565b90610184359283151584036102585733600052600860205261142f600160ff60406000205416151514613d93565b60405160208101906114816020828161144e8c8781519384920161354e565b8a5190820161146282858301868f0161354e565b0186519061147582858301868b0161354e565b010380845201826134b5565b51902094604051966114928861347e565b8752602087015260408601526060850152608084015260a43560a084015260c43560c084015260e43560e08401526101043561010084015261012435610120840152604051926114e18461342c565b82845260208401526101443560408401526000606084015260006080840152600060a08401526101643560c08401524260e084015280151561010084015281600052600b6020526040600020928051845560208101519384518051906001600160401b03821161133e5781906115678261155e6001870154613912565b60018701613e2d565b602090601f83116001146119f9576000926119ee575b50508160011b916000199060031b1c19161760018201555b60208501518051906001600160401b03821161133e5781906115c7826115be6002870154613912565b60028701613e2d565b602090601f831160011461197c57600092611971575b50508160011b916000199060031b1c19161760028201555b60408501518051906001600160401b03821161133e5781906116278261161e6003870154613912565b60038701613e2d565b602090601f83116001146118ff576000926118f4575b50508160011b916000199060031b1c19161760038201555b60608501518051906001600160401b03821161133e5781906116878261167e6004870154613912565b60048701613e2d565b602090601f831160011461188257600092611877575b50508160011b916000199060031b1c19161760048201555b60808501519485516001600160401b03811161133e576116e5816116dc6005860154613912565b60058601613e2d565b6020601f82116001146117fc576011928261010095936101209360019a9b6000926117f1575b5050600019600383901b1c191690891b1760058401555b60a0810151600684015560c0810151600784015560e081015160088401558481015160098401550151600a8201556040840151600b8201556060840151600c8201556080840151600d82015560a0840151600e82015560c0840151600f82015560e0840151601082015501910151151560ff801983541691161790551515146117e3575b600054600160401b81101561133e576117c88160016117df9301600055613393565b819391549060031b91821b91600019901b19161790565b9055005b6117ec81613ebc565b6117a6565b015190508b8061170b565b6005840160005260206000209760005b601f198416811061185f57509260018381999a610120946011976101009997601f19811610611846575b505050811b016005840155611722565b015160001960f88460031b161c191690558b8080611836565b828201518a556001909901986020928301920161180c565b01519050878061169d565b9250600484016000526020600020906000935b601f19841685106118d9576001945083601f198116106118c0575b505050811b0160048201556116b5565b015160001960f88460031b161c191690558780806118b0565b81810151835560209485019460019093019290910190611895565b01519050878061163d565b9250600384016000526020600020906000935b601f1984168510611956576001945083601f1981161061193d575b505050811b016003820155611655565b015160001960f88460031b161c1916905587808061192d565b81810151835560209485019460019093019290910190611912565b0151905087806115dd565b9250600284016000526020600020906000935b601f19841685106119d3576001945083601f198116106119ba575b505050811b0160028201556115f5565b015160001960f88460031b161c191690558780806119aa565b8181015183556020948501946001909301929091019061198f565b01519050878061157d565b9250600184016000526020600020906000935b601f1984168510611a50576001945083601f19811610611a37575b505050811b016001820155611595565b015160001960f88460031b161c19169055878080611a27565b81810151835560209485019460019093019290910190611a0c565b346102585761055f611a7c36613538565b6040519160208301526040820152604081526105d68161349a565b346102585760608060031936011261025857602435906004356000604435611abe816140f9565b946000936000926001918254935b848110611b3e575b5050505050611ae2816140f9565b9460005b828110611b1557505050611b0460405194848695865285019061369f565b911515602084015260408301520390f35b80611b23611b399284614149565b51611b2e828a614149565b52610c768189614149565b611ae6565b611b47816133dd565b9054600391821b1c600052600b6020918183526010908160406000200154861115611b7f575b50505050611b7a90613f04565b611acc565b909192939899868b10600014611c4057509160119160ff93611ba08b6133dd565b9054911b1c60005281855260406000209160405195611bbe8761342c565b83548752611bcd8a85016139e2565b908701528201546040860152600c8201548d860152600d8201546080860152600e82015460a0860152600f82015460c086015281015460e08501520154161515610100820152611c1d878b614149565b52611c28868a614149565b50611b7a611c368697613f04565b95908b8080611b6d565b999a50505050505050915050918580808080611ad4565b346102585760003660031901126102585760018054611c75816140f9565b9160005b828110611c96576040516020808252819061055f9082018761369f565b80611ca3611d39926133dd565b90549060031b1c600052600b60ff601160209280845260406000209060405194611ccc8661342c565b82548652611cdb8984016139e2565b908601528101546040850152600c8101546060850152600d8101546080850152600e81015460a0850152600f81015460c0850152601081015460e08501520154161515610100820152611d2e8287614149565b52610c768186614149565b611c79565b34610258576020366003190112610258576004356001600160401b03811161025857611d6e9036906004016134f1565b50602060405160018152f35b3461025857611d8836613712565b8251604051606083901b6bffffffffffffffffffffffff191660208201908152603482019290925242605482015292939192611dd181607481015b03601f1981018352826134b5565b519020906000611de1825161415d565b9360005b835181101561201b57611df88185614149565b518051600052600b602052611e1360406000205415156141cf565b6004604082015110801561092057611e2a90614274565b8051600052600b602052604060002093600b850190611e4b825415156142c0565b604083015160048110156109205761200557611e97611e9d926020850190611e7582518254613f76565b90558051611e88600c8a0191825461430c565b90556006880154905190614319565b9061430c565b935b602082015160068201546040840151936004851015610920575160028054604051929491936001600160a01b03918216929091611edb8561342c565b8a16845260208401526040830152606095611ef89087840161432c565b608093428584015260a08301523360c083015260e0820152610100810160009052604051611f27819282614338565b037f0d0cb37444e42a97b69191186cac71d299bf85a8f4472c9e55cd9f7eb26c5b1e91a1611f558589614149565b515193611f62868a614149565b5160200151611f71878b614149565b51604001611f7e90614267565b9060405196611f8c88613448565b87526020870152611fa0906040870161432c565b604051808093860190611fb29161394c565b03611fbd90836134b5565b84015260405180600181940190611fd39161394c565b03611fde90836134b5565b820152611feb8288614149565b52611ff68187614149565b5061200090613f04565b611de5565b6120159150611e97858985614452565b93611e9f565b50600480546002546040516323b872dd60e01b815233938101939093526001600160a01b039081166024840152604483018590529297969450909160209183916064918391600091165af190811561096357600091612bcd575b5015612b90576040519161208883613463565b83835260018060a01b03861660208401526040830152426060830152836080830152600560a083015282600052600a602052604060002094825186556001860160018060a01b036020850151166001600160601b0360a01b8254161790556040830151805190600160401b821161133e5760028801548260028a0155808310612b09575b5060200190600288016000526020600020916000905b82821061290a575050505060608301516003870155608083015180518051906001600160401b03821161133e57819061216b8261216260048d0154613912565b60048d01613e2d565b602090601f83116001146128985760009261288d575b50508160011b916000199060031b1c19161760048801555b60208101518051906001600160401b03821161133e5781906121cb826121c260058d0154613912565b60058d01613e2d565b602090601f831160011461281b57600092612810575b50508160011b916000199060031b1c19161760058801555b604081015180516001600160401b03811161133e578060068a0192612228826122228654613912565b86613e2d565b602090601f83116001146127aa5760009261279f575b50508160011b916000199060031b1c19161790555b606081015180516001600160401b03811161133e578060078a019261227c826122228654613912565b602090601f83116001146127395760009261272e575b50508160011b916000199060031b1c19161790555b608081015180516001600160401b03811161133e578060088a01926122d0826122228654613912565b602090601f83116001146126c8576000926126bd575b50508160011b916000199060031b1c19161790555b60a081015180516001600160401b03811161133e578060098a0192612324826122228654613912565b602090601f83116001146126575760009261264c575b50508160011b916000199060031b1c19161790555b60c081015180516001600160401b03811161133e5780600a8a0192612378826122228654613912565b602090601f83116001146125e6576000926125db575b50508160011b916000199060031b1c19161790555b60e081015180516001600160401b03811161133e57600b8901916123d1826123cb8554613912565b85613e2d565b602090601f831160011461256e576101009493929160009183612563575b50508160011b916000199060031b1c19161790555b01519586516001600160401b03811161133e576020976124348261242b600c860154613912565b600c8601613e2d565b8890601f83116001146124da579360409383600080516020616623833981519152999a946124ac946124c4986000926124cf575b50508160011b916000199060031b1c191617600c8201555b600d60a089015191015560018060a01b038116600052600e8a526124a78985600020613ee2565b613d2f565b6124b587613e74565b01519160405193849384614424565b0390a1604051908152f35b015190508d80612468565b90600c8401600052896000209160005b601f198516811061254c5750936001846124ac946124c498946040986000805160206166238339815191529d9e98601f19811610612533575b505050811b01600c820155612480565b015160001960f88460031b161c191690558d8080612523565b91928b6001819286850151815501940192016124ea565b015190508b806123ef565b90601f198316918460005260206000209260005b8181106125c3575091600193918561010098979694106125aa575b505050811b019055612404565b015160001960f88460031b161c191690558b808061259d565b92936020600181928786015181550195019301612582565b015190508a8061238e565b6000858152602081209350601f198516905b818110612634575090846001959493921061261b575b505050811b0190556123a3565b015160001960f88460031b161c191690558a808061260e565b929360206001819287860151815501950193016125f8565b015190508a8061233a565b6000858152602081209350601f198516905b8181106126a5575090846001959493921061268c575b505050811b01905561234f565b015160001960f88460031b161c191690558a808061267f565b92936020600181928786015181550195019301612669565b015190508a806122e6565b6000858152602081209350601f198516905b81811061271657509084600195949392106126fd575b505050811b0190556122fb565b015160001960f88460031b161c191690558a80806126f0565b929360206001819287860151815501950193016126da565b015190508a80612292565b6000858152602081209350601f198516905b818110612787575090846001959493921061276e575b505050811b0190556122a7565b015160001960f88460031b161c191690558a8080612761565b9293602060018192878601518155019501930161274b565b015190508a8061223e565b6000858152602081209350601f198516905b8181106127f857509084600195949392106127df575b505050811b019055612253565b015160001960f88460031b161c191690558a80806127d2565b929360206001819287860151815501950193016127bc565b0151905089806121e1565b925060058a016000526020600020906000935b601f1984168510612872576001945083601f19811610612859575b505050811b0160058801556121f9565b015160001960f88460031b161c19169055898080612849565b8181015183556020948501946001909301929091019061282e565b015190508980612181565b925060048a016000526020600020906000935b601f19841685106128ef576001945083601f198116106128d6575b505050811b016004880155612199565b015160001960f88460031b161c191690558980806128c6565b818101518355602094850194600190930192909101906128ab565b805180518555602081015160018601556040810151600481101561092057612935906002870161440c565b60608101518051906001600160401b03821161133e576129658261295c60038a0154613912565b60038a01613e2d565b602090601f8311600114612a9657608093929160009183612a8b575b50508160011b916000199060031b1c19161760038701555b01518051906001600160401b03821161133e576129c6826129bd6004890154613912565b60048901613e2d565b602090601f8311600114612a15579282600593602093600196600092612a0a575b5050600019600383901b1c191690851b1760048801555b01940191019092612122565b015190508f806129e7565b906004870160005260206000209160005b601f1985168110612a73575083602093600196938793600597601f19811610612a5a575b505050811b0160048801556129fe565b015160001960f88460031b161c191690558f8080612a4a565b91926020600181928685015181550194019201612a26565b015190508e80612981565b906003880160005260206000209160005b601f1985168110612af1575091839160019360809695601f19811610612ad8575b505050811b016003870155612999565b015160001960f88460031b161c191690558e8080612ac8565b91926020600181928685015181550194019201612aa7565b6005818102048103612b7a576005838102048303612b7a576002890160005260206000208360050281015b8260050282018110612b4757505061210c565b806000600592556000600182015560006002820155612b68600382016143c3565b612b74600482016143c3565b01612b34565b634e487b7160e01b600052601160045260246000fd5b60405162461bcd60e51b8152602060048201526015602482015274151bdad95b881d1c985b9cd9995c8819985a5b1959605a1b6044820152606490fd5b612be6915060203d60201161095c5761094d81836134b5565b86612075565b34610258576020366003190112610258576004356006548110156102585760066000527ff652222313e28459528d920b65115c16c04f3efc82aaedc97be59f3f377c0d3f01546040516001600160a01b039091168152602090f35b34610258576000366003190112610258576020600754604051908152f35b34610258576000366003190112610258573360005260206008815260019060ff91612c9a818460406000205416151514613d93565b60005490612ca7826140f9565b9360005b838110612cc5576040518581528061055f8188018961369f565b80612cd2612d6392613393565b90549060031b1c600052600b808752836011604060002060405193612cf68561342c565b81548552612d058983016139e2565b8b8601528101546040850152600c8101546060850152600d8101546080850152600e81015460a0850152600f81015460c0850152601081015460e08501520154161515610100820152612d588289614149565b52610c768188614149565b612cab565b3461025857602036600319011261025857336000526008602052612d98600160ff60406000205416151514613d93565b60206109c4600435613f13565b3461025857602036600319011261025857336000526008602052612dd5600160ff60406000205416151514613d93565b60206109c4600435613f83565b346102585760603660031901126102585760043560005260206010815260406000206040519081838254918281520191600052836000209060005b85828210612e4057610d9186612e35818803826134b5565b604435602435614890565b835485529093019260019283019201612e1d565b3461025857612e6236613538565b90600052601060205260406000208054821015610258576020916102f991613414565b3461025857610180366003190112610258576024356001600160401b03811161025857612eb69036906004016134f1565b6044356001600160401b03811161025857612ed59036906004016134f1565b906064356001600160401b03811161025857612ef59036906004016134f1565b906084356001600160401b03811161025857612f159036906004016134f1565b90336000526008602052612f35600160ff60406000205416151514613d93565b600435600052600b60205260406000209060018201908051906001600160401b03821161133e578190612f6c826122228654613912565b602090601f831160011461325057600092613245575b50508160011b916000199060031b1c19161790555b83516001600160401b03811161133e57612fc181612fb86003850154613912565b60038501613e2d565b6020601f82116001146131d65781929394956000926131cb575b50508160011b916000199060031b1c19161760038201555b6004810183516001600160401b03811161133e5761301b816130158454613912565b84613e2d565b602094601f82116001146131655794819293949560009261315a575b50508160011b916000199060031b1c19161790555b6005810182516001600160401b03811161133e5761306e816130158454613912565b6020601f82116001146130f457819293946000926130e9575b50508160011b916000199060031b1c19161790555b60a435600682015560c435600782015560e435600882015561010435600982015561012435600a82015561014435600b82015561016435600f820155601042910155602060405160018152f35b015190508480613087565b601f198216908360005260206000209160005b81811061314257509583600195969710613129575b505050811b01905561309c565b015160001960f88460031b161c1916905584808061311c565b9192602060018192868b015181550194019201613107565b015190508580613037565b601f198216958360005260206000209160005b8881106131b35750836001959697981061319a575b505050811b01905561304c565b015160001960f88460031b161c1916905585808061318d565b91926020600181928685015181550194019201613178565b015190508580612fdb565b6003830160005260206000209060005b601f198416811061322d575060019394959683601f19811610613214575b505050811b016003820155612ff3565b015160001960f88460031b161c19169055858080613204565b9091602060018192858b0151815501930191016131e6565b015190508780612f82565b9250836000526020600020906000935b601f19841685106132a1576001945083601f19811610613288575b505050811b019055612f97565b015160001960f88460031b161c1916905587808061327b565b81810151835560209485019460019093019290910190613260565b346102585760203660031901126102585760043580600052600f60205260406000206132e88154613f04565b905560005260106020526040600020805490600160401b82101561133e57816133199160016117df94018155613414565b919091429083549060031b91821b91600019901b19161790565b346102585760403660031901126102585761334c61337d565b6001600160a01b03166000908152600d6020526040902080546024359190821015610258576020916102f991613414565b600435906001600160a01b038216820361025857565b9060009182548110156133c9578280527f290decd9548b62a8d60345a988386fc84ba6bc95484008f6362f93160ef3e563019190565b634e487b7160e01b83526032600452602483fd5b6001548110156113285760016000527fb10e2d527612073b26eecdfd717e6a320cf44b4afac2b0732d9fcbe2b7fa0cf60190600090565b80548210156113285760005260206000200190600090565b61012081019081106001600160401b0382111761133e57604052565b60a081019081106001600160401b0382111761133e57604052565b60c081019081106001600160401b0382111761133e57604052565b61014081019081106001600160401b0382111761133e57604052565b606081019081106001600160401b0382111761133e57604052565b90601f801991011681019081106001600160401b0382111761133e57604052565b6001600160401b03811161133e57601f01601f191660200190565b81601f8201121561025857803590613508826134d6565b9261351660405194856134b5565b8284526020838301011161025857816000926020809301838601378301015290565b6040906003190112610258576004359060243590565b60005b8381106135615750506000910152565b8181015183820152602001613551565b9060209161358a8151809281855285808601910161354e565b601f01601f1916010190565b906135fe6135ec6135da6135c86135b68651610140808852870190613571565b60208701518682036020880152613571565b60408601518582036040870152613571565b60608501518482036060860152613571565b60808401518382036080850152613571565b9160a081015160a083015260c081015160c083015260e081015160e083015261010080820151908301526101208091015191015290565b90815181526136536020830151610120806020850152830190613596565b9160408101516040830152606081015160608301526080810151608083015260a081015160a083015260c081015160c083015260e081015160e083015261010080910151151591015290565b908082519081815260208091019281808460051b8301019501936000915b8483106136cd5750505050505090565b90919293949584806136eb600193601f198682030187528a51613635565b98019301930191949392906136bd565b6001600160401b03811161133e5760051b60200190565b9060606003198181850112610258576004938435946001600160401b03808711610258578260238801121561025857868201359461374f866136fb565b60409861375e8a5192836134b5565b8782526020976024848a850192028301019187831161025857602401905b8282106138d157505050976024359583871161025857610120908787030112610258578051966137ab8861342c565b868501358481116102585786866137c4928a01016134f1565b885260248701358481116102585786866137e0928a01016134f1565b9088015260448601358381116102585785856137fe928901016134f1565b90870152606485013582811161025857848461381c928801016134f1565b90860152608484013581811161025857838361383a928701016134f1565b608086015260a4840135818111610258578383613859928701016134f1565b60a086015260c4840135818111610258578383613878928701016134f1565b60c086015260e4840135818111610258578383613897928701016134f1565b60e0860152610104840135908111610258576138b49301016134f1565b610100820152906044356001600160a01b03811681036102585790565b8482890312610258578b51906138e68261349a565b823582528a8301358b8301528c830135908882101561025857828c928f8995015281520191019061377c565b90600182811c92168015613942575b602083101461392c57565b634e487b7160e01b600052602260045260246000fd5b91607f1691613921565b906000929180549161395d83613912565b9182825260019384811690816000146139bf575060011461397f575b50505050565b90919394506000526020928360002092846000945b8386106139ab575050505001019038808080613979565b805485870183015294019385908201613994565b9294505050602093945060ff191683830152151560051b01019038808080613979565b9060409161012060098451926139f78461347e565b83958051613a0981610cc8818661394c565b85528051613a1e81610cc8816001870161394c565b60208601528051613a3681610cc8816002870161394c565b818601528051613a4d81610cc8816003870161394c565b606086015251613a6481610cc8816004860161394c565b6080850152600581015460a0850152600681015460c0850152600781015460e085015260088101546101008501520154910152565b9060048210156109205752565b90613b6591613b51613b3f613b2d613b1b613b09613af7613ae5613ad38851610120808c528b0190613571565b60208901518a820360208c0152613571565b604088015189820360408b0152613571565b606087015188820360608a0152613571565b60808601518782036080890152613571565b60a085015186820360a0880152613571565b60c084015185820360c0870152613571565b60e083015184820360e0860152613571565b916101008092015191818403910152613571565b90565b9060c081018251825260209060018060a01b03828501511682840152604090818501519260c083860152835180925260e08501928160e08460051b8801019501936000915b848310613be65750505050505060a0613bdd81926060860151606086015260808601518582036080870152613aa6565b93015191015290565b9091929394958480613c4760019360df198c82030187528a51805182528381015184830152613c1b8782015188840190613a99565b613c346060808301519060a08091860152840190613571565b9160808092015191818403910152613571565b9801930193019194939290613bad565b90815180825260208092019182818360051b82019501936000915b848310613c825750505050505090565b9091929394958480613c9c83856001950387528a51613b68565b9801930193019194939290613c72565b15613cb357565b60405162461bcd60e51b815260206004820152604860248201527f7b2266726f6d223a2022466943616d2e736f6c222c2022636f6465223a20312c60448201527f20226d657373616765223a2022496e76616c69642063616c6c65722d4f6e6c79606482015267204f776e6572227d60c01b608482015260a490fd5b600654600160401b81101561133e5760018101806006558110156113285760066000527ff652222313e28459528d920b65115c16c04f3efc82aaedc97be59f3f377c0d3f0180546001600160a01b0319166001600160a01b03909216919091179055565b15613d9a57565b60405162461bcd60e51b815260206004820152604860248201527f7b2266726f6d223a2022466943616d2e736f6c222c2022636f6465223a20322c60448201527f20226d657373616765223a2022496e76616c69642063616c6c65722d4f6e6c796064820152672041646d696e227d60c01b608482015260a490fd5b818110613e21575050565b60008155600101613e16565b9190601f8111613e3c57505050565b613e68926000526020600020906020601f840160051c83019310613e6a575b601f0160051c0190613e16565b565b9091508190613e5b565b601554600160401b81101561133e5760018101806015558110156113285760156000527f55f448fdea98c4d29eb340757ef0a66cd03dbb9538908a6a81d96026b71ec4750155565b600154600160401b81101561133e576117c8816001613ede93016001556133dd565b9055565b805490600160401b82101561133e57816117c8916001613ede94018155613414565b6000198114612b7a5760010190565b80600052600b60205260116040600020016001908160ff198254161790556000918154925b838110613f4b5750613b65919250613ebc565b81613f55826133dd565b90549060031b1c14613f6f57613f6a90613f04565b613f38565b5050905090565b91908203918211612b7a57565b6000818152600b60205260119182604083200160ff198154169055815b6001805480831015614066578390613fb7846133dd565b929054600393841b1c14613fd657505050613fd190613f04565b613fa0565b90949291959350600019938482019182116140545750808210614030575b5050835490811561401c575081019161400c836133dd565b81939154921b1b19169055815590565b634e487b7160e01b81526031600452602490fd5b6117c861403f61404b926133dd565b905490871b1c926133dd565b90553880613ff4565b634e487b7160e01b8452600452602483fd5b505050505050600190565b6040519061407e8261342c565b6000808352604051836140908261347e565b82606080845280602085015280604085015280808501528060808501528160a08501528160c08501528160e08501526101009382858201528261012082015260208401528160408401528201528260808201528260a08201528260c08201528260e08201520152565b90614103826136fb565b61411060405191826134b5565b8281528092614121601f19916136fb565b019060005b82811061413257505050565b60209061413d614071565b82828501015201614126565b80518210156113285760209160051b010190565b90614167826136fb565b604090614176825191826134b5565b8381528093614187601f19916136fb565b0191600091825b84811061419c575050505050565b60209083516141aa81613448565b858152828681830152868683015260608080840152608083015282850101520161418e565b156141d657565b60405162461bcd60e51b815260206004820152605b60248201527f7b2266726f6d223a2022466943616d2e736f6c222c2022636f6465223a20342c60448201527f20226d657373616765223a2022496e76616c69642070726f647563742049442060648201527f6f722070726f6475637420646f6573206e6f74206578697374227d0000000000608482015260a490fd5b5160048110156109205790565b1561427b57565b60405162461bcd60e51b815260206004820152601960248201527f496e76616c696420737562736372697074696f6e2074797065000000000000006044820152606490fd5b156142c757565b60405162461bcd60e51b815260206004820152601d60248201527f70726f647563742073746f72616765206973206e6f7420656e6f7567680000006044820152606490fd5b91908201809211612b7a57565b81810292918115918404141715612b7a57565b60048210156109205752565b91909161012081019260018060a01b03808251168352602082015160208401526040820151604084015261437460608301516060850190613a99565b6080820151608084015260a082015160a08401528060c08301511660c084015260e08201511660e083015261010080910151910152565b90816020910312610258575180151581036102585790565b6143cd8154613912565b90816143d7575050565b81601f600093116001146143e9575055565b908083918252614408601f60208420940160051c840160018501613e16565b5555565b9060048110156109205760ff80198354169116179055565b93929161444d9061443f604093606088526060880190613571565b908682036020880152613b68565b930152565b92909160009260009480518652602095600b87526040918282209482938083019283519a60049b8c81101561468f576001146146c6575b84518c81101561468f576002146146a2575b84518c81101561468f57600314614656575b8082019889516144c2600b8301918254613f76565b90556144d5600d8b51920191825461430c565b90556001600160a01b03841680875260118252838720898852825283872083518852825283872042905585519099908d8110156146425761451861451e916146ea565b4261612f565b8a8852601283528488208a8952835284882084518952835284882055898752601382528387208988528252838720835188528252878488205589875260148252838720898852825283872083518852825283872090835182555160018201558551908d82101561464257906002614595920161440c565b81519886526012815282862088875281528286209151865252808420549251938a85101561462f5750516001600160a01b0391909116815260208101949094526040840194909452426060840152608083019390935260a082019290925260c0810191909152600060e0820152919250907f7a349466f0b119934b2376706bf145e6fabe7eb4b8c4cba23bb8f5dc9cb74b759061010090a1565b634e487b7160e01b815260218b52602490fd5b50634e487b7160e01b875260218d52602487fd5b99506146849550614689600a8901546146748c840191825190614319565b97889160078c0154905190614319565b61430c565b996144ad565b634e487b7160e01b875260218d52602487fd5b995061468495506146c060098901546146748c840191825190614319565b9961449b565b995061468495506146e460088901546146748c840191825190614319565b99614489565b906000916004811015610920578060011461471e575b60031480614715575b61470f57565b600c9150565b60069250614709565b60019250614700565b604051906147348261342c565b8161010060609182815282602082015282604082015282808201528260808201528260a08201528260c08201528260e08201520152565b9060086101006040936148538551916147838361342c565b61484c8397805161479881610cc8818761394c565b855280516147ad81610cc8816001880161394c565b602086015280516147c581610cc8816002880161394c565b8186015280516147dc81610cc8816003880161394c565b606086015280516147f481610cc8816004880161394c565b6080860152805161480c81610cc8816005880161394c565b60a0860152805161482481610cc8816006880161394c565b60c0860152805161483c81610cc8816007880161394c565b60e086015251809681930161394c565b03846134b5565b0152565b6040519061486482613463565b600060a08382815282602082015260606040820152826060820152614887614727565b60808201520152565b600093928492908183116149c157805184935b81851061497a575050839181515b80841061492157505050806149005750815b808211156148d057505050565b6148dc92939450613f76565b90600182018092116148ec575090565b634e487b7160e01b81526011600452602490fd5b6000198101908111156148c357634e487b7160e01b83526011600452602483fd5b61492b8482613f76565b9061493a600192831c8661430c565b91836149468487614149565b5111156149545750506148b1565b909450810180911161496657926148b1565b634e487b7160e01b86526011600452602486fd5b90936149868186613f76565b614994600191821c8361430c565b91836149a08487614149565b5110156149b95750810180911161496657935b906148a3565b9550506149b3565b60405162461bcd60e51b8152602060048201526012602482015271496e76616c69642074696d652072616e676560701b6044820152606490fd5b90614a05826136fb565b614a1260405191826134b5565b8281528092614a23601f19916136fb565b019060005b828110614a3457505050565b602090614a3f614857565b82828501015201614a28565b91909160609233600052600e602052604060002054614a69816136fb565b90614a7760405192836134b5565b808252614a86601f19916136fb565b019060203691013733600052600e6020526040600020906040518083602082955493848152019060005260206000209260005b818110614e0b575050614ace925003836134b5565b614ade8163ffffffff8516614319565b614ae982845161430c565b1015614af85750505060009190565b909193614b0b8263ffffffff8716614319565b83511115614c805750614b1d816149fb565b9360005b8551811015614c7657614b50614b4a8261468486614b458163ffffffff8916614319565b613f76565b85614149565b51600052600a602052604060002060405190614b6b82613463565b805482526001808201546001600160a01b0316602084015260028083018054909291614b96826136fb565b93614ba460405195866134b5565b82855260208501906000526020600020916000915b848310614c05575050505050508291600d916040614c009695015260038101546060840152614bea6004820161476b565b6080840152015460a0820152612d588289614149565b614b21565b600560208792604051614c1781613448565b875481528488015483820152614c3660ff878a0154166040830161432c565b604051614c4a81610cc88160038d0161394c565b6060820152604051614c6381610cc88160048d0161394c565b6080820152815201940192019192614bb9565b5050505060019190565b9190614cae614ca9614ca3614c9b8463ffffffff8a16614319565b855190613f76565b83613f76565b6149fb565b9460005b8651811015614e0057614cd6614b4a8261468486614b458163ffffffff8916614319565b51600052600a602052604060002060405190614cf182613463565b8054825260018101546001600160a01b03166020830152600281018054614d17816136fb565b91614d2560405193846134b5565b81835260208301906000526020600020906000905b8b848310614d855750505050508291600d916040614d8096950152600381015489840152614d6a6004820161476b565b6080840152015460a0820152611b2e828a614149565b614cb2565b602060019260059260405190614d9a82613448565b875482528588015484830152614dba60ff60028a0154166040840161432c565b60405190614dd682614dcf8160038d0161394c565b03836134b5565b820152604051614ded81610cc88160048c0161394c565b6080820152815201930191019091614d3a565b505050505060009190565b8454835260019485019487945060209093019201614ab9565b90929192614e31816134d6565b91614e3f60405193846134b5565b829482845282820111610258576020613e6893019061354e565b80518101604082602083019203126102585760208201516001600160401b03811161025857820181603f820112156102585760409181836020614e9f9401519101614e24565b910151600281101561025857801561502e57600114614ec057505050600090565b6040818051810103126102585760406020820151910151926000828152600a60205260018060a01b036001604083200154169485825260136020526040822084835260205260408220818352602052614f206040832054809410156160aa565b8582526014602052604082208483526020526040822081835260205260ff6002604084200154169386835260126020526040832081845260205260408320828452602052614f756040842054610858876146ea565b87845260126020526040842082855260205260408420838552602052604084205586835260126020526040832081845260205260408320828452602052604083205492600486101561501a5750604080519788526020880191909152860152426060860152608085015260a084015260c083015260e08201527f7a349466f0b119934b2376706bf145e6fabe7eb4b8c4cba23bb8f5dc9cb74b759061010090a1600190565b634e487b7160e01b81526021600452602490fd5b50919082518301916060848403126102585760208401516001600160401b0381116102585784019260208101603f85011215610258576020840151615072816136fb565b9461508060405196876134b5565b818652604060606020880193028201019060208401821161025857604001915b818310616043575050506040850151946001600160401b0386116102585761012086820183031261025857604051956150d88761342c565b602081830101516001600160401b03811161025857615101906020808601918486010101616090565b8752604081830101516001600160401b0381116102585761512c906020808601918486010101616090565b6020880152606081830101516001600160401b0381116102585761515a906020808601918486010101616090565b6040880152608081830101516001600160401b03811161025857615188906020808601918486010101616090565b606088015260a081830101516001600160401b038111610258576151b6906020808601918486010101616090565b608088015260c081830101516001600160401b038111610258576151e4906020808601918486010101616090565b60a088015260e081830101516001600160401b03811161025857615212906020808601918486010101616090565b60c088015261010081830101516001600160401b03811161025857615241906020808601918486010101616090565b60e08801526101208183010151906001600160401b0382116102585760206152729281606096019285010101616090565b6101008701520151926001600160a01b0384168403610258578051604051606086901b6bffffffffffffffffffffffff19166020820190815260348201929092524260548201526152c68160748101611dc3565b519020956000906152d7835161415d565b93825b84518110156154f4576152ed8186614149565b51908151600052600b60205261530960406000205415156141cf565b600460408301511080156109205761532090614274565b8151600052600b60205260406000209461533f600b87015415156142c0565b60408301516004811015610920576154d65761539090611e976020850161536b8151600b8b0154613f76565b600b8a01558051615381600c8b0191825461430c565b90556006890154905190614319565b945b60208301519260068201549060408101516004811015610920576154d1957f0d0cb37444e42a97b69191186cac71d299bf85a8f4472c9e55cd9f7eb26c5b1e936154148f9361543d95519260018060a01b036002541694604051966153f68861342c565b6001600160a01b03168752602087015260408601526060850161432c565b42608084015260a08301523360c083015260e08201528b61010082015260405191829182614338565b0390a160016154c261544f848a614149565b5151926154998a61547b604061547489602061546b8287614149565b51015194614149565b5101614267565b906040519661548988613448565b875260208701526040860161432c565b6040516154ad81610cc8816002860161394c565b6060850152610cc8604051809481930161394c565b6080820152612d588289614149565b6152da565b6154ee90611e976001600160a01b038c168e86614452565b94615392565b509450959294969150615509908410156160aa565b6040519361551685613463565b81855260018060a01b03871660208601526040850152426060850152816080850152600560a085015280600052600a602052604060002095845187556001870160018060a01b036020870151166001600160601b0360a01b8254161790556040850151805190600160401b821161133e5760028901548260028b0155808310615fd2575b5060200190600289016000526020600020916000905b828210615de5575050505060608501516003880155608085015180518051906001600160401b03821161133e5781906155f9828c60046155f281830154613912565b9101613e2d565b602090601f8311600114615d7357600092615d68575b50508160011b916000199060031b1c19161760048901555b60208101518051906001600160401b03821161133e578190615652828c60056155f281830154613912565b602090601f8311600114615cf657600092615ceb575b50508160011b916000199060031b1c19161760058901555b60408101518051906001600160401b03821161133e5781906156ab828c60066155f281830154613912565b602090601f8311600114615c7957600092615c6e575b50508160011b916000199060031b1c19161760068901555b60608101518051906001600160401b03821161133e578190615704828c60076155f281830154613912565b602090601f8311600114615bfc57600092615bf1575b50508160011b916000199060031b1c19161760078901555b60808101518051906001600160401b03821161133e57819061575d828c60086155f281830154613912565b602090601f8311600114615b7f57600092615b74575b50508160011b916000199060031b1c19161760088901555b60a08101518051906001600160401b03821161133e5781906157b6828c60096155f281830154613912565b602090601f8311600114615b0257600092615af7575b50508160011b916000199060031b1c19161760098901555b60c08101518051906001600160401b03821161133e57819061580f828c600a6155f281830154613912565b602090601f8311600114615a8557600092615a7a575b50508160011b916000199060031b1c191617600a8901555b60e08101518051906001600160401b03821161133e5761586d82615864600b8d0154613912565b600b8d01613e2d565b602090601f8311600114615a0657610100939291600091836159fb575b50508160011b916000199060031b1c191617600b8a01555b01519687516001600160401b03811161133e576158cf816158c6600c850154613912565b600c8501613e2d565b6020601f821160011461596d5761595a95936124b5938360409794615955946000805160206166238339815191529d9e600092615962575b50508160011b916000199060031b1c191617600c8201555b600d60a08b015191015560018060a01b038116600052600e6020526159478387600020613ee2565b6001600160a01b0316613d2f565b613e74565b0390a1600190565b015190503880615907565b600c830160005260206000209960005b601f19841681106159e35750936124b5936001846000805160206166238339815191529c9d6159559561595a9b9960409b98601f198116106159ca575b505050811b01600c82015561591f565b015160001960f88460031b161c191690553880806159ba565b828201518c556001909b019a6020928301920161597d565b01519050388061588a565b90600b8b0160005260206000209160005b601f1985168110615a6257509183916001936101009695601f19811610615a49575b505050811b01600b8a01556158a2565b015160001960f88460031b161c19169055388080615a39565b91926020600181928685015181550194019201615a17565b015190503880615825565b9250600a8b016000526020600020906000935b601f1984168510615adc576001945083601f19811610615ac3575b505050811b01600a89015561583d565b015160001960f88460031b161c19169055388080615ab3565b81810151835560209485019460019093019290910190615a98565b0151905038806157cc565b925060098b016000526020600020906000935b601f1984168510615b59576001945083601f19811610615b40575b505050811b0160098901556157e4565b015160001960f88460031b161c19169055388080615b30565b81810151835560209485019460019093019290910190615b15565b015190503880615773565b925060088b016000526020600020906000935b601f1984168510615bd6576001945083601f19811610615bbd575b505050811b01600889015561578b565b015160001960f88460031b161c19169055388080615bad565b81810151835560209485019460019093019290910190615b92565b01519050388061571a565b925060078b016000526020600020906000935b601f1984168510615c53576001945083601f19811610615c3a575b505050811b016007890155615732565b015160001960f88460031b161c19169055388080615c2a565b81810151835560209485019460019093019290910190615c0f565b0151905038806156c1565b925060068b016000526020600020906000935b601f1984168510615cd0576001945083601f19811610615cb7575b505050811b0160068901556156d9565b015160001960f88460031b161c19169055388080615ca7565b81810151835560209485019460019093019290910190615c8c565b015190503880615668565b925060058b016000526020600020906000935b601f1984168510615d4d576001945083601f19811610615d34575b505050811b016005890155615680565b015160001960f88460031b161c19169055388080615d24565b81810151835560209485019460019093019290910190615d09565b01519050388061560f565b925060048b016000526020600020906000935b601f1984168510615dca576001945083601f19811610615db1575b505050811b016004890155615627565b015160001960f88460031b161c19169055388080615da1565b81810151835560209485019460019093019290910190615d86565b805180518555602081015160018601556040810151600481101561092057615e10906002870161440c565b60608101518051906001600160401b03821161133e57615e378261295c60038a0154613912565b602090601f8311600114615f5f57608093929160009183615f54575b50508160011b916000199060031b1c19161760038701555b01518051906001600160401b03821161133e57615e8f826129bd6004890154613912565b602090601f8311600114615ede579282600593602093600196600092615ed3575b5050600019600383901b1c191690851b1760048801555b019401910190926155b0565b015190503880615eb0565b906004870160005260206000209160005b601f1985168110615f3c575083602093600196938793600597601f19811610615f23575b505050811b016004880155615ec7565b015160001960f88460031b161c19169055388080615f13565b91926020600181928685015181550194019201615eef565b015190503880615e53565b906003880160005260206000209160005b601f1985168110615fba575091839160019360809695601f19811610615fa1575b505050811b016003870155615e6b565b015160001960f88460031b161c19169055388080615f91565b91926020600181928685015181550194019201615f70565b6005818102048103612b7a576005838102048303612b7a5760028a0160005260206000208360050281015b826005028201811061601057505061559a565b806000600592556000600182015560006002820155616031600382016143c3565b61603d600482016143c3565b01615ffd565b606060208486030112610258576040519061605d8261349a565b835182526020840151602083015260408401519060048210156102585782602092604060609501528152019201916150a0565b9080601f83011215610258578151613b6592602001614e24565b156160b157565b60405162461bcd60e51b815260206004820152604a60248201527f7b2266726f6d223a2022466943616d2e736f6c222c2022636f6465223a20382c60448201527f20226d657373616765223a2022496e73756666696369656e74207061796d656e6064820152697420616d6f756e74227d60b01b608482015260a490fd5b919060009062010bd9620151808086048281019391928582128015918612918216911516176165b5576226496501928462253d8c851291129080158216911516176165a1578260021b90600491828105850361645b5762023ab180910594858202918205860361658e576003918281019088848312911290801582169115161761657b5790846161c09205906165db565b9460019586810187811289831290801582169115161761646e57610fa0908082029182050361646e5762164b09616204910591866161fd84616610565b05906165db565b90601f82019189601f8412911290801582169115161761646e5781605002916050830581036165685761098f8093059283810290810584036164ba5790605061624e9205906165db565b90600b83059060028401938b6002861291129080158216911516176164ba57600c938285029085820584036164945790616287916165db565b9460301981019081138b16616481578060640290606482050361648157916162b56162ba926162c2946165f4565b6165f4565b95829461430c565b60001995868201949185116164ba576162df84918287049061430c565b940689810192838211616481578a8414801561655f575b8015616555575b801561654b575b8015616541575b8015616537575b801561652e575b156164d957601f80915b116164d1575b506107b285106164cd57617d4a1982019182138a166164ba578a8512968715926112c087810190811285811690158b16176164a757908a61637461637b616380948a6163748b6165c9565b05906165f4565b616610565b91018381138b166164815784616395856165c9565b05908582029180830587149015171561649457906163b2916165db565b61016f90808202918205036164815790846163ce9205906165f4565b956113248095019485129081151691161761646e57916163f3916163746064946165c9565b058082029182050361645b57908261640c9205906165db565b62253d8b1981019390841316616448578183029280840483149015171561644857509061643b9185069061430c565b9283106164455750565b80fd5b634e487b7160e01b845260119052602483fd5b634e487b7160e01b865260118352602486fd5b634e487b7160e01b895260118652602489fd5b634e487b7160e01b8c526011895260248cfd5b634e487b7160e01b8d5260118a5260248dfd5b634e487b7160e01b8e5260118b5260248efd5b634e487b7160e01b8b526011885260248bfd5b8a80fd5b915038616329565b600284146164ea57601e8091616323565b8686161580616522575b8015616516575b1561650d5760ff601d5b168091616323565b60ff601c616505565b506101908606156164fb565b506064860615156164f4565b50848414616319565b50600a8414616312565b506008841461630b565b5060078414616304565b50600584146162fd565b508684146162f6565b634e487b7160e01b8a526011875260248afd5b634e487b7160e01b885260118552602488fd5b634e487b7160e01b875260118452602487fd5b634e487b7160e01b84526011600452602484fd5b634e487b7160e01b85526011600452602485fd5b90600d198201918213600116612b7a57565b81810392916000138015828513169184121617612b7a57565b91909160008382019384129112908015821691151617612b7a57565b906105b59180830292830503612b7a5756fe09cfb29ba89972ccaac331801646fb46cf877571081a07c992a559a1a6f58509a26469706673582212208a4411cb9699fcb687cc9685511296683806d7fe5d039deb70b9756fcfaea0b064736f6c63430008130033",
			"opcodes": "PUSH1 0x80 DUP1 PUSH1 0x40 MSTORE PUSH1 0x1 DUP1 PUSH1 0xA0 SHL SUB NOT CALLER DUP2 PUSH1 0x3 SLOAD AND OR PUSH1 0x3 SSTORE PUSH1 0x2 DUP2 PUSH1 0x4 SLOAD AND OR PUSH1 0x4 SSTORE PUSH1 0x0 CALLER DUP2 MSTORE PUSH1 0x8 PUSH1 0x20 MSTORE PUSH1 0x40 DUP2 KECCAK256 PUSH1 0x1 PUSH1 0xFF NOT DUP3 SLOAD AND OR SWAP1 SSTORE PUSH1 0x5 SLOAD SWAP1 PUSH9 0x10000000000000000 DUP3 LT ISZERO PUSH3 0xB1 JUMPI PUSH1 0x1 DUP3 ADD DUP1 PUSH1 0x5 SSTORE DUP3 LT ISZERO PUSH3 0x9D JUMPI PUSH1 0x5 SWAP1 MSTORE PUSH32 0x36B6384B5ECA791C62761152D0C79BB0604C104A5FB6F4EB0703F3154BB3DB0 ADD DUP1 SLOAD SWAP1 SWAP2 AND CALLER OR SWAP1 SSTORE PUSH2 0x6678 SWAP1 DUP2 PUSH3 0xC6 DUP3 CODECOPY RETURN JUMPDEST PUSH4 0x4E487B71 PUSH1 0xE0 SHL DUP2 MSTORE PUSH1 0x32 PUSH1 0x4 MSTORE PUSH1 0x24 SWAP1 REVERT JUMPDEST PUSH4 0x4E487B71 PUSH1 0xE0 SHL DUP2 MSTORE PUSH1 0x41 PUSH1 0x4 MSTORE PUSH1 0x24 SWAP1 REVERT INVALID PUSH1 0x80 PUSH1 0x40 MSTORE PUSH1 0x4 CALLDATASIZE LT ISZERO PUSH2 0x12 JUMPI PUSH1 0x0 DUP1 REVERT JUMPDEST PUSH1 0x0 CALLDATALOAD PUSH1 0xE0 SHR DUP1 PUSH4 0x2B572D6 EQ PUSH2 0x3333 JUMPI DUP1 PUSH4 0x41CBB16 EQ PUSH2 0x32BC JUMPI DUP1 PUSH4 0x5D0AF0B EQ PUSH2 0x2E85 JUMPI DUP1 PUSH4 0xB0FE44C EQ PUSH2 0x2E54 JUMPI DUP1 PUSH4 0xC2ED967 EQ PUSH2 0x2DE2 JUMPI DUP1 PUSH4 0xF8472FF EQ PUSH2 0x2DA5 JUMPI DUP1 PUSH4 0x103BB2B5 EQ PUSH2 0x2D68 JUMPI DUP1 PUSH4 0x12EE84EF EQ PUSH2 0x2C65 JUMPI DUP1 PUSH4 0x1C787F3E EQ PUSH2 0x2C47 JUMPI DUP1 PUSH4 0x1E98FD1C EQ PUSH2 0x2BEC JUMPI DUP1 PUSH4 0x27B50845 EQ PUSH2 0x1D7A JUMPI DUP1 PUSH4 0x30D51A32 EQ PUSH2 0x1D3E JUMPI DUP1 PUSH4 0x350F31EA EQ PUSH2 0x1C57 JUMPI DUP1 PUSH4 0x3F81714C EQ PUSH2 0x1A97 JUMPI DUP1 PUSH4 0x51D04876 EQ PUSH2 0x1A6B JUMPI DUP1 PUSH4 0x52023610 EQ PUSH2 0x1354 JUMPI DUP1 PUSH4 0x5A272403 EQ PUSH2 0x1288 JUMPI DUP1 PUSH4 0x5C8D05A4 EQ PUSH2 0x11E7 JUMPI DUP1 PUSH4 0x5D977EE1 EQ PUSH2 0x1139 JUMPI DUP1 PUSH4 0x673047BA EQ PUSH2 0x1093 JUMPI DUP1 PUSH4 0x6F0243F3 EQ PUSH2 0x106A JUMPI DUP1 PUSH4 0x70B9E002 EQ PUSH2 0xFA3 JUMPI DUP1 PUSH4 0x7CF388EE EQ PUSH2 0xE67 JUMPI DUP1 PUSH4 0x7F7C0808 EQ PUSH2 0xE1B JUMPI DUP1 PUSH4 0x7F8C678F EQ PUSH2 0xDD1 JUMPI DUP1 PUSH4 0x94284CBD EQ PUSH2 0xDA8 JUMPI DUP1 PUSH4 0x951A5662 EQ PUSH2 0xD11 JUMPI DUP1 PUSH4 0x9D6FFCE0 EQ PUSH2 0xB31 JUMPI DUP1 PUSH4 0x9F89A4B2 EQ PUSH2 0xAD6 JUMPI DUP1 PUSH4 0xA2B2FB55 EQ PUSH2 0xA85 JUMPI DUP1 PUSH4 0xA559934E EQ PUSH2 0xA39 JUMPI DUP1 PUSH4 0xAAEDFCD1 EQ PUSH2 0x96F JUMPI DUP1 PUSH4 0xACFA58D2 EQ PUSH2 0x22C JUMPI DUP1 PUSH4 0xAF669326 EQ PUSH2 0x768 JUMPI DUP1 PUSH4 0xB11E3C1A EQ PUSH2 0x729 JUMPI DUP1 PUSH4 0xB358FA8E EQ PUSH2 0x6B5 JUMPI DUP1 PUSH4 0xB46B9A2D EQ PUSH2 0x668 JUMPI DUP1 PUSH4 0xB4A99A4E EQ PUSH2 0x63F JUMPI DUP1 PUSH4 0xBFBE3EF7 EQ PUSH2 0x613 JUMPI DUP1 PUSH4 0xCB4E841B EQ PUSH2 0x5EA JUMPI DUP1 PUSH4 0xD888E7DC EQ PUSH2 0x563 JUMPI DUP1 PUSH4 0xDA31F88A EQ PUSH2 0x39F JUMPI DUP1 PUSH4 0xDC9A04CF EQ PUSH2 0x353 JUMPI DUP1 PUSH4 0xDDCD6408 EQ PUSH2 0x307 JUMPI DUP1 PUSH4 0xF09610C7 EQ PUSH2 0x2AF JUMPI DUP1 PUSH4 0xF29155EF EQ PUSH2 0x286 JUMPI DUP1 PUSH4 0xFB7EF377 EQ PUSH2 0x25D JUMPI PUSH4 0xFDD719B1 EQ PUSH2 0x22C JUMPI PUSH1 0x0 DUP1 REVERT JUMPDEST CALLVALUE PUSH2 0x258 JUMPI PUSH1 0x20 CALLDATASIZE PUSH1 0x3 NOT ADD SLT PUSH2 0x258 JUMPI PUSH1 0x4 CALLDATALOAD PUSH1 0x0 MSTORE PUSH1 0xF PUSH1 0x20 MSTORE PUSH1 0x20 PUSH1 0x40 PUSH1 0x0 KECCAK256 SLOAD PUSH1 0x40 MLOAD SWAP1 DUP2 MSTORE RETURN JUMPDEST PUSH1 0x0 DUP1 REVERT JUMPDEST CALLVALUE PUSH2 0x258 JUMPI PUSH1 0x0 CALLDATASIZE PUSH1 0x3 NOT ADD SLT PUSH2 0x258 JUMPI PUSH1 0x2 SLOAD PUSH1 0x40 MLOAD PUSH1 0x1 PUSH1 0x1 PUSH1 0xA0 SHL SUB SWAP1 SWAP2 AND DUP2 MSTORE PUSH1 0x20 SWAP1 RETURN JUMPDEST CALLVALUE PUSH2 0x258 JUMPI PUSH1 0x0 CALLDATASIZE PUSH1 0x3 NOT ADD SLT PUSH2 0x258 JUMPI PUSH1 0x16 SLOAD PUSH1 0x40 MLOAD PUSH1 0x1 PUSH1 0x1 PUSH1 0xA0 SHL SUB SWAP1 SWAP2 AND DUP2 MSTORE PUSH1 0x20 SWAP1 RETURN JUMPDEST CALLVALUE PUSH2 0x258 JUMPI PUSH1 0x40 CALLDATASIZE PUSH1 0x3 NOT ADD SLT PUSH2 0x258 JUMPI PUSH2 0x2C8 PUSH2 0x337D JUMP JUMPDEST PUSH1 0x1 PUSH1 0x1 PUSH1 0xA0 SHL SUB AND PUSH1 0x0 SWAP1 DUP2 MSTORE PUSH1 0xE PUSH1 0x20 MSTORE PUSH1 0x40 SWAP1 KECCAK256 DUP1 SLOAD PUSH1 0x24 CALLDATALOAD SWAP2 SWAP1 DUP3 LT ISZERO PUSH2 0x258 JUMPI PUSH1 0x20 SWAP2 PUSH2 0x2F9 SWAP2 PUSH2 0x3414 JUMP JUMPDEST SWAP1 SLOAD PUSH1 0x40 MLOAD SWAP2 PUSH1 0x3 SHL SHR DUP2 MSTORE RETURN JUMPDEST CALLVALUE PUSH2 0x258 JUMPI PUSH1 0x20 CALLDATASIZE PUSH1 0x3 NOT ADD SLT PUSH2 0x258 JUMPI PUSH2 0x320 PUSH2 0x337D JUMP JUMPDEST PUSH1 0x3 SLOAD PUSH1 0x1 PUSH1 0x1 PUSH1 0xA0 SHL SUB SWAP2 SWAP1 PUSH2 0x33A SWAP1 DUP4 AND CALLER EQ PUSH2 0x3CAC JUMP JUMPDEST AND PUSH1 0x1 PUSH1 0x1 PUSH1 0x60 SHL SUB PUSH1 0xA0 SHL PUSH1 0x4 SLOAD AND OR PUSH1 0x4 SSTORE PUSH1 0x0 DUP1 RETURN JUMPDEST CALLVALUE PUSH2 0x258 JUMPI PUSH1 0x20 CALLDATASIZE PUSH1 0x3 NOT ADD SLT PUSH2 0x258 JUMPI PUSH2 0x36C PUSH2 0x337D JUMP JUMPDEST PUSH1 0x3 SLOAD PUSH1 0x1 PUSH1 0x1 PUSH1 0xA0 SHL SUB SWAP2 SWAP1 PUSH2 0x386 SWAP1 DUP4 AND CALLER EQ PUSH2 0x3CAC JUMP JUMPDEST AND PUSH1 0x1 PUSH1 0x1 PUSH1 0x60 SHL SUB PUSH1 0xA0 SHL PUSH1 0x16 SLOAD AND OR PUSH1 0x16 SSTORE PUSH1 0x0 DUP1 RETURN JUMPDEST CALLVALUE PUSH2 0x258 JUMPI PUSH1 0x20 CALLDATASIZE PUSH1 0x3 NOT ADD SLT PUSH2 0x258 JUMPI PUSH1 0x4 CALLDATALOAD PUSH1 0x0 MSTORE PUSH1 0x9 PUSH1 0x20 MSTORE PUSH1 0x40 PUSH1 0x0 KECCAK256 PUSH1 0x40 MLOAD DUP1 PUSH2 0x3CE DUP2 DUP5 PUSH2 0x394C JUMP JUMPDEST SUB PUSH2 0x3D9 SWAP1 DUP3 PUSH2 0x34B5 JUMP JUMPDEST PUSH1 0x40 MLOAD SWAP2 DUP3 PUSH2 0x3EB DUP2 PUSH1 0x1 DUP5 ADD PUSH2 0x394C JUMP JUMPDEST SUB PUSH2 0x3F6 SWAP1 DUP5 PUSH2 0x34B5 JUMP JUMPDEST PUSH1 0x40 MLOAD DUP1 PUSH2 0x407 DUP2 PUSH1 0x2 DUP6 ADD PUSH2 0x394C JUMP JUMPDEST SUB PUSH2 0x412 SWAP1 DUP3 PUSH2 0x34B5 JUMP JUMPDEST PUSH1 0x40 MLOAD DUP1 PUSH2 0x423 DUP2 PUSH1 0x3 DUP7 ADD PUSH2 0x394C JUMP JUMPDEST SUB PUSH2 0x42E SWAP1 DUP3 PUSH2 0x34B5 JUMP JUMPDEST PUSH1 0x40 MLOAD DUP1 PUSH2 0x43F DUP2 PUSH1 0x4 DUP8 ADD PUSH2 0x394C JUMP JUMPDEST SUB PUSH2 0x44A SWAP1 DUP3 PUSH2 0x34B5 JUMP JUMPDEST PUSH1 0x40 MLOAD SWAP1 DUP2 PUSH2 0x45C DUP2 PUSH1 0x5 DUP9 ADD PUSH2 0x394C JUMP JUMPDEST SUB PUSH2 0x467 SWAP1 DUP4 PUSH2 0x34B5 JUMP JUMPDEST PUSH1 0x40 MLOAD SWAP3 DUP4 PUSH2 0x479 DUP2 PUSH1 0x6 DUP10 ADD PUSH2 0x394C JUMP JUMPDEST SUB PUSH2 0x484 SWAP1 DUP6 PUSH2 0x34B5 JUMP JUMPDEST PUSH1 0x40 MLOAD SWAP5 DUP6 PUSH2 0x496 DUP2 PUSH1 0x7 DUP11 ADD PUSH2 0x394C JUMP JUMPDEST SUB PUSH2 0x4A1 SWAP1 DUP8 PUSH2 0x34B5 JUMP JUMPDEST PUSH1 0x40 MLOAD DUP1 PUSH1 0x8 DUP2 SWAP10 ADD SWAP1 PUSH2 0x4B4 SWAP2 PUSH2 0x394C JUMP JUMPDEST SUB PUSH2 0x4BF SWAP1 DUP9 PUSH2 0x34B5 JUMP JUMPDEST PUSH1 0x40 MLOAD SWAP9 DUP10 SWAP9 PUSH2 0x120 DUP1 DUP12 MSTORE DUP11 ADD PUSH2 0x4D6 SWAP2 PUSH2 0x3571 JUMP JUMPDEST DUP10 DUP2 SUB PUSH1 0x20 DUP12 ADD MSTORE PUSH2 0x4E7 SWAP2 PUSH2 0x3571 JUMP JUMPDEST DUP9 DUP2 SUB PUSH1 0x40 DUP11 ADD MSTORE PUSH2 0x4F8 SWAP2 PUSH2 0x3571 JUMP JUMPDEST DUP8 DUP2 SUB PUSH1 0x60 DUP10 ADD MSTORE PUSH2 0x509 SWAP2 PUSH2 0x3571 JUMP JUMPDEST DUP7 DUP2 SUB PUSH1 0x80 DUP9 ADD MSTORE PUSH2 0x51A SWAP2 PUSH2 0x3571 JUMP JUMPDEST DUP6 DUP2 SUB PUSH1 0xA0 DUP8 ADD MSTORE PUSH2 0x52B SWAP2 PUSH2 0x3571 JUMP JUMPDEST DUP5 DUP2 SUB PUSH1 0xC0 DUP7 ADD MSTORE PUSH2 0x53C SWAP2 PUSH2 0x3571 JUMP JUMPDEST DUP4 DUP2 SUB PUSH1 0xE0 DUP6 ADD MSTORE PUSH2 0x54D SWAP2 PUSH2 0x3571 JUMP JUMPDEST DUP3 DUP2 SUB PUSH2 0x100 DUP5 ADD MSTORE PUSH2 0x55F SWAP2 PUSH2 0x3571 JUMP JUMPDEST SUB SWAP1 RETURN JUMPDEST CALLVALUE PUSH2 0x258 JUMPI PUSH1 0x40 CALLDATASIZE PUSH1 0x3 NOT ADD SLT PUSH2 0x258 JUMPI PUSH1 0x4 CALLDATALOAD PUSH1 0x1 PUSH1 0x1 PUSH1 0x40 SHL SUB DUP2 GT PUSH2 0x258 JUMPI PUSH2 0x593 SWAP1 CALLDATASIZE SWAP1 PUSH1 0x4 ADD PUSH2 0x34F1 JUMP JUMPDEST PUSH1 0x24 CALLDATALOAD SWAP1 PUSH1 0x2 DUP3 LT ISZERO PUSH2 0x258 JUMPI PUSH2 0x5D6 PUSH2 0x5C2 SWAP2 PUSH2 0x55F SWAP4 PUSH1 0x40 MLOAD SWAP4 DUP5 SWAP3 PUSH1 0x40 PUSH1 0x20 DUP6 ADD MSTORE PUSH1 0x60 DUP5 ADD SWAP1 PUSH2 0x3571 JUMP JUMPDEST SWAP1 PUSH1 0x40 DUP4 ADD MSTORE SUB PUSH1 0x1F NOT DUP2 ADD DUP4 MSTORE DUP3 PUSH2 0x34B5 JUMP JUMPDEST PUSH1 0x40 MLOAD SWAP2 DUP3 SWAP2 PUSH1 0x20 DUP4 MSTORE PUSH1 0x20 DUP4 ADD SWAP1 PUSH2 0x3571 JUMP JUMPDEST CALLVALUE PUSH2 0x258 JUMPI PUSH1 0x20 CALLDATASIZE PUSH1 0x3 NOT ADD SLT PUSH2 0x258 JUMPI PUSH1 0x4 CALLDATALOAD PUSH1 0x0 SLOAD DUP2 LT ISZERO PUSH2 0x258 JUMPI PUSH2 0x2F9 PUSH1 0x20 SWAP2 PUSH2 0x3393 JUMP JUMPDEST CALLVALUE PUSH2 0x258 JUMPI PUSH1 0x20 CALLDATASIZE PUSH1 0x3 NOT ADD SLT PUSH2 0x258 JUMPI PUSH1 0x4 CALLDATALOAD PUSH1 0x0 MSTORE PUSH1 0xC PUSH1 0x20 MSTORE PUSH1 0x20 PUSH1 0x40 PUSH1 0x0 KECCAK256 SLOAD PUSH1 0x40 MLOAD SWAP1 DUP2 MSTORE RETURN JUMPDEST CALLVALUE PUSH2 0x258 JUMPI PUSH1 0x0 CALLDATASIZE PUSH1 0x3 NOT ADD SLT PUSH2 0x258 JUMPI PUSH1 0x3 SLOAD PUSH1 0x40 MLOAD PUSH1 0x1 PUSH1 0x1 PUSH1 0xA0 SHL SUB SWAP1 SWAP2 AND DUP2 MSTORE PUSH1 0x20 SWAP1 RETURN JUMPDEST CALLVALUE PUSH2 0x258 JUMPI PUSH1 0x40 CALLDATASIZE PUSH1 0x3 NOT ADD SLT PUSH2 0x258 JUMPI PUSH1 0x4 CALLDATALOAD PUSH4 0xFFFFFFFF DUP2 AND DUP2 SUB PUSH2 0x258 JUMPI PUSH2 0x696 SWAP1 PUSH1 0x24 CALLDATALOAD SWAP1 PUSH2 0x4A4B JUMP JUMPDEST SWAP1 PUSH2 0x55F PUSH1 0x40 MLOAD SWAP3 DUP4 SWAP3 ISZERO ISZERO DUP4 MSTORE PUSH1 0x40 PUSH1 0x20 DUP5 ADD MSTORE PUSH1 0x40 DUP4 ADD SWAP1 PUSH2 0x3C57 JUMP JUMPDEST CALLVALUE PUSH2 0x258 JUMPI PUSH1 0x60 CALLDATASIZE PUSH1 0x3 NOT ADD SLT PUSH2 0x258 JUMPI PUSH1 0x40 PUSH2 0x6D0 PUSH2 0x337D JUMP JUMPDEST PUSH1 0x1 PUSH1 0x1 PUSH1 0xA0 SHL SUB AND PUSH1 0x0 DUP2 DUP2 MSTORE PUSH1 0x13 PUSH1 0x20 SWAP1 DUP2 MSTORE DUP4 DUP3 KECCAK256 PUSH1 0x24 CALLDATALOAD DUP1 DUP5 MSTORE SWAP1 DUP3 MSTORE DUP5 DUP4 KECCAK256 PUSH1 0x44 CALLDATALOAD DUP1 DUP6 MSTORE SWAP1 DUP4 MSTORE DUP6 DUP5 KECCAK256 SLOAD SWAP5 DUP5 MSTORE PUSH1 0x12 DUP4 MSTORE DUP6 DUP5 KECCAK256 SWAP2 DUP5 MSTORE SWAP1 DUP3 MSTORE DUP5 DUP4 KECCAK256 SWAP1 DUP4 MSTORE DUP2 MSTORE SWAP1 DUP4 SWAP1 KECCAK256 SLOAD DUP4 MLOAD SWAP3 DUP4 MSTORE SWAP1 DUP3 ADD MSTORE RETURN JUMPDEST CALLVALUE PUSH2 0x258 JUMPI PUSH1 0x20 CALLDATASIZE PUSH1 0x3 NOT ADD SLT PUSH2 0x258 JUMPI PUSH1 0x1 PUSH1 0x1 PUSH1 0xA0 SHL SUB PUSH2 0x74A PUSH2 0x337D JUMP JUMPDEST AND PUSH1 0x0 MSTORE PUSH1 0x8 PUSH1 0x20 MSTORE PUSH1 0x20 PUSH1 0xFF PUSH1 0x40 PUSH1 0x0 KECCAK256 SLOAD AND PUSH1 0x40 MLOAD SWAP1 ISZERO ISZERO DUP2 MSTORE RETURN JUMPDEST CALLVALUE PUSH2 0x258 JUMPI PUSH2 0x776 CALLDATASIZE PUSH2 0x3538 JUMP JUMPDEST PUSH1 0x0 DUP3 DUP2 MSTORE PUSH1 0xA PUSH1 0x20 SWAP1 DUP2 MSTORE PUSH1 0x40 DUP1 DUP4 KECCAK256 PUSH1 0x1 ADD SLOAD PUSH1 0x1 PUSH1 0x1 PUSH1 0xA0 SHL SUB SWAP1 DUP2 AND DUP1 DUP6 MSTORE PUSH1 0x13 DUP5 MSTORE DUP3 DUP6 KECCAK256 DUP8 DUP7 MSTORE DUP5 MSTORE DUP3 DUP6 KECCAK256 DUP7 DUP7 MSTORE DUP5 MSTORE DUP3 DUP6 KECCAK256 SLOAD PUSH1 0x4 DUP1 SLOAD PUSH1 0x2 SLOAD SWAP6 MLOAD PUSH4 0x23B872DD PUSH1 0xE0 SHL DUP2 MSTORE CALLER SWAP3 DUP2 ADD SWAP3 SWAP1 SWAP3 MSTORE SWAP5 DUP5 AND PUSH1 0x24 DUP3 ADD MSTORE PUSH1 0x44 DUP2 ADD DUP3 SWAP1 MSTORE SWAP5 SWAP8 SWAP1 SWAP7 SWAP6 SWAP1 SWAP5 SWAP2 SWAP4 SWAP2 SWAP3 DUP9 SWAP3 DUP5 SWAP3 PUSH1 0x64 SWAP3 DUP5 SWAP3 AND GAS CALL DUP1 ISZERO PUSH2 0x963 JUMPI PUSH2 0x936 JUMPI JUMPDEST POP DUP1 PUSH1 0x0 MSTORE PUSH1 0x14 DUP6 MSTORE PUSH1 0x40 PUSH1 0x0 KECCAK256 DUP3 PUSH1 0x0 MSTORE DUP6 MSTORE PUSH1 0x40 PUSH1 0x0 KECCAK256 DUP4 PUSH1 0x0 MSTORE DUP6 MSTORE PUSH1 0xFF PUSH1 0x2 PUSH1 0x40 PUSH1 0x0 KECCAK256 ADD SLOAD AND DUP2 PUSH1 0x0 MSTORE PUSH1 0x12 DUP7 MSTORE PUSH1 0x40 PUSH1 0x0 KECCAK256 DUP4 PUSH1 0x0 MSTORE DUP7 MSTORE PUSH1 0x40 PUSH1 0x0 KECCAK256 DUP5 PUSH1 0x0 MSTORE DUP7 MSTORE PUSH2 0x85E PUSH1 0x40 PUSH1 0x0 KECCAK256 SLOAD PUSH2 0x858 DUP4 PUSH2 0x46EA JUMP JUMPDEST SWAP1 PUSH2 0x612F JUMP JUMPDEST DUP3 PUSH1 0x0 MSTORE PUSH1 0x12 DUP8 MSTORE PUSH1 0x40 PUSH1 0x0 KECCAK256 DUP5 PUSH1 0x0 MSTORE DUP8 MSTORE PUSH1 0x40 PUSH1 0x0 KECCAK256 DUP6 PUSH1 0x0 MSTORE DUP8 MSTORE PUSH1 0x40 PUSH1 0x0 KECCAK256 SSTORE DUP2 PUSH1 0x0 MSTORE PUSH1 0x12 DUP7 MSTORE PUSH1 0x40 PUSH1 0x0 KECCAK256 DUP4 PUSH1 0x0 MSTORE DUP7 MSTORE PUSH1 0x40 PUSH1 0x0 KECCAK256 DUP5 PUSH1 0x0 MSTORE DUP7 MSTORE PUSH1 0x40 PUSH1 0x0 KECCAK256 SLOAD SWAP5 PUSH1 0x4 DUP3 LT ISZERO PUSH2 0x920 JUMPI PUSH1 0x40 DUP1 MLOAD PUSH1 0x1 PUSH1 0x1 PUSH1 0xA0 SHL SUB SWAP5 SWAP1 SWAP5 AND DUP5 MSTORE PUSH1 0x20 DUP5 ADD SWAP5 SWAP1 SWAP5 MSTORE SWAP3 DUP3 ADD SWAP4 SWAP1 SWAP4 MSTORE TIMESTAMP PUSH1 0x60 DUP3 ADD MSTORE PUSH1 0x80 DUP2 ADD SWAP4 SWAP1 SWAP4 MSTORE PUSH1 0xA0 DUP4 ADD MSTORE PUSH1 0xC0 DUP3 ADD MSTORE PUSH1 0x0 PUSH1 0xE0 DUP3 ADD MSTORE PUSH32 0x7A349466F0B119934B2376706BF145E6FABE7EB4B8C4CBA23BB8F5DC9CB74B75 SWAP1 PUSH2 0x100 SWAP1 LOG1 PUSH1 0x40 MLOAD PUSH1 0x1 DUP2 MSTORE RETURN JUMPDEST PUSH4 0x4E487B71 PUSH1 0xE0 SHL PUSH1 0x0 MSTORE PUSH1 0x21 PUSH1 0x4 MSTORE PUSH1 0x24 PUSH1 0x0 REVERT JUMPDEST PUSH2 0x955 SWAP1 DUP7 RETURNDATASIZE DUP9 GT PUSH2 0x95C JUMPI JUMPDEST PUSH2 0x94D DUP2 DUP4 PUSH2 0x34B5 JUMP JUMPDEST DUP2 ADD SWAP1 PUSH2 0x43AB JUMP JUMPDEST POP DUP6 PUSH2 0x7FD JUMP JUMPDEST POP RETURNDATASIZE PUSH2 0x943 JUMP JUMPDEST PUSH1 0x40 MLOAD RETURNDATASIZE PUSH1 0x0 DUP3 RETURNDATACOPY RETURNDATASIZE SWAP1 REVERT JUMPDEST CALLVALUE PUSH2 0x258 JUMPI PUSH1 0x60 CALLDATASIZE PUSH1 0x3 NOT ADD SLT PUSH2 0x258 JUMPI PUSH1 0x4 CALLDATALOAD PUSH1 0x1 PUSH1 0x1 PUSH1 0x40 SHL SUB DUP2 GT PUSH2 0x258 JUMPI PUSH2 0x99F SWAP1 CALLDATASIZE SWAP1 PUSH1 0x4 ADD PUSH2 0x34F1 JUMP JUMPDEST PUSH1 0x16 SLOAD PUSH1 0x1 PUSH1 0x1 PUSH1 0xA0 SHL SUB AND CALLER SUB PUSH2 0x9CE JUMPI PUSH2 0x9C4 PUSH1 0x20 SWAP2 PUSH1 0x44 CALLDATALOAD SWAP1 PUSH1 0x24 CALLDATALOAD SWAP1 PUSH2 0x4E59 JUMP JUMPDEST PUSH1 0x40 MLOAD SWAP1 ISZERO ISZERO DUP2 MSTORE RETURN JUMPDEST PUSH1 0x40 MLOAD PUSH3 0x461BCD PUSH1 0xE5 SHL DUP2 MSTORE PUSH1 0x20 PUSH1 0x4 DUP3 ADD MSTORE PUSH1 0x37 PUSH1 0x24 DUP3 ADD MSTORE PUSH32 0x7B2266726F6D223A2022466943616D2E736F6C222C2022636F6465223A20332C PUSH1 0x44 DUP3 ADD MSTORE PUSH32 0x20226D657373616765223A20224F6E6C7920504F53227D000000000000000000 PUSH1 0x64 DUP3 ADD MSTORE PUSH1 0x84 SWAP1 REVERT JUMPDEST CALLVALUE PUSH2 0x258 JUMPI PUSH1 0x20 CALLDATASIZE PUSH1 0x3 NOT ADD SLT PUSH2 0x258 JUMPI PUSH2 0xA52 PUSH2 0x337D JUMP JUMPDEST PUSH1 0x3 SLOAD PUSH1 0x1 PUSH1 0x1 PUSH1 0xA0 SHL SUB SWAP2 SWAP1 PUSH2 0xA6C SWAP1 DUP4 AND CALLER EQ PUSH2 0x3CAC JUMP JUMPDEST AND PUSH1 0x1 PUSH1 0x1 PUSH1 0x60 SHL SUB PUSH1 0xA0 SHL PUSH1 0x2 SLOAD AND OR PUSH1 0x2 SSTORE PUSH1 0x0 DUP1 RETURN JUMPDEST CALLVALUE PUSH2 0x258 JUMPI PUSH1 0x20 CALLDATASIZE PUSH1 0x3 NOT ADD SLT PUSH2 0x258 JUMPI PUSH1 0x4 CALLDATALOAD PUSH1 0x15 SLOAD DUP2 LT ISZERO PUSH2 0x258 JUMPI PUSH1 0x20 SWAP1 PUSH1 0x15 PUSH1 0x0 MSTORE PUSH32 0x55F448FDEA98C4D29EB340757EF0A66CD03DBB9538908A6A81D96026B71EC475 ADD SLOAD PUSH1 0x40 MLOAD SWAP1 DUP2 MSTORE RETURN JUMPDEST CALLVALUE PUSH2 0x258 JUMPI PUSH1 0x20 CALLDATASIZE PUSH1 0x3 NOT ADD SLT PUSH2 0x258 JUMPI PUSH1 0x4 CALLDATALOAD PUSH1 0x5 SLOAD DUP2 LT ISZERO PUSH2 0x258 JUMPI PUSH1 0x5 PUSH1 0x0 MSTORE PUSH32 0x36B6384B5ECA791C62761152D0C79BB0604C104A5FB6F4EB0703F3154BB3DB0 ADD SLOAD PUSH1 0x40 MLOAD PUSH1 0x1 PUSH1 0x1 PUSH1 0xA0 SHL SUB SWAP1 SWAP2 AND DUP2 MSTORE PUSH1 0x20 SWAP1 RETURN JUMPDEST CALLVALUE PUSH2 0x258 JUMPI PUSH1 0x20 CALLDATASIZE PUSH1 0x3 NOT ADD SLT PUSH2 0x258 JUMPI PUSH2 0xB4A PUSH2 0x337D JUMP JUMPDEST CALLER PUSH1 0x0 MSTORE PUSH1 0x8 PUSH1 0x20 MSTORE PUSH2 0xB69 PUSH1 0x1 PUSH1 0xFF PUSH1 0x40 PUSH1 0x0 KECCAK256 SLOAD AND ISZERO ISZERO EQ PUSH2 0x3D93 JUMP JUMPDEST PUSH1 0x1 PUSH1 0x1 PUSH1 0xA0 SHL SUB DUP2 AND PUSH1 0x0 SWAP1 DUP2 MSTORE PUSH1 0xE PUSH1 0x20 MSTORE PUSH1 0x40 SWAP1 KECCAK256 SLOAD PUSH2 0xB8B SWAP1 PUSH2 0x49FB JUMP JUMPDEST SWAP1 PUSH1 0x0 JUMPDEST PUSH1 0x1 PUSH1 0x1 PUSH1 0xA0 SHL SUB DUP3 AND PUSH1 0x0 SWAP1 DUP2 MSTORE PUSH1 0xE PUSH1 0x20 MSTORE PUSH1 0x40 SWAP1 KECCAK256 DUP1 SLOAD DUP3 LT ISZERO PUSH2 0xCFB JUMPI DUP2 PUSH2 0xBBA SWAP2 PUSH2 0x3414 JUMP JUMPDEST SWAP1 SLOAD SWAP1 PUSH1 0x3 SHL SHR PUSH1 0x0 MSTORE PUSH1 0xA PUSH1 0x20 MSTORE PUSH1 0x40 PUSH1 0x0 KECCAK256 PUSH1 0x40 MLOAD SWAP1 PUSH2 0xBDB DUP3 PUSH2 0x3463 JUMP JUMPDEST DUP1 SLOAD DUP3 MSTORE PUSH1 0x1 DUP2 ADD SLOAD PUSH1 0x1 PUSH1 0x1 PUSH1 0xA0 SHL SUB AND PUSH1 0x20 DUP4 ADD MSTORE PUSH1 0x2 DUP2 ADD SLOAD PUSH2 0xC00 DUP2 PUSH2 0x36FB JUMP JUMPDEST SWAP1 PUSH2 0xC0E PUSH1 0x40 MLOAD SWAP3 DUP4 PUSH2 0x34B5 JUMP JUMPDEST DUP1 DUP3 MSTORE PUSH1 0x20 DUP3 ADD SWAP1 PUSH1 0x2 DUP5 ADD PUSH1 0x0 MSTORE PUSH1 0x20 PUSH1 0x0 KECCAK256 PUSH1 0x0 SWAP3 JUMPDEST DUP3 DUP5 LT PUSH2 0xC81 JUMPI POP POP POP POP DUP3 SWAP2 PUSH1 0xD SWAP2 PUSH1 0x40 PUSH2 0xC7C SWAP7 SWAP6 ADD MSTORE PUSH1 0x3 DUP2 ADD SLOAD PUSH1 0x60 DUP5 ADD MSTORE PUSH2 0xC55 PUSH1 0x4 DUP3 ADD PUSH2 0x476B JUMP JUMPDEST PUSH1 0x80 DUP5 ADD MSTORE ADD SLOAD PUSH1 0xA0 DUP3 ADD MSTORE PUSH2 0xC6B DUP3 DUP7 PUSH2 0x4149 JUMP JUMPDEST MSTORE PUSH2 0xC76 DUP2 DUP6 PUSH2 0x4149 JUMP JUMPDEST POP PUSH2 0x3F04 JUMP JUMPDEST PUSH2 0xB8F JUMP JUMPDEST PUSH1 0x5 PUSH1 0x20 PUSH1 0x1 SWAP3 PUSH1 0x40 MLOAD PUSH2 0xC94 DUP2 PUSH2 0x3448 JUMP JUMPDEST DUP6 SLOAD DUP2 MSTORE DUP5 DUP7 ADD SLOAD DUP4 DUP3 ADD MSTORE PUSH2 0xCB4 PUSH1 0xFF PUSH1 0x2 DUP9 ADD SLOAD AND PUSH1 0x40 DUP4 ADD PUSH2 0x432C JUMP JUMPDEST PUSH1 0x40 MLOAD PUSH2 0xCCF DUP2 PUSH2 0xCC8 DUP2 PUSH1 0x3 DUP12 ADD PUSH2 0x394C JUMP JUMPDEST SUB DUP3 PUSH2 0x34B5 JUMP JUMPDEST PUSH1 0x60 DUP3 ADD MSTORE PUSH1 0x40 MLOAD PUSH2 0xCE8 DUP2 PUSH2 0xCC8 DUP2 PUSH1 0x4 DUP12 ADD PUSH2 0x394C JUMP JUMPDEST PUSH1 0x80 DUP3 ADD MSTORE DUP2 MSTORE ADD SWAP3 ADD SWAP4 ADD SWAP3 SWAP1 PUSH2 0xC26 JUMP JUMPDEST PUSH1 0x40 MLOAD PUSH1 0x20 DUP1 DUP3 MSTORE DUP2 SWAP1 PUSH2 0x55F SWAP1 DUP3 ADD DUP8 PUSH2 0x3C57 JUMP JUMPDEST CALLVALUE PUSH2 0x258 JUMPI PUSH1 0x60 CALLDATASIZE PUSH1 0x3 NOT ADD SLT PUSH2 0x258 JUMPI PUSH1 0x44 CALLDATALOAD PUSH1 0x1 PUSH1 0x1 PUSH1 0x40 SHL SUB DUP2 GT PUSH2 0x258 JUMPI CALLDATASIZE PUSH1 0x23 DUP3 ADD SLT ISZERO PUSH2 0x258 JUMPI DUP1 PUSH1 0x4 ADD CALLDATALOAD PUSH2 0xD4C DUP2 PUSH2 0x36FB JUMP JUMPDEST PUSH2 0xD59 PUSH1 0x40 MLOAD SWAP2 DUP3 PUSH2 0x34B5 JUMP JUMPDEST DUP2 DUP2 MSTORE PUSH1 0x20 SWAP3 PUSH1 0x24 DUP5 DUP4 ADD SWAP4 PUSH1 0x5 SHL DUP3 ADD ADD SWAP3 CALLDATASIZE DUP5 GT PUSH2 0x258 JUMPI PUSH1 0x24 DUP6 SWAP3 ADD SWAP1 JUMPDEST DUP5 DUP3 LT PUSH2 0xD99 JUMPI DUP3 PUSH2 0xD91 DUP6 PUSH1 0x24 CALLDATALOAD PUSH1 0x4 CALLDATALOAD PUSH2 0x4890 JUMP JUMPDEST PUSH1 0x40 MLOAD SWAP1 DUP2 MSTORE RETURN JUMPDEST DUP2 CALLDATALOAD DUP2 MSTORE SWAP1 DUP3 ADD SWAP1 DUP3 ADD PUSH2 0xD7A JUMP JUMPDEST CALLVALUE PUSH2 0x258 JUMPI PUSH1 0x0 CALLDATASIZE PUSH1 0x3 NOT ADD SLT PUSH2 0x258 JUMPI PUSH1 0x4 SLOAD PUSH1 0x40 MLOAD PUSH1 0x1 PUSH1 0x1 PUSH1 0xA0 SHL SUB SWAP1 SWAP2 AND DUP2 MSTORE PUSH1 0x20 SWAP1 RETURN JUMPDEST CALLVALUE PUSH2 0x258 JUMPI PUSH2 0xDDF CALLDATASIZE PUSH2 0x3538 JUMP JUMPDEST SWAP1 CALLER PUSH1 0x0 MSTORE PUSH1 0x8 PUSH1 0x20 MSTORE PUSH2 0xDFF PUSH1 0x1 PUSH1 0xFF PUSH1 0x40 PUSH1 0x0 KECCAK256 SLOAD AND ISZERO ISZERO EQ PUSH2 0x3D93 JUMP JUMPDEST PUSH1 0x0 MSTORE PUSH1 0xB PUSH1 0x20 MSTORE PUSH1 0x10 PUSH1 0x40 PUSH1 0x0 KECCAK256 ADD SSTORE PUSH1 0x20 PUSH1 0x40 MLOAD PUSH1 0x1 DUP2 MSTORE RETURN JUMPDEST CALLVALUE PUSH2 0x258 JUMPI PUSH1 0x20 CALLDATASIZE PUSH1 0x3 NOT ADD SLT PUSH2 0x258 JUMPI PUSH2 0xE34 PUSH2 0x4727 JUMP JUMPDEST POP PUSH1 0x4 CALLDATALOAD PUSH1 0x0 MSTORE PUSH1 0xA PUSH1 0x20 MSTORE PUSH2 0x55F PUSH2 0xE53 PUSH1 0x4 PUSH1 0x40 PUSH1 0x0 KECCAK256 ADD PUSH2 0x476B JUMP JUMPDEST PUSH1 0x40 MLOAD SWAP2 DUP3 SWAP2 PUSH1 0x20 DUP4 MSTORE PUSH1 0x20 DUP4 ADD SWAP1 PUSH2 0x3AA6 JUMP JUMPDEST CALLVALUE PUSH2 0x258 JUMPI PUSH1 0x20 DUP1 PUSH1 0x3 NOT CALLDATASIZE ADD SLT PUSH2 0x258 JUMPI PUSH2 0xE81 PUSH2 0x4857 JUMP JUMPDEST POP PUSH1 0x4 CALLDATALOAD PUSH1 0x0 MSTORE PUSH1 0xA DUP2 MSTORE PUSH1 0x40 PUSH1 0x0 KECCAK256 SWAP1 PUSH1 0x40 MLOAD SWAP2 PUSH2 0xE9F DUP4 PUSH2 0x3463 JUMP JUMPDEST DUP1 SLOAD DUP4 MSTORE PUSH1 0x1 DUP1 DUP3 ADD SLOAD PUSH1 0x1 PUSH1 0x1 PUSH1 0xA0 SHL SUB AND DUP4 DUP6 ADD MSTORE PUSH1 0x2 DUP1 DUP4 ADD DUP1 SLOAD SWAP2 SWAP3 SWAP2 SWAP1 PUSH2 0xECA DUP3 PUSH2 0x36FB JUMP JUMPDEST SWAP4 PUSH2 0xED8 PUSH1 0x40 MLOAD SWAP6 DUP7 PUSH2 0x34B5 JUMP JUMPDEST DUP3 DUP6 MSTORE PUSH1 0x0 SWAP2 DUP3 MSTORE DUP7 DUP3 KECCAK256 SWAP1 DUP8 DUP1 DUP8 ADD JUMPDEST DUP6 DUP6 LT PUSH2 0xF31 JUMPI DUP11 DUP3 PUSH1 0xD DUP12 DUP12 PUSH1 0x40 DUP6 ADD MSTORE PUSH1 0x3 DUP2 ADD SLOAD PUSH1 0x60 DUP6 ADD MSTORE PUSH2 0xF11 PUSH1 0x4 DUP3 ADD PUSH2 0x476B JUMP JUMPDEST PUSH1 0x80 DUP6 ADD MSTORE ADD SLOAD PUSH1 0xA0 DUP4 ADD MSTORE PUSH2 0x55F PUSH1 0x40 MLOAD SWAP3 DUP3 DUP5 SWAP4 DUP5 MSTORE DUP4 ADD SWAP1 PUSH2 0x3B68 JUMP JUMPDEST DUP7 SWAP2 PUSH1 0x5 SWAP2 PUSH1 0x40 MLOAD PUSH2 0xF42 DUP2 PUSH2 0x3448 JUMP JUMPDEST DUP7 SLOAD DUP2 MSTORE DUP5 DUP8 ADD SLOAD DUP4 DUP3 ADD MSTORE PUSH2 0xF61 PUSH1 0xFF DUP8 DUP10 ADD SLOAD AND PUSH1 0x40 DUP4 ADD PUSH2 0x432C JUMP JUMPDEST PUSH1 0x40 MLOAD PUSH2 0xF75 DUP2 PUSH2 0xCC8 DUP2 PUSH1 0x3 DUP13 ADD PUSH2 0x394C JUMP JUMPDEST PUSH1 0x60 DUP3 ADD MSTORE PUSH1 0x40 MLOAD PUSH2 0xF8E DUP2 PUSH2 0xCC8 DUP2 PUSH1 0x4 DUP13 ADD PUSH2 0x394C JUMP JUMPDEST PUSH1 0x80 DUP3 ADD MSTORE DUP2 MSTORE ADD SWAP4 ADD SWAP4 ADD SWAP3 SWAP2 DUP9 SWAP1 PUSH2 0xEE9 JUMP JUMPDEST CALLVALUE PUSH2 0x258 JUMPI PUSH2 0xFB1 CALLDATASIZE PUSH2 0x3712 JUMP JUMPDEST SWAP1 SWAP2 PUSH1 0x40 MLOAD SWAP3 DUP4 PUSH1 0x80 DUP2 ADD SWAP4 PUSH1 0x60 SWAP4 PUSH1 0x20 SWAP6 DUP6 DUP8 DUP6 ADD MSTORE DUP2 MLOAD DUP1 SWAP2 MSTORE DUP7 PUSH1 0xA0 DUP6 ADD SWAP3 ADD SWAP1 PUSH1 0x0 JUMPDEST DUP9 DUP3 DUP3 LT PUSH2 0x102E JUMPI POP POP POP POP SWAP4 PUSH2 0xFFF PUSH2 0x101A SWAP6 PUSH1 0x1F NOT SWAP6 DUP7 DUP7 DUP4 SUB ADD PUSH1 0x40 DUP8 ADD MSTORE PUSH2 0x3AA6 JUMP JUMPDEST PUSH1 0x1 PUSH1 0x1 PUSH1 0xA0 SHL SUB SWAP1 SWAP3 AND SWAP1 DUP4 ADD MSTORE SUB SWAP1 DUP2 ADD DUP5 MSTORE DUP4 PUSH2 0x34B5 JUMP JUMPDEST PUSH2 0x55F PUSH1 0x40 MLOAD SWAP3 DUP3 DUP5 SWAP4 DUP5 MSTORE DUP4 ADD SWAP1 PUSH2 0x3571 JUMP JUMPDEST SWAP1 SWAP3 SWAP5 SWAP7 SWAP8 DUP1 SWAP7 POP PUSH1 0x1 SWAP3 SWAP5 PUSH2 0x1059 PUSH1 0x40 DUP9 MLOAD DUP1 MLOAD DUP5 MSTORE DUP6 DUP2 ADD MLOAD DUP7 DUP6 ADD MSTORE ADD MLOAD PUSH1 0x40 DUP4 ADD SWAP1 PUSH2 0x3A99 JUMP JUMPDEST ADD SWAP5 ADD SWAP2 ADD SWAP2 DUP9 SWAP5 SWAP7 SWAP6 SWAP4 SWAP3 PUSH2 0xFD8 JUMP JUMPDEST CALLVALUE PUSH2 0x258 JUMPI PUSH1 0x20 CALLDATASIZE PUSH1 0x3 NOT ADD SLT PUSH2 0x258 JUMPI PUSH1 0x4 CALLDATALOAD PUSH1 0x1 SLOAD DUP2 LT ISZERO PUSH2 0x258 JUMPI PUSH2 0x2F9 PUSH1 0x20 SWAP2 PUSH2 0x33DD JUMP JUMPDEST CALLVALUE PUSH2 0x258 JUMPI PUSH1 0x20 DUP1 PUSH1 0x3 NOT CALLDATASIZE ADD SLT PUSH2 0x258 JUMPI PUSH1 0x4 CALLDATALOAD PUSH1 0x0 MSTORE PUSH1 0x10 DUP2 MSTORE PUSH1 0x40 PUSH1 0x0 KECCAK256 PUSH1 0x40 MLOAD SWAP1 DUP2 DUP4 DUP3 SLOAD SWAP2 DUP3 DUP2 MSTORE ADD SWAP1 DUP2 SWAP3 PUSH1 0x0 MSTORE DUP5 PUSH1 0x0 KECCAK256 SWAP1 PUSH1 0x0 JUMPDEST DUP7 DUP3 DUP3 LT PUSH2 0x1125 JUMPI DUP7 DUP7 PUSH2 0x10E5 DUP3 DUP9 SUB DUP4 PUSH2 0x34B5 JUMP JUMPDEST PUSH1 0x40 MLOAD SWAP3 DUP4 SWAP3 DUP2 DUP5 ADD SWAP1 DUP3 DUP6 MSTORE MLOAD DUP1 SWAP2 MSTORE PUSH1 0x40 DUP5 ADD SWAP3 SWAP2 PUSH1 0x0 JUMPDEST DUP3 DUP2 LT PUSH2 0x110E JUMPI POP POP POP POP SUB SWAP1 RETURN JUMPDEST DUP4 MLOAD DUP6 MSTORE DUP7 SWAP6 POP SWAP4 DUP2 ADD SWAP4 SWAP3 DUP2 ADD SWAP3 PUSH1 0x1 ADD PUSH2 0x10FF JUMP JUMPDEST DUP4 SLOAD DUP6 MSTORE SWAP1 SWAP4 ADD SWAP3 PUSH1 0x1 SWAP3 DUP4 ADD SWAP3 ADD PUSH2 0x10CF JUMP JUMPDEST CALLVALUE PUSH2 0x258 JUMPI PUSH1 0x20 CALLDATASIZE PUSH1 0x3 NOT ADD SLT PUSH2 0x258 JUMPI PUSH2 0x1152 PUSH2 0x4071 JUMP JUMPDEST POP PUSH1 0x4 CALLDATALOAD PUSH1 0x0 MSTORE PUSH1 0xB PUSH1 0x20 MSTORE PUSH2 0x55F PUSH1 0x40 PUSH1 0x0 KECCAK256 PUSH1 0xFF PUSH1 0x11 PUSH1 0x40 MLOAD SWAP3 PUSH2 0x1177 DUP5 PUSH2 0x342C JUMP JUMPDEST DUP1 SLOAD DUP5 MSTORE PUSH2 0x1187 PUSH1 0x1 DUP3 ADD PUSH2 0x39E2 JUMP JUMPDEST PUSH1 0x20 DUP6 ADD MSTORE PUSH1 0xB DUP2 ADD SLOAD PUSH1 0x40 DUP6 ADD MSTORE PUSH1 0xC DUP2 ADD SLOAD PUSH1 0x60 DUP6 ADD MSTORE PUSH1 0xD DUP2 ADD SLOAD PUSH1 0x80 DUP6 ADD MSTORE PUSH1 0xE DUP2 ADD SLOAD PUSH1 0xA0 DUP6 ADD MSTORE PUSH1 0xF DUP2 ADD SLOAD PUSH1 0xC0 DUP6 ADD MSTORE PUSH1 0x10 DUP2 ADD SLOAD PUSH1 0xE0 DUP6 ADD MSTORE ADD SLOAD AND ISZERO ISZERO PUSH2 0x100 DUP3 ADD MSTORE PUSH1 0x40 MLOAD SWAP2 DUP3 SWAP2 PUSH1 0x20 DUP4 MSTORE PUSH1 0x20 DUP4 ADD SWAP1 PUSH2 0x3635 JUMP JUMPDEST CALLVALUE PUSH2 0x258 JUMPI PUSH1 0x20 CALLDATASIZE PUSH1 0x3 NOT ADD SLT PUSH2 0x258 JUMPI PUSH1 0x4 CALLDATALOAD PUSH1 0x0 MSTORE PUSH1 0xB PUSH1 0x20 MSTORE PUSH1 0x40 PUSH1 0x0 KECCAK256 DUP1 SLOAD PUSH2 0x1216 PUSH1 0x1 DUP4 ADD PUSH2 0x39E2 JUMP JUMPDEST SWAP2 PUSH1 0xB DUP2 ADD SLOAD SWAP1 PUSH1 0xC DUP2 ADD SLOAD SWAP1 PUSH1 0xD DUP2 ADD SLOAD PUSH1 0xE DUP3 ADD SLOAD PUSH1 0xF DUP4 ADD SLOAD SWAP2 PUSH1 0xFF PUSH1 0x11 PUSH1 0x10 DUP7 ADD SLOAD SWAP6 ADD SLOAD AND SWAP5 PUSH2 0x125D PUSH1 0x40 MLOAD SWAP10 DUP11 SWAP10 DUP11 MSTORE PUSH2 0x120 DUP1 PUSH1 0x20 DUP13 ADD MSTORE DUP11 ADD SWAP1 PUSH2 0x3596 JUMP JUMPDEST SWAP7 PUSH1 0x40 DUP10 ADD MSTORE PUSH1 0x60 DUP9 ADD MSTORE PUSH1 0x80 DUP8 ADD MSTORE PUSH1 0xA0 DUP7 ADD MSTORE PUSH1 0xC0 DUP6 ADD MSTORE PUSH1 0xE0 DUP5 ADD MSTORE ISZERO ISZERO PUSH2 0x100 DUP4 ADD MSTORE SUB SWAP1 RETURN JUMPDEST CALLVALUE PUSH2 0x258 JUMPI PUSH1 0x20 CALLDATASIZE PUSH1 0x3 NOT ADD SLT PUSH2 0x258 JUMPI PUSH2 0x12A1 PUSH2 0x337D JUMP JUMPDEST PUSH1 0x3 SLOAD PUSH1 0x1 PUSH1 0x1 PUSH1 0xA0 SHL SUB SWAP2 SWAP1 PUSH2 0x12BB SWAP1 DUP4 AND CALLER EQ PUSH2 0x3CAC JUMP JUMPDEST AND DUP1 PUSH1 0x0 MSTORE PUSH1 0x8 PUSH1 0x20 MSTORE PUSH1 0x40 PUSH1 0x0 KECCAK256 PUSH1 0x1 PUSH1 0xFF NOT DUP3 SLOAD AND OR SWAP1 SSTORE PUSH1 0x5 SLOAD PUSH1 0x1 PUSH1 0x40 SHL DUP2 LT ISZERO PUSH2 0x133E JUMPI PUSH1 0x1 DUP2 ADD DUP1 PUSH1 0x5 SSTORE DUP2 LT ISZERO PUSH2 0x1328 JUMPI PUSH32 0x36B6384B5ECA791C62761152D0C79BB0604C104A5FB6F4EB0703F3154BB3DB0 ADD DUP1 SLOAD PUSH1 0x1 PUSH1 0x1 PUSH1 0xA0 SHL SUB NOT AND SWAP1 SWAP2 OR SWAP1 SSTORE STOP JUMPDEST PUSH4 0x4E487B71 PUSH1 0xE0 SHL PUSH1 0x0 MSTORE PUSH1 0x32 PUSH1 0x4 MSTORE PUSH1 0x24 PUSH1 0x0 REVERT JUMPDEST PUSH4 0x4E487B71 PUSH1 0xE0 SHL PUSH1 0x0 MSTORE PUSH1 0x41 PUSH1 0x4 MSTORE PUSH1 0x24 PUSH1 0x0 REVERT JUMPDEST CALLVALUE PUSH2 0x258 JUMPI PUSH2 0x1A0 CALLDATASIZE PUSH1 0x3 NOT ADD SLT PUSH2 0x258 JUMPI PUSH1 0x4 CALLDATALOAD PUSH1 0x1 PUSH1 0x1 PUSH1 0x40 SHL SUB DUP2 GT PUSH2 0x258 JUMPI PUSH2 0x1385 SWAP1 CALLDATASIZE SWAP1 PUSH1 0x4 ADD PUSH2 0x34F1 JUMP JUMPDEST PUSH1 0x24 CALLDATALOAD PUSH1 0x1 PUSH1 0x1 PUSH1 0x40 SHL SUB DUP2 GT PUSH2 0x258 JUMPI PUSH2 0x13A4 SWAP1 CALLDATASIZE SWAP1 PUSH1 0x4 ADD PUSH2 0x34F1 JUMP JUMPDEST PUSH1 0x44 CALLDATALOAD PUSH1 0x1 PUSH1 0x1 PUSH1 0x40 SHL SUB DUP2 GT PUSH2 0x258 JUMPI PUSH2 0x13C3 SWAP1 CALLDATASIZE SWAP1 PUSH1 0x4 ADD PUSH2 0x34F1 JUMP JUMPDEST PUSH1 0x64 CALLDATALOAD PUSH1 0x1 PUSH1 0x1 PUSH1 0x40 SHL SUB DUP2 GT PUSH2 0x258 JUMPI PUSH2 0x13E2 SWAP1 CALLDATASIZE SWAP1 PUSH1 0x4 ADD PUSH2 0x34F1 JUMP JUMPDEST PUSH1 0x84 CALLDATALOAD PUSH1 0x1 PUSH1 0x1 PUSH1 0x40 SHL SUB DUP2 GT PUSH2 0x258 JUMPI PUSH2 0x1401 SWAP1 CALLDATASIZE SWAP1 PUSH1 0x4 ADD PUSH2 0x34F1 JUMP JUMPDEST SWAP1 PUSH2 0x184 CALLDATALOAD SWAP3 DUP4 ISZERO ISZERO DUP5 SUB PUSH2 0x258 JUMPI CALLER PUSH1 0x0 MSTORE PUSH1 0x8 PUSH1 0x20 MSTORE PUSH2 0x142F PUSH1 0x1 PUSH1 0xFF PUSH1 0x40 PUSH1 0x0 KECCAK256 SLOAD AND ISZERO ISZERO EQ PUSH2 0x3D93 JUMP JUMPDEST PUSH1 0x40 MLOAD PUSH1 0x20 DUP2 ADD SWAP1 PUSH2 0x1481 PUSH1 0x20 DUP3 DUP2 PUSH2 0x144E DUP13 DUP8 DUP2 MLOAD SWAP4 DUP5 SWAP3 ADD PUSH2 0x354E JUMP JUMPDEST DUP11 MLOAD SWAP1 DUP3 ADD PUSH2 0x1462 DUP3 DUP6 DUP4 ADD DUP7 DUP16 ADD PUSH2 0x354E JUMP JUMPDEST ADD DUP7 MLOAD SWAP1 PUSH2 0x1475 DUP3 DUP6 DUP4 ADD DUP7 DUP12 ADD PUSH2 0x354E JUMP JUMPDEST ADD SUB DUP1 DUP5 MSTORE ADD DUP3 PUSH2 0x34B5 JUMP JUMPDEST MLOAD SWAP1 KECCAK256 SWAP5 PUSH1 0x40 MLOAD SWAP7 PUSH2 0x1492 DUP9 PUSH2 0x347E JUMP JUMPDEST DUP8 MSTORE PUSH1 0x20 DUP8 ADD MSTORE PUSH1 0x40 DUP7 ADD MSTORE PUSH1 0x60 DUP6 ADD MSTORE PUSH1 0x80 DUP5 ADD MSTORE PUSH1 0xA4 CALLDATALOAD PUSH1 0xA0 DUP5 ADD MSTORE PUSH1 0xC4 CALLDATALOAD PUSH1 0xC0 DUP5 ADD MSTORE PUSH1 0xE4 CALLDATALOAD PUSH1 0xE0 DUP5 ADD MSTORE PUSH2 0x104 CALLDATALOAD PUSH2 0x100 DUP5 ADD MSTORE PUSH2 0x124 CALLDATALOAD PUSH2 0x120 DUP5 ADD MSTORE PUSH1 0x40 MLOAD SWAP3 PUSH2 0x14E1 DUP5 PUSH2 0x342C JUMP JUMPDEST DUP3 DUP5 MSTORE PUSH1 0x20 DUP5 ADD MSTORE PUSH2 0x144 CALLDATALOAD PUSH1 0x40 DUP5 ADD MSTORE PUSH1 0x0 PUSH1 0x60 DUP5 ADD MSTORE PUSH1 0x0 PUSH1 0x80 DUP5 ADD MSTORE PUSH1 0x0 PUSH1 0xA0 DUP5 ADD MSTORE PUSH2 0x164 CALLDATALOAD PUSH1 0xC0 DUP5 ADD MSTORE TIMESTAMP PUSH1 0xE0 DUP5 ADD MSTORE DUP1 ISZERO ISZERO PUSH2 0x100 DUP5 ADD MSTORE DUP2 PUSH1 0x0 MSTORE PUSH1 0xB PUSH1 0x20 MSTORE PUSH1 0x40 PUSH1 0x0 KECCAK256 SWAP3 DUP1 MLOAD DUP5 SSTORE PUSH1 0x20 DUP2 ADD MLOAD SWAP4 DUP5 MLOAD DUP1 MLOAD SWAP1 PUSH1 0x1 PUSH1 0x1 PUSH1 0x40 SHL SUB DUP3 GT PUSH2 0x133E JUMPI DUP2 SWAP1 PUSH2 0x1567 DUP3 PUSH2 0x155E PUSH1 0x1 DUP8 ADD SLOAD PUSH2 0x3912 JUMP JUMPDEST PUSH1 0x1 DUP8 ADD PUSH2 0x3E2D JUMP JUMPDEST PUSH1 0x20 SWAP1 PUSH1 0x1F DUP4 GT PUSH1 0x1 EQ PUSH2 0x19F9 JUMPI PUSH1 0x0 SWAP3 PUSH2 0x19EE JUMPI JUMPDEST POP POP DUP2 PUSH1 0x1 SHL SWAP2 PUSH1 0x0 NOT SWAP1 PUSH1 0x3 SHL SHR NOT AND OR PUSH1 0x1 DUP3 ADD SSTORE JUMPDEST PUSH1 0x20 DUP6 ADD MLOAD DUP1 MLOAD SWAP1 PUSH1 0x1 PUSH1 0x1 PUSH1 0x40 SHL SUB DUP3 GT PUSH2 0x133E JUMPI DUP2 SWAP1 PUSH2 0x15C7 DUP3 PUSH2 0x15BE PUSH1 0x2 DUP8 ADD SLOAD PUSH2 0x3912 JUMP JUMPDEST PUSH1 0x2 DUP8 ADD PUSH2 0x3E2D JUMP JUMPDEST PUSH1 0x20 SWAP1 PUSH1 0x1F DUP4 GT PUSH1 0x1 EQ PUSH2 0x197C JUMPI PUSH1 0x0 SWAP3 PUSH2 0x1971 JUMPI JUMPDEST POP POP DUP2 PUSH1 0x1 SHL SWAP2 PUSH1 0x0 NOT SWAP1 PUSH1 0x3 SHL SHR NOT AND OR PUSH1 0x2 DUP3 ADD SSTORE JUMPDEST PUSH1 0x40 DUP6 ADD MLOAD DUP1 MLOAD SWAP1 PUSH1 0x1 PUSH1 0x1 PUSH1 0x40 SHL SUB DUP3 GT PUSH2 0x133E JUMPI DUP2 SWAP1 PUSH2 0x1627 DUP3 PUSH2 0x161E PUSH1 0x3 DUP8 ADD SLOAD PUSH2 0x3912 JUMP JUMPDEST PUSH1 0x3 DUP8 ADD PUSH2 0x3E2D JUMP JUMPDEST PUSH1 0x20 SWAP1 PUSH1 0x1F DUP4 GT PUSH1 0x1 EQ PUSH2 0x18FF JUMPI PUSH1 0x0 SWAP3 PUSH2 0x18F4 JUMPI JUMPDEST POP POP DUP2 PUSH1 0x1 SHL SWAP2 PUSH1 0x0 NOT SWAP1 PUSH1 0x3 SHL SHR NOT AND OR PUSH1 0x3 DUP3 ADD SSTORE JUMPDEST PUSH1 0x60 DUP6 ADD MLOAD DUP1 MLOAD SWAP1 PUSH1 0x1 PUSH1 0x1 PUSH1 0x40 SHL SUB DUP3 GT PUSH2 0x133E JUMPI DUP2 SWAP1 PUSH2 0x1687 DUP3 PUSH2 0x167E PUSH1 0x4 DUP8 ADD SLOAD PUSH2 0x3912 JUMP JUMPDEST PUSH1 0x4 DUP8 ADD PUSH2 0x3E2D JUMP JUMPDEST PUSH1 0x20 SWAP1 PUSH1 0x1F DUP4 GT PUSH1 0x1 EQ PUSH2 0x1882 JUMPI PUSH1 0x0 SWAP3 PUSH2 0x1877 JUMPI JUMPDEST POP POP DUP2 PUSH1 0x1 SHL SWAP2 PUSH1 0x0 NOT SWAP1 PUSH1 0x3 SHL SHR NOT AND OR PUSH1 0x4 DUP3 ADD SSTORE JUMPDEST PUSH1 0x80 DUP6 ADD MLOAD SWAP5 DUP6 MLOAD PUSH1 0x1 PUSH1 0x1 PUSH1 0x40 SHL SUB DUP2 GT PUSH2 0x133E JUMPI PUSH2 0x16E5 DUP2 PUSH2 0x16DC PUSH1 0x5 DUP7 ADD SLOAD PUSH2 0x3912 JUMP JUMPDEST PUSH1 0x5 DUP7 ADD PUSH2 0x3E2D JUMP JUMPDEST PUSH1 0x20 PUSH1 0x1F DUP3 GT PUSH1 0x1 EQ PUSH2 0x17FC JUMPI PUSH1 0x11 SWAP3 DUP3 PUSH2 0x100 SWAP6 SWAP4 PUSH2 0x120 SWAP4 PUSH1 0x1 SWAP11 SWAP12 PUSH1 0x0 SWAP3 PUSH2 0x17F1 JUMPI JUMPDEST POP POP PUSH1 0x0 NOT PUSH1 0x3 DUP4 SWAP1 SHL SHR NOT AND SWAP1 DUP10 SHL OR PUSH1 0x5 DUP5 ADD SSTORE JUMPDEST PUSH1 0xA0 DUP2 ADD MLOAD PUSH1 0x6 DUP5 ADD SSTORE PUSH1 0xC0 DUP2 ADD MLOAD PUSH1 0x7 DUP5 ADD SSTORE PUSH1 0xE0 DUP2 ADD MLOAD PUSH1 0x8 DUP5 ADD SSTORE DUP5 DUP2 ADD MLOAD PUSH1 0x9 DUP5 ADD SSTORE ADD MLOAD PUSH1 0xA DUP3 ADD SSTORE PUSH1 0x40 DUP5 ADD MLOAD PUSH1 0xB DUP3 ADD SSTORE PUSH1 0x60 DUP5 ADD MLOAD PUSH1 0xC DUP3 ADD SSTORE PUSH1 0x80 DUP5 ADD MLOAD PUSH1 0xD DUP3 ADD SSTORE PUSH1 0xA0 DUP5 ADD MLOAD PUSH1 0xE DUP3 ADD SSTORE PUSH1 0xC0 DUP5 ADD MLOAD PUSH1 0xF DUP3 ADD SSTORE PUSH1 0xE0 DUP5 ADD MLOAD PUSH1 0x10 DUP3 ADD SSTORE ADD SWAP2 ADD MLOAD ISZERO ISZERO PUSH1 0xFF DUP1 NOT DUP4 SLOAD AND SWAP2 AND OR SWAP1 SSTORE ISZERO ISZERO EQ PUSH2 0x17E3 JUMPI JUMPDEST PUSH1 0x0 SLOAD PUSH1 0x1 PUSH1 0x40 SHL DUP2 LT ISZERO PUSH2 0x133E JUMPI PUSH2 0x17C8 DUP2 PUSH1 0x1 PUSH2 0x17DF SWAP4 ADD PUSH1 0x0 SSTORE PUSH2 0x3393 JUMP JUMPDEST DUP2 SWAP4 SWAP2 SLOAD SWAP1 PUSH1 0x3 SHL SWAP2 DUP3 SHL SWAP2 PUSH1 0x0 NOT SWAP1 SHL NOT AND OR SWAP1 JUMP JUMPDEST SWAP1 SSTORE STOP JUMPDEST PUSH2 0x17EC DUP2 PUSH2 0x3EBC JUMP JUMPDEST PUSH2 0x17A6 JUMP JUMPDEST ADD MLOAD SWAP1 POP DUP12 DUP1 PUSH2 0x170B JUMP JUMPDEST PUSH1 0x5 DUP5 ADD PUSH1 0x0 MSTORE PUSH1 0x20 PUSH1 0x0 KECCAK256 SWAP8 PUSH1 0x0 JUMPDEST PUSH1 0x1F NOT DUP5 AND DUP2 LT PUSH2 0x185F JUMPI POP SWAP3 PUSH1 0x1 DUP4 DUP2 SWAP10 SWAP11 PUSH2 0x120 SWAP5 PUSH1 0x11 SWAP8 PUSH2 0x100 SWAP10 SWAP8 PUSH1 0x1F NOT DUP2 AND LT PUSH2 0x1846 JUMPI JUMPDEST POP POP POP DUP2 SHL ADD PUSH1 0x5 DUP5 ADD SSTORE PUSH2 0x1722 JUMP JUMPDEST ADD MLOAD PUSH1 0x0 NOT PUSH1 0xF8 DUP5 PUSH1 0x3 SHL AND SHR NOT AND SWAP1 SSTORE DUP12 DUP1 DUP1 PUSH2 0x1836 JUMP JUMPDEST DUP3 DUP3 ADD MLOAD DUP11 SSTORE PUSH1 0x1 SWAP1 SWAP10 ADD SWAP9 PUSH1 0x20 SWAP3 DUP4 ADD SWAP3 ADD PUSH2 0x180C JUMP JUMPDEST ADD MLOAD SWAP1 POP DUP8 DUP1 PUSH2 0x169D JUMP JUMPDEST SWAP3 POP PUSH1 0x4 DUP5 ADD PUSH1 0x0 MSTORE PUSH1 0x20 PUSH1 0x0 KECCAK256 SWAP1 PUSH1 0x0 SWAP4 JUMPDEST PUSH1 0x1F NOT DUP5 AND DUP6 LT PUSH2 0x18D9 JUMPI PUSH1 0x1 SWAP5 POP DUP4 PUSH1 0x1F NOT DUP2 AND LT PUSH2 0x18C0 JUMPI JUMPDEST POP POP POP DUP2 SHL ADD PUSH1 0x4 DUP3 ADD SSTORE PUSH2 0x16B5 JUMP JUMPDEST ADD MLOAD PUSH1 0x0 NOT PUSH1 0xF8 DUP5 PUSH1 0x3 SHL AND SHR NOT AND SWAP1 SSTORE DUP8 DUP1 DUP1 PUSH2 0x18B0 JUMP JUMPDEST DUP2 DUP2 ADD MLOAD DUP4 SSTORE PUSH1 0x20 SWAP5 DUP6 ADD SWAP5 PUSH1 0x1 SWAP1 SWAP4 ADD SWAP3 SWAP1 SWAP2 ADD SWAP1 PUSH2 0x1895 JUMP JUMPDEST ADD MLOAD SWAP1 POP DUP8 DUP1 PUSH2 0x163D JUMP JUMPDEST SWAP3 POP PUSH1 0x3 DUP5 ADD PUSH1 0x0 MSTORE PUSH1 0x20 PUSH1 0x0 KECCAK256 SWAP1 PUSH1 0x0 SWAP4 JUMPDEST PUSH1 0x1F NOT DUP5 AND DUP6 LT PUSH2 0x1956 JUMPI PUSH1 0x1 SWAP5 POP DUP4 PUSH1 0x1F NOT DUP2 AND LT PUSH2 0x193D JUMPI JUMPDEST POP POP POP DUP2 SHL ADD PUSH1 0x3 DUP3 ADD SSTORE PUSH2 0x1655 JUMP JUMPDEST ADD MLOAD PUSH1 0x0 NOT PUSH1 0xF8 DUP5 PUSH1 0x3 SHL AND SHR NOT AND SWAP1 SSTORE DUP8 DUP1 DUP1 PUSH2 0x192D JUMP JUMPDEST DUP2 DUP2 ADD MLOAD DUP4 SSTORE PUSH1 0x20 SWAP5 DUP6 ADD SWAP5 PUSH1 0x1 SWAP1 SWAP4 ADD SWAP3 SWAP1 SWAP2 ADD SWAP1 PUSH2 0x1912 JUMP JUMPDEST ADD MLOAD SWAP1 POP DUP8 DUP1 PUSH2 0x15DD JUMP JUMPDEST SWAP3 POP PUSH1 0x2 DUP5 ADD PUSH1 0x0 MSTORE PUSH1 0x20 PUSH1 0x0 KECCAK256 SWAP1 PUSH1 0x0 SWAP4 JUMPDEST PUSH1 0x1F NOT DUP5 AND DUP6 LT PUSH2 0x19D3 JUMPI PUSH1 0x1 SWAP5 POP DUP4 PUSH1 0x1F NOT DUP2 AND LT PUSH2 0x19BA JUMPI JUMPDEST POP POP POP DUP2 SHL ADD PUSH1 0x2 DUP3 ADD SSTORE PUSH2 0x15F5 JUMP JUMPDEST ADD MLOAD PUSH1 0x0 NOT PUSH1 0xF8 DUP5 PUSH1 0x3 SHL AND SHR NOT AND SWAP1 SSTORE DUP8 DUP1 DUP1 PUSH2 0x19AA JUMP JUMPDEST DUP2 DUP2 ADD MLOAD DUP4 SSTORE PUSH1 0x20 SWAP5 DUP6 ADD SWAP5 PUSH1 0x1 SWAP1 SWAP4 ADD SWAP3 SWAP1 SWAP2 ADD SWAP1 PUSH2 0x198F JUMP JUMPDEST ADD MLOAD SWAP1 POP DUP8 DUP1 PUSH2 0x157D JUMP JUMPDEST SWAP3 POP PUSH1 0x1 DUP5 ADD PUSH1 0x0 MSTORE PUSH1 0x20 PUSH1 0x0 KECCAK256 SWAP1 PUSH1 0x0 SWAP4 JUMPDEST PUSH1 0x1F NOT DUP5 AND DUP6 LT PUSH2 0x1A50 JUMPI PUSH1 0x1 SWAP5 POP DUP4 PUSH1 0x1F NOT DUP2 AND LT PUSH2 0x1A37 JUMPI JUMPDEST POP POP POP DUP2 SHL ADD PUSH1 0x1 DUP3 ADD SSTORE PUSH2 0x1595 JUMP JUMPDEST ADD MLOAD PUSH1 0x0 NOT PUSH1 0xF8 DUP5 PUSH1 0x3 SHL AND SHR NOT AND SWAP1 SSTORE DUP8 DUP1 DUP1 PUSH2 0x1A27 JUMP JUMPDEST DUP2 DUP2 ADD MLOAD DUP4 SSTORE PUSH1 0x20 SWAP5 DUP6 ADD SWAP5 PUSH1 0x1 SWAP1 SWAP4 ADD SWAP3 SWAP1 SWAP2 ADD SWAP1 PUSH2 0x1A0C JUMP JUMPDEST CALLVALUE PUSH2 0x258 JUMPI PUSH2 0x55F PUSH2 0x1A7C CALLDATASIZE PUSH2 0x3538 JUMP JUMPDEST PUSH1 0x40 MLOAD SWAP2 PUSH1 0x20 DUP4 ADD MSTORE PUSH1 0x40 DUP3 ADD MSTORE PUSH1 0x40 DUP2 MSTORE PUSH2 0x5D6 DUP2 PUSH2 0x349A JUMP JUMPDEST CALLVALUE PUSH2 0x258 JUMPI PUSH1 0x60 DUP1 PUSH1 0x3 NOT CALLDATASIZE ADD SLT PUSH2 0x258 JUMPI PUSH1 0x24 CALLDATALOAD SWAP1 PUSH1 0x4 CALLDATALOAD PUSH1 0x0 PUSH1 0x44 CALLDATALOAD PUSH2 0x1ABE DUP2 PUSH2 0x40F9 JUMP JUMPDEST SWAP5 PUSH1 0x0 SWAP4 PUSH1 0x0 SWAP3 PUSH1 0x1 SWAP2 DUP3 SLOAD SWAP4 JUMPDEST DUP5 DUP2 LT PUSH2 0x1B3E JUMPI JUMPDEST POP POP POP POP POP PUSH2 0x1AE2 DUP2 PUSH2 0x40F9 JUMP JUMPDEST SWAP5 PUSH1 0x0 JUMPDEST DUP3 DUP2 LT PUSH2 0x1B15 JUMPI POP POP POP PUSH2 0x1B04 PUSH1 0x40 MLOAD SWAP5 DUP5 DUP7 SWAP6 DUP7 MSTORE DUP6 ADD SWAP1 PUSH2 0x369F JUMP JUMPDEST SWAP2 ISZERO ISZERO PUSH1 0x20 DUP5 ADD MSTORE PUSH1 0x40 DUP4 ADD MSTORE SUB SWAP1 RETURN JUMPDEST DUP1 PUSH2 0x1B23 PUSH2 0x1B39 SWAP3 DUP5 PUSH2 0x4149 JUMP JUMPDEST MLOAD PUSH2 0x1B2E DUP3 DUP11 PUSH2 0x4149 JUMP JUMPDEST MSTORE PUSH2 0xC76 DUP2 DUP10 PUSH2 0x4149 JUMP JUMPDEST PUSH2 0x1AE6 JUMP JUMPDEST PUSH2 0x1B47 DUP2 PUSH2 0x33DD JUMP JUMPDEST SWAP1 SLOAD PUSH1 0x3 SWAP2 DUP3 SHL SHR PUSH1 0x0 MSTORE PUSH1 0xB PUSH1 0x20 SWAP2 DUP2 DUP4 MSTORE PUSH1 0x10 SWAP1 DUP2 PUSH1 0x40 PUSH1 0x0 KECCAK256 ADD SLOAD DUP7 GT ISZERO PUSH2 0x1B7F JUMPI JUMPDEST POP POP POP POP PUSH2 0x1B7A SWAP1 PUSH2 0x3F04 JUMP JUMPDEST PUSH2 0x1ACC JUMP JUMPDEST SWAP1 SWAP2 SWAP3 SWAP4 SWAP9 SWAP10 DUP7 DUP12 LT PUSH1 0x0 EQ PUSH2 0x1C40 JUMPI POP SWAP2 PUSH1 0x11 SWAP2 PUSH1 0xFF SWAP4 PUSH2 0x1BA0 DUP12 PUSH2 0x33DD JUMP JUMPDEST SWAP1 SLOAD SWAP2 SHL SHR PUSH1 0x0 MSTORE DUP2 DUP6 MSTORE PUSH1 0x40 PUSH1 0x0 KECCAK256 SWAP2 PUSH1 0x40 MLOAD SWAP6 PUSH2 0x1BBE DUP8 PUSH2 0x342C JUMP JUMPDEST DUP4 SLOAD DUP8 MSTORE PUSH2 0x1BCD DUP11 DUP6 ADD PUSH2 0x39E2 JUMP JUMPDEST SWAP1 DUP8 ADD MSTORE DUP3 ADD SLOAD PUSH1 0x40 DUP7 ADD MSTORE PUSH1 0xC DUP3 ADD SLOAD DUP14 DUP7 ADD MSTORE PUSH1 0xD DUP3 ADD SLOAD PUSH1 0x80 DUP7 ADD MSTORE PUSH1 0xE DUP3 ADD SLOAD PUSH1 0xA0 DUP7 ADD MSTORE PUSH1 0xF DUP3 ADD SLOAD PUSH1 0xC0 DUP7 ADD MSTORE DUP2 ADD SLOAD PUSH1 0xE0 DUP6 ADD MSTORE ADD SLOAD AND ISZERO ISZERO PUSH2 0x100 DUP3 ADD MSTORE PUSH2 0x1C1D DUP8 DUP12 PUSH2 0x4149 JUMP JUMPDEST MSTORE PUSH2 0x1C28 DUP7 DUP11 PUSH2 0x4149 JUMP JUMPDEST POP PUSH2 0x1B7A PUSH2 0x1C36 DUP7 SWAP8 PUSH2 0x3F04 JUMP JUMPDEST SWAP6 SWAP1 DUP12 DUP1 DUP1 PUSH2 0x1B6D JUMP JUMPDEST SWAP10 SWAP11 POP POP POP POP POP POP POP SWAP2 POP POP SWAP2 DUP6 DUP1 DUP1 DUP1 DUP1 PUSH2 0x1AD4 JUMP JUMPDEST CALLVALUE PUSH2 0x258 JUMPI PUSH1 0x0 CALLDATASIZE PUSH1 0x3 NOT ADD SLT PUSH2 0x258 JUMPI PUSH1 0x1 DUP1 SLOAD PUSH2 0x1C75 DUP2 PUSH2 0x40F9 JUMP JUMPDEST SWAP2 PUSH1 0x0 JUMPDEST DUP3 DUP2 LT PUSH2 0x1C96 JUMPI PUSH1 0x40 MLOAD PUSH1 0x20 DUP1 DUP3 MSTORE DUP2 SWAP1 PUSH2 0x55F SWAP1 DUP3 ADD DUP8 PUSH2 0x369F JUMP JUMPDEST DUP1 PUSH2 0x1CA3 PUSH2 0x1D39 SWAP3 PUSH2 0x33DD JUMP JUMPDEST SWAP1 SLOAD SWAP1 PUSH1 0x3 SHL SHR PUSH1 0x0 MSTORE PUSH1 0xB PUSH1 0xFF PUSH1 0x11 PUSH1 0x20 SWAP3 DUP1 DUP5 MSTORE PUSH1 0x40 PUSH1 0x0 KECCAK256 SWAP1 PUSH1 0x40 MLOAD SWAP5 PUSH2 0x1CCC DUP7 PUSH2 0x342C JUMP JUMPDEST DUP3 SLOAD DUP7 MSTORE PUSH2 0x1CDB DUP10 DUP5 ADD PUSH2 0x39E2 JUMP JUMPDEST SWAP1 DUP7 ADD MSTORE DUP2 ADD SLOAD PUSH1 0x40 DUP6 ADD MSTORE PUSH1 0xC DUP2 ADD SLOAD PUSH1 0x60 DUP6 ADD MSTORE PUSH1 0xD DUP2 ADD SLOAD PUSH1 0x80 DUP6 ADD MSTORE PUSH1 0xE DUP2 ADD SLOAD PUSH1 0xA0 DUP6 ADD MSTORE PUSH1 0xF DUP2 ADD SLOAD PUSH1 0xC0 DUP6 ADD MSTORE PUSH1 0x10 DUP2 ADD SLOAD PUSH1 0xE0 DUP6 ADD MSTORE ADD SLOAD AND ISZERO ISZERO PUSH2 0x100 DUP3 ADD MSTORE PUSH2 0x1D2E DUP3 DUP8 PUSH2 0x4149 JUMP JUMPDEST MSTORE PUSH2 0xC76 DUP2 DUP7 PUSH2 0x4149 JUMP JUMPDEST PUSH2 0x1C79 JUMP JUMPDEST CALLVALUE PUSH2 0x258 JUMPI PUSH1 0x20 CALLDATASIZE PUSH1 0x3 NOT ADD SLT PUSH2 0x258 JUMPI PUSH1 0x4 CALLDATALOAD PUSH1 0x1 PUSH1 0x1 PUSH1 0x40 SHL SUB DUP2 GT PUSH2 0x258 JUMPI PUSH2 0x1D6E SWAP1 CALLDATASIZE SWAP1 PUSH1 0x4 ADD PUSH2 0x34F1 JUMP JUMPDEST POP PUSH1 0x20 PUSH1 0x40 MLOAD PUSH1 0x1 DUP2 MSTORE RETURN JUMPDEST CALLVALUE PUSH2 0x258 JUMPI PUSH2 0x1D88 CALLDATASIZE PUSH2 0x3712 JUMP JUMPDEST DUP3 MLOAD PUSH1 0x40 MLOAD PUSH1 0x60 DUP4 SWAP1 SHL PUSH12 0xFFFFFFFFFFFFFFFFFFFFFFFF NOT AND PUSH1 0x20 DUP3 ADD SWAP1 DUP2 MSTORE PUSH1 0x34 DUP3 ADD SWAP3 SWAP1 SWAP3 MSTORE TIMESTAMP PUSH1 0x54 DUP3 ADD MSTORE SWAP3 SWAP4 SWAP2 SWAP3 PUSH2 0x1DD1 DUP2 PUSH1 0x74 DUP2 ADD JUMPDEST SUB PUSH1 0x1F NOT DUP2 ADD DUP4 MSTORE DUP3 PUSH2 0x34B5 JUMP JUMPDEST MLOAD SWAP1 KECCAK256 SWAP1 PUSH1 0x0 PUSH2 0x1DE1 DUP3 MLOAD PUSH2 0x415D JUMP JUMPDEST SWAP4 PUSH1 0x0 JUMPDEST DUP4 MLOAD DUP2 LT ISZERO PUSH2 0x201B JUMPI PUSH2 0x1DF8 DUP2 DUP6 PUSH2 0x4149 JUMP JUMPDEST MLOAD DUP1 MLOAD PUSH1 0x0 MSTORE PUSH1 0xB PUSH1 0x20 MSTORE PUSH2 0x1E13 PUSH1 0x40 PUSH1 0x0 KECCAK256 SLOAD ISZERO ISZERO PUSH2 0x41CF JUMP JUMPDEST PUSH1 0x4 PUSH1 0x40 DUP3 ADD MLOAD LT DUP1 ISZERO PUSH2 0x920 JUMPI PUSH2 0x1E2A SWAP1 PUSH2 0x4274 JUMP JUMPDEST DUP1 MLOAD PUSH1 0x0 MSTORE PUSH1 0xB PUSH1 0x20 MSTORE PUSH1 0x40 PUSH1 0x0 KECCAK256 SWAP4 PUSH1 0xB DUP6 ADD SWAP1 PUSH2 0x1E4B DUP3 SLOAD ISZERO ISZERO PUSH2 0x42C0 JUMP JUMPDEST PUSH1 0x40 DUP4 ADD MLOAD PUSH1 0x4 DUP2 LT ISZERO PUSH2 0x920 JUMPI PUSH2 0x2005 JUMPI PUSH2 0x1E97 PUSH2 0x1E9D SWAP3 PUSH1 0x20 DUP6 ADD SWAP1 PUSH2 0x1E75 DUP3 MLOAD DUP3 SLOAD PUSH2 0x3F76 JUMP JUMPDEST SWAP1 SSTORE DUP1 MLOAD PUSH2 0x1E88 PUSH1 0xC DUP11 ADD SWAP2 DUP3 SLOAD PUSH2 0x430C JUMP JUMPDEST SWAP1 SSTORE PUSH1 0x6 DUP9 ADD SLOAD SWAP1 MLOAD SWAP1 PUSH2 0x4319 JUMP JUMPDEST SWAP1 PUSH2 0x430C JUMP JUMPDEST SWAP4 JUMPDEST PUSH1 0x20 DUP3 ADD MLOAD PUSH1 0x6 DUP3 ADD SLOAD PUSH1 0x40 DUP5 ADD MLOAD SWAP4 PUSH1 0x4 DUP6 LT ISZERO PUSH2 0x920 JUMPI MLOAD PUSH1 0x2 DUP1 SLOAD PUSH1 0x40 MLOAD SWAP3 SWAP5 SWAP2 SWAP4 PUSH1 0x1 PUSH1 0x1 PUSH1 0xA0 SHL SUB SWAP2 DUP3 AND SWAP3 SWAP1 SWAP2 PUSH2 0x1EDB DUP6 PUSH2 0x342C JUMP JUMPDEST DUP11 AND DUP5 MSTORE PUSH1 0x20 DUP5 ADD MSTORE PUSH1 0x40 DUP4 ADD MSTORE PUSH1 0x60 SWAP6 PUSH2 0x1EF8 SWAP1 DUP8 DUP5 ADD PUSH2 0x432C JUMP JUMPDEST PUSH1 0x80 SWAP4 TIMESTAMP DUP6 DUP5 ADD MSTORE PUSH1 0xA0 DUP4 ADD MSTORE CALLER PUSH1 0xC0 DUP4 ADD MSTORE PUSH1 0xE0 DUP3 ADD MSTORE PUSH2 0x100 DUP2 ADD PUSH1 0x0 SWAP1 MSTORE PUSH1 0x40 MLOAD PUSH2 0x1F27 DUP2 SWAP3 DUP3 PUSH2 0x4338 JUMP JUMPDEST SUB PUSH32 0xD0CB37444E42A97B69191186CAC71D299BF85A8F4472C9E55CD9F7EB26C5B1E SWAP2 LOG1 PUSH2 0x1F55 DUP6 DUP10 PUSH2 0x4149 JUMP JUMPDEST MLOAD MLOAD SWAP4 PUSH2 0x1F62 DUP7 DUP11 PUSH2 0x4149 JUMP JUMPDEST MLOAD PUSH1 0x20 ADD MLOAD PUSH2 0x1F71 DUP8 DUP12 PUSH2 0x4149 JUMP JUMPDEST MLOAD PUSH1 0x40 ADD PUSH2 0x1F7E SWAP1 PUSH2 0x4267 JUMP JUMPDEST SWAP1 PUSH1 0x40 MLOAD SWAP7 PUSH2 0x1F8C DUP9 PUSH2 0x3448 JUMP JUMPDEST DUP8 MSTORE PUSH1 0x20 DUP8 ADD MSTORE PUSH2 0x1FA0 SWAP1 PUSH1 0x40 DUP8 ADD PUSH2 0x432C JUMP JUMPDEST PUSH1 0x40 MLOAD DUP1 DUP1 SWAP4 DUP7 ADD SWAP1 PUSH2 0x1FB2 SWAP2 PUSH2 0x394C JUMP JUMPDEST SUB PUSH2 0x1FBD SWAP1 DUP4 PUSH2 0x34B5 JUMP JUMPDEST DUP5 ADD MSTORE PUSH1 0x40 MLOAD DUP1 PUSH1 0x1 DUP2 SWAP5 ADD SWAP1 PUSH2 0x1FD3 SWAP2 PUSH2 0x394C JUMP JUMPDEST SUB PUSH2 0x1FDE SWAP1 DUP4 PUSH2 0x34B5 JUMP JUMPDEST DUP3 ADD MSTORE PUSH2 0x1FEB DUP3 DUP9 PUSH2 0x4149 JUMP JUMPDEST MSTORE PUSH2 0x1FF6 DUP2 DUP8 PUSH2 0x4149 JUMP JUMPDEST POP PUSH2 0x2000 SWAP1 PUSH2 0x3F04 JUMP JUMPDEST PUSH2 0x1DE5 JUMP JUMPDEST PUSH2 0x2015 SWAP2 POP PUSH2 0x1E97 DUP6 DUP10 DUP6 PUSH2 0x4452 JUMP JUMPDEST SWAP4 PUSH2 0x1E9F JUMP JUMPDEST POP PUSH1 0x4 DUP1 SLOAD PUSH1 0x2 SLOAD PUSH1 0x40 MLOAD PUSH4 0x23B872DD PUSH1 0xE0 SHL DUP2 MSTORE CALLER SWAP4 DUP2 ADD SWAP4 SWAP1 SWAP4 MSTORE PUSH1 0x1 PUSH1 0x1 PUSH1 0xA0 SHL SUB SWAP1 DUP2 AND PUSH1 0x24 DUP5 ADD MSTORE PUSH1 0x44 DUP4 ADD DUP6 SWAP1 MSTORE SWAP3 SWAP8 SWAP7 SWAP5 POP SWAP1 SWAP2 PUSH1 0x20 SWAP2 DUP4 SWAP2 PUSH1 0x64 SWAP2 DUP4 SWAP2 PUSH1 0x0 SWAP2 AND GAS CALL SWAP1 DUP2 ISZERO PUSH2 0x963 JUMPI PUSH1 0x0 SWAP2 PUSH2 0x2BCD JUMPI JUMPDEST POP ISZERO PUSH2 0x2B90 JUMPI PUSH1 0x40 MLOAD SWAP2 PUSH2 0x2088 DUP4 PUSH2 0x3463 JUMP JUMPDEST DUP4 DUP4 MSTORE PUSH1 0x1 DUP1 PUSH1 0xA0 SHL SUB DUP7 AND PUSH1 0x20 DUP5 ADD MSTORE PUSH1 0x40 DUP4 ADD MSTORE TIMESTAMP PUSH1 0x60 DUP4 ADD MSTORE DUP4 PUSH1 0x80 DUP4 ADD MSTORE PUSH1 0x5 PUSH1 0xA0 DUP4 ADD MSTORE DUP3 PUSH1 0x0 MSTORE PUSH1 0xA PUSH1 0x20 MSTORE PUSH1 0x40 PUSH1 0x0 KECCAK256 SWAP5 DUP3 MLOAD DUP7 SSTORE PUSH1 0x1 DUP7 ADD PUSH1 0x1 DUP1 PUSH1 0xA0 SHL SUB PUSH1 0x20 DUP6 ADD MLOAD AND PUSH1 0x1 PUSH1 0x1 PUSH1 0x60 SHL SUB PUSH1 0xA0 SHL DUP3 SLOAD AND OR SWAP1 SSTORE PUSH1 0x40 DUP4 ADD MLOAD DUP1 MLOAD SWAP1 PUSH1 0x1 PUSH1 0x40 SHL DUP3 GT PUSH2 0x133E JUMPI PUSH1 0x2 DUP9 ADD SLOAD DUP3 PUSH1 0x2 DUP11 ADD SSTORE DUP1 DUP4 LT PUSH2 0x2B09 JUMPI JUMPDEST POP PUSH1 0x20 ADD SWAP1 PUSH1 0x2 DUP9 ADD PUSH1 0x0 MSTORE PUSH1 0x20 PUSH1 0x0 KECCAK256 SWAP2 PUSH1 0x0 SWAP1 JUMPDEST DUP3 DUP3 LT PUSH2 0x290A JUMPI POP POP POP POP PUSH1 0x60 DUP4 ADD MLOAD PUSH1 0x3 DUP8 ADD SSTORE PUSH1 0x80 DUP4 ADD MLOAD DUP1 MLOAD DUP1 MLOAD SWAP1 PUSH1 0x1 PUSH1 0x1 PUSH1 0x40 SHL SUB DUP3 GT PUSH2 0x133E JUMPI DUP2 SWAP1 PUSH2 0x216B DUP3 PUSH2 0x2162 PUSH1 0x4 DUP14 ADD SLOAD PUSH2 0x3912 JUMP JUMPDEST PUSH1 0x4 DUP14 ADD PUSH2 0x3E2D JUMP JUMPDEST PUSH1 0x20 SWAP1 PUSH1 0x1F DUP4 GT PUSH1 0x1 EQ PUSH2 0x2898 JUMPI PUSH1 0x0 SWAP3 PUSH2 0x288D JUMPI JUMPDEST POP POP DUP2 PUSH1 0x1 SHL SWAP2 PUSH1 0x0 NOT SWAP1 PUSH1 0x3 SHL SHR NOT AND OR PUSH1 0x4 DUP9 ADD SSTORE JUMPDEST PUSH1 0x20 DUP2 ADD MLOAD DUP1 MLOAD SWAP1 PUSH1 0x1 PUSH1 0x1 PUSH1 0x40 SHL SUB DUP3 GT PUSH2 0x133E JUMPI DUP2 SWAP1 PUSH2 0x21CB DUP3 PUSH2 0x21C2 PUSH1 0x5 DUP14 ADD SLOAD PUSH2 0x3912 JUMP JUMPDEST PUSH1 0x5 DUP14 ADD PUSH2 0x3E2D JUMP JUMPDEST PUSH1 0x20 SWAP1 PUSH1 0x1F DUP4 GT PUSH1 0x1 EQ PUSH2 0x281B JUMPI PUSH1 0x0 SWAP3 PUSH2 0x2810 JUMPI JUMPDEST POP POP DUP2 PUSH1 0x1 SHL SWAP2 PUSH1 0x0 NOT SWAP1 PUSH1 0x3 SHL SHR NOT AND OR PUSH1 0x5 DUP9 ADD SSTORE JUMPDEST PUSH1 0x40 DUP2 ADD MLOAD DUP1 MLOAD PUSH1 0x1 PUSH1 0x1 PUSH1 0x40 SHL SUB DUP2 GT PUSH2 0x133E JUMPI DUP1 PUSH1 0x6 DUP11 ADD SWAP3 PUSH2 0x2228 DUP3 PUSH2 0x2222 DUP7 SLOAD PUSH2 0x3912 JUMP JUMPDEST DUP7 PUSH2 0x3E2D JUMP JUMPDEST PUSH1 0x20 SWAP1 PUSH1 0x1F DUP4 GT PUSH1 0x1 EQ PUSH2 0x27AA JUMPI PUSH1 0x0 SWAP3 PUSH2 0x279F JUMPI JUMPDEST POP POP DUP2 PUSH1 0x1 SHL SWAP2 PUSH1 0x0 NOT SWAP1 PUSH1 0x3 SHL SHR NOT AND OR SWAP1 SSTORE JUMPDEST PUSH1 0x60 DUP2 ADD MLOAD DUP1 MLOAD PUSH1 0x1 PUSH1 0x1 PUSH1 0x40 SHL SUB DUP2 GT PUSH2 0x133E JUMPI DUP1 PUSH1 0x7 DUP11 ADD SWAP3 PUSH2 0x227C DUP3 PUSH2 0x2222 DUP7 SLOAD PUSH2 0x3912 JUMP JUMPDEST PUSH1 0x20 SWAP1 PUSH1 0x1F DUP4 GT PUSH1 0x1 EQ PUSH2 0x2739 JUMPI PUSH1 0x0 SWAP3 PUSH2 0x272E JUMPI JUMPDEST POP POP DUP2 PUSH1 0x1 SHL SWAP2 PUSH1 0x0 NOT SWAP1 PUSH1 0x3 SHL SHR NOT AND OR SWAP1 SSTORE JUMPDEST PUSH1 0x80 DUP2 ADD MLOAD DUP1 MLOAD PUSH1 0x1 PUSH1 0x1 PUSH1 0x40 SHL SUB DUP2 GT PUSH2 0x133E JUMPI DUP1 PUSH1 0x8 DUP11 ADD SWAP3 PUSH2 0x22D0 DUP3 PUSH2 0x2222 DUP7 SLOAD PUSH2 0x3912 JUMP JUMPDEST PUSH1 0x20 SWAP1 PUSH1 0x1F DUP4 GT PUSH1 0x1 EQ PUSH2 0x26C8 JUMPI PUSH1 0x0 SWAP3 PUSH2 0x26BD JUMPI JUMPDEST POP POP DUP2 PUSH1 0x1 SHL SWAP2 PUSH1 0x0 NOT SWAP1 PUSH1 0x3 SHL SHR NOT AND OR SWAP1 SSTORE JUMPDEST PUSH1 0xA0 DUP2 ADD MLOAD DUP1 MLOAD PUSH1 0x1 PUSH1 0x1 PUSH1 0x40 SHL SUB DUP2 GT PUSH2 0x133E JUMPI DUP1 PUSH1 0x9 DUP11 ADD SWAP3 PUSH2 0x2324 DUP3 PUSH2 0x2222 DUP7 SLOAD PUSH2 0x3912 JUMP JUMPDEST PUSH1 0x20 SWAP1 PUSH1 0x1F DUP4 GT PUSH1 0x1 EQ PUSH2 0x2657 JUMPI PUSH1 0x0 SWAP3 PUSH2 0x264C JUMPI JUMPDEST POP POP DUP2 PUSH1 0x1 SHL SWAP2 PUSH1 0x0 NOT SWAP1 PUSH1 0x3 SHL SHR NOT AND OR SWAP1 SSTORE JUMPDEST PUSH1 0xC0 DUP2 ADD MLOAD DUP1 MLOAD PUSH1 0x1 PUSH1 0x1 PUSH1 0x40 SHL SUB DUP2 GT PUSH2 0x133E JUMPI DUP1 PUSH1 0xA DUP11 ADD SWAP3 PUSH2 0x2378 DUP3 PUSH2 0x2222 DUP7 SLOAD PUSH2 0x3912 JUMP JUMPDEST PUSH1 0x20 SWAP1 PUSH1 0x1F DUP4 GT PUSH1 0x1 EQ PUSH2 0x25E6 JUMPI PUSH1 0x0 SWAP3 PUSH2 0x25DB JUMPI JUMPDEST POP POP DUP2 PUSH1 0x1 SHL SWAP2 PUSH1 0x0 NOT SWAP1 PUSH1 0x3 SHL SHR NOT AND OR SWAP1 SSTORE JUMPDEST PUSH1 0xE0 DUP2 ADD MLOAD DUP1 MLOAD PUSH1 0x1 PUSH1 0x1 PUSH1 0x40 SHL SUB DUP2 GT PUSH2 0x133E JUMPI PUSH1 0xB DUP10 ADD SWAP2 PUSH2 0x23D1 DUP3 PUSH2 0x23CB DUP6 SLOAD PUSH2 0x3912 JUMP JUMPDEST DUP6 PUSH2 0x3E2D JUMP JUMPDEST PUSH1 0x20 SWAP1 PUSH1 0x1F DUP4 GT PUSH1 0x1 EQ PUSH2 0x256E JUMPI PUSH2 0x100 SWAP5 SWAP4 SWAP3 SWAP2 PUSH1 0x0 SWAP2 DUP4 PUSH2 0x2563 JUMPI JUMPDEST POP POP DUP2 PUSH1 0x1 SHL SWAP2 PUSH1 0x0 NOT SWAP1 PUSH1 0x3 SHL SHR NOT AND OR SWAP1 SSTORE JUMPDEST ADD MLOAD SWAP6 DUP7 MLOAD PUSH1 0x1 PUSH1 0x1 PUSH1 0x40 SHL SUB DUP2 GT PUSH2 0x133E JUMPI PUSH1 0x20 SWAP8 PUSH2 0x2434 DUP3 PUSH2 0x242B PUSH1 0xC DUP7 ADD SLOAD PUSH2 0x3912 JUMP JUMPDEST PUSH1 0xC DUP7 ADD PUSH2 0x3E2D JUMP JUMPDEST DUP9 SWAP1 PUSH1 0x1F DUP4 GT PUSH1 0x1 EQ PUSH2 0x24DA JUMPI SWAP4 PUSH1 0x40 SWAP4 DUP4 PUSH1 0x0 DUP1 MLOAD PUSH1 0x20 PUSH2 0x6623 DUP4 CODECOPY DUP2 MLOAD SWAP2 MSTORE SWAP10 SWAP11 SWAP5 PUSH2 0x24AC SWAP5 PUSH2 0x24C4 SWAP9 PUSH1 0x0 SWAP3 PUSH2 0x24CF JUMPI JUMPDEST POP POP DUP2 PUSH1 0x1 SHL SWAP2 PUSH1 0x0 NOT SWAP1 PUSH1 0x3 SHL SHR NOT AND OR PUSH1 0xC DUP3 ADD SSTORE JUMPDEST PUSH1 0xD PUSH1 0xA0 DUP10 ADD MLOAD SWAP2 ADD SSTORE PUSH1 0x1 DUP1 PUSH1 0xA0 SHL SUB DUP2 AND PUSH1 0x0 MSTORE PUSH1 0xE DUP11 MSTORE PUSH2 0x24A7 DUP10 DUP6 PUSH1 0x0 KECCAK256 PUSH2 0x3EE2 JUMP JUMPDEST PUSH2 0x3D2F JUMP JUMPDEST PUSH2 0x24B5 DUP8 PUSH2 0x3E74 JUMP JUMPDEST ADD MLOAD SWAP2 PUSH1 0x40 MLOAD SWAP4 DUP5 SWAP4 DUP5 PUSH2 0x4424 JUMP JUMPDEST SUB SWAP1 LOG1 PUSH1 0x40 MLOAD SWAP1 DUP2 MSTORE RETURN JUMPDEST ADD MLOAD SWAP1 POP DUP14 DUP1 PUSH2 0x2468 JUMP JUMPDEST SWAP1 PUSH1 0xC DUP5 ADD PUSH1 0x0 MSTORE DUP10 PUSH1 0x0 KECCAK256 SWAP2 PUSH1 0x0 JUMPDEST PUSH1 0x1F NOT DUP6 AND DUP2 LT PUSH2 0x254C JUMPI POP SWAP4 PUSH1 0x1 DUP5 PUSH2 0x24AC SWAP5 PUSH2 0x24C4 SWAP9 SWAP5 PUSH1 0x40 SWAP9 PUSH1 0x0 DUP1 MLOAD PUSH1 0x20 PUSH2 0x6623 DUP4 CODECOPY DUP2 MLOAD SWAP2 MSTORE SWAP14 SWAP15 SWAP9 PUSH1 0x1F NOT DUP2 AND LT PUSH2 0x2533 JUMPI JUMPDEST POP POP POP DUP2 SHL ADD PUSH1 0xC DUP3 ADD SSTORE PUSH2 0x2480 JUMP JUMPDEST ADD MLOAD PUSH1 0x0 NOT PUSH1 0xF8 DUP5 PUSH1 0x3 SHL AND SHR NOT AND SWAP1 SSTORE DUP14 DUP1 DUP1 PUSH2 0x2523 JUMP JUMPDEST SWAP2 SWAP3 DUP12 PUSH1 0x1 DUP2 SWAP3 DUP7 DUP6 ADD MLOAD DUP2 SSTORE ADD SWAP5 ADD SWAP3 ADD PUSH2 0x24EA JUMP JUMPDEST ADD MLOAD SWAP1 POP DUP12 DUP1 PUSH2 0x23EF JUMP JUMPDEST SWAP1 PUSH1 0x1F NOT DUP4 AND SWAP2 DUP5 PUSH1 0x0 MSTORE PUSH1 0x20 PUSH1 0x0 KECCAK256 SWAP3 PUSH1 0x0 JUMPDEST DUP2 DUP2 LT PUSH2 0x25C3 JUMPI POP SWAP2 PUSH1 0x1 SWAP4 SWAP2 DUP6 PUSH2 0x100 SWAP9 SWAP8 SWAP7 SWAP5 LT PUSH2 0x25AA JUMPI JUMPDEST POP POP POP DUP2 SHL ADD SWAP1 SSTORE PUSH2 0x2404 JUMP JUMPDEST ADD MLOAD PUSH1 0x0 NOT PUSH1 0xF8 DUP5 PUSH1 0x3 SHL AND SHR NOT AND SWAP1 SSTORE DUP12 DUP1 DUP1 PUSH2 0x259D JUMP JUMPDEST SWAP3 SWAP4 PUSH1 0x20 PUSH1 0x1 DUP2 SWAP3 DUP8 DUP7 ADD MLOAD DUP2 SSTORE ADD SWAP6 ADD SWAP4 ADD PUSH2 0x2582 JUMP JUMPDEST ADD MLOAD SWAP1 POP DUP11 DUP1 PUSH2 0x238E JUMP JUMPDEST PUSH1 0x0 DUP6 DUP2 MSTORE PUSH1 0x20 DUP2 KECCAK256 SWAP4 POP PUSH1 0x1F NOT DUP6 AND SWAP1 JUMPDEST DUP2 DUP2 LT PUSH2 0x2634 JUMPI POP SWAP1 DUP5 PUSH1 0x1 SWAP6 SWAP5 SWAP4 SWAP3 LT PUSH2 0x261B JUMPI JUMPDEST POP POP POP DUP2 SHL ADD SWAP1 SSTORE PUSH2 0x23A3 JUMP JUMPDEST ADD MLOAD PUSH1 0x0 NOT PUSH1 0xF8 DUP5 PUSH1 0x3 SHL AND SHR NOT AND SWAP1 SSTORE DUP11 DUP1 DUP1 PUSH2 0x260E JUMP JUMPDEST SWAP3 SWAP4 PUSH1 0x20 PUSH1 0x1 DUP2 SWAP3 DUP8 DUP7 ADD MLOAD DUP2 SSTORE ADD SWAP6 ADD SWAP4 ADD PUSH2 0x25F8 JUMP JUMPDEST ADD MLOAD SWAP1 POP DUP11 DUP1 PUSH2 0x233A JUMP JUMPDEST PUSH1 0x0 DUP6 DUP2 MSTORE PUSH1 0x20 DUP2 KECCAK256 SWAP4 POP PUSH1 0x1F NOT DUP6 AND SWAP1 JUMPDEST DUP2 DUP2 LT PUSH2 0x26A5 JUMPI POP SWAP1 DUP5 PUSH1 0x1 SWAP6 SWAP5 SWAP4 SWAP3 LT PUSH2 0x268C JUMPI JUMPDEST POP POP POP DUP2 SHL ADD SWAP1 SSTORE PUSH2 0x234F JUMP JUMPDEST ADD MLOAD PUSH1 0x0 NOT PUSH1 0xF8 DUP5 PUSH1 0x3 SHL AND SHR NOT AND SWAP1 SSTORE DUP11 DUP1 DUP1 PUSH2 0x267F JUMP JUMPDEST SWAP3 SWAP4 PUSH1 0x20 PUSH1 0x1 DUP2 SWAP3 DUP8 DUP7 ADD MLOAD DUP2 SSTORE ADD SWAP6 ADD SWAP4 ADD PUSH2 0x2669 JUMP JUMPDEST ADD MLOAD SWAP1 POP DUP11 DUP1 PUSH2 0x22E6 JUMP JUMPDEST PUSH1 0x0 DUP6 DUP2 MSTORE PUSH1 0x20 DUP2 KECCAK256 SWAP4 POP PUSH1 0x1F NOT DUP6 AND SWAP1 JUMPDEST DUP2 DUP2 LT PUSH2 0x2716 JUMPI POP SWAP1 DUP5 PUSH1 0x1 SWAP6 SWAP5 SWAP4 SWAP3 LT PUSH2 0x26FD JUMPI JUMPDEST POP POP POP DUP2 SHL ADD SWAP1 SSTORE PUSH2 0x22FB JUMP JUMPDEST ADD MLOAD PUSH1 0x0 NOT PUSH1 0xF8 DUP5 PUSH1 0x3 SHL AND SHR NOT AND SWAP1 SSTORE DUP11 DUP1 DUP1 PUSH2 0x26F0 JUMP JUMPDEST SWAP3 SWAP4 PUSH1 0x20 PUSH1 0x1 DUP2 SWAP3 DUP8 DUP7 ADD MLOAD DUP2 SSTORE ADD SWAP6 ADD SWAP4 ADD PUSH2 0x26DA JUMP JUMPDEST ADD MLOAD SWAP1 POP DUP11 DUP1 PUSH2 0x2292 JUMP JUMPDEST PUSH1 0x0 DUP6 DUP2 MSTORE PUSH1 0x20 DUP2 KECCAK256 SWAP4 POP PUSH1 0x1F NOT DUP6 AND SWAP1 JUMPDEST DUP2 DUP2 LT PUSH2 0x2787 JUMPI POP SWAP1 DUP5 PUSH1 0x1 SWAP6 SWAP5 SWAP4 SWAP3 LT PUSH2 0x276E JUMPI JUMPDEST POP POP POP DUP2 SHL ADD SWAP1 SSTORE PUSH2 0x22A7 JUMP JUMPDEST ADD MLOAD PUSH1 0x0 NOT PUSH1 0xF8 DUP5 PUSH1 0x3 SHL AND SHR NOT AND SWAP1 SSTORE DUP11 DUP1 DUP1 PUSH2 0x2761 JUMP JUMPDEST SWAP3 SWAP4 PUSH1 0x20 PUSH1 0x1 DUP2 SWAP3 DUP8 DUP7 ADD MLOAD DUP2 SSTORE ADD SWAP6 ADD SWAP4 ADD PUSH2 0x274B JUMP JUMPDEST ADD MLOAD SWAP1 POP DUP11 DUP1 PUSH2 0x223E JUMP JUMPDEST PUSH1 0x0 DUP6 DUP2 MSTORE PUSH1 0x20 DUP2 KECCAK256 SWAP4 POP PUSH1 0x1F NOT DUP6 AND SWAP1 JUMPDEST DUP2 DUP2 LT PUSH2 0x27F8 JUMPI POP SWAP1 DUP5 PUSH1 0x1 SWAP6 SWAP5 SWAP4 SWAP3 LT PUSH2 0x27DF JUMPI JUMPDEST POP POP POP DUP2 SHL ADD SWAP1 SSTORE PUSH2 0x2253 JUMP JUMPDEST ADD MLOAD PUSH1 0x0 NOT PUSH1 0xF8 DUP5 PUSH1 0x3 SHL AND SHR NOT AND SWAP1 SSTORE DUP11 DUP1 DUP1 PUSH2 0x27D2 JUMP JUMPDEST SWAP3 SWAP4 PUSH1 0x20 PUSH1 0x1 DUP2 SWAP3 DUP8 DUP7 ADD MLOAD DUP2 SSTORE ADD SWAP6 ADD SWAP4 ADD PUSH2 0x27BC JUMP JUMPDEST ADD MLOAD SWAP1 POP DUP10 DUP1 PUSH2 0x21E1 JUMP JUMPDEST SWAP3 POP PUSH1 0x5 DUP11 ADD PUSH1 0x0 MSTORE PUSH1 0x20 PUSH1 0x0 KECCAK256 SWAP1 PUSH1 0x0 SWAP4 JUMPDEST PUSH1 0x1F NOT DUP5 AND DUP6 LT PUSH2 0x2872 JUMPI PUSH1 0x1 SWAP5 POP DUP4 PUSH1 0x1F NOT DUP2 AND LT PUSH2 0x2859 JUMPI JUMPDEST POP POP POP DUP2 SHL ADD PUSH1 0x5 DUP9 ADD SSTORE PUSH2 0x21F9 JUMP JUMPDEST ADD MLOAD PUSH1 0x0 NOT PUSH1 0xF8 DUP5 PUSH1 0x3 SHL AND SHR NOT AND SWAP1 SSTORE DUP10 DUP1 DUP1 PUSH2 0x2849 JUMP JUMPDEST DUP2 DUP2 ADD MLOAD DUP4 SSTORE PUSH1 0x20 SWAP5 DUP6 ADD SWAP5 PUSH1 0x1 SWAP1 SWAP4 ADD SWAP3 SWAP1 SWAP2 ADD SWAP1 PUSH2 0x282E JUMP JUMPDEST ADD MLOAD SWAP1 POP DUP10 DUP1 PUSH2 0x2181 JUMP JUMPDEST SWAP3 POP PUSH1 0x4 DUP11 ADD PUSH1 0x0 MSTORE PUSH1 0x20 PUSH1 0x0 KECCAK256 SWAP1 PUSH1 0x0 SWAP4 JUMPDEST PUSH1 0x1F NOT DUP5 AND DUP6 LT PUSH2 0x28EF JUMPI PUSH1 0x1 SWAP5 POP DUP4 PUSH1 0x1F NOT DUP2 AND LT PUSH2 0x28D6 JUMPI JUMPDEST POP POP POP DUP2 SHL ADD PUSH1 0x4 DUP9 ADD SSTORE PUSH2 0x2199 JUMP JUMPDEST ADD MLOAD PUSH1 0x0 NOT PUSH1 0xF8 DUP5 PUSH1 0x3 SHL AND SHR NOT AND SWAP1 SSTORE DUP10 DUP1 DUP1 PUSH2 0x28C6 JUMP JUMPDEST DUP2 DUP2 ADD MLOAD DUP4 SSTORE PUSH1 0x20 SWAP5 DUP6 ADD SWAP5 PUSH1 0x1 SWAP1 SWAP4 ADD SWAP3 SWAP1 SWAP2 ADD SWAP1 PUSH2 0x28AB JUMP JUMPDEST DUP1 MLOAD DUP1 MLOAD DUP6 SSTORE PUSH1 0x20 DUP2 ADD MLOAD PUSH1 0x1 DUP7 ADD SSTORE PUSH1 0x40 DUP2 ADD MLOAD PUSH1 0x4 DUP2 LT ISZERO PUSH2 0x920 JUMPI PUSH2 0x2935 SWAP1 PUSH1 0x2 DUP8 ADD PUSH2 0x440C JUMP JUMPDEST PUSH1 0x60 DUP2 ADD MLOAD DUP1 MLOAD SWAP1 PUSH1 0x1 PUSH1 0x1 PUSH1 0x40 SHL SUB DUP3 GT PUSH2 0x133E JUMPI PUSH2 0x2965 DUP3 PUSH2 0x295C PUSH1 0x3 DUP11 ADD SLOAD PUSH2 0x3912 JUMP JUMPDEST PUSH1 0x3 DUP11 ADD PUSH2 0x3E2D JUMP JUMPDEST PUSH1 0x20 SWAP1 PUSH1 0x1F DUP4 GT PUSH1 0x1 EQ PUSH2 0x2A96 JUMPI PUSH1 0x80 SWAP4 SWAP3 SWAP2 PUSH1 0x0 SWAP2 DUP4 PUSH2 0x2A8B JUMPI JUMPDEST POP POP DUP2 PUSH1 0x1 SHL SWAP2 PUSH1 0x0 NOT SWAP1 PUSH1 0x3 SHL SHR NOT AND OR PUSH1 0x3 DUP8 ADD SSTORE JUMPDEST ADD MLOAD DUP1 MLOAD SWAP1 PUSH1 0x1 PUSH1 0x1 PUSH1 0x40 SHL SUB DUP3 GT PUSH2 0x133E JUMPI PUSH2 0x29C6 DUP3 PUSH2 0x29BD PUSH1 0x4 DUP10 ADD SLOAD PUSH2 0x3912 JUMP JUMPDEST PUSH1 0x4 DUP10 ADD PUSH2 0x3E2D JUMP JUMPDEST PUSH1 0x20 SWAP1 PUSH1 0x1F DUP4 GT PUSH1 0x1 EQ PUSH2 0x2A15 JUMPI SWAP3 DUP3 PUSH1 0x5 SWAP4 PUSH1 0x20 SWAP4 PUSH1 0x1 SWAP7 PUSH1 0x0 SWAP3 PUSH2 0x2A0A JUMPI JUMPDEST POP POP PUSH1 0x0 NOT PUSH1 0x3 DUP4 SWAP1 SHL SHR NOT AND SWAP1 DUP6 SHL OR PUSH1 0x4 DUP9 ADD SSTORE JUMPDEST ADD SWAP5 ADD SWAP2 ADD SWAP1 SWAP3 PUSH2 0x2122 JUMP JUMPDEST ADD MLOAD SWAP1 POP DUP16 DUP1 PUSH2 0x29E7 JUMP JUMPDEST SWAP1 PUSH1 0x4 DUP8 ADD PUSH1 0x0 MSTORE PUSH1 0x20 PUSH1 0x0 KECCAK256 SWAP2 PUSH1 0x0 JUMPDEST PUSH1 0x1F NOT DUP6 AND DUP2 LT PUSH2 0x2A73 JUMPI POP DUP4 PUSH1 0x20 SWAP4 PUSH1 0x1 SWAP7 SWAP4 DUP8 SWAP4 PUSH1 0x5 SWAP8 PUSH1 0x1F NOT DUP2 AND LT PUSH2 0x2A5A JUMPI JUMPDEST POP POP POP DUP2 SHL ADD PUSH1 0x4 DUP9 ADD SSTORE PUSH2 0x29FE JUMP JUMPDEST ADD MLOAD PUSH1 0x0 NOT PUSH1 0xF8 DUP5 PUSH1 0x3 SHL AND SHR NOT AND SWAP1 SSTORE DUP16 DUP1 DUP1 PUSH2 0x2A4A JUMP JUMPDEST SWAP2 SWAP3 PUSH1 0x20 PUSH1 0x1 DUP2 SWAP3 DUP7 DUP6 ADD MLOAD DUP2 SSTORE ADD SWAP5 ADD SWAP3 ADD PUSH2 0x2A26 JUMP JUMPDEST ADD MLOAD SWAP1 POP DUP15 DUP1 PUSH2 0x2981 JUMP JUMPDEST SWAP1 PUSH1 0x3 DUP9 ADD PUSH1 0x0 MSTORE PUSH1 0x20 PUSH1 0x0 KECCAK256 SWAP2 PUSH1 0x0 JUMPDEST PUSH1 0x1F NOT DUP6 AND DUP2 LT PUSH2 0x2AF1 JUMPI POP SWAP2 DUP4 SWAP2 PUSH1 0x1 SWAP4 PUSH1 0x80 SWAP7 SWAP6 PUSH1 0x1F NOT DUP2 AND LT PUSH2 0x2AD8 JUMPI JUMPDEST POP POP POP DUP2 SHL ADD PUSH1 0x3 DUP8 ADD SSTORE PUSH2 0x2999 JUMP JUMPDEST ADD MLOAD PUSH1 0x0 NOT PUSH1 0xF8 DUP5 PUSH1 0x3 SHL AND SHR NOT AND SWAP1 SSTORE DUP15 DUP1 DUP1 PUSH2 0x2AC8 JUMP JUMPDEST SWAP2 SWAP3 PUSH1 0x20 PUSH1 0x1 DUP2 SWAP3 DUP7 DUP6 ADD MLOAD DUP2 SSTORE ADD SWAP5 ADD SWAP3 ADD PUSH2 0x2AA7 JUMP JUMPDEST PUSH1 0x5 DUP2 DUP2 MUL DIV DUP2 SUB PUSH2 0x2B7A JUMPI PUSH1 0x5 DUP4 DUP2 MUL DIV DUP4 SUB PUSH2 0x2B7A JUMPI PUSH1 0x2 DUP10 ADD PUSH1 0x0 MSTORE PUSH1 0x20 PUSH1 0x0 KECCAK256 DUP4 PUSH1 0x5 MUL DUP2 ADD JUMPDEST DUP3 PUSH1 0x5 MUL DUP3 ADD DUP2 LT PUSH2 0x2B47 JUMPI POP POP PUSH2 0x210C JUMP JUMPDEST DUP1 PUSH1 0x0 PUSH1 0x5 SWAP3 SSTORE PUSH1 0x0 PUSH1 0x1 DUP3 ADD SSTORE PUSH1 0x0 PUSH1 0x2 DUP3 ADD SSTORE PUSH2 0x2B68 PUSH1 0x3 DUP3 ADD PUSH2 0x43C3 JUMP JUMPDEST PUSH2 0x2B74 PUSH1 0x4 DUP3 ADD PUSH2 0x43C3 JUMP JUMPDEST ADD PUSH2 0x2B34 JUMP JUMPDEST PUSH4 0x4E487B71 PUSH1 0xE0 SHL PUSH1 0x0 MSTORE PUSH1 0x11 PUSH1 0x4 MSTORE PUSH1 0x24 PUSH1 0x0 REVERT JUMPDEST PUSH1 0x40 MLOAD PUSH3 0x461BCD PUSH1 0xE5 SHL DUP2 MSTORE PUSH1 0x20 PUSH1 0x4 DUP3 ADD MSTORE PUSH1 0x15 PUSH1 0x24 DUP3 ADD MSTORE PUSH21 0x151BDAD95B881D1C985B9CD9995C8819985A5B1959 PUSH1 0x5A SHL PUSH1 0x44 DUP3 ADD MSTORE PUSH1 0x64 SWAP1 REVERT JUMPDEST PUSH2 0x2BE6 SWAP2 POP PUSH1 0x20 RETURNDATASIZE PUSH1 0x20 GT PUSH2 0x95C JUMPI PUSH2 0x94D DUP2 DUP4 PUSH2 0x34B5 JUMP JUMPDEST DUP7 PUSH2 0x2075 JUMP JUMPDEST CALLVALUE PUSH2 0x258 JUMPI PUSH1 0x20 CALLDATASIZE PUSH1 0x3 NOT ADD SLT PUSH2 0x258 JUMPI PUSH1 0x4 CALLDATALOAD PUSH1 0x6 SLOAD DUP2 LT ISZERO PUSH2 0x258 JUMPI PUSH1 0x6 PUSH1 0x0 MSTORE PUSH32 0xF652222313E28459528D920B65115C16C04F3EFC82AAEDC97BE59F3F377C0D3F ADD SLOAD PUSH1 0x40 MLOAD PUSH1 0x1 PUSH1 0x1 PUSH1 0xA0 SHL SUB SWAP1 SWAP2 AND DUP2 MSTORE PUSH1 0x20 SWAP1 RETURN JUMPDEST CALLVALUE PUSH2 0x258 JUMPI PUSH1 0x0 CALLDATASIZE PUSH1 0x3 NOT ADD SLT PUSH2 0x258 JUMPI PUSH1 0x20 PUSH1 0x7 SLOAD PUSH1 0x40 MLOAD SWAP1 DUP2 MSTORE RETURN JUMPDEST CALLVALUE PUSH2 0x258 JUMPI PUSH1 0x0 CALLDATASIZE PUSH1 0x3 NOT ADD SLT PUSH2 0x258 JUMPI CALLER PUSH1 0x0 MSTORE PUSH1 0x20 PUSH1 0x8 DUP2 MSTORE PUSH1 0x1 SWAP1 PUSH1 0xFF SWAP2 PUSH2 0x2C9A DUP2 DUP5 PUSH1 0x40 PUSH1 0x0 KECCAK256 SLOAD AND ISZERO ISZERO EQ PUSH2 0x3D93 JUMP JUMPDEST PUSH1 0x0 SLOAD SWAP1 PUSH2 0x2CA7 DUP3 PUSH2 0x40F9 JUMP JUMPDEST SWAP4 PUSH1 0x0 JUMPDEST DUP4 DUP2 LT PUSH2 0x2CC5 JUMPI PUSH1 0x40 MLOAD DUP6 DUP2 MSTORE DUP1 PUSH2 0x55F DUP2 DUP9 ADD DUP10 PUSH2 0x369F JUMP JUMPDEST DUP1 PUSH2 0x2CD2 PUSH2 0x2D63 SWAP3 PUSH2 0x3393 JUMP JUMPDEST SWAP1 SLOAD SWAP1 PUSH1 0x3 SHL SHR PUSH1 0x0 MSTORE PUSH1 0xB DUP1 DUP8 MSTORE DUP4 PUSH1 0x11 PUSH1 0x40 PUSH1 0x0 KECCAK256 PUSH1 0x40 MLOAD SWAP4 PUSH2 0x2CF6 DUP6 PUSH2 0x342C JUMP JUMPDEST DUP2 SLOAD DUP6 MSTORE PUSH2 0x2D05 DUP10 DUP4 ADD PUSH2 0x39E2 JUMP JUMPDEST DUP12 DUP7 ADD MSTORE DUP2 ADD SLOAD PUSH1 0x40 DUP6 ADD MSTORE PUSH1 0xC DUP2 ADD SLOAD PUSH1 0x60 DUP6 ADD MSTORE PUSH1 0xD DUP2 ADD SLOAD PUSH1 0x80 DUP6 ADD MSTORE PUSH1 0xE DUP2 ADD SLOAD PUSH1 0xA0 DUP6 ADD MSTORE PUSH1 0xF DUP2 ADD SLOAD PUSH1 0xC0 DUP6 ADD MSTORE PUSH1 0x10 DUP2 ADD SLOAD PUSH1 0xE0 DUP6 ADD MSTORE ADD SLOAD AND ISZERO ISZERO PUSH2 0x100 DUP3 ADD MSTORE PUSH2 0x2D58 DUP3 DUP10 PUSH2 0x4149 JUMP JUMPDEST MSTORE PUSH2 0xC76 DUP2 DUP9 PUSH2 0x4149 JUMP JUMPDEST PUSH2 0x2CAB JUMP JUMPDEST CALLVALUE PUSH2 0x258 JUMPI PUSH1 0x20 CALLDATASIZE PUSH1 0x3 NOT ADD SLT PUSH2 0x258 JUMPI CALLER PUSH1 0x0 MSTORE PUSH1 0x8 PUSH1 0x20 MSTORE PUSH2 0x2D98 PUSH1 0x1 PUSH1 0xFF PUSH1 0x40 PUSH1 0x0 KECCAK256 SLOAD AND ISZERO ISZERO EQ PUSH2 0x3D93 JUMP JUMPDEST PUSH1 0x20 PUSH2 0x9C4 PUSH1 0x4 CALLDATALOAD PUSH2 0x3F13 JUMP JUMPDEST CALLVALUE PUSH2 0x258 JUMPI PUSH1 0x20 CALLDATASIZE PUSH1 0x3 NOT ADD SLT PUSH2 0x258 JUMPI CALLER PUSH1 0x0 MSTORE PUSH1 0x8 PUSH1 0x20 MSTORE PUSH2 0x2DD5 PUSH1 0x1 PUSH1 0xFF PUSH1 0x40 PUSH1 0x0 KECCAK256 SLOAD AND ISZERO ISZERO EQ PUSH2 0x3D93 JUMP JUMPDEST PUSH1 0x20 PUSH2 0x9C4 PUSH1 0x4 CALLDATALOAD PUSH2 0x3F83 JUMP JUMPDEST CALLVALUE PUSH2 0x258 JUMPI PUSH1 0x60 CALLDATASIZE PUSH1 0x3 NOT ADD SLT PUSH2 0x258 JUMPI PUSH1 0x4 CALLDATALOAD PUSH1 0x0 MSTORE PUSH1 0x20 PUSH1 0x10 DUP2 MSTORE PUSH1 0x40 PUSH1 0x0 KECCAK256 PUSH1 0x40 MLOAD SWAP1 DUP2 DUP4 DUP3 SLOAD SWAP2 DUP3 DUP2 MSTORE ADD SWAP2 PUSH1 0x0 MSTORE DUP4 PUSH1 0x0 KECCAK256 SWAP1 PUSH1 0x0 JUMPDEST DUP6 DUP3 DUP3 LT PUSH2 0x2E40 JUMPI PUSH2 0xD91 DUP7 PUSH2 0x2E35 DUP2 DUP9 SUB DUP3 PUSH2 0x34B5 JUMP JUMPDEST PUSH1 0x44 CALLDATALOAD PUSH1 0x24 CALLDATALOAD PUSH2 0x4890 JUMP JUMPDEST DUP4 SLOAD DUP6 MSTORE SWAP1 SWAP4 ADD SWAP3 PUSH1 0x1 SWAP3 DUP4 ADD SWAP3 ADD PUSH2 0x2E1D JUMP JUMPDEST CALLVALUE PUSH2 0x258 JUMPI PUSH2 0x2E62 CALLDATASIZE PUSH2 0x3538 JUMP JUMPDEST SWAP1 PUSH1 0x0 MSTORE PUSH1 0x10 PUSH1 0x20 MSTORE PUSH1 0x40 PUSH1 0x0 KECCAK256 DUP1 SLOAD DUP3 LT ISZERO PUSH2 0x258 JUMPI PUSH1 0x20 SWAP2 PUSH2 0x2F9 SWAP2 PUSH2 0x3414 JUMP JUMPDEST CALLVALUE PUSH2 0x258 JUMPI PUSH2 0x180 CALLDATASIZE PUSH1 0x3 NOT ADD SLT PUSH2 0x258 JUMPI PUSH1 0x24 CALLDATALOAD PUSH1 0x1 PUSH1 0x1 PUSH1 0x40 SHL SUB DUP2 GT PUSH2 0x258 JUMPI PUSH2 0x2EB6 SWAP1 CALLDATASIZE SWAP1 PUSH1 0x4 ADD PUSH2 0x34F1 JUMP JUMPDEST PUSH1 0x44 CALLDATALOAD PUSH1 0x1 PUSH1 0x1 PUSH1 0x40 SHL SUB DUP2 GT PUSH2 0x258 JUMPI PUSH2 0x2ED5 SWAP1 CALLDATASIZE SWAP1 PUSH1 0x4 ADD PUSH2 0x34F1 JUMP JUMPDEST SWAP1 PUSH1 0x64 CALLDATALOAD PUSH1 0x1 PUSH1 0x1 PUSH1 0x40 SHL SUB DUP2 GT PUSH2 0x258 JUMPI PUSH2 0x2EF5 SWAP1 CALLDATASIZE SWAP1 PUSH1 0x4 ADD PUSH2 0x34F1 JUMP JUMPDEST SWAP1 PUSH1 0x84 CALLDATALOAD PUSH1 0x1 PUSH1 0x1 PUSH1 0x40 SHL SUB DUP2 GT PUSH2 0x258 JUMPI PUSH2 0x2F15 SWAP1 CALLDATASIZE SWAP1 PUSH1 0x4 ADD PUSH2 0x34F1 JUMP JUMPDEST SWAP1 CALLER PUSH1 0x0 MSTORE PUSH1 0x8 PUSH1 0x20 MSTORE PUSH2 0x2F35 PUSH1 0x1 PUSH1 0xFF PUSH1 0x40 PUSH1 0x0 KECCAK256 SLOAD AND ISZERO ISZERO EQ PUSH2 0x3D93 JUMP JUMPDEST PUSH1 0x4 CALLDATALOAD PUSH1 0x0 MSTORE PUSH1 0xB PUSH1 0x20 MSTORE PUSH1 0x40 PUSH1 0x0 KECCAK256 SWAP1 PUSH1 0x1 DUP3 ADD SWAP1 DUP1 MLOAD SWAP1 PUSH1 0x1 PUSH1 0x1 PUSH1 0x40 SHL SUB DUP3 GT PUSH2 0x133E JUMPI DUP2 SWAP1 PUSH2 0x2F6C DUP3 PUSH2 0x2222 DUP7 SLOAD PUSH2 0x3912 JUMP JUMPDEST PUSH1 0x20 SWAP1 PUSH1 0x1F DUP4 GT PUSH1 0x1 EQ PUSH2 0x3250 JUMPI PUSH1 0x0 SWAP3 PUSH2 0x3245 JUMPI JUMPDEST POP POP DUP2 PUSH1 0x1 SHL SWAP2 PUSH1 0x0 NOT SWAP1 PUSH1 0x3 SHL SHR NOT AND OR SWAP1 SSTORE JUMPDEST DUP4 MLOAD PUSH1 0x1 PUSH1 0x1 PUSH1 0x40 SHL SUB DUP2 GT PUSH2 0x133E JUMPI PUSH2 0x2FC1 DUP2 PUSH2 0x2FB8 PUSH1 0x3 DUP6 ADD SLOAD PUSH2 0x3912 JUMP JUMPDEST PUSH1 0x3 DUP6 ADD PUSH2 0x3E2D JUMP JUMPDEST PUSH1 0x20 PUSH1 0x1F DUP3 GT PUSH1 0x1 EQ PUSH2 0x31D6 JUMPI DUP2 SWAP3 SWAP4 SWAP5 SWAP6 PUSH1 0x0 SWAP3 PUSH2 0x31CB JUMPI JUMPDEST POP POP DUP2 PUSH1 0x1 SHL SWAP2 PUSH1 0x0 NOT SWAP1 PUSH1 0x3 SHL SHR NOT AND OR PUSH1 0x3 DUP3 ADD SSTORE JUMPDEST PUSH1 0x4 DUP2 ADD DUP4 MLOAD PUSH1 0x1 PUSH1 0x1 PUSH1 0x40 SHL SUB DUP2 GT PUSH2 0x133E JUMPI PUSH2 0x301B DUP2 PUSH2 0x3015 DUP5 SLOAD PUSH2 0x3912 JUMP JUMPDEST DUP5 PUSH2 0x3E2D JUMP JUMPDEST PUSH1 0x20 SWAP5 PUSH1 0x1F DUP3 GT PUSH1 0x1 EQ PUSH2 0x3165 JUMPI SWAP5 DUP2 SWAP3 SWAP4 SWAP5 SWAP6 PUSH1 0x0 SWAP3 PUSH2 0x315A JUMPI JUMPDEST POP POP DUP2 PUSH1 0x1 SHL SWAP2 PUSH1 0x0 NOT SWAP1 PUSH1 0x3 SHL SHR NOT AND OR SWAP1 SSTORE JUMPDEST PUSH1 0x5 DUP2 ADD DUP3 MLOAD PUSH1 0x1 PUSH1 0x1 PUSH1 0x40 SHL SUB DUP2 GT PUSH2 0x133E JUMPI PUSH2 0x306E DUP2 PUSH2 0x3015 DUP5 SLOAD PUSH2 0x3912 JUMP JUMPDEST PUSH1 0x20 PUSH1 0x1F DUP3 GT PUSH1 0x1 EQ PUSH2 0x30F4 JUMPI DUP2 SWAP3 SWAP4 SWAP5 PUSH1 0x0 SWAP3 PUSH2 0x30E9 JUMPI JUMPDEST POP POP DUP2 PUSH1 0x1 SHL SWAP2 PUSH1 0x0 NOT SWAP1 PUSH1 0x3 SHL SHR NOT AND OR SWAP1 SSTORE JUMPDEST PUSH1 0xA4 CALLDATALOAD PUSH1 0x6 DUP3 ADD SSTORE PUSH1 0xC4 CALLDATALOAD PUSH1 0x7 DUP3 ADD SSTORE PUSH1 0xE4 CALLDATALOAD PUSH1 0x8 DUP3 ADD SSTORE PUSH2 0x104 CALLDATALOAD PUSH1 0x9 DUP3 ADD SSTORE PUSH2 0x124 CALLDATALOAD PUSH1 0xA DUP3 ADD SSTORE PUSH2 0x144 CALLDATALOAD PUSH1 0xB DUP3 ADD SSTORE PUSH2 0x164 CALLDATALOAD PUSH1 0xF DUP3 ADD SSTORE PUSH1 0x10 TIMESTAMP SWAP2 ADD SSTORE PUSH1 0x20 PUSH1 0x40 MLOAD PUSH1 0x1 DUP2 MSTORE RETURN JUMPDEST ADD MLOAD SWAP1 POP DUP5 DUP1 PUSH2 0x3087 JUMP JUMPDEST PUSH1 0x1F NOT DUP3 AND SWAP1 DUP4 PUSH1 0x0 MSTORE PUSH1 0x20 PUSH1 0x0 KECCAK256 SWAP2 PUSH1 0x0 JUMPDEST DUP2 DUP2 LT PUSH2 0x3142 JUMPI POP SWAP6 DUP4 PUSH1 0x1 SWAP6 SWAP7 SWAP8 LT PUSH2 0x3129 JUMPI JUMPDEST POP POP POP DUP2 SHL ADD SWAP1 SSTORE PUSH2 0x309C JUMP JUMPDEST ADD MLOAD PUSH1 0x0 NOT PUSH1 0xF8 DUP5 PUSH1 0x3 SHL AND SHR NOT AND SWAP1 SSTORE DUP5 DUP1 DUP1 PUSH2 0x311C JUMP JUMPDEST SWAP2 SWAP3 PUSH1 0x20 PUSH1 0x1 DUP2 SWAP3 DUP7 DUP12 ADD MLOAD DUP2 SSTORE ADD SWAP5 ADD SWAP3 ADD PUSH2 0x3107 JUMP JUMPDEST ADD MLOAD SWAP1 POP DUP6 DUP1 PUSH2 0x3037 JUMP JUMPDEST PUSH1 0x1F NOT DUP3 AND SWAP6 DUP4 PUSH1 0x0 MSTORE PUSH1 0x20 PUSH1 0x0 KECCAK256 SWAP2 PUSH1 0x0 JUMPDEST DUP9 DUP2 LT PUSH2 0x31B3 JUMPI POP DUP4 PUSH1 0x1 SWAP6 SWAP7 SWAP8 SWAP9 LT PUSH2 0x319A JUMPI JUMPDEST POP POP POP DUP2 SHL ADD SWAP1 SSTORE PUSH2 0x304C JUMP JUMPDEST ADD MLOAD PUSH1 0x0 NOT PUSH1 0xF8 DUP5 PUSH1 0x3 SHL AND SHR NOT AND SWAP1 SSTORE DUP6 DUP1 DUP1 PUSH2 0x318D JUMP JUMPDEST SWAP2 SWAP3 PUSH1 0x20 PUSH1 0x1 DUP2 SWAP3 DUP7 DUP6 ADD MLOAD DUP2 SSTORE ADD SWAP5 ADD SWAP3 ADD PUSH2 0x3178 JUMP JUMPDEST ADD MLOAD SWAP1 POP DUP6 DUP1 PUSH2 0x2FDB JUMP JUMPDEST PUSH1 0x3 DUP4 ADD PUSH1 0x0 MSTORE PUSH1 0x20 PUSH1 0x0 KECCAK256 SWAP1 PUSH1 0x0 JUMPDEST PUSH1 0x1F NOT DUP5 AND DUP2 LT PUSH2 0x322D JUMPI POP PUSH1 0x1 SWAP4 SWAP5 SWAP6 SWAP7 DUP4 PUSH1 0x1F NOT DUP2 AND LT PUSH2 0x3214 JUMPI JUMPDEST POP POP POP DUP2 SHL ADD PUSH1 0x3 DUP3 ADD SSTORE PUSH2 0x2FF3 JUMP JUMPDEST ADD MLOAD PUSH1 0x0 NOT PUSH1 0xF8 DUP5 PUSH1 0x3 SHL AND SHR NOT AND SWAP1 SSTORE DUP6 DUP1 DUP1 PUSH2 0x3204 JUMP JUMPDEST SWAP1 SWAP2 PUSH1 0x20 PUSH1 0x1 DUP2 SWAP3 DUP6 DUP12 ADD MLOAD DUP2 SSTORE ADD SWAP4 ADD SWAP2 ADD PUSH2 0x31E6 JUMP JUMPDEST ADD MLOAD SWAP1 POP DUP8 DUP1 PUSH2 0x2F82 JUMP JUMPDEST SWAP3 POP DUP4 PUSH1 0x0 MSTORE PUSH1 0x20 PUSH1 0x0 KECCAK256 SWAP1 PUSH1 0x0 SWAP4 JUMPDEST PUSH1 0x1F NOT DUP5 AND DUP6 LT PUSH2 0x32A1 JUMPI PUSH1 0x1 SWAP5 POP DUP4 PUSH1 0x1F NOT DUP2 AND LT PUSH2 0x3288 JUMPI JUMPDEST POP POP POP DUP2 SHL ADD SWAP1 SSTORE PUSH2 0x2F97 JUMP JUMPDEST ADD MLOAD PUSH1 0x0 NOT PUSH1 0xF8 DUP5 PUSH1 0x3 SHL AND SHR NOT AND SWAP1 SSTORE DUP8 DUP1 DUP1 PUSH2 0x327B JUMP JUMPDEST DUP2 DUP2 ADD MLOAD DUP4 SSTORE PUSH1 0x20 SWAP5 DUP6 ADD SWAP5 PUSH1 0x1 SWAP1 SWAP4 ADD SWAP3 SWAP1 SWAP2 ADD SWAP1 PUSH2 0x3260 JUMP JUMPDEST CALLVALUE PUSH2 0x258 JUMPI PUSH1 0x20 CALLDATASIZE PUSH1 0x3 NOT ADD SLT PUSH2 0x258 JUMPI PUSH1 0x4 CALLDATALOAD DUP1 PUSH1 0x0 MSTORE PUSH1 0xF PUSH1 0x20 MSTORE PUSH1 0x40 PUSH1 0x0 KECCAK256 PUSH2 0x32E8 DUP2 SLOAD PUSH2 0x3F04 JUMP JUMPDEST SWAP1 SSTORE PUSH1 0x0 MSTORE PUSH1 0x10 PUSH1 0x20 MSTORE PUSH1 0x40 PUSH1 0x0 KECCAK256 DUP1 SLOAD SWAP1 PUSH1 0x1 PUSH1 0x40 SHL DUP3 LT ISZERO PUSH2 0x133E JUMPI DUP2 PUSH2 0x3319 SWAP2 PUSH1 0x1 PUSH2 0x17DF SWAP5 ADD DUP2 SSTORE PUSH2 0x3414 JUMP JUMPDEST SWAP2 SWAP1 SWAP2 TIMESTAMP SWAP1 DUP4 SLOAD SWAP1 PUSH1 0x3 SHL SWAP2 DUP3 SHL SWAP2 PUSH1 0x0 NOT SWAP1 SHL NOT AND OR SWAP1 JUMP JUMPDEST CALLVALUE PUSH2 0x258 JUMPI PUSH1 0x40 CALLDATASIZE PUSH1 0x3 NOT ADD SLT PUSH2 0x258 JUMPI PUSH2 0x334C PUSH2 0x337D JUMP JUMPDEST PUSH1 0x1 PUSH1 0x1 PUSH1 0xA0 SHL SUB AND PUSH1 0x0 SWAP1 DUP2 MSTORE PUSH1 0xD PUSH1 0x20 MSTORE PUSH1 0x40 SWAP1 KECCAK256 DUP1 SLOAD PUSH1 0x24 CALLDATALOAD SWAP2 SWAP1 DUP3 LT ISZERO PUSH2 0x258 JUMPI PUSH1 0x20 SWAP2 PUSH2 0x2F9 SWAP2 PUSH2 0x3414 JUMP JUMPDEST PUSH1 0x4 CALLDATALOAD SWAP1 PUSH1 0x1 PUSH1 0x1 PUSH1 0xA0 SHL SUB DUP3 AND DUP3 SUB PUSH2 0x258 JUMPI JUMP JUMPDEST SWAP1 PUSH1 0x0 SWAP2 DUP3 SLOAD DUP2 LT ISZERO PUSH2 0x33C9 JUMPI DUP3 DUP1 MSTORE PUSH32 0x290DECD9548B62A8D60345A988386FC84BA6BC95484008F6362F93160EF3E563 ADD SWAP2 SWAP1 JUMP JUMPDEST PUSH4 0x4E487B71 PUSH1 0xE0 SHL DUP4 MSTORE PUSH1 0x32 PUSH1 0x4 MSTORE PUSH1 0x24 DUP4 REVERT JUMPDEST PUSH1 0x1 SLOAD DUP2 LT ISZERO PUSH2 0x1328 JUMPI PUSH1 0x1 PUSH1 0x0 MSTORE PUSH32 0xB10E2D527612073B26EECDFD717E6A320CF44B4AFAC2B0732D9FCBE2B7FA0CF6 ADD SWAP1 PUSH1 0x0 SWAP1 JUMP JUMPDEST DUP1 SLOAD DUP3 LT ISZERO PUSH2 0x1328 JUMPI PUSH1 0x0 MSTORE PUSH1 0x20 PUSH1 0x0 KECCAK256 ADD SWAP1 PUSH1 0x0 SWAP1 JUMP JUMPDEST PUSH2 0x120 DUP2 ADD SWAP1 DUP2 LT PUSH1 0x1 PUSH1 0x1 PUSH1 0x40 SHL SUB DUP3 GT OR PUSH2 0x133E JUMPI PUSH1 0x40 MSTORE JUMP JUMPDEST PUSH1 0xA0 DUP2 ADD SWAP1 DUP2 LT PUSH1 0x1 PUSH1 0x1 PUSH1 0x40 SHL SUB DUP3 GT OR PUSH2 0x133E JUMPI PUSH1 0x40 MSTORE JUMP JUMPDEST PUSH1 0xC0 DUP2 ADD SWAP1 DUP2 LT PUSH1 0x1 PUSH1 0x1 PUSH1 0x40 SHL SUB DUP3 GT OR PUSH2 0x133E JUMPI PUSH1 0x40 MSTORE JUMP JUMPDEST PUSH2 0x140 DUP2 ADD SWAP1 DUP2 LT PUSH1 0x1 PUSH1 0x1 PUSH1 0x40 SHL SUB DUP3 GT OR PUSH2 0x133E JUMPI PUSH1 0x40 MSTORE JUMP JUMPDEST PUSH1 0x60 DUP2 ADD SWAP1 DUP2 LT PUSH1 0x1 PUSH1 0x1 PUSH1 0x40 SHL SUB DUP3 GT OR PUSH2 0x133E JUMPI PUSH1 0x40 MSTORE JUMP JUMPDEST SWAP1 PUSH1 0x1F DUP1 NOT SWAP2 ADD AND DUP2 ADD SWAP1 DUP2 LT PUSH1 0x1 PUSH1 0x1 PUSH1 0x40 SHL SUB DUP3 GT OR PUSH2 0x133E JUMPI PUSH1 0x40 MSTORE JUMP JUMPDEST PUSH1 0x1 PUSH1 0x1 PUSH1 0x40 SHL SUB DUP2 GT PUSH2 0x133E JUMPI PUSH1 0x1F ADD PUSH1 0x1F NOT AND PUSH1 0x20 ADD SWAP1 JUMP JUMPDEST DUP2 PUSH1 0x1F DUP3 ADD SLT ISZERO PUSH2 0x258 JUMPI DUP1 CALLDATALOAD SWAP1 PUSH2 0x3508 DUP3 PUSH2 0x34D6 JUMP JUMPDEST SWAP3 PUSH2 0x3516 PUSH1 0x40 MLOAD SWAP5 DUP6 PUSH2 0x34B5 JUMP JUMPDEST DUP3 DUP5 MSTORE PUSH1 0x20 DUP4 DUP4 ADD ADD GT PUSH2 0x258 JUMPI DUP2 PUSH1 0x0 SWAP3 PUSH1 0x20 DUP1 SWAP4 ADD DUP4 DUP7 ADD CALLDATACOPY DUP4 ADD ADD MSTORE SWAP1 JUMP JUMPDEST PUSH1 0x40 SWAP1 PUSH1 0x3 NOT ADD SLT PUSH2 0x258 JUMPI PUSH1 0x4 CALLDATALOAD SWAP1 PUSH1 0x24 CALLDATALOAD SWAP1 JUMP JUMPDEST PUSH1 0x0 JUMPDEST DUP4 DUP2 LT PUSH2 0x3561 JUMPI POP POP PUSH1 0x0 SWAP2 ADD MSTORE JUMP JUMPDEST DUP2 DUP2 ADD MLOAD DUP4 DUP3 ADD MSTORE PUSH1 0x20 ADD PUSH2 0x3551 JUMP JUMPDEST SWAP1 PUSH1 0x20 SWAP2 PUSH2 0x358A DUP2 MLOAD DUP1 SWAP3 DUP2 DUP6 MSTORE DUP6 DUP1 DUP7 ADD SWAP2 ADD PUSH2 0x354E JUMP JUMPDEST PUSH1 0x1F ADD PUSH1 0x1F NOT AND ADD ADD SWAP1 JUMP JUMPDEST SWAP1 PUSH2 0x35FE PUSH2 0x35EC PUSH2 0x35DA PUSH2 0x35C8 PUSH2 0x35B6 DUP7 MLOAD PUSH2 0x140 DUP1 DUP9 MSTORE DUP8 ADD SWAP1 PUSH2 0x3571 JUMP JUMPDEST PUSH1 0x20 DUP8 ADD MLOAD DUP7 DUP3 SUB PUSH1 0x20 DUP9 ADD MSTORE PUSH2 0x3571 JUMP JUMPDEST PUSH1 0x40 DUP7 ADD MLOAD DUP6 DUP3 SUB PUSH1 0x40 DUP8 ADD MSTORE PUSH2 0x3571 JUMP JUMPDEST PUSH1 0x60 DUP6 ADD MLOAD DUP5 DUP3 SUB PUSH1 0x60 DUP7 ADD MSTORE PUSH2 0x3571 JUMP JUMPDEST PUSH1 0x80 DUP5 ADD MLOAD DUP4 DUP3 SUB PUSH1 0x80 DUP6 ADD MSTORE PUSH2 0x3571 JUMP JUMPDEST SWAP2 PUSH1 0xA0 DUP2 ADD MLOAD PUSH1 0xA0 DUP4 ADD MSTORE PUSH1 0xC0 DUP2 ADD MLOAD PUSH1 0xC0 DUP4 ADD MSTORE PUSH1 0xE0 DUP2 ADD MLOAD PUSH1 0xE0 DUP4 ADD MSTORE PUSH2 0x100 DUP1 DUP3 ADD MLOAD SWAP1 DUP4 ADD MSTORE PUSH2 0x120 DUP1 SWAP2 ADD MLOAD SWAP2 ADD MSTORE SWAP1 JUMP JUMPDEST SWAP1 DUP2 MLOAD DUP2 MSTORE PUSH2 0x3653 PUSH1 0x20 DUP4 ADD MLOAD PUSH2 0x120 DUP1 PUSH1 0x20 DUP6 ADD MSTORE DUP4 ADD SWAP1 PUSH2 0x3596 JUMP JUMPDEST SWAP2 PUSH1 0x40 DUP2 ADD MLOAD PUSH1 0x40 DUP4 ADD MSTORE PUSH1 0x60 DUP2 ADD MLOAD PUSH1 0x60 DUP4 ADD MSTORE PUSH1 0x80 DUP2 ADD MLOAD PUSH1 0x80 DUP4 ADD MSTORE PUSH1 0xA0 DUP2 ADD MLOAD PUSH1 0xA0 DUP4 ADD MSTORE PUSH1 0xC0 DUP2 ADD MLOAD PUSH1 0xC0 DUP4 ADD MSTORE PUSH1 0xE0 DUP2 ADD MLOAD PUSH1 0xE0 DUP4 ADD MSTORE PUSH2 0x100 DUP1 SWAP2 ADD MLOAD ISZERO ISZERO SWAP2 ADD MSTORE SWAP1 JUMP JUMPDEST SWAP1 DUP1 DUP3 MLOAD SWAP1 DUP2 DUP2 MSTORE PUSH1 0x20 DUP1 SWAP2 ADD SWAP3 DUP2 DUP1 DUP5 PUSH1 0x5 SHL DUP4 ADD ADD SWAP6 ADD SWAP4 PUSH1 0x0 SWAP2 JUMPDEST DUP5 DUP4 LT PUSH2 0x36CD JUMPI POP POP POP POP POP POP SWAP1 JUMP JUMPDEST SWAP1 SWAP2 SWAP3 SWAP4 SWAP5 SWAP6 DUP5 DUP1 PUSH2 0x36EB PUSH1 0x1 SWAP4 PUSH1 0x1F NOT DUP7 DUP3 SUB ADD DUP8 MSTORE DUP11 MLOAD PUSH2 0x3635 JUMP JUMPDEST SWAP9 ADD SWAP4 ADD SWAP4 ADD SWAP2 SWAP5 SWAP4 SWAP3 SWAP1 PUSH2 0x36BD JUMP JUMPDEST PUSH1 0x1 PUSH1 0x1 PUSH1 0x40 SHL SUB DUP2 GT PUSH2 0x133E JUMPI PUSH1 0x5 SHL PUSH1 0x20 ADD SWAP1 JUMP JUMPDEST SWAP1 PUSH1 0x60 PUSH1 0x3 NOT DUP2 DUP2 DUP6 ADD SLT PUSH2 0x258 JUMPI PUSH1 0x4 SWAP4 DUP5 CALLDATALOAD SWAP5 PUSH1 0x1 PUSH1 0x1 PUSH1 0x40 SHL SUB DUP1 DUP8 GT PUSH2 0x258 JUMPI DUP3 PUSH1 0x23 DUP9 ADD SLT ISZERO PUSH2 0x258 JUMPI DUP7 DUP3 ADD CALLDATALOAD SWAP5 PUSH2 0x374F DUP7 PUSH2 0x36FB JUMP JUMPDEST PUSH1 0x40 SWAP9 PUSH2 0x375E DUP11 MLOAD SWAP3 DUP4 PUSH2 0x34B5 JUMP JUMPDEST DUP8 DUP3 MSTORE PUSH1 0x20 SWAP8 PUSH1 0x24 DUP5 DUP11 DUP6 ADD SWAP3 MUL DUP4 ADD ADD SWAP2 DUP8 DUP4 GT PUSH2 0x258 JUMPI PUSH1 0x24 ADD SWAP1 JUMPDEST DUP3 DUP3 LT PUSH2 0x38D1 JUMPI POP POP POP SWAP8 PUSH1 0x24 CALLDATALOAD SWAP6 DUP4 DUP8 GT PUSH2 0x258 JUMPI PUSH2 0x120 SWAP1 DUP8 DUP8 SUB ADD SLT PUSH2 0x258 JUMPI DUP1 MLOAD SWAP7 PUSH2 0x37AB DUP9 PUSH2 0x342C JUMP JUMPDEST DUP7 DUP6 ADD CALLDATALOAD DUP5 DUP2 GT PUSH2 0x258 JUMPI DUP7 DUP7 PUSH2 0x37C4 SWAP3 DUP11 ADD ADD PUSH2 0x34F1 JUMP JUMPDEST DUP9 MSTORE PUSH1 0x24 DUP8 ADD CALLDATALOAD DUP5 DUP2 GT PUSH2 0x258 JUMPI DUP7 DUP7 PUSH2 0x37E0 SWAP3 DUP11 ADD ADD PUSH2 0x34F1 JUMP JUMPDEST SWAP1 DUP9 ADD MSTORE PUSH1 0x44 DUP7 ADD CALLDATALOAD DUP4 DUP2 GT PUSH2 0x258 JUMPI DUP6 DUP6 PUSH2 0x37FE SWAP3 DUP10 ADD ADD PUSH2 0x34F1 JUMP JUMPDEST SWAP1 DUP8 ADD MSTORE PUSH1 0x64 DUP6 ADD CALLDATALOAD DUP3 DUP2 GT PUSH2 0x258 JUMPI DUP5 DUP5 PUSH2 0x381C SWAP3 DUP9 ADD ADD PUSH2 0x34F1 JUMP JUMPDEST SWAP1 DUP7 ADD MSTORE PUSH1 0x84 DUP5 ADD CALLDATALOAD DUP2 DUP2 GT PUSH2 0x258 JUMPI DUP4 DUP4 PUSH2 0x383A SWAP3 DUP8 ADD ADD PUSH2 0x34F1 JUMP JUMPDEST PUSH1 0x80 DUP7 ADD MSTORE PUSH1 0xA4 DUP5 ADD CALLDATALOAD DUP2 DUP2 GT PUSH2 0x258 JUMPI DUP4 DUP4 PUSH2 0x3859 SWAP3 DUP8 ADD ADD PUSH2 0x34F1 JUMP JUMPDEST PUSH1 0xA0 DUP7 ADD MSTORE PUSH1 0xC4 DUP5 ADD CALLDATALOAD DUP2 DUP2 GT PUSH2 0x258 JUMPI DUP4 DUP4 PUSH2 0x3878 SWAP3 DUP8 ADD ADD PUSH2 0x34F1 JUMP JUMPDEST PUSH1 0xC0 DUP7 ADD MSTORE PUSH1 0xE4 DUP5 ADD CALLDATALOAD DUP2 DUP2 GT PUSH2 0x258 JUMPI DUP4 DUP4 PUSH2 0x3897 SWAP3 DUP8 ADD ADD PUSH2 0x34F1 JUMP JUMPDEST PUSH1 0xE0 DUP7 ADD MSTORE PUSH2 0x104 DUP5 ADD CALLDATALOAD SWAP1 DUP2 GT PUSH2 0x258 JUMPI PUSH2 0x38B4 SWAP4 ADD ADD PUSH2 0x34F1 JUMP JUMPDEST PUSH2 0x100 DUP3 ADD MSTORE SWAP1 PUSH1 0x44 CALLDATALOAD PUSH1 0x1 PUSH1 0x1 PUSH1 0xA0 SHL SUB DUP2 AND DUP2 SUB PUSH2 0x258 JUMPI SWAP1 JUMP JUMPDEST DUP5 DUP3 DUP10 SUB SLT PUSH2 0x258 JUMPI DUP12 MLOAD SWAP1 PUSH2 0x38E6 DUP3 PUSH2 0x349A JUMP JUMPDEST DUP3 CALLDATALOAD DUP3 MSTORE DUP11 DUP4 ADD CALLDATALOAD DUP12 DUP4 ADD MSTORE DUP13 DUP4 ADD CALLDATALOAD SWAP1 DUP9 DUP3 LT ISZERO PUSH2 0x258 JUMPI DUP3 DUP13 SWAP3 DUP16 DUP10 SWAP6 ADD MSTORE DUP2 MSTORE ADD SWAP2 ADD SWAP1 PUSH2 0x377C JUMP JUMPDEST SWAP1 PUSH1 0x1 DUP3 DUP2 SHR SWAP3 AND DUP1 ISZERO PUSH2 0x3942 JUMPI JUMPDEST PUSH1 0x20 DUP4 LT EQ PUSH2 0x392C JUMPI JUMP JUMPDEST PUSH4 0x4E487B71 PUSH1 0xE0 SHL PUSH1 0x0 MSTORE PUSH1 0x22 PUSH1 0x4 MSTORE PUSH1 0x24 PUSH1 0x0 REVERT JUMPDEST SWAP2 PUSH1 0x7F AND SWAP2 PUSH2 0x3921 JUMP JUMPDEST SWAP1 PUSH1 0x0 SWAP3 SWAP2 DUP1 SLOAD SWAP2 PUSH2 0x395D DUP4 PUSH2 0x3912 JUMP JUMPDEST SWAP2 DUP3 DUP3 MSTORE PUSH1 0x1 SWAP4 DUP5 DUP2 AND SWAP1 DUP2 PUSH1 0x0 EQ PUSH2 0x39BF JUMPI POP PUSH1 0x1 EQ PUSH2 0x397F JUMPI JUMPDEST POP POP POP POP JUMP JUMPDEST SWAP1 SWAP2 SWAP4 SWAP5 POP PUSH1 0x0 MSTORE PUSH1 0x20 SWAP3 DUP4 PUSH1 0x0 KECCAK256 SWAP3 DUP5 PUSH1 0x0 SWAP5 JUMPDEST DUP4 DUP7 LT PUSH2 0x39AB JUMPI POP POP POP POP ADD ADD SWAP1 CODESIZE DUP1 DUP1 DUP1 PUSH2 0x3979 JUMP JUMPDEST DUP1 SLOAD DUP6 DUP8 ADD DUP4 ADD MSTORE SWAP5 ADD SWAP4 DUP6 SWAP1 DUP3 ADD PUSH2 0x3994 JUMP JUMPDEST SWAP3 SWAP5 POP POP POP PUSH1 0x20 SWAP4 SWAP5 POP PUSH1 0xFF NOT AND DUP4 DUP4 ADD MSTORE ISZERO ISZERO PUSH1 0x5 SHL ADD ADD SWAP1 CODESIZE DUP1 DUP1 DUP1 PUSH2 0x3979 JUMP JUMPDEST SWAP1 PUSH1 0x40 SWAP2 PUSH2 0x120 PUSH1 0x9 DUP5 MLOAD SWAP3 PUSH2 0x39F7 DUP5 PUSH2 0x347E JUMP JUMPDEST DUP4 SWAP6 DUP1 MLOAD PUSH2 0x3A09 DUP2 PUSH2 0xCC8 DUP2 DUP7 PUSH2 0x394C JUMP JUMPDEST DUP6 MSTORE DUP1 MLOAD PUSH2 0x3A1E DUP2 PUSH2 0xCC8 DUP2 PUSH1 0x1 DUP8 ADD PUSH2 0x394C JUMP JUMPDEST PUSH1 0x20 DUP7 ADD MSTORE DUP1 MLOAD PUSH2 0x3A36 DUP2 PUSH2 0xCC8 DUP2 PUSH1 0x2 DUP8 ADD PUSH2 0x394C JUMP JUMPDEST DUP2 DUP7 ADD MSTORE DUP1 MLOAD PUSH2 0x3A4D DUP2 PUSH2 0xCC8 DUP2 PUSH1 0x3 DUP8 ADD PUSH2 0x394C JUMP JUMPDEST PUSH1 0x60 DUP7 ADD MSTORE MLOAD PUSH2 0x3A64 DUP2 PUSH2 0xCC8 DUP2 PUSH1 0x4 DUP7 ADD PUSH2 0x394C JUMP JUMPDEST PUSH1 0x80 DUP6 ADD MSTORE PUSH1 0x5 DUP2 ADD SLOAD PUSH1 0xA0 DUP6 ADD MSTORE PUSH1 0x6 DUP2 ADD SLOAD PUSH1 0xC0 DUP6 ADD MSTORE PUSH1 0x7 DUP2 ADD SLOAD PUSH1 0xE0 DUP6 ADD MSTORE PUSH1 0x8 DUP2 ADD SLOAD PUSH2 0x100 DUP6 ADD MSTORE ADD SLOAD SWAP2 ADD MSTORE JUMP JUMPDEST SWAP1 PUSH1 0x4 DUP3 LT ISZERO PUSH2 0x920 JUMPI MSTORE JUMP JUMPDEST SWAP1 PUSH2 0x3B65 SWAP2 PUSH2 0x3B51 PUSH2 0x3B3F PUSH2 0x3B2D PUSH2 0x3B1B PUSH2 0x3B09 PUSH2 0x3AF7 PUSH2 0x3AE5 PUSH2 0x3AD3 DUP9 MLOAD PUSH2 0x120 DUP1 DUP13 MSTORE DUP12 ADD SWAP1 PUSH2 0x3571 JUMP JUMPDEST PUSH1 0x20 DUP10 ADD MLOAD DUP11 DUP3 SUB PUSH1 0x20 DUP13 ADD MSTORE PUSH2 0x3571 JUMP JUMPDEST PUSH1 0x40 DUP9 ADD MLOAD DUP10 DUP3 SUB PUSH1 0x40 DUP12 ADD MSTORE PUSH2 0x3571 JUMP JUMPDEST PUSH1 0x60 DUP8 ADD MLOAD DUP9 DUP3 SUB PUSH1 0x60 DUP11 ADD MSTORE PUSH2 0x3571 JUMP JUMPDEST PUSH1 0x80 DUP7 ADD MLOAD DUP8 DUP3 SUB PUSH1 0x80 DUP10 ADD MSTORE PUSH2 0x3571 JUMP JUMPDEST PUSH1 0xA0 DUP6 ADD MLOAD DUP7 DUP3 SUB PUSH1 0xA0 DUP9 ADD MSTORE PUSH2 0x3571 JUMP JUMPDEST PUSH1 0xC0 DUP5 ADD MLOAD DUP6 DUP3 SUB PUSH1 0xC0 DUP8 ADD MSTORE PUSH2 0x3571 JUMP JUMPDEST PUSH1 0xE0 DUP4 ADD MLOAD DUP5 DUP3 SUB PUSH1 0xE0 DUP7 ADD MSTORE PUSH2 0x3571 JUMP JUMPDEST SWAP2 PUSH2 0x100 DUP1 SWAP3 ADD MLOAD SWAP2 DUP2 DUP5 SUB SWAP2 ADD MSTORE PUSH2 0x3571 JUMP JUMPDEST SWAP1 JUMP JUMPDEST SWAP1 PUSH1 0xC0 DUP2 ADD DUP3 MLOAD DUP3 MSTORE PUSH1 0x20 SWAP1 PUSH1 0x1 DUP1 PUSH1 0xA0 SHL SUB DUP3 DUP6 ADD MLOAD AND DUP3 DUP5 ADD MSTORE PUSH1 0x40 SWAP1 DUP2 DUP6 ADD MLOAD SWAP3 PUSH1 0xC0 DUP4 DUP7 ADD MSTORE DUP4 MLOAD DUP1 SWAP3 MSTORE PUSH1 0xE0 DUP6 ADD SWAP3 DUP2 PUSH1 0xE0 DUP5 PUSH1 0x5 SHL DUP9 ADD ADD SWAP6 ADD SWAP4 PUSH1 0x0 SWAP2 JUMPDEST DUP5 DUP4 LT PUSH2 0x3BE6 JUMPI POP POP POP POP POP POP PUSH1 0xA0 PUSH2 0x3BDD DUP2 SWAP3 PUSH1 0x60 DUP7 ADD MLOAD PUSH1 0x60 DUP7 ADD MSTORE PUSH1 0x80 DUP7 ADD MLOAD DUP6 DUP3 SUB PUSH1 0x80 DUP8 ADD MSTORE PUSH2 0x3AA6 JUMP JUMPDEST SWAP4 ADD MLOAD SWAP2 ADD MSTORE SWAP1 JUMP JUMPDEST SWAP1 SWAP2 SWAP3 SWAP4 SWAP5 SWAP6 DUP5 DUP1 PUSH2 0x3C47 PUSH1 0x1 SWAP4 PUSH1 0xDF NOT DUP13 DUP3 SUB ADD DUP8 MSTORE DUP11 MLOAD DUP1 MLOAD DUP3 MSTORE DUP4 DUP2 ADD MLOAD DUP5 DUP4 ADD MSTORE PUSH2 0x3C1B DUP8 DUP3 ADD MLOAD DUP9 DUP5 ADD SWAP1 PUSH2 0x3A99 JUMP JUMPDEST PUSH2 0x3C34 PUSH1 0x60 DUP1 DUP4 ADD MLOAD SWAP1 PUSH1 0xA0 DUP1 SWAP2 DUP7 ADD MSTORE DUP5 ADD SWAP1 PUSH2 0x3571 JUMP JUMPDEST SWAP2 PUSH1 0x80 DUP1 SWAP3 ADD MLOAD SWAP2 DUP2 DUP5 SUB SWAP2 ADD MSTORE PUSH2 0x3571 JUMP JUMPDEST SWAP9 ADD SWAP4 ADD SWAP4 ADD SWAP2 SWAP5 SWAP4 SWAP3 SWAP1 PUSH2 0x3BAD JUMP JUMPDEST SWAP1 DUP2 MLOAD DUP1 DUP3 MSTORE PUSH1 0x20 DUP1 SWAP3 ADD SWAP2 DUP3 DUP2 DUP4 PUSH1 0x5 SHL DUP3 ADD SWAP6 ADD SWAP4 PUSH1 0x0 SWAP2 JUMPDEST DUP5 DUP4 LT PUSH2 0x3C82 JUMPI POP POP POP POP POP POP SWAP1 JUMP JUMPDEST SWAP1 SWAP2 SWAP3 SWAP4 SWAP5 SWAP6 DUP5 DUP1 PUSH2 0x3C9C DUP4 DUP6 PUSH1 0x1 SWAP6 SUB DUP8 MSTORE DUP11 MLOAD PUSH2 0x3B68 JUMP JUMPDEST SWAP9 ADD SWAP4 ADD SWAP4 ADD SWAP2 SWAP5 SWAP4 SWAP3 SWAP1 PUSH2 0x3C72 JUMP JUMPDEST ISZERO PUSH2 0x3CB3 JUMPI JUMP JUMPDEST PUSH1 0x40 MLOAD PUSH3 0x461BCD PUSH1 0xE5 SHL DUP2 MSTORE PUSH1 0x20 PUSH1 0x4 DUP3 ADD MSTORE PUSH1 0x48 PUSH1 0x24 DUP3 ADD MSTORE PUSH32 0x7B2266726F6D223A2022466943616D2E736F6C222C2022636F6465223A20312C PUSH1 0x44 DUP3 ADD MSTORE PUSH32 0x20226D657373616765223A2022496E76616C69642063616C6C65722D4F6E6C79 PUSH1 0x64 DUP3 ADD MSTORE PUSH8 0x204F776E6572227D PUSH1 0xC0 SHL PUSH1 0x84 DUP3 ADD MSTORE PUSH1 0xA4 SWAP1 REVERT JUMPDEST PUSH1 0x6 SLOAD PUSH1 0x1 PUSH1 0x40 SHL DUP2 LT ISZERO PUSH2 0x133E JUMPI PUSH1 0x1 DUP2 ADD DUP1 PUSH1 0x6 SSTORE DUP2 LT ISZERO PUSH2 0x1328 JUMPI PUSH1 0x6 PUSH1 0x0 MSTORE PUSH32 0xF652222313E28459528D920B65115C16C04F3EFC82AAEDC97BE59F3F377C0D3F ADD DUP1 SLOAD PUSH1 0x1 PUSH1 0x1 PUSH1 0xA0 SHL SUB NOT AND PUSH1 0x1 PUSH1 0x1 PUSH1 0xA0 SHL SUB SWAP1 SWAP3 AND SWAP2 SWAP1 SWAP2 OR SWAP1 SSTORE JUMP JUMPDEST ISZERO PUSH2 0x3D9A JUMPI JUMP JUMPDEST PUSH1 0x40 MLOAD PUSH3 0x461BCD PUSH1 0xE5 SHL DUP2 MSTORE PUSH1 0x20 PUSH1 0x4 DUP3 ADD MSTORE PUSH1 0x48 PUSH1 0x24 DUP3 ADD MSTORE PUSH32 0x7B2266726F6D223A2022466943616D2E736F6C222C2022636F6465223A20322C PUSH1 0x44 DUP3 ADD MSTORE PUSH32 0x20226D657373616765223A2022496E76616C69642063616C6C65722D4F6E6C79 PUSH1 0x64 DUP3 ADD MSTORE PUSH8 0x2041646D696E227D PUSH1 0xC0 SHL PUSH1 0x84 DUP3 ADD MSTORE PUSH1 0xA4 SWAP1 REVERT JUMPDEST DUP2 DUP2 LT PUSH2 0x3E21 JUMPI POP POP JUMP JUMPDEST PUSH1 0x0 DUP2 SSTORE PUSH1 0x1 ADD PUSH2 0x3E16 JUMP JUMPDEST SWAP2 SWAP1 PUSH1 0x1F DUP2 GT PUSH2 0x3E3C JUMPI POP POP POP JUMP JUMPDEST PUSH2 0x3E68 SWAP3 PUSH1 0x0 MSTORE PUSH1 0x20 PUSH1 0x0 KECCAK256 SWAP1 PUSH1 0x20 PUSH1 0x1F DUP5 ADD PUSH1 0x5 SHR DUP4 ADD SWAP4 LT PUSH2 0x3E6A JUMPI JUMPDEST PUSH1 0x1F ADD PUSH1 0x5 SHR ADD SWAP1 PUSH2 0x3E16 JUMP JUMPDEST JUMP JUMPDEST SWAP1 SWAP2 POP DUP2 SWAP1 PUSH2 0x3E5B JUMP JUMPDEST PUSH1 0x15 SLOAD PUSH1 0x1 PUSH1 0x40 SHL DUP2 LT ISZERO PUSH2 0x133E JUMPI PUSH1 0x1 DUP2 ADD DUP1 PUSH1 0x15 SSTORE DUP2 LT ISZERO PUSH2 0x1328 JUMPI PUSH1 0x15 PUSH1 0x0 MSTORE PUSH32 0x55F448FDEA98C4D29EB340757EF0A66CD03DBB9538908A6A81D96026B71EC475 ADD SSTORE JUMP JUMPDEST PUSH1 0x1 SLOAD PUSH1 0x1 PUSH1 0x40 SHL DUP2 LT ISZERO PUSH2 0x133E JUMPI PUSH2 0x17C8 DUP2 PUSH1 0x1 PUSH2 0x3EDE SWAP4 ADD PUSH1 0x1 SSTORE PUSH2 0x33DD JUMP JUMPDEST SWAP1 SSTORE JUMP JUMPDEST DUP1 SLOAD SWAP1 PUSH1 0x1 PUSH1 0x40 SHL DUP3 LT ISZERO PUSH2 0x133E JUMPI DUP2 PUSH2 0x17C8 SWAP2 PUSH1 0x1 PUSH2 0x3EDE SWAP5 ADD DUP2 SSTORE PUSH2 0x3414 JUMP JUMPDEST PUSH1 0x0 NOT DUP2 EQ PUSH2 0x2B7A JUMPI PUSH1 0x1 ADD SWAP1 JUMP JUMPDEST DUP1 PUSH1 0x0 MSTORE PUSH1 0xB PUSH1 0x20 MSTORE PUSH1 0x11 PUSH1 0x40 PUSH1 0x0 KECCAK256 ADD PUSH1 0x1 SWAP1 DUP2 PUSH1 0xFF NOT DUP3 SLOAD AND OR SWAP1 SSTORE PUSH1 0x0 SWAP2 DUP2 SLOAD SWAP3 JUMPDEST DUP4 DUP2 LT PUSH2 0x3F4B JUMPI POP PUSH2 0x3B65 SWAP2 SWAP3 POP PUSH2 0x3EBC JUMP JUMPDEST DUP2 PUSH2 0x3F55 DUP3 PUSH2 0x33DD JUMP JUMPDEST SWAP1 SLOAD SWAP1 PUSH1 0x3 SHL SHR EQ PUSH2 0x3F6F JUMPI PUSH2 0x3F6A SWAP1 PUSH2 0x3F04 JUMP JUMPDEST PUSH2 0x3F38 JUMP JUMPDEST POP POP SWAP1 POP SWAP1 JUMP JUMPDEST SWAP2 SWAP1 DUP3 SUB SWAP2 DUP3 GT PUSH2 0x2B7A JUMPI JUMP JUMPDEST PUSH1 0x0 DUP2 DUP2 MSTORE PUSH1 0xB PUSH1 0x20 MSTORE PUSH1 0x11 SWAP2 DUP3 PUSH1 0x40 DUP4 KECCAK256 ADD PUSH1 0xFF NOT DUP2 SLOAD AND SWAP1 SSTORE DUP2 JUMPDEST PUSH1 0x1 DUP1 SLOAD DUP1 DUP4 LT ISZERO PUSH2 0x4066 JUMPI DUP4 SWAP1 PUSH2 0x3FB7 DUP5 PUSH2 0x33DD JUMP JUMPDEST SWAP3 SWAP1 SLOAD PUSH1 0x3 SWAP4 DUP5 SHL SHR EQ PUSH2 0x3FD6 JUMPI POP POP POP PUSH2 0x3FD1 SWAP1 PUSH2 0x3F04 JUMP JUMPDEST PUSH2 0x3FA0 JUMP JUMPDEST SWAP1 SWAP5 SWAP3 SWAP2 SWAP6 SWAP4 POP PUSH1 0x0 NOT SWAP4 DUP5 DUP3 ADD SWAP2 DUP3 GT PUSH2 0x4054 JUMPI POP DUP1 DUP3 LT PUSH2 0x4030 JUMPI JUMPDEST POP POP DUP4 SLOAD SWAP1 DUP2 ISZERO PUSH2 0x401C JUMPI POP DUP2 ADD SWAP2 PUSH2 0x400C DUP4 PUSH2 0x33DD JUMP JUMPDEST DUP2 SWAP4 SWAP2 SLOAD SWAP3 SHL SHL NOT AND SWAP1 SSTORE DUP2 SSTORE SWAP1 JUMP JUMPDEST PUSH4 0x4E487B71 PUSH1 0xE0 SHL DUP2 MSTORE PUSH1 0x31 PUSH1 0x4 MSTORE PUSH1 0x24 SWAP1 REVERT JUMPDEST PUSH2 0x17C8 PUSH2 0x403F PUSH2 0x404B SWAP3 PUSH2 0x33DD JUMP JUMPDEST SWAP1 SLOAD SWAP1 DUP8 SHL SHR SWAP3 PUSH2 0x33DD JUMP JUMPDEST SWAP1 SSTORE CODESIZE DUP1 PUSH2 0x3FF4 JUMP JUMPDEST PUSH4 0x4E487B71 PUSH1 0xE0 SHL DUP5 MSTORE PUSH1 0x4 MSTORE PUSH1 0x24 DUP4 REVERT JUMPDEST POP POP POP POP POP POP PUSH1 0x1 SWAP1 JUMP JUMPDEST PUSH1 0x40 MLOAD SWAP1 PUSH2 0x407E DUP3 PUSH2 0x342C JUMP JUMPDEST PUSH1 0x0 DUP1 DUP4 MSTORE PUSH1 0x40 MLOAD DUP4 PUSH2 0x4090 DUP3 PUSH2 0x347E JUMP JUMPDEST DUP3 PUSH1 0x60 DUP1 DUP5 MSTORE DUP1 PUSH1 0x20 DUP6 ADD MSTORE DUP1 PUSH1 0x40 DUP6 ADD MSTORE DUP1 DUP1 DUP6 ADD MSTORE DUP1 PUSH1 0x80 DUP6 ADD MSTORE DUP2 PUSH1 0xA0 DUP6 ADD MSTORE DUP2 PUSH1 0xC0 DUP6 ADD MSTORE DUP2 PUSH1 0xE0 DUP6 ADD MSTORE PUSH2 0x100 SWAP4 DUP3 DUP6 DUP3 ADD MSTORE DUP3 PUSH2 0x120 DUP3 ADD MSTORE PUSH1 0x20 DUP5 ADD MSTORE DUP2 PUSH1 0x40 DUP5 ADD MSTORE DUP3 ADD MSTORE DUP3 PUSH1 0x80 DUP3 ADD MSTORE DUP3 PUSH1 0xA0 DUP3 ADD MSTORE DUP3 PUSH1 0xC0 DUP3 ADD MSTORE DUP3 PUSH1 0xE0 DUP3 ADD MSTORE ADD MSTORE JUMP JUMPDEST SWAP1 PUSH2 0x4103 DUP3 PUSH2 0x36FB JUMP JUMPDEST PUSH2 0x4110 PUSH1 0x40 MLOAD SWAP2 DUP3 PUSH2 0x34B5 JUMP JUMPDEST DUP3 DUP2 MSTORE DUP1 SWAP3 PUSH2 0x4121 PUSH1 0x1F NOT SWAP2 PUSH2 0x36FB JUMP JUMPDEST ADD SWAP1 PUSH1 0x0 JUMPDEST DUP3 DUP2 LT PUSH2 0x4132 JUMPI POP POP POP JUMP JUMPDEST PUSH1 0x20 SWAP1 PUSH2 0x413D PUSH2 0x4071 JUMP JUMPDEST DUP3 DUP3 DUP6 ADD ADD MSTORE ADD PUSH2 0x4126 JUMP JUMPDEST DUP1 MLOAD DUP3 LT ISZERO PUSH2 0x1328 JUMPI PUSH1 0x20 SWAP2 PUSH1 0x5 SHL ADD ADD SWAP1 JUMP JUMPDEST SWAP1 PUSH2 0x4167 DUP3 PUSH2 0x36FB JUMP JUMPDEST PUSH1 0x40 SWAP1 PUSH2 0x4176 DUP3 MLOAD SWAP2 DUP3 PUSH2 0x34B5 JUMP JUMPDEST DUP4 DUP2 MSTORE DUP1 SWAP4 PUSH2 0x4187 PUSH1 0x1F NOT SWAP2 PUSH2 0x36FB JUMP JUMPDEST ADD SWAP2 PUSH1 0x0 SWAP2 DUP3 JUMPDEST DUP5 DUP2 LT PUSH2 0x419C JUMPI POP POP POP POP POP JUMP JUMPDEST PUSH1 0x20 SWAP1 DUP4 MLOAD PUSH2 0x41AA DUP2 PUSH2 0x3448 JUMP JUMPDEST DUP6 DUP2 MSTORE DUP3 DUP7 DUP2 DUP4 ADD MSTORE DUP7 DUP7 DUP4 ADD MSTORE PUSH1 0x60 DUP1 DUP1 DUP5 ADD MSTORE PUSH1 0x80 DUP4 ADD MSTORE DUP3 DUP6 ADD ADD MSTORE ADD PUSH2 0x418E JUMP JUMPDEST ISZERO PUSH2 0x41D6 JUMPI JUMP JUMPDEST PUSH1 0x40 MLOAD PUSH3 0x461BCD PUSH1 0xE5 SHL DUP2 MSTORE PUSH1 0x20 PUSH1 0x4 DUP3 ADD MSTORE PUSH1 0x5B PUSH1 0x24 DUP3 ADD MSTORE PUSH32 0x7B2266726F6D223A2022466943616D2E736F6C222C2022636F6465223A20342C PUSH1 0x44 DUP3 ADD MSTORE PUSH32 0x20226D657373616765223A2022496E76616C69642070726F6475637420494420 PUSH1 0x64 DUP3 ADD MSTORE PUSH32 0x6F722070726F6475637420646F6573206E6F74206578697374227D0000000000 PUSH1 0x84 DUP3 ADD MSTORE PUSH1 0xA4 SWAP1 REVERT JUMPDEST MLOAD PUSH1 0x4 DUP2 LT ISZERO PUSH2 0x920 JUMPI SWAP1 JUMP JUMPDEST ISZERO PUSH2 0x427B JUMPI JUMP JUMPDEST PUSH1 0x40 MLOAD PUSH3 0x461BCD PUSH1 0xE5 SHL DUP2 MSTORE PUSH1 0x20 PUSH1 0x4 DUP3 ADD MSTORE PUSH1 0x19 PUSH1 0x24 DUP3 ADD MSTORE PUSH32 0x496E76616C696420737562736372697074696F6E207479706500000000000000 PUSH1 0x44 DUP3 ADD MSTORE PUSH1 0x64 SWAP1 REVERT JUMPDEST ISZERO PUSH2 0x42C7 JUMPI JUMP JUMPDEST PUSH1 0x40 MLOAD PUSH3 0x461BCD PUSH1 0xE5 SHL DUP2 MSTORE PUSH1 0x20 PUSH1 0x4 DUP3 ADD MSTORE PUSH1 0x1D PUSH1 0x24 DUP3 ADD MSTORE PUSH32 0x70726F647563742073746F72616765206973206E6F7420656E6F756768000000 PUSH1 0x44 DUP3 ADD MSTORE PUSH1 0x64 SWAP1 REVERT JUMPDEST SWAP2 SWAP1 DUP3 ADD DUP1 SWAP3 GT PUSH2 0x2B7A JUMPI JUMP JUMPDEST DUP2 DUP2 MUL SWAP3 SWAP2 DUP2 ISZERO SWAP2 DUP5 DIV EQ OR ISZERO PUSH2 0x2B7A JUMPI JUMP JUMPDEST PUSH1 0x4 DUP3 LT ISZERO PUSH2 0x920 JUMPI MSTORE JUMP JUMPDEST SWAP2 SWAP1 SWAP2 PUSH2 0x120 DUP2 ADD SWAP3 PUSH1 0x1 DUP1 PUSH1 0xA0 SHL SUB DUP1 DUP3 MLOAD AND DUP4 MSTORE PUSH1 0x20 DUP3 ADD MLOAD PUSH1 0x20 DUP5 ADD MSTORE PUSH1 0x40 DUP3 ADD MLOAD PUSH1 0x40 DUP5 ADD MSTORE PUSH2 0x4374 PUSH1 0x60 DUP4 ADD MLOAD PUSH1 0x60 DUP6 ADD SWAP1 PUSH2 0x3A99 JUMP JUMPDEST PUSH1 0x80 DUP3 ADD MLOAD PUSH1 0x80 DUP5 ADD MSTORE PUSH1 0xA0 DUP3 ADD MLOAD PUSH1 0xA0 DUP5 ADD MSTORE DUP1 PUSH1 0xC0 DUP4 ADD MLOAD AND PUSH1 0xC0 DUP5 ADD MSTORE PUSH1 0xE0 DUP3 ADD MLOAD AND PUSH1 0xE0 DUP4 ADD MSTORE PUSH2 0x100 DUP1 SWAP2 ADD MLOAD SWAP2 ADD MSTORE JUMP JUMPDEST SWAP1 DUP2 PUSH1 0x20 SWAP2 SUB SLT PUSH2 0x258 JUMPI MLOAD DUP1 ISZERO ISZERO DUP2 SUB PUSH2 0x258 JUMPI SWAP1 JUMP JUMPDEST PUSH2 0x43CD DUP2 SLOAD PUSH2 0x3912 JUMP JUMPDEST SWAP1 DUP2 PUSH2 0x43D7 JUMPI POP POP JUMP JUMPDEST DUP2 PUSH1 0x1F PUSH1 0x0 SWAP4 GT PUSH1 0x1 EQ PUSH2 0x43E9 JUMPI POP SSTORE JUMP JUMPDEST SWAP1 DUP1 DUP4 SWAP2 DUP3 MSTORE PUSH2 0x4408 PUSH1 0x1F PUSH1 0x20 DUP5 KECCAK256 SWAP5 ADD PUSH1 0x5 SHR DUP5 ADD PUSH1 0x1 DUP6 ADD PUSH2 0x3E16 JUMP JUMPDEST SSTORE SSTORE JUMP JUMPDEST SWAP1 PUSH1 0x4 DUP2 LT ISZERO PUSH2 0x920 JUMPI PUSH1 0xFF DUP1 NOT DUP4 SLOAD AND SWAP2 AND OR SWAP1 SSTORE JUMP JUMPDEST SWAP4 SWAP3 SWAP2 PUSH2 0x444D SWAP1 PUSH2 0x443F PUSH1 0x40 SWAP4 PUSH1 0x60 DUP9 MSTORE PUSH1 0x60 DUP9 ADD SWAP1 PUSH2 0x3571 JUMP JUMPDEST SWAP1 DUP7 DUP3 SUB PUSH1 0x20 DUP9 ADD MSTORE PUSH2 0x3B68 JUMP JUMPDEST SWAP4 ADD MSTORE JUMP JUMPDEST SWAP3 SWAP1 SWAP2 PUSH1 0x0 SWAP3 PUSH1 0x0 SWAP5 DUP1 MLOAD DUP7 MSTORE PUSH1 0x20 SWAP6 PUSH1 0xB DUP8 MSTORE PUSH1 0x40 SWAP2 DUP3 DUP3 KECCAK256 SWAP5 DUP3 SWAP4 DUP1 DUP4 ADD SWAP3 DUP4 MLOAD SWAP11 PUSH1 0x4 SWAP12 DUP13 DUP2 LT ISZERO PUSH2 0x468F JUMPI PUSH1 0x1 EQ PUSH2 0x46C6 JUMPI JUMPDEST DUP5 MLOAD DUP13 DUP2 LT ISZERO PUSH2 0x468F JUMPI PUSH1 0x2 EQ PUSH2 0x46A2 JUMPI JUMPDEST DUP5 MLOAD DUP13 DUP2 LT ISZERO PUSH2 0x468F JUMPI PUSH1 0x3 EQ PUSH2 0x4656 JUMPI JUMPDEST DUP1 DUP3 ADD SWAP9 DUP10 MLOAD PUSH2 0x44C2 PUSH1 0xB DUP4 ADD SWAP2 DUP3 SLOAD PUSH2 0x3F76 JUMP JUMPDEST SWAP1 SSTORE PUSH2 0x44D5 PUSH1 0xD DUP12 MLOAD SWAP3 ADD SWAP2 DUP3 SLOAD PUSH2 0x430C JUMP JUMPDEST SWAP1 SSTORE PUSH1 0x1 PUSH1 0x1 PUSH1 0xA0 SHL SUB DUP5 AND DUP1 DUP8 MSTORE PUSH1 0x11 DUP3 MSTORE DUP4 DUP8 KECCAK256 DUP10 DUP9 MSTORE DUP3 MSTORE DUP4 DUP8 KECCAK256 DUP4 MLOAD DUP9 MSTORE DUP3 MSTORE DUP4 DUP8 KECCAK256 TIMESTAMP SWAP1 SSTORE DUP6 MLOAD SWAP1 SWAP10 SWAP1 DUP14 DUP2 LT ISZERO PUSH2 0x4642 JUMPI PUSH2 0x4518 PUSH2 0x451E SWAP2 PUSH2 0x46EA JUMP JUMPDEST TIMESTAMP PUSH2 0x612F JUMP JUMPDEST DUP11 DUP9 MSTORE PUSH1 0x12 DUP4 MSTORE DUP5 DUP9 KECCAK256 DUP11 DUP10 MSTORE DUP4 MSTORE DUP5 DUP9 KECCAK256 DUP5 MLOAD DUP10 MSTORE DUP4 MSTORE DUP5 DUP9 KECCAK256 SSTORE DUP10 DUP8 MSTORE PUSH1 0x13 DUP3 MSTORE DUP4 DUP8 KECCAK256 DUP10 DUP9 MSTORE DUP3 MSTORE DUP4 DUP8 KECCAK256 DUP4 MLOAD DUP9 MSTORE DUP3 MSTORE DUP8 DUP5 DUP9 KECCAK256 SSTORE DUP10 DUP8 MSTORE PUSH1 0x14 DUP3 MSTORE DUP4 DUP8 KECCAK256 DUP10 DUP9 MSTORE DUP3 MSTORE DUP4 DUP8 KECCAK256 DUP4 MLOAD DUP9 MSTORE DUP3 MSTORE DUP4 DUP8 KECCAK256 SWAP1 DUP4 MLOAD DUP3 SSTORE MLOAD PUSH1 0x1 DUP3 ADD SSTORE DUP6 MLOAD SWAP1 DUP14 DUP3 LT ISZERO PUSH2 0x4642 JUMPI SWAP1 PUSH1 0x2 PUSH2 0x4595 SWAP3 ADD PUSH2 0x440C JUMP JUMPDEST DUP2 MLOAD SWAP9 DUP7 MSTORE PUSH1 0x12 DUP2 MSTORE DUP3 DUP7 KECCAK256 DUP9 DUP8 MSTORE DUP2 MSTORE DUP3 DUP7 KECCAK256 SWAP2 MLOAD DUP7 MSTORE MSTORE DUP1 DUP5 KECCAK256 SLOAD SWAP3 MLOAD SWAP4 DUP11 DUP6 LT ISZERO PUSH2 0x462F JUMPI POP MLOAD PUSH1 0x1 PUSH1 0x1 PUSH1 0xA0 SHL SUB SWAP2 SWAP1 SWAP2 AND DUP2 MSTORE PUSH1 0x20 DUP2 ADD SWAP5 SWAP1 SWAP5 MSTORE PUSH1 0x40 DUP5 ADD SWAP5 SWAP1 SWAP5 MSTORE TIMESTAMP PUSH1 0x60 DUP5 ADD MSTORE PUSH1 0x80 DUP4 ADD SWAP4 SWAP1 SWAP4 MSTORE PUSH1 0xA0 DUP3 ADD SWAP3 SWAP1 SWAP3 MSTORE PUSH1 0xC0 DUP2 ADD SWAP2 SWAP1 SWAP2 MSTORE PUSH1 0x0 PUSH1 0xE0 DUP3 ADD MSTORE SWAP2 SWAP3 POP SWAP1 PUSH32 0x7A349466F0B119934B2376706BF145E6FABE7EB4B8C4CBA23BB8F5DC9CB74B75 SWAP1 PUSH2 0x100 SWAP1 LOG1 JUMP JUMPDEST PUSH4 0x4E487B71 PUSH1 0xE0 SHL DUP2 MSTORE PUSH1 0x21 DUP12 MSTORE PUSH1 0x24 SWAP1 REVERT JUMPDEST POP PUSH4 0x4E487B71 PUSH1 0xE0 SHL DUP8 MSTORE PUSH1 0x21 DUP14 MSTORE PUSH1 0x24 DUP8 REVERT JUMPDEST SWAP10 POP PUSH2 0x4684 SWAP6 POP PUSH2 0x4689 PUSH1 0xA DUP10 ADD SLOAD PUSH2 0x4674 DUP13 DUP5 ADD SWAP2 DUP3 MLOAD SWAP1 PUSH2 0x4319 JUMP JUMPDEST SWAP8 DUP9 SWAP2 PUSH1 0x7 DUP13 ADD SLOAD SWAP1 MLOAD SWAP1 PUSH2 0x4319 JUMP JUMPDEST PUSH2 0x430C JUMP JUMPDEST SWAP10 PUSH2 0x44AD JUMP JUMPDEST PUSH4 0x4E487B71 PUSH1 0xE0 SHL DUP8 MSTORE PUSH1 0x21 DUP14 MSTORE PUSH1 0x24 DUP8 REVERT JUMPDEST SWAP10 POP PUSH2 0x4684 SWAP6 POP PUSH2 0x46C0 PUSH1 0x9 DUP10 ADD SLOAD PUSH2 0x4674 DUP13 DUP5 ADD SWAP2 DUP3 MLOAD SWAP1 PUSH2 0x4319 JUMP JUMPDEST SWAP10 PUSH2 0x449B JUMP JUMPDEST SWAP10 POP PUSH2 0x4684 SWAP6 POP PUSH2 0x46E4 PUSH1 0x8 DUP10 ADD SLOAD PUSH2 0x4674 DUP13 DUP5 ADD SWAP2 DUP3 MLOAD SWAP1 PUSH2 0x4319 JUMP JUMPDEST SWAP10 PUSH2 0x4489 JUMP JUMPDEST SWAP1 PUSH1 0x0 SWAP2 PUSH1 0x4 DUP2 LT ISZERO PUSH2 0x920 JUMPI DUP1 PUSH1 0x1 EQ PUSH2 0x471E JUMPI JUMPDEST PUSH1 0x3 EQ DUP1 PUSH2 0x4715 JUMPI JUMPDEST PUSH2 0x470F JUMPI JUMP JUMPDEST PUSH1 0xC SWAP2 POP JUMP JUMPDEST PUSH1 0x6 SWAP3 POP PUSH2 0x4709 JUMP JUMPDEST PUSH1 0x1 SWAP3 POP PUSH2 0x4700 JUMP JUMPDEST PUSH1 0x40 MLOAD SWAP1 PUSH2 0x4734 DUP3 PUSH2 0x342C JUMP JUMPDEST DUP2 PUSH2 0x100 PUSH1 0x60 SWAP2 DUP3 DUP2 MSTORE DUP3 PUSH1 0x20 DUP3 ADD MSTORE DUP3 PUSH1 0x40 DUP3 ADD MSTORE DUP3 DUP1 DUP3 ADD MSTORE DUP3 PUSH1 0x80 DUP3 ADD MSTORE DUP3 PUSH1 0xA0 DUP3 ADD MSTORE DUP3 PUSH1 0xC0 DUP3 ADD MSTORE DUP3 PUSH1 0xE0 DUP3 ADD MSTORE ADD MSTORE JUMP JUMPDEST SWAP1 PUSH1 0x8 PUSH2 0x100 PUSH1 0x40 SWAP4 PUSH2 0x4853 DUP6 MLOAD SWAP2 PUSH2 0x4783 DUP4 PUSH2 0x342C JUMP JUMPDEST PUSH2 0x484C DUP4 SWAP8 DUP1 MLOAD PUSH2 0x4798 DUP2 PUSH2 0xCC8 DUP2 DUP8 PUSH2 0x394C JUMP JUMPDEST DUP6 MSTORE DUP1 MLOAD PUSH2 0x47AD DUP2 PUSH2 0xCC8 DUP2 PUSH1 0x1 DUP9 ADD PUSH2 0x394C JUMP JUMPDEST PUSH1 0x20 DUP7 ADD MSTORE DUP1 MLOAD PUSH2 0x47C5 DUP2 PUSH2 0xCC8 DUP2 PUSH1 0x2 DUP9 ADD PUSH2 0x394C JUMP JUMPDEST DUP2 DUP7 ADD MSTORE DUP1 MLOAD PUSH2 0x47DC DUP2 PUSH2 0xCC8 DUP2 PUSH1 0x3 DUP9 ADD PUSH2 0x394C JUMP JUMPDEST PUSH1 0x60 DUP7 ADD MSTORE DUP1 MLOAD PUSH2 0x47F4 DUP2 PUSH2 0xCC8 DUP2 PUSH1 0x4 DUP9 ADD PUSH2 0x394C JUMP JUMPDEST PUSH1 0x80 DUP7 ADD MSTORE DUP1 MLOAD PUSH2 0x480C DUP2 PUSH2 0xCC8 DUP2 PUSH1 0x5 DUP9 ADD PUSH2 0x394C JUMP JUMPDEST PUSH1 0xA0 DUP7 ADD MSTORE DUP1 MLOAD PUSH2 0x4824 DUP2 PUSH2 0xCC8 DUP2 PUSH1 0x6 DUP9 ADD PUSH2 0x394C JUMP JUMPDEST PUSH1 0xC0 DUP7 ADD MSTORE DUP1 MLOAD PUSH2 0x483C DUP2 PUSH2 0xCC8 DUP2 PUSH1 0x7 DUP9 ADD PUSH2 0x394C JUMP JUMPDEST PUSH1 0xE0 DUP7 ADD MSTORE MLOAD DUP1 SWAP7 DUP2 SWAP4 ADD PUSH2 0x394C JUMP JUMPDEST SUB DUP5 PUSH2 0x34B5 JUMP JUMPDEST ADD MSTORE JUMP JUMPDEST PUSH1 0x40 MLOAD SWAP1 PUSH2 0x4864 DUP3 PUSH2 0x3463 JUMP JUMPDEST PUSH1 0x0 PUSH1 0xA0 DUP4 DUP3 DUP2 MSTORE DUP3 PUSH1 0x20 DUP3 ADD MSTORE PUSH1 0x60 PUSH1 0x40 DUP3 ADD MSTORE DUP3 PUSH1 0x60 DUP3 ADD MSTORE PUSH2 0x4887 PUSH2 0x4727 JUMP JUMPDEST PUSH1 0x80 DUP3 ADD MSTORE ADD MSTORE JUMP JUMPDEST PUSH1 0x0 SWAP4 SWAP3 DUP5 SWAP3 SWAP1 DUP2 DUP4 GT PUSH2 0x49C1 JUMPI DUP1 MLOAD DUP5 SWAP4 JUMPDEST DUP2 DUP6 LT PUSH2 0x497A JUMPI POP POP DUP4 SWAP2 DUP2 MLOAD JUMPDEST DUP1 DUP5 LT PUSH2 0x4921 JUMPI POP POP POP DUP1 PUSH2 0x4900 JUMPI POP DUP2 JUMPDEST DUP1 DUP3 GT ISZERO PUSH2 0x48D0 JUMPI POP POP POP JUMP JUMPDEST PUSH2 0x48DC SWAP3 SWAP4 SWAP5 POP PUSH2 0x3F76 JUMP JUMPDEST SWAP1 PUSH1 0x1 DUP3 ADD DUP1 SWAP3 GT PUSH2 0x48EC JUMPI POP SWAP1 JUMP JUMPDEST PUSH4 0x4E487B71 PUSH1 0xE0 SHL DUP2 MSTORE PUSH1 0x11 PUSH1 0x4 MSTORE PUSH1 0x24 SWAP1 REVERT JUMPDEST PUSH1 0x0 NOT DUP2 ADD SWAP1 DUP2 GT ISZERO PUSH2 0x48C3 JUMPI PUSH4 0x4E487B71 PUSH1 0xE0 SHL DUP4 MSTORE PUSH1 0x11 PUSH1 0x4 MSTORE PUSH1 0x24 DUP4 REVERT JUMPDEST PUSH2 0x492B DUP5 DUP3 PUSH2 0x3F76 JUMP JUMPDEST SWAP1 PUSH2 0x493A PUSH1 0x1 SWAP3 DUP4 SHR DUP7 PUSH2 0x430C JUMP JUMPDEST SWAP2 DUP4 PUSH2 0x4946 DUP5 DUP8 PUSH2 0x4149 JUMP JUMPDEST MLOAD GT ISZERO PUSH2 0x4954 JUMPI POP POP PUSH2 0x48B1 JUMP JUMPDEST SWAP1 SWAP5 POP DUP2 ADD DUP1 SWAP2 GT PUSH2 0x4966 JUMPI SWAP3 PUSH2 0x48B1 JUMP JUMPDEST PUSH4 0x4E487B71 PUSH1 0xE0 SHL DUP7 MSTORE PUSH1 0x11 PUSH1 0x4 MSTORE PUSH1 0x24 DUP7 REVERT JUMPDEST SWAP1 SWAP4 PUSH2 0x4986 DUP2 DUP7 PUSH2 0x3F76 JUMP JUMPDEST PUSH2 0x4994 PUSH1 0x1 SWAP2 DUP3 SHR DUP4 PUSH2 0x430C JUMP JUMPDEST SWAP2 DUP4 PUSH2 0x49A0 DUP5 DUP8 PUSH2 0x4149 JUMP JUMPDEST MLOAD LT ISZERO PUSH2 0x49B9 JUMPI POP DUP2 ADD DUP1 SWAP2 GT PUSH2 0x4966 JUMPI SWAP4 JUMPDEST SWAP1 PUSH2 0x48A3 JUMP JUMPDEST SWAP6 POP POP PUSH2 0x49B3 JUMP JUMPDEST PUSH1 0x40 MLOAD PUSH3 0x461BCD PUSH1 0xE5 SHL DUP2 MSTORE PUSH1 0x20 PUSH1 0x4 DUP3 ADD MSTORE PUSH1 0x12 PUSH1 0x24 DUP3 ADD MSTORE PUSH18 0x496E76616C69642074696D652072616E6765 PUSH1 0x70 SHL PUSH1 0x44 DUP3 ADD MSTORE PUSH1 0x64 SWAP1 REVERT JUMPDEST SWAP1 PUSH2 0x4A05 DUP3 PUSH2 0x36FB JUMP JUMPDEST PUSH2 0x4A12 PUSH1 0x40 MLOAD SWAP2 DUP3 PUSH2 0x34B5 JUMP JUMPDEST DUP3 DUP2 MSTORE DUP1 SWAP3 PUSH2 0x4A23 PUSH1 0x1F NOT SWAP2 PUSH2 0x36FB JUMP JUMPDEST ADD SWAP1 PUSH1 0x0 JUMPDEST DUP3 DUP2 LT PUSH2 0x4A34 JUMPI POP POP POP JUMP JUMPDEST PUSH1 0x20 SWAP1 PUSH2 0x4A3F PUSH2 0x4857 JUMP JUMPDEST DUP3 DUP3 DUP6 ADD ADD MSTORE ADD PUSH2 0x4A28 JUMP JUMPDEST SWAP2 SWAP1 SWAP2 PUSH1 0x60 SWAP3 CALLER PUSH1 0x0 MSTORE PUSH1 0xE PUSH1 0x20 MSTORE PUSH1 0x40 PUSH1 0x0 KECCAK256 SLOAD PUSH2 0x4A69 DUP2 PUSH2 0x36FB JUMP JUMPDEST SWAP1 PUSH2 0x4A77 PUSH1 0x40 MLOAD SWAP3 DUP4 PUSH2 0x34B5 JUMP JUMPDEST DUP1 DUP3 MSTORE PUSH2 0x4A86 PUSH1 0x1F NOT SWAP2 PUSH2 0x36FB JUMP JUMPDEST ADD SWAP1 PUSH1 0x20 CALLDATASIZE SWAP2 ADD CALLDATACOPY CALLER PUSH1 0x0 MSTORE PUSH1 0xE PUSH1 0x20 MSTORE PUSH1 0x40 PUSH1 0x0 KECCAK256 SWAP1 PUSH1 0x40 MLOAD DUP1 DUP4 PUSH1 0x20 DUP3 SWAP6 SLOAD SWAP4 DUP5 DUP2 MSTORE ADD SWAP1 PUSH1 0x0 MSTORE PUSH1 0x20 PUSH1 0x0 KECCAK256 SWAP3 PUSH1 0x0 JUMPDEST DUP2 DUP2 LT PUSH2 0x4E0B JUMPI POP POP PUSH2 0x4ACE SWAP3 POP SUB DUP4 PUSH2 0x34B5 JUMP JUMPDEST PUSH2 0x4ADE DUP2 PUSH4 0xFFFFFFFF DUP6 AND PUSH2 0x4319 JUMP JUMPDEST PUSH2 0x4AE9 DUP3 DUP5 MLOAD PUSH2 0x430C JUMP JUMPDEST LT ISZERO PUSH2 0x4AF8 JUMPI POP POP POP PUSH1 0x0 SWAP2 SWAP1 JUMP JUMPDEST SWAP1 SWAP2 SWAP4 PUSH2 0x4B0B DUP3 PUSH4 0xFFFFFFFF DUP8 AND PUSH2 0x4319 JUMP JUMPDEST DUP4 MLOAD GT ISZERO PUSH2 0x4C80 JUMPI POP PUSH2 0x4B1D DUP2 PUSH2 0x49FB JUMP JUMPDEST SWAP4 PUSH1 0x0 JUMPDEST DUP6 MLOAD DUP2 LT ISZERO PUSH2 0x4C76 JUMPI PUSH2 0x4B50 PUSH2 0x4B4A DUP3 PUSH2 0x4684 DUP7 PUSH2 0x4B45 DUP2 PUSH4 0xFFFFFFFF DUP10 AND PUSH2 0x4319 JUMP JUMPDEST PUSH2 0x3F76 JUMP JUMPDEST DUP6 PUSH2 0x4149 JUMP JUMPDEST MLOAD PUSH1 0x0 MSTORE PUSH1 0xA PUSH1 0x20 MSTORE PUSH1 0x40 PUSH1 0x0 KECCAK256 PUSH1 0x40 MLOAD SWAP1 PUSH2 0x4B6B DUP3 PUSH2 0x3463 JUMP JUMPDEST DUP1 SLOAD DUP3 MSTORE PUSH1 0x1 DUP1 DUP3 ADD SLOAD PUSH1 0x1 PUSH1 0x1 PUSH1 0xA0 SHL SUB AND PUSH1 0x20 DUP5 ADD MSTORE PUSH1 0x2 DUP1 DUP4 ADD DUP1 SLOAD SWAP1 SWAP3 SWAP2 PUSH2 0x4B96 DUP3 PUSH2 0x36FB JUMP JUMPDEST SWAP4 PUSH2 0x4BA4 PUSH1 0x40 MLOAD SWAP6 DUP7 PUSH2 0x34B5 JUMP JUMPDEST DUP3 DUP6 MSTORE PUSH1 0x20 DUP6 ADD SWAP1 PUSH1 0x0 MSTORE PUSH1 0x20 PUSH1 0x0 KECCAK256 SWAP2 PUSH1 0x0 SWAP2 JUMPDEST DUP5 DUP4 LT PUSH2 0x4C05 JUMPI POP POP POP POP POP POP DUP3 SWAP2 PUSH1 0xD SWAP2 PUSH1 0x40 PUSH2 0x4C00 SWAP7 SWAP6 ADD MSTORE PUSH1 0x3 DUP2 ADD SLOAD PUSH1 0x60 DUP5 ADD MSTORE PUSH2 0x4BEA PUSH1 0x4 DUP3 ADD PUSH2 0x476B JUMP JUMPDEST PUSH1 0x80 DUP5 ADD MSTORE ADD SLOAD PUSH1 0xA0 DUP3 ADD MSTORE PUSH2 0x2D58 DUP3 DUP10 PUSH2 0x4149 JUMP JUMPDEST PUSH2 0x4B21 JUMP JUMPDEST PUSH1 0x5 PUSH1 0x20 DUP8 SWAP3 PUSH1 0x40 MLOAD PUSH2 0x4C17 DUP2 PUSH2 0x3448 JUMP JUMPDEST DUP8 SLOAD DUP2 MSTORE DUP5 DUP9 ADD SLOAD DUP4 DUP3 ADD MSTORE PUSH2 0x4C36 PUSH1 0xFF DUP8 DUP11 ADD SLOAD AND PUSH1 0x40 DUP4 ADD PUSH2 0x432C JUMP JUMPDEST PUSH1 0x40 MLOAD PUSH2 0x4C4A DUP2 PUSH2 0xCC8 DUP2 PUSH1 0x3 DUP14 ADD PUSH2 0x394C JUMP JUMPDEST PUSH1 0x60 DUP3 ADD MSTORE PUSH1 0x40 MLOAD PUSH2 0x4C63 DUP2 PUSH2 0xCC8 DUP2 PUSH1 0x4 DUP14 ADD PUSH2 0x394C JUMP JUMPDEST PUSH1 0x80 DUP3 ADD MSTORE DUP2 MSTORE ADD SWAP5 ADD SWAP3 ADD SWAP2 SWAP3 PUSH2 0x4BB9 JUMP JUMPDEST POP POP POP POP PUSH1 0x1 SWAP2 SWAP1 JUMP JUMPDEST SWAP2 SWAP1 PUSH2 0x4CAE PUSH2 0x4CA9 PUSH2 0x4CA3 PUSH2 0x4C9B DUP5 PUSH4 0xFFFFFFFF DUP11 AND PUSH2 0x4319 JUMP JUMPDEST DUP6 MLOAD SWAP1 PUSH2 0x3F76 JUMP JUMPDEST DUP4 PUSH2 0x3F76 JUMP JUMPDEST PUSH2 0x49FB JUMP JUMPDEST SWAP5 PUSH1 0x0 JUMPDEST DUP7 MLOAD DUP2 LT ISZERO PUSH2 0x4E00 JUMPI PUSH2 0x4CD6 PUSH2 0x4B4A DUP3 PUSH2 0x4684 DUP7 PUSH2 0x4B45 DUP2 PUSH4 0xFFFFFFFF DUP10 AND PUSH2 0x4319 JUMP JUMPDEST MLOAD PUSH1 0x0 MSTORE PUSH1 0xA PUSH1 0x20 MSTORE PUSH1 0x40 PUSH1 0x0 KECCAK256 PUSH1 0x40 MLOAD SWAP1 PUSH2 0x4CF1 DUP3 PUSH2 0x3463 JUMP JUMPDEST DUP1 SLOAD DUP3 MSTORE PUSH1 0x1 DUP2 ADD SLOAD PUSH1 0x1 PUSH1 0x1 PUSH1 0xA0 SHL SUB AND PUSH1 0x20 DUP4 ADD MSTORE PUSH1 0x2 DUP2 ADD DUP1 SLOAD PUSH2 0x4D17 DUP2 PUSH2 0x36FB JUMP JUMPDEST SWAP2 PUSH2 0x4D25 PUSH1 0x40 MLOAD SWAP4 DUP5 PUSH2 0x34B5 JUMP JUMPDEST DUP2 DUP4 MSTORE PUSH1 0x20 DUP4 ADD SWAP1 PUSH1 0x0 MSTORE PUSH1 0x20 PUSH1 0x0 KECCAK256 SWAP1 PUSH1 0x0 SWAP1 JUMPDEST DUP12 DUP5 DUP4 LT PUSH2 0x4D85 JUMPI POP POP POP POP POP DUP3 SWAP2 PUSH1 0xD SWAP2 PUSH1 0x40 PUSH2 0x4D80 SWAP7 SWAP6 ADD MSTORE PUSH1 0x3 DUP2 ADD SLOAD DUP10 DUP5 ADD MSTORE PUSH2 0x4D6A PUSH1 0x4 DUP3 ADD PUSH2 0x476B JUMP JUMPDEST PUSH1 0x80 DUP5 ADD MSTORE ADD SLOAD PUSH1 0xA0 DUP3 ADD MSTORE PUSH2 0x1B2E DUP3 DUP11 PUSH2 0x4149 JUMP JUMPDEST PUSH2 0x4CB2 JUMP JUMPDEST PUSH1 0x20 PUSH1 0x1 SWAP3 PUSH1 0x5 SWAP3 PUSH1 0x40 MLOAD SWAP1 PUSH2 0x4D9A DUP3 PUSH2 0x3448 JUMP JUMPDEST DUP8 SLOAD DUP3 MSTORE DUP6 DUP9 ADD SLOAD DUP5 DUP4 ADD MSTORE PUSH2 0x4DBA PUSH1 0xFF PUSH1 0x2 DUP11 ADD SLOAD AND PUSH1 0x40 DUP5 ADD PUSH2 0x432C JUMP JUMPDEST PUSH1 0x40 MLOAD SWAP1 PUSH2 0x4DD6 DUP3 PUSH2 0x4DCF DUP2 PUSH1 0x3 DUP14 ADD PUSH2 0x394C JUMP JUMPDEST SUB DUP4 PUSH2 0x34B5 JUMP JUMPDEST DUP3 ADD MSTORE PUSH1 0x40 MLOAD PUSH2 0x4DED DUP2 PUSH2 0xCC8 DUP2 PUSH1 0x4 DUP13 ADD PUSH2 0x394C JUMP JUMPDEST PUSH1 0x80 DUP3 ADD MSTORE DUP2 MSTORE ADD SWAP4 ADD SWAP2 ADD SWAP1 SWAP2 PUSH2 0x4D3A JUMP JUMPDEST POP POP POP POP POP PUSH1 0x0 SWAP2 SWAP1 JUMP JUMPDEST DUP5 SLOAD DUP4 MSTORE PUSH1 0x1 SWAP5 DUP6 ADD SWAP5 DUP8 SWAP5 POP PUSH1 0x20 SWAP1 SWAP4 ADD SWAP3 ADD PUSH2 0x4AB9 JUMP JUMPDEST SWAP1 SWAP3 SWAP2 SWAP3 PUSH2 0x4E31 DUP2 PUSH2 0x34D6 JUMP JUMPDEST SWAP2 PUSH2 0x4E3F PUSH1 0x40 MLOAD SWAP4 DUP5 PUSH2 0x34B5 JUMP JUMPDEST DUP3 SWAP5 DUP3 DUP5 MSTORE DUP3 DUP3 ADD GT PUSH2 0x258 JUMPI PUSH1 0x20 PUSH2 0x3E68 SWAP4 ADD SWAP1 PUSH2 0x354E JUMP JUMPDEST DUP1 MLOAD DUP2 ADD PUSH1 0x40 DUP3 PUSH1 0x20 DUP4 ADD SWAP3 SUB SLT PUSH2 0x258 JUMPI PUSH1 0x20 DUP3 ADD MLOAD PUSH1 0x1 PUSH1 0x1 PUSH1 0x40 SHL SUB DUP2 GT PUSH2 0x258 JUMPI DUP3 ADD DUP2 PUSH1 0x3F DUP3 ADD SLT ISZERO PUSH2 0x258 JUMPI PUSH1 0x40 SWAP2 DUP2 DUP4 PUSH1 0x20 PUSH2 0x4E9F SWAP5 ADD MLOAD SWAP2 ADD PUSH2 0x4E24 JUMP JUMPDEST SWAP2 ADD MLOAD PUSH1 0x2 DUP2 LT ISZERO PUSH2 0x258 JUMPI DUP1 ISZERO PUSH2 0x502E JUMPI PUSH1 0x1 EQ PUSH2 0x4EC0 JUMPI POP POP POP PUSH1 0x0 SWAP1 JUMP JUMPDEST PUSH1 0x40 DUP2 DUP1 MLOAD DUP2 ADD SUB SLT PUSH2 0x258 JUMPI PUSH1 0x40 PUSH1 0x20 DUP3 ADD MLOAD SWAP2 ADD MLOAD SWAP3 PUSH1 0x0 DUP3 DUP2 MSTORE PUSH1 0xA PUSH1 0x20 MSTORE PUSH1 0x1 DUP1 PUSH1 0xA0 SHL SUB PUSH1 0x1 PUSH1 0x40 DUP4 KECCAK256 ADD SLOAD AND SWAP5 DUP6 DUP3 MSTORE PUSH1 0x13 PUSH1 0x20 MSTORE PUSH1 0x40 DUP3 KECCAK256 DUP5 DUP4 MSTORE PUSH1 0x20 MSTORE PUSH1 0x40 DUP3 KECCAK256 DUP2 DUP4 MSTORE PUSH1 0x20 MSTORE PUSH2 0x4F20 PUSH1 0x40 DUP4 KECCAK256 SLOAD DUP1 SWAP5 LT ISZERO PUSH2 0x60AA JUMP JUMPDEST DUP6 DUP3 MSTORE PUSH1 0x14 PUSH1 0x20 MSTORE PUSH1 0x40 DUP3 KECCAK256 DUP5 DUP4 MSTORE PUSH1 0x20 MSTORE PUSH1 0x40 DUP3 KECCAK256 DUP2 DUP4 MSTORE PUSH1 0x20 MSTORE PUSH1 0xFF PUSH1 0x2 PUSH1 0x40 DUP5 KECCAK256 ADD SLOAD AND SWAP4 DUP7 DUP4 MSTORE PUSH1 0x12 PUSH1 0x20 MSTORE PUSH1 0x40 DUP4 KECCAK256 DUP2 DUP5 MSTORE PUSH1 0x20 MSTORE PUSH1 0x40 DUP4 KECCAK256 DUP3 DUP5 MSTORE PUSH1 0x20 MSTORE PUSH2 0x4F75 PUSH1 0x40 DUP5 KECCAK256 SLOAD PUSH2 0x858 DUP8 PUSH2 0x46EA JUMP JUMPDEST DUP8 DUP5 MSTORE PUSH1 0x12 PUSH1 0x20 MSTORE PUSH1 0x40 DUP5 KECCAK256 DUP3 DUP6 MSTORE PUSH1 0x20 MSTORE PUSH1 0x40 DUP5 KECCAK256 DUP4 DUP6 MSTORE PUSH1 0x20 MSTORE PUSH1 0x40 DUP5 KECCAK256 SSTORE DUP7 DUP4 MSTORE PUSH1 0x12 PUSH1 0x20 MSTORE PUSH1 0x40 DUP4 KECCAK256 DUP2 DUP5 MSTORE PUSH1 0x20 MSTORE PUSH1 0x40 DUP4 KECCAK256 DUP3 DUP5 MSTORE PUSH1 0x20 MSTORE PUSH1 0x40 DUP4 KECCAK256 SLOAD SWAP3 PUSH1 0x4 DUP7 LT ISZERO PUSH2 0x501A JUMPI POP PUSH1 0x40 DUP1 MLOAD SWAP8 DUP9 MSTORE PUSH1 0x20 DUP9 ADD SWAP2 SWAP1 SWAP2 MSTORE DUP7 ADD MSTORE TIMESTAMP PUSH1 0x60 DUP7 ADD MSTORE PUSH1 0x80 DUP6 ADD MSTORE PUSH1 0xA0 DUP5 ADD MSTORE PUSH1 0xC0 DUP4 ADD MSTORE PUSH1 0xE0 DUP3 ADD MSTORE PUSH32 0x7A349466F0B119934B2376706BF145E6FABE7EB4B8C4CBA23BB8F5DC9CB74B75 SWAP1 PUSH2 0x100 SWAP1 LOG1 PUSH1 0x1 SWAP1 JUMP JUMPDEST PUSH4 0x4E487B71 PUSH1 0xE0 SHL DUP2 MSTORE PUSH1 0x21 PUSH1 0x4 MSTORE PUSH1 0x24 SWAP1 REVERT JUMPDEST POP SWAP2 SWAP1 DUP3 MLOAD DUP4 ADD SWAP2 PUSH1 0x60 DUP5 DUP5 SUB SLT PUSH2 0x258 JUMPI PUSH1 0x20 DUP5 ADD MLOAD PUSH1 0x1 PUSH1 0x1 PUSH1 0x40 SHL SUB DUP2 GT PUSH2 0x258 JUMPI DUP5 ADD SWAP3 PUSH1 0x20 DUP2 ADD PUSH1 0x3F DUP6 ADD SLT ISZERO PUSH2 0x258 JUMPI PUSH1 0x20 DUP5 ADD MLOAD PUSH2 0x5072 DUP2 PUSH2 0x36FB JUMP JUMPDEST SWAP5 PUSH2 0x5080 PUSH1 0x40 MLOAD SWAP7 DUP8 PUSH2 0x34B5 JUMP JUMPDEST DUP2 DUP7 MSTORE PUSH1 0x40 PUSH1 0x60 PUSH1 0x20 DUP9 ADD SWAP4 MUL DUP3 ADD ADD SWAP1 PUSH1 0x20 DUP5 ADD DUP3 GT PUSH2 0x258 JUMPI PUSH1 0x40 ADD SWAP2 JUMPDEST DUP2 DUP4 LT PUSH2 0x6043 JUMPI POP POP POP PUSH1 0x40 DUP6 ADD MLOAD SWAP5 PUSH1 0x1 PUSH1 0x1 PUSH1 0x40 SHL SUB DUP7 GT PUSH2 0x258 JUMPI PUSH2 0x120 DUP7 DUP3 ADD DUP4 SUB SLT PUSH2 0x258 JUMPI PUSH1 0x40 MLOAD SWAP6 PUSH2 0x50D8 DUP8 PUSH2 0x342C JUMP JUMPDEST PUSH1 0x20 DUP2 DUP4 ADD ADD MLOAD PUSH1 0x1 PUSH1 0x1 PUSH1 0x40 SHL SUB DUP2 GT PUSH2 0x258 JUMPI PUSH2 0x5101 SWAP1 PUSH1 0x20 DUP1 DUP7 ADD SWAP2 DUP5 DUP7 ADD ADD ADD PUSH2 0x6090 JUMP JUMPDEST DUP8 MSTORE PUSH1 0x40 DUP2 DUP4 ADD ADD MLOAD PUSH1 0x1 PUSH1 0x1 PUSH1 0x40 SHL SUB DUP2 GT PUSH2 0x258 JUMPI PUSH2 0x512C SWAP1 PUSH1 0x20 DUP1 DUP7 ADD SWAP2 DUP5 DUP7 ADD ADD ADD PUSH2 0x6090 JUMP JUMPDEST PUSH1 0x20 DUP9 ADD MSTORE PUSH1 0x60 DUP2 DUP4 ADD ADD MLOAD PUSH1 0x1 PUSH1 0x1 PUSH1 0x40 SHL SUB DUP2 GT PUSH2 0x258 JUMPI PUSH2 0x515A SWAP1 PUSH1 0x20 DUP1 DUP7 ADD SWAP2 DUP5 DUP7 ADD ADD ADD PUSH2 0x6090 JUMP JUMPDEST PUSH1 0x40 DUP9 ADD MSTORE PUSH1 0x80 DUP2 DUP4 ADD ADD MLOAD PUSH1 0x1 PUSH1 0x1 PUSH1 0x40 SHL SUB DUP2 GT PUSH2 0x258 JUMPI PUSH2 0x5188 SWAP1 PUSH1 0x20 DUP1 DUP7 ADD SWAP2 DUP5 DUP7 ADD ADD ADD PUSH2 0x6090 JUMP JUMPDEST PUSH1 0x60 DUP9 ADD MSTORE PUSH1 0xA0 DUP2 DUP4 ADD ADD MLOAD PUSH1 0x1 PUSH1 0x1 PUSH1 0x40 SHL SUB DUP2 GT PUSH2 0x258 JUMPI PUSH2 0x51B6 SWAP1 PUSH1 0x20 DUP1 DUP7 ADD SWAP2 DUP5 DUP7 ADD ADD ADD PUSH2 0x6090 JUMP JUMPDEST PUSH1 0x80 DUP9 ADD MSTORE PUSH1 0xC0 DUP2 DUP4 ADD ADD MLOAD PUSH1 0x1 PUSH1 0x1 PUSH1 0x40 SHL SUB DUP2 GT PUSH2 0x258 JUMPI PUSH2 0x51E4 SWAP1 PUSH1 0x20 DUP1 DUP7 ADD SWAP2 DUP5 DUP7 ADD ADD ADD PUSH2 0x6090 JUMP JUMPDEST PUSH1 0xA0 DUP9 ADD MSTORE PUSH1 0xE0 DUP2 DUP4 ADD ADD MLOAD PUSH1 0x1 PUSH1 0x1 PUSH1 0x40 SHL SUB DUP2 GT PUSH2 0x258 JUMPI PUSH2 0x5212 SWAP1 PUSH1 0x20 DUP1 DUP7 ADD SWAP2 DUP5 DUP7 ADD ADD ADD PUSH2 0x6090 JUMP JUMPDEST PUSH1 0xC0 DUP9 ADD MSTORE PUSH2 0x100 DUP2 DUP4 ADD ADD MLOAD PUSH1 0x1 PUSH1 0x1 PUSH1 0x40 SHL SUB DUP2 GT PUSH2 0x258 JUMPI PUSH2 0x5241 SWAP1 PUSH1 0x20 DUP1 DUP7 ADD SWAP2 DUP5 DUP7 ADD ADD ADD PUSH2 0x6090 JUMP JUMPDEST PUSH1 0xE0 DUP9 ADD MSTORE PUSH2 0x120 DUP2 DUP4 ADD ADD MLOAD SWAP1 PUSH1 0x1 PUSH1 0x1 PUSH1 0x40 SHL SUB DUP3 GT PUSH2 0x258 JUMPI PUSH1 0x20 PUSH2 0x5272 SWAP3 DUP2 PUSH1 0x60 SWAP7 ADD SWAP3 DUP6 ADD ADD ADD PUSH2 0x6090 JUMP JUMPDEST PUSH2 0x100 DUP8 ADD MSTORE ADD MLOAD SWAP3 PUSH1 0x1 PUSH1 0x1 PUSH1 0xA0 SHL SUB DUP5 AND DUP5 SUB PUSH2 0x258 JUMPI DUP1 MLOAD PUSH1 0x40 MLOAD PUSH1 0x60 DUP7 SWAP1 SHL PUSH12 0xFFFFFFFFFFFFFFFFFFFFFFFF NOT AND PUSH1 0x20 DUP3 ADD SWAP1 DUP2 MSTORE PUSH1 0x34 DUP3 ADD SWAP3 SWAP1 SWAP3 MSTORE TIMESTAMP PUSH1 0x54 DUP3 ADD MSTORE PUSH2 0x52C6 DUP2 PUSH1 0x74 DUP2 ADD PUSH2 0x1DC3 JUMP JUMPDEST MLOAD SWAP1 KECCAK256 SWAP6 PUSH1 0x0 SWAP1 PUSH2 0x52D7 DUP4 MLOAD PUSH2 0x415D JUMP JUMPDEST SWAP4 DUP3 JUMPDEST DUP5 MLOAD DUP2 LT ISZERO PUSH2 0x54F4 JUMPI PUSH2 0x52ED DUP2 DUP7 PUSH2 0x4149 JUMP JUMPDEST MLOAD SWAP1 DUP2 MLOAD PUSH1 0x0 MSTORE PUSH1 0xB PUSH1 0x20 MSTORE PUSH2 0x5309 PUSH1 0x40 PUSH1 0x0 KECCAK256 SLOAD ISZERO ISZERO PUSH2 0x41CF JUMP JUMPDEST PUSH1 0x4 PUSH1 0x40 DUP4 ADD MLOAD LT DUP1 ISZERO PUSH2 0x920 JUMPI PUSH2 0x5320 SWAP1 PUSH2 0x4274 JUMP JUMPDEST DUP2 MLOAD PUSH1 0x0 MSTORE PUSH1 0xB PUSH1 0x20 MSTORE PUSH1 0x40 PUSH1 0x0 KECCAK256 SWAP5 PUSH2 0x533F PUSH1 0xB DUP8 ADD SLOAD ISZERO ISZERO PUSH2 0x42C0 JUMP JUMPDEST PUSH1 0x40 DUP4 ADD MLOAD PUSH1 0x4 DUP2 LT ISZERO PUSH2 0x920 JUMPI PUSH2 0x54D6 JUMPI PUSH2 0x5390 SWAP1 PUSH2 0x1E97 PUSH1 0x20 DUP6 ADD PUSH2 0x536B DUP2 MLOAD PUSH1 0xB DUP12 ADD SLOAD PUSH2 0x3F76 JUMP JUMPDEST PUSH1 0xB DUP11 ADD SSTORE DUP1 MLOAD PUSH2 0x5381 PUSH1 0xC DUP12 ADD SWAP2 DUP3 SLOAD PUSH2 0x430C JUMP JUMPDEST SWAP1 SSTORE PUSH1 0x6 DUP10 ADD SLOAD SWAP1 MLOAD SWAP1 PUSH2 0x4319 JUMP JUMPDEST SWAP5 JUMPDEST PUSH1 0x20 DUP4 ADD MLOAD SWAP3 PUSH1 0x6 DUP3 ADD SLOAD SWAP1 PUSH1 0x40 DUP2 ADD MLOAD PUSH1 0x4 DUP2 LT ISZERO PUSH2 0x920 JUMPI PUSH2 0x54D1 SWAP6 PUSH32 0xD0CB37444E42A97B69191186CAC71D299BF85A8F4472C9E55CD9F7EB26C5B1E SWAP4 PUSH2 0x5414 DUP16 SWAP4 PUSH2 0x543D SWAP6 MLOAD SWAP3 PUSH1 0x1 DUP1 PUSH1 0xA0 SHL SUB PUSH1 0x2 SLOAD AND SWAP5 PUSH1 0x40 MLOAD SWAP7 PUSH2 0x53F6 DUP9 PUSH2 0x342C JUMP JUMPDEST PUSH1 0x1 PUSH1 0x1 PUSH1 0xA0 SHL SUB AND DUP8 MSTORE PUSH1 0x20 DUP8 ADD MSTORE PUSH1 0x40 DUP7 ADD MSTORE PUSH1 0x60 DUP6 ADD PUSH2 0x432C JUMP JUMPDEST TIMESTAMP PUSH1 0x80 DUP5 ADD MSTORE PUSH1 0xA0 DUP4 ADD MSTORE CALLER PUSH1 0xC0 DUP4 ADD MSTORE PUSH1 0xE0 DUP3 ADD MSTORE DUP12 PUSH2 0x100 DUP3 ADD MSTORE PUSH1 0x40 MLOAD SWAP2 DUP3 SWAP2 DUP3 PUSH2 0x4338 JUMP JUMPDEST SUB SWAP1 LOG1 PUSH1 0x1 PUSH2 0x54C2 PUSH2 0x544F DUP5 DUP11 PUSH2 0x4149 JUMP JUMPDEST MLOAD MLOAD SWAP3 PUSH2 0x5499 DUP11 PUSH2 0x547B PUSH1 0x40 PUSH2 0x5474 DUP10 PUSH1 0x20 PUSH2 0x546B DUP3 DUP8 PUSH2 0x4149 JUMP JUMPDEST MLOAD ADD MLOAD SWAP5 PUSH2 0x4149 JUMP JUMPDEST MLOAD ADD PUSH2 0x4267 JUMP JUMPDEST SWAP1 PUSH1 0x40 MLOAD SWAP7 PUSH2 0x5489 DUP9 PUSH2 0x3448 JUMP JUMPDEST DUP8 MSTORE PUSH1 0x20 DUP8 ADD MSTORE PUSH1 0x40 DUP7 ADD PUSH2 0x432C JUMP JUMPDEST PUSH1 0x40 MLOAD PUSH2 0x54AD DUP2 PUSH2 0xCC8 DUP2 PUSH1 0x2 DUP7 ADD PUSH2 0x394C JUMP JUMPDEST PUSH1 0x60 DUP6 ADD MSTORE PUSH2 0xCC8 PUSH1 0x40 MLOAD DUP1 SWAP5 DUP2 SWAP4 ADD PUSH2 0x394C JUMP JUMPDEST PUSH1 0x80 DUP3 ADD MSTORE PUSH2 0x2D58 DUP3 DUP10 PUSH2 0x4149 JUMP JUMPDEST PUSH2 0x52DA JUMP JUMPDEST PUSH2 0x54EE SWAP1 PUSH2 0x1E97 PUSH1 0x1 PUSH1 0x1 PUSH1 0xA0 SHL SUB DUP13 AND DUP15 DUP7 PUSH2 0x4452 JUMP JUMPDEST SWAP5 PUSH2 0x5392 JUMP JUMPDEST POP SWAP5 POP SWAP6 SWAP3 SWAP5 SWAP7 SWAP2 POP PUSH2 0x5509 SWAP1 DUP5 LT ISZERO PUSH2 0x60AA JUMP JUMPDEST PUSH1 0x40 MLOAD SWAP4 PUSH2 0x5516 DUP6 PUSH2 0x3463 JUMP JUMPDEST DUP2 DUP6 MSTORE PUSH1 0x1 DUP1 PUSH1 0xA0 SHL SUB DUP8 AND PUSH1 0x20 DUP7 ADD MSTORE PUSH1 0x40 DUP6 ADD MSTORE TIMESTAMP PUSH1 0x60 DUP6 ADD MSTORE DUP2 PUSH1 0x80 DUP6 ADD MSTORE PUSH1 0x5 PUSH1 0xA0 DUP6 ADD MSTORE DUP1 PUSH1 0x0 MSTORE PUSH1 0xA PUSH1 0x20 MSTORE PUSH1 0x40 PUSH1 0x0 KECCAK256 SWAP6 DUP5 MLOAD DUP8 SSTORE PUSH1 0x1 DUP8 ADD PUSH1 0x1 DUP1 PUSH1 0xA0 SHL SUB PUSH1 0x20 DUP8 ADD MLOAD AND PUSH1 0x1 PUSH1 0x1 PUSH1 0x60 SHL SUB PUSH1 0xA0 SHL DUP3 SLOAD AND OR SWAP1 SSTORE PUSH1 0x40 DUP6 ADD MLOAD DUP1 MLOAD SWAP1 PUSH1 0x1 PUSH1 0x40 SHL DUP3 GT PUSH2 0x133E JUMPI PUSH1 0x2 DUP10 ADD SLOAD DUP3 PUSH1 0x2 DUP12 ADD SSTORE DUP1 DUP4 LT PUSH2 0x5FD2 JUMPI JUMPDEST POP PUSH1 0x20 ADD SWAP1 PUSH1 0x2 DUP10 ADD PUSH1 0x0 MSTORE PUSH1 0x20 PUSH1 0x0 KECCAK256 SWAP2 PUSH1 0x0 SWAP1 JUMPDEST DUP3 DUP3 LT PUSH2 0x5DE5 JUMPI POP POP POP POP PUSH1 0x60 DUP6 ADD MLOAD PUSH1 0x3 DUP9 ADD SSTORE PUSH1 0x80 DUP6 ADD MLOAD DUP1 MLOAD DUP1 MLOAD SWAP1 PUSH1 0x1 PUSH1 0x1 PUSH1 0x40 SHL SUB DUP3 GT PUSH2 0x133E JUMPI DUP2 SWAP1 PUSH2 0x55F9 DUP3 DUP13 PUSH1 0x4 PUSH2 0x55F2 DUP2 DUP4 ADD SLOAD PUSH2 0x3912 JUMP JUMPDEST SWAP2 ADD PUSH2 0x3E2D JUMP JUMPDEST PUSH1 0x20 SWAP1 PUSH1 0x1F DUP4 GT PUSH1 0x1 EQ PUSH2 0x5D73 JUMPI PUSH1 0x0 SWAP3 PUSH2 0x5D68 JUMPI JUMPDEST POP POP DUP2 PUSH1 0x1 SHL SWAP2 PUSH1 0x0 NOT SWAP1 PUSH1 0x3 SHL SHR NOT AND OR PUSH1 0x4 DUP10 ADD SSTORE JUMPDEST PUSH1 0x20 DUP2 ADD MLOAD DUP1 MLOAD SWAP1 PUSH1 0x1 PUSH1 0x1 PUSH1 0x40 SHL SUB DUP3 GT PUSH2 0x133E JUMPI DUP2 SWAP1 PUSH2 0x5652 DUP3 DUP13 PUSH1 0x5 PUSH2 0x55F2 DUP2 DUP4 ADD SLOAD PUSH2 0x3912 JUMP JUMPDEST PUSH1 0x20 SWAP1 PUSH1 0x1F DUP4 GT PUSH1 0x1 EQ PUSH2 0x5CF6 JUMPI PUSH1 0x0 SWAP3 PUSH2 0x5CEB JUMPI JUMPDEST POP POP DUP2 PUSH1 0x1 SHL SWAP2 PUSH1 0x0 NOT SWAP1 PUSH1 0x3 SHL SHR NOT AND OR PUSH1 0x5 DUP10 ADD SSTORE JUMPDEST PUSH1 0x40 DUP2 ADD MLOAD DUP1 MLOAD SWAP1 PUSH1 0x1 PUSH1 0x1 PUSH1 0x40 SHL SUB DUP3 GT PUSH2 0x133E JUMPI DUP2 SWAP1 PUSH2 0x56AB DUP3 DUP13 PUSH1 0x6 PUSH2 0x55F2 DUP2 DUP4 ADD SLOAD PUSH2 0x3912 JUMP JUMPDEST PUSH1 0x20 SWAP1 PUSH1 0x1F DUP4 GT PUSH1 0x1 EQ PUSH2 0x5C79 JUMPI PUSH1 0x0 SWAP3 PUSH2 0x5C6E JUMPI JUMPDEST POP POP DUP2 PUSH1 0x1 SHL SWAP2 PUSH1 0x0 NOT SWAP1 PUSH1 0x3 SHL SHR NOT AND OR PUSH1 0x6 DUP10 ADD SSTORE JUMPDEST PUSH1 0x60 DUP2 ADD MLOAD DUP1 MLOAD SWAP1 PUSH1 0x1 PUSH1 0x1 PUSH1 0x40 SHL SUB DUP3 GT PUSH2 0x133E JUMPI DUP2 SWAP1 PUSH2 0x5704 DUP3 DUP13 PUSH1 0x7 PUSH2 0x55F2 DUP2 DUP4 ADD SLOAD PUSH2 0x3912 JUMP JUMPDEST PUSH1 0x20 SWAP1 PUSH1 0x1F DUP4 GT PUSH1 0x1 EQ PUSH2 0x5BFC JUMPI PUSH1 0x0 SWAP3 PUSH2 0x5BF1 JUMPI JUMPDEST POP POP DUP2 PUSH1 0x1 SHL SWAP2 PUSH1 0x0 NOT SWAP1 PUSH1 0x3 SHL SHR NOT AND OR PUSH1 0x7 DUP10 ADD SSTORE JUMPDEST PUSH1 0x80 DUP2 ADD MLOAD DUP1 MLOAD SWAP1 PUSH1 0x1 PUSH1 0x1 PUSH1 0x40 SHL SUB DUP3 GT PUSH2 0x133E JUMPI DUP2 SWAP1 PUSH2 0x575D DUP3 DUP13 PUSH1 0x8 PUSH2 0x55F2 DUP2 DUP4 ADD SLOAD PUSH2 0x3912 JUMP JUMPDEST PUSH1 0x20 SWAP1 PUSH1 0x1F DUP4 GT PUSH1 0x1 EQ PUSH2 0x5B7F JUMPI PUSH1 0x0 SWAP3 PUSH2 0x5B74 JUMPI JUMPDEST POP POP DUP2 PUSH1 0x1 SHL SWAP2 PUSH1 0x0 NOT SWAP1 PUSH1 0x3 SHL SHR NOT AND OR PUSH1 0x8 DUP10 ADD SSTORE JUMPDEST PUSH1 0xA0 DUP2 ADD MLOAD DUP1 MLOAD SWAP1 PUSH1 0x1 PUSH1 0x1 PUSH1 0x40 SHL SUB DUP3 GT PUSH2 0x133E JUMPI DUP2 SWAP1 PUSH2 0x57B6 DUP3 DUP13 PUSH1 0x9 PUSH2 0x55F2 DUP2 DUP4 ADD SLOAD PUSH2 0x3912 JUMP JUMPDEST PUSH1 0x20 SWAP1 PUSH1 0x1F DUP4 GT PUSH1 0x1 EQ PUSH2 0x5B02 JUMPI PUSH1 0x0 SWAP3 PUSH2 0x5AF7 JUMPI JUMPDEST POP POP DUP2 PUSH1 0x1 SHL SWAP2 PUSH1 0x0 NOT SWAP1 PUSH1 0x3 SHL SHR NOT AND OR PUSH1 0x9 DUP10 ADD SSTORE JUMPDEST PUSH1 0xC0 DUP2 ADD MLOAD DUP1 MLOAD SWAP1 PUSH1 0x1 PUSH1 0x1 PUSH1 0x40 SHL SUB DUP3 GT PUSH2 0x133E JUMPI DUP2 SWAP1 PUSH2 0x580F DUP3 DUP13 PUSH1 0xA PUSH2 0x55F2 DUP2 DUP4 ADD SLOAD PUSH2 0x3912 JUMP JUMPDEST PUSH1 0x20 SWAP1 PUSH1 0x1F DUP4 GT PUSH1 0x1 EQ PUSH2 0x5A85 JUMPI PUSH1 0x0 SWAP3 PUSH2 0x5A7A JUMPI JUMPDEST POP POP DUP2 PUSH1 0x1 SHL SWAP2 PUSH1 0x0 NOT SWAP1 PUSH1 0x3 SHL SHR NOT AND OR PUSH1 0xA DUP10 ADD SSTORE JUMPDEST PUSH1 0xE0 DUP2 ADD MLOAD DUP1 MLOAD SWAP1 PUSH1 0x1 PUSH1 0x1 PUSH1 0x40 SHL SUB DUP3 GT PUSH2 0x133E JUMPI PUSH2 0x586D DUP3 PUSH2 0x5864 PUSH1 0xB DUP14 ADD SLOAD PUSH2 0x3912 JUMP JUMPDEST PUSH1 0xB DUP14 ADD PUSH2 0x3E2D JUMP JUMPDEST PUSH1 0x20 SWAP1 PUSH1 0x1F DUP4 GT PUSH1 0x1 EQ PUSH2 0x5A06 JUMPI PUSH2 0x100 SWAP4 SWAP3 SWAP2 PUSH1 0x0 SWAP2 DUP4 PUSH2 0x59FB JUMPI JUMPDEST POP POP DUP2 PUSH1 0x1 SHL SWAP2 PUSH1 0x0 NOT SWAP1 PUSH1 0x3 SHL SHR NOT AND OR PUSH1 0xB DUP11 ADD SSTORE JUMPDEST ADD MLOAD SWAP7 DUP8 MLOAD PUSH1 0x1 PUSH1 0x1 PUSH1 0x40 SHL SUB DUP2 GT PUSH2 0x133E JUMPI PUSH2 0x58CF DUP2 PUSH2 0x58C6 PUSH1 0xC DUP6 ADD SLOAD PUSH2 0x3912 JUMP JUMPDEST PUSH1 0xC DUP6 ADD PUSH2 0x3E2D JUMP JUMPDEST PUSH1 0x20 PUSH1 0x1F DUP3 GT PUSH1 0x1 EQ PUSH2 0x596D JUMPI PUSH2 0x595A SWAP6 SWAP4 PUSH2 0x24B5 SWAP4 DUP4 PUSH1 0x40 SWAP8 SWAP5 PUSH2 0x5955 SWAP5 PUSH1 0x0 DUP1 MLOAD PUSH1 0x20 PUSH2 0x6623 DUP4 CODECOPY DUP2 MLOAD SWAP2 MSTORE SWAP14 SWAP15 PUSH1 0x0 SWAP3 PUSH2 0x5962 JUMPI JUMPDEST POP POP DUP2 PUSH1 0x1 SHL SWAP2 PUSH1 0x0 NOT SWAP1 PUSH1 0x3 SHL SHR NOT AND OR PUSH1 0xC DUP3 ADD SSTORE JUMPDEST PUSH1 0xD PUSH1 0xA0 DUP12 ADD MLOAD SWAP2 ADD SSTORE PUSH1 0x1 DUP1 PUSH1 0xA0 SHL SUB DUP2 AND PUSH1 0x0 MSTORE PUSH1 0xE PUSH1 0x20 MSTORE PUSH2 0x5947 DUP4 DUP8 PUSH1 0x0 KECCAK256 PUSH2 0x3EE2 JUMP JUMPDEST PUSH1 0x1 PUSH1 0x1 PUSH1 0xA0 SHL SUB AND PUSH2 0x3D2F JUMP JUMPDEST PUSH2 0x3E74 JUMP JUMPDEST SUB SWAP1 LOG1 PUSH1 0x1 SWAP1 JUMP JUMPDEST ADD MLOAD SWAP1 POP CODESIZE DUP1 PUSH2 0x5907 JUMP JUMPDEST PUSH1 0xC DUP4 ADD PUSH1 0x0 MSTORE PUSH1 0x20 PUSH1 0x0 KECCAK256 SWAP10 PUSH1 0x0 JUMPDEST PUSH1 0x1F NOT DUP5 AND DUP2 LT PUSH2 0x59E3 JUMPI POP SWAP4 PUSH2 0x24B5 SWAP4 PUSH1 0x1 DUP5 PUSH1 0x0 DUP1 MLOAD PUSH1 0x20 PUSH2 0x6623 DUP4 CODECOPY DUP2 MLOAD SWAP2 MSTORE SWAP13 SWAP14 PUSH2 0x5955 SWAP6 PUSH2 0x595A SWAP12 SWAP10 PUSH1 0x40 SWAP12 SWAP9 PUSH1 0x1F NOT DUP2 AND LT PUSH2 0x59CA JUMPI JUMPDEST POP POP POP DUP2 SHL ADD PUSH1 0xC DUP3 ADD SSTORE PUSH2 0x591F JUMP JUMPDEST ADD MLOAD PUSH1 0x0 NOT PUSH1 0xF8 DUP5 PUSH1 0x3 SHL AND SHR NOT AND SWAP1 SSTORE CODESIZE DUP1 DUP1 PUSH2 0x59BA JUMP JUMPDEST DUP3 DUP3 ADD MLOAD DUP13 SSTORE PUSH1 0x1 SWAP1 SWAP12 ADD SWAP11 PUSH1 0x20 SWAP3 DUP4 ADD SWAP3 ADD PUSH2 0x597D JUMP JUMPDEST ADD MLOAD SWAP1 POP CODESIZE DUP1 PUSH2 0x588A JUMP JUMPDEST SWAP1 PUSH1 0xB DUP12 ADD PUSH1 0x0 MSTORE PUSH1 0x20 PUSH1 0x0 KECCAK256 SWAP2 PUSH1 0x0 JUMPDEST PUSH1 0x1F NOT DUP6 AND DUP2 LT PUSH2 0x5A62 JUMPI POP SWAP2 DUP4 SWAP2 PUSH1 0x1 SWAP4 PUSH2 0x100 SWAP7 SWAP6 PUSH1 0x1F NOT DUP2 AND LT PUSH2 0x5A49 JUMPI JUMPDEST POP POP POP DUP2 SHL ADD PUSH1 0xB DUP11 ADD SSTORE PUSH2 0x58A2 JUMP JUMPDEST ADD MLOAD PUSH1 0x0 NOT PUSH1 0xF8 DUP5 PUSH1 0x3 SHL AND SHR NOT AND SWAP1 SSTORE CODESIZE DUP1 DUP1 PUSH2 0x5A39 JUMP JUMPDEST SWAP2 SWAP3 PUSH1 0x20 PUSH1 0x1 DUP2 SWAP3 DUP7 DUP6 ADD MLOAD DUP2 SSTORE ADD SWAP5 ADD SWAP3 ADD PUSH2 0x5A17 JUMP JUMPDEST ADD MLOAD SWAP1 POP CODESIZE DUP1 PUSH2 0x5825 JUMP JUMPDEST SWAP3 POP PUSH1 0xA DUP12 ADD PUSH1 0x0 MSTORE PUSH1 0x20 PUSH1 0x0 KECCAK256 SWAP1 PUSH1 0x0 SWAP4 JUMPDEST PUSH1 0x1F NOT DUP5 AND DUP6 LT PUSH2 0x5ADC JUMPI PUSH1 0x1 SWAP5 POP DUP4 PUSH1 0x1F NOT DUP2 AND LT PUSH2 0x5AC3 JUMPI JUMPDEST POP POP POP DUP2 SHL ADD PUSH1 0xA DUP10 ADD SSTORE PUSH2 0x583D JUMP JUMPDEST ADD MLOAD PUSH1 0x0 NOT PUSH1 0xF8 DUP5 PUSH1 0x3 SHL AND SHR NOT AND SWAP1 SSTORE CODESIZE DUP1 DUP1 PUSH2 0x5AB3 JUMP JUMPDEST DUP2 DUP2 ADD MLOAD DUP4 SSTORE PUSH1 0x20 SWAP5 DUP6 ADD SWAP5 PUSH1 0x1 SWAP1 SWAP4 ADD SWAP3 SWAP1 SWAP2 ADD SWAP1 PUSH2 0x5A98 JUMP JUMPDEST ADD MLOAD SWAP1 POP CODESIZE DUP1 PUSH2 0x57CC JUMP JUMPDEST SWAP3 POP PUSH1 0x9 DUP12 ADD PUSH1 0x0 MSTORE PUSH1 0x20 PUSH1 0x0 KECCAK256 SWAP1 PUSH1 0x0 SWAP4 JUMPDEST PUSH1 0x1F NOT DUP5 AND DUP6 LT PUSH2 0x5B59 JUMPI PUSH1 0x1 SWAP5 POP DUP4 PUSH1 0x1F NOT DUP2 AND LT PUSH2 0x5B40 JUMPI JUMPDEST POP POP POP DUP2 SHL ADD PUSH1 0x9 DUP10 ADD SSTORE PUSH2 0x57E4 JUMP JUMPDEST ADD MLOAD PUSH1 0x0 NOT PUSH1 0xF8 DUP5 PUSH1 0x3 SHL AND SHR NOT AND SWAP1 SSTORE CODESIZE DUP1 DUP1 PUSH2 0x5B30 JUMP JUMPDEST DUP2 DUP2 ADD MLOAD DUP4 SSTORE PUSH1 0x20 SWAP5 DUP6 ADD SWAP5 PUSH1 0x1 SWAP1 SWAP4 ADD SWAP3 SWAP1 SWAP2 ADD SWAP1 PUSH2 0x5B15 JUMP JUMPDEST ADD MLOAD SWAP1 POP CODESIZE DUP1 PUSH2 0x5773 JUMP JUMPDEST SWAP3 POP PUSH1 0x8 DUP12 ADD PUSH1 0x0 MSTORE PUSH1 0x20 PUSH1 0x0 KECCAK256 SWAP1 PUSH1 0x0 SWAP4 JUMPDEST PUSH1 0x1F NOT DUP5 AND DUP6 LT PUSH2 0x5BD6 JUMPI PUSH1 0x1 SWAP5 POP DUP4 PUSH1 0x1F NOT DUP2 AND LT PUSH2 0x5BBD JUMPI JUMPDEST POP POP POP DUP2 SHL ADD PUSH1 0x8 DUP10 ADD SSTORE PUSH2 0x578B JUMP JUMPDEST ADD MLOAD PUSH1 0x0 NOT PUSH1 0xF8 DUP5 PUSH1 0x3 SHL AND SHR NOT AND SWAP1 SSTORE CODESIZE DUP1 DUP1 PUSH2 0x5BAD JUMP JUMPDEST DUP2 DUP2 ADD MLOAD DUP4 SSTORE PUSH1 0x20 SWAP5 DUP6 ADD SWAP5 PUSH1 0x1 SWAP1 SWAP4 ADD SWAP3 SWAP1 SWAP2 ADD SWAP1 PUSH2 0x5B92 JUMP JUMPDEST ADD MLOAD SWAP1 POP CODESIZE DUP1 PUSH2 0x571A JUMP JUMPDEST SWAP3 POP PUSH1 0x7 DUP12 ADD PUSH1 0x0 MSTORE PUSH1 0x20 PUSH1 0x0 KECCAK256 SWAP1 PUSH1 0x0 SWAP4 JUMPDEST PUSH1 0x1F NOT DUP5 AND DUP6 LT PUSH2 0x5C53 JUMPI PUSH1 0x1 SWAP5 POP DUP4 PUSH1 0x1F NOT DUP2 AND LT PUSH2 0x5C3A JUMPI JUMPDEST POP POP POP DUP2 SHL ADD PUSH1 0x7 DUP10 ADD SSTORE PUSH2 0x5732 JUMP JUMPDEST ADD MLOAD PUSH1 0x0 NOT PUSH1 0xF8 DUP5 PUSH1 0x3 SHL AND SHR NOT AND SWAP1 SSTORE CODESIZE DUP1 DUP1 PUSH2 0x5C2A JUMP JUMPDEST DUP2 DUP2 ADD MLOAD DUP4 SSTORE PUSH1 0x20 SWAP5 DUP6 ADD SWAP5 PUSH1 0x1 SWAP1 SWAP4 ADD SWAP3 SWAP1 SWAP2 ADD SWAP1 PUSH2 0x5C0F JUMP JUMPDEST ADD MLOAD SWAP1 POP CODESIZE DUP1 PUSH2 0x56C1 JUMP JUMPDEST SWAP3 POP PUSH1 0x6 DUP12 ADD PUSH1 0x0 MSTORE PUSH1 0x20 PUSH1 0x0 KECCAK256 SWAP1 PUSH1 0x0 SWAP4 JUMPDEST PUSH1 0x1F NOT DUP5 AND DUP6 LT PUSH2 0x5CD0 JUMPI PUSH1 0x1 SWAP5 POP DUP4 PUSH1 0x1F NOT DUP2 AND LT PUSH2 0x5CB7 JUMPI JUMPDEST POP POP POP DUP2 SHL ADD PUSH1 0x6 DUP10 ADD SSTORE PUSH2 0x56D9 JUMP JUMPDEST ADD MLOAD PUSH1 0x0 NOT PUSH1 0xF8 DUP5 PUSH1 0x3 SHL AND SHR NOT AND SWAP1 SSTORE CODESIZE DUP1 DUP1 PUSH2 0x5CA7 JUMP JUMPDEST DUP2 DUP2 ADD MLOAD DUP4 SSTORE PUSH1 0x20 SWAP5 DUP6 ADD SWAP5 PUSH1 0x1 SWAP1 SWAP4 ADD SWAP3 SWAP1 SWAP2 ADD SWAP1 PUSH2 0x5C8C JUMP JUMPDEST ADD MLOAD SWAP1 POP CODESIZE DUP1 PUSH2 0x5668 JUMP JUMPDEST SWAP3 POP PUSH1 0x5 DUP12 ADD PUSH1 0x0 MSTORE PUSH1 0x20 PUSH1 0x0 KECCAK256 SWAP1 PUSH1 0x0 SWAP4 JUMPDEST PUSH1 0x1F NOT DUP5 AND DUP6 LT PUSH2 0x5D4D JUMPI PUSH1 0x1 SWAP5 POP DUP4 PUSH1 0x1F NOT DUP2 AND LT PUSH2 0x5D34 JUMPI JUMPDEST POP POP POP DUP2 SHL ADD PUSH1 0x5 DUP10 ADD SSTORE PUSH2 0x5680 JUMP JUMPDEST ADD MLOAD PUSH1 0x0 NOT PUSH1 0xF8 DUP5 PUSH1 0x3 SHL AND SHR NOT AND SWAP1 SSTORE CODESIZE DUP1 DUP1 PUSH2 0x5D24 JUMP JUMPDEST DUP2 DUP2 ADD MLOAD DUP4 SSTORE PUSH1 0x20 SWAP5 DUP6 ADD SWAP5 PUSH1 0x1 SWAP1 SWAP4 ADD SWAP3 SWAP1 SWAP2 ADD SWAP1 PUSH2 0x5D09 JUMP JUMPDEST ADD MLOAD SWAP1 POP CODESIZE DUP1 PUSH2 0x560F JUMP JUMPDEST SWAP3 POP PUSH1 0x4 DUP12 ADD PUSH1 0x0 MSTORE PUSH1 0x20 PUSH1 0x0 KECCAK256 SWAP1 PUSH1 0x0 SWAP4 JUMPDEST PUSH1 0x1F NOT DUP5 AND DUP6 LT PUSH2 0x5DCA JUMPI PUSH1 0x1 SWAP5 POP DUP4 PUSH1 0x1F NOT DUP2 AND LT PUSH2 0x5DB1 JUMPI JUMPDEST POP POP POP DUP2 SHL ADD PUSH1 0x4 DUP10 ADD SSTORE PUSH2 0x5627 JUMP JUMPDEST ADD MLOAD PUSH1 0x0 NOT PUSH1 0xF8 DUP5 PUSH1 0x3 SHL AND SHR NOT AND SWAP1 SSTORE CODESIZE DUP1 DUP1 PUSH2 0x5DA1 JUMP JUMPDEST DUP2 DUP2 ADD MLOAD DUP4 SSTORE PUSH1 0x20 SWAP5 DUP6 ADD SWAP5 PUSH1 0x1 SWAP1 SWAP4 ADD SWAP3 SWAP1 SWAP2 ADD SWAP1 PUSH2 0x5D86 JUMP JUMPDEST DUP1 MLOAD DUP1 MLOAD DUP6 SSTORE PUSH1 0x20 DUP2 ADD MLOAD PUSH1 0x1 DUP7 ADD SSTORE PUSH1 0x40 DUP2 ADD MLOAD PUSH1 0x4 DUP2 LT ISZERO PUSH2 0x920 JUMPI PUSH2 0x5E10 SWAP1 PUSH1 0x2 DUP8 ADD PUSH2 0x440C JUMP JUMPDEST PUSH1 0x60 DUP2 ADD MLOAD DUP1 MLOAD SWAP1 PUSH1 0x1 PUSH1 0x1 PUSH1 0x40 SHL SUB DUP3 GT PUSH2 0x133E JUMPI PUSH2 0x5E37 DUP3 PUSH2 0x295C PUSH1 0x3 DUP11 ADD SLOAD PUSH2 0x3912 JUMP JUMPDEST PUSH1 0x20 SWAP1 PUSH1 0x1F DUP4 GT PUSH1 0x1 EQ PUSH2 0x5F5F JUMPI PUSH1 0x80 SWAP4 SWAP3 SWAP2 PUSH1 0x0 SWAP2 DUP4 PUSH2 0x5F54 JUMPI JUMPDEST POP POP DUP2 PUSH1 0x1 SHL SWAP2 PUSH1 0x0 NOT SWAP1 PUSH1 0x3 SHL SHR NOT AND OR PUSH1 0x3 DUP8 ADD SSTORE JUMPDEST ADD MLOAD DUP1 MLOAD SWAP1 PUSH1 0x1 PUSH1 0x1 PUSH1 0x40 SHL SUB DUP3 GT PUSH2 0x133E JUMPI PUSH2 0x5E8F DUP3 PUSH2 0x29BD PUSH1 0x4 DUP10 ADD SLOAD PUSH2 0x3912 JUMP JUMPDEST PUSH1 0x20 SWAP1 PUSH1 0x1F DUP4 GT PUSH1 0x1 EQ PUSH2 0x5EDE JUMPI SWAP3 DUP3 PUSH1 0x5 SWAP4 PUSH1 0x20 SWAP4 PUSH1 0x1 SWAP7 PUSH1 0x0 SWAP3 PUSH2 0x5ED3 JUMPI JUMPDEST POP POP PUSH1 0x0 NOT PUSH1 0x3 DUP4 SWAP1 SHL SHR NOT AND SWAP1 DUP6 SHL OR PUSH1 0x4 DUP9 ADD SSTORE JUMPDEST ADD SWAP5 ADD SWAP2 ADD SWAP1 SWAP3 PUSH2 0x55B0 JUMP JUMPDEST ADD MLOAD SWAP1 POP CODESIZE DUP1 PUSH2 0x5EB0 JUMP JUMPDEST SWAP1 PUSH1 0x4 DUP8 ADD PUSH1 0x0 MSTORE PUSH1 0x20 PUSH1 0x0 KECCAK256 SWAP2 PUSH1 0x0 JUMPDEST PUSH1 0x1F NOT DUP6 AND DUP2 LT PUSH2 0x5F3C JUMPI POP DUP4 PUSH1 0x20 SWAP4 PUSH1 0x1 SWAP7 SWAP4 DUP8 SWAP4 PUSH1 0x5 SWAP8 PUSH1 0x1F NOT DUP2 AND LT PUSH2 0x5F23 JUMPI JUMPDEST POP POP POP DUP2 SHL ADD PUSH1 0x4 DUP9 ADD SSTORE PUSH2 0x5EC7 JUMP JUMPDEST ADD MLOAD PUSH1 0x0 NOT PUSH1 0xF8 DUP5 PUSH1 0x3 SHL AND SHR NOT AND SWAP1 SSTORE CODESIZE DUP1 DUP1 PUSH2 0x5F13 JUMP JUMPDEST SWAP2 SWAP3 PUSH1 0x20 PUSH1 0x1 DUP2 SWAP3 DUP7 DUP6 ADD MLOAD DUP2 SSTORE ADD SWAP5 ADD SWAP3 ADD PUSH2 0x5EEF JUMP JUMPDEST ADD MLOAD SWAP1 POP CODESIZE DUP1 PUSH2 0x5E53 JUMP JUMPDEST SWAP1 PUSH1 0x3 DUP9 ADD PUSH1 0x0 MSTORE PUSH1 0x20 PUSH1 0x0 KECCAK256 SWAP2 PUSH1 0x0 JUMPDEST PUSH1 0x1F NOT DUP6 AND DUP2 LT PUSH2 0x5FBA JUMPI POP SWAP2 DUP4 SWAP2 PUSH1 0x1 SWAP4 PUSH1 0x80 SWAP7 SWAP6 PUSH1 0x1F NOT DUP2 AND LT PUSH2 0x5FA1 JUMPI JUMPDEST POP POP POP DUP2 SHL ADD PUSH1 0x3 DUP8 ADD SSTORE PUSH2 0x5E6B JUMP JUMPDEST ADD MLOAD PUSH1 0x0 NOT PUSH1 0xF8 DUP5 PUSH1 0x3 SHL AND SHR NOT AND SWAP1 SSTORE CODESIZE DUP1 DUP1 PUSH2 0x5F91 JUMP JUMPDEST SWAP2 SWAP3 PUSH1 0x20 PUSH1 0x1 DUP2 SWAP3 DUP7 DUP6 ADD MLOAD DUP2 SSTORE ADD SWAP5 ADD SWAP3 ADD PUSH2 0x5F70 JUMP JUMPDEST PUSH1 0x5 DUP2 DUP2 MUL DIV DUP2 SUB PUSH2 0x2B7A JUMPI PUSH1 0x5 DUP4 DUP2 MUL DIV DUP4 SUB PUSH2 0x2B7A JUMPI PUSH1 0x2 DUP11 ADD PUSH1 0x0 MSTORE PUSH1 0x20 PUSH1 0x0 KECCAK256 DUP4 PUSH1 0x5 MUL DUP2 ADD JUMPDEST DUP3 PUSH1 0x5 MUL DUP3 ADD DUP2 LT PUSH2 0x6010 JUMPI POP POP PUSH2 0x559A JUMP JUMPDEST DUP1 PUSH1 0x0 PUSH1 0x5 SWAP3 SSTORE PUSH1 0x0 PUSH1 0x1 DUP3 ADD SSTORE PUSH1 0x0 PUSH1 0x2 DUP3 ADD SSTORE PUSH2 0x6031 PUSH1 0x3 DUP3 ADD PUSH2 0x43C3 JUMP JUMPDEST PUSH2 0x603D PUSH1 0x4 DUP3 ADD PUSH2 0x43C3 JUMP JUMPDEST ADD PUSH2 0x5FFD JUMP JUMPDEST PUSH1 0x60 PUSH1 0x20 DUP5 DUP7 SUB ADD SLT PUSH2 0x258 JUMPI PUSH1 0x40 MLOAD SWAP1 PUSH2 0x605D DUP3 PUSH2 0x349A JUMP JUMPDEST DUP4 MLOAD DUP3 MSTORE PUSH1 0x20 DUP5 ADD MLOAD PUSH1 0x20 DUP4 ADD MSTORE PUSH1 0x40 DUP5 ADD MLOAD SWAP1 PUSH1 0x4 DUP3 LT ISZERO PUSH2 0x258 JUMPI DUP3 PUSH1 0x20 SWAP3 PUSH1 0x40 PUSH1 0x60 SWAP6 ADD MSTORE DUP2 MSTORE ADD SWAP3 ADD SWAP2 PUSH2 0x50A0 JUMP JUMPDEST SWAP1 DUP1 PUSH1 0x1F DUP4 ADD SLT ISZERO PUSH2 0x258 JUMPI DUP2 MLOAD PUSH2 0x3B65 SWAP3 PUSH1 0x20 ADD PUSH2 0x4E24 JUMP JUMPDEST ISZERO PUSH2 0x60B1 JUMPI JUMP JUMPDEST PUSH1 0x40 MLOAD PUSH3 0x461BCD PUSH1 0xE5 SHL DUP2 MSTORE PUSH1 0x20 PUSH1 0x4 DUP3 ADD MSTORE PUSH1 0x4A PUSH1 0x24 DUP3 ADD MSTORE PUSH32 0x7B2266726F6D223A2022466943616D2E736F6C222C2022636F6465223A20382C PUSH1 0x44 DUP3 ADD MSTORE PUSH32 0x20226D657373616765223A2022496E73756666696369656E74207061796D656E PUSH1 0x64 DUP3 ADD MSTORE PUSH10 0x7420616D6F756E74227D PUSH1 0xB0 SHL PUSH1 0x84 DUP3 ADD MSTORE PUSH1 0xA4 SWAP1 REVERT JUMPDEST SWAP2 SWAP1 PUSH1 0x0 SWAP1 PUSH3 0x10BD9 PUSH3 0x15180 DUP1 DUP7 DIV DUP3 DUP2 ADD SWAP4 SWAP2 SWAP3 DUP6 DUP3 SLT DUP1 ISZERO SWAP2 DUP7 SLT SWAP2 DUP3 AND SWAP2 ISZERO AND OR PUSH2 0x65B5 JUMPI PUSH3 0x264965 ADD SWAP3 DUP5 PUSH3 0x253D8C DUP6 SLT SWAP2 SLT SWAP1 DUP1 ISZERO DUP3 AND SWAP2 ISZERO AND OR PUSH2 0x65A1 JUMPI DUP3 PUSH1 0x2 SHL SWAP1 PUSH1 0x4 SWAP2 DUP3 DUP2 SDIV DUP6 SUB PUSH2 0x645B JUMPI PUSH3 0x23AB1 DUP1 SWAP2 SDIV SWAP5 DUP6 DUP3 MUL SWAP2 DUP3 SDIV DUP7 SUB PUSH2 0x658E JUMPI PUSH1 0x3 SWAP2 DUP3 DUP2 ADD SWAP1 DUP9 DUP5 DUP4 SLT SWAP2 SLT SWAP1 DUP1 ISZERO DUP3 AND SWAP2 ISZERO AND OR PUSH2 0x657B JUMPI SWAP1 DUP5 PUSH2 0x61C0 SWAP3 SDIV SWAP1 PUSH2 0x65DB JUMP JUMPDEST SWAP5 PUSH1 0x1 SWAP6 DUP7 DUP2 ADD DUP8 DUP2 SLT DUP10 DUP4 SLT SWAP1 DUP1 ISZERO DUP3 AND SWAP2 ISZERO AND OR PUSH2 0x646E JUMPI PUSH2 0xFA0 SWAP1 DUP1 DUP3 MUL SWAP2 DUP3 SDIV SUB PUSH2 0x646E JUMPI PUSH3 0x164B09 PUSH2 0x6204 SWAP2 SDIV SWAP2 DUP7 PUSH2 0x61FD DUP5 PUSH2 0x6610 JUMP JUMPDEST SDIV SWAP1 PUSH2 0x65DB JUMP JUMPDEST SWAP1 PUSH1 0x1F DUP3 ADD SWAP2 DUP10 PUSH1 0x1F DUP5 SLT SWAP2 SLT SWAP1 DUP1 ISZERO DUP3 AND SWAP2 ISZERO AND OR PUSH2 0x646E JUMPI DUP2 PUSH1 0x50 MUL SWAP2 PUSH1 0x50 DUP4 SDIV DUP2 SUB PUSH2 0x6568 JUMPI PUSH2 0x98F DUP1 SWAP4 SDIV SWAP3 DUP4 DUP2 MUL SWAP1 DUP2 SDIV DUP5 SUB PUSH2 0x64BA JUMPI SWAP1 PUSH1 0x50 PUSH2 0x624E SWAP3 SDIV SWAP1 PUSH2 0x65DB JUMP JUMPDEST SWAP1 PUSH1 0xB DUP4 SDIV SWAP1 PUSH1 0x2 DUP5 ADD SWAP4 DUP12 PUSH1 0x2 DUP7 SLT SWAP2 SLT SWAP1 DUP1 ISZERO DUP3 AND SWAP2 ISZERO AND OR PUSH2 0x64BA JUMPI PUSH1 0xC SWAP4 DUP3 DUP6 MUL SWAP1 DUP6 DUP3 SDIV DUP5 SUB PUSH2 0x6494 JUMPI SWAP1 PUSH2 0x6287 SWAP2 PUSH2 0x65DB JUMP JUMPDEST SWAP5 PUSH1 0x30 NOT DUP2 ADD SWAP1 DUP2 SGT DUP12 AND PUSH2 0x6481 JUMPI DUP1 PUSH1 0x64 MUL SWAP1 PUSH1 0x64 DUP3 SDIV SUB PUSH2 0x6481 JUMPI SWAP2 PUSH2 0x62B5 PUSH2 0x62BA SWAP3 PUSH2 0x62C2 SWAP5 PUSH2 0x65F4 JUMP JUMPDEST PUSH2 0x65F4 JUMP JUMPDEST SWAP6 DUP3 SWAP5 PUSH2 0x430C JUMP JUMPDEST PUSH1 0x0 NOT SWAP6 DUP7 DUP3 ADD SWAP5 SWAP2 DUP6 GT PUSH2 0x64BA JUMPI PUSH2 0x62DF DUP5 SWAP2 DUP3 DUP8 DIV SWAP1 PUSH2 0x430C JUMP JUMPDEST SWAP5 MOD DUP10 DUP2 ADD SWAP3 DUP4 DUP3 GT PUSH2 0x6481 JUMPI DUP11 DUP5 EQ DUP1 ISZERO PUSH2 0x655F JUMPI JUMPDEST DUP1 ISZERO PUSH2 0x6555 JUMPI JUMPDEST DUP1 ISZERO PUSH2 0x654B JUMPI JUMPDEST DUP1 ISZERO PUSH2 0x6541 JUMPI JUMPDEST DUP1 ISZERO PUSH2 0x6537 JUMPI JUMPDEST DUP1 ISZERO PUSH2 0x652E JUMPI JUMPDEST ISZERO PUSH2 0x64D9 JUMPI PUSH1 0x1F DUP1 SWAP2 JUMPDEST GT PUSH2 0x64D1 JUMPI JUMPDEST POP PUSH2 0x7B2 DUP6 LT PUSH2 0x64CD JUMPI PUSH2 0x7D4A NOT DUP3 ADD SWAP2 DUP3 SGT DUP11 AND PUSH2 0x64BA JUMPI DUP11 DUP6 SLT SWAP7 DUP8 ISZERO SWAP3 PUSH2 0x12C0 DUP8 DUP2 ADD SWAP1 DUP2 SLT DUP6 DUP2 AND SWAP1 ISZERO DUP12 AND OR PUSH2 0x64A7 JUMPI SWAP1 DUP11 PUSH2 0x6374 PUSH2 0x637B PUSH2 0x6380 SWAP5 DUP11 PUSH2 0x6374 DUP12 PUSH2 0x65C9 JUMP JUMPDEST SDIV SWAP1 PUSH2 0x65F4 JUMP JUMPDEST PUSH2 0x6610 JUMP JUMPDEST SWAP2 ADD DUP4 DUP2 SGT DUP12 AND PUSH2 0x6481 JUMPI DUP5 PUSH2 0x6395 DUP6 PUSH2 0x65C9 JUMP JUMPDEST SDIV SWAP1 DUP6 DUP3 MUL SWAP2 DUP1 DUP4 SDIV DUP8 EQ SWAP1 ISZERO OR ISZERO PUSH2 0x6494 JUMPI SWAP1 PUSH2 0x63B2 SWAP2 PUSH2 0x65DB JUMP JUMPDEST PUSH2 0x16F SWAP1 DUP1 DUP3 MUL SWAP2 DUP3 SDIV SUB PUSH2 0x6481 JUMPI SWAP1 DUP5 PUSH2 0x63CE SWAP3 SDIV SWAP1 PUSH2 0x65F4 JUMP JUMPDEST SWAP6 PUSH2 0x1324 DUP1 SWAP6 ADD SWAP5 DUP6 SLT SWAP1 DUP2 ISZERO AND SWAP2 AND OR PUSH2 0x646E JUMPI SWAP2 PUSH2 0x63F3 SWAP2 PUSH2 0x6374 PUSH1 0x64 SWAP5 PUSH2 0x65C9 JUMP JUMPDEST SDIV DUP1 DUP3 MUL SWAP2 DUP3 SDIV SUB PUSH2 0x645B JUMPI SWAP1 DUP3 PUSH2 0x640C SWAP3 SDIV SWAP1 PUSH2 0x65DB JUMP JUMPDEST PUSH3 0x253D8B NOT DUP2 ADD SWAP4 SWAP1 DUP5 SGT AND PUSH2 0x6448 JUMPI DUP2 DUP4 MUL SWAP3 DUP1 DUP5 DIV DUP4 EQ SWAP1 ISZERO OR ISZERO PUSH2 0x6448 JUMPI POP SWAP1 PUSH2 0x643B SWAP2 DUP6 MOD SWAP1 PUSH2 0x430C JUMP JUMPDEST SWAP3 DUP4 LT PUSH2 0x6445 JUMPI POP JUMP JUMPDEST DUP1 REVERT JUMPDEST PUSH4 0x4E487B71 PUSH1 0xE0 SHL DUP5 MSTORE PUSH1 0x11 SWAP1 MSTORE PUSH1 0x24 DUP4 REVERT JUMPDEST PUSH4 0x4E487B71 PUSH1 0xE0 SHL DUP7 MSTORE PUSH1 0x11 DUP4 MSTORE PUSH1 0x24 DUP7 REVERT JUMPDEST PUSH4 0x4E487B71 PUSH1 0xE0 SHL DUP10 MSTORE PUSH1 0x11 DUP7 MSTORE PUSH1 0x24 DUP10 REVERT JUMPDEST PUSH4 0x4E487B71 PUSH1 0xE0 SHL DUP13 MSTORE PUSH1 0x11 DUP10 MSTORE PUSH1 0x24 DUP13 REVERT JUMPDEST PUSH4 0x4E487B71 PUSH1 0xE0 SHL DUP14 MSTORE PUSH1 0x11 DUP11 MSTORE PUSH1 0x24 DUP14 REVERT JUMPDEST PUSH4 0x4E487B71 PUSH1 0xE0 SHL DUP15 MSTORE PUSH1 0x11 DUP12 MSTORE PUSH1 0x24 DUP15 REVERT JUMPDEST PUSH4 0x4E487B71 PUSH1 0xE0 SHL DUP12 MSTORE PUSH1 0x11 DUP9 MSTORE PUSH1 0x24 DUP12 REVERT JUMPDEST DUP11 DUP1 REVERT JUMPDEST SWAP2 POP CODESIZE PUSH2 0x6329 JUMP JUMPDEST PUSH1 0x2 DUP5 EQ PUSH2 0x64EA JUMPI PUSH1 0x1E DUP1 SWAP2 PUSH2 0x6323 JUMP JUMPDEST DUP7 DUP7 AND ISZERO DUP1 PUSH2 0x6522 JUMPI JUMPDEST DUP1 ISZERO PUSH2 0x6516 JUMPI JUMPDEST ISZERO PUSH2 0x650D JUMPI PUSH1 0xFF PUSH1 0x1D JUMPDEST AND DUP1 SWAP2 PUSH2 0x6323 JUMP JUMPDEST PUSH1 0xFF PUSH1 0x1C PUSH2 0x6505 JUMP JUMPDEST POP PUSH2 0x190 DUP7 MOD ISZERO PUSH2 0x64FB JUMP JUMPDEST POP PUSH1 0x64 DUP7 MOD ISZERO ISZERO PUSH2 0x64F4 JUMP JUMPDEST POP DUP5 DUP5 EQ PUSH2 0x6319 JUMP JUMPDEST POP PUSH1 0xA DUP5 EQ PUSH2 0x6312 JUMP JUMPDEST POP PUSH1 0x8 DUP5 EQ PUSH2 0x630B JUMP JUMPDEST POP PUSH1 0x7 DUP5 EQ PUSH2 0x6304 JUMP JUMPDEST POP PUSH1 0x5 DUP5 EQ PUSH2 0x62FD JUMP JUMPDEST POP DUP7 DUP5 EQ PUSH2 0x62F6 JUMP JUMPDEST PUSH4 0x4E487B71 PUSH1 0xE0 SHL DUP11 MSTORE PUSH1 0x11 DUP8 MSTORE PUSH1 0x24 DUP11 REVERT JUMPDEST PUSH4 0x4E487B71 PUSH1 0xE0 SHL DUP9 MSTORE PUSH1 0x11 DUP6 MSTORE PUSH1 0x24 DUP9 REVERT JUMPDEST PUSH4 0x4E487B71 PUSH1 0xE0 SHL DUP8 MSTORE PUSH1 0x11 DUP5 MSTORE PUSH1 0x24 DUP8 REVERT JUMPDEST PUSH4 0x4E487B71 PUSH1 0xE0 SHL DUP5 MSTORE PUSH1 0x11 PUSH1 0x4 MSTORE PUSH1 0x24 DUP5 REVERT JUMPDEST PUSH4 0x4E487B71 PUSH1 0xE0 SHL DUP6 MSTORE PUSH1 0x11 PUSH1 0x4 MSTORE PUSH1 0x24 DUP6 REVERT JUMPDEST SWAP1 PUSH1 0xD NOT DUP3 ADD SWAP2 DUP3 SGT PUSH1 0x1 AND PUSH2 0x2B7A JUMPI JUMP JUMPDEST DUP2 DUP2 SUB SWAP3 SWAP2 PUSH1 0x0 SGT DUP1 ISZERO DUP3 DUP6 SGT AND SWAP2 DUP5 SLT AND OR PUSH2 0x2B7A JUMPI JUMP JUMPDEST SWAP2 SWAP1 SWAP2 PUSH1 0x0 DUP4 DUP3 ADD SWAP4 DUP5 SLT SWAP2 SLT SWAP1 DUP1 ISZERO DUP3 AND SWAP2 ISZERO AND OR PUSH2 0x2B7A JUMPI JUMP JUMPDEST SWAP1 PUSH2 0x5B5 SWAP2 DUP1 DUP4 MUL SWAP3 DUP4 SDIV SUB PUSH2 0x2B7A JUMPI JUMP INVALID MULMOD 0xCF 0xB2 SWAP12 0xA8 SWAP10 PUSH19 0xCCAAC331801646FB46CF877571081A07C992A5 MSIZE LOG1 0xA6 CREATE2 DUP6 MULMOD LOG2 PUSH5 0x6970667358 0x22 SLT KECCAK256 DUP11 PREVRANDAO GT 0xCB SWAP7 SWAP10 0xFC 0xB6 DUP8 0xCC SWAP7 DUP6 MLOAD SLT SWAP7 PUSH9 0x3806D7FE5D039DEB70 0xB9 PUSH22 0x6FCFAEA0B064736F6C63430008130033000000000000 "
		},
		"gasEstimates": {
			"creation": {
				"codeDepositCost": "5246400",
				"executionCost": "127533",
				"totalCost": "5373933"
			},
			"external": {
				"ActiveProduct(uint256)": "7006",
				"AdminActiveProduct(bytes32)": "79700",
				"AdminAddProduct(string,string,string,string,string,uint256,uint256,uint256,uint256,uint256,uint256,uint256,bool)": "infinite",
				"AdminDeactiveProduct(bytes32)": "infinite",
				"AdminEditUpdateAt(bytes32,uint256)": "25115",
				"AdminUpdateProductInfo(bytes32,string,string,string,string,uint256,uint256,uint256,uint256,uint256,uint256,uint256)": "infinite",
				"AdminViewOrder(address)": "infinite",
				"AdminViewProduct()": "infinite",
				"Admins(uint256)": "5033",
				"CallDataOrder((bytes32,uint256,uint8)[],(string,string,string,string,string,string,string,string,string),address)": "infinite",
				"CallDataRenew(bytes32,bytes32)": "infinite",
				"CheckCallData(bytes)": "infinite",
				"ExecuteOrder(bytes,bytes32,uint256)": "infinite",
				"GetCallData(bytes,uint8)": "infinite",
				"GetMyOrder(uint32,uint256)": "infinite",
				"IsAdmin(address)": "3161",
				"ListProductID(uint256)": "7430",
				"MakeOrder((bytes32,uint256,uint8)[],(string,string,string,string,string,string,string,string,string),address)": "infinite",
				"MasterPool()": "3286",
				"OrderIDs(uint256)": "5034",
				"Owner()": "3088",
				"POS()": "3264",
				"RenewSub(bytes32,bytes32)": "infinite",
				"SCUsdt()": "2824",
				"SetAdmin(address)": "75529",
				"SetMasterPool(address)": "27276",
				"SetPOS(address)": "27540",
				"SetUsdt(address)": "27562",
				"UserViewProduct()": "infinite",
				"Users(uint256)": "4615",
				"ViewProduct(bytes32)": "infinite",
				"ViewProducts(uint256,uint256,uint256)": "infinite",
				"countElementsInRange(uint256,uint256,uint256[])": "infinite",
				"getProductTrend(bytes32)": "infinite",
				"getProductTrendByTime(bytes32,uint256,uint256)": "infinite",
				"getProductViewCount(bytes32)": "3347",
				"getRentalInfo(address,bytes32,bytes32)": "5640",
				"getShipInfo(bytes32)": "infinite",
				"getmIDTOOrder(bytes32)": "infinite",
				"mAddressTOOrderID(address,uint256)": "7739",
				"mIDToProduct(bytes32)": "infinite",
				"mProductSearchTrend(bytes32,uint256)": "6776",
				"mProductViewCount(bytes32)": "3020",
				"mShippingInfo(uint256)": "infinite",
				"mShippingInfoByAddress(address,uint256)": "6771",
				"mShippingInfoByOrder(uint256)": "3152",
				"shippingCounter()": "2426",
				"updateViewCount(bytes32)": "75285"
			},
			"internal": {
				"OrderLock(bytes memory,bytes32,uint256)": "infinite",
				"RenewSubLock(bytes memory,bytes32,uint256)": "infinite",
				"_rent(struct OrderInput memory,bytes32,address)": "infinite",
				"findIndex(uint256,bool,uint256[] memory)": "infinite",
				"getMonth(enum SUBCRIPTION_TYPE)": "151"
			}
		},
		"methodIdentifiers": {
			"ActiveProduct(uint256)": "6f0243f3",
			"AdminActiveProduct(bytes32)": "103bb2b5",
			"AdminAddProduct(string,string,string,string,string,uint256,uint256,uint256,uint256,uint256,uint256,uint256,bool)": "52023610",
			"AdminDeactiveProduct(bytes32)": "0f8472ff",
			"AdminEditUpdateAt(bytes32,uint256)": "7f8c678f",
			"AdminUpdateProductInfo(bytes32,string,string,string,string,uint256,uint256,uint256,uint256,uint256,uint256,uint256)": "05d0af0b",
			"AdminViewOrder(address)": "9d6ffce0",
			"AdminViewProduct()": "12ee84ef",
			"Admins(uint256)": "9f89a4b2",
			"CallDataOrder((bytes32,uint256,uint8)[],(string,string,string,string,string,string,string,string,string),address)": "70b9e002",
			"CallDataRenew(bytes32,bytes32)": "51d04876",
			"CheckCallData(bytes)": "30d51a32",
			"ExecuteOrder(bytes,bytes32,uint256)": "aaedfcd1",
			"GetCallData(bytes,uint8)": "d888e7dc",
			"GetMyOrder(uint32,uint256)": "b46b9a2d",
			"IsAdmin(address)": "b11e3c1a",
			"ListProductID(uint256)": "cb4e841b",
			"MakeOrder((bytes32,uint256,uint8)[],(string,string,string,string,string,string,string,string,string),address)": "27b50845",
			"MasterPool()": "fb7ef377",
			"OrderIDs(uint256)": "a2b2fb55",
			"Owner()": "b4a99a4e",
			"POS()": "f29155ef",
			"RenewSub(bytes32,bytes32)": "af669326",
			"SCUsdt()": "94284cbd",
			"SetAdmin(address)": "5a272403",
			"SetMasterPool(address)": "a559934e",
			"SetPOS(address)": "dc9a04cf",
			"SetUsdt(address)": "ddcd6408",
			"UserViewProduct()": "350f31ea",
			"Users(uint256)": "1e98fd1c",
			"ViewProduct(bytes32)": "5d977ee1",
			"ViewProducts(uint256,uint256,uint256)": "3f81714c",
			"countElementsInRange(uint256,uint256,uint256[])": "951a5662",
			"getProductTrend(bytes32)": "673047ba",
			"getProductTrendByTime(bytes32,uint256,uint256)": "0c2ed967",
			"getProductViewCount(bytes32)": "fdd719b1",
			"getRentalInfo(address,bytes32,bytes32)": "b358fa8e",
			"getShipInfo(bytes32)": "7f7c0808",
			"getmIDTOOrder(bytes32)": "7cf388ee",
			"mAddressTOOrderID(address,uint256)": "f09610c7",
			"mIDToProduct(bytes32)": "5c8d05a4",
			"mProductSearchTrend(bytes32,uint256)": "0b0fe44c",
			"mProductViewCount(bytes32)": "acfa58d2",
			"mShippingInfo(uint256)": "da31f88a",
			"mShippingInfoByAddress(address,uint256)": "02b572d6",
			"mShippingInfoByOrder(uint256)": "bfbe3ef7",
			"shippingCounter()": "1c787f3e",
			"updateViewCount(bytes32)": "041cbb16"
		}
	},
	"abi": [
		{
			"inputs": [],
			"stateMutability": "payable",
			"type": "constructor"
		},
		{
			"anonymous": false,
			"inputs": [
				{
					"indexed": false,
					"internalType": "string",
					"name": "email",
					"type": "string"
				},
				{
					"components": [
						{
							"internalType": "bytes32",
							"name": "id",
							"type": "bytes32"
						},
						{
							"internalType": "address",
							"name": "customer",
							"type": "address"
						},
						{
							"components": [
								{
									"internalType": "bytes32",
									"name": "id",
									"type": "bytes32"
								},
								{
									"internalType": "uint256",
									"name": "quantity",
									"type": "uint256"
								},
								{
									"internalType": "enum SUBCRIPTION_TYPE",
									"name": "typ",
									"type": "uint8"
								},
								{
									"internalType": "string",
									"name": "productName",
									"type": "string"
								},
								{
									"internalType": "string",
									"name": "imgUrl",
									"type": "string"
								}
							],
							"internalType": "struct OrderDetail[]",
							"name": "products",
							"type": "tuple[]"
						},
						{
							"internalType": "uint256",
							"name": "createAt",
							"type": "uint256"
						},
						{
							"components": [
								{
									"internalType": "string",
									"name": "firstName",
									"type": "string"
								},
								{
									"internalType": "string",
									"name": "lastName",
									"type": "string"
								},
								{
									"internalType": "string",
									"name": "email",
									"type": "string"
								},
								{
									"internalType": "string",
									"name": "country",
									"type": "string"
								},
								{
									"internalType": "string",
									"name": "city",
									"type": "string"
								},
								{
									"internalType": "string",
									"name": "stateOrProvince",
									"type": "string"
								},
								{
									"internalType": "string",
									"name": "postalCode",
									"type": "string"
								},
								{
									"internalType": "string",
									"name": "phone",
									"type": "string"
								},
								{
									"internalType": "string",
									"name": "addressDetail",
									"type": "string"
								}
							],
							"internalType": "struct ShippingParams",
							"name": "shipInfo",
							"type": "tuple"
						},
						{
							"internalType": "uint256",
							"name": "shippingFee",
							"type": "uint256"
						}
					],
					"indexed": false,
					"internalType": "struct Order",
					"name": "order",
					"type": "tuple"
				},
				{
					"indexed": false,
					"internalType": "uint256",
					"name": "totalPrice",
					"type": "uint256"
				}
			],
			"name": "EmailOrder",
			"type": "event"
		},
		{
			"anonymous": false,
			"inputs": [
				{
					"indexed": false,
					"internalType": "address",
					"name": "buyer",
					"type": "address"
				},
				{
					"indexed": false,
					"internalType": "bytes32",
					"name": "orderId",
					"type": "bytes32"
				},
				{
					"indexed": false,
					"internalType": "bytes32",
					"name": "productId",
					"type": "bytes32"
				},
				{
					"indexed": false,
					"internalType": "uint256",
					"name": "firstTimePay",
					"type": "uint256"
				},
				{
					"indexed": false,
					"internalType": "uint256",
					"name": "nextTimePay",
					"type": "uint256"
				},
				{
					"indexed": false,
					"internalType": "uint256",
					"name": "amount",
					"type": "uint256"
				},
				{
					"indexed": false,
					"internalType": "uint256",
					"name": "typSub",
					"type": "uint256"
				},
				{
					"indexed": false,
					"internalType": "bytes32",
					"name": "idPayment",
					"type": "bytes32"
				}
			],
			"name": "Hire",
			"type": "event"
		},
		{
			"anonymous": false,
			"inputs": [
				{
					"components": [
						{
							"internalType": "address",
							"name": "add",
							"type": "address"
						},
						{
							"internalType": "uint256",
							"name": "quantity",
							"type": "uint256"
						},
						{
							"internalType": "uint256",
							"name": "price",
							"type": "uint256"
						},
						{
							"internalType": "enum SUBCRIPTION_TYPE",
							"name": "subTyp",
							"type": "uint8"
						},
						{
							"internalType": "uint256",
							"name": "time",
							"type": "uint256"
						},
						{
							"internalType": "bytes32",
							"name": "id",
							"type": "bytes32"
						},
						{
							"internalType": "address",
							"name": "from",
							"type": "address"
						},
						{
							"internalType": "address",
							"name": "to",
							"type": "address"
						},
						{
							"internalType": "bytes32",
							"name": "idPayment",
							"type": "bytes32"
						}
					],
					"indexed": false,
					"internalType": "struct FiCam.EventInput",
					"name": "eventOrder",
					"type": "tuple"
				}
			],
			"name": "eBuyProduct",
			"type": "event"
		},
		{
			"inputs": [
				{
					"internalType": "uint256",
					"name": "",
					"type": "uint256"
				}
			],
			"name": "ActiveProduct",
			"outputs": [
				{
					"internalType": "bytes32",
					"name": "",
					"type": "bytes32"
				}
			],
			"stateMutability": "view",
			"type": "function"
		},
		{
			"inputs": [
				{
					"internalType": "bytes32",
					"name": "_id",
					"type": "bytes32"
				}
			],
			"name": "AdminActiveProduct",
			"outputs": [
				{
					"internalType": "bool",
					"name": "",
					"type": "bool"
				}
			],
			"stateMutability": "nonpayable",
			"type": "function"
		},
		{
			"inputs": [
				{
					"internalType": "string",
					"name": "_imgUrl",
					"type": "string"
				},
				{
					"internalType": "string",
					"name": "_name",
					"type": "string"
				},
				{
					"internalType": "string",
					"name": "_desc",
					"type": "string"
				},
				{
					"internalType": "string",
					"name": "_advantages",
					"type": "string"
				},
				{
					"internalType": "string",
					"name": "_videoUrl",
					"type": "string"
				},
				{
					"internalType": "uint256",
					"name": "_salePrice",
					"type": "uint256"
				},
				{
					"internalType": "uint256",
					"name": "_rentalPrice",
					"type": "uint256"
				},
				{
					"internalType": "uint256",
					"name": "_monthlyPrice",
					"type": "uint256"
				},
				{
					"internalType": "uint256",
					"name": "_sixMonthsPrice",
					"type": "uint256"
				},
				{
					"internalType": "uint256",
					"name": "_yearlyPrice",
					"type": "uint256"
				},
				{
					"internalType": "uint256",
					"name": "_storageQuantity",
					"type": "uint256"
				},
				{
					"internalType": "uint256",
					"name": "_remainTime",
					"type": "uint256"
				},
				{
					"internalType": "bool",
					"name": "_active",
					"type": "bool"
				}
			],
			"name": "AdminAddProduct",
			"outputs": [],
			"stateMutability": "nonpayable",
			"type": "function"
		},
		{
			"inputs": [
				{
					"internalType": "bytes32",
					"name": "_id",
					"type": "bytes32"
				}
			],
			"name": "AdminDeactiveProduct",
			"outputs": [
				{
					"internalType": "bool",
					"name": "",
					"type": "bool"
				}
			],
			"stateMutability": "nonpayable",
			"type": "function"
		},
		{
			"inputs": [
				{
					"internalType": "bytes32",
					"name": "_id",
					"type": "bytes32"
				},
				{
					"internalType": "uint256",
					"name": "_updateAt",
					"type": "uint256"
				}
			],
			"name": "AdminEditUpdateAt",
			"outputs": [
				{
					"internalType": "bool",
					"name": "",
					"type": "bool"
				}
			],
			"stateMutability": "nonpayable",
			"type": "function"
		},
		{
			"inputs": [
				{
					"internalType": "bytes32",
					"name": "_id",
					"type": "bytes32"
				},
				{
					"internalType": "string",
					"name": "_imgUrl",
					"type": "string"
				},
				{
					"internalType": "string",
					"name": "_desc",
					"type": "string"
				},
				{
					"internalType": "string",
					"name": "_advantages",
					"type": "string"
				},
				{
					"internalType": "string",
					"name": "_videoUrl",
					"type": "string"
				},
				{
					"internalType": "uint256",
					"name": "_salePrice",
					"type": "uint256"
				},
				{
					"internalType": "uint256",
					"name": "_rentalPrice",
					"type": "uint256"
				},
				{
					"internalType": "uint256",
					"name": "_monthlyPrice",
					"type": "uint256"
				},
				{
					"internalType": "uint256",
					"name": "_sixMonthsPrice",
					"type": "uint256"
				},
				{
					"internalType": "uint256",
					"name": "_yearlyPrice",
					"type": "uint256"
				},
				{
					"internalType": "uint256",
					"name": "_storageQuantity",
					"type": "uint256"
				},
				{
					"internalType": "uint256",
					"name": "_remainTime",
					"type": "uint256"
				}
			],
			"name": "AdminUpdateProductInfo",
			"outputs": [
				{
					"internalType": "bool",
					"name": "",
					"type": "bool"
				}
			],
			"stateMutability": "nonpayable",
			"type": "function"
		},
		{
			"inputs": [
				{
					"internalType": "address",
					"name": "_to",
					"type": "address"
				}
			],
			"name": "AdminViewOrder",
			"outputs": [
				{
					"components": [
						{
							"internalType": "bytes32",
							"name": "id",
							"type": "bytes32"
						},
						{
							"internalType": "address",
							"name": "customer",
							"type": "address"
						},
						{
							"components": [
								{
									"internalType": "bytes32",
									"name": "id",
									"type": "bytes32"
								},
								{
									"internalType": "uint256",
									"name": "quantity",
									"type": "uint256"
								},
								{
									"internalType": "enum SUBCRIPTION_TYPE",
									"name": "typ",
									"type": "uint8"
								},
								{
									"internalType": "string",
									"name": "productName",
									"type": "string"
								},
								{
									"internalType": "string",
									"name": "imgUrl",
									"type": "string"
								}
							],
							"internalType": "struct OrderDetail[]",
							"name": "products",
							"type": "tuple[]"
						},
						{
							"internalType": "uint256",
							"name": "createAt",
							"type": "uint256"
						},
						{
							"components": [
								{
									"internalType": "string",
									"name": "firstName",
									"type": "string"
								},
								{
									"internalType": "string",
									"name": "lastName",
									"type": "string"
								},
								{
									"internalType": "string",
									"name": "email",
									"type": "string"
								},
								{
									"internalType": "string",
									"name": "country",
									"type": "string"
								},
								{
									"internalType": "string",
									"name": "city",
									"type": "string"
								},
								{
									"internalType": "string",
									"name": "stateOrProvince",
									"type": "string"
								},
								{
									"internalType": "string",
									"name": "postalCode",
									"type": "string"
								},
								{
									"internalType": "string",
									"name": "phone",
									"type": "string"
								},
								{
									"internalType": "string",
									"name": "addressDetail",
									"type": "string"
								}
							],
							"internalType": "struct ShippingParams",
							"name": "shipInfo",
							"type": "tuple"
						},
						{
							"internalType": "uint256",
							"name": "shippingFee",
							"type": "uint256"
						}
					],
					"internalType": "struct Order[]",
					"name": "orders",
					"type": "tuple[]"
				}
			],
			"stateMutability": "view",
			"type": "function"
		},
		{
			"inputs": [],
			"name": "AdminViewProduct",
			"outputs": [
				{
					"components": [
						{
							"internalType": "bytes32",
							"name": "id",
							"type": "bytes32"
						},
						{
							"components": [
								{
									"internalType": "string",
									"name": "imgUrl",
									"type": "string"
								},
								{
									"internalType": "string",
									"name": "name",
									"type": "string"
								},
								{
									"internalType": "bytes",
									"name": "desc",
									"type": "bytes"
								},
								{
									"internalType": "string",
									"name": "advantages",
									"type": "string"
								},
								{
									"internalType": "string",
									"name": "videoUrl",
									"type": "string"
								},
								{
									"internalType": "uint256",
									"name": "salePrice",
									"type": "uint256"
								},
								{
									"internalType": "uint256",
									"name": "rentalPrice",
									"type": "uint256"
								},
								{
									"internalType": "uint256",
									"name": "monthlyPrice",
									"type": "uint256"
								},
								{
									"internalType": "uint256",
									"name": "sixMonthsPrice",
									"type": "uint256"
								},
								{
									"internalType": "uint256",
									"name": "yearlyPrice",
									"type": "uint256"
								}
							],
							"internalType": "struct createProductParams",
							"name": "params",
							"type": "tuple"
						},
						{
							"internalType": "uint256",
							"name": "storageQuantity",
							"type": "uint256"
						},
						{
							"internalType": "uint256",
							"name": "saleQuantity",
							"type": "uint256"
						},
						{
							"internalType": "uint256",
							"name": "hireQuantity",
							"type": "uint256"
						},
						{
							"internalType": "uint256",
							"name": "returnHiredQuantity",
							"type": "uint256"
						},
						{
							"internalType": "uint256",
							"name": "remainTime",
							"type": "uint256"
						},
						{
							"internalType": "uint256",
							"name": "updateAt",
							"type": "uint256"
						},
						{
							"internalType": "bool",
							"name": "active",
							"type": "bool"
						}
					],
					"internalType": "struct Product[]",
					"name": "products",
					"type": "tuple[]"
				}
			],
			"stateMutability": "view",
			"type": "function"
		},
		{
			"inputs": [
				{
					"internalType": "uint256",
					"name": "",
					"type": "uint256"
				}
			],
			"name": "Admins",
			"outputs": [
				{
					"internalType": "address",
					"name": "",
					"type": "address"
				}
			],
			"stateMutability": "view",
			"type": "function"
		},
		{
			"inputs": [
				{
					"components": [
						{
							"internalType": "bytes32",
							"name": "id",
							"type": "bytes32"
						},
						{
							"internalType": "uint256",
							"name": "quantity",
							"type": "uint256"
						},
						{
							"internalType": "enum SUBCRIPTION_TYPE",
							"name": "typ",
							"type": "uint8"
						}
					],
					"internalType": "struct OrderInput[]",
					"name": "_input",
					"type": "tuple[]"
				},
				{
					"components": [
						{
							"internalType": "string",
							"name": "firstName",
							"type": "string"
						},
						{
							"internalType": "string",
							"name": "lastName",
							"type": "string"
						},
						{
							"internalType": "string",
							"name": "email",
							"type": "string"
						},
						{
							"internalType": "string",
							"name": "country",
							"type": "string"
						},
						{
							"internalType": "string",
							"name": "city",
							"type": "string"
						},
						{
							"internalType": "string",
							"name": "stateOrProvince",
							"type": "string"
						},
						{
							"internalType": "string",
							"name": "postalCode",
							"type": "string"
						},
						{
							"internalType": "string",
							"name": "phone",
							"type": "string"
						},
						{
							"internalType": "string",
							"name": "addressDetail",
							"type": "string"
						}
					],
					"internalType": "struct ShippingParams",
					"name": "_shipParams",
					"type": "tuple"
				},
				{
					"internalType": "address",
					"name": "_address",
					"type": "address"
				}
			],
			"name": "CallDataOrder",
			"outputs": [
				{
					"internalType": "bytes",
					"name": "callData",
					"type": "bytes"
				}
			],
			"stateMutability": "pure",
			"type": "function"
		},
		{
			"inputs": [
				{
					"internalType": "bytes32",
					"name": "_orderId",
					"type": "bytes32"
				},
				{
					"internalType": "bytes32",
					"name": "_idProduct",
					"type": "bytes32"
				}
			],
			"name": "CallDataRenew",
			"outputs": [
				{
					"internalType": "bytes",
					"name": "callData",
					"type": "bytes"
				}
			],
			"stateMutability": "pure",
			"type": "function"
		},
		{
			"inputs": [
				{
					"internalType": "bytes",
					"name": "callData",
					"type": "bytes"
				}
			],
			"name": "CheckCallData",
			"outputs": [
				{
					"internalType": "bool",
					"name": "",
					"type": "bool"
				}
			],
			"stateMutability": "nonpayable",
			"type": "function"
		},
		{
			"inputs": [
				{
					"internalType": "bytes",
					"name": "callData",
					"type": "bytes"
				},
				{
					"internalType": "bytes32",
					"name": "orderId",
					"type": "bytes32"
				},
				{
					"internalType": "uint256",
					"name": "paymentAmount",
					"type": "uint256"
				}
			],
			"name": "ExecuteOrder",
			"outputs": [
				{
					"internalType": "bool",
					"name": "",
					"type": "bool"
				}
			],
			"stateMutability": "nonpayable",
			"type": "function"
		},
		{
			"inputs": [
				{
					"internalType": "bytes",
					"name": "callData",
					"type": "bytes"
				},
				{
					"internalType": "enum FiCam.ExecuteOrderType",
					"name": "typ",
					"type": "uint8"
				}
			],
			"name": "GetCallData",
			"outputs": [
				{
					"internalType": "bytes",
					"name": "action",
					"type": "bytes"
				}
			],
			"stateMutability": "pure",
			"type": "function"
		},
		{
			"inputs": [
				{
					"internalType": "uint32",
					"name": "_page",
					"type": "uint32"
				},
				{
					"internalType": "uint256",
					"name": "returnRIP",
					"type": "uint256"
				}
			],
			"name": "GetMyOrder",
			"outputs": [
				{
					"internalType": "bool",
					"name": "isMore",
					"type": "bool"
				},
				{
					"components": [
						{
							"internalType": "bytes32",
							"name": "id",
							"type": "bytes32"
						},
						{
							"internalType": "address",
							"name": "customer",
							"type": "address"
						},
						{
							"components": [
								{
									"internalType": "bytes32",
									"name": "id",
									"type": "bytes32"
								},
								{
									"internalType": "uint256",
									"name": "quantity",
									"type": "uint256"
								},
								{
									"internalType": "enum SUBCRIPTION_TYPE",
									"name": "typ",
									"type": "uint8"
								},
								{
									"internalType": "string",
									"name": "productName",
									"type": "string"
								},
								{
									"internalType": "string",
									"name": "imgUrl",
									"type": "string"
								}
							],
							"internalType": "struct OrderDetail[]",
							"name": "products",
							"type": "tuple[]"
						},
						{
							"internalType": "uint256",
							"name": "createAt",
							"type": "uint256"
						},
						{
							"components": [
								{
									"internalType": "string",
									"name": "firstName",
									"type": "string"
								},
								{
									"internalType": "string",
									"name": "lastName",
									"type": "string"
								},
								{
									"internalType": "string",
									"name": "email",
									"type": "string"
								},
								{
									"internalType": "string",
									"name": "country",
									"type": "string"
								},
								{
									"internalType": "string",
									"name": "city",
									"type": "string"
								},
								{
									"internalType": "string",
									"name": "stateOrProvince",
									"type": "string"
								},
								{
									"internalType": "string",
									"name": "postalCode",
									"type": "string"
								},
								{
									"internalType": "string",
									"name": "phone",
									"type": "string"
								},
								{
									"internalType": "string",
									"name": "addressDetail",
									"type": "string"
								}
							],
							"internalType": "struct ShippingParams",
							"name": "shipInfo",
							"type": "tuple"
						},
						{
							"internalType": "uint256",
							"name": "shippingFee",
							"type": "uint256"
						}
					],
					"internalType": "struct Order[]",
					"name": "arrayOrder",
					"type": "tuple[]"
				}
			],
			"stateMutability": "view",
			"type": "function"
		},
		{
			"inputs": [
				{
					"internalType": "address",
					"name": "",
					"type": "address"
				}
			],
			"name": "IsAdmin",
			"outputs": [
				{
					"internalType": "bool",
					"name": "",
					"type": "bool"
				}
			],
			"stateMutability": "view",
			"type": "function"
		},
		{
			"inputs": [
				{
					"internalType": "uint256",
					"name": "",
					"type": "uint256"
				}
			],
			"name": "ListProductID",
			"outputs": [
				{
					"internalType": "bytes32",
					"name": "",
					"type": "bytes32"
				}
			],
			"stateMutability": "view",
			"type": "function"
		},
		{
			"inputs": [
				{
					"components": [
						{
							"internalType": "bytes32",
							"name": "id",
							"type": "bytes32"
						},
						{
							"internalType": "uint256",
							"name": "quantity",
							"type": "uint256"
						},
						{
							"internalType": "enum SUBCRIPTION_TYPE",
							"name": "typ",
							"type": "uint8"
						}
					],
					"internalType": "struct OrderInput[]",
					"name": "orderInputs",
					"type": "tuple[]"
				},
				{
					"components": [
						{
							"internalType": "string",
							"name": "firstName",
							"type": "string"
						},
						{
							"internalType": "string",
							"name": "lastName",
							"type": "string"
						},
						{
							"internalType": "string",
							"name": "email",
							"type": "string"
						},
						{
							"internalType": "string",
							"name": "country",
							"type": "string"
						},
						{
							"internalType": "string",
							"name": "city",
							"type": "string"
						},
						{
							"internalType": "string",
							"name": "stateOrProvince",
							"type": "string"
						},
						{
							"internalType": "string",
							"name": "postalCode",
							"type": "string"
						},
						{
							"internalType": "string",
							"name": "phone",
							"type": "string"
						},
						{
							"internalType": "string",
							"name": "addressDetail",
							"type": "string"
						}
					],
					"internalType": "struct ShippingParams",
					"name": "shipParams",
					"type": "tuple"
				},
				{
					"internalType": "address",
					"name": "to",
					"type": "address"
				}
			],
			"name": "MakeOrder",
			"outputs": [
				{
					"internalType": "bytes32",
					"name": "",
					"type": "bytes32"
				}
			],
			"stateMutability": "nonpayable",
			"type": "function"
		},
		{
			"inputs": [],
			"name": "MasterPool",
			"outputs": [
				{
					"internalType": "address",
					"name": "",
					"type": "address"
				}
			],
			"stateMutability": "view",
			"type": "function"
		},
		{
			"inputs": [
				{
					"internalType": "uint256",
					"name": "",
					"type": "uint256"
				}
			],
			"name": "OrderIDs",
			"outputs": [
				{
					"internalType": "bytes32",
					"name": "",
					"type": "bytes32"
				}
			],
			"stateMutability": "view",
			"type": "function"
		},
		{
			"inputs": [],
			"name": "Owner",
			"outputs": [
				{
					"internalType": "address",
					"name": "",
					"type": "address"
				}
			],
			"stateMutability": "view",
			"type": "function"
		},
		{
			"inputs": [],
			"name": "POS",
			"outputs": [
				{
					"internalType": "address",
					"name": "",
					"type": "address"
				}
			],
			"stateMutability": "view",
			"type": "function"
		},
		{
			"inputs": [
				{
					"internalType": "bytes32",
					"name": "_orderId",
					"type": "bytes32"
				},
				{
					"internalType": "bytes32",
					"name": "_idProduct",
					"type": "bytes32"
				}
			],
			"name": "RenewSub",
			"outputs": [
				{
					"internalType": "bool",
					"name": "",
					"type": "bool"
				}
			],
			"stateMutability": "nonpayable",
			"type": "function"
		},
		{
			"inputs": [],
			"name": "SCUsdt",
			"outputs": [
				{
					"internalType": "contract IERC20",
					"name": "",
					"type": "address"
				}
			],
			"stateMutability": "view",
			"type": "function"
		},
		{
			"inputs": [
				{
					"internalType": "address",
					"name": "_admin",
					"type": "address"
				}
			],
			"name": "SetAdmin",
			"outputs": [],
			"stateMutability": "nonpayable",
			"type": "function"
		},
		{
			"inputs": [
				{
					"internalType": "address",
					"name": "_masterPool",
					"type": "address"
				}
			],
			"name": "SetMasterPool",
			"outputs": [],
			"stateMutability": "nonpayable",
			"type": "function"
		},
		{
			"inputs": [
				{
					"internalType": "address",
					"name": "_pos",
					"type": "address"
				}
			],
			"name": "SetPOS",
			"outputs": [],
			"stateMutability": "nonpayable",
			"type": "function"
		},
		{
			"inputs": [
				{
					"internalType": "address",
					"name": "_usdt",
					"type": "address"
				}
			],
			"name": "SetUsdt",
			"outputs": [],
			"stateMutability": "nonpayable",
			"type": "function"
		},
		{
			"inputs": [],
			"name": "UserViewProduct",
			"outputs": [
				{
					"components": [
						{
							"internalType": "bytes32",
							"name": "id",
							"type": "bytes32"
						},
						{
							"components": [
								{
									"internalType": "string",
									"name": "imgUrl",
									"type": "string"
								},
								{
									"internalType": "string",
									"name": "name",
									"type": "string"
								},
								{
									"internalType": "bytes",
									"name": "desc",
									"type": "bytes"
								},
								{
									"internalType": "string",
									"name": "advantages",
									"type": "string"
								},
								{
									"internalType": "string",
									"name": "videoUrl",
									"type": "string"
								},
								{
									"internalType": "uint256",
									"name": "salePrice",
									"type": "uint256"
								},
								{
									"internalType": "uint256",
									"name": "rentalPrice",
									"type": "uint256"
								},
								{
									"internalType": "uint256",
									"name": "monthlyPrice",
									"type": "uint256"
								},
								{
									"internalType": "uint256",
									"name": "sixMonthsPrice",
									"type": "uint256"
								},
								{
									"internalType": "uint256",
									"name": "yearlyPrice",
									"type": "uint256"
								}
							],
							"internalType": "struct createProductParams",
							"name": "params",
							"type": "tuple"
						},
						{
							"internalType": "uint256",
							"name": "storageQuantity",
							"type": "uint256"
						},
						{
							"internalType": "uint256",
							"name": "saleQuantity",
							"type": "uint256"
						},
						{
							"internalType": "uint256",
							"name": "hireQuantity",
							"type": "uint256"
						},
						{
							"internalType": "uint256",
							"name": "returnHiredQuantity",
							"type": "uint256"
						},
						{
							"internalType": "uint256",
							"name": "remainTime",
							"type": "uint256"
						},
						{
							"internalType": "uint256",
							"name": "updateAt",
							"type": "uint256"
						},
						{
							"internalType": "bool",
							"name": "active",
							"type": "bool"
						}
					],
					"internalType": "struct Product[]",
					"name": "_products",
					"type": "tuple[]"
				}
			],
			"stateMutability": "view",
			"type": "function"
		},
		{
			"inputs": [
				{
					"internalType": "uint256",
					"name": "",
					"type": "uint256"
				}
			],
			"name": "Users",
			"outputs": [
				{
					"internalType": "address",
					"name": "",
					"type": "address"
				}
			],
			"stateMutability": "view",
			"type": "function"
		},
		{
			"inputs": [
				{
					"internalType": "bytes32",
					"name": "_id",
					"type": "bytes32"
				}
			],
			"name": "ViewProduct",
			"outputs": [
				{
					"components": [
						{
							"internalType": "bytes32",
							"name": "id",
							"type": "bytes32"
						},
						{
							"components": [
								{
									"internalType": "string",
									"name": "imgUrl",
									"type": "string"
								},
								{
									"internalType": "string",
									"name": "name",
									"type": "string"
								},
								{
									"internalType": "bytes",
									"name": "desc",
									"type": "bytes"
								},
								{
									"internalType": "string",
									"name": "advantages",
									"type": "string"
								},
								{
									"internalType": "string",
									"name": "videoUrl",
									"type": "string"
								},
								{
									"internalType": "uint256",
									"name": "salePrice",
									"type": "uint256"
								},
								{
									"internalType": "uint256",
									"name": "rentalPrice",
									"type": "uint256"
								},
								{
									"internalType": "uint256",
									"name": "monthlyPrice",
									"type": "uint256"
								},
								{
									"internalType": "uint256",
									"name": "sixMonthsPrice",
									"type": "uint256"
								},
								{
									"internalType": "uint256",
									"name": "yearlyPrice",
									"type": "uint256"
								}
							],
							"internalType": "struct createProductParams",
							"name": "params",
							"type": "tuple"
						},
						{
							"internalType": "uint256",
							"name": "storageQuantity",
							"type": "uint256"
						},
						{
							"internalType": "uint256",
							"name": "saleQuantity",
							"type": "uint256"
						},
						{
							"internalType": "uint256",
							"name": "hireQuantity",
							"type": "uint256"
						},
						{
							"internalType": "uint256",
							"name": "returnHiredQuantity",
							"type": "uint256"
						},
						{
							"internalType": "uint256",
							"name": "remainTime",
							"type": "uint256"
						},
						{
							"internalType": "uint256",
							"name": "updateAt",
							"type": "uint256"
						},
						{
							"internalType": "bool",
							"name": "active",
							"type": "bool"
						}
					],
					"internalType": "struct Product",
					"name": "rs",
					"type": "tuple"
				}
			],
			"stateMutability": "view",
			"type": "function"
		},
		{
			"inputs": [
				{
					"internalType": "uint256",
					"name": "_updateAt",
					"type": "uint256"
				},
				{
					"internalType": "uint256",
					"name": "_index",
					"type": "uint256"
				},
				{
					"internalType": "uint256",
					"name": "_limit",
					"type": "uint256"
				}
			],
			"name": "ViewProducts",
			"outputs": [
				{
					"components": [
						{
							"internalType": "bytes32",
							"name": "id",
							"type": "bytes32"
						},
						{
							"components": [
								{
									"internalType": "string",
									"name": "imgUrl",
									"type": "string"
								},
								{
									"internalType": "string",
									"name": "name",
									"type": "string"
								},
								{
									"internalType": "bytes",
									"name": "desc",
									"type": "bytes"
								},
								{
									"internalType": "string",
									"name": "advantages",
									"type": "string"
								},
								{
									"internalType": "string",
									"name": "videoUrl",
									"type": "string"
								},
								{
									"internalType": "uint256",
									"name": "salePrice",
									"type": "uint256"
								},
								{
									"internalType": "uint256",
									"name": "rentalPrice",
									"type": "uint256"
								},
								{
									"internalType": "uint256",
									"name": "monthlyPrice",
									"type": "uint256"
								},
								{
									"internalType": "uint256",
									"name": "sixMonthsPrice",
									"type": "uint256"
								},
								{
									"internalType": "uint256",
									"name": "yearlyPrice",
									"type": "uint256"
								}
							],
							"internalType": "struct createProductParams",
							"name": "params",
							"type": "tuple"
						},
						{
							"internalType": "uint256",
							"name": "storageQuantity",
							"type": "uint256"
						},
						{
							"internalType": "uint256",
							"name": "saleQuantity",
							"type": "uint256"
						},
						{
							"internalType": "uint256",
							"name": "hireQuantity",
							"type": "uint256"
						},
						{
							"internalType": "uint256",
							"name": "returnHiredQuantity",
							"type": "uint256"
						},
						{
							"internalType": "uint256",
							"name": "remainTime",
							"type": "uint256"
						},
						{
							"internalType": "uint256",
							"name": "updateAt",
							"type": "uint256"
						},
						{
							"internalType": "bool",
							"name": "active",
							"type": "bool"
						}
					],
					"internalType": "struct Product[]",
					"name": "rs",
					"type": "tuple[]"
				},
				{
					"internalType": "bool",
					"name": "isMore",
					"type": "bool"
				},
				{
					"internalType": "uint256",
					"name": "lastIndex",
					"type": "uint256"
				}
			],
			"stateMutability": "view",
			"type": "function"
		},
		{
			"inputs": [
				{
					"internalType": "uint256",
					"name": "beginTime",
					"type": "uint256"
				},
				{
					"internalType": "uint256",
					"name": "endTime",
					"type": "uint256"
				},
				{
					"internalType": "uint256[]",
					"name": "sortedArray",
					"type": "uint256[]"
				}
			],
			"name": "countElementsInRange",
			"outputs": [
				{
					"internalType": "uint256",
					"name": "count",
					"type": "uint256"
				}
			],
			"stateMutability": "pure",
			"type": "function"
		},
		{
			"inputs": [
				{
					"internalType": "bytes32",
					"name": "_productID",
					"type": "bytes32"
				}
			],
			"name": "getProductTrend",
			"outputs": [
				{
					"internalType": "uint256[]",
					"name": "",
					"type": "uint256[]"
				}
			],
			"stateMutability": "view",
			"type": "function"
		},
		{
			"inputs": [
				{
					"internalType": "bytes32",
					"name": "_productID",
					"type": "bytes32"
				},
				{
					"internalType": "uint256",
					"name": "_from",
					"type": "uint256"
				},
				{
					"internalType": "uint256",
					"name": "_to",
					"type": "uint256"
				}
			],
			"name": "getProductTrendByTime",
			"outputs": [
				{
					"internalType": "uint256",
					"name": "count",
					"type": "uint256"
				}
			],
			"stateMutability": "view",
			"type": "function"
		},
		{
			"inputs": [
				{
					"internalType": "bytes32",
					"name": "_productID",
					"type": "bytes32"
				}
			],
			"name": "getProductViewCount",
			"outputs": [
				{
					"internalType": "uint256",
					"name": "",
					"type": "uint256"
				}
			],
			"stateMutability": "view",
			"type": "function"
		},
		{
			"inputs": [
				{
					"internalType": "address",
					"name": "hirer",
					"type": "address"
				},
				{
					"internalType": "bytes32",
					"name": "_orderId",
					"type": "bytes32"
				},
				{
					"internalType": "bytes32",
					"name": "_idProduct",
					"type": "bytes32"
				}
			],
			"name": "getRentalInfo",
			"outputs": [
				{
					"internalType": "uint256",
					"name": "rentalAmount",
					"type": "uint256"
				},
				{
					"internalType": "uint256",
					"name": "nextTime",
					"type": "uint256"
				}
			],
			"stateMutability": "view",
			"type": "function"
		},
		{
			"inputs": [
				{
					"internalType": "bytes32",
					"name": "_orderId",
					"type": "bytes32"
				}
			],
			"name": "getShipInfo",
			"outputs": [
				{
					"components": [
						{
							"internalType": "string",
							"name": "firstName",
							"type": "string"
						},
						{
							"internalType": "string",
							"name": "lastName",
							"type": "string"
						},
						{
							"internalType": "string",
							"name": "email",
							"type": "string"
						},
						{
							"internalType": "string",
							"name": "country",
							"type": "string"
						},
						{
							"internalType": "string",
							"name": "city",
							"type": "string"
						},
						{
							"internalType": "string",
							"name": "stateOrProvince",
							"type": "string"
						},
						{
							"internalType": "string",
							"name": "postalCode",
							"type": "string"
						},
						{
							"internalType": "string",
							"name": "phone",
							"type": "string"
						},
						{
							"internalType": "string",
							"name": "addressDetail",
							"type": "string"
						}
					],
					"internalType": "struct ShippingParams",
					"name": "",
					"type": "tuple"
				}
			],
			"stateMutability": "view",
			"type": "function"
		},
		{
			"inputs": [
				{
					"internalType": "bytes32",
					"name": "_orderId",
					"type": "bytes32"
				}
			],
			"name": "getmIDTOOrder",
			"outputs": [
				{
					"components": [
						{
							"internalType": "bytes32",
							"name": "id",
							"type": "bytes32"
						},
						{
							"internalType": "address",
							"name": "customer",
							"type": "address"
						},
						{
							"components": [
								{
									"internalType": "bytes32",
									"name": "id",
									"type": "bytes32"
								},
								{
									"internalType": "uint256",
									"name": "quantity",
									"type": "uint256"
								},
								{
									"internalType": "enum SUBCRIPTION_TYPE",
									"name": "typ",
									"type": "uint8"
								},
								{
									"internalType": "string",
									"name": "productName",
									"type": "string"
								},
								{
									"internalType": "string",
									"name": "imgUrl",
									"type": "string"
								}
							],
							"internalType": "struct OrderDetail[]",
							"name": "products",
							"type": "tuple[]"
						},
						{
							"internalType": "uint256",
							"name": "createAt",
							"type": "uint256"
						},
						{
							"components": [
								{
									"internalType": "string",
									"name": "firstName",
									"type": "string"
								},
								{
									"internalType": "string",
									"name": "lastName",
									"type": "string"
								},
								{
									"internalType": "string",
									"name": "email",
									"type": "string"
								},
								{
									"internalType": "string",
									"name": "country",
									"type": "string"
								},
								{
									"internalType": "string",
									"name": "city",
									"type": "string"
								},
								{
									"internalType": "string",
									"name": "stateOrProvince",
									"type": "string"
								},
								{
									"internalType": "string",
									"name": "postalCode",
									"type": "string"
								},
								{
									"internalType": "string",
									"name": "phone",
									"type": "string"
								},
								{
									"internalType": "string",
									"name": "addressDetail",
									"type": "string"
								}
							],
							"internalType": "struct ShippingParams",
							"name": "shipInfo",
							"type": "tuple"
						},
						{
							"internalType": "uint256",
							"name": "shippingFee",
							"type": "uint256"
						}
					],
					"internalType": "struct Order",
					"name": "",
					"type": "tuple"
				}
			],
			"stateMutability": "view",
			"type": "function"
		},
		{
			"inputs": [
				{
					"internalType": "address",
					"name": "",
					"type": "address"
				},
				{
					"internalType": "uint256",
					"name": "",
					"type": "uint256"
				}
			],
			"name": "mAddressTOOrderID",
			"outputs": [
				{
					"internalType": "bytes32",
					"name": "",
					"type": "bytes32"
				}
			],
			"stateMutability": "view",
			"type": "function"
		},
		{
			"inputs": [
				{
					"internalType": "bytes32",
					"name": "",
					"type": "bytes32"
				}
			],
			"name": "mIDToProduct",
			"outputs": [
				{
					"internalType": "bytes32",
					"name": "id",
					"type": "bytes32"
				},
				{
					"components": [
						{
							"internalType": "string",
							"name": "imgUrl",
							"type": "string"
						},
						{
							"internalType": "string",
							"name": "name",
							"type": "string"
						},
						{
							"internalType": "bytes",
							"name": "desc",
							"type": "bytes"
						},
						{
							"internalType": "string",
							"name": "advantages",
							"type": "string"
						},
						{
							"internalType": "string",
							"name": "videoUrl",
							"type": "string"
						},
						{
							"internalType": "uint256",
							"name": "salePrice",
							"type": "uint256"
						},
						{
							"internalType": "uint256",
							"name": "rentalPrice",
							"type": "uint256"
						},
						{
							"internalType": "uint256",
							"name": "monthlyPrice",
							"type": "uint256"
						},
						{
							"internalType": "uint256",
							"name": "sixMonthsPrice",
							"type": "uint256"
						},
						{
							"internalType": "uint256",
							"name": "yearlyPrice",
							"type": "uint256"
						}
					],
					"internalType": "struct createProductParams",
					"name": "params",
					"type": "tuple"
				},
				{
					"internalType": "uint256",
					"name": "storageQuantity",
					"type": "uint256"
				},
				{
					"internalType": "uint256",
					"name": "saleQuantity",
					"type": "uint256"
				},
				{
					"internalType": "uint256",
					"name": "hireQuantity",
					"type": "uint256"
				},
				{
					"internalType": "uint256",
					"name": "returnHiredQuantity",
					"type": "uint256"
				},
				{
					"internalType": "uint256",
					"name": "remainTime",
					"type": "uint256"
				},
				{
					"internalType": "uint256",
					"name": "updateAt",
					"type": "uint256"
				},
				{
					"internalType": "bool",
					"name": "active",
					"type": "bool"
				}
			],
			"stateMutability": "view",
			"type": "function"
		},
		{
			"inputs": [
				{
					"internalType": "bytes32",
					"name": "",
					"type": "bytes32"
				},
				{
					"internalType": "uint256",
					"name": "",
					"type": "uint256"
				}
			],
			"name": "mProductSearchTrend",
			"outputs": [
				{
					"internalType": "uint256",
					"name": "",
					"type": "uint256"
				}
			],
			"stateMutability": "view",
			"type": "function"
		},
		{
			"inputs": [
				{
					"internalType": "bytes32",
					"name": "",
					"type": "bytes32"
				}
			],
			"name": "mProductViewCount",
			"outputs": [
				{
					"internalType": "uint256",
					"name": "",
					"type": "uint256"
				}
			],
			"stateMutability": "view",
			"type": "function"
		},
		{
			"inputs": [
				{
					"internalType": "uint256",
					"name": "",
					"type": "uint256"
				}
			],
			"name": "mShippingInfo",
			"outputs": [
				{
					"internalType": "string",
					"name": "firstName",
					"type": "string"
				},
				{
					"internalType": "string",
					"name": "lastName",
					"type": "string"
				},
				{
					"internalType": "string",
					"name": "email",
					"type": "string"
				},
				{
					"internalType": "string",
					"name": "country",
					"type": "string"
				},
				{
					"internalType": "string",
					"name": "city",
					"type": "string"
				},
				{
					"internalType": "string",
					"name": "stateOrProvince",
					"type": "string"
				},
				{
					"internalType": "string",
					"name": "postalCode",
					"type": "string"
				},
				{
					"internalType": "string",
					"name": "phone",
					"type": "string"
				},
				{
					"internalType": "string",
					"name": "addressDetail",
					"type": "string"
				}
			],
			"stateMutability": "view",
			"type": "function"
		},
		{
			"inputs": [
				{
					"internalType": "address",
					"name": "",
					"type": "address"
				},
				{
					"internalType": "uint256",
					"name": "",
					"type": "uint256"
				}
			],
			"name": "mShippingInfoByAddress",
			"outputs": [
				{
					"internalType": "uint256",
					"name": "",
					"type": "uint256"
				}
			],
			"stateMutability": "view",
			"type": "function"
		},
		{
			"inputs": [
				{
					"internalType": "uint256",
					"name": "",
					"type": "uint256"
				}
			],
			"name": "mShippingInfoByOrder",
			"outputs": [
				{
					"internalType": "uint256",
					"name": "",
					"type": "uint256"
				}
			],
			"stateMutability": "view",
			"type": "function"
		},
		{
			"inputs": [],
			"name": "shippingCounter",
			"outputs": [
				{
					"internalType": "uint256",
					"name": "",
					"type": "uint256"
				}
			],
			"stateMutability": "view",
			"type": "function"
		},
		{
			"inputs": [
				{
					"internalType": "bytes32",
					"name": "_productID",
					"type": "bytes32"
				}
			],
			"name": "updateViewCount",
			"outputs": [],
			"stateMutability": "nonpayable",
			"type": "function"
		}
	]
}