{
	"data": {
		"bytecode": {
			"linkReferences": {},
			"object": "60808060405260018060a01b03193381600354161760035560028160045416176004556000338152600860205260408120600160ff1982541617905560055490680100000000000000008210156100af57600182018060055582101561009b57600590527f036b6384b5eca791c62761152d0c79bb0604c104a5fb6f4eb0703f3154bb3db0018054909116331790556144c59081620000c48239f35b634e487b7160e01b81526032600452602490fd5b634e487b7160e01b81526041600452602490fdfe6080604052600436101561001257600080fd5b60003560e01c806302b572d614613299578063041cbb161461322257806305d0af0b14612e4b5780630b0fe44c14612e1a5780630c2ed96714612da85780630f8472ff14612d6b578063103bb2b514612d2457806312ee84ef14612c215780631c787f3e14612c035780631e98fd1c14612ba857806327b50845146118a9578063350f31ea146117c25780633f81714c146115fc5780635202361014610ee55780635a27240314610e195780635c8d05a414610d785780635d977ee114610cca578063673047ba14610c245780636f0243f314610bfb5780637cf388ee14610a295780637f7c0808146109dd5780637f8c678f1461099357806394284cbd1461096a578063951a5662146108d35780639f89a4b214610878578063a2b2fb5514610827578063a559934e146107db578063acfa58d2146101c9578063af669326146105bc578063b11e3c1a1461057d578063b358fa8e14610509578063b4a99a4e146104e0578063bfbe3ef7146104b4578063cb4e841b1461048b578063da31f88a146102c7578063ddcd64081461027b578063f09610c714610223578063fb7ef377146101fa5763fdd719b1146101c957600080fd5b346101f55760203660031901126101f557600435600052600f6020526020604060002054604051908152f35b600080fd5b346101f55760003660031901126101f5576002546040516001600160a01b039091168152602090f35b346101f55760403660031901126101f55761023c6132e3565b6001600160a01b03166000908152600e60205260409020805460243591908210156101f55760209161026d9161337a565b90546040519160031b1c8152f35b346101f55760203660031901126101f5576102946132e3565b6003546001600160a01b0391906102ae90831633146138a7565b166001600160601b0360a01b6004541617600455600080f35b346101f55760203660031901126101f55760043560005260096020526040600020604051806102f68184613684565b036103019082613400565b60405191826103138160018401613684565b0361031e9084613400565b6040518061032f8160028501613684565b0361033a9082613400565b6040518061034b8160038601613684565b036103569082613400565b604051806103678160048701613684565b036103729082613400565b60405190816103848160058801613684565b0361038f9083613400565b60405192836103a18160068901613684565b036103ac9085613400565b60405194856103be8160078a01613684565b036103c99087613400565b604051806008819901906103dc91613684565b036103e79088613400565b604051988998610120808b528a016103fe916134b0565b89810360208b015261040f916134b0565b88810360408a0152610420916134b0565b8781036060890152610431916134b0565b8681036080880152610442916134b0565b85810360a0870152610453916134b0565b84810360c0860152610464916134b0565b83810360e0850152610475916134b0565b828103610100840152610487916134b0565b0390f35b346101f55760203660031901126101f5576004356000548110156101f55761026d6020916132f9565b346101f55760203660031901126101f557600435600052600c6020526020604060002054604051908152f35b346101f55760003660031901126101f5576003546040516001600160a01b039091168152602090f35b346101f55760603660031901126101f55760406105246132e3565b6001600160a01b0316600081815260136020908152838220602435808452908252848320604435808552908352858420549484526012835285842091845290825284832090835281529083902054835192835290820152f35b346101f55760203660031901126101f5576001600160a01b0361059e6132e3565b166000526008602052602060ff604060002054166040519015158152f35b346101f55760403660031901126101f5576004356024359080600052602091600a835260018060a01b039182600160406000200154168060005260138552604060002082600052855260406000208360005285526106628560406000205486819760045416906002541660006040518096819582946323b872dd60e01b8452336004850160409194939294606082019560018060a01b0380921683521660208201520152565b03925af180156107cf576107a2575b5080600052601485526040600020826000528552604060002083600052855260ff600260406000200154168160005260128652604060002083600052865260406000208460005286526106d26040600020546106cc83613cc4565b90613f9c565b82600052601287526040600020846000528752604060002085600052875260406000205581600052601286526040600020836000528652604060002084600052865260406000205494600482101561078c57604080516001600160a01b03949094168452602084019490945292820193909352426060820152608081019390935260a083015260c08201527fb53e83884fd4f0f2dc740f6baf6d8786edd21113fe391249904e725a6b3117309060e090a160405160018152f35b634e487b7160e01b600052602160045260246000fd5b6107c190863d88116107c8575b6107b98183613400565b810190613cac565b5085610671565b503d6107af565b6040513d6000823e3d90fd5b346101f55760203660031901126101f5576107f46132e3565b6003546001600160a01b03919061080e90831633146138a7565b166001600160601b0360a01b6002541617600255600080f35b346101f55760203660031901126101f5576004356015548110156101f55760209060156000527f55f448fdea98c4d29eb340757ef0a66cd03dbb9538908a6a81d96026b71ec4750154604051908152f35b346101f55760203660031901126101f5576004356005548110156101f55760056000527f036b6384b5eca791c62761152d0c79bb0604c104a5fb6f4eb0703f3154bb3db001546040516001600160a01b039091168152602090f35b346101f55760603660031901126101f5576044356001600160401b0381116101f557366023820112156101f557806004013561090e81613633565b61091b6040519182613400565b81815260209260248483019360051b820101923684116101f5576024859201905b84821061095b578261095385602435600435613e31565b604051908152f35b8135815290820190820161093c565b346101f55760003660031901126101f5576004546040516001600160a01b039091168152602090f35b346101f5576109a136613477565b903360005260086020526109c1600160ff6040600020541615151461392a565b600052600b602052601060406000200155602060405160018152f35b346101f55760203660031901126101f5576109f6613d01565b50600435600052600a602052610487610a156004604060002001613d45565b6040519182916020835260208301906137e5565b346101f5576020806003193601126101f557604051610a47816133c9565b60008152600082820152600060a06060928360408201528284820152610a6b613d01565b60808201520152600435600052600a8252604060002060405190610a8e826133c9565b8054825260018060a01b039160019383858401541694868301958652600292838501805490610abc82613633565b95610aca6040519788613400565b82875260009182528a8220908b88015b848410610bb457505050505060408101938452600385015493838201948552600d610b0760048801613d45565b966080840197885201549660a08301978852604051988a8a5260e08a0193518b8b015251166040890152519760c08489015288518092528061010089019901936000905b838210610b7e5789808a610b738e8c8c51608086015251601f198583030160a08601526137e5565b905160c08301520390f35b909192938382879c610ba66040859a51805184528581015186850152015160408301906137d8565b019b01959493920190610b4b565b9560038d82999e9798604051610bc9816133ae565b865481528487015483820152610be860ff878901541660408301613ca0565b8152019301930192919b9695949b610ada565b346101f55760203660031901126101f5576004356001548110156101f55761026d602091613343565b346101f5576020806003193601126101f55760043560005260108152604060002060405190818382549182815201908192600052846000209060005b86828210610cb6578686610c7682880383613400565b604051928392818401908285525180915260408401929160005b828110610c9f57505050500390f35b835185528695509381019392810192600101610c90565b835485529093019260019283019201610c60565b346101f55760203660031901126101f557610ce3613b94565b50600435600052600b602052610487604060002060ff601160405192610d0884613392565b80548452610d186001820161371a565b6020850152600b8101546040850152600c8101546060850152600d8101546080850152600e81015460a0850152600f81015460c0850152601081015460e08501520154161515610100820152604051918291602083526020830190613574565b346101f55760203660031901126101f557600435600052600b60205260406000208054610da76001830161371a565b91600b81015490600c81015490600d810154600e820154600f8301549160ff601160108601549501541694610dee604051998a998a526101208060208c01528a01906134d5565b9660408901526060880152608087015260a086015260c085015260e084015215156101008301520390f35b346101f55760203660031901126101f557610e326132e3565b6003546001600160a01b039190610e4c90831633146138a7565b168060005260086020526040600020600160ff19825416179055600554600160401b811015610ecf576001810180600555811015610eb9577f036b6384b5eca791c62761152d0c79bb0604c104a5fb6f4eb0703f3154bb3db00180546001600160a01b0319169091179055005b634e487b7160e01b600052603260045260246000fd5b634e487b7160e01b600052604160045260246000fd5b346101f5576101a03660031901126101f5576004356001600160401b0381116101f557610f16903690600401613421565b6024356001600160401b0381116101f557610f35903690600401613421565b6044356001600160401b0381116101f557610f54903690600401613421565b6064356001600160401b0381116101f557610f73903690600401613421565b6084356001600160401b0381116101f557610f92903690600401613421565b90610184359283151584036101f557336000526008602052610fc0600160ff6040600020541615151461392a565b604051602081019061101260208281610fdf8c8781519384920161348d565b8a51908201610ff382858301868f0161348d565b0186519061100682858301868b0161348d565b01038084520182613400565b5190209460405196611023886133e4565b8752602087015260408601526060850152608084015260a43560a084015260c43560c084015260e43560e084015261010435610100840152610124356101208401526040519261107284613392565b82845260208401526101443560408401526000606084015260006080840152600060a08401526101643560c08401524260e084015280151561010084015281600052600b6020526040600020928051845560208101519384518051906001600160401b038211610ecf5781906110f8826110ef600187015461364a565b600187016139ad565b602090601f831160011461158a5760009261157f575b50508160011b916000199060031b1c19161760018201555b60208501518051906001600160401b038211610ecf5781906111588261114f600287015461364a565b600287016139ad565b602090601f831160011461150d57600092611502575b50508160011b916000199060031b1c19161760028201555b60408501518051906001600160401b038211610ecf5781906111b8826111af600387015461364a565b600387016139ad565b602090601f831160011461149057600092611485575b50508160011b916000199060031b1c19161760038201555b60608501518051906001600160401b038211610ecf5781906112188261120f600487015461364a565b600487016139ad565b602090601f831160011461141357600092611408575b50508160011b916000199060031b1c19161760048201555b60808501519485516001600160401b038111610ecf576112768161126d600586015461364a565b600586016139ad565b6020601f821160011461138d576011928261010095936101209360019a9b600092611382575b5050600019600383901b1c191690891b1760058401555b60a0810151600684015560c0810151600784015560e081015160088401558481015160098401550151600a8201556040840151600b8201556060840151600c8201556080840151600d82015560a0840151600e82015560c0840151600f82015560e0840151601082015501910151151560ff80198354169116179055151514611374575b600054600160401b811015610ecf5761135981600161137093016000556132f9565b819391549060031b91821b91600019901b19161790565b9055005b61137d81613a01565b611337565b015190508b8061129c565b6005840160005260206000209760005b601f19841681106113f057509260018381999a610120946011976101009997601f198116106113d7575b505050811b0160058401556112b3565b015160001960f88460031b161c191690558b80806113c7565b828201518a556001909901986020928301920161139d565b01519050878061122e565b9250600484016000526020600020906000935b601f198416851061146a576001945083601f19811610611451575b505050811b016004820155611246565b015160001960f88460031b161c19169055878080611441565b81810151835560209485019460019093019290910190611426565b0151905087806111ce565b9250600384016000526020600020906000935b601f19841685106114e7576001945083601f198116106114ce575b505050811b0160038201556111e6565b015160001960f88460031b161c191690558780806114be565b818101518355602094850194600190930192909101906114a3565b01519050878061116e565b9250600284016000526020600020906000935b601f1984168510611564576001945083601f1981161061154b575b505050811b016002820155611186565b015160001960f88460031b161c1916905587808061153b565b81810151835560209485019460019093019290910190611520565b01519050878061110e565b9250600184016000526020600020906000935b601f19841685106115e1576001945083601f198116106115c8575b505050811b016001820155611126565b015160001960f88460031b161c191690558780806115b8565b8181015183556020948501946001909301929091019061159d565b346101f5576060806003193601126101f55760243590600435600060443561162381613c1c565b946000936000926001918254935b8481106116a9575b505050505061164781613c1c565b9460005b82811061167a575050506116696040519484869586528501906135de565b911515602084015260408301520390f35b806116886116a49284613c6c565b51611693828a613c6c565b5261169e8189613c6c565b50613a27565b61164b565b6116b281613343565b9054600391821b1c600052600b60209181835260109081604060002001548611156116ea575b505050506116e590613a27565b611631565b909192939899868b106000146117ab57509160119160ff9361170b8b613343565b9054911b1c6000528185526040600020916040519561172987613392565b835487526117388a850161371a565b908701528201546040860152600c8201548d860152600d8201546080860152600e82015460a0860152600f82015460c086015281015460e08501520154161515610100820152611788878b613c6c565b52611793868a613c6c565b506116e56117a18697613a27565b95908b80806116d8565b999a50505050505050915050918580808080611639565b346101f55760003660031901126101f557600180546117e081613c1c565b9160005b8281106118015760405160208082528190610487908201876135de565b8061180e6118a492613343565b90549060031b1c600052600b60ff60116020928084526040600020906040519461183786613392565b8254865261184689840161371a565b908601528101546040850152600c8101546060850152600d8101546080850152600e81015460a0850152600f81015460c0850152601081015460e085015201541615156101008201526118998287613c6c565b5261169e8186613c6c565b6117e4565b346101f5576003196060368201126101f557600435906001600160401b0382116101f557366023830112156101f55781600401356118e681613633565b926118f46040519485613400565b81845260246060602086019302820101903682116101f557602401915b818310612b5e575050506001600160401b03602435116101f55761012090602435360301126101f55760405161194681613392565b602435600401356001600160401b0381116101f55761196d90600436916024350101613421565b81526024803501356001600160401b0381116101f55761199590600436916024350101613421565b6020820152604460243501356001600160401b0381116101f5576119c190600436916024350101613421565b6040820152606460243501356001600160401b0381116101f5576119ed90600436916024350101613421565b6060820152608460243501356001600160401b0381116101f557611a1990600436916024350101613421565b60808201526001600160401b0360a46024350135116101f557611a473660243560a481013501600401613421565b60a08201526001600160401b0360c46024350135116101f557611a753660243560c481013501600401613421565b60c08201526001600160401b0360e46024350135116101f557611aa33660243560e481013501600401613421565b60e08201526001600160401b036101046024350135116101f557611ad33660243561010481013501600401613421565b6101008201526044356001600160a01b03811690036101f557815160405160208101916001600160601b031960443560601b168352603482015242605482015260548152608081018181106001600160401b03821117610ecf57604052519020600092835b815185101561208057611b4b8583613c6c565b51948551600052600b60205260406000205415611fef5760046040870151101561078c578551600052600b602052604060002091600b83015415611faa576040870151600481101561078c57611d0857611be090611bda60208901611bb58151600b880154613a99565b600b8701558051611bcb600c8801918254613c80565b90556006860154905190613c8d565b90613c80565b955b60066020820151930154604082015191600483101561078c575160018060a01b036002541660405191826101008101106001600160401b0361010085011117610ecf57611c787f38519ea73ce180eec93f979fe8ca4032a864ea12a395231678293c7fd45946e89561010095611d029987870160405260018060a01b036044351687526020870152604086015260608501613ca0565b42608084015260a08301523360c083015260e08201526040519060018060a01b0381511682526020810151602083015260408101516040830152611cc4606082015160608401906137d8565b6080810151608083015260a081015160a083015260018060a01b0360c08201511660c083015260e060018060a01b039101511660e0820152a1613a27565b93611b38565b60008751600052600b60205260406000209160009260408a0151600481101561078c57600114611f85575b60408a0151600481101561078c57600214611f60575b60408a0151600481101561078c57600314611f26575b60208a0151611d73600b8301918254613a99565b9055611d89600d60208c01519201918254613c80565b905560018060a01b0360443516600052601160205260406000208760005260205260406000208951600052602052426040600020556040890151600481101561078c57611dd8611dde91613cc4565b42613f9c565b6044356001600160a01b031660008181526012602090815260408083208c845282528083208e518452825280832094909455828252601381528382208b835281528382208d5183528152838220879055918152601482528281208a825282528281208c51825282528290208b518155908b01516001820155908a015190600482101561078c576002019060ff8019835416911617905588519260018060a01b0360443516600052601260205260406000208860005260205260406000208a516000526020526040600020549360408b015190600482101561078c57604080516044356001600160a01b03168152602081018c905290810191909152426060820152608081019590955260a085015260c0840152611f20927fb53e83884fd4f0f2dc740f6baf6d8786edd21113fe391249904e725a6b3117309060e090a1613c80565b95611be2565b9150611f559250611f5a600a830154611f4560208c0191825190613c8d565b9485916007860154905190613c8d565b613c80565b91611d5f565b9150611f559250611f7f6009830154611f4560208c0191825190613c8d565b91611d49565b9150611f559250611fa46008830154611f4560208c0191825190613c8d565b91611d33565b60405162461bcd60e51b815260206004820152601d60248201527f70726f647563742073746f72616765206973206e6f7420656e6f7567680000006044820152606490fd5b60405162461bcd60e51b815260206004820152605b60248201527f7b2266726f6d223a2022466943616d2e736f6c222c2022636f6465223a20342c60448201527f20226d657373616765223a2022496e76616c69642070726f647563742049442060648201527f6f722070726f6475637420646f6573206e6f74206578697374227d0000000000608482015260a490fd5b600480546002546040516323b872dd60e01b815233938101939093526001600160a01b0390811660248401526044830193909352859260209183916064918391600091165af19081156107cf57600091612b3f575b5015612b0257604051906120e8826133c9565b83825260018060a01b03604435166020830152604082019283524260608301526080820152600560a082015282600052600a602052604060002091815183556001830160018060a01b036020840151166001600160601b0360a01b82541617905551805190600160401b8211610ecf576002840154826002860155808310612a93575b50602001906002840160005260206000206000925b828410612a50575050505060608101516003830155608081015180518051906001600160401b038211610ecf5781906121c9826121c0600489015461364a565b600489016139ad565b602090601f83116001146129de576000926129d3575b50508160011b916000199060031b1c19161760048401555b60208101518051906001600160401b038211610ecf57819061222982612220600589015461364a565b600589016139ad565b602090601f831160011461296157600092612956575b50508160011b916000199060031b1c19161760058401555b60408101518051906001600160401b038211610ecf57819061228982612280600689015461364a565b600689016139ad565b602090601f83116001146128e4576000926128d9575b50508160011b916000199060031b1c19161760068401555b60608101518051906001600160401b038211610ecf5781906122e9826122e0600789015461364a565b600789016139ad565b602090601f83116001146128675760009261285c575b50508160011b916000199060031b1c19161760078401555b60808101518051906001600160401b038211610ecf57819061234982612340600889015461364a565b600889016139ad565b602090601f83116001146127ea576000926127df575b50508160011b916000199060031b1c19161760088401555b60a08101518051906001600160401b038211610ecf5781906123a9826123a0600989015461364a565b600989016139ad565b602090601f831160011461276d57600092612762575b50508160011b916000199060031b1c19161760098401555b60c08101518051906001600160401b038211610ecf57819061240982612400600a89015461364a565b600a89016139ad565b602090601f83116001146126f0576000926126e5575b50508160011b916000199060031b1c191617600a8401555b60e08101518051906001600160401b038211610ecf576124678261245e600b88015461364a565b600b88016139ad565b602090601f83116001146126715761010093929160009183612666575b50508160011b916000199060031b1c191617600b8501555b015180516001600160401b038111610ecf57600c8401916124c7826124c1855461364a565b856139ad565b602090601f83116001146125f857918060a09492600d96946000926125ed575b50508160011b916000199060031b1c19161790555b01519101556044356001600160a01b03166000908152600e602052604090208054600160401b811015610ecf57611359818493600161253d9401815561337a565b9055600654600160401b811015610ecf576001810180600655811015610eb9577ff652222313e28459528d920b65115c16c04f3efc82aaedc97be59f3f377c0d3f0180546001600160a01b0319166044356001600160a01b031617905560155490600160401b821015610ecf576001820180601555821015610eb9578060209260156000527f55f448fdea98c4d29eb340757ef0a66cd03dbb9538908a6a81d96026b71ec4750155604051908152f35b0151905088806124e7565b90601f198316918460005260206000209260005b81811061264e5750926001928592600d989660a0989610612635575b505050811b0190556124fc565b015160001960f88460031b161c19169055888080612628565b9293602060018192878601518155019501930161260c565b015190508780612484565b90600b860160005260206000209160005b601f19851681106126cd57509183916001936101009695601f198116106126b4575b505050811b01600b85015561249c565b015160001960f88460031b161c191690558780806126a4565b91926020600181928685015181550194019201612682565b01519050868061241f565b9250600a86016000526020600020906000935b601f1984168510612747576001945083601f1981161061272e575b505050811b01600a840155612437565b015160001960f88460031b161c1916905586808061271e565b81810151835560209485019460019093019290910190612703565b0151905086806123bf565b9250600986016000526020600020906000935b601f19841685106127c4576001945083601f198116106127ab575b505050811b0160098401556123d7565b015160001960f88460031b161c1916905586808061279b565b81810151835560209485019460019093019290910190612780565b01519050868061235f565b9250600886016000526020600020906000935b601f1984168510612841576001945083601f19811610612828575b505050811b016008840155612377565b015160001960f88460031b161c19169055868080612818565b818101518355602094850194600190930192909101906127fd565b0151905086806122ff565b9250600786016000526020600020906000935b601f19841685106128be576001945083601f198116106128a5575b505050811b016007840155612317565b015160001960f88460031b161c19169055868080612895565b8181015183556020948501946001909301929091019061287a565b01519050868061229f565b9250600686016000526020600020906000935b601f198416851061293b576001945083601f19811610612922575b505050811b0160068401556122b7565b015160001960f88460031b161c19169055868080612912565b818101518355602094850194600190930192909101906128f7565b01519050868061223f565b9250600586016000526020600020906000935b601f19841685106129b8576001945083601f1981161061299f575b505050811b016005840155612257565b015160001960f88460031b161c1916905586808061298f565b81810151835560209485019460019093019290910190612974565b0151905086806121df565b9250600486016000526020600020906000935b601f1984168510612a35576001945083601f19811610612a1c575b505050811b0160048401556121f7565b015160001960f88460031b161c19169055868080612a0c565b818101518355602094850194600190930192909101906129f1565b604081518051845560208101516001850155015190600482101561078c576020600391600193600286019060ff8019835416911617905501920193019290612180565b6003818102048103612aec576003838102048303612aec576002850160005260206000208360030281015b8260030282018110612ad157505061216b565b80600060039255600060018201556000600282015501612abe565b634e487b7160e01b600052601160045260246000fd5b60405162461bcd60e51b8152602060048201526015602482015274151bdad95b881d1c985b9cd9995c8819985a5b1959605a1b6044820152606490fd5b612b58915060203d6020116107c8576107b98183613400565b846120d5565b6060833603126101f55760405190612b75826133ae565b833582526020840135602083015260408401359060048210156101f5578260209260406060950152815201920191611911565b346101f55760203660031901126101f5576004356006548110156101f55760066000527ff652222313e28459528d920b65115c16c04f3efc82aaedc97be59f3f377c0d3f01546040516001600160a01b039091168152602090f35b346101f55760003660031901126101f5576020600754604051908152f35b346101f55760003660031901126101f5573360005260206008815260019060ff91612c5681846040600020541615151461392a565b60005490612c6382613c1c565b9360005b838110612c815760405185815280610487818801896135de565b80612c8e612d1f926132f9565b90549060031b1c600052600b808752836011604060002060405193612cb285613392565b81548552612cc189830161371a565b8b8601528101546040850152600c8101546060850152600d8101546080850152600e81015460a0850152600f81015460c0850152601081015460e08501520154161515610100820152612d148289613c6c565b5261169e8188613c6c565b612c67565b346101f55760203660031901126101f557336000526008602052612d54600160ff6040600020541615151461392a565b6020612d61600435613a36565b6040519015158152f35b346101f55760203660031901126101f557336000526008602052612d9b600160ff6040600020541615151461392a565b6020612d61600435613aa6565b346101f55760603660031901126101f55760043560005260206010815260406000206040519081838254918281520191600052836000209060005b85828210612e065761095386612dfb81880382613400565b604435602435613e31565b835485529093019260019283019201612de3565b346101f557612e2836613477565b906000526010602052604060002080548210156101f55760209161026d9161337a565b346101f5576101803660031901126101f5576001600160401b036024358181116101f557612e7d903690600401613421565b6044358281116101f557612e95903690600401613421565b906064358381116101f557612eae903690600401613421565b926084358181116101f557612ec7903690600401613421565b903360005260209460088652600194612eeb8660ff6040600020541615151461392a565b600435600052600b875260406000209486860190805190858211610ecf578190612f1f82612f19865461364a565b866139ad565b8a90601f83116001146131bc576000926131b1575b5050600019600383901b1c191690881b1790555b80516003860191848211610ecf578190612f6682612f19865461364a565b8990601f831160011461314e57600092613143575b5050600019600383901b1c191690871b1790555b80516004850191838211610ecf578190612fad82612f19865461364a565b8890601f83116001146130e0576000926130d5575b5050600019600383901b1c191690861b1790555b60058301918051918211610ecf578190612ff482612f19865461364a565b8690601f831160011461307257600092613067575b5050600019600383901b1c191690841b1790555b60a435600682015560c435600782015560e435600882015561010435600982015561012435600a82015561014435600b82015561016435600f820155601042910155604051908152f35b015190508680613009565b90869350601f1983169185600052886000209260005b8a8282106130bf57505084116130a6575b505050811b01905561301d565b015160001960f88460031b161c19169055868080613099565b8385015186558a97909501949384019301613088565b015190508880612fc2565b90889350601f19831691856000528a6000209260005b8c82821061312d5750508411613114575b505050811b019055612fd6565b015160001960f88460031b161c19169055888080613107565b8385015186558c979095019493840193016130f6565b015190508980612f7b565b90899350601f19831691856000528b6000209260005b8d82821061319b5750508411613182575b505050811b019055612f8f565b015160001960f88460031b161c19169055898080613175565b8385015186558d97909501949384019301613164565b015190508a80612f34565b908a9350846000528b6000209160005b8d601f198616821061320c57505083601f198116106131f3575b505050811b019055612f48565b015160001960f88460031b161c191690558a80806131e6565b8284015185558d969094019392830192016131cc565b346101f55760203660031901126101f55760043580600052600f602052604060002061324e8154613a27565b905560005260106020526040600020805490600160401b821015610ecf578161327f9160016113709401815561337a565b919091429083549060031b91821b91600019901b19161790565b346101f55760403660031901126101f5576132b26132e3565b6001600160a01b03166000908152600d60205260409020805460243591908210156101f55760209161026d9161337a565b600435906001600160a01b03821682036101f557565b90600091825481101561332f578280527f290decd9548b62a8d60345a988386fc84ba6bc95484008f6362f93160ef3e563019190565b634e487b7160e01b83526032600452602483fd5b600154811015610eb95760016000527fb10e2d527612073b26eecdfd717e6a320cf44b4afac2b0732d9fcbe2b7fa0cf60190600090565b8054821015610eb95760005260206000200190600090565b61012081019081106001600160401b03821117610ecf57604052565b606081019081106001600160401b03821117610ecf57604052565b60c081019081106001600160401b03821117610ecf57604052565b61014081019081106001600160401b03821117610ecf57604052565b90601f801991011681019081106001600160401b03821117610ecf57604052565b81601f820112156101f5578035906001600160401b038211610ecf5760405192613455601f8401601f191660200185613400565b828452602083830101116101f557816000926020809301838601378301015290565b60409060031901126101f5576004359060243590565b60005b8381106134a05750506000910152565b8181015183820152602001613490565b906020916134c98151809281855285808601910161348d565b601f01601f1916010190565b9061353d61352b6135196135076134f586516101408088528701906134b0565b602087015186820360208801526134b0565b604086015185820360408701526134b0565b606085015184820360608601526134b0565b608084015183820360808501526134b0565b9160a081015160a083015260c081015160c083015260e081015160e083015261010080820151908301526101208091015191015290565b908151815261359260208301516101208060208501528301906134d5565b9160408101516040830152606081015160608301526080810151608083015260a081015160a083015260c081015160c083015260e081015160e083015261010080910151151591015290565b90815180825260208092019182818360051b85019501936000915b8483106136095750505050505090565b909192939495848061362383856001950387528a51613574565b98019301930191949392906135f9565b6001600160401b038111610ecf5760051b60200190565b90600182811c9216801561367a575b602083101461366457565b634e487b7160e01b600052602260045260246000fd5b91607f1691613659565b90600092918054916136958361364a565b9182825260019384811690816000146136f757506001146136b7575b50505050565b90919394506000526020928360002092846000945b8386106136e35750505050010190388080806136b1565b8054858701830152940193859082016136cc565b9294505050602093945060ff191683830152151560051b010190388080806136b1565b90604091610120600984519261372f846133e4565b83958051613748816137418186613684565b0382613400565b8552805161375d816137418160018701613684565b60208601528051613775816137418160028701613684565b81860152805161378c816137418160038701613684565b6060860152516137a3816137418160048601613684565b6080850152600581015460a0850152600681015460c0850152600781015460e085015260088101546101008501520154910152565b90600482101561078c5752565b906138a49161389061387e61386c61385a6138486138366138246138128851610120808c528b01906134b0565b60208901518a820360208c01526134b0565b604088015189820360408b01526134b0565b606087015188820360608a01526134b0565b608086015187820360808901526134b0565b60a085015186820360a08801526134b0565b60c084015185820360c08701526134b0565b60e083015184820360e08601526134b0565b9161010080920151918184039101526134b0565b90565b156138ae57565b60405162461bcd60e51b815260206004820152604860248201527f7b2266726f6d223a2022466943616d2e736f6c222c2022636f6465223a20312c60448201527f20226d657373616765223a2022496e76616c69642063616c6c65722d4f6e6c79606482015267204f776e6572227d60c01b608482015260a490fd5b1561393157565b60405162461bcd60e51b815260206004820152604860248201527f7b2266726f6d223a2022466943616d2e736f6c222c2022636f6465223a20322c60448201527f20226d657373616765223a2022496e76616c69642063616c6c65722d4f6e6c796064820152672041646d696e227d60c01b608482015260a490fd5b90601f81116139bb57505050565b600091825260208220906020601f850160051c830194106139f7575b601f0160051c01915b8281106139ec57505050565b8181556001016139e0565b90925082906139d7565b600154600160401b811015610ecf57611359816001613a239301600155613343565b9055565b6000198114612aec5760010190565b80600052600b60205260116040600020016001908160ff198254161790556000918154925b838110613a6e57506138a4919250613a01565b81613a7882613343565b90549060031b1c14613a9257613a8d90613a27565b613a5b565b5050905090565b91908203918211612aec57565b6000818152600b60205260119182604083200160ff198154169055815b6001805480831015613b89578390613ada84613343565b929054600393841b1c14613af957505050613af490613a27565b613ac3565b9094929195935060001993848201918211613b775750808210613b53575b50508354908115613b3f5750810191613b2f83613343565b81939154921b1b19169055815590565b634e487b7160e01b81526031600452602490fd5b611359613b62613b6e92613343565b905490871b1c92613343565b90553880613b17565b634e487b7160e01b8452600452602483fd5b505050505050600190565b60405190613ba182613392565b600080835260405183613bb3826133e4565b82606080845280602085015280604085015280808501528060808501528160a08501528160c08501528160e08501526101009382858201528261012082015260208401528160408401528201528260808201528260a08201528260c08201528260e08201520152565b90613c2682613633565b613c336040519182613400565b8281528092613c44601f1991613633565b019060005b828110613c5557505050565b602090613c60613b94565b82828501015201613c49565b8051821015610eb95760209160051b010190565b91908201809211612aec57565b81810292918115918404141715612aec57565b600482101561078c5752565b908160209103126101f5575180151581036101f55790565b90600091600481101561078c5780600114613cf8575b60031480613cef575b613ce957565b600c9150565b60069250613ce3565b60019250613cda565b60405190613d0e82613392565b8161010060609182815282602082015282604082015282808201528260808201528260a08201528260c08201528260e08201520152565b906008610100604093613e2d855191613d5d83613392565b613e2683978051613d72816137418187613684565b85528051613d87816137418160018801613684565b60208601528051613d9f816137418160028801613684565b818601528051613db6816137418160038801613684565b60608601528051613dce816137418160048801613684565b60808601528051613de6816137418160058801613684565b60a08601528051613dfe816137418160068801613684565b60c08601528051613e16816137418160078801613684565b60e0860152518096819301613684565b0384613400565b0152565b60009392849290818311613f6257805184935b818510613f1b575050839181515b808410613ec25750505080613ea15750815b80821115613e7157505050565b613e7d92939450613a99565b9060018201809211613e8d575090565b634e487b7160e01b81526011600452602490fd5b600019810190811115613e6457634e487b7160e01b83526011600452602483fd5b613ecc8482613a99565b90613edb600192831c86613c80565b9183613ee78487613c6c565b511115613ef5575050613e52565b9094508101809111613f075792613e52565b634e487b7160e01b86526011600452602486fd5b9093613f278186613a99565b613f35600191821c83613c80565b9183613f418487613c6c565b511015613f5a57508101809111613f0757935b90613e44565b955050613f54565b60405162461bcd60e51b8152602060048201526012602482015271496e76616c69642074696d652072616e676560701b6044820152606490fd5b919060009062010bd962015180808604828101939192858212801591861291821691151617614422576226496501928462253d8c8512911290801582169115161761440e578260021b9060049182810585036142c85762023ab18091059485820291820586036143fb57600391828101908884831291129080158216911516176143e857908461402d920590614448565b946001958681018781128983129080158216911516176142db57610fa090808202918205036142db5762164b096140719105918661406a8461447d565b0590614448565b90601f82019189601f841291129080158216911516176142db5781605002916050830581036143d55761098f809305928381029081058403614327579060506140bb920590614448565b90600b83059060028401938b60028612911290801582169115161761432757600c9382850290858205840361430157906140f491614448565b9460301981019081138b166142ee57806064029060648205036142ee57916141226141279261412f94614461565b614461565b958294613c80565b60001995868201949185116143275761414c849182870490613c80565b9406898101928382116142ee578a841480156143cc575b80156143c2575b80156143b8575b80156143ae575b80156143a4575b801561439b575b1561434657601f80915b1161433e575b506107b2851061433a57617d4a1982019182138a16614327578a8512968715926112c087810190811285811690158b161761431457908a6141e16141e86141ed948a6141e18b614436565b0590614461565b61447d565b91018381138b166142ee578461420285614436565b059085820291808305871490151715614301579061421f91614448565b61016f90808202918205036142ee57908461423b920590614461565b95611324809501948512908115169116176142db5791614260916141e1606494614436565b05808202918205036142c8579082614279920590614448565b62253d8b19810193908413166142b557818302928084048314901517156142b55750906142a891850690613c80565b9283106142b25750565b80fd5b634e487b7160e01b845260119052602483fd5b634e487b7160e01b865260118352602486fd5b634e487b7160e01b895260118652602489fd5b634e487b7160e01b8c526011895260248cfd5b634e487b7160e01b8d5260118a5260248dfd5b634e487b7160e01b8e5260118b5260248efd5b634e487b7160e01b8b526011885260248bfd5b8a80fd5b915038614196565b6002841461435757601e8091614190565b868616158061438f575b8015614383575b1561437a5760ff601d5b168091614190565b60ff601c614372565b50610190860615614368565b50606486061515614361565b50848414614186565b50600a841461417f565b5060088414614178565b5060078414614171565b506005841461416a565b50868414614163565b634e487b7160e01b8a526011875260248afd5b634e487b7160e01b885260118552602488fd5b634e487b7160e01b875260118452602487fd5b634e487b7160e01b84526011600452602484fd5b634e487b7160e01b85526011600452602485fd5b90600d198201918213600116612aec57565b81810392916000138015828513169184121617612aec57565b91909160008382019384129112908015821691151617612aec57565b906105b59180830292830503612aec5756fea2646970667358221220380fa46810a4f1896ac77c6ae10526aada0f796530af6f6ed114d86264d6171264736f6c63430008130033",
			"opcodes": "PUSH1 0x80 DUP1 PUSH1 0x40 MSTORE PUSH1 0x1 DUP1 PUSH1 0xA0 SHL SUB NOT CALLER DUP2 PUSH1 0x3 SLOAD AND OR PUSH1 0x3 SSTORE PUSH1 0x2 DUP2 PUSH1 0x4 SLOAD AND OR PUSH1 0x4 SSTORE PUSH1 0x0 CALLER DUP2 MSTORE PUSH1 0x8 PUSH1 0x20 MSTORE PUSH1 0x40 DUP2 KECCAK256 PUSH1 0x1 PUSH1 0xFF NOT DUP3 SLOAD AND OR SWAP1 SSTORE PUSH1 0x5 SLOAD SWAP1 PUSH9 0x10000000000000000 DUP3 LT ISZERO PUSH2 0xAF JUMPI PUSH1 0x1 DUP3 ADD DUP1 PUSH1 0x5 SSTORE DUP3 LT ISZERO PUSH2 0x9B JUMPI PUSH1 0x5 SWAP1 MSTORE PUSH32 0x36B6384B5ECA791C62761152D0C79BB0604C104A5FB6F4EB0703F3154BB3DB0 ADD DUP1 SLOAD SWAP1 SWAP2 AND CALLER OR SWAP1 SSTORE PUSH2 0x44C5 SWAP1 DUP2 PUSH3 0xC4 DUP3 CODECOPY RETURN JUMPDEST PUSH4 0x4E487B71 PUSH1 0xE0 SHL DUP2 MSTORE PUSH1 0x32 PUSH1 0x4 MSTORE PUSH1 0x24 SWAP1 REVERT JUMPDEST PUSH4 0x4E487B71 PUSH1 0xE0 SHL DUP2 MSTORE PUSH1 0x41 PUSH1 0x4 MSTORE PUSH1 0x24 SWAP1 REVERT INVALID PUSH1 0x80 PUSH1 0x40 MSTORE PUSH1 0x4 CALLDATASIZE LT ISZERO PUSH2 0x12 JUMPI PUSH1 0x0 DUP1 REVERT JUMPDEST PUSH1 0x0 CALLDATALOAD PUSH1 0xE0 SHR DUP1 PUSH4 0x2B572D6 EQ PUSH2 0x3299 JUMPI DUP1 PUSH4 0x41CBB16 EQ PUSH2 0x3222 JUMPI DUP1 PUSH4 0x5D0AF0B EQ PUSH2 0x2E4B JUMPI DUP1 PUSH4 0xB0FE44C EQ PUSH2 0x2E1A JUMPI DUP1 PUSH4 0xC2ED967 EQ PUSH2 0x2DA8 JUMPI DUP1 PUSH4 0xF8472FF EQ PUSH2 0x2D6B JUMPI DUP1 PUSH4 0x103BB2B5 EQ PUSH2 0x2D24 JUMPI DUP1 PUSH4 0x12EE84EF EQ PUSH2 0x2C21 JUMPI DUP1 PUSH4 0x1C787F3E EQ PUSH2 0x2C03 JUMPI DUP1 PUSH4 0x1E98FD1C EQ PUSH2 0x2BA8 JUMPI DUP1 PUSH4 0x27B50845 EQ PUSH2 0x18A9 JUMPI DUP1 PUSH4 0x350F31EA EQ PUSH2 0x17C2 JUMPI DUP1 PUSH4 0x3F81714C EQ PUSH2 0x15FC JUMPI DUP1 PUSH4 0x52023610 EQ PUSH2 0xEE5 JUMPI DUP1 PUSH4 0x5A272403 EQ PUSH2 0xE19 JUMPI DUP1 PUSH4 0x5C8D05A4 EQ PUSH2 0xD78 JUMPI DUP1 PUSH4 0x5D977EE1 EQ PUSH2 0xCCA JUMPI DUP1 PUSH4 0x673047BA EQ PUSH2 0xC24 JUMPI DUP1 PUSH4 0x6F0243F3 EQ PUSH2 0xBFB JUMPI DUP1 PUSH4 0x7CF388EE EQ PUSH2 0xA29 JUMPI DUP1 PUSH4 0x7F7C0808 EQ PUSH2 0x9DD JUMPI DUP1 PUSH4 0x7F8C678F EQ PUSH2 0x993 JUMPI DUP1 PUSH4 0x94284CBD EQ PUSH2 0x96A JUMPI DUP1 PUSH4 0x951A5662 EQ PUSH2 0x8D3 JUMPI DUP1 PUSH4 0x9F89A4B2 EQ PUSH2 0x878 JUMPI DUP1 PUSH4 0xA2B2FB55 EQ PUSH2 0x827 JUMPI DUP1 PUSH4 0xA559934E EQ PUSH2 0x7DB JUMPI DUP1 PUSH4 0xACFA58D2 EQ PUSH2 0x1C9 JUMPI DUP1 PUSH4 0xAF669326 EQ PUSH2 0x5BC JUMPI DUP1 PUSH4 0xB11E3C1A EQ PUSH2 0x57D JUMPI DUP1 PUSH4 0xB358FA8E EQ PUSH2 0x509 JUMPI DUP1 PUSH4 0xB4A99A4E EQ PUSH2 0x4E0 JUMPI DUP1 PUSH4 0xBFBE3EF7 EQ PUSH2 0x4B4 JUMPI DUP1 PUSH4 0xCB4E841B EQ PUSH2 0x48B JUMPI DUP1 PUSH4 0xDA31F88A EQ PUSH2 0x2C7 JUMPI DUP1 PUSH4 0xDDCD6408 EQ PUSH2 0x27B JUMPI DUP1 PUSH4 0xF09610C7 EQ PUSH2 0x223 JUMPI DUP1 PUSH4 0xFB7EF377 EQ PUSH2 0x1FA JUMPI PUSH4 0xFDD719B1 EQ PUSH2 0x1C9 JUMPI PUSH1 0x0 DUP1 REVERT JUMPDEST CALLVALUE PUSH2 0x1F5 JUMPI PUSH1 0x20 CALLDATASIZE PUSH1 0x3 NOT ADD SLT PUSH2 0x1F5 JUMPI PUSH1 0x4 CALLDATALOAD PUSH1 0x0 MSTORE PUSH1 0xF PUSH1 0x20 MSTORE PUSH1 0x20 PUSH1 0x40 PUSH1 0x0 KECCAK256 SLOAD PUSH1 0x40 MLOAD SWAP1 DUP2 MSTORE RETURN JUMPDEST PUSH1 0x0 DUP1 REVERT JUMPDEST CALLVALUE PUSH2 0x1F5 JUMPI PUSH1 0x0 CALLDATASIZE PUSH1 0x3 NOT ADD SLT PUSH2 0x1F5 JUMPI PUSH1 0x2 SLOAD PUSH1 0x40 MLOAD PUSH1 0x1 PUSH1 0x1 PUSH1 0xA0 SHL SUB SWAP1 SWAP2 AND DUP2 MSTORE PUSH1 0x20 SWAP1 RETURN JUMPDEST CALLVALUE PUSH2 0x1F5 JUMPI PUSH1 0x40 CALLDATASIZE PUSH1 0x3 NOT ADD SLT PUSH2 0x1F5 JUMPI PUSH2 0x23C PUSH2 0x32E3 JUMP JUMPDEST PUSH1 0x1 PUSH1 0x1 PUSH1 0xA0 SHL SUB AND PUSH1 0x0 SWAP1 DUP2 MSTORE PUSH1 0xE PUSH1 0x20 MSTORE PUSH1 0x40 SWAP1 KECCAK256 DUP1 SLOAD PUSH1 0x24 CALLDATALOAD SWAP2 SWAP1 DUP3 LT ISZERO PUSH2 0x1F5 JUMPI PUSH1 0x20 SWAP2 PUSH2 0x26D SWAP2 PUSH2 0x337A JUMP JUMPDEST SWAP1 SLOAD PUSH1 0x40 MLOAD SWAP2 PUSH1 0x3 SHL SHR DUP2 MSTORE RETURN JUMPDEST CALLVALUE PUSH2 0x1F5 JUMPI PUSH1 0x20 CALLDATASIZE PUSH1 0x3 NOT ADD SLT PUSH2 0x1F5 JUMPI PUSH2 0x294 PUSH2 0x32E3 JUMP JUMPDEST PUSH1 0x3 SLOAD PUSH1 0x1 PUSH1 0x1 PUSH1 0xA0 SHL SUB SWAP2 SWAP1 PUSH2 0x2AE SWAP1 DUP4 AND CALLER EQ PUSH2 0x38A7 JUMP JUMPDEST AND PUSH1 0x1 PUSH1 0x1 PUSH1 0x60 SHL SUB PUSH1 0xA0 SHL PUSH1 0x4 SLOAD AND OR PUSH1 0x4 SSTORE PUSH1 0x0 DUP1 RETURN JUMPDEST CALLVALUE PUSH2 0x1F5 JUMPI PUSH1 0x20 CALLDATASIZE PUSH1 0x3 NOT ADD SLT PUSH2 0x1F5 JUMPI PUSH1 0x4 CALLDATALOAD PUSH1 0x0 MSTORE PUSH1 0x9 PUSH1 0x20 MSTORE PUSH1 0x40 PUSH1 0x0 KECCAK256 PUSH1 0x40 MLOAD DUP1 PUSH2 0x2F6 DUP2 DUP5 PUSH2 0x3684 JUMP JUMPDEST SUB PUSH2 0x301 SWAP1 DUP3 PUSH2 0x3400 JUMP JUMPDEST PUSH1 0x40 MLOAD SWAP2 DUP3 PUSH2 0x313 DUP2 PUSH1 0x1 DUP5 ADD PUSH2 0x3684 JUMP JUMPDEST SUB PUSH2 0x31E SWAP1 DUP5 PUSH2 0x3400 JUMP JUMPDEST PUSH1 0x40 MLOAD DUP1 PUSH2 0x32F DUP2 PUSH1 0x2 DUP6 ADD PUSH2 0x3684 JUMP JUMPDEST SUB PUSH2 0x33A SWAP1 DUP3 PUSH2 0x3400 JUMP JUMPDEST PUSH1 0x40 MLOAD DUP1 PUSH2 0x34B DUP2 PUSH1 0x3 DUP7 ADD PUSH2 0x3684 JUMP JUMPDEST SUB PUSH2 0x356 SWAP1 DUP3 PUSH2 0x3400 JUMP JUMPDEST PUSH1 0x40 MLOAD DUP1 PUSH2 0x367 DUP2 PUSH1 0x4 DUP8 ADD PUSH2 0x3684 JUMP JUMPDEST SUB PUSH2 0x372 SWAP1 DUP3 PUSH2 0x3400 JUMP JUMPDEST PUSH1 0x40 MLOAD SWAP1 DUP2 PUSH2 0x384 DUP2 PUSH1 0x5 DUP9 ADD PUSH2 0x3684 JUMP JUMPDEST SUB PUSH2 0x38F SWAP1 DUP4 PUSH2 0x3400 JUMP JUMPDEST PUSH1 0x40 MLOAD SWAP3 DUP4 PUSH2 0x3A1 DUP2 PUSH1 0x6 DUP10 ADD PUSH2 0x3684 JUMP JUMPDEST SUB PUSH2 0x3AC SWAP1 DUP6 PUSH2 0x3400 JUMP JUMPDEST PUSH1 0x40 MLOAD SWAP5 DUP6 PUSH2 0x3BE DUP2 PUSH1 0x7 DUP11 ADD PUSH2 0x3684 JUMP JUMPDEST SUB PUSH2 0x3C9 SWAP1 DUP8 PUSH2 0x3400 JUMP JUMPDEST PUSH1 0x40 MLOAD DUP1 PUSH1 0x8 DUP2 SWAP10 ADD SWAP1 PUSH2 0x3DC SWAP2 PUSH2 0x3684 JUMP JUMPDEST SUB PUSH2 0x3E7 SWAP1 DUP9 PUSH2 0x3400 JUMP JUMPDEST PUSH1 0x40 MLOAD SWAP9 DUP10 SWAP9 PUSH2 0x120 DUP1 DUP12 MSTORE DUP11 ADD PUSH2 0x3FE SWAP2 PUSH2 0x34B0 JUMP JUMPDEST DUP10 DUP2 SUB PUSH1 0x20 DUP12 ADD MSTORE PUSH2 0x40F SWAP2 PUSH2 0x34B0 JUMP JUMPDEST DUP9 DUP2 SUB PUSH1 0x40 DUP11 ADD MSTORE PUSH2 0x420 SWAP2 PUSH2 0x34B0 JUMP JUMPDEST DUP8 DUP2 SUB PUSH1 0x60 DUP10 ADD MSTORE PUSH2 0x431 SWAP2 PUSH2 0x34B0 JUMP JUMPDEST DUP7 DUP2 SUB PUSH1 0x80 DUP9 ADD MSTORE PUSH2 0x442 SWAP2 PUSH2 0x34B0 JUMP JUMPDEST DUP6 DUP2 SUB PUSH1 0xA0 DUP8 ADD MSTORE PUSH2 0x453 SWAP2 PUSH2 0x34B0 JUMP JUMPDEST DUP5 DUP2 SUB PUSH1 0xC0 DUP7 ADD MSTORE PUSH2 0x464 SWAP2 PUSH2 0x34B0 JUMP JUMPDEST DUP4 DUP2 SUB PUSH1 0xE0 DUP6 ADD MSTORE PUSH2 0x475 SWAP2 PUSH2 0x34B0 JUMP JUMPDEST DUP3 DUP2 SUB PUSH2 0x100 DUP5 ADD MSTORE PUSH2 0x487 SWAP2 PUSH2 0x34B0 JUMP JUMPDEST SUB SWAP1 RETURN JUMPDEST CALLVALUE PUSH2 0x1F5 JUMPI PUSH1 0x20 CALLDATASIZE PUSH1 0x3 NOT ADD SLT PUSH2 0x1F5 JUMPI PUSH1 0x4 CALLDATALOAD PUSH1 0x0 SLOAD DUP2 LT ISZERO PUSH2 0x1F5 JUMPI PUSH2 0x26D PUSH1 0x20 SWAP2 PUSH2 0x32F9 JUMP JUMPDEST CALLVALUE PUSH2 0x1F5 JUMPI PUSH1 0x20 CALLDATASIZE PUSH1 0x3 NOT ADD SLT PUSH2 0x1F5 JUMPI PUSH1 0x4 CALLDATALOAD PUSH1 0x0 MSTORE PUSH1 0xC PUSH1 0x20 MSTORE PUSH1 0x20 PUSH1 0x40 PUSH1 0x0 KECCAK256 SLOAD PUSH1 0x40 MLOAD SWAP1 DUP2 MSTORE RETURN JUMPDEST CALLVALUE PUSH2 0x1F5 JUMPI PUSH1 0x0 CALLDATASIZE PUSH1 0x3 NOT ADD SLT PUSH2 0x1F5 JUMPI PUSH1 0x3 SLOAD PUSH1 0x40 MLOAD PUSH1 0x1 PUSH1 0x1 PUSH1 0xA0 SHL SUB SWAP1 SWAP2 AND DUP2 MSTORE PUSH1 0x20 SWAP1 RETURN JUMPDEST CALLVALUE PUSH2 0x1F5 JUMPI PUSH1 0x60 CALLDATASIZE PUSH1 0x3 NOT ADD SLT PUSH2 0x1F5 JUMPI PUSH1 0x40 PUSH2 0x524 PUSH2 0x32E3 JUMP JUMPDEST PUSH1 0x1 PUSH1 0x1 PUSH1 0xA0 SHL SUB AND PUSH1 0x0 DUP2 DUP2 MSTORE PUSH1 0x13 PUSH1 0x20 SWAP1 DUP2 MSTORE DUP4 DUP3 KECCAK256 PUSH1 0x24 CALLDATALOAD DUP1 DUP5 MSTORE SWAP1 DUP3 MSTORE DUP5 DUP4 KECCAK256 PUSH1 0x44 CALLDATALOAD DUP1 DUP6 MSTORE SWAP1 DUP4 MSTORE DUP6 DUP5 KECCAK256 SLOAD SWAP5 DUP5 MSTORE PUSH1 0x12 DUP4 MSTORE DUP6 DUP5 KECCAK256 SWAP2 DUP5 MSTORE SWAP1 DUP3 MSTORE DUP5 DUP4 KECCAK256 SWAP1 DUP4 MSTORE DUP2 MSTORE SWAP1 DUP4 SWAP1 KECCAK256 SLOAD DUP4 MLOAD SWAP3 DUP4 MSTORE SWAP1 DUP3 ADD MSTORE RETURN JUMPDEST CALLVALUE PUSH2 0x1F5 JUMPI PUSH1 0x20 CALLDATASIZE PUSH1 0x3 NOT ADD SLT PUSH2 0x1F5 JUMPI PUSH1 0x1 PUSH1 0x1 PUSH1 0xA0 SHL SUB PUSH2 0x59E PUSH2 0x32E3 JUMP JUMPDEST AND PUSH1 0x0 MSTORE PUSH1 0x8 PUSH1 0x20 MSTORE PUSH1 0x20 PUSH1 0xFF PUSH1 0x40 PUSH1 0x0 KECCAK256 SLOAD AND PUSH1 0x40 MLOAD SWAP1 ISZERO ISZERO DUP2 MSTORE RETURN JUMPDEST CALLVALUE PUSH2 0x1F5 JUMPI PUSH1 0x40 CALLDATASIZE PUSH1 0x3 NOT ADD SLT PUSH2 0x1F5 JUMPI PUSH1 0x4 CALLDATALOAD PUSH1 0x24 CALLDATALOAD SWAP1 DUP1 PUSH1 0x0 MSTORE PUSH1 0x20 SWAP2 PUSH1 0xA DUP4 MSTORE PUSH1 0x1 DUP1 PUSH1 0xA0 SHL SUB SWAP2 DUP3 PUSH1 0x1 PUSH1 0x40 PUSH1 0x0 KECCAK256 ADD SLOAD AND DUP1 PUSH1 0x0 MSTORE PUSH1 0x13 DUP6 MSTORE PUSH1 0x40 PUSH1 0x0 KECCAK256 DUP3 PUSH1 0x0 MSTORE DUP6 MSTORE PUSH1 0x40 PUSH1 0x0 KECCAK256 DUP4 PUSH1 0x0 MSTORE DUP6 MSTORE PUSH2 0x662 DUP6 PUSH1 0x40 PUSH1 0x0 KECCAK256 SLOAD DUP7 DUP2 SWAP8 PUSH1 0x4 SLOAD AND SWAP1 PUSH1 0x2 SLOAD AND PUSH1 0x0 PUSH1 0x40 MLOAD DUP1 SWAP7 DUP2 SWAP6 DUP3 SWAP5 PUSH4 0x23B872DD PUSH1 0xE0 SHL DUP5 MSTORE CALLER PUSH1 0x4 DUP6 ADD PUSH1 0x40 SWAP2 SWAP5 SWAP4 SWAP3 SWAP5 PUSH1 0x60 DUP3 ADD SWAP6 PUSH1 0x1 DUP1 PUSH1 0xA0 SHL SUB DUP1 SWAP3 AND DUP4 MSTORE AND PUSH1 0x20 DUP3 ADD MSTORE ADD MSTORE JUMP JUMPDEST SUB SWAP3 GAS CALL DUP1 ISZERO PUSH2 0x7CF JUMPI PUSH2 0x7A2 JUMPI JUMPDEST POP DUP1 PUSH1 0x0 MSTORE PUSH1 0x14 DUP6 MSTORE PUSH1 0x40 PUSH1 0x0 KECCAK256 DUP3 PUSH1 0x0 MSTORE DUP6 MSTORE PUSH1 0x40 PUSH1 0x0 KECCAK256 DUP4 PUSH1 0x0 MSTORE DUP6 MSTORE PUSH1 0xFF PUSH1 0x2 PUSH1 0x40 PUSH1 0x0 KECCAK256 ADD SLOAD AND DUP2 PUSH1 0x0 MSTORE PUSH1 0x12 DUP7 MSTORE PUSH1 0x40 PUSH1 0x0 KECCAK256 DUP4 PUSH1 0x0 MSTORE DUP7 MSTORE PUSH1 0x40 PUSH1 0x0 KECCAK256 DUP5 PUSH1 0x0 MSTORE DUP7 MSTORE PUSH2 0x6D2 PUSH1 0x40 PUSH1 0x0 KECCAK256 SLOAD PUSH2 0x6CC DUP4 PUSH2 0x3CC4 JUMP JUMPDEST SWAP1 PUSH2 0x3F9C JUMP JUMPDEST DUP3 PUSH1 0x0 MSTORE PUSH1 0x12 DUP8 MSTORE PUSH1 0x40 PUSH1 0x0 KECCAK256 DUP5 PUSH1 0x0 MSTORE DUP8 MSTORE PUSH1 0x40 PUSH1 0x0 KECCAK256 DUP6 PUSH1 0x0 MSTORE DUP8 MSTORE PUSH1 0x40 PUSH1 0x0 KECCAK256 SSTORE DUP2 PUSH1 0x0 MSTORE PUSH1 0x12 DUP7 MSTORE PUSH1 0x40 PUSH1 0x0 KECCAK256 DUP4 PUSH1 0x0 MSTORE DUP7 MSTORE PUSH1 0x40 PUSH1 0x0 KECCAK256 DUP5 PUSH1 0x0 MSTORE DUP7 MSTORE PUSH1 0x40 PUSH1 0x0 KECCAK256 SLOAD SWAP5 PUSH1 0x4 DUP3 LT ISZERO PUSH2 0x78C JUMPI PUSH1 0x40 DUP1 MLOAD PUSH1 0x1 PUSH1 0x1 PUSH1 0xA0 SHL SUB SWAP5 SWAP1 SWAP5 AND DUP5 MSTORE PUSH1 0x20 DUP5 ADD SWAP5 SWAP1 SWAP5 MSTORE SWAP3 DUP3 ADD SWAP4 SWAP1 SWAP4 MSTORE TIMESTAMP PUSH1 0x60 DUP3 ADD MSTORE PUSH1 0x80 DUP2 ADD SWAP4 SWAP1 SWAP4 MSTORE PUSH1 0xA0 DUP4 ADD MSTORE PUSH1 0xC0 DUP3 ADD MSTORE PUSH32 0xB53E83884FD4F0F2DC740F6BAF6D8786EDD21113FE391249904E725A6B311730 SWAP1 PUSH1 0xE0 SWAP1 LOG1 PUSH1 0x40 MLOAD PUSH1 0x1 DUP2 MSTORE RETURN JUMPDEST PUSH4 0x4E487B71 PUSH1 0xE0 SHL PUSH1 0x0 MSTORE PUSH1 0x21 PUSH1 0x4 MSTORE PUSH1 0x24 PUSH1 0x0 REVERT JUMPDEST PUSH2 0x7C1 SWAP1 DUP7 RETURNDATASIZE DUP9 GT PUSH2 0x7C8 JUMPI JUMPDEST PUSH2 0x7B9 DUP2 DUP4 PUSH2 0x3400 JUMP JUMPDEST DUP2 ADD SWAP1 PUSH2 0x3CAC JUMP JUMPDEST POP DUP6 PUSH2 0x671 JUMP JUMPDEST POP RETURNDATASIZE PUSH2 0x7AF JUMP JUMPDEST PUSH1 0x40 MLOAD RETURNDATASIZE PUSH1 0x0 DUP3 RETURNDATACOPY RETURNDATASIZE SWAP1 REVERT JUMPDEST CALLVALUE PUSH2 0x1F5 JUMPI PUSH1 0x20 CALLDATASIZE PUSH1 0x3 NOT ADD SLT PUSH2 0x1F5 JUMPI PUSH2 0x7F4 PUSH2 0x32E3 JUMP JUMPDEST PUSH1 0x3 SLOAD PUSH1 0x1 PUSH1 0x1 PUSH1 0xA0 SHL SUB SWAP2 SWAP1 PUSH2 0x80E SWAP1 DUP4 AND CALLER EQ PUSH2 0x38A7 JUMP JUMPDEST AND PUSH1 0x1 PUSH1 0x1 PUSH1 0x60 SHL SUB PUSH1 0xA0 SHL PUSH1 0x2 SLOAD AND OR PUSH1 0x2 SSTORE PUSH1 0x0 DUP1 RETURN JUMPDEST CALLVALUE PUSH2 0x1F5 JUMPI PUSH1 0x20 CALLDATASIZE PUSH1 0x3 NOT ADD SLT PUSH2 0x1F5 JUMPI PUSH1 0x4 CALLDATALOAD PUSH1 0x15 SLOAD DUP2 LT ISZERO PUSH2 0x1F5 JUMPI PUSH1 0x20 SWAP1 PUSH1 0x15 PUSH1 0x0 MSTORE PUSH32 0x55F448FDEA98C4D29EB340757EF0A66CD03DBB9538908A6A81D96026B71EC475 ADD SLOAD PUSH1 0x40 MLOAD SWAP1 DUP2 MSTORE RETURN JUMPDEST CALLVALUE PUSH2 0x1F5 JUMPI PUSH1 0x20 CALLDATASIZE PUSH1 0x3 NOT ADD SLT PUSH2 0x1F5 JUMPI PUSH1 0x4 CALLDATALOAD PUSH1 0x5 SLOAD DUP2 LT ISZERO PUSH2 0x1F5 JUMPI PUSH1 0x5 PUSH1 0x0 MSTORE PUSH32 0x36B6384B5ECA791C62761152D0C79BB0604C104A5FB6F4EB0703F3154BB3DB0 ADD SLOAD PUSH1 0x40 MLOAD PUSH1 0x1 PUSH1 0x1 PUSH1 0xA0 SHL SUB SWAP1 SWAP2 AND DUP2 MSTORE PUSH1 0x20 SWAP1 RETURN JUMPDEST CALLVALUE PUSH2 0x1F5 JUMPI PUSH1 0x60 CALLDATASIZE PUSH1 0x3 NOT ADD SLT PUSH2 0x1F5 JUMPI PUSH1 0x44 CALLDATALOAD PUSH1 0x1 PUSH1 0x1 PUSH1 0x40 SHL SUB DUP2 GT PUSH2 0x1F5 JUMPI CALLDATASIZE PUSH1 0x23 DUP3 ADD SLT ISZERO PUSH2 0x1F5 JUMPI DUP1 PUSH1 0x4 ADD CALLDATALOAD PUSH2 0x90E DUP2 PUSH2 0x3633 JUMP JUMPDEST PUSH2 0x91B PUSH1 0x40 MLOAD SWAP2 DUP3 PUSH2 0x3400 JUMP JUMPDEST DUP2 DUP2 MSTORE PUSH1 0x20 SWAP3 PUSH1 0x24 DUP5 DUP4 ADD SWAP4 PUSH1 0x5 SHL DUP3 ADD ADD SWAP3 CALLDATASIZE DUP5 GT PUSH2 0x1F5 JUMPI PUSH1 0x24 DUP6 SWAP3 ADD SWAP1 JUMPDEST DUP5 DUP3 LT PUSH2 0x95B JUMPI DUP3 PUSH2 0x953 DUP6 PUSH1 0x24 CALLDATALOAD PUSH1 0x4 CALLDATALOAD PUSH2 0x3E31 JUMP JUMPDEST PUSH1 0x40 MLOAD SWAP1 DUP2 MSTORE RETURN JUMPDEST DUP2 CALLDATALOAD DUP2 MSTORE SWAP1 DUP3 ADD SWAP1 DUP3 ADD PUSH2 0x93C JUMP JUMPDEST CALLVALUE PUSH2 0x1F5 JUMPI PUSH1 0x0 CALLDATASIZE PUSH1 0x3 NOT ADD SLT PUSH2 0x1F5 JUMPI PUSH1 0x4 SLOAD PUSH1 0x40 MLOAD PUSH1 0x1 PUSH1 0x1 PUSH1 0xA0 SHL SUB SWAP1 SWAP2 AND DUP2 MSTORE PUSH1 0x20 SWAP1 RETURN JUMPDEST CALLVALUE PUSH2 0x1F5 JUMPI PUSH2 0x9A1 CALLDATASIZE PUSH2 0x3477 JUMP JUMPDEST SWAP1 CALLER PUSH1 0x0 MSTORE PUSH1 0x8 PUSH1 0x20 MSTORE PUSH2 0x9C1 PUSH1 0x1 PUSH1 0xFF PUSH1 0x40 PUSH1 0x0 KECCAK256 SLOAD AND ISZERO ISZERO EQ PUSH2 0x392A JUMP JUMPDEST PUSH1 0x0 MSTORE PUSH1 0xB PUSH1 0x20 MSTORE PUSH1 0x10 PUSH1 0x40 PUSH1 0x0 KECCAK256 ADD SSTORE PUSH1 0x20 PUSH1 0x40 MLOAD PUSH1 0x1 DUP2 MSTORE RETURN JUMPDEST CALLVALUE PUSH2 0x1F5 JUMPI PUSH1 0x20 CALLDATASIZE PUSH1 0x3 NOT ADD SLT PUSH2 0x1F5 JUMPI PUSH2 0x9F6 PUSH2 0x3D01 JUMP JUMPDEST POP PUSH1 0x4 CALLDATALOAD PUSH1 0x0 MSTORE PUSH1 0xA PUSH1 0x20 MSTORE PUSH2 0x487 PUSH2 0xA15 PUSH1 0x4 PUSH1 0x40 PUSH1 0x0 KECCAK256 ADD PUSH2 0x3D45 JUMP JUMPDEST PUSH1 0x40 MLOAD SWAP2 DUP3 SWAP2 PUSH1 0x20 DUP4 MSTORE PUSH1 0x20 DUP4 ADD SWAP1 PUSH2 0x37E5 JUMP JUMPDEST CALLVALUE PUSH2 0x1F5 JUMPI PUSH1 0x20 DUP1 PUSH1 0x3 NOT CALLDATASIZE ADD SLT PUSH2 0x1F5 JUMPI PUSH1 0x40 MLOAD PUSH2 0xA47 DUP2 PUSH2 0x33C9 JUMP JUMPDEST PUSH1 0x0 DUP2 MSTORE PUSH1 0x0 DUP3 DUP3 ADD MSTORE PUSH1 0x0 PUSH1 0xA0 PUSH1 0x60 SWAP3 DUP4 PUSH1 0x40 DUP3 ADD MSTORE DUP3 DUP5 DUP3 ADD MSTORE PUSH2 0xA6B PUSH2 0x3D01 JUMP JUMPDEST PUSH1 0x80 DUP3 ADD MSTORE ADD MSTORE PUSH1 0x4 CALLDATALOAD PUSH1 0x0 MSTORE PUSH1 0xA DUP3 MSTORE PUSH1 0x40 PUSH1 0x0 KECCAK256 PUSH1 0x40 MLOAD SWAP1 PUSH2 0xA8E DUP3 PUSH2 0x33C9 JUMP JUMPDEST DUP1 SLOAD DUP3 MSTORE PUSH1 0x1 DUP1 PUSH1 0xA0 SHL SUB SWAP2 PUSH1 0x1 SWAP4 DUP4 DUP6 DUP5 ADD SLOAD AND SWAP5 DUP7 DUP4 ADD SWAP6 DUP7 MSTORE PUSH1 0x2 SWAP3 DUP4 DUP6 ADD DUP1 SLOAD SWAP1 PUSH2 0xABC DUP3 PUSH2 0x3633 JUMP JUMPDEST SWAP6 PUSH2 0xACA PUSH1 0x40 MLOAD SWAP8 DUP9 PUSH2 0x3400 JUMP JUMPDEST DUP3 DUP8 MSTORE PUSH1 0x0 SWAP2 DUP3 MSTORE DUP11 DUP3 KECCAK256 SWAP1 DUP12 DUP9 ADD JUMPDEST DUP5 DUP5 LT PUSH2 0xBB4 JUMPI POP POP POP POP POP PUSH1 0x40 DUP2 ADD SWAP4 DUP5 MSTORE PUSH1 0x3 DUP6 ADD SLOAD SWAP4 DUP4 DUP3 ADD SWAP5 DUP6 MSTORE PUSH1 0xD PUSH2 0xB07 PUSH1 0x4 DUP9 ADD PUSH2 0x3D45 JUMP JUMPDEST SWAP7 PUSH1 0x80 DUP5 ADD SWAP8 DUP9 MSTORE ADD SLOAD SWAP7 PUSH1 0xA0 DUP4 ADD SWAP8 DUP9 MSTORE PUSH1 0x40 MLOAD SWAP9 DUP11 DUP11 MSTORE PUSH1 0xE0 DUP11 ADD SWAP4 MLOAD DUP12 DUP12 ADD MSTORE MLOAD AND PUSH1 0x40 DUP10 ADD MSTORE MLOAD SWAP8 PUSH1 0xC0 DUP5 DUP10 ADD MSTORE DUP9 MLOAD DUP1 SWAP3 MSTORE DUP1 PUSH2 0x100 DUP10 ADD SWAP10 ADD SWAP4 PUSH1 0x0 SWAP1 JUMPDEST DUP4 DUP3 LT PUSH2 0xB7E JUMPI DUP10 DUP1 DUP11 PUSH2 0xB73 DUP15 DUP13 DUP13 MLOAD PUSH1 0x80 DUP7 ADD MSTORE MLOAD PUSH1 0x1F NOT DUP6 DUP4 SUB ADD PUSH1 0xA0 DUP7 ADD MSTORE PUSH2 0x37E5 JUMP JUMPDEST SWAP1 MLOAD PUSH1 0xC0 DUP4 ADD MSTORE SUB SWAP1 RETURN JUMPDEST SWAP1 SWAP2 SWAP3 SWAP4 DUP4 DUP3 DUP8 SWAP13 PUSH2 0xBA6 PUSH1 0x40 DUP6 SWAP11 MLOAD DUP1 MLOAD DUP5 MSTORE DUP6 DUP2 ADD MLOAD DUP7 DUP6 ADD MSTORE ADD MLOAD PUSH1 0x40 DUP4 ADD SWAP1 PUSH2 0x37D8 JUMP JUMPDEST ADD SWAP12 ADD SWAP6 SWAP5 SWAP4 SWAP3 ADD SWAP1 PUSH2 0xB4B JUMP JUMPDEST SWAP6 PUSH1 0x3 DUP14 DUP3 SWAP10 SWAP15 SWAP8 SWAP9 PUSH1 0x40 MLOAD PUSH2 0xBC9 DUP2 PUSH2 0x33AE JUMP JUMPDEST DUP7 SLOAD DUP2 MSTORE DUP5 DUP8 ADD SLOAD DUP4 DUP3 ADD MSTORE PUSH2 0xBE8 PUSH1 0xFF DUP8 DUP10 ADD SLOAD AND PUSH1 0x40 DUP4 ADD PUSH2 0x3CA0 JUMP JUMPDEST DUP2 MSTORE ADD SWAP4 ADD SWAP4 ADD SWAP3 SWAP2 SWAP12 SWAP7 SWAP6 SWAP5 SWAP12 PUSH2 0xADA JUMP JUMPDEST CALLVALUE PUSH2 0x1F5 JUMPI PUSH1 0x20 CALLDATASIZE PUSH1 0x3 NOT ADD SLT PUSH2 0x1F5 JUMPI PUSH1 0x4 CALLDATALOAD PUSH1 0x1 SLOAD DUP2 LT ISZERO PUSH2 0x1F5 JUMPI PUSH2 0x26D PUSH1 0x20 SWAP2 PUSH2 0x3343 JUMP JUMPDEST CALLVALUE PUSH2 0x1F5 JUMPI PUSH1 0x20 DUP1 PUSH1 0x3 NOT CALLDATASIZE ADD SLT PUSH2 0x1F5 JUMPI PUSH1 0x4 CALLDATALOAD PUSH1 0x0 MSTORE PUSH1 0x10 DUP2 MSTORE PUSH1 0x40 PUSH1 0x0 KECCAK256 PUSH1 0x40 MLOAD SWAP1 DUP2 DUP4 DUP3 SLOAD SWAP2 DUP3 DUP2 MSTORE ADD SWAP1 DUP2 SWAP3 PUSH1 0x0 MSTORE DUP5 PUSH1 0x0 KECCAK256 SWAP1 PUSH1 0x0 JUMPDEST DUP7 DUP3 DUP3 LT PUSH2 0xCB6 JUMPI DUP7 DUP7 PUSH2 0xC76 DUP3 DUP9 SUB DUP4 PUSH2 0x3400 JUMP JUMPDEST PUSH1 0x40 MLOAD SWAP3 DUP4 SWAP3 DUP2 DUP5 ADD SWAP1 DUP3 DUP6 MSTORE MLOAD DUP1 SWAP2 MSTORE PUSH1 0x40 DUP5 ADD SWAP3 SWAP2 PUSH1 0x0 JUMPDEST DUP3 DUP2 LT PUSH2 0xC9F JUMPI POP POP POP POP SUB SWAP1 RETURN JUMPDEST DUP4 MLOAD DUP6 MSTORE DUP7 SWAP6 POP SWAP4 DUP2 ADD SWAP4 SWAP3 DUP2 ADD SWAP3 PUSH1 0x1 ADD PUSH2 0xC90 JUMP JUMPDEST DUP4 SLOAD DUP6 MSTORE SWAP1 SWAP4 ADD SWAP3 PUSH1 0x1 SWAP3 DUP4 ADD SWAP3 ADD PUSH2 0xC60 JUMP JUMPDEST CALLVALUE PUSH2 0x1F5 JUMPI PUSH1 0x20 CALLDATASIZE PUSH1 0x3 NOT ADD SLT PUSH2 0x1F5 JUMPI PUSH2 0xCE3 PUSH2 0x3B94 JUMP JUMPDEST POP PUSH1 0x4 CALLDATALOAD PUSH1 0x0 MSTORE PUSH1 0xB PUSH1 0x20 MSTORE PUSH2 0x487 PUSH1 0x40 PUSH1 0x0 KECCAK256 PUSH1 0xFF PUSH1 0x11 PUSH1 0x40 MLOAD SWAP3 PUSH2 0xD08 DUP5 PUSH2 0x3392 JUMP JUMPDEST DUP1 SLOAD DUP5 MSTORE PUSH2 0xD18 PUSH1 0x1 DUP3 ADD PUSH2 0x371A JUMP JUMPDEST PUSH1 0x20 DUP6 ADD MSTORE PUSH1 0xB DUP2 ADD SLOAD PUSH1 0x40 DUP6 ADD MSTORE PUSH1 0xC DUP2 ADD SLOAD PUSH1 0x60 DUP6 ADD MSTORE PUSH1 0xD DUP2 ADD SLOAD PUSH1 0x80 DUP6 ADD MSTORE PUSH1 0xE DUP2 ADD SLOAD PUSH1 0xA0 DUP6 ADD MSTORE PUSH1 0xF DUP2 ADD SLOAD PUSH1 0xC0 DUP6 ADD MSTORE PUSH1 0x10 DUP2 ADD SLOAD PUSH1 0xE0 DUP6 ADD MSTORE ADD SLOAD AND ISZERO ISZERO PUSH2 0x100 DUP3 ADD MSTORE PUSH1 0x40 MLOAD SWAP2 DUP3 SWAP2 PUSH1 0x20 DUP4 MSTORE PUSH1 0x20 DUP4 ADD SWAP1 PUSH2 0x3574 JUMP JUMPDEST CALLVALUE PUSH2 0x1F5 JUMPI PUSH1 0x20 CALLDATASIZE PUSH1 0x3 NOT ADD SLT PUSH2 0x1F5 JUMPI PUSH1 0x4 CALLDATALOAD PUSH1 0x0 MSTORE PUSH1 0xB PUSH1 0x20 MSTORE PUSH1 0x40 PUSH1 0x0 KECCAK256 DUP1 SLOAD PUSH2 0xDA7 PUSH1 0x1 DUP4 ADD PUSH2 0x371A JUMP JUMPDEST SWAP2 PUSH1 0xB DUP2 ADD SLOAD SWAP1 PUSH1 0xC DUP2 ADD SLOAD SWAP1 PUSH1 0xD DUP2 ADD SLOAD PUSH1 0xE DUP3 ADD SLOAD PUSH1 0xF DUP4 ADD SLOAD SWAP2 PUSH1 0xFF PUSH1 0x11 PUSH1 0x10 DUP7 ADD SLOAD SWAP6 ADD SLOAD AND SWAP5 PUSH2 0xDEE PUSH1 0x40 MLOAD SWAP10 DUP11 SWAP10 DUP11 MSTORE PUSH2 0x120 DUP1 PUSH1 0x20 DUP13 ADD MSTORE DUP11 ADD SWAP1 PUSH2 0x34D5 JUMP JUMPDEST SWAP7 PUSH1 0x40 DUP10 ADD MSTORE PUSH1 0x60 DUP9 ADD MSTORE PUSH1 0x80 DUP8 ADD MSTORE PUSH1 0xA0 DUP7 ADD MSTORE PUSH1 0xC0 DUP6 ADD MSTORE PUSH1 0xE0 DUP5 ADD MSTORE ISZERO ISZERO PUSH2 0x100 DUP4 ADD MSTORE SUB SWAP1 RETURN JUMPDEST CALLVALUE PUSH2 0x1F5 JUMPI PUSH1 0x20 CALLDATASIZE PUSH1 0x3 NOT ADD SLT PUSH2 0x1F5 JUMPI PUSH2 0xE32 PUSH2 0x32E3 JUMP JUMPDEST PUSH1 0x3 SLOAD PUSH1 0x1 PUSH1 0x1 PUSH1 0xA0 SHL SUB SWAP2 SWAP1 PUSH2 0xE4C SWAP1 DUP4 AND CALLER EQ PUSH2 0x38A7 JUMP JUMPDEST AND DUP1 PUSH1 0x0 MSTORE PUSH1 0x8 PUSH1 0x20 MSTORE PUSH1 0x40 PUSH1 0x0 KECCAK256 PUSH1 0x1 PUSH1 0xFF NOT DUP3 SLOAD AND OR SWAP1 SSTORE PUSH1 0x5 SLOAD PUSH1 0x1 PUSH1 0x40 SHL DUP2 LT ISZERO PUSH2 0xECF JUMPI PUSH1 0x1 DUP2 ADD DUP1 PUSH1 0x5 SSTORE DUP2 LT ISZERO PUSH2 0xEB9 JUMPI PUSH32 0x36B6384B5ECA791C62761152D0C79BB0604C104A5FB6F4EB0703F3154BB3DB0 ADD DUP1 SLOAD PUSH1 0x1 PUSH1 0x1 PUSH1 0xA0 SHL SUB NOT AND SWAP1 SWAP2 OR SWAP1 SSTORE STOP JUMPDEST PUSH4 0x4E487B71 PUSH1 0xE0 SHL PUSH1 0x0 MSTORE PUSH1 0x32 PUSH1 0x4 MSTORE PUSH1 0x24 PUSH1 0x0 REVERT JUMPDEST PUSH4 0x4E487B71 PUSH1 0xE0 SHL PUSH1 0x0 MSTORE PUSH1 0x41 PUSH1 0x4 MSTORE PUSH1 0x24 PUSH1 0x0 REVERT JUMPDEST CALLVALUE PUSH2 0x1F5 JUMPI PUSH2 0x1A0 CALLDATASIZE PUSH1 0x3 NOT ADD SLT PUSH2 0x1F5 JUMPI PUSH1 0x4 CALLDATALOAD PUSH1 0x1 PUSH1 0x1 PUSH1 0x40 SHL SUB DUP2 GT PUSH2 0x1F5 JUMPI PUSH2 0xF16 SWAP1 CALLDATASIZE SWAP1 PUSH1 0x4 ADD PUSH2 0x3421 JUMP JUMPDEST PUSH1 0x24 CALLDATALOAD PUSH1 0x1 PUSH1 0x1 PUSH1 0x40 SHL SUB DUP2 GT PUSH2 0x1F5 JUMPI PUSH2 0xF35 SWAP1 CALLDATASIZE SWAP1 PUSH1 0x4 ADD PUSH2 0x3421 JUMP JUMPDEST PUSH1 0x44 CALLDATALOAD PUSH1 0x1 PUSH1 0x1 PUSH1 0x40 SHL SUB DUP2 GT PUSH2 0x1F5 JUMPI PUSH2 0xF54 SWAP1 CALLDATASIZE SWAP1 PUSH1 0x4 ADD PUSH2 0x3421 JUMP JUMPDEST PUSH1 0x64 CALLDATALOAD PUSH1 0x1 PUSH1 0x1 PUSH1 0x40 SHL SUB DUP2 GT PUSH2 0x1F5 JUMPI PUSH2 0xF73 SWAP1 CALLDATASIZE SWAP1 PUSH1 0x4 ADD PUSH2 0x3421 JUMP JUMPDEST PUSH1 0x84 CALLDATALOAD PUSH1 0x1 PUSH1 0x1 PUSH1 0x40 SHL SUB DUP2 GT PUSH2 0x1F5 JUMPI PUSH2 0xF92 SWAP1 CALLDATASIZE SWAP1 PUSH1 0x4 ADD PUSH2 0x3421 JUMP JUMPDEST SWAP1 PUSH2 0x184 CALLDATALOAD SWAP3 DUP4 ISZERO ISZERO DUP5 SUB PUSH2 0x1F5 JUMPI CALLER PUSH1 0x0 MSTORE PUSH1 0x8 PUSH1 0x20 MSTORE PUSH2 0xFC0 PUSH1 0x1 PUSH1 0xFF PUSH1 0x40 PUSH1 0x0 KECCAK256 SLOAD AND ISZERO ISZERO EQ PUSH2 0x392A JUMP JUMPDEST PUSH1 0x40 MLOAD PUSH1 0x20 DUP2 ADD SWAP1 PUSH2 0x1012 PUSH1 0x20 DUP3 DUP2 PUSH2 0xFDF DUP13 DUP8 DUP2 MLOAD SWAP4 DUP5 SWAP3 ADD PUSH2 0x348D JUMP JUMPDEST DUP11 MLOAD SWAP1 DUP3 ADD PUSH2 0xFF3 DUP3 DUP6 DUP4 ADD DUP7 DUP16 ADD PUSH2 0x348D JUMP JUMPDEST ADD DUP7 MLOAD SWAP1 PUSH2 0x1006 DUP3 DUP6 DUP4 ADD DUP7 DUP12 ADD PUSH2 0x348D JUMP JUMPDEST ADD SUB DUP1 DUP5 MSTORE ADD DUP3 PUSH2 0x3400 JUMP JUMPDEST MLOAD SWAP1 KECCAK256 SWAP5 PUSH1 0x40 MLOAD SWAP7 PUSH2 0x1023 DUP9 PUSH2 0x33E4 JUMP JUMPDEST DUP8 MSTORE PUSH1 0x20 DUP8 ADD MSTORE PUSH1 0x40 DUP7 ADD MSTORE PUSH1 0x60 DUP6 ADD MSTORE PUSH1 0x80 DUP5 ADD MSTORE PUSH1 0xA4 CALLDATALOAD PUSH1 0xA0 DUP5 ADD MSTORE PUSH1 0xC4 CALLDATALOAD PUSH1 0xC0 DUP5 ADD MSTORE PUSH1 0xE4 CALLDATALOAD PUSH1 0xE0 DUP5 ADD MSTORE PUSH2 0x104 CALLDATALOAD PUSH2 0x100 DUP5 ADD MSTORE PUSH2 0x124 CALLDATALOAD PUSH2 0x120 DUP5 ADD MSTORE PUSH1 0x40 MLOAD SWAP3 PUSH2 0x1072 DUP5 PUSH2 0x3392 JUMP JUMPDEST DUP3 DUP5 MSTORE PUSH1 0x20 DUP5 ADD MSTORE PUSH2 0x144 CALLDATALOAD PUSH1 0x40 DUP5 ADD MSTORE PUSH1 0x0 PUSH1 0x60 DUP5 ADD MSTORE PUSH1 0x0 PUSH1 0x80 DUP5 ADD MSTORE PUSH1 0x0 PUSH1 0xA0 DUP5 ADD MSTORE PUSH2 0x164 CALLDATALOAD PUSH1 0xC0 DUP5 ADD MSTORE TIMESTAMP PUSH1 0xE0 DUP5 ADD MSTORE DUP1 ISZERO ISZERO PUSH2 0x100 DUP5 ADD MSTORE DUP2 PUSH1 0x0 MSTORE PUSH1 0xB PUSH1 0x20 MSTORE PUSH1 0x40 PUSH1 0x0 KECCAK256 SWAP3 DUP1 MLOAD DUP5 SSTORE PUSH1 0x20 DUP2 ADD MLOAD SWAP4 DUP5 MLOAD DUP1 MLOAD SWAP1 PUSH1 0x1 PUSH1 0x1 PUSH1 0x40 SHL SUB DUP3 GT PUSH2 0xECF JUMPI DUP2 SWAP1 PUSH2 0x10F8 DUP3 PUSH2 0x10EF PUSH1 0x1 DUP8 ADD SLOAD PUSH2 0x364A JUMP JUMPDEST PUSH1 0x1 DUP8 ADD PUSH2 0x39AD JUMP JUMPDEST PUSH1 0x20 SWAP1 PUSH1 0x1F DUP4 GT PUSH1 0x1 EQ PUSH2 0x158A JUMPI PUSH1 0x0 SWAP3 PUSH2 0x157F JUMPI JUMPDEST POP POP DUP2 PUSH1 0x1 SHL SWAP2 PUSH1 0x0 NOT SWAP1 PUSH1 0x3 SHL SHR NOT AND OR PUSH1 0x1 DUP3 ADD SSTORE JUMPDEST PUSH1 0x20 DUP6 ADD MLOAD DUP1 MLOAD SWAP1 PUSH1 0x1 PUSH1 0x1 PUSH1 0x40 SHL SUB DUP3 GT PUSH2 0xECF JUMPI DUP2 SWAP1 PUSH2 0x1158 DUP3 PUSH2 0x114F PUSH1 0x2 DUP8 ADD SLOAD PUSH2 0x364A JUMP JUMPDEST PUSH1 0x2 DUP8 ADD PUSH2 0x39AD JUMP JUMPDEST PUSH1 0x20 SWAP1 PUSH1 0x1F DUP4 GT PUSH1 0x1 EQ PUSH2 0x150D JUMPI PUSH1 0x0 SWAP3 PUSH2 0x1502 JUMPI JUMPDEST POP POP DUP2 PUSH1 0x1 SHL SWAP2 PUSH1 0x0 NOT SWAP1 PUSH1 0x3 SHL SHR NOT AND OR PUSH1 0x2 DUP3 ADD SSTORE JUMPDEST PUSH1 0x40 DUP6 ADD MLOAD DUP1 MLOAD SWAP1 PUSH1 0x1 PUSH1 0x1 PUSH1 0x40 SHL SUB DUP3 GT PUSH2 0xECF JUMPI DUP2 SWAP1 PUSH2 0x11B8 DUP3 PUSH2 0x11AF PUSH1 0x3 DUP8 ADD SLOAD PUSH2 0x364A JUMP JUMPDEST PUSH1 0x3 DUP8 ADD PUSH2 0x39AD JUMP JUMPDEST PUSH1 0x20 SWAP1 PUSH1 0x1F DUP4 GT PUSH1 0x1 EQ PUSH2 0x1490 JUMPI PUSH1 0x0 SWAP3 PUSH2 0x1485 JUMPI JUMPDEST POP POP DUP2 PUSH1 0x1 SHL SWAP2 PUSH1 0x0 NOT SWAP1 PUSH1 0x3 SHL SHR NOT AND OR PUSH1 0x3 DUP3 ADD SSTORE JUMPDEST PUSH1 0x60 DUP6 ADD MLOAD DUP1 MLOAD SWAP1 PUSH1 0x1 PUSH1 0x1 PUSH1 0x40 SHL SUB DUP3 GT PUSH2 0xECF JUMPI DUP2 SWAP1 PUSH2 0x1218 DUP3 PUSH2 0x120F PUSH1 0x4 DUP8 ADD SLOAD PUSH2 0x364A JUMP JUMPDEST PUSH1 0x4 DUP8 ADD PUSH2 0x39AD JUMP JUMPDEST PUSH1 0x20 SWAP1 PUSH1 0x1F DUP4 GT PUSH1 0x1 EQ PUSH2 0x1413 JUMPI PUSH1 0x0 SWAP3 PUSH2 0x1408 JUMPI JUMPDEST POP POP DUP2 PUSH1 0x1 SHL SWAP2 PUSH1 0x0 NOT SWAP1 PUSH1 0x3 SHL SHR NOT AND OR PUSH1 0x4 DUP3 ADD SSTORE JUMPDEST PUSH1 0x80 DUP6 ADD MLOAD SWAP5 DUP6 MLOAD PUSH1 0x1 PUSH1 0x1 PUSH1 0x40 SHL SUB DUP2 GT PUSH2 0xECF JUMPI PUSH2 0x1276 DUP2 PUSH2 0x126D PUSH1 0x5 DUP7 ADD SLOAD PUSH2 0x364A JUMP JUMPDEST PUSH1 0x5 DUP7 ADD PUSH2 0x39AD JUMP JUMPDEST PUSH1 0x20 PUSH1 0x1F DUP3 GT PUSH1 0x1 EQ PUSH2 0x138D JUMPI PUSH1 0x11 SWAP3 DUP3 PUSH2 0x100 SWAP6 SWAP4 PUSH2 0x120 SWAP4 PUSH1 0x1 SWAP11 SWAP12 PUSH1 0x0 SWAP3 PUSH2 0x1382 JUMPI JUMPDEST POP POP PUSH1 0x0 NOT PUSH1 0x3 DUP4 SWAP1 SHL SHR NOT AND SWAP1 DUP10 SHL OR PUSH1 0x5 DUP5 ADD SSTORE JUMPDEST PUSH1 0xA0 DUP2 ADD MLOAD PUSH1 0x6 DUP5 ADD SSTORE PUSH1 0xC0 DUP2 ADD MLOAD PUSH1 0x7 DUP5 ADD SSTORE PUSH1 0xE0 DUP2 ADD MLOAD PUSH1 0x8 DUP5 ADD SSTORE DUP5 DUP2 ADD MLOAD PUSH1 0x9 DUP5 ADD SSTORE ADD MLOAD PUSH1 0xA DUP3 ADD SSTORE PUSH1 0x40 DUP5 ADD MLOAD PUSH1 0xB DUP3 ADD SSTORE PUSH1 0x60 DUP5 ADD MLOAD PUSH1 0xC DUP3 ADD SSTORE PUSH1 0x80 DUP5 ADD MLOAD PUSH1 0xD DUP3 ADD SSTORE PUSH1 0xA0 DUP5 ADD MLOAD PUSH1 0xE DUP3 ADD SSTORE PUSH1 0xC0 DUP5 ADD MLOAD PUSH1 0xF DUP3 ADD SSTORE PUSH1 0xE0 DUP5 ADD MLOAD PUSH1 0x10 DUP3 ADD SSTORE ADD SWAP2 ADD MLOAD ISZERO ISZERO PUSH1 0xFF DUP1 NOT DUP4 SLOAD AND SWAP2 AND OR SWAP1 SSTORE ISZERO ISZERO EQ PUSH2 0x1374 JUMPI JUMPDEST PUSH1 0x0 SLOAD PUSH1 0x1 PUSH1 0x40 SHL DUP2 LT ISZERO PUSH2 0xECF JUMPI PUSH2 0x1359 DUP2 PUSH1 0x1 PUSH2 0x1370 SWAP4 ADD PUSH1 0x0 SSTORE PUSH2 0x32F9 JUMP JUMPDEST DUP2 SWAP4 SWAP2 SLOAD SWAP1 PUSH1 0x3 SHL SWAP2 DUP3 SHL SWAP2 PUSH1 0x0 NOT SWAP1 SHL NOT AND OR SWAP1 JUMP JUMPDEST SWAP1 SSTORE STOP JUMPDEST PUSH2 0x137D DUP2 PUSH2 0x3A01 JUMP JUMPDEST PUSH2 0x1337 JUMP JUMPDEST ADD MLOAD SWAP1 POP DUP12 DUP1 PUSH2 0x129C JUMP JUMPDEST PUSH1 0x5 DUP5 ADD PUSH1 0x0 MSTORE PUSH1 0x20 PUSH1 0x0 KECCAK256 SWAP8 PUSH1 0x0 JUMPDEST PUSH1 0x1F NOT DUP5 AND DUP2 LT PUSH2 0x13F0 JUMPI POP SWAP3 PUSH1 0x1 DUP4 DUP2 SWAP10 SWAP11 PUSH2 0x120 SWAP5 PUSH1 0x11 SWAP8 PUSH2 0x100 SWAP10 SWAP8 PUSH1 0x1F NOT DUP2 AND LT PUSH2 0x13D7 JUMPI JUMPDEST POP POP POP DUP2 SHL ADD PUSH1 0x5 DUP5 ADD SSTORE PUSH2 0x12B3 JUMP JUMPDEST ADD MLOAD PUSH1 0x0 NOT PUSH1 0xF8 DUP5 PUSH1 0x3 SHL AND SHR NOT AND SWAP1 SSTORE DUP12 DUP1 DUP1 PUSH2 0x13C7 JUMP JUMPDEST DUP3 DUP3 ADD MLOAD DUP11 SSTORE PUSH1 0x1 SWAP1 SWAP10 ADD SWAP9 PUSH1 0x20 SWAP3 DUP4 ADD SWAP3 ADD PUSH2 0x139D JUMP JUMPDEST ADD MLOAD SWAP1 POP DUP8 DUP1 PUSH2 0x122E JUMP JUMPDEST SWAP3 POP PUSH1 0x4 DUP5 ADD PUSH1 0x0 MSTORE PUSH1 0x20 PUSH1 0x0 KECCAK256 SWAP1 PUSH1 0x0 SWAP4 JUMPDEST PUSH1 0x1F NOT DUP5 AND DUP6 LT PUSH2 0x146A JUMPI PUSH1 0x1 SWAP5 POP DUP4 PUSH1 0x1F NOT DUP2 AND LT PUSH2 0x1451 JUMPI JUMPDEST POP POP POP DUP2 SHL ADD PUSH1 0x4 DUP3 ADD SSTORE PUSH2 0x1246 JUMP JUMPDEST ADD MLOAD PUSH1 0x0 NOT PUSH1 0xF8 DUP5 PUSH1 0x3 SHL AND SHR NOT AND SWAP1 SSTORE DUP8 DUP1 DUP1 PUSH2 0x1441 JUMP JUMPDEST DUP2 DUP2 ADD MLOAD DUP4 SSTORE PUSH1 0x20 SWAP5 DUP6 ADD SWAP5 PUSH1 0x1 SWAP1 SWAP4 ADD SWAP3 SWAP1 SWAP2 ADD SWAP1 PUSH2 0x1426 JUMP JUMPDEST ADD MLOAD SWAP1 POP DUP8 DUP1 PUSH2 0x11CE JUMP JUMPDEST SWAP3 POP PUSH1 0x3 DUP5 ADD PUSH1 0x0 MSTORE PUSH1 0x20 PUSH1 0x0 KECCAK256 SWAP1 PUSH1 0x0 SWAP4 JUMPDEST PUSH1 0x1F NOT DUP5 AND DUP6 LT PUSH2 0x14E7 JUMPI PUSH1 0x1 SWAP5 POP DUP4 PUSH1 0x1F NOT DUP2 AND LT PUSH2 0x14CE JUMPI JUMPDEST POP POP POP DUP2 SHL ADD PUSH1 0x3 DUP3 ADD SSTORE PUSH2 0x11E6 JUMP JUMPDEST ADD MLOAD PUSH1 0x0 NOT PUSH1 0xF8 DUP5 PUSH1 0x3 SHL AND SHR NOT AND SWAP1 SSTORE DUP8 DUP1 DUP1 PUSH2 0x14BE JUMP JUMPDEST DUP2 DUP2 ADD MLOAD DUP4 SSTORE PUSH1 0x20 SWAP5 DUP6 ADD SWAP5 PUSH1 0x1 SWAP1 SWAP4 ADD SWAP3 SWAP1 SWAP2 ADD SWAP1 PUSH2 0x14A3 JUMP JUMPDEST ADD MLOAD SWAP1 POP DUP8 DUP1 PUSH2 0x116E JUMP JUMPDEST SWAP3 POP PUSH1 0x2 DUP5 ADD PUSH1 0x0 MSTORE PUSH1 0x20 PUSH1 0x0 KECCAK256 SWAP1 PUSH1 0x0 SWAP4 JUMPDEST PUSH1 0x1F NOT DUP5 AND DUP6 LT PUSH2 0x1564 JUMPI PUSH1 0x1 SWAP5 POP DUP4 PUSH1 0x1F NOT DUP2 AND LT PUSH2 0x154B JUMPI JUMPDEST POP POP POP DUP2 SHL ADD PUSH1 0x2 DUP3 ADD SSTORE PUSH2 0x1186 JUMP JUMPDEST ADD MLOAD PUSH1 0x0 NOT PUSH1 0xF8 DUP5 PUSH1 0x3 SHL AND SHR NOT AND SWAP1 SSTORE DUP8 DUP1 DUP1 PUSH2 0x153B JUMP JUMPDEST DUP2 DUP2 ADD MLOAD DUP4 SSTORE PUSH1 0x20 SWAP5 DUP6 ADD SWAP5 PUSH1 0x1 SWAP1 SWAP4 ADD SWAP3 SWAP1 SWAP2 ADD SWAP1 PUSH2 0x1520 JUMP JUMPDEST ADD MLOAD SWAP1 POP DUP8 DUP1 PUSH2 0x110E JUMP JUMPDEST SWAP3 POP PUSH1 0x1 DUP5 ADD PUSH1 0x0 MSTORE PUSH1 0x20 PUSH1 0x0 KECCAK256 SWAP1 PUSH1 0x0 SWAP4 JUMPDEST PUSH1 0x1F NOT DUP5 AND DUP6 LT PUSH2 0x15E1 JUMPI PUSH1 0x1 SWAP5 POP DUP4 PUSH1 0x1F NOT DUP2 AND LT PUSH2 0x15C8 JUMPI JUMPDEST POP POP POP DUP2 SHL ADD PUSH1 0x1 DUP3 ADD SSTORE PUSH2 0x1126 JUMP JUMPDEST ADD MLOAD PUSH1 0x0 NOT PUSH1 0xF8 DUP5 PUSH1 0x3 SHL AND SHR NOT AND SWAP1 SSTORE DUP8 DUP1 DUP1 PUSH2 0x15B8 JUMP JUMPDEST DUP2 DUP2 ADD MLOAD DUP4 SSTORE PUSH1 0x20 SWAP5 DUP6 ADD SWAP5 PUSH1 0x1 SWAP1 SWAP4 ADD SWAP3 SWAP1 SWAP2 ADD SWAP1 PUSH2 0x159D JUMP JUMPDEST CALLVALUE PUSH2 0x1F5 JUMPI PUSH1 0x60 DUP1 PUSH1 0x3 NOT CALLDATASIZE ADD SLT PUSH2 0x1F5 JUMPI PUSH1 0x24 CALLDATALOAD SWAP1 PUSH1 0x4 CALLDATALOAD PUSH1 0x0 PUSH1 0x44 CALLDATALOAD PUSH2 0x1623 DUP2 PUSH2 0x3C1C JUMP JUMPDEST SWAP5 PUSH1 0x0 SWAP4 PUSH1 0x0 SWAP3 PUSH1 0x1 SWAP2 DUP3 SLOAD SWAP4 JUMPDEST DUP5 DUP2 LT PUSH2 0x16A9 JUMPI JUMPDEST POP POP POP POP POP PUSH2 0x1647 DUP2 PUSH2 0x3C1C JUMP JUMPDEST SWAP5 PUSH1 0x0 JUMPDEST DUP3 DUP2 LT PUSH2 0x167A JUMPI POP POP POP PUSH2 0x1669 PUSH1 0x40 MLOAD SWAP5 DUP5 DUP7 SWAP6 DUP7 MSTORE DUP6 ADD SWAP1 PUSH2 0x35DE JUMP JUMPDEST SWAP2 ISZERO ISZERO PUSH1 0x20 DUP5 ADD MSTORE PUSH1 0x40 DUP4 ADD MSTORE SUB SWAP1 RETURN JUMPDEST DUP1 PUSH2 0x1688 PUSH2 0x16A4 SWAP3 DUP5 PUSH2 0x3C6C JUMP JUMPDEST MLOAD PUSH2 0x1693 DUP3 DUP11 PUSH2 0x3C6C JUMP JUMPDEST MSTORE PUSH2 0x169E DUP2 DUP10 PUSH2 0x3C6C JUMP JUMPDEST POP PUSH2 0x3A27 JUMP JUMPDEST PUSH2 0x164B JUMP JUMPDEST PUSH2 0x16B2 DUP2 PUSH2 0x3343 JUMP JUMPDEST SWAP1 SLOAD PUSH1 0x3 SWAP2 DUP3 SHL SHR PUSH1 0x0 MSTORE PUSH1 0xB PUSH1 0x20 SWAP2 DUP2 DUP4 MSTORE PUSH1 0x10 SWAP1 DUP2 PUSH1 0x40 PUSH1 0x0 KECCAK256 ADD SLOAD DUP7 GT ISZERO PUSH2 0x16EA JUMPI JUMPDEST POP POP POP POP PUSH2 0x16E5 SWAP1 PUSH2 0x3A27 JUMP JUMPDEST PUSH2 0x1631 JUMP JUMPDEST SWAP1 SWAP2 SWAP3 SWAP4 SWAP9 SWAP10 DUP7 DUP12 LT PUSH1 0x0 EQ PUSH2 0x17AB JUMPI POP SWAP2 PUSH1 0x11 SWAP2 PUSH1 0xFF SWAP4 PUSH2 0x170B DUP12 PUSH2 0x3343 JUMP JUMPDEST SWAP1 SLOAD SWAP2 SHL SHR PUSH1 0x0 MSTORE DUP2 DUP6 MSTORE PUSH1 0x40 PUSH1 0x0 KECCAK256 SWAP2 PUSH1 0x40 MLOAD SWAP6 PUSH2 0x1729 DUP8 PUSH2 0x3392 JUMP JUMPDEST DUP4 SLOAD DUP8 MSTORE PUSH2 0x1738 DUP11 DUP6 ADD PUSH2 0x371A JUMP JUMPDEST SWAP1 DUP8 ADD MSTORE DUP3 ADD SLOAD PUSH1 0x40 DUP7 ADD MSTORE PUSH1 0xC DUP3 ADD SLOAD DUP14 DUP7 ADD MSTORE PUSH1 0xD DUP3 ADD SLOAD PUSH1 0x80 DUP7 ADD MSTORE PUSH1 0xE DUP3 ADD SLOAD PUSH1 0xA0 DUP7 ADD MSTORE PUSH1 0xF DUP3 ADD SLOAD PUSH1 0xC0 DUP7 ADD MSTORE DUP2 ADD SLOAD PUSH1 0xE0 DUP6 ADD MSTORE ADD SLOAD AND ISZERO ISZERO PUSH2 0x100 DUP3 ADD MSTORE PUSH2 0x1788 DUP8 DUP12 PUSH2 0x3C6C JUMP JUMPDEST MSTORE PUSH2 0x1793 DUP7 DUP11 PUSH2 0x3C6C JUMP JUMPDEST POP PUSH2 0x16E5 PUSH2 0x17A1 DUP7 SWAP8 PUSH2 0x3A27 JUMP JUMPDEST SWAP6 SWAP1 DUP12 DUP1 DUP1 PUSH2 0x16D8 JUMP JUMPDEST SWAP10 SWAP11 POP POP POP POP POP POP POP SWAP2 POP POP SWAP2 DUP6 DUP1 DUP1 DUP1 DUP1 PUSH2 0x1639 JUMP JUMPDEST CALLVALUE PUSH2 0x1F5 JUMPI PUSH1 0x0 CALLDATASIZE PUSH1 0x3 NOT ADD SLT PUSH2 0x1F5 JUMPI PUSH1 0x1 DUP1 SLOAD PUSH2 0x17E0 DUP2 PUSH2 0x3C1C JUMP JUMPDEST SWAP2 PUSH1 0x0 JUMPDEST DUP3 DUP2 LT PUSH2 0x1801 JUMPI PUSH1 0x40 MLOAD PUSH1 0x20 DUP1 DUP3 MSTORE DUP2 SWAP1 PUSH2 0x487 SWAP1 DUP3 ADD DUP8 PUSH2 0x35DE JUMP JUMPDEST DUP1 PUSH2 0x180E PUSH2 0x18A4 SWAP3 PUSH2 0x3343 JUMP JUMPDEST SWAP1 SLOAD SWAP1 PUSH1 0x3 SHL SHR PUSH1 0x0 MSTORE PUSH1 0xB PUSH1 0xFF PUSH1 0x11 PUSH1 0x20 SWAP3 DUP1 DUP5 MSTORE PUSH1 0x40 PUSH1 0x0 KECCAK256 SWAP1 PUSH1 0x40 MLOAD SWAP5 PUSH2 0x1837 DUP7 PUSH2 0x3392 JUMP JUMPDEST DUP3 SLOAD DUP7 MSTORE PUSH2 0x1846 DUP10 DUP5 ADD PUSH2 0x371A JUMP JUMPDEST SWAP1 DUP7 ADD MSTORE DUP2 ADD SLOAD PUSH1 0x40 DUP6 ADD MSTORE PUSH1 0xC DUP2 ADD SLOAD PUSH1 0x60 DUP6 ADD MSTORE PUSH1 0xD DUP2 ADD SLOAD PUSH1 0x80 DUP6 ADD MSTORE PUSH1 0xE DUP2 ADD SLOAD PUSH1 0xA0 DUP6 ADD MSTORE PUSH1 0xF DUP2 ADD SLOAD PUSH1 0xC0 DUP6 ADD MSTORE PUSH1 0x10 DUP2 ADD SLOAD PUSH1 0xE0 DUP6 ADD MSTORE ADD SLOAD AND ISZERO ISZERO PUSH2 0x100 DUP3 ADD MSTORE PUSH2 0x1899 DUP3 DUP8 PUSH2 0x3C6C JUMP JUMPDEST MSTORE PUSH2 0x169E DUP2 DUP7 PUSH2 0x3C6C JUMP JUMPDEST PUSH2 0x17E4 JUMP JUMPDEST CALLVALUE PUSH2 0x1F5 JUMPI PUSH1 0x3 NOT PUSH1 0x60 CALLDATASIZE DUP3 ADD SLT PUSH2 0x1F5 JUMPI PUSH1 0x4 CALLDATALOAD SWAP1 PUSH1 0x1 PUSH1 0x1 PUSH1 0x40 SHL SUB DUP3 GT PUSH2 0x1F5 JUMPI CALLDATASIZE PUSH1 0x23 DUP4 ADD SLT ISZERO PUSH2 0x1F5 JUMPI DUP2 PUSH1 0x4 ADD CALLDATALOAD PUSH2 0x18E6 DUP2 PUSH2 0x3633 JUMP JUMPDEST SWAP3 PUSH2 0x18F4 PUSH1 0x40 MLOAD SWAP5 DUP6 PUSH2 0x3400 JUMP JUMPDEST DUP2 DUP5 MSTORE PUSH1 0x24 PUSH1 0x60 PUSH1 0x20 DUP7 ADD SWAP4 MUL DUP3 ADD ADD SWAP1 CALLDATASIZE DUP3 GT PUSH2 0x1F5 JUMPI PUSH1 0x24 ADD SWAP2 JUMPDEST DUP2 DUP4 LT PUSH2 0x2B5E JUMPI POP POP POP PUSH1 0x1 PUSH1 0x1 PUSH1 0x40 SHL SUB PUSH1 0x24 CALLDATALOAD GT PUSH2 0x1F5 JUMPI PUSH2 0x120 SWAP1 PUSH1 0x24 CALLDATALOAD CALLDATASIZE SUB ADD SLT PUSH2 0x1F5 JUMPI PUSH1 0x40 MLOAD PUSH2 0x1946 DUP2 PUSH2 0x3392 JUMP JUMPDEST PUSH1 0x24 CALLDATALOAD PUSH1 0x4 ADD CALLDATALOAD PUSH1 0x1 PUSH1 0x1 PUSH1 0x40 SHL SUB DUP2 GT PUSH2 0x1F5 JUMPI PUSH2 0x196D SWAP1 PUSH1 0x4 CALLDATASIZE SWAP2 PUSH1 0x24 CALLDATALOAD ADD ADD PUSH2 0x3421 JUMP JUMPDEST DUP2 MSTORE PUSH1 0x24 DUP1 CALLDATALOAD ADD CALLDATALOAD PUSH1 0x1 PUSH1 0x1 PUSH1 0x40 SHL SUB DUP2 GT PUSH2 0x1F5 JUMPI PUSH2 0x1995 SWAP1 PUSH1 0x4 CALLDATASIZE SWAP2 PUSH1 0x24 CALLDATALOAD ADD ADD PUSH2 0x3421 JUMP JUMPDEST PUSH1 0x20 DUP3 ADD MSTORE PUSH1 0x44 PUSH1 0x24 CALLDATALOAD ADD CALLDATALOAD PUSH1 0x1 PUSH1 0x1 PUSH1 0x40 SHL SUB DUP2 GT PUSH2 0x1F5 JUMPI PUSH2 0x19C1 SWAP1 PUSH1 0x4 CALLDATASIZE SWAP2 PUSH1 0x24 CALLDATALOAD ADD ADD PUSH2 0x3421 JUMP JUMPDEST PUSH1 0x40 DUP3 ADD MSTORE PUSH1 0x64 PUSH1 0x24 CALLDATALOAD ADD CALLDATALOAD PUSH1 0x1 PUSH1 0x1 PUSH1 0x40 SHL SUB DUP2 GT PUSH2 0x1F5 JUMPI PUSH2 0x19ED SWAP1 PUSH1 0x4 CALLDATASIZE SWAP2 PUSH1 0x24 CALLDATALOAD ADD ADD PUSH2 0x3421 JUMP JUMPDEST PUSH1 0x60 DUP3 ADD MSTORE PUSH1 0x84 PUSH1 0x24 CALLDATALOAD ADD CALLDATALOAD PUSH1 0x1 PUSH1 0x1 PUSH1 0x40 SHL SUB DUP2 GT PUSH2 0x1F5 JUMPI PUSH2 0x1A19 SWAP1 PUSH1 0x4 CALLDATASIZE SWAP2 PUSH1 0x24 CALLDATALOAD ADD ADD PUSH2 0x3421 JUMP JUMPDEST PUSH1 0x80 DUP3 ADD MSTORE PUSH1 0x1 PUSH1 0x1 PUSH1 0x40 SHL SUB PUSH1 0xA4 PUSH1 0x24 CALLDATALOAD ADD CALLDATALOAD GT PUSH2 0x1F5 JUMPI PUSH2 0x1A47 CALLDATASIZE PUSH1 0x24 CALLDATALOAD PUSH1 0xA4 DUP2 ADD CALLDATALOAD ADD PUSH1 0x4 ADD PUSH2 0x3421 JUMP JUMPDEST PUSH1 0xA0 DUP3 ADD MSTORE PUSH1 0x1 PUSH1 0x1 PUSH1 0x40 SHL SUB PUSH1 0xC4 PUSH1 0x24 CALLDATALOAD ADD CALLDATALOAD GT PUSH2 0x1F5 JUMPI PUSH2 0x1A75 CALLDATASIZE PUSH1 0x24 CALLDATALOAD PUSH1 0xC4 DUP2 ADD CALLDATALOAD ADD PUSH1 0x4 ADD PUSH2 0x3421 JUMP JUMPDEST PUSH1 0xC0 DUP3 ADD MSTORE PUSH1 0x1 PUSH1 0x1 PUSH1 0x40 SHL SUB PUSH1 0xE4 PUSH1 0x24 CALLDATALOAD ADD CALLDATALOAD GT PUSH2 0x1F5 JUMPI PUSH2 0x1AA3 CALLDATASIZE PUSH1 0x24 CALLDATALOAD PUSH1 0xE4 DUP2 ADD CALLDATALOAD ADD PUSH1 0x4 ADD PUSH2 0x3421 JUMP JUMPDEST PUSH1 0xE0 DUP3 ADD MSTORE PUSH1 0x1 PUSH1 0x1 PUSH1 0x40 SHL SUB PUSH2 0x104 PUSH1 0x24 CALLDATALOAD ADD CALLDATALOAD GT PUSH2 0x1F5 JUMPI PUSH2 0x1AD3 CALLDATASIZE PUSH1 0x24 CALLDATALOAD PUSH2 0x104 DUP2 ADD CALLDATALOAD ADD PUSH1 0x4 ADD PUSH2 0x3421 JUMP JUMPDEST PUSH2 0x100 DUP3 ADD MSTORE PUSH1 0x44 CALLDATALOAD PUSH1 0x1 PUSH1 0x1 PUSH1 0xA0 SHL SUB DUP2 AND SWAP1 SUB PUSH2 0x1F5 JUMPI DUP2 MLOAD PUSH1 0x40 MLOAD PUSH1 0x20 DUP2 ADD SWAP2 PUSH1 0x1 PUSH1 0x1 PUSH1 0x60 SHL SUB NOT PUSH1 0x44 CALLDATALOAD PUSH1 0x60 SHL AND DUP4 MSTORE PUSH1 0x34 DUP3 ADD MSTORE TIMESTAMP PUSH1 0x54 DUP3 ADD MSTORE PUSH1 0x54 DUP2 MSTORE PUSH1 0x80 DUP2 ADD DUP2 DUP2 LT PUSH1 0x1 PUSH1 0x1 PUSH1 0x40 SHL SUB DUP3 GT OR PUSH2 0xECF JUMPI PUSH1 0x40 MSTORE MLOAD SWAP1 KECCAK256 PUSH1 0x0 SWAP3 DUP4 JUMPDEST DUP2 MLOAD DUP6 LT ISZERO PUSH2 0x2080 JUMPI PUSH2 0x1B4B DUP6 DUP4 PUSH2 0x3C6C JUMP JUMPDEST MLOAD SWAP5 DUP6 MLOAD PUSH1 0x0 MSTORE PUSH1 0xB PUSH1 0x20 MSTORE PUSH1 0x40 PUSH1 0x0 KECCAK256 SLOAD ISZERO PUSH2 0x1FEF JUMPI PUSH1 0x4 PUSH1 0x40 DUP8 ADD MLOAD LT ISZERO PUSH2 0x78C JUMPI DUP6 MLOAD PUSH1 0x0 MSTORE PUSH1 0xB PUSH1 0x20 MSTORE PUSH1 0x40 PUSH1 0x0 KECCAK256 SWAP2 PUSH1 0xB DUP4 ADD SLOAD ISZERO PUSH2 0x1FAA JUMPI PUSH1 0x40 DUP8 ADD MLOAD PUSH1 0x4 DUP2 LT ISZERO PUSH2 0x78C JUMPI PUSH2 0x1D08 JUMPI PUSH2 0x1BE0 SWAP1 PUSH2 0x1BDA PUSH1 0x20 DUP10 ADD PUSH2 0x1BB5 DUP2 MLOAD PUSH1 0xB DUP9 ADD SLOAD PUSH2 0x3A99 JUMP JUMPDEST PUSH1 0xB DUP8 ADD SSTORE DUP1 MLOAD PUSH2 0x1BCB PUSH1 0xC DUP9 ADD SWAP2 DUP3 SLOAD PUSH2 0x3C80 JUMP JUMPDEST SWAP1 SSTORE PUSH1 0x6 DUP7 ADD SLOAD SWAP1 MLOAD SWAP1 PUSH2 0x3C8D JUMP JUMPDEST SWAP1 PUSH2 0x3C80 JUMP JUMPDEST SWAP6 JUMPDEST PUSH1 0x6 PUSH1 0x20 DUP3 ADD MLOAD SWAP4 ADD SLOAD PUSH1 0x40 DUP3 ADD MLOAD SWAP2 PUSH1 0x4 DUP4 LT ISZERO PUSH2 0x78C JUMPI MLOAD PUSH1 0x1 DUP1 PUSH1 0xA0 SHL SUB PUSH1 0x2 SLOAD AND PUSH1 0x40 MLOAD SWAP2 DUP3 PUSH2 0x100 DUP2 ADD LT PUSH1 0x1 PUSH1 0x1 PUSH1 0x40 SHL SUB PUSH2 0x100 DUP6 ADD GT OR PUSH2 0xECF JUMPI PUSH2 0x1C78 PUSH32 0x38519EA73CE180EEC93F979FE8CA4032A864EA12A395231678293C7FD45946E8 SWAP6 PUSH2 0x100 SWAP6 PUSH2 0x1D02 SWAP10 DUP8 DUP8 ADD PUSH1 0x40 MSTORE PUSH1 0x1 DUP1 PUSH1 0xA0 SHL SUB PUSH1 0x44 CALLDATALOAD AND DUP8 MSTORE PUSH1 0x20 DUP8 ADD MSTORE PUSH1 0x40 DUP7 ADD MSTORE PUSH1 0x60 DUP6 ADD PUSH2 0x3CA0 JUMP JUMPDEST TIMESTAMP PUSH1 0x80 DUP5 ADD MSTORE PUSH1 0xA0 DUP4 ADD MSTORE CALLER PUSH1 0xC0 DUP4 ADD MSTORE PUSH1 0xE0 DUP3 ADD MSTORE PUSH1 0x40 MLOAD SWAP1 PUSH1 0x1 DUP1 PUSH1 0xA0 SHL SUB DUP2 MLOAD AND DUP3 MSTORE PUSH1 0x20 DUP2 ADD MLOAD PUSH1 0x20 DUP4 ADD MSTORE PUSH1 0x40 DUP2 ADD MLOAD PUSH1 0x40 DUP4 ADD MSTORE PUSH2 0x1CC4 PUSH1 0x60 DUP3 ADD MLOAD PUSH1 0x60 DUP5 ADD SWAP1 PUSH2 0x37D8 JUMP JUMPDEST PUSH1 0x80 DUP2 ADD MLOAD PUSH1 0x80 DUP4 ADD MSTORE PUSH1 0xA0 DUP2 ADD MLOAD PUSH1 0xA0 DUP4 ADD MSTORE PUSH1 0x1 DUP1 PUSH1 0xA0 SHL SUB PUSH1 0xC0 DUP3 ADD MLOAD AND PUSH1 0xC0 DUP4 ADD MSTORE PUSH1 0xE0 PUSH1 0x1 DUP1 PUSH1 0xA0 SHL SUB SWAP2 ADD MLOAD AND PUSH1 0xE0 DUP3 ADD MSTORE LOG1 PUSH2 0x3A27 JUMP JUMPDEST SWAP4 PUSH2 0x1B38 JUMP JUMPDEST PUSH1 0x0 DUP8 MLOAD PUSH1 0x0 MSTORE PUSH1 0xB PUSH1 0x20 MSTORE PUSH1 0x40 PUSH1 0x0 KECCAK256 SWAP2 PUSH1 0x0 SWAP3 PUSH1 0x40 DUP11 ADD MLOAD PUSH1 0x4 DUP2 LT ISZERO PUSH2 0x78C JUMPI PUSH1 0x1 EQ PUSH2 0x1F85 JUMPI JUMPDEST PUSH1 0x40 DUP11 ADD MLOAD PUSH1 0x4 DUP2 LT ISZERO PUSH2 0x78C JUMPI PUSH1 0x2 EQ PUSH2 0x1F60 JUMPI JUMPDEST PUSH1 0x40 DUP11 ADD MLOAD PUSH1 0x4 DUP2 LT ISZERO PUSH2 0x78C JUMPI PUSH1 0x3 EQ PUSH2 0x1F26 JUMPI JUMPDEST PUSH1 0x20 DUP11 ADD MLOAD PUSH2 0x1D73 PUSH1 0xB DUP4 ADD SWAP2 DUP3 SLOAD PUSH2 0x3A99 JUMP JUMPDEST SWAP1 SSTORE PUSH2 0x1D89 PUSH1 0xD PUSH1 0x20 DUP13 ADD MLOAD SWAP3 ADD SWAP2 DUP3 SLOAD PUSH2 0x3C80 JUMP JUMPDEST SWAP1 SSTORE PUSH1 0x1 DUP1 PUSH1 0xA0 SHL SUB PUSH1 0x44 CALLDATALOAD AND PUSH1 0x0 MSTORE PUSH1 0x11 PUSH1 0x20 MSTORE PUSH1 0x40 PUSH1 0x0 KECCAK256 DUP8 PUSH1 0x0 MSTORE PUSH1 0x20 MSTORE PUSH1 0x40 PUSH1 0x0 KECCAK256 DUP10 MLOAD PUSH1 0x0 MSTORE PUSH1 0x20 MSTORE TIMESTAMP PUSH1 0x40 PUSH1 0x0 KECCAK256 SSTORE PUSH1 0x40 DUP10 ADD MLOAD PUSH1 0x4 DUP2 LT ISZERO PUSH2 0x78C JUMPI PUSH2 0x1DD8 PUSH2 0x1DDE SWAP2 PUSH2 0x3CC4 JUMP JUMPDEST TIMESTAMP PUSH2 0x3F9C JUMP JUMPDEST PUSH1 0x44 CALLDATALOAD PUSH1 0x1 PUSH1 0x1 PUSH1 0xA0 SHL SUB AND PUSH1 0x0 DUP2 DUP2 MSTORE PUSH1 0x12 PUSH1 0x20 SWAP1 DUP2 MSTORE PUSH1 0x40 DUP1 DUP4 KECCAK256 DUP13 DUP5 MSTORE DUP3 MSTORE DUP1 DUP4 KECCAK256 DUP15 MLOAD DUP5 MSTORE DUP3 MSTORE DUP1 DUP4 KECCAK256 SWAP5 SWAP1 SWAP5 SSTORE DUP3 DUP3 MSTORE PUSH1 0x13 DUP2 MSTORE DUP4 DUP3 KECCAK256 DUP12 DUP4 MSTORE DUP2 MSTORE DUP4 DUP3 KECCAK256 DUP14 MLOAD DUP4 MSTORE DUP2 MSTORE DUP4 DUP3 KECCAK256 DUP8 SWAP1 SSTORE SWAP2 DUP2 MSTORE PUSH1 0x14 DUP3 MSTORE DUP3 DUP2 KECCAK256 DUP11 DUP3 MSTORE DUP3 MSTORE DUP3 DUP2 KECCAK256 DUP13 MLOAD DUP3 MSTORE DUP3 MSTORE DUP3 SWAP1 KECCAK256 DUP12 MLOAD DUP2 SSTORE SWAP1 DUP12 ADD MLOAD PUSH1 0x1 DUP3 ADD SSTORE SWAP1 DUP11 ADD MLOAD SWAP1 PUSH1 0x4 DUP3 LT ISZERO PUSH2 0x78C JUMPI PUSH1 0x2 ADD SWAP1 PUSH1 0xFF DUP1 NOT DUP4 SLOAD AND SWAP2 AND OR SWAP1 SSTORE DUP9 MLOAD SWAP3 PUSH1 0x1 DUP1 PUSH1 0xA0 SHL SUB PUSH1 0x44 CALLDATALOAD AND PUSH1 0x0 MSTORE PUSH1 0x12 PUSH1 0x20 MSTORE PUSH1 0x40 PUSH1 0x0 KECCAK256 DUP9 PUSH1 0x0 MSTORE PUSH1 0x20 MSTORE PUSH1 0x40 PUSH1 0x0 KECCAK256 DUP11 MLOAD PUSH1 0x0 MSTORE PUSH1 0x20 MSTORE PUSH1 0x40 PUSH1 0x0 KECCAK256 SLOAD SWAP4 PUSH1 0x40 DUP12 ADD MLOAD SWAP1 PUSH1 0x4 DUP3 LT ISZERO PUSH2 0x78C JUMPI PUSH1 0x40 DUP1 MLOAD PUSH1 0x44 CALLDATALOAD PUSH1 0x1 PUSH1 0x1 PUSH1 0xA0 SHL SUB AND DUP2 MSTORE PUSH1 0x20 DUP2 ADD DUP13 SWAP1 MSTORE SWAP1 DUP2 ADD SWAP2 SWAP1 SWAP2 MSTORE TIMESTAMP PUSH1 0x60 DUP3 ADD MSTORE PUSH1 0x80 DUP2 ADD SWAP6 SWAP1 SWAP6 MSTORE PUSH1 0xA0 DUP6 ADD MSTORE PUSH1 0xC0 DUP5 ADD MSTORE PUSH2 0x1F20 SWAP3 PUSH32 0xB53E83884FD4F0F2DC740F6BAF6D8786EDD21113FE391249904E725A6B311730 SWAP1 PUSH1 0xE0 SWAP1 LOG1 PUSH2 0x3C80 JUMP JUMPDEST SWAP6 PUSH2 0x1BE2 JUMP JUMPDEST SWAP2 POP PUSH2 0x1F55 SWAP3 POP PUSH2 0x1F5A PUSH1 0xA DUP4 ADD SLOAD PUSH2 0x1F45 PUSH1 0x20 DUP13 ADD SWAP2 DUP3 MLOAD SWAP1 PUSH2 0x3C8D JUMP JUMPDEST SWAP5 DUP6 SWAP2 PUSH1 0x7 DUP7 ADD SLOAD SWAP1 MLOAD SWAP1 PUSH2 0x3C8D JUMP JUMPDEST PUSH2 0x3C80 JUMP JUMPDEST SWAP2 PUSH2 0x1D5F JUMP JUMPDEST SWAP2 POP PUSH2 0x1F55 SWAP3 POP PUSH2 0x1F7F PUSH1 0x9 DUP4 ADD SLOAD PUSH2 0x1F45 PUSH1 0x20 DUP13 ADD SWAP2 DUP3 MLOAD SWAP1 PUSH2 0x3C8D JUMP JUMPDEST SWAP2 PUSH2 0x1D49 JUMP JUMPDEST SWAP2 POP PUSH2 0x1F55 SWAP3 POP PUSH2 0x1FA4 PUSH1 0x8 DUP4 ADD SLOAD PUSH2 0x1F45 PUSH1 0x20 DUP13 ADD SWAP2 DUP3 MLOAD SWAP1 PUSH2 0x3C8D JUMP JUMPDEST SWAP2 PUSH2 0x1D33 JUMP JUMPDEST PUSH1 0x40 MLOAD PUSH3 0x461BCD PUSH1 0xE5 SHL DUP2 MSTORE PUSH1 0x20 PUSH1 0x4 DUP3 ADD MSTORE PUSH1 0x1D PUSH1 0x24 DUP3 ADD MSTORE PUSH32 0x70726F647563742073746F72616765206973206E6F7420656E6F756768000000 PUSH1 0x44 DUP3 ADD MSTORE PUSH1 0x64 SWAP1 REVERT JUMPDEST PUSH1 0x40 MLOAD PUSH3 0x461BCD PUSH1 0xE5 SHL DUP2 MSTORE PUSH1 0x20 PUSH1 0x4 DUP3 ADD MSTORE PUSH1 0x5B PUSH1 0x24 DUP3 ADD MSTORE PUSH32 0x7B2266726F6D223A2022466943616D2E736F6C222C2022636F6465223A20342C PUSH1 0x44 DUP3 ADD MSTORE PUSH32 0x20226D657373616765223A2022496E76616C69642070726F6475637420494420 PUSH1 0x64 DUP3 ADD MSTORE PUSH32 0x6F722070726F6475637420646F6573206E6F74206578697374227D0000000000 PUSH1 0x84 DUP3 ADD MSTORE PUSH1 0xA4 SWAP1 REVERT JUMPDEST PUSH1 0x4 DUP1 SLOAD PUSH1 0x2 SLOAD PUSH1 0x40 MLOAD PUSH4 0x23B872DD PUSH1 0xE0 SHL DUP2 MSTORE CALLER SWAP4 DUP2 ADD SWAP4 SWAP1 SWAP4 MSTORE PUSH1 0x1 PUSH1 0x1 PUSH1 0xA0 SHL SUB SWAP1 DUP2 AND PUSH1 0x24 DUP5 ADD MSTORE PUSH1 0x44 DUP4 ADD SWAP4 SWAP1 SWAP4 MSTORE DUP6 SWAP3 PUSH1 0x20 SWAP2 DUP4 SWAP2 PUSH1 0x64 SWAP2 DUP4 SWAP2 PUSH1 0x0 SWAP2 AND GAS CALL SWAP1 DUP2 ISZERO PUSH2 0x7CF JUMPI PUSH1 0x0 SWAP2 PUSH2 0x2B3F JUMPI JUMPDEST POP ISZERO PUSH2 0x2B02 JUMPI PUSH1 0x40 MLOAD SWAP1 PUSH2 0x20E8 DUP3 PUSH2 0x33C9 JUMP JUMPDEST DUP4 DUP3 MSTORE PUSH1 0x1 DUP1 PUSH1 0xA0 SHL SUB PUSH1 0x44 CALLDATALOAD AND PUSH1 0x20 DUP4 ADD MSTORE PUSH1 0x40 DUP3 ADD SWAP3 DUP4 MSTORE TIMESTAMP PUSH1 0x60 DUP4 ADD MSTORE PUSH1 0x80 DUP3 ADD MSTORE PUSH1 0x5 PUSH1 0xA0 DUP3 ADD MSTORE DUP3 PUSH1 0x0 MSTORE PUSH1 0xA PUSH1 0x20 MSTORE PUSH1 0x40 PUSH1 0x0 KECCAK256 SWAP2 DUP2 MLOAD DUP4 SSTORE PUSH1 0x1 DUP4 ADD PUSH1 0x1 DUP1 PUSH1 0xA0 SHL SUB PUSH1 0x20 DUP5 ADD MLOAD AND PUSH1 0x1 PUSH1 0x1 PUSH1 0x60 SHL SUB PUSH1 0xA0 SHL DUP3 SLOAD AND OR SWAP1 SSTORE MLOAD DUP1 MLOAD SWAP1 PUSH1 0x1 PUSH1 0x40 SHL DUP3 GT PUSH2 0xECF JUMPI PUSH1 0x2 DUP5 ADD SLOAD DUP3 PUSH1 0x2 DUP7 ADD SSTORE DUP1 DUP4 LT PUSH2 0x2A93 JUMPI JUMPDEST POP PUSH1 0x20 ADD SWAP1 PUSH1 0x2 DUP5 ADD PUSH1 0x0 MSTORE PUSH1 0x20 PUSH1 0x0 KECCAK256 PUSH1 0x0 SWAP3 JUMPDEST DUP3 DUP5 LT PUSH2 0x2A50 JUMPI POP POP POP POP PUSH1 0x60 DUP2 ADD MLOAD PUSH1 0x3 DUP4 ADD SSTORE PUSH1 0x80 DUP2 ADD MLOAD DUP1 MLOAD DUP1 MLOAD SWAP1 PUSH1 0x1 PUSH1 0x1 PUSH1 0x40 SHL SUB DUP3 GT PUSH2 0xECF JUMPI DUP2 SWAP1 PUSH2 0x21C9 DUP3 PUSH2 0x21C0 PUSH1 0x4 DUP10 ADD SLOAD PUSH2 0x364A JUMP JUMPDEST PUSH1 0x4 DUP10 ADD PUSH2 0x39AD JUMP JUMPDEST PUSH1 0x20 SWAP1 PUSH1 0x1F DUP4 GT PUSH1 0x1 EQ PUSH2 0x29DE JUMPI PUSH1 0x0 SWAP3 PUSH2 0x29D3 JUMPI JUMPDEST POP POP DUP2 PUSH1 0x1 SHL SWAP2 PUSH1 0x0 NOT SWAP1 PUSH1 0x3 SHL SHR NOT AND OR PUSH1 0x4 DUP5 ADD SSTORE JUMPDEST PUSH1 0x20 DUP2 ADD MLOAD DUP1 MLOAD SWAP1 PUSH1 0x1 PUSH1 0x1 PUSH1 0x40 SHL SUB DUP3 GT PUSH2 0xECF JUMPI DUP2 SWAP1 PUSH2 0x2229 DUP3 PUSH2 0x2220 PUSH1 0x5 DUP10 ADD SLOAD PUSH2 0x364A JUMP JUMPDEST PUSH1 0x5 DUP10 ADD PUSH2 0x39AD JUMP JUMPDEST PUSH1 0x20 SWAP1 PUSH1 0x1F DUP4 GT PUSH1 0x1 EQ PUSH2 0x2961 JUMPI PUSH1 0x0 SWAP3 PUSH2 0x2956 JUMPI JUMPDEST POP POP DUP2 PUSH1 0x1 SHL SWAP2 PUSH1 0x0 NOT SWAP1 PUSH1 0x3 SHL SHR NOT AND OR PUSH1 0x5 DUP5 ADD SSTORE JUMPDEST PUSH1 0x40 DUP2 ADD MLOAD DUP1 MLOAD SWAP1 PUSH1 0x1 PUSH1 0x1 PUSH1 0x40 SHL SUB DUP3 GT PUSH2 0xECF JUMPI DUP2 SWAP1 PUSH2 0x2289 DUP3 PUSH2 0x2280 PUSH1 0x6 DUP10 ADD SLOAD PUSH2 0x364A JUMP JUMPDEST PUSH1 0x6 DUP10 ADD PUSH2 0x39AD JUMP JUMPDEST PUSH1 0x20 SWAP1 PUSH1 0x1F DUP4 GT PUSH1 0x1 EQ PUSH2 0x28E4 JUMPI PUSH1 0x0 SWAP3 PUSH2 0x28D9 JUMPI JUMPDEST POP POP DUP2 PUSH1 0x1 SHL SWAP2 PUSH1 0x0 NOT SWAP1 PUSH1 0x3 SHL SHR NOT AND OR PUSH1 0x6 DUP5 ADD SSTORE JUMPDEST PUSH1 0x60 DUP2 ADD MLOAD DUP1 MLOAD SWAP1 PUSH1 0x1 PUSH1 0x1 PUSH1 0x40 SHL SUB DUP3 GT PUSH2 0xECF JUMPI DUP2 SWAP1 PUSH2 0x22E9 DUP3 PUSH2 0x22E0 PUSH1 0x7 DUP10 ADD SLOAD PUSH2 0x364A JUMP JUMPDEST PUSH1 0x7 DUP10 ADD PUSH2 0x39AD JUMP JUMPDEST PUSH1 0x20 SWAP1 PUSH1 0x1F DUP4 GT PUSH1 0x1 EQ PUSH2 0x2867 JUMPI PUSH1 0x0 SWAP3 PUSH2 0x285C JUMPI JUMPDEST POP POP DUP2 PUSH1 0x1 SHL SWAP2 PUSH1 0x0 NOT SWAP1 PUSH1 0x3 SHL SHR NOT AND OR PUSH1 0x7 DUP5 ADD SSTORE JUMPDEST PUSH1 0x80 DUP2 ADD MLOAD DUP1 MLOAD SWAP1 PUSH1 0x1 PUSH1 0x1 PUSH1 0x40 SHL SUB DUP3 GT PUSH2 0xECF JUMPI DUP2 SWAP1 PUSH2 0x2349 DUP3 PUSH2 0x2340 PUSH1 0x8 DUP10 ADD SLOAD PUSH2 0x364A JUMP JUMPDEST PUSH1 0x8 DUP10 ADD PUSH2 0x39AD JUMP JUMPDEST PUSH1 0x20 SWAP1 PUSH1 0x1F DUP4 GT PUSH1 0x1 EQ PUSH2 0x27EA JUMPI PUSH1 0x0 SWAP3 PUSH2 0x27DF JUMPI JUMPDEST POP POP DUP2 PUSH1 0x1 SHL SWAP2 PUSH1 0x0 NOT SWAP1 PUSH1 0x3 SHL SHR NOT AND OR PUSH1 0x8 DUP5 ADD SSTORE JUMPDEST PUSH1 0xA0 DUP2 ADD MLOAD DUP1 MLOAD SWAP1 PUSH1 0x1 PUSH1 0x1 PUSH1 0x40 SHL SUB DUP3 GT PUSH2 0xECF JUMPI DUP2 SWAP1 PUSH2 0x23A9 DUP3 PUSH2 0x23A0 PUSH1 0x9 DUP10 ADD SLOAD PUSH2 0x364A JUMP JUMPDEST PUSH1 0x9 DUP10 ADD PUSH2 0x39AD JUMP JUMPDEST PUSH1 0x20 SWAP1 PUSH1 0x1F DUP4 GT PUSH1 0x1 EQ PUSH2 0x276D JUMPI PUSH1 0x0 SWAP3 PUSH2 0x2762 JUMPI JUMPDEST POP POP DUP2 PUSH1 0x1 SHL SWAP2 PUSH1 0x0 NOT SWAP1 PUSH1 0x3 SHL SHR NOT AND OR PUSH1 0x9 DUP5 ADD SSTORE JUMPDEST PUSH1 0xC0 DUP2 ADD MLOAD DUP1 MLOAD SWAP1 PUSH1 0x1 PUSH1 0x1 PUSH1 0x40 SHL SUB DUP3 GT PUSH2 0xECF JUMPI DUP2 SWAP1 PUSH2 0x2409 DUP3 PUSH2 0x2400 PUSH1 0xA DUP10 ADD SLOAD PUSH2 0x364A JUMP JUMPDEST PUSH1 0xA DUP10 ADD PUSH2 0x39AD JUMP JUMPDEST PUSH1 0x20 SWAP1 PUSH1 0x1F DUP4 GT PUSH1 0x1 EQ PUSH2 0x26F0 JUMPI PUSH1 0x0 SWAP3 PUSH2 0x26E5 JUMPI JUMPDEST POP POP DUP2 PUSH1 0x1 SHL SWAP2 PUSH1 0x0 NOT SWAP1 PUSH1 0x3 SHL SHR NOT AND OR PUSH1 0xA DUP5 ADD SSTORE JUMPDEST PUSH1 0xE0 DUP2 ADD MLOAD DUP1 MLOAD SWAP1 PUSH1 0x1 PUSH1 0x1 PUSH1 0x40 SHL SUB DUP3 GT PUSH2 0xECF JUMPI PUSH2 0x2467 DUP3 PUSH2 0x245E PUSH1 0xB DUP9 ADD SLOAD PUSH2 0x364A JUMP JUMPDEST PUSH1 0xB DUP9 ADD PUSH2 0x39AD JUMP JUMPDEST PUSH1 0x20 SWAP1 PUSH1 0x1F DUP4 GT PUSH1 0x1 EQ PUSH2 0x2671 JUMPI PUSH2 0x100 SWAP4 SWAP3 SWAP2 PUSH1 0x0 SWAP2 DUP4 PUSH2 0x2666 JUMPI JUMPDEST POP POP DUP2 PUSH1 0x1 SHL SWAP2 PUSH1 0x0 NOT SWAP1 PUSH1 0x3 SHL SHR NOT AND OR PUSH1 0xB DUP6 ADD SSTORE JUMPDEST ADD MLOAD DUP1 MLOAD PUSH1 0x1 PUSH1 0x1 PUSH1 0x40 SHL SUB DUP2 GT PUSH2 0xECF JUMPI PUSH1 0xC DUP5 ADD SWAP2 PUSH2 0x24C7 DUP3 PUSH2 0x24C1 DUP6 SLOAD PUSH2 0x364A JUMP JUMPDEST DUP6 PUSH2 0x39AD JUMP JUMPDEST PUSH1 0x20 SWAP1 PUSH1 0x1F DUP4 GT PUSH1 0x1 EQ PUSH2 0x25F8 JUMPI SWAP2 DUP1 PUSH1 0xA0 SWAP5 SWAP3 PUSH1 0xD SWAP7 SWAP5 PUSH1 0x0 SWAP3 PUSH2 0x25ED JUMPI JUMPDEST POP POP DUP2 PUSH1 0x1 SHL SWAP2 PUSH1 0x0 NOT SWAP1 PUSH1 0x3 SHL SHR NOT AND OR SWAP1 SSTORE JUMPDEST ADD MLOAD SWAP2 ADD SSTORE PUSH1 0x44 CALLDATALOAD PUSH1 0x1 PUSH1 0x1 PUSH1 0xA0 SHL SUB AND PUSH1 0x0 SWAP1 DUP2 MSTORE PUSH1 0xE PUSH1 0x20 MSTORE PUSH1 0x40 SWAP1 KECCAK256 DUP1 SLOAD PUSH1 0x1 PUSH1 0x40 SHL DUP2 LT ISZERO PUSH2 0xECF JUMPI PUSH2 0x1359 DUP2 DUP5 SWAP4 PUSH1 0x1 PUSH2 0x253D SWAP5 ADD DUP2 SSTORE PUSH2 0x337A JUMP JUMPDEST SWAP1 SSTORE PUSH1 0x6 SLOAD PUSH1 0x1 PUSH1 0x40 SHL DUP2 LT ISZERO PUSH2 0xECF JUMPI PUSH1 0x1 DUP2 ADD DUP1 PUSH1 0x6 SSTORE DUP2 LT ISZERO PUSH2 0xEB9 JUMPI PUSH32 0xF652222313E28459528D920B65115C16C04F3EFC82AAEDC97BE59F3F377C0D3F ADD DUP1 SLOAD PUSH1 0x1 PUSH1 0x1 PUSH1 0xA0 SHL SUB NOT AND PUSH1 0x44 CALLDATALOAD PUSH1 0x1 PUSH1 0x1 PUSH1 0xA0 SHL SUB AND OR SWAP1 SSTORE PUSH1 0x15 SLOAD SWAP1 PUSH1 0x1 PUSH1 0x40 SHL DUP3 LT ISZERO PUSH2 0xECF JUMPI PUSH1 0x1 DUP3 ADD DUP1 PUSH1 0x15 SSTORE DUP3 LT ISZERO PUSH2 0xEB9 JUMPI DUP1 PUSH1 0x20 SWAP3 PUSH1 0x15 PUSH1 0x0 MSTORE PUSH32 0x55F448FDEA98C4D29EB340757EF0A66CD03DBB9538908A6A81D96026B71EC475 ADD SSTORE PUSH1 0x40 MLOAD SWAP1 DUP2 MSTORE RETURN JUMPDEST ADD MLOAD SWAP1 POP DUP9 DUP1 PUSH2 0x24E7 JUMP JUMPDEST SWAP1 PUSH1 0x1F NOT DUP4 AND SWAP2 DUP5 PUSH1 0x0 MSTORE PUSH1 0x20 PUSH1 0x0 KECCAK256 SWAP3 PUSH1 0x0 JUMPDEST DUP2 DUP2 LT PUSH2 0x264E JUMPI POP SWAP3 PUSH1 0x1 SWAP3 DUP6 SWAP3 PUSH1 0xD SWAP9 SWAP7 PUSH1 0xA0 SWAP9 SWAP7 LT PUSH2 0x2635 JUMPI JUMPDEST POP POP POP DUP2 SHL ADD SWAP1 SSTORE PUSH2 0x24FC JUMP JUMPDEST ADD MLOAD PUSH1 0x0 NOT PUSH1 0xF8 DUP5 PUSH1 0x3 SHL AND SHR NOT AND SWAP1 SSTORE DUP9 DUP1 DUP1 PUSH2 0x2628 JUMP JUMPDEST SWAP3 SWAP4 PUSH1 0x20 PUSH1 0x1 DUP2 SWAP3 DUP8 DUP7 ADD MLOAD DUP2 SSTORE ADD SWAP6 ADD SWAP4 ADD PUSH2 0x260C JUMP JUMPDEST ADD MLOAD SWAP1 POP DUP8 DUP1 PUSH2 0x2484 JUMP JUMPDEST SWAP1 PUSH1 0xB DUP7 ADD PUSH1 0x0 MSTORE PUSH1 0x20 PUSH1 0x0 KECCAK256 SWAP2 PUSH1 0x0 JUMPDEST PUSH1 0x1F NOT DUP6 AND DUP2 LT PUSH2 0x26CD JUMPI POP SWAP2 DUP4 SWAP2 PUSH1 0x1 SWAP4 PUSH2 0x100 SWAP7 SWAP6 PUSH1 0x1F NOT DUP2 AND LT PUSH2 0x26B4 JUMPI JUMPDEST POP POP POP DUP2 SHL ADD PUSH1 0xB DUP6 ADD SSTORE PUSH2 0x249C JUMP JUMPDEST ADD MLOAD PUSH1 0x0 NOT PUSH1 0xF8 DUP5 PUSH1 0x3 SHL AND SHR NOT AND SWAP1 SSTORE DUP8 DUP1 DUP1 PUSH2 0x26A4 JUMP JUMPDEST SWAP2 SWAP3 PUSH1 0x20 PUSH1 0x1 DUP2 SWAP3 DUP7 DUP6 ADD MLOAD DUP2 SSTORE ADD SWAP5 ADD SWAP3 ADD PUSH2 0x2682 JUMP JUMPDEST ADD MLOAD SWAP1 POP DUP7 DUP1 PUSH2 0x241F JUMP JUMPDEST SWAP3 POP PUSH1 0xA DUP7 ADD PUSH1 0x0 MSTORE PUSH1 0x20 PUSH1 0x0 KECCAK256 SWAP1 PUSH1 0x0 SWAP4 JUMPDEST PUSH1 0x1F NOT DUP5 AND DUP6 LT PUSH2 0x2747 JUMPI PUSH1 0x1 SWAP5 POP DUP4 PUSH1 0x1F NOT DUP2 AND LT PUSH2 0x272E JUMPI JUMPDEST POP POP POP DUP2 SHL ADD PUSH1 0xA DUP5 ADD SSTORE PUSH2 0x2437 JUMP JUMPDEST ADD MLOAD PUSH1 0x0 NOT PUSH1 0xF8 DUP5 PUSH1 0x3 SHL AND SHR NOT AND SWAP1 SSTORE DUP7 DUP1 DUP1 PUSH2 0x271E JUMP JUMPDEST DUP2 DUP2 ADD MLOAD DUP4 SSTORE PUSH1 0x20 SWAP5 DUP6 ADD SWAP5 PUSH1 0x1 SWAP1 SWAP4 ADD SWAP3 SWAP1 SWAP2 ADD SWAP1 PUSH2 0x2703 JUMP JUMPDEST ADD MLOAD SWAP1 POP DUP7 DUP1 PUSH2 0x23BF JUMP JUMPDEST SWAP3 POP PUSH1 0x9 DUP7 ADD PUSH1 0x0 MSTORE PUSH1 0x20 PUSH1 0x0 KECCAK256 SWAP1 PUSH1 0x0 SWAP4 JUMPDEST PUSH1 0x1F NOT DUP5 AND DUP6 LT PUSH2 0x27C4 JUMPI PUSH1 0x1 SWAP5 POP DUP4 PUSH1 0x1F NOT DUP2 AND LT PUSH2 0x27AB JUMPI JUMPDEST POP POP POP DUP2 SHL ADD PUSH1 0x9 DUP5 ADD SSTORE PUSH2 0x23D7 JUMP JUMPDEST ADD MLOAD PUSH1 0x0 NOT PUSH1 0xF8 DUP5 PUSH1 0x3 SHL AND SHR NOT AND SWAP1 SSTORE DUP7 DUP1 DUP1 PUSH2 0x279B JUMP JUMPDEST DUP2 DUP2 ADD MLOAD DUP4 SSTORE PUSH1 0x20 SWAP5 DUP6 ADD SWAP5 PUSH1 0x1 SWAP1 SWAP4 ADD SWAP3 SWAP1 SWAP2 ADD SWAP1 PUSH2 0x2780 JUMP JUMPDEST ADD MLOAD SWAP1 POP DUP7 DUP1 PUSH2 0x235F JUMP JUMPDEST SWAP3 POP PUSH1 0x8 DUP7 ADD PUSH1 0x0 MSTORE PUSH1 0x20 PUSH1 0x0 KECCAK256 SWAP1 PUSH1 0x0 SWAP4 JUMPDEST PUSH1 0x1F NOT DUP5 AND DUP6 LT PUSH2 0x2841 JUMPI PUSH1 0x1 SWAP5 POP DUP4 PUSH1 0x1F NOT DUP2 AND LT PUSH2 0x2828 JUMPI JUMPDEST POP POP POP DUP2 SHL ADD PUSH1 0x8 DUP5 ADD SSTORE PUSH2 0x2377 JUMP JUMPDEST ADD MLOAD PUSH1 0x0 NOT PUSH1 0xF8 DUP5 PUSH1 0x3 SHL AND SHR NOT AND SWAP1 SSTORE DUP7 DUP1 DUP1 PUSH2 0x2818 JUMP JUMPDEST DUP2 DUP2 ADD MLOAD DUP4 SSTORE PUSH1 0x20 SWAP5 DUP6 ADD SWAP5 PUSH1 0x1 SWAP1 SWAP4 ADD SWAP3 SWAP1 SWAP2 ADD SWAP1 PUSH2 0x27FD JUMP JUMPDEST ADD MLOAD SWAP1 POP DUP7 DUP1 PUSH2 0x22FF JUMP JUMPDEST SWAP3 POP PUSH1 0x7 DUP7 ADD PUSH1 0x0 MSTORE PUSH1 0x20 PUSH1 0x0 KECCAK256 SWAP1 PUSH1 0x0 SWAP4 JUMPDEST PUSH1 0x1F NOT DUP5 AND DUP6 LT PUSH2 0x28BE JUMPI PUSH1 0x1 SWAP5 POP DUP4 PUSH1 0x1F NOT DUP2 AND LT PUSH2 0x28A5 JUMPI JUMPDEST POP POP POP DUP2 SHL ADD PUSH1 0x7 DUP5 ADD SSTORE PUSH2 0x2317 JUMP JUMPDEST ADD MLOAD PUSH1 0x0 NOT PUSH1 0xF8 DUP5 PUSH1 0x3 SHL AND SHR NOT AND SWAP1 SSTORE DUP7 DUP1 DUP1 PUSH2 0x2895 JUMP JUMPDEST DUP2 DUP2 ADD MLOAD DUP4 SSTORE PUSH1 0x20 SWAP5 DUP6 ADD SWAP5 PUSH1 0x1 SWAP1 SWAP4 ADD SWAP3 SWAP1 SWAP2 ADD SWAP1 PUSH2 0x287A JUMP JUMPDEST ADD MLOAD SWAP1 POP DUP7 DUP1 PUSH2 0x229F JUMP JUMPDEST SWAP3 POP PUSH1 0x6 DUP7 ADD PUSH1 0x0 MSTORE PUSH1 0x20 PUSH1 0x0 KECCAK256 SWAP1 PUSH1 0x0 SWAP4 JUMPDEST PUSH1 0x1F NOT DUP5 AND DUP6 LT PUSH2 0x293B JUMPI PUSH1 0x1 SWAP5 POP DUP4 PUSH1 0x1F NOT DUP2 AND LT PUSH2 0x2922 JUMPI JUMPDEST POP POP POP DUP2 SHL ADD PUSH1 0x6 DUP5 ADD SSTORE PUSH2 0x22B7 JUMP JUMPDEST ADD MLOAD PUSH1 0x0 NOT PUSH1 0xF8 DUP5 PUSH1 0x3 SHL AND SHR NOT AND SWAP1 SSTORE DUP7 DUP1 DUP1 PUSH2 0x2912 JUMP JUMPDEST DUP2 DUP2 ADD MLOAD DUP4 SSTORE PUSH1 0x20 SWAP5 DUP6 ADD SWAP5 PUSH1 0x1 SWAP1 SWAP4 ADD SWAP3 SWAP1 SWAP2 ADD SWAP1 PUSH2 0x28F7 JUMP JUMPDEST ADD MLOAD SWAP1 POP DUP7 DUP1 PUSH2 0x223F JUMP JUMPDEST SWAP3 POP PUSH1 0x5 DUP7 ADD PUSH1 0x0 MSTORE PUSH1 0x20 PUSH1 0x0 KECCAK256 SWAP1 PUSH1 0x0 SWAP4 JUMPDEST PUSH1 0x1F NOT DUP5 AND DUP6 LT PUSH2 0x29B8 JUMPI PUSH1 0x1 SWAP5 POP DUP4 PUSH1 0x1F NOT DUP2 AND LT PUSH2 0x299F JUMPI JUMPDEST POP POP POP DUP2 SHL ADD PUSH1 0x5 DUP5 ADD SSTORE PUSH2 0x2257 JUMP JUMPDEST ADD MLOAD PUSH1 0x0 NOT PUSH1 0xF8 DUP5 PUSH1 0x3 SHL AND SHR NOT AND SWAP1 SSTORE DUP7 DUP1 DUP1 PUSH2 0x298F JUMP JUMPDEST DUP2 DUP2 ADD MLOAD DUP4 SSTORE PUSH1 0x20 SWAP5 DUP6 ADD SWAP5 PUSH1 0x1 SWAP1 SWAP4 ADD SWAP3 SWAP1 SWAP2 ADD SWAP1 PUSH2 0x2974 JUMP JUMPDEST ADD MLOAD SWAP1 POP DUP7 DUP1 PUSH2 0x21DF JUMP JUMPDEST SWAP3 POP PUSH1 0x4 DUP7 ADD PUSH1 0x0 MSTORE PUSH1 0x20 PUSH1 0x0 KECCAK256 SWAP1 PUSH1 0x0 SWAP4 JUMPDEST PUSH1 0x1F NOT DUP5 AND DUP6 LT PUSH2 0x2A35 JUMPI PUSH1 0x1 SWAP5 POP DUP4 PUSH1 0x1F NOT DUP2 AND LT PUSH2 0x2A1C JUMPI JUMPDEST POP POP POP DUP2 SHL ADD PUSH1 0x4 DUP5 ADD SSTORE PUSH2 0x21F7 JUMP JUMPDEST ADD MLOAD PUSH1 0x0 NOT PUSH1 0xF8 DUP5 PUSH1 0x3 SHL AND SHR NOT AND SWAP1 SSTORE DUP7 DUP1 DUP1 PUSH2 0x2A0C JUMP JUMPDEST DUP2 DUP2 ADD MLOAD DUP4 SSTORE PUSH1 0x20 SWAP5 DUP6 ADD SWAP5 PUSH1 0x1 SWAP1 SWAP4 ADD SWAP3 SWAP1 SWAP2 ADD SWAP1 PUSH2 0x29F1 JUMP JUMPDEST PUSH1 0x40 DUP2 MLOAD DUP1 MLOAD DUP5 SSTORE PUSH1 0x20 DUP2 ADD MLOAD PUSH1 0x1 DUP6 ADD SSTORE ADD MLOAD SWAP1 PUSH1 0x4 DUP3 LT ISZERO PUSH2 0x78C JUMPI PUSH1 0x20 PUSH1 0x3 SWAP2 PUSH1 0x1 SWAP4 PUSH1 0x2 DUP7 ADD SWAP1 PUSH1 0xFF DUP1 NOT DUP4 SLOAD AND SWAP2 AND OR SWAP1 SSTORE ADD SWAP3 ADD SWAP4 ADD SWAP3 SWAP1 PUSH2 0x2180 JUMP JUMPDEST PUSH1 0x3 DUP2 DUP2 MUL DIV DUP2 SUB PUSH2 0x2AEC JUMPI PUSH1 0x3 DUP4 DUP2 MUL DIV DUP4 SUB PUSH2 0x2AEC JUMPI PUSH1 0x2 DUP6 ADD PUSH1 0x0 MSTORE PUSH1 0x20 PUSH1 0x0 KECCAK256 DUP4 PUSH1 0x3 MUL DUP2 ADD JUMPDEST DUP3 PUSH1 0x3 MUL DUP3 ADD DUP2 LT PUSH2 0x2AD1 JUMPI POP POP PUSH2 0x216B JUMP JUMPDEST DUP1 PUSH1 0x0 PUSH1 0x3 SWAP3 SSTORE PUSH1 0x0 PUSH1 0x1 DUP3 ADD SSTORE PUSH1 0x0 PUSH1 0x2 DUP3 ADD SSTORE ADD PUSH2 0x2ABE JUMP JUMPDEST PUSH4 0x4E487B71 PUSH1 0xE0 SHL PUSH1 0x0 MSTORE PUSH1 0x11 PUSH1 0x4 MSTORE PUSH1 0x24 PUSH1 0x0 REVERT JUMPDEST PUSH1 0x40 MLOAD PUSH3 0x461BCD PUSH1 0xE5 SHL DUP2 MSTORE PUSH1 0x20 PUSH1 0x4 DUP3 ADD MSTORE PUSH1 0x15 PUSH1 0x24 DUP3 ADD MSTORE PUSH21 0x151BDAD95B881D1C985B9CD9995C8819985A5B1959 PUSH1 0x5A SHL PUSH1 0x44 DUP3 ADD MSTORE PUSH1 0x64 SWAP1 REVERT JUMPDEST PUSH2 0x2B58 SWAP2 POP PUSH1 0x20 RETURNDATASIZE PUSH1 0x20 GT PUSH2 0x7C8 JUMPI PUSH2 0x7B9 DUP2 DUP4 PUSH2 0x3400 JUMP JUMPDEST DUP5 PUSH2 0x20D5 JUMP JUMPDEST PUSH1 0x60 DUP4 CALLDATASIZE SUB SLT PUSH2 0x1F5 JUMPI PUSH1 0x40 MLOAD SWAP1 PUSH2 0x2B75 DUP3 PUSH2 0x33AE JUMP JUMPDEST DUP4 CALLDATALOAD DUP3 MSTORE PUSH1 0x20 DUP5 ADD CALLDATALOAD PUSH1 0x20 DUP4 ADD MSTORE PUSH1 0x40 DUP5 ADD CALLDATALOAD SWAP1 PUSH1 0x4 DUP3 LT ISZERO PUSH2 0x1F5 JUMPI DUP3 PUSH1 0x20 SWAP3 PUSH1 0x40 PUSH1 0x60 SWAP6 ADD MSTORE DUP2 MSTORE ADD SWAP3 ADD SWAP2 PUSH2 0x1911 JUMP JUMPDEST CALLVALUE PUSH2 0x1F5 JUMPI PUSH1 0x20 CALLDATASIZE PUSH1 0x3 NOT ADD SLT PUSH2 0x1F5 JUMPI PUSH1 0x4 CALLDATALOAD PUSH1 0x6 SLOAD DUP2 LT ISZERO PUSH2 0x1F5 JUMPI PUSH1 0x6 PUSH1 0x0 MSTORE PUSH32 0xF652222313E28459528D920B65115C16C04F3EFC82AAEDC97BE59F3F377C0D3F ADD SLOAD PUSH1 0x40 MLOAD PUSH1 0x1 PUSH1 0x1 PUSH1 0xA0 SHL SUB SWAP1 SWAP2 AND DUP2 MSTORE PUSH1 0x20 SWAP1 RETURN JUMPDEST CALLVALUE PUSH2 0x1F5 JUMPI PUSH1 0x0 CALLDATASIZE PUSH1 0x3 NOT ADD SLT PUSH2 0x1F5 JUMPI PUSH1 0x20 PUSH1 0x7 SLOAD PUSH1 0x40 MLOAD SWAP1 DUP2 MSTORE RETURN JUMPDEST CALLVALUE PUSH2 0x1F5 JUMPI PUSH1 0x0 CALLDATASIZE PUSH1 0x3 NOT ADD SLT PUSH2 0x1F5 JUMPI CALLER PUSH1 0x0 MSTORE PUSH1 0x20 PUSH1 0x8 DUP2 MSTORE PUSH1 0x1 SWAP1 PUSH1 0xFF SWAP2 PUSH2 0x2C56 DUP2 DUP5 PUSH1 0x40 PUSH1 0x0 KECCAK256 SLOAD AND ISZERO ISZERO EQ PUSH2 0x392A JUMP JUMPDEST PUSH1 0x0 SLOAD SWAP1 PUSH2 0x2C63 DUP3 PUSH2 0x3C1C JUMP JUMPDEST SWAP4 PUSH1 0x0 JUMPDEST DUP4 DUP2 LT PUSH2 0x2C81 JUMPI PUSH1 0x40 MLOAD DUP6 DUP2 MSTORE DUP1 PUSH2 0x487 DUP2 DUP9 ADD DUP10 PUSH2 0x35DE JUMP JUMPDEST DUP1 PUSH2 0x2C8E PUSH2 0x2D1F SWAP3 PUSH2 0x32F9 JUMP JUMPDEST SWAP1 SLOAD SWAP1 PUSH1 0x3 SHL SHR PUSH1 0x0 MSTORE PUSH1 0xB DUP1 DUP8 MSTORE DUP4 PUSH1 0x11 PUSH1 0x40 PUSH1 0x0 KECCAK256 PUSH1 0x40 MLOAD SWAP4 PUSH2 0x2CB2 DUP6 PUSH2 0x3392 JUMP JUMPDEST DUP2 SLOAD DUP6 MSTORE PUSH2 0x2CC1 DUP10 DUP4 ADD PUSH2 0x371A JUMP JUMPDEST DUP12 DUP7 ADD MSTORE DUP2 ADD SLOAD PUSH1 0x40 DUP6 ADD MSTORE PUSH1 0xC DUP2 ADD SLOAD PUSH1 0x60 DUP6 ADD MSTORE PUSH1 0xD DUP2 ADD SLOAD PUSH1 0x80 DUP6 ADD MSTORE PUSH1 0xE DUP2 ADD SLOAD PUSH1 0xA0 DUP6 ADD MSTORE PUSH1 0xF DUP2 ADD SLOAD PUSH1 0xC0 DUP6 ADD MSTORE PUSH1 0x10 DUP2 ADD SLOAD PUSH1 0xE0 DUP6 ADD MSTORE ADD SLOAD AND ISZERO ISZERO PUSH2 0x100 DUP3 ADD MSTORE PUSH2 0x2D14 DUP3 DUP10 PUSH2 0x3C6C JUMP JUMPDEST MSTORE PUSH2 0x169E DUP2 DUP9 PUSH2 0x3C6C JUMP JUMPDEST PUSH2 0x2C67 JUMP JUMPDEST CALLVALUE PUSH2 0x1F5 JUMPI PUSH1 0x20 CALLDATASIZE PUSH1 0x3 NOT ADD SLT PUSH2 0x1F5 JUMPI CALLER PUSH1 0x0 MSTORE PUSH1 0x8 PUSH1 0x20 MSTORE PUSH2 0x2D54 PUSH1 0x1 PUSH1 0xFF PUSH1 0x40 PUSH1 0x0 KECCAK256 SLOAD AND ISZERO ISZERO EQ PUSH2 0x392A JUMP JUMPDEST PUSH1 0x20 PUSH2 0x2D61 PUSH1 0x4 CALLDATALOAD PUSH2 0x3A36 JUMP JUMPDEST PUSH1 0x40 MLOAD SWAP1 ISZERO ISZERO DUP2 MSTORE RETURN JUMPDEST CALLVALUE PUSH2 0x1F5 JUMPI PUSH1 0x20 CALLDATASIZE PUSH1 0x3 NOT ADD SLT PUSH2 0x1F5 JUMPI CALLER PUSH1 0x0 MSTORE PUSH1 0x8 PUSH1 0x20 MSTORE PUSH2 0x2D9B PUSH1 0x1 PUSH1 0xFF PUSH1 0x40 PUSH1 0x0 KECCAK256 SLOAD AND ISZERO ISZERO EQ PUSH2 0x392A JUMP JUMPDEST PUSH1 0x20 PUSH2 0x2D61 PUSH1 0x4 CALLDATALOAD PUSH2 0x3AA6 JUMP JUMPDEST CALLVALUE PUSH2 0x1F5 JUMPI PUSH1 0x60 CALLDATASIZE PUSH1 0x3 NOT ADD SLT PUSH2 0x1F5 JUMPI PUSH1 0x4 CALLDATALOAD PUSH1 0x0 MSTORE PUSH1 0x20 PUSH1 0x10 DUP2 MSTORE PUSH1 0x40 PUSH1 0x0 KECCAK256 PUSH1 0x40 MLOAD SWAP1 DUP2 DUP4 DUP3 SLOAD SWAP2 DUP3 DUP2 MSTORE ADD SWAP2 PUSH1 0x0 MSTORE DUP4 PUSH1 0x0 KECCAK256 SWAP1 PUSH1 0x0 JUMPDEST DUP6 DUP3 DUP3 LT PUSH2 0x2E06 JUMPI PUSH2 0x953 DUP7 PUSH2 0x2DFB DUP2 DUP9 SUB DUP3 PUSH2 0x3400 JUMP JUMPDEST PUSH1 0x44 CALLDATALOAD PUSH1 0x24 CALLDATALOAD PUSH2 0x3E31 JUMP JUMPDEST DUP4 SLOAD DUP6 MSTORE SWAP1 SWAP4 ADD SWAP3 PUSH1 0x1 SWAP3 DUP4 ADD SWAP3 ADD PUSH2 0x2DE3 JUMP JUMPDEST CALLVALUE PUSH2 0x1F5 JUMPI PUSH2 0x2E28 CALLDATASIZE PUSH2 0x3477 JUMP JUMPDEST SWAP1 PUSH1 0x0 MSTORE PUSH1 0x10 PUSH1 0x20 MSTORE PUSH1 0x40 PUSH1 0x0 KECCAK256 DUP1 SLOAD DUP3 LT ISZERO PUSH2 0x1F5 JUMPI PUSH1 0x20 SWAP2 PUSH2 0x26D SWAP2 PUSH2 0x337A JUMP JUMPDEST CALLVALUE PUSH2 0x1F5 JUMPI PUSH2 0x180 CALLDATASIZE PUSH1 0x3 NOT ADD SLT PUSH2 0x1F5 JUMPI PUSH1 0x1 PUSH1 0x1 PUSH1 0x40 SHL SUB PUSH1 0x24 CALLDATALOAD DUP2 DUP2 GT PUSH2 0x1F5 JUMPI PUSH2 0x2E7D SWAP1 CALLDATASIZE SWAP1 PUSH1 0x4 ADD PUSH2 0x3421 JUMP JUMPDEST PUSH1 0x44 CALLDATALOAD DUP3 DUP2 GT PUSH2 0x1F5 JUMPI PUSH2 0x2E95 SWAP1 CALLDATASIZE SWAP1 PUSH1 0x4 ADD PUSH2 0x3421 JUMP JUMPDEST SWAP1 PUSH1 0x64 CALLDATALOAD DUP4 DUP2 GT PUSH2 0x1F5 JUMPI PUSH2 0x2EAE SWAP1 CALLDATASIZE SWAP1 PUSH1 0x4 ADD PUSH2 0x3421 JUMP JUMPDEST SWAP3 PUSH1 0x84 CALLDATALOAD DUP2 DUP2 GT PUSH2 0x1F5 JUMPI PUSH2 0x2EC7 SWAP1 CALLDATASIZE SWAP1 PUSH1 0x4 ADD PUSH2 0x3421 JUMP JUMPDEST SWAP1 CALLER PUSH1 0x0 MSTORE PUSH1 0x20 SWAP5 PUSH1 0x8 DUP7 MSTORE PUSH1 0x1 SWAP5 PUSH2 0x2EEB DUP7 PUSH1 0xFF PUSH1 0x40 PUSH1 0x0 KECCAK256 SLOAD AND ISZERO ISZERO EQ PUSH2 0x392A JUMP JUMPDEST PUSH1 0x4 CALLDATALOAD PUSH1 0x0 MSTORE PUSH1 0xB DUP8 MSTORE PUSH1 0x40 PUSH1 0x0 KECCAK256 SWAP5 DUP7 DUP7 ADD SWAP1 DUP1 MLOAD SWAP1 DUP6 DUP3 GT PUSH2 0xECF JUMPI DUP2 SWAP1 PUSH2 0x2F1F DUP3 PUSH2 0x2F19 DUP7 SLOAD PUSH2 0x364A JUMP JUMPDEST DUP7 PUSH2 0x39AD JUMP JUMPDEST DUP11 SWAP1 PUSH1 0x1F DUP4 GT PUSH1 0x1 EQ PUSH2 0x31BC JUMPI PUSH1 0x0 SWAP3 PUSH2 0x31B1 JUMPI JUMPDEST POP POP PUSH1 0x0 NOT PUSH1 0x3 DUP4 SWAP1 SHL SHR NOT AND SWAP1 DUP9 SHL OR SWAP1 SSTORE JUMPDEST DUP1 MLOAD PUSH1 0x3 DUP7 ADD SWAP2 DUP5 DUP3 GT PUSH2 0xECF JUMPI DUP2 SWAP1 PUSH2 0x2F66 DUP3 PUSH2 0x2F19 DUP7 SLOAD PUSH2 0x364A JUMP JUMPDEST DUP10 SWAP1 PUSH1 0x1F DUP4 GT PUSH1 0x1 EQ PUSH2 0x314E JUMPI PUSH1 0x0 SWAP3 PUSH2 0x3143 JUMPI JUMPDEST POP POP PUSH1 0x0 NOT PUSH1 0x3 DUP4 SWAP1 SHL SHR NOT AND SWAP1 DUP8 SHL OR SWAP1 SSTORE JUMPDEST DUP1 MLOAD PUSH1 0x4 DUP6 ADD SWAP2 DUP4 DUP3 GT PUSH2 0xECF JUMPI DUP2 SWAP1 PUSH2 0x2FAD DUP3 PUSH2 0x2F19 DUP7 SLOAD PUSH2 0x364A JUMP JUMPDEST DUP9 SWAP1 PUSH1 0x1F DUP4 GT PUSH1 0x1 EQ PUSH2 0x30E0 JUMPI PUSH1 0x0 SWAP3 PUSH2 0x30D5 JUMPI JUMPDEST POP POP PUSH1 0x0 NOT PUSH1 0x3 DUP4 SWAP1 SHL SHR NOT AND SWAP1 DUP7 SHL OR SWAP1 SSTORE JUMPDEST PUSH1 0x5 DUP4 ADD SWAP2 DUP1 MLOAD SWAP2 DUP3 GT PUSH2 0xECF JUMPI DUP2 SWAP1 PUSH2 0x2FF4 DUP3 PUSH2 0x2F19 DUP7 SLOAD PUSH2 0x364A JUMP JUMPDEST DUP7 SWAP1 PUSH1 0x1F DUP4 GT PUSH1 0x1 EQ PUSH2 0x3072 JUMPI PUSH1 0x0 SWAP3 PUSH2 0x3067 JUMPI JUMPDEST POP POP PUSH1 0x0 NOT PUSH1 0x3 DUP4 SWAP1 SHL SHR NOT AND SWAP1 DUP5 SHL OR SWAP1 SSTORE JUMPDEST PUSH1 0xA4 CALLDATALOAD PUSH1 0x6 DUP3 ADD SSTORE PUSH1 0xC4 CALLDATALOAD PUSH1 0x7 DUP3 ADD SSTORE PUSH1 0xE4 CALLDATALOAD PUSH1 0x8 DUP3 ADD SSTORE PUSH2 0x104 CALLDATALOAD PUSH1 0x9 DUP3 ADD SSTORE PUSH2 0x124 CALLDATALOAD PUSH1 0xA DUP3 ADD SSTORE PUSH2 0x144 CALLDATALOAD PUSH1 0xB DUP3 ADD SSTORE PUSH2 0x164 CALLDATALOAD PUSH1 0xF DUP3 ADD SSTORE PUSH1 0x10 TIMESTAMP SWAP2 ADD SSTORE PUSH1 0x40 MLOAD SWAP1 DUP2 MSTORE RETURN JUMPDEST ADD MLOAD SWAP1 POP DUP7 DUP1 PUSH2 0x3009 JUMP JUMPDEST SWAP1 DUP7 SWAP4 POP PUSH1 0x1F NOT DUP4 AND SWAP2 DUP6 PUSH1 0x0 MSTORE DUP9 PUSH1 0x0 KECCAK256 SWAP3 PUSH1 0x0 JUMPDEST DUP11 DUP3 DUP3 LT PUSH2 0x30BF JUMPI POP POP DUP5 GT PUSH2 0x30A6 JUMPI JUMPDEST POP POP POP DUP2 SHL ADD SWAP1 SSTORE PUSH2 0x301D JUMP JUMPDEST ADD MLOAD PUSH1 0x0 NOT PUSH1 0xF8 DUP5 PUSH1 0x3 SHL AND SHR NOT AND SWAP1 SSTORE DUP7 DUP1 DUP1 PUSH2 0x3099 JUMP JUMPDEST DUP4 DUP6 ADD MLOAD DUP7 SSTORE DUP11 SWAP8 SWAP1 SWAP6 ADD SWAP5 SWAP4 DUP5 ADD SWAP4 ADD PUSH2 0x3088 JUMP JUMPDEST ADD MLOAD SWAP1 POP DUP9 DUP1 PUSH2 0x2FC2 JUMP JUMPDEST SWAP1 DUP9 SWAP4 POP PUSH1 0x1F NOT DUP4 AND SWAP2 DUP6 PUSH1 0x0 MSTORE DUP11 PUSH1 0x0 KECCAK256 SWAP3 PUSH1 0x0 JUMPDEST DUP13 DUP3 DUP3 LT PUSH2 0x312D JUMPI POP POP DUP5 GT PUSH2 0x3114 JUMPI JUMPDEST POP POP POP DUP2 SHL ADD SWAP1 SSTORE PUSH2 0x2FD6 JUMP JUMPDEST ADD MLOAD PUSH1 0x0 NOT PUSH1 0xF8 DUP5 PUSH1 0x3 SHL AND SHR NOT AND SWAP1 SSTORE DUP9 DUP1 DUP1 PUSH2 0x3107 JUMP JUMPDEST DUP4 DUP6 ADD MLOAD DUP7 SSTORE DUP13 SWAP8 SWAP1 SWAP6 ADD SWAP5 SWAP4 DUP5 ADD SWAP4 ADD PUSH2 0x30F6 JUMP JUMPDEST ADD MLOAD SWAP1 POP DUP10 DUP1 PUSH2 0x2F7B JUMP JUMPDEST SWAP1 DUP10 SWAP4 POP PUSH1 0x1F NOT DUP4 AND SWAP2 DUP6 PUSH1 0x0 MSTORE DUP12 PUSH1 0x0 KECCAK256 SWAP3 PUSH1 0x0 JUMPDEST DUP14 DUP3 DUP3 LT PUSH2 0x319B JUMPI POP POP DUP5 GT PUSH2 0x3182 JUMPI JUMPDEST POP POP POP DUP2 SHL ADD SWAP1 SSTORE PUSH2 0x2F8F JUMP JUMPDEST ADD MLOAD PUSH1 0x0 NOT PUSH1 0xF8 DUP5 PUSH1 0x3 SHL AND SHR NOT AND SWAP1 SSTORE DUP10 DUP1 DUP1 PUSH2 0x3175 JUMP JUMPDEST DUP4 DUP6 ADD MLOAD DUP7 SSTORE DUP14 SWAP8 SWAP1 SWAP6 ADD SWAP5 SWAP4 DUP5 ADD SWAP4 ADD PUSH2 0x3164 JUMP JUMPDEST ADD MLOAD SWAP1 POP DUP11 DUP1 PUSH2 0x2F34 JUMP JUMPDEST SWAP1 DUP11 SWAP4 POP DUP5 PUSH1 0x0 MSTORE DUP12 PUSH1 0x0 KECCAK256 SWAP2 PUSH1 0x0 JUMPDEST DUP14 PUSH1 0x1F NOT DUP7 AND DUP3 LT PUSH2 0x320C JUMPI POP POP DUP4 PUSH1 0x1F NOT DUP2 AND LT PUSH2 0x31F3 JUMPI JUMPDEST POP POP POP DUP2 SHL ADD SWAP1 SSTORE PUSH2 0x2F48 JUMP JUMPDEST ADD MLOAD PUSH1 0x0 NOT PUSH1 0xF8 DUP5 PUSH1 0x3 SHL AND SHR NOT AND SWAP1 SSTORE DUP11 DUP1 DUP1 PUSH2 0x31E6 JUMP JUMPDEST DUP3 DUP5 ADD MLOAD DUP6 SSTORE DUP14 SWAP7 SWAP1 SWAP5 ADD SWAP4 SWAP3 DUP4 ADD SWAP3 ADD PUSH2 0x31CC JUMP JUMPDEST CALLVALUE PUSH2 0x1F5 JUMPI PUSH1 0x20 CALLDATASIZE PUSH1 0x3 NOT ADD SLT PUSH2 0x1F5 JUMPI PUSH1 0x4 CALLDATALOAD DUP1 PUSH1 0x0 MSTORE PUSH1 0xF PUSH1 0x20 MSTORE PUSH1 0x40 PUSH1 0x0 KECCAK256 PUSH2 0x324E DUP2 SLOAD PUSH2 0x3A27 JUMP JUMPDEST SWAP1 SSTORE PUSH1 0x0 MSTORE PUSH1 0x10 PUSH1 0x20 MSTORE PUSH1 0x40 PUSH1 0x0 KECCAK256 DUP1 SLOAD SWAP1 PUSH1 0x1 PUSH1 0x40 SHL DUP3 LT ISZERO PUSH2 0xECF JUMPI DUP2 PUSH2 0x327F SWAP2 PUSH1 0x1 PUSH2 0x1370 SWAP5 ADD DUP2 SSTORE PUSH2 0x337A JUMP JUMPDEST SWAP2 SWAP1 SWAP2 TIMESTAMP SWAP1 DUP4 SLOAD SWAP1 PUSH1 0x3 SHL SWAP2 DUP3 SHL SWAP2 PUSH1 0x0 NOT SWAP1 SHL NOT AND OR SWAP1 JUMP JUMPDEST CALLVALUE PUSH2 0x1F5 JUMPI PUSH1 0x40 CALLDATASIZE PUSH1 0x3 NOT ADD SLT PUSH2 0x1F5 JUMPI PUSH2 0x32B2 PUSH2 0x32E3 JUMP JUMPDEST PUSH1 0x1 PUSH1 0x1 PUSH1 0xA0 SHL SUB AND PUSH1 0x0 SWAP1 DUP2 MSTORE PUSH1 0xD PUSH1 0x20 MSTORE PUSH1 0x40 SWAP1 KECCAK256 DUP1 SLOAD PUSH1 0x24 CALLDATALOAD SWAP2 SWAP1 DUP3 LT ISZERO PUSH2 0x1F5 JUMPI PUSH1 0x20 SWAP2 PUSH2 0x26D SWAP2 PUSH2 0x337A JUMP JUMPDEST PUSH1 0x4 CALLDATALOAD SWAP1 PUSH1 0x1 PUSH1 0x1 PUSH1 0xA0 SHL SUB DUP3 AND DUP3 SUB PUSH2 0x1F5 JUMPI JUMP JUMPDEST SWAP1 PUSH1 0x0 SWAP2 DUP3 SLOAD DUP2 LT ISZERO PUSH2 0x332F JUMPI DUP3 DUP1 MSTORE PUSH32 0x290DECD9548B62A8D60345A988386FC84BA6BC95484008F6362F93160EF3E563 ADD SWAP2 SWAP1 JUMP JUMPDEST PUSH4 0x4E487B71 PUSH1 0xE0 SHL DUP4 MSTORE PUSH1 0x32 PUSH1 0x4 MSTORE PUSH1 0x24 DUP4 REVERT JUMPDEST PUSH1 0x1 SLOAD DUP2 LT ISZERO PUSH2 0xEB9 JUMPI PUSH1 0x1 PUSH1 0x0 MSTORE PUSH32 0xB10E2D527612073B26EECDFD717E6A320CF44B4AFAC2B0732D9FCBE2B7FA0CF6 ADD SWAP1 PUSH1 0x0 SWAP1 JUMP JUMPDEST DUP1 SLOAD DUP3 LT ISZERO PUSH2 0xEB9 JUMPI PUSH1 0x0 MSTORE PUSH1 0x20 PUSH1 0x0 KECCAK256 ADD SWAP1 PUSH1 0x0 SWAP1 JUMP JUMPDEST PUSH2 0x120 DUP2 ADD SWAP1 DUP2 LT PUSH1 0x1 PUSH1 0x1 PUSH1 0x40 SHL SUB DUP3 GT OR PUSH2 0xECF JUMPI PUSH1 0x40 MSTORE JUMP JUMPDEST PUSH1 0x60 DUP2 ADD SWAP1 DUP2 LT PUSH1 0x1 PUSH1 0x1 PUSH1 0x40 SHL SUB DUP3 GT OR PUSH2 0xECF JUMPI PUSH1 0x40 MSTORE JUMP JUMPDEST PUSH1 0xC0 DUP2 ADD SWAP1 DUP2 LT PUSH1 0x1 PUSH1 0x1 PUSH1 0x40 SHL SUB DUP3 GT OR PUSH2 0xECF JUMPI PUSH1 0x40 MSTORE JUMP JUMPDEST PUSH2 0x140 DUP2 ADD SWAP1 DUP2 LT PUSH1 0x1 PUSH1 0x1 PUSH1 0x40 SHL SUB DUP3 GT OR PUSH2 0xECF JUMPI PUSH1 0x40 MSTORE JUMP JUMPDEST SWAP1 PUSH1 0x1F DUP1 NOT SWAP2 ADD AND DUP2 ADD SWAP1 DUP2 LT PUSH1 0x1 PUSH1 0x1 PUSH1 0x40 SHL SUB DUP3 GT OR PUSH2 0xECF JUMPI PUSH1 0x40 MSTORE JUMP JUMPDEST DUP2 PUSH1 0x1F DUP3 ADD SLT ISZERO PUSH2 0x1F5 JUMPI DUP1 CALLDATALOAD SWAP1 PUSH1 0x1 PUSH1 0x1 PUSH1 0x40 SHL SUB DUP3 GT PUSH2 0xECF JUMPI PUSH1 0x40 MLOAD SWAP3 PUSH2 0x3455 PUSH1 0x1F DUP5 ADD PUSH1 0x1F NOT AND PUSH1 0x20 ADD DUP6 PUSH2 0x3400 JUMP JUMPDEST DUP3 DUP5 MSTORE PUSH1 0x20 DUP4 DUP4 ADD ADD GT PUSH2 0x1F5 JUMPI DUP2 PUSH1 0x0 SWAP3 PUSH1 0x20 DUP1 SWAP4 ADD DUP4 DUP7 ADD CALLDATACOPY DUP4 ADD ADD MSTORE SWAP1 JUMP JUMPDEST PUSH1 0x40 SWAP1 PUSH1 0x3 NOT ADD SLT PUSH2 0x1F5 JUMPI PUSH1 0x4 CALLDATALOAD SWAP1 PUSH1 0x24 CALLDATALOAD SWAP1 JUMP JUMPDEST PUSH1 0x0 JUMPDEST DUP4 DUP2 LT PUSH2 0x34A0 JUMPI POP POP PUSH1 0x0 SWAP2 ADD MSTORE JUMP JUMPDEST DUP2 DUP2 ADD MLOAD DUP4 DUP3 ADD MSTORE PUSH1 0x20 ADD PUSH2 0x3490 JUMP JUMPDEST SWAP1 PUSH1 0x20 SWAP2 PUSH2 0x34C9 DUP2 MLOAD DUP1 SWAP3 DUP2 DUP6 MSTORE DUP6 DUP1 DUP7 ADD SWAP2 ADD PUSH2 0x348D JUMP JUMPDEST PUSH1 0x1F ADD PUSH1 0x1F NOT AND ADD ADD SWAP1 JUMP JUMPDEST SWAP1 PUSH2 0x353D PUSH2 0x352B PUSH2 0x3519 PUSH2 0x3507 PUSH2 0x34F5 DUP7 MLOAD PUSH2 0x140 DUP1 DUP9 MSTORE DUP8 ADD SWAP1 PUSH2 0x34B0 JUMP JUMPDEST PUSH1 0x20 DUP8 ADD MLOAD DUP7 DUP3 SUB PUSH1 0x20 DUP9 ADD MSTORE PUSH2 0x34B0 JUMP JUMPDEST PUSH1 0x40 DUP7 ADD MLOAD DUP6 DUP3 SUB PUSH1 0x40 DUP8 ADD MSTORE PUSH2 0x34B0 JUMP JUMPDEST PUSH1 0x60 DUP6 ADD MLOAD DUP5 DUP3 SUB PUSH1 0x60 DUP7 ADD MSTORE PUSH2 0x34B0 JUMP JUMPDEST PUSH1 0x80 DUP5 ADD MLOAD DUP4 DUP3 SUB PUSH1 0x80 DUP6 ADD MSTORE PUSH2 0x34B0 JUMP JUMPDEST SWAP2 PUSH1 0xA0 DUP2 ADD MLOAD PUSH1 0xA0 DUP4 ADD MSTORE PUSH1 0xC0 DUP2 ADD MLOAD PUSH1 0xC0 DUP4 ADD MSTORE PUSH1 0xE0 DUP2 ADD MLOAD PUSH1 0xE0 DUP4 ADD MSTORE PUSH2 0x100 DUP1 DUP3 ADD MLOAD SWAP1 DUP4 ADD MSTORE PUSH2 0x120 DUP1 SWAP2 ADD MLOAD SWAP2 ADD MSTORE SWAP1 JUMP JUMPDEST SWAP1 DUP2 MLOAD DUP2 MSTORE PUSH2 0x3592 PUSH1 0x20 DUP4 ADD MLOAD PUSH2 0x120 DUP1 PUSH1 0x20 DUP6 ADD MSTORE DUP4 ADD SWAP1 PUSH2 0x34D5 JUMP JUMPDEST SWAP2 PUSH1 0x40 DUP2 ADD MLOAD PUSH1 0x40 DUP4 ADD MSTORE PUSH1 0x60 DUP2 ADD MLOAD PUSH1 0x60 DUP4 ADD MSTORE PUSH1 0x80 DUP2 ADD MLOAD PUSH1 0x80 DUP4 ADD MSTORE PUSH1 0xA0 DUP2 ADD MLOAD PUSH1 0xA0 DUP4 ADD MSTORE PUSH1 0xC0 DUP2 ADD MLOAD PUSH1 0xC0 DUP4 ADD MSTORE PUSH1 0xE0 DUP2 ADD MLOAD PUSH1 0xE0 DUP4 ADD MSTORE PUSH2 0x100 DUP1 SWAP2 ADD MLOAD ISZERO ISZERO SWAP2 ADD MSTORE SWAP1 JUMP JUMPDEST SWAP1 DUP2 MLOAD DUP1 DUP3 MSTORE PUSH1 0x20 DUP1 SWAP3 ADD SWAP2 DUP3 DUP2 DUP4 PUSH1 0x5 SHL DUP6 ADD SWAP6 ADD SWAP4 PUSH1 0x0 SWAP2 JUMPDEST DUP5 DUP4 LT PUSH2 0x3609 JUMPI POP POP POP POP POP POP SWAP1 JUMP JUMPDEST SWAP1 SWAP2 SWAP3 SWAP4 SWAP5 SWAP6 DUP5 DUP1 PUSH2 0x3623 DUP4 DUP6 PUSH1 0x1 SWAP6 SUB DUP8 MSTORE DUP11 MLOAD PUSH2 0x3574 JUMP JUMPDEST SWAP9 ADD SWAP4 ADD SWAP4 ADD SWAP2 SWAP5 SWAP4 SWAP3 SWAP1 PUSH2 0x35F9 JUMP JUMPDEST PUSH1 0x1 PUSH1 0x1 PUSH1 0x40 SHL SUB DUP2 GT PUSH2 0xECF JUMPI PUSH1 0x5 SHL PUSH1 0x20 ADD SWAP1 JUMP JUMPDEST SWAP1 PUSH1 0x1 DUP3 DUP2 SHR SWAP3 AND DUP1 ISZERO PUSH2 0x367A JUMPI JUMPDEST PUSH1 0x20 DUP4 LT EQ PUSH2 0x3664 JUMPI JUMP JUMPDEST PUSH4 0x4E487B71 PUSH1 0xE0 SHL PUSH1 0x0 MSTORE PUSH1 0x22 PUSH1 0x4 MSTORE PUSH1 0x24 PUSH1 0x0 REVERT JUMPDEST SWAP2 PUSH1 0x7F AND SWAP2 PUSH2 0x3659 JUMP JUMPDEST SWAP1 PUSH1 0x0 SWAP3 SWAP2 DUP1 SLOAD SWAP2 PUSH2 0x3695 DUP4 PUSH2 0x364A JUMP JUMPDEST SWAP2 DUP3 DUP3 MSTORE PUSH1 0x1 SWAP4 DUP5 DUP2 AND SWAP1 DUP2 PUSH1 0x0 EQ PUSH2 0x36F7 JUMPI POP PUSH1 0x1 EQ PUSH2 0x36B7 JUMPI JUMPDEST POP POP POP POP JUMP JUMPDEST SWAP1 SWAP2 SWAP4 SWAP5 POP PUSH1 0x0 MSTORE PUSH1 0x20 SWAP3 DUP4 PUSH1 0x0 KECCAK256 SWAP3 DUP5 PUSH1 0x0 SWAP5 JUMPDEST DUP4 DUP7 LT PUSH2 0x36E3 JUMPI POP POP POP POP ADD ADD SWAP1 CODESIZE DUP1 DUP1 DUP1 PUSH2 0x36B1 JUMP JUMPDEST DUP1 SLOAD DUP6 DUP8 ADD DUP4 ADD MSTORE SWAP5 ADD SWAP4 DUP6 SWAP1 DUP3 ADD PUSH2 0x36CC JUMP JUMPDEST SWAP3 SWAP5 POP POP POP PUSH1 0x20 SWAP4 SWAP5 POP PUSH1 0xFF NOT AND DUP4 DUP4 ADD MSTORE ISZERO ISZERO PUSH1 0x5 SHL ADD ADD SWAP1 CODESIZE DUP1 DUP1 DUP1 PUSH2 0x36B1 JUMP JUMPDEST SWAP1 PUSH1 0x40 SWAP2 PUSH2 0x120 PUSH1 0x9 DUP5 MLOAD SWAP3 PUSH2 0x372F DUP5 PUSH2 0x33E4 JUMP JUMPDEST DUP4 SWAP6 DUP1 MLOAD PUSH2 0x3748 DUP2 PUSH2 0x3741 DUP2 DUP7 PUSH2 0x3684 JUMP JUMPDEST SUB DUP3 PUSH2 0x3400 JUMP JUMPDEST DUP6 MSTORE DUP1 MLOAD PUSH2 0x375D DUP2 PUSH2 0x3741 DUP2 PUSH1 0x1 DUP8 ADD PUSH2 0x3684 JUMP JUMPDEST PUSH1 0x20 DUP7 ADD MSTORE DUP1 MLOAD PUSH2 0x3775 DUP2 PUSH2 0x3741 DUP2 PUSH1 0x2 DUP8 ADD PUSH2 0x3684 JUMP JUMPDEST DUP2 DUP7 ADD MSTORE DUP1 MLOAD PUSH2 0x378C DUP2 PUSH2 0x3741 DUP2 PUSH1 0x3 DUP8 ADD PUSH2 0x3684 JUMP JUMPDEST PUSH1 0x60 DUP7 ADD MSTORE MLOAD PUSH2 0x37A3 DUP2 PUSH2 0x3741 DUP2 PUSH1 0x4 DUP7 ADD PUSH2 0x3684 JUMP JUMPDEST PUSH1 0x80 DUP6 ADD MSTORE PUSH1 0x5 DUP2 ADD SLOAD PUSH1 0xA0 DUP6 ADD MSTORE PUSH1 0x6 DUP2 ADD SLOAD PUSH1 0xC0 DUP6 ADD MSTORE PUSH1 0x7 DUP2 ADD SLOAD PUSH1 0xE0 DUP6 ADD MSTORE PUSH1 0x8 DUP2 ADD SLOAD PUSH2 0x100 DUP6 ADD MSTORE ADD SLOAD SWAP2 ADD MSTORE JUMP JUMPDEST SWAP1 PUSH1 0x4 DUP3 LT ISZERO PUSH2 0x78C JUMPI MSTORE JUMP JUMPDEST SWAP1 PUSH2 0x38A4 SWAP2 PUSH2 0x3890 PUSH2 0x387E PUSH2 0x386C PUSH2 0x385A PUSH2 0x3848 PUSH2 0x3836 PUSH2 0x3824 PUSH2 0x3812 DUP9 MLOAD PUSH2 0x120 DUP1 DUP13 MSTORE DUP12 ADD SWAP1 PUSH2 0x34B0 JUMP JUMPDEST PUSH1 0x20 DUP10 ADD MLOAD DUP11 DUP3 SUB PUSH1 0x20 DUP13 ADD MSTORE PUSH2 0x34B0 JUMP JUMPDEST PUSH1 0x40 DUP9 ADD MLOAD DUP10 DUP3 SUB PUSH1 0x40 DUP12 ADD MSTORE PUSH2 0x34B0 JUMP JUMPDEST PUSH1 0x60 DUP8 ADD MLOAD DUP9 DUP3 SUB PUSH1 0x60 DUP11 ADD MSTORE PUSH2 0x34B0 JUMP JUMPDEST PUSH1 0x80 DUP7 ADD MLOAD DUP8 DUP3 SUB PUSH1 0x80 DUP10 ADD MSTORE PUSH2 0x34B0 JUMP JUMPDEST PUSH1 0xA0 DUP6 ADD MLOAD DUP7 DUP3 SUB PUSH1 0xA0 DUP9 ADD MSTORE PUSH2 0x34B0 JUMP JUMPDEST PUSH1 0xC0 DUP5 ADD MLOAD DUP6 DUP3 SUB PUSH1 0xC0 DUP8 ADD MSTORE PUSH2 0x34B0 JUMP JUMPDEST PUSH1 0xE0 DUP4 ADD MLOAD DUP5 DUP3 SUB PUSH1 0xE0 DUP7 ADD MSTORE PUSH2 0x34B0 JUMP JUMPDEST SWAP2 PUSH2 0x100 DUP1 SWAP3 ADD MLOAD SWAP2 DUP2 DUP5 SUB SWAP2 ADD MSTORE PUSH2 0x34B0 JUMP JUMPDEST SWAP1 JUMP JUMPDEST ISZERO PUSH2 0x38AE JUMPI JUMP JUMPDEST PUSH1 0x40 MLOAD PUSH3 0x461BCD PUSH1 0xE5 SHL DUP2 MSTORE PUSH1 0x20 PUSH1 0x4 DUP3 ADD MSTORE PUSH1 0x48 PUSH1 0x24 DUP3 ADD MSTORE PUSH32 0x7B2266726F6D223A2022466943616D2E736F6C222C2022636F6465223A20312C PUSH1 0x44 DUP3 ADD MSTORE PUSH32 0x20226D657373616765223A2022496E76616C69642063616C6C65722D4F6E6C79 PUSH1 0x64 DUP3 ADD MSTORE PUSH8 0x204F776E6572227D PUSH1 0xC0 SHL PUSH1 0x84 DUP3 ADD MSTORE PUSH1 0xA4 SWAP1 REVERT JUMPDEST ISZERO PUSH2 0x3931 JUMPI JUMP JUMPDEST PUSH1 0x40 MLOAD PUSH3 0x461BCD PUSH1 0xE5 SHL DUP2 MSTORE PUSH1 0x20 PUSH1 0x4 DUP3 ADD MSTORE PUSH1 0x48 PUSH1 0x24 DUP3 ADD MSTORE PUSH32 0x7B2266726F6D223A2022466943616D2E736F6C222C2022636F6465223A20322C PUSH1 0x44 DUP3 ADD MSTORE PUSH32 0x20226D657373616765223A2022496E76616C69642063616C6C65722D4F6E6C79 PUSH1 0x64 DUP3 ADD MSTORE PUSH8 0x2041646D696E227D PUSH1 0xC0 SHL PUSH1 0x84 DUP3 ADD MSTORE PUSH1 0xA4 SWAP1 REVERT JUMPDEST SWAP1 PUSH1 0x1F DUP2 GT PUSH2 0x39BB JUMPI POP POP POP JUMP JUMPDEST PUSH1 0x0 SWAP2 DUP3 MSTORE PUSH1 0x20 DUP3 KECCAK256 SWAP1 PUSH1 0x20 PUSH1 0x1F DUP6 ADD PUSH1 0x5 SHR DUP4 ADD SWAP5 LT PUSH2 0x39F7 JUMPI JUMPDEST PUSH1 0x1F ADD PUSH1 0x5 SHR ADD SWAP2 JUMPDEST DUP3 DUP2 LT PUSH2 0x39EC JUMPI POP POP POP JUMP JUMPDEST DUP2 DUP2 SSTORE PUSH1 0x1 ADD PUSH2 0x39E0 JUMP JUMPDEST SWAP1 SWAP3 POP DUP3 SWAP1 PUSH2 0x39D7 JUMP JUMPDEST PUSH1 0x1 SLOAD PUSH1 0x1 PUSH1 0x40 SHL DUP2 LT ISZERO PUSH2 0xECF JUMPI PUSH2 0x1359 DUP2 PUSH1 0x1 PUSH2 0x3A23 SWAP4 ADD PUSH1 0x1 SSTORE PUSH2 0x3343 JUMP JUMPDEST SWAP1 SSTORE JUMP JUMPDEST PUSH1 0x0 NOT DUP2 EQ PUSH2 0x2AEC JUMPI PUSH1 0x1 ADD SWAP1 JUMP JUMPDEST DUP1 PUSH1 0x0 MSTORE PUSH1 0xB PUSH1 0x20 MSTORE PUSH1 0x11 PUSH1 0x40 PUSH1 0x0 KECCAK256 ADD PUSH1 0x1 SWAP1 DUP2 PUSH1 0xFF NOT DUP3 SLOAD AND OR SWAP1 SSTORE PUSH1 0x0 SWAP2 DUP2 SLOAD SWAP3 JUMPDEST DUP4 DUP2 LT PUSH2 0x3A6E JUMPI POP PUSH2 0x38A4 SWAP2 SWAP3 POP PUSH2 0x3A01 JUMP JUMPDEST DUP2 PUSH2 0x3A78 DUP3 PUSH2 0x3343 JUMP JUMPDEST SWAP1 SLOAD SWAP1 PUSH1 0x3 SHL SHR EQ PUSH2 0x3A92 JUMPI PUSH2 0x3A8D SWAP1 PUSH2 0x3A27 JUMP JUMPDEST PUSH2 0x3A5B JUMP JUMPDEST POP POP SWAP1 POP SWAP1 JUMP JUMPDEST SWAP2 SWAP1 DUP3 SUB SWAP2 DUP3 GT PUSH2 0x2AEC JUMPI JUMP JUMPDEST PUSH1 0x0 DUP2 DUP2 MSTORE PUSH1 0xB PUSH1 0x20 MSTORE PUSH1 0x11 SWAP2 DUP3 PUSH1 0x40 DUP4 KECCAK256 ADD PUSH1 0xFF NOT DUP2 SLOAD AND SWAP1 SSTORE DUP2 JUMPDEST PUSH1 0x1 DUP1 SLOAD DUP1 DUP4 LT ISZERO PUSH2 0x3B89 JUMPI DUP4 SWAP1 PUSH2 0x3ADA DUP5 PUSH2 0x3343 JUMP JUMPDEST SWAP3 SWAP1 SLOAD PUSH1 0x3 SWAP4 DUP5 SHL SHR EQ PUSH2 0x3AF9 JUMPI POP POP POP PUSH2 0x3AF4 SWAP1 PUSH2 0x3A27 JUMP JUMPDEST PUSH2 0x3AC3 JUMP JUMPDEST SWAP1 SWAP5 SWAP3 SWAP2 SWAP6 SWAP4 POP PUSH1 0x0 NOT SWAP4 DUP5 DUP3 ADD SWAP2 DUP3 GT PUSH2 0x3B77 JUMPI POP DUP1 DUP3 LT PUSH2 0x3B53 JUMPI JUMPDEST POP POP DUP4 SLOAD SWAP1 DUP2 ISZERO PUSH2 0x3B3F JUMPI POP DUP2 ADD SWAP2 PUSH2 0x3B2F DUP4 PUSH2 0x3343 JUMP JUMPDEST DUP2 SWAP4 SWAP2 SLOAD SWAP3 SHL SHL NOT AND SWAP1 SSTORE DUP2 SSTORE SWAP1 JUMP JUMPDEST PUSH4 0x4E487B71 PUSH1 0xE0 SHL DUP2 MSTORE PUSH1 0x31 PUSH1 0x4 MSTORE PUSH1 0x24 SWAP1 REVERT JUMPDEST PUSH2 0x1359 PUSH2 0x3B62 PUSH2 0x3B6E SWAP3 PUSH2 0x3343 JUMP JUMPDEST SWAP1 SLOAD SWAP1 DUP8 SHL SHR SWAP3 PUSH2 0x3343 JUMP JUMPDEST SWAP1 SSTORE CODESIZE DUP1 PUSH2 0x3B17 JUMP JUMPDEST PUSH4 0x4E487B71 PUSH1 0xE0 SHL DUP5 MSTORE PUSH1 0x4 MSTORE PUSH1 0x24 DUP4 REVERT JUMPDEST POP POP POP POP POP POP PUSH1 0x1 SWAP1 JUMP JUMPDEST PUSH1 0x40 MLOAD SWAP1 PUSH2 0x3BA1 DUP3 PUSH2 0x3392 JUMP JUMPDEST PUSH1 0x0 DUP1 DUP4 MSTORE PUSH1 0x40 MLOAD DUP4 PUSH2 0x3BB3 DUP3 PUSH2 0x33E4 JUMP JUMPDEST DUP3 PUSH1 0x60 DUP1 DUP5 MSTORE DUP1 PUSH1 0x20 DUP6 ADD MSTORE DUP1 PUSH1 0x40 DUP6 ADD MSTORE DUP1 DUP1 DUP6 ADD MSTORE DUP1 PUSH1 0x80 DUP6 ADD MSTORE DUP2 PUSH1 0xA0 DUP6 ADD MSTORE DUP2 PUSH1 0xC0 DUP6 ADD MSTORE DUP2 PUSH1 0xE0 DUP6 ADD MSTORE PUSH2 0x100 SWAP4 DUP3 DUP6 DUP3 ADD MSTORE DUP3 PUSH2 0x120 DUP3 ADD MSTORE PUSH1 0x20 DUP5 ADD MSTORE DUP2 PUSH1 0x40 DUP5 ADD MSTORE DUP3 ADD MSTORE DUP3 PUSH1 0x80 DUP3 ADD MSTORE DUP3 PUSH1 0xA0 DUP3 ADD MSTORE DUP3 PUSH1 0xC0 DUP3 ADD MSTORE DUP3 PUSH1 0xE0 DUP3 ADD MSTORE ADD MSTORE JUMP JUMPDEST SWAP1 PUSH2 0x3C26 DUP3 PUSH2 0x3633 JUMP JUMPDEST PUSH2 0x3C33 PUSH1 0x40 MLOAD SWAP2 DUP3 PUSH2 0x3400 JUMP JUMPDEST DUP3 DUP2 MSTORE DUP1 SWAP3 PUSH2 0x3C44 PUSH1 0x1F NOT SWAP2 PUSH2 0x3633 JUMP JUMPDEST ADD SWAP1 PUSH1 0x0 JUMPDEST DUP3 DUP2 LT PUSH2 0x3C55 JUMPI POP POP POP JUMP JUMPDEST PUSH1 0x20 SWAP1 PUSH2 0x3C60 PUSH2 0x3B94 JUMP JUMPDEST DUP3 DUP3 DUP6 ADD ADD MSTORE ADD PUSH2 0x3C49 JUMP JUMPDEST DUP1 MLOAD DUP3 LT ISZERO PUSH2 0xEB9 JUMPI PUSH1 0x20 SWAP2 PUSH1 0x5 SHL ADD ADD SWAP1 JUMP JUMPDEST SWAP2 SWAP1 DUP3 ADD DUP1 SWAP3 GT PUSH2 0x2AEC JUMPI JUMP JUMPDEST DUP2 DUP2 MUL SWAP3 SWAP2 DUP2 ISZERO SWAP2 DUP5 DIV EQ OR ISZERO PUSH2 0x2AEC JUMPI JUMP JUMPDEST PUSH1 0x4 DUP3 LT ISZERO PUSH2 0x78C JUMPI MSTORE JUMP JUMPDEST SWAP1 DUP2 PUSH1 0x20 SWAP2 SUB SLT PUSH2 0x1F5 JUMPI MLOAD DUP1 ISZERO ISZERO DUP2 SUB PUSH2 0x1F5 JUMPI SWAP1 JUMP JUMPDEST SWAP1 PUSH1 0x0 SWAP2 PUSH1 0x4 DUP2 LT ISZERO PUSH2 0x78C JUMPI DUP1 PUSH1 0x1 EQ PUSH2 0x3CF8 JUMPI JUMPDEST PUSH1 0x3 EQ DUP1 PUSH2 0x3CEF JUMPI JUMPDEST PUSH2 0x3CE9 JUMPI JUMP JUMPDEST PUSH1 0xC SWAP2 POP JUMP JUMPDEST PUSH1 0x6 SWAP3 POP PUSH2 0x3CE3 JUMP JUMPDEST PUSH1 0x1 SWAP3 POP PUSH2 0x3CDA JUMP JUMPDEST PUSH1 0x40 MLOAD SWAP1 PUSH2 0x3D0E DUP3 PUSH2 0x3392 JUMP JUMPDEST DUP2 PUSH2 0x100 PUSH1 0x60 SWAP2 DUP3 DUP2 MSTORE DUP3 PUSH1 0x20 DUP3 ADD MSTORE DUP3 PUSH1 0x40 DUP3 ADD MSTORE DUP3 DUP1 DUP3 ADD MSTORE DUP3 PUSH1 0x80 DUP3 ADD MSTORE DUP3 PUSH1 0xA0 DUP3 ADD MSTORE DUP3 PUSH1 0xC0 DUP3 ADD MSTORE DUP3 PUSH1 0xE0 DUP3 ADD MSTORE ADD MSTORE JUMP JUMPDEST SWAP1 PUSH1 0x8 PUSH2 0x100 PUSH1 0x40 SWAP4 PUSH2 0x3E2D DUP6 MLOAD SWAP2 PUSH2 0x3D5D DUP4 PUSH2 0x3392 JUMP JUMPDEST PUSH2 0x3E26 DUP4 SWAP8 DUP1 MLOAD PUSH2 0x3D72 DUP2 PUSH2 0x3741 DUP2 DUP8 PUSH2 0x3684 JUMP JUMPDEST DUP6 MSTORE DUP1 MLOAD PUSH2 0x3D87 DUP2 PUSH2 0x3741 DUP2 PUSH1 0x1 DUP9 ADD PUSH2 0x3684 JUMP JUMPDEST PUSH1 0x20 DUP7 ADD MSTORE DUP1 MLOAD PUSH2 0x3D9F DUP2 PUSH2 0x3741 DUP2 PUSH1 0x2 DUP9 ADD PUSH2 0x3684 JUMP JUMPDEST DUP2 DUP7 ADD MSTORE DUP1 MLOAD PUSH2 0x3DB6 DUP2 PUSH2 0x3741 DUP2 PUSH1 0x3 DUP9 ADD PUSH2 0x3684 JUMP JUMPDEST PUSH1 0x60 DUP7 ADD MSTORE DUP1 MLOAD PUSH2 0x3DCE DUP2 PUSH2 0x3741 DUP2 PUSH1 0x4 DUP9 ADD PUSH2 0x3684 JUMP JUMPDEST PUSH1 0x80 DUP7 ADD MSTORE DUP1 MLOAD PUSH2 0x3DE6 DUP2 PUSH2 0x3741 DUP2 PUSH1 0x5 DUP9 ADD PUSH2 0x3684 JUMP JUMPDEST PUSH1 0xA0 DUP7 ADD MSTORE DUP1 MLOAD PUSH2 0x3DFE DUP2 PUSH2 0x3741 DUP2 PUSH1 0x6 DUP9 ADD PUSH2 0x3684 JUMP JUMPDEST PUSH1 0xC0 DUP7 ADD MSTORE DUP1 MLOAD PUSH2 0x3E16 DUP2 PUSH2 0x3741 DUP2 PUSH1 0x7 DUP9 ADD PUSH2 0x3684 JUMP JUMPDEST PUSH1 0xE0 DUP7 ADD MSTORE MLOAD DUP1 SWAP7 DUP2 SWAP4 ADD PUSH2 0x3684 JUMP JUMPDEST SUB DUP5 PUSH2 0x3400 JUMP JUMPDEST ADD MSTORE JUMP JUMPDEST PUSH1 0x0 SWAP4 SWAP3 DUP5 SWAP3 SWAP1 DUP2 DUP4 GT PUSH2 0x3F62 JUMPI DUP1 MLOAD DUP5 SWAP4 JUMPDEST DUP2 DUP6 LT PUSH2 0x3F1B JUMPI POP POP DUP4 SWAP2 DUP2 MLOAD JUMPDEST DUP1 DUP5 LT PUSH2 0x3EC2 JUMPI POP POP POP DUP1 PUSH2 0x3EA1 JUMPI POP DUP2 JUMPDEST DUP1 DUP3 GT ISZERO PUSH2 0x3E71 JUMPI POP POP POP JUMP JUMPDEST PUSH2 0x3E7D SWAP3 SWAP4 SWAP5 POP PUSH2 0x3A99 JUMP JUMPDEST SWAP1 PUSH1 0x1 DUP3 ADD DUP1 SWAP3 GT PUSH2 0x3E8D JUMPI POP SWAP1 JUMP JUMPDEST PUSH4 0x4E487B71 PUSH1 0xE0 SHL DUP2 MSTORE PUSH1 0x11 PUSH1 0x4 MSTORE PUSH1 0x24 SWAP1 REVERT JUMPDEST PUSH1 0x0 NOT DUP2 ADD SWAP1 DUP2 GT ISZERO PUSH2 0x3E64 JUMPI PUSH4 0x4E487B71 PUSH1 0xE0 SHL DUP4 MSTORE PUSH1 0x11 PUSH1 0x4 MSTORE PUSH1 0x24 DUP4 REVERT JUMPDEST PUSH2 0x3ECC DUP5 DUP3 PUSH2 0x3A99 JUMP JUMPDEST SWAP1 PUSH2 0x3EDB PUSH1 0x1 SWAP3 DUP4 SHR DUP7 PUSH2 0x3C80 JUMP JUMPDEST SWAP2 DUP4 PUSH2 0x3EE7 DUP5 DUP8 PUSH2 0x3C6C JUMP JUMPDEST MLOAD GT ISZERO PUSH2 0x3EF5 JUMPI POP POP PUSH2 0x3E52 JUMP JUMPDEST SWAP1 SWAP5 POP DUP2 ADD DUP1 SWAP2 GT PUSH2 0x3F07 JUMPI SWAP3 PUSH2 0x3E52 JUMP JUMPDEST PUSH4 0x4E487B71 PUSH1 0xE0 SHL DUP7 MSTORE PUSH1 0x11 PUSH1 0x4 MSTORE PUSH1 0x24 DUP7 REVERT JUMPDEST SWAP1 SWAP4 PUSH2 0x3F27 DUP2 DUP7 PUSH2 0x3A99 JUMP JUMPDEST PUSH2 0x3F35 PUSH1 0x1 SWAP2 DUP3 SHR DUP4 PUSH2 0x3C80 JUMP JUMPDEST SWAP2 DUP4 PUSH2 0x3F41 DUP5 DUP8 PUSH2 0x3C6C JUMP JUMPDEST MLOAD LT ISZERO PUSH2 0x3F5A JUMPI POP DUP2 ADD DUP1 SWAP2 GT PUSH2 0x3F07 JUMPI SWAP4 JUMPDEST SWAP1 PUSH2 0x3E44 JUMP JUMPDEST SWAP6 POP POP PUSH2 0x3F54 JUMP JUMPDEST PUSH1 0x40 MLOAD PUSH3 0x461BCD PUSH1 0xE5 SHL DUP2 MSTORE PUSH1 0x20 PUSH1 0x4 DUP3 ADD MSTORE PUSH1 0x12 PUSH1 0x24 DUP3 ADD MSTORE PUSH18 0x496E76616C69642074696D652072616E6765 PUSH1 0x70 SHL PUSH1 0x44 DUP3 ADD MSTORE PUSH1 0x64 SWAP1 REVERT JUMPDEST SWAP2 SWAP1 PUSH1 0x0 SWAP1 PUSH3 0x10BD9 PUSH3 0x15180 DUP1 DUP7 DIV DUP3 DUP2 ADD SWAP4 SWAP2 SWAP3 DUP6 DUP3 SLT DUP1 ISZERO SWAP2 DUP7 SLT SWAP2 DUP3 AND SWAP2 ISZERO AND OR PUSH2 0x4422 JUMPI PUSH3 0x264965 ADD SWAP3 DUP5 PUSH3 0x253D8C DUP6 SLT SWAP2 SLT SWAP1 DUP1 ISZERO DUP3 AND SWAP2 ISZERO AND OR PUSH2 0x440E JUMPI DUP3 PUSH1 0x2 SHL SWAP1 PUSH1 0x4 SWAP2 DUP3 DUP2 SDIV DUP6 SUB PUSH2 0x42C8 JUMPI PUSH3 0x23AB1 DUP1 SWAP2 SDIV SWAP5 DUP6 DUP3 MUL SWAP2 DUP3 SDIV DUP7 SUB PUSH2 0x43FB JUMPI PUSH1 0x3 SWAP2 DUP3 DUP2 ADD SWAP1 DUP9 DUP5 DUP4 SLT SWAP2 SLT SWAP1 DUP1 ISZERO DUP3 AND SWAP2 ISZERO AND OR PUSH2 0x43E8 JUMPI SWAP1 DUP5 PUSH2 0x402D SWAP3 SDIV SWAP1 PUSH2 0x4448 JUMP JUMPDEST SWAP5 PUSH1 0x1 SWAP6 DUP7 DUP2 ADD DUP8 DUP2 SLT DUP10 DUP4 SLT SWAP1 DUP1 ISZERO DUP3 AND SWAP2 ISZERO AND OR PUSH2 0x42DB JUMPI PUSH2 0xFA0 SWAP1 DUP1 DUP3 MUL SWAP2 DUP3 SDIV SUB PUSH2 0x42DB JUMPI PUSH3 0x164B09 PUSH2 0x4071 SWAP2 SDIV SWAP2 DUP7 PUSH2 0x406A DUP5 PUSH2 0x447D JUMP JUMPDEST SDIV SWAP1 PUSH2 0x4448 JUMP JUMPDEST SWAP1 PUSH1 0x1F DUP3 ADD SWAP2 DUP10 PUSH1 0x1F DUP5 SLT SWAP2 SLT SWAP1 DUP1 ISZERO DUP3 AND SWAP2 ISZERO AND OR PUSH2 0x42DB JUMPI DUP2 PUSH1 0x50 MUL SWAP2 PUSH1 0x50 DUP4 SDIV DUP2 SUB PUSH2 0x43D5 JUMPI PUSH2 0x98F DUP1 SWAP4 SDIV SWAP3 DUP4 DUP2 MUL SWAP1 DUP2 SDIV DUP5 SUB PUSH2 0x4327 JUMPI SWAP1 PUSH1 0x50 PUSH2 0x40BB SWAP3 SDIV SWAP1 PUSH2 0x4448 JUMP JUMPDEST SWAP1 PUSH1 0xB DUP4 SDIV SWAP1 PUSH1 0x2 DUP5 ADD SWAP4 DUP12 PUSH1 0x2 DUP7 SLT SWAP2 SLT SWAP1 DUP1 ISZERO DUP3 AND SWAP2 ISZERO AND OR PUSH2 0x4327 JUMPI PUSH1 0xC SWAP4 DUP3 DUP6 MUL SWAP1 DUP6 DUP3 SDIV DUP5 SUB PUSH2 0x4301 JUMPI SWAP1 PUSH2 0x40F4 SWAP2 PUSH2 0x4448 JUMP JUMPDEST SWAP5 PUSH1 0x30 NOT DUP2 ADD SWAP1 DUP2 SGT DUP12 AND PUSH2 0x42EE JUMPI DUP1 PUSH1 0x64 MUL SWAP1 PUSH1 0x64 DUP3 SDIV SUB PUSH2 0x42EE JUMPI SWAP2 PUSH2 0x4122 PUSH2 0x4127 SWAP3 PUSH2 0x412F SWAP5 PUSH2 0x4461 JUMP JUMPDEST PUSH2 0x4461 JUMP JUMPDEST SWAP6 DUP3 SWAP5 PUSH2 0x3C80 JUMP JUMPDEST PUSH1 0x0 NOT SWAP6 DUP7 DUP3 ADD SWAP5 SWAP2 DUP6 GT PUSH2 0x4327 JUMPI PUSH2 0x414C DUP5 SWAP2 DUP3 DUP8 DIV SWAP1 PUSH2 0x3C80 JUMP JUMPDEST SWAP5 MOD DUP10 DUP2 ADD SWAP3 DUP4 DUP3 GT PUSH2 0x42EE JUMPI DUP11 DUP5 EQ DUP1 ISZERO PUSH2 0x43CC JUMPI JUMPDEST DUP1 ISZERO PUSH2 0x43C2 JUMPI JUMPDEST DUP1 ISZERO PUSH2 0x43B8 JUMPI JUMPDEST DUP1 ISZERO PUSH2 0x43AE JUMPI JUMPDEST DUP1 ISZERO PUSH2 0x43A4 JUMPI JUMPDEST DUP1 ISZERO PUSH2 0x439B JUMPI JUMPDEST ISZERO PUSH2 0x4346 JUMPI PUSH1 0x1F DUP1 SWAP2 JUMPDEST GT PUSH2 0x433E JUMPI JUMPDEST POP PUSH2 0x7B2 DUP6 LT PUSH2 0x433A JUMPI PUSH2 0x7D4A NOT DUP3 ADD SWAP2 DUP3 SGT DUP11 AND PUSH2 0x4327 JUMPI DUP11 DUP6 SLT SWAP7 DUP8 ISZERO SWAP3 PUSH2 0x12C0 DUP8 DUP2 ADD SWAP1 DUP2 SLT DUP6 DUP2 AND SWAP1 ISZERO DUP12 AND OR PUSH2 0x4314 JUMPI SWAP1 DUP11 PUSH2 0x41E1 PUSH2 0x41E8 PUSH2 0x41ED SWAP5 DUP11 PUSH2 0x41E1 DUP12 PUSH2 0x4436 JUMP JUMPDEST SDIV SWAP1 PUSH2 0x4461 JUMP JUMPDEST PUSH2 0x447D JUMP JUMPDEST SWAP2 ADD DUP4 DUP2 SGT DUP12 AND PUSH2 0x42EE JUMPI DUP5 PUSH2 0x4202 DUP6 PUSH2 0x4436 JUMP JUMPDEST SDIV SWAP1 DUP6 DUP3 MUL SWAP2 DUP1 DUP4 SDIV DUP8 EQ SWAP1 ISZERO OR ISZERO PUSH2 0x4301 JUMPI SWAP1 PUSH2 0x421F SWAP2 PUSH2 0x4448 JUMP JUMPDEST PUSH2 0x16F SWAP1 DUP1 DUP3 MUL SWAP2 DUP3 SDIV SUB PUSH2 0x42EE JUMPI SWAP1 DUP5 PUSH2 0x423B SWAP3 SDIV SWAP1 PUSH2 0x4461 JUMP JUMPDEST SWAP6 PUSH2 0x1324 DUP1 SWAP6 ADD SWAP5 DUP6 SLT SWAP1 DUP2 ISZERO AND SWAP2 AND OR PUSH2 0x42DB JUMPI SWAP2 PUSH2 0x4260 SWAP2 PUSH2 0x41E1 PUSH1 0x64 SWAP5 PUSH2 0x4436 JUMP JUMPDEST SDIV DUP1 DUP3 MUL SWAP2 DUP3 SDIV SUB PUSH2 0x42C8 JUMPI SWAP1 DUP3 PUSH2 0x4279 SWAP3 SDIV SWAP1 PUSH2 0x4448 JUMP JUMPDEST PUSH3 0x253D8B NOT DUP2 ADD SWAP4 SWAP1 DUP5 SGT AND PUSH2 0x42B5 JUMPI DUP2 DUP4 MUL SWAP3 DUP1 DUP5 DIV DUP4 EQ SWAP1 ISZERO OR ISZERO PUSH2 0x42B5 JUMPI POP SWAP1 PUSH2 0x42A8 SWAP2 DUP6 MOD SWAP1 PUSH2 0x3C80 JUMP JUMPDEST SWAP3 DUP4 LT PUSH2 0x42B2 JUMPI POP JUMP JUMPDEST DUP1 REVERT JUMPDEST PUSH4 0x4E487B71 PUSH1 0xE0 SHL DUP5 MSTORE PUSH1 0x11 SWAP1 MSTORE PUSH1 0x24 DUP4 REVERT JUMPDEST PUSH4 0x4E487B71 PUSH1 0xE0 SHL DUP7 MSTORE PUSH1 0x11 DUP4 MSTORE PUSH1 0x24 DUP7 REVERT JUMPDEST PUSH4 0x4E487B71 PUSH1 0xE0 SHL DUP10 MSTORE PUSH1 0x11 DUP7 MSTORE PUSH1 0x24 DUP10 REVERT JUMPDEST PUSH4 0x4E487B71 PUSH1 0xE0 SHL DUP13 MSTORE PUSH1 0x11 DUP10 MSTORE PUSH1 0x24 DUP13 REVERT JUMPDEST PUSH4 0x4E487B71 PUSH1 0xE0 SHL DUP14 MSTORE PUSH1 0x11 DUP11 MSTORE PUSH1 0x24 DUP14 REVERT JUMPDEST PUSH4 0x4E487B71 PUSH1 0xE0 SHL DUP15 MSTORE PUSH1 0x11 DUP12 MSTORE PUSH1 0x24 DUP15 REVERT JUMPDEST PUSH4 0x4E487B71 PUSH1 0xE0 SHL DUP12 MSTORE PUSH1 0x11 DUP9 MSTORE PUSH1 0x24 DUP12 REVERT JUMPDEST DUP11 DUP1 REVERT JUMPDEST SWAP2 POP CODESIZE PUSH2 0x4196 JUMP JUMPDEST PUSH1 0x2 DUP5 EQ PUSH2 0x4357 JUMPI PUSH1 0x1E DUP1 SWAP2 PUSH2 0x4190 JUMP JUMPDEST DUP7 DUP7 AND ISZERO DUP1 PUSH2 0x438F JUMPI JUMPDEST DUP1 ISZERO PUSH2 0x4383 JUMPI JUMPDEST ISZERO PUSH2 0x437A JUMPI PUSH1 0xFF PUSH1 0x1D JUMPDEST AND DUP1 SWAP2 PUSH2 0x4190 JUMP JUMPDEST PUSH1 0xFF PUSH1 0x1C PUSH2 0x4372 JUMP JUMPDEST POP PUSH2 0x190 DUP7 MOD ISZERO PUSH2 0x4368 JUMP JUMPDEST POP PUSH1 0x64 DUP7 MOD ISZERO ISZERO PUSH2 0x4361 JUMP JUMPDEST POP DUP5 DUP5 EQ PUSH2 0x4186 JUMP JUMPDEST POP PUSH1 0xA DUP5 EQ PUSH2 0x417F JUMP JUMPDEST POP PUSH1 0x8 DUP5 EQ PUSH2 0x4178 JUMP JUMPDEST POP PUSH1 0x7 DUP5 EQ PUSH2 0x4171 JUMP JUMPDEST POP PUSH1 0x5 DUP5 EQ PUSH2 0x416A JUMP JUMPDEST POP DUP7 DUP5 EQ PUSH2 0x4163 JUMP JUMPDEST PUSH4 0x4E487B71 PUSH1 0xE0 SHL DUP11 MSTORE PUSH1 0x11 DUP8 MSTORE PUSH1 0x24 DUP11 REVERT JUMPDEST PUSH4 0x4E487B71 PUSH1 0xE0 SHL DUP9 MSTORE PUSH1 0x11 DUP6 MSTORE PUSH1 0x24 DUP9 REVERT JUMPDEST PUSH4 0x4E487B71 PUSH1 0xE0 SHL DUP8 MSTORE PUSH1 0x11 DUP5 MSTORE PUSH1 0x24 DUP8 REVERT JUMPDEST PUSH4 0x4E487B71 PUSH1 0xE0 SHL DUP5 MSTORE PUSH1 0x11 PUSH1 0x4 MSTORE PUSH1 0x24 DUP5 REVERT JUMPDEST PUSH4 0x4E487B71 PUSH1 0xE0 SHL DUP6 MSTORE PUSH1 0x11 PUSH1 0x4 MSTORE PUSH1 0x24 DUP6 REVERT JUMPDEST SWAP1 PUSH1 0xD NOT DUP3 ADD SWAP2 DUP3 SGT PUSH1 0x1 AND PUSH2 0x2AEC JUMPI JUMP JUMPDEST DUP2 DUP2 SUB SWAP3 SWAP2 PUSH1 0x0 SGT DUP1 ISZERO DUP3 DUP6 SGT AND SWAP2 DUP5 SLT AND OR PUSH2 0x2AEC JUMPI JUMP JUMPDEST SWAP2 SWAP1 SWAP2 PUSH1 0x0 DUP4 DUP3 ADD SWAP4 DUP5 SLT SWAP2 SLT SWAP1 DUP1 ISZERO DUP3 AND SWAP2 ISZERO AND OR PUSH2 0x2AEC JUMPI JUMP JUMPDEST SWAP1 PUSH2 0x5B5 SWAP2 DUP1 DUP4 MUL SWAP3 DUP4 SDIV SUB PUSH2 0x2AEC JUMPI JUMP INVALID LOG2 PUSH5 0x6970667358 0x22 SLT KECCAK256 CODESIZE 0xF LOG4 PUSH9 0x10A4F1896AC77C6AE1 SDIV 0x26 0xAA 0xDA 0xF PUSH26 0x6530AF6F6ED114D86264D6171264736F6C634300081300330000 "
		},
		"gasEstimates": {
			"creation": {
				"codeDepositCost": "3521000",
				"executionCost": "125194",
				"totalCost": "3646194"
			},
			"external": {
				"ActiveProduct(uint256)": "6962",
				"AdminActiveProduct(bytes32)": "79700",
				"AdminAddProduct(string,string,string,string,string,uint256,uint256,uint256,uint256,uint256,uint256,uint256,bool)": "infinite",
				"AdminDeactiveProduct(bytes32)": "infinite",
				"AdminEditUpdateAt(bytes32,uint256)": "25049",
				"AdminUpdateProductInfo(bytes32,string,string,string,string,uint256,uint256,uint256,uint256,uint256,uint256,uint256)": "infinite",
				"AdminViewProduct()": "infinite",
				"Admins(uint256)": "4945",
				"IsAdmin(address)": "3051",
				"ListProductID(uint256)": "7298",
				"MakeOrder((bytes32,uint256,uint8)[],(string,string,string,string,string,string,string,string,string),address)": "infinite",
				"MasterPool()": "3088",
				"OrderIDs(uint256)": "4946",
				"Owner()": "2956",
				"RenewSub(bytes32,bytes32)": "infinite",
				"SCUsdt()": "2758",
				"SetAdmin(address)": "75485",
				"SetMasterPool(address)": "27188",
				"SetUsdt(address)": "27386",
				"UserViewProduct()": "infinite",
				"Users(uint256)": "4615",
				"ViewProduct(bytes32)": "infinite",
				"ViewProducts(uint256,uint256,uint256)": "infinite",
				"countElementsInRange(uint256,uint256,uint256[])": "infinite",
				"getProductTrend(bytes32)": "infinite",
				"getProductTrendByTime(bytes32,uint256,uint256)": "infinite",
				"getProductViewCount(bytes32)": "3149",
				"getRentalInfo(address,bytes32,bytes32)": "5530",
				"getShipInfo(bytes32)": "infinite",
				"getmIDTOOrder(bytes32)": "infinite",
				"mAddressTOOrderID(address,uint256)": "7563",
				"mIDToProduct(bytes32)": "infinite",
				"mProductSearchTrend(bytes32,uint256)": "6776",
				"mProductViewCount(bytes32)": "2910",
				"mShippingInfo(uint256)": "infinite",
				"mShippingInfoByAddress(address,uint256)": "6771",
				"mShippingInfoByOrder(uint256)": "3020",
				"shippingCounter()": "2426",
				"updateViewCount(bytes32)": "75285"
			},
			"internal": {
				"_rent(struct OrderInput memory,bytes32,address)": "infinite",
				"findIndex(uint256,bool,uint256[] memory)": "infinite",
				"getMonth(enum SUBCRIPTION_TYPE)": "151"
			}
		},
		"methodIdentifiers": {
			"ActiveProduct(uint256)": "6f0243f3",
			"AdminActiveProduct(bytes32)": "103bb2b5",
			"AdminAddProduct(string,string,string,string,string,uint256,uint256,uint256,uint256,uint256,uint256,uint256,bool)": "52023610",
			"AdminDeactiveProduct(bytes32)": "0f8472ff",
			"AdminEditUpdateAt(bytes32,uint256)": "7f8c678f",
			"AdminUpdateProductInfo(bytes32,string,string,string,string,uint256,uint256,uint256,uint256,uint256,uint256,uint256)": "05d0af0b",
			"AdminViewProduct()": "12ee84ef",
			"Admins(uint256)": "9f89a4b2",
			"IsAdmin(address)": "b11e3c1a",
			"ListProductID(uint256)": "cb4e841b",
			"MakeOrder((bytes32,uint256,uint8)[],(string,string,string,string,string,string,string,string,string),address)": "27b50845",
			"MasterPool()": "fb7ef377",
			"OrderIDs(uint256)": "a2b2fb55",
			"Owner()": "b4a99a4e",
			"RenewSub(bytes32,bytes32)": "af669326",
			"SCUsdt()": "94284cbd",
			"SetAdmin(address)": "5a272403",
			"SetMasterPool(address)": "a559934e",
			"SetUsdt(address)": "ddcd6408",
			"UserViewProduct()": "350f31ea",
			"Users(uint256)": "1e98fd1c",
			"ViewProduct(bytes32)": "5d977ee1",
			"ViewProducts(uint256,uint256,uint256)": "3f81714c",
			"countElementsInRange(uint256,uint256,uint256[])": "951a5662",
			"getProductTrend(bytes32)": "673047ba",
			"getProductTrendByTime(bytes32,uint256,uint256)": "0c2ed967",
			"getProductViewCount(bytes32)": "fdd719b1",
			"getRentalInfo(address,bytes32,bytes32)": "b358fa8e",
			"getShipInfo(bytes32)": "7f7c0808",
			"getmIDTOOrder(bytes32)": "7cf388ee",
			"mAddressTOOrderID(address,uint256)": "f09610c7",
			"mIDToProduct(bytes32)": "5c8d05a4",
			"mProductSearchTrend(bytes32,uint256)": "0b0fe44c",
			"mProductViewCount(bytes32)": "acfa58d2",
			"mShippingInfo(uint256)": "da31f88a",
			"mShippingInfoByAddress(address,uint256)": "02b572d6",
			"mShippingInfoByOrder(uint256)": "bfbe3ef7",
			"shippingCounter()": "1c787f3e",
			"updateViewCount(bytes32)": "041cbb16"
		}
	},
	"abi": [
		{
			"inputs": [],
			"stateMutability": "payable",
			"type": "constructor"
		},
		{
			"anonymous": false,
			"inputs": [
				{
					"indexed": false,
					"internalType": "address",
					"name": "buyer",
					"type": "address"
				},
				{
					"indexed": false,
					"internalType": "bytes32",
					"name": "orderId",
					"type": "bytes32"
				},
				{
					"indexed": false,
					"internalType": "bytes32",
					"name": "productId",
					"type": "bytes32"
				},
				{
					"indexed": false,
					"internalType": "uint256",
					"name": "firstTimePay",
					"type": "uint256"
				},
				{
					"indexed": false,
					"internalType": "uint256",
					"name": "nextTimePay",
					"type": "uint256"
				},
				{
					"indexed": false,
					"internalType": "uint256",
					"name": "amount",
					"type": "uint256"
				},
				{
					"indexed": false,
					"internalType": "uint256",
					"name": "typSub",
					"type": "uint256"
				}
			],
			"name": "Hire",
			"type": "event"
		},
		{
			"anonymous": false,
			"inputs": [
				{
					"components": [
						{
							"internalType": "address",
							"name": "add",
							"type": "address"
						},
						{
							"internalType": "uint256",
							"name": "quantity",
							"type": "uint256"
						},
						{
							"internalType": "uint256",
							"name": "price",
							"type": "uint256"
						},
						{
							"internalType": "enum SUBCRIPTION_TYPE",
							"name": "subTyp",
							"type": "uint8"
						},
						{
							"internalType": "uint256",
							"name": "time",
							"type": "uint256"
						},
						{
							"internalType": "bytes32",
							"name": "id",
							"type": "bytes32"
						},
						{
							"internalType": "address",
							"name": "from",
							"type": "address"
						},
						{
							"internalType": "address",
							"name": "to",
							"type": "address"
						}
					],
					"indexed": false,
					"internalType": "struct FiCam.EventInput",
					"name": "eventOrder",
					"type": "tuple"
				}
			],
			"name": "eBuyProduct",
			"type": "event"
		},
		{
			"inputs": [
				{
					"internalType": "uint256",
					"name": "",
					"type": "uint256"
				}
			],
			"name": "ActiveProduct",
			"outputs": [
				{
					"internalType": "bytes32",
					"name": "",
					"type": "bytes32"
				}
			],
			"stateMutability": "view",
			"type": "function"
		},
		{
			"inputs": [
				{
					"internalType": "bytes32",
					"name": "_id",
					"type": "bytes32"
				}
			],
			"name": "AdminActiveProduct",
			"outputs": [
				{
					"internalType": "bool",
					"name": "",
					"type": "bool"
				}
			],
			"stateMutability": "nonpayable",
			"type": "function"
		},
		{
			"inputs": [
				{
					"internalType": "string",
					"name": "_imgUrl",
					"type": "string"
				},
				{
					"internalType": "string",
					"name": "_name",
					"type": "string"
				},
				{
					"internalType": "string",
					"name": "_desc",
					"type": "string"
				},
				{
					"internalType": "string",
					"name": "_advantages",
					"type": "string"
				},
				{
					"internalType": "string",
					"name": "_videoUrl",
					"type": "string"
				},
				{
					"internalType": "uint256",
					"name": "_salePrice",
					"type": "uint256"
				},
				{
					"internalType": "uint256",
					"name": "_rentalPrice",
					"type": "uint256"
				},
				{
					"internalType": "uint256",
					"name": "_monthlyPrice",
					"type": "uint256"
				},
				{
					"internalType": "uint256",
					"name": "_sixMonthsPrice",
					"type": "uint256"
				},
				{
					"internalType": "uint256",
					"name": "_yearlyPrice",
					"type": "uint256"
				},
				{
					"internalType": "uint256",
					"name": "_storageQuantity",
					"type": "uint256"
				},
				{
					"internalType": "uint256",
					"name": "_remainTime",
					"type": "uint256"
				},
				{
					"internalType": "bool",
					"name": "_active",
					"type": "bool"
				}
			],
			"name": "AdminAddProduct",
			"outputs": [],
			"stateMutability": "nonpayable",
			"type": "function"
		},
		{
			"inputs": [
				{
					"internalType": "bytes32",
					"name": "_id",
					"type": "bytes32"
				}
			],
			"name": "AdminDeactiveProduct",
			"outputs": [
				{
					"internalType": "bool",
					"name": "",
					"type": "bool"
				}
			],
			"stateMutability": "nonpayable",
			"type": "function"
		},
		{
			"inputs": [
				{
					"internalType": "bytes32",
					"name": "_id",
					"type": "bytes32"
				},
				{
					"internalType": "uint256",
					"name": "_updateAt",
					"type": "uint256"
				}
			],
			"name": "AdminEditUpdateAt",
			"outputs": [
				{
					"internalType": "bool",
					"name": "",
					"type": "bool"
				}
			],
			"stateMutability": "nonpayable",
			"type": "function"
		},
		{
			"inputs": [
				{
					"internalType": "bytes32",
					"name": "_id",
					"type": "bytes32"
				},
				{
					"internalType": "string",
					"name": "_imgUrl",
					"type": "string"
				},
				{
					"internalType": "string",
					"name": "_desc",
					"type": "string"
				},
				{
					"internalType": "string",
					"name": "_advantages",
					"type": "string"
				},
				{
					"internalType": "string",
					"name": "_videoUrl",
					"type": "string"
				},
				{
					"internalType": "uint256",
					"name": "_salePrice",
					"type": "uint256"
				},
				{
					"internalType": "uint256",
					"name": "_rentalPrice",
					"type": "uint256"
				},
				{
					"internalType": "uint256",
					"name": "_monthlyPrice",
					"type": "uint256"
				},
				{
					"internalType": "uint256",
					"name": "_sixMonthsPrice",
					"type": "uint256"
				},
				{
					"internalType": "uint256",
					"name": "_yearlyPrice",
					"type": "uint256"
				},
				{
					"internalType": "uint256",
					"name": "_storageQuantity",
					"type": "uint256"
				},
				{
					"internalType": "uint256",
					"name": "_remainTime",
					"type": "uint256"
				}
			],
			"name": "AdminUpdateProductInfo",
			"outputs": [
				{
					"internalType": "bool",
					"name": "",
					"type": "bool"
				}
			],
			"stateMutability": "nonpayable",
			"type": "function"
		},
		{
			"inputs": [],
			"name": "AdminViewProduct",
			"outputs": [
				{
					"components": [
						{
							"internalType": "bytes32",
							"name": "id",
							"type": "bytes32"
						},
						{
							"components": [
								{
									"internalType": "string",
									"name": "imgUrl",
									"type": "string"
								},
								{
									"internalType": "string",
									"name": "name",
									"type": "string"
								},
								{
									"internalType": "bytes",
									"name": "desc",
									"type": "bytes"
								},
								{
									"internalType": "string",
									"name": "advantages",
									"type": "string"
								},
								{
									"internalType": "string",
									"name": "videoUrl",
									"type": "string"
								},
								{
									"internalType": "uint256",
									"name": "salePrice",
									"type": "uint256"
								},
								{
									"internalType": "uint256",
									"name": "rentalPrice",
									"type": "uint256"
								},
								{
									"internalType": "uint256",
									"name": "monthlyPrice",
									"type": "uint256"
								},
								{
									"internalType": "uint256",
									"name": "sixMonthsPrice",
									"type": "uint256"
								},
								{
									"internalType": "uint256",
									"name": "yearlyPrice",
									"type": "uint256"
								}
							],
							"internalType": "struct createProductParams",
							"name": "params",
							"type": "tuple"
						},
						{
							"internalType": "uint256",
							"name": "storageQuantity",
							"type": "uint256"
						},
						{
							"internalType": "uint256",
							"name": "saleQuantity",
							"type": "uint256"
						},
						{
							"internalType": "uint256",
							"name": "hireQuantity",
							"type": "uint256"
						},
						{
							"internalType": "uint256",
							"name": "returnHiredQuantity",
							"type": "uint256"
						},
						{
							"internalType": "uint256",
							"name": "remainTime",
							"type": "uint256"
						},
						{
							"internalType": "uint256",
							"name": "updateAt",
							"type": "uint256"
						},
						{
							"internalType": "bool",
							"name": "active",
							"type": "bool"
						}
					],
					"internalType": "struct Product[]",
					"name": "products",
					"type": "tuple[]"
				}
			],
			"stateMutability": "view",
			"type": "function"
		},
		{
			"inputs": [
				{
					"internalType": "uint256",
					"name": "",
					"type": "uint256"
				}
			],
			"name": "Admins",
			"outputs": [
				{
					"internalType": "address",
					"name": "",
					"type": "address"
				}
			],
			"stateMutability": "view",
			"type": "function"
		},
		{
			"inputs": [
				{
					"internalType": "address",
					"name": "",
					"type": "address"
				}
			],
			"name": "IsAdmin",
			"outputs": [
				{
					"internalType": "bool",
					"name": "",
					"type": "bool"
				}
			],
			"stateMutability": "view",
			"type": "function"
		},
		{
			"inputs": [
				{
					"internalType": "uint256",
					"name": "",
					"type": "uint256"
				}
			],
			"name": "ListProductID",
			"outputs": [
				{
					"internalType": "bytes32",
					"name": "",
					"type": "bytes32"
				}
			],
			"stateMutability": "view",
			"type": "function"
		},
		{
			"inputs": [
				{
					"components": [
						{
							"internalType": "bytes32",
							"name": "id",
							"type": "bytes32"
						},
						{
							"internalType": "uint256",
							"name": "quantity",
							"type": "uint256"
						},
						{
							"internalType": "enum SUBCRIPTION_TYPE",
							"name": "typ",
							"type": "uint8"
						}
					],
					"internalType": "struct OrderInput[]",
					"name": "orderInputs",
					"type": "tuple[]"
				},
				{
					"components": [
						{
							"internalType": "string",
							"name": "firstName",
							"type": "string"
						},
						{
							"internalType": "string",
							"name": "lastName",
							"type": "string"
						},
						{
							"internalType": "string",
							"name": "email",
							"type": "string"
						},
						{
							"internalType": "string",
							"name": "country",
							"type": "string"
						},
						{
							"internalType": "string",
							"name": "city",
							"type": "string"
						},
						{
							"internalType": "string",
							"name": "stateOrProvince",
							"type": "string"
						},
						{
							"internalType": "string",
							"name": "postalCode",
							"type": "string"
						},
						{
							"internalType": "string",
							"name": "phone",
							"type": "string"
						},
						{
							"internalType": "string",
							"name": "addressDetail",
							"type": "string"
						}
					],
					"internalType": "struct ShippingParams",
					"name": "shipParams",
					"type": "tuple"
				},
				{
					"internalType": "address",
					"name": "to",
					"type": "address"
				}
			],
			"name": "MakeOrder",
			"outputs": [
				{
					"internalType": "bytes32",
					"name": "",
					"type": "bytes32"
				}
			],
			"stateMutability": "nonpayable",
			"type": "function"
		},
		{
			"inputs": [],
			"name": "MasterPool",
			"outputs": [
				{
					"internalType": "address",
					"name": "",
					"type": "address"
				}
			],
			"stateMutability": "view",
			"type": "function"
		},
		{
			"inputs": [
				{
					"internalType": "uint256",
					"name": "",
					"type": "uint256"
				}
			],
			"name": "OrderIDs",
			"outputs": [
				{
					"internalType": "bytes32",
					"name": "",
					"type": "bytes32"
				}
			],
			"stateMutability": "view",
			"type": "function"
		},
		{
			"inputs": [],
			"name": "Owner",
			"outputs": [
				{
					"internalType": "address",
					"name": "",
					"type": "address"
				}
			],
			"stateMutability": "view",
			"type": "function"
		},
		{
			"inputs": [
				{
					"internalType": "bytes32",
					"name": "_orderId",
					"type": "bytes32"
				},
				{
					"internalType": "bytes32",
					"name": "_idProduct",
					"type": "bytes32"
				}
			],
			"name": "RenewSub",
			"outputs": [
				{
					"internalType": "bool",
					"name": "",
					"type": "bool"
				}
			],
			"stateMutability": "nonpayable",
			"type": "function"
		},
		{
			"inputs": [],
			"name": "SCUsdt",
			"outputs": [
				{
					"internalType": "contract IERC20",
					"name": "",
					"type": "address"
				}
			],
			"stateMutability": "view",
			"type": "function"
		},
		{
			"inputs": [
				{
					"internalType": "address",
					"name": "_admin",
					"type": "address"
				}
			],
			"name": "SetAdmin",
			"outputs": [],
			"stateMutability": "nonpayable",
			"type": "function"
		},
		{
			"inputs": [
				{
					"internalType": "address",
					"name": "_masterPool",
					"type": "address"
				}
			],
			"name": "SetMasterPool",
			"outputs": [],
			"stateMutability": "nonpayable",
			"type": "function"
		},
		{
			"inputs": [
				{
					"internalType": "address",
					"name": "_usdt",
					"type": "address"
				}
			],
			"name": "SetUsdt",
			"outputs": [],
			"stateMutability": "nonpayable",
			"type": "function"
		},
		{
			"inputs": [],
			"name": "UserViewProduct",
			"outputs": [
				{
					"components": [
						{
							"internalType": "bytes32",
							"name": "id",
							"type": "bytes32"
						},
						{
							"components": [
								{
									"internalType": "string",
									"name": "imgUrl",
									"type": "string"
								},
								{
									"internalType": "string",
									"name": "name",
									"type": "string"
								},
								{
									"internalType": "bytes",
									"name": "desc",
									"type": "bytes"
								},
								{
									"internalType": "string",
									"name": "advantages",
									"type": "string"
								},
								{
									"internalType": "string",
									"name": "videoUrl",
									"type": "string"
								},
								{
									"internalType": "uint256",
									"name": "salePrice",
									"type": "uint256"
								},
								{
									"internalType": "uint256",
									"name": "rentalPrice",
									"type": "uint256"
								},
								{
									"internalType": "uint256",
									"name": "monthlyPrice",
									"type": "uint256"
								},
								{
									"internalType": "uint256",
									"name": "sixMonthsPrice",
									"type": "uint256"
								},
								{
									"internalType": "uint256",
									"name": "yearlyPrice",
									"type": "uint256"
								}
							],
							"internalType": "struct createProductParams",
							"name": "params",
							"type": "tuple"
						},
						{
							"internalType": "uint256",
							"name": "storageQuantity",
							"type": "uint256"
						},
						{
							"internalType": "uint256",
							"name": "saleQuantity",
							"type": "uint256"
						},
						{
							"internalType": "uint256",
							"name": "hireQuantity",
							"type": "uint256"
						},
						{
							"internalType": "uint256",
							"name": "returnHiredQuantity",
							"type": "uint256"
						},
						{
							"internalType": "uint256",
							"name": "remainTime",
							"type": "uint256"
						},
						{
							"internalType": "uint256",
							"name": "updateAt",
							"type": "uint256"
						},
						{
							"internalType": "bool",
							"name": "active",
							"type": "bool"
						}
					],
					"internalType": "struct Product[]",
					"name": "_products",
					"type": "tuple[]"
				}
			],
			"stateMutability": "view",
			"type": "function"
		},
		{
			"inputs": [
				{
					"internalType": "uint256",
					"name": "",
					"type": "uint256"
				}
			],
			"name": "Users",
			"outputs": [
				{
					"internalType": "address",
					"name": "",
					"type": "address"
				}
			],
			"stateMutability": "view",
			"type": "function"
		},
		{
			"inputs": [
				{
					"internalType": "bytes32",
					"name": "_id",
					"type": "bytes32"
				}
			],
			"name": "ViewProduct",
			"outputs": [
				{
					"components": [
						{
							"internalType": "bytes32",
							"name": "id",
							"type": "bytes32"
						},
						{
							"components": [
								{
									"internalType": "string",
									"name": "imgUrl",
									"type": "string"
								},
								{
									"internalType": "string",
									"name": "name",
									"type": "string"
								},
								{
									"internalType": "bytes",
									"name": "desc",
									"type": "bytes"
								},
								{
									"internalType": "string",
									"name": "advantages",
									"type": "string"
								},
								{
									"internalType": "string",
									"name": "videoUrl",
									"type": "string"
								},
								{
									"internalType": "uint256",
									"name": "salePrice",
									"type": "uint256"
								},
								{
									"internalType": "uint256",
									"name": "rentalPrice",
									"type": "uint256"
								},
								{
									"internalType": "uint256",
									"name": "monthlyPrice",
									"type": "uint256"
								},
								{
									"internalType": "uint256",
									"name": "sixMonthsPrice",
									"type": "uint256"
								},
								{
									"internalType": "uint256",
									"name": "yearlyPrice",
									"type": "uint256"
								}
							],
							"internalType": "struct createProductParams",
							"name": "params",
							"type": "tuple"
						},
						{
							"internalType": "uint256",
							"name": "storageQuantity",
							"type": "uint256"
						},
						{
							"internalType": "uint256",
							"name": "saleQuantity",
							"type": "uint256"
						},
						{
							"internalType": "uint256",
							"name": "hireQuantity",
							"type": "uint256"
						},
						{
							"internalType": "uint256",
							"name": "returnHiredQuantity",
							"type": "uint256"
						},
						{
							"internalType": "uint256",
							"name": "remainTime",
							"type": "uint256"
						},
						{
							"internalType": "uint256",
							"name": "updateAt",
							"type": "uint256"
						},
						{
							"internalType": "bool",
							"name": "active",
							"type": "bool"
						}
					],
					"internalType": "struct Product",
					"name": "rs",
					"type": "tuple"
				}
			],
			"stateMutability": "view",
			"type": "function"
		},
		{
			"inputs": [
				{
					"internalType": "uint256",
					"name": "_updateAt",
					"type": "uint256"
				},
				{
					"internalType": "uint256",
					"name": "_index",
					"type": "uint256"
				},
				{
					"internalType": "uint256",
					"name": "_limit",
					"type": "uint256"
				}
			],
			"name": "ViewProducts",
			"outputs": [
				{
					"components": [
						{
							"internalType": "bytes32",
							"name": "id",
							"type": "bytes32"
						},
						{
							"components": [
								{
									"internalType": "string",
									"name": "imgUrl",
									"type": "string"
								},
								{
									"internalType": "string",
									"name": "name",
									"type": "string"
								},
								{
									"internalType": "bytes",
									"name": "desc",
									"type": "bytes"
								},
								{
									"internalType": "string",
									"name": "advantages",
									"type": "string"
								},
								{
									"internalType": "string",
									"name": "videoUrl",
									"type": "string"
								},
								{
									"internalType": "uint256",
									"name": "salePrice",
									"type": "uint256"
								},
								{
									"internalType": "uint256",
									"name": "rentalPrice",
									"type": "uint256"
								},
								{
									"internalType": "uint256",
									"name": "monthlyPrice",
									"type": "uint256"
								},
								{
									"internalType": "uint256",
									"name": "sixMonthsPrice",
									"type": "uint256"
								},
								{
									"internalType": "uint256",
									"name": "yearlyPrice",
									"type": "uint256"
								}
							],
							"internalType": "struct createProductParams",
							"name": "params",
							"type": "tuple"
						},
						{
							"internalType": "uint256",
							"name": "storageQuantity",
							"type": "uint256"
						},
						{
							"internalType": "uint256",
							"name": "saleQuantity",
							"type": "uint256"
						},
						{
							"internalType": "uint256",
							"name": "hireQuantity",
							"type": "uint256"
						},
						{
							"internalType": "uint256",
							"name": "returnHiredQuantity",
							"type": "uint256"
						},
						{
							"internalType": "uint256",
							"name": "remainTime",
							"type": "uint256"
						},
						{
							"internalType": "uint256",
							"name": "updateAt",
							"type": "uint256"
						},
						{
							"internalType": "bool",
							"name": "active",
							"type": "bool"
						}
					],
					"internalType": "struct Product[]",
					"name": "rs",
					"type": "tuple[]"
				},
				{
					"internalType": "bool",
					"name": "isMore",
					"type": "bool"
				},
				{
					"internalType": "uint256",
					"name": "lastIndex",
					"type": "uint256"
				}
			],
			"stateMutability": "view",
			"type": "function"
		},
		{
			"inputs": [
				{
					"internalType": "uint256",
					"name": "beginTime",
					"type": "uint256"
				},
				{
					"internalType": "uint256",
					"name": "endTime",
					"type": "uint256"
				},
				{
					"internalType": "uint256[]",
					"name": "sortedArray",
					"type": "uint256[]"
				}
			],
			"name": "countElementsInRange",
			"outputs": [
				{
					"internalType": "uint256",
					"name": "count",
					"type": "uint256"
				}
			],
			"stateMutability": "pure",
			"type": "function"
		},
		{
			"inputs": [
				{
					"internalType": "bytes32",
					"name": "_productID",
					"type": "bytes32"
				}
			],
			"name": "getProductTrend",
			"outputs": [
				{
					"internalType": "uint256[]",
					"name": "",
					"type": "uint256[]"
				}
			],
			"stateMutability": "view",
			"type": "function"
		},
		{
			"inputs": [
				{
					"internalType": "bytes32",
					"name": "_productID",
					"type": "bytes32"
				},
				{
					"internalType": "uint256",
					"name": "_from",
					"type": "uint256"
				},
				{
					"internalType": "uint256",
					"name": "_to",
					"type": "uint256"
				}
			],
			"name": "getProductTrendByTime",
			"outputs": [
				{
					"internalType": "uint256",
					"name": "count",
					"type": "uint256"
				}
			],
			"stateMutability": "view",
			"type": "function"
		},
		{
			"inputs": [
				{
					"internalType": "bytes32",
					"name": "_productID",
					"type": "bytes32"
				}
			],
			"name": "getProductViewCount",
			"outputs": [
				{
					"internalType": "uint256",
					"name": "",
					"type": "uint256"
				}
			],
			"stateMutability": "view",
			"type": "function"
		},
		{
			"inputs": [
				{
					"internalType": "address",
					"name": "buyer",
					"type": "address"
				},
				{
					"internalType": "bytes32",
					"name": "_orderId",
					"type": "bytes32"
				},
				{
					"internalType": "bytes32",
					"name": "_idProduct",
					"type": "bytes32"
				}
			],
			"name": "getRentalInfo",
			"outputs": [
				{
					"internalType": "uint256",
					"name": "retalAmount",
					"type": "uint256"
				},
				{
					"internalType": "uint256",
					"name": "nextTime",
					"type": "uint256"
				}
			],
			"stateMutability": "view",
			"type": "function"
		},
		{
			"inputs": [
				{
					"internalType": "bytes32",
					"name": "_orderId",
					"type": "bytes32"
				}
			],
			"name": "getShipInfo",
			"outputs": [
				{
					"components": [
						{
							"internalType": "string",
							"name": "firstName",
							"type": "string"
						},
						{
							"internalType": "string",
							"name": "lastName",
							"type": "string"
						},
						{
							"internalType": "string",
							"name": "email",
							"type": "string"
						},
						{
							"internalType": "string",
							"name": "country",
							"type": "string"
						},
						{
							"internalType": "string",
							"name": "city",
							"type": "string"
						},
						{
							"internalType": "string",
							"name": "stateOrProvince",
							"type": "string"
						},
						{
							"internalType": "string",
							"name": "postalCode",
							"type": "string"
						},
						{
							"internalType": "string",
							"name": "phone",
							"type": "string"
						},
						{
							"internalType": "string",
							"name": "addressDetail",
							"type": "string"
						}
					],
					"internalType": "struct ShippingParams",
					"name": "",
					"type": "tuple"
				}
			],
			"stateMutability": "view",
			"type": "function"
		},
		{
			"inputs": [
				{
					"internalType": "bytes32",
					"name": "_orderId",
					"type": "bytes32"
				}
			],
			"name": "getmIDTOOrder",
			"outputs": [
				{
					"components": [
						{
							"internalType": "bytes32",
							"name": "id",
							"type": "bytes32"
						},
						{
							"internalType": "address",
							"name": "customer",
							"type": "address"
						},
						{
							"components": [
								{
									"internalType": "bytes32",
									"name": "id",
									"type": "bytes32"
								},
								{
									"internalType": "uint256",
									"name": "quantity",
									"type": "uint256"
								},
								{
									"internalType": "enum SUBCRIPTION_TYPE",
									"name": "typ",
									"type": "uint8"
								}
							],
							"internalType": "struct OrderInput[]",
							"name": "products",
							"type": "tuple[]"
						},
						{
							"internalType": "uint256",
							"name": "createAt",
							"type": "uint256"
						},
						{
							"components": [
								{
									"internalType": "string",
									"name": "firstName",
									"type": "string"
								},
								{
									"internalType": "string",
									"name": "lastName",
									"type": "string"
								},
								{
									"internalType": "string",
									"name": "email",
									"type": "string"
								},
								{
									"internalType": "string",
									"name": "country",
									"type": "string"
								},
								{
									"internalType": "string",
									"name": "city",
									"type": "string"
								},
								{
									"internalType": "string",
									"name": "stateOrProvince",
									"type": "string"
								},
								{
									"internalType": "string",
									"name": "postalCode",
									"type": "string"
								},
								{
									"internalType": "string",
									"name": "phone",
									"type": "string"
								},
								{
									"internalType": "string",
									"name": "addressDetail",
									"type": "string"
								}
							],
							"internalType": "struct ShippingParams",
							"name": "shipInfo",
							"type": "tuple"
						},
						{
							"internalType": "uint256",
							"name": "shippingFee",
							"type": "uint256"
						}
					],
					"internalType": "struct Order",
					"name": "",
					"type": "tuple"
				}
			],
			"stateMutability": "view",
			"type": "function"
		},
		{
			"inputs": [
				{
					"internalType": "address",
					"name": "",
					"type": "address"
				},
				{
					"internalType": "uint256",
					"name": "",
					"type": "uint256"
				}
			],
			"name": "mAddressTOOrderID",
			"outputs": [
				{
					"internalType": "bytes32",
					"name": "",
					"type": "bytes32"
				}
			],
			"stateMutability": "view",
			"type": "function"
		},
		{
			"inputs": [
				{
					"internalType": "bytes32",
					"name": "",
					"type": "bytes32"
				}
			],
			"name": "mIDToProduct",
			"outputs": [
				{
					"internalType": "bytes32",
					"name": "id",
					"type": "bytes32"
				},
				{
					"components": [
						{
							"internalType": "string",
							"name": "imgUrl",
							"type": "string"
						},
						{
							"internalType": "string",
							"name": "name",
							"type": "string"
						},
						{
							"internalType": "bytes",
							"name": "desc",
							"type": "bytes"
						},
						{
							"internalType": "string",
							"name": "advantages",
							"type": "string"
						},
						{
							"internalType": "string",
							"name": "videoUrl",
							"type": "string"
						},
						{
							"internalType": "uint256",
							"name": "salePrice",
							"type": "uint256"
						},
						{
							"internalType": "uint256",
							"name": "rentalPrice",
							"type": "uint256"
						},
						{
							"internalType": "uint256",
							"name": "monthlyPrice",
							"type": "uint256"
						},
						{
							"internalType": "uint256",
							"name": "sixMonthsPrice",
							"type": "uint256"
						},
						{
							"internalType": "uint256",
							"name": "yearlyPrice",
							"type": "uint256"
						}
					],
					"internalType": "struct createProductParams",
					"name": "params",
					"type": "tuple"
				},
				{
					"internalType": "uint256",
					"name": "storageQuantity",
					"type": "uint256"
				},
				{
					"internalType": "uint256",
					"name": "saleQuantity",
					"type": "uint256"
				},
				{
					"internalType": "uint256",
					"name": "hireQuantity",
					"type": "uint256"
				},
				{
					"internalType": "uint256",
					"name": "returnHiredQuantity",
					"type": "uint256"
				},
				{
					"internalType": "uint256",
					"name": "remainTime",
					"type": "uint256"
				},
				{
					"internalType": "uint256",
					"name": "updateAt",
					"type": "uint256"
				},
				{
					"internalType": "bool",
					"name": "active",
					"type": "bool"
				}
			],
			"stateMutability": "view",
			"type": "function"
		},
		{
			"inputs": [
				{
					"internalType": "bytes32",
					"name": "",
					"type": "bytes32"
				},
				{
					"internalType": "uint256",
					"name": "",
					"type": "uint256"
				}
			],
			"name": "mProductSearchTrend",
			"outputs": [
				{
					"internalType": "uint256",
					"name": "",
					"type": "uint256"
				}
			],
			"stateMutability": "view",
			"type": "function"
		},
		{
			"inputs": [
				{
					"internalType": "bytes32",
					"name": "",
					"type": "bytes32"
				}
			],
			"name": "mProductViewCount",
			"outputs": [
				{
					"internalType": "uint256",
					"name": "",
					"type": "uint256"
				}
			],
			"stateMutability": "view",
			"type": "function"
		},
		{
			"inputs": [
				{
					"internalType": "uint256",
					"name": "",
					"type": "uint256"
				}
			],
			"name": "mShippingInfo",
			"outputs": [
				{
					"internalType": "string",
					"name": "firstName",
					"type": "string"
				},
				{
					"internalType": "string",
					"name": "lastName",
					"type": "string"
				},
				{
					"internalType": "string",
					"name": "email",
					"type": "string"
				},
				{
					"internalType": "string",
					"name": "country",
					"type": "string"
				},
				{
					"internalType": "string",
					"name": "city",
					"type": "string"
				},
				{
					"internalType": "string",
					"name": "stateOrProvince",
					"type": "string"
				},
				{
					"internalType": "string",
					"name": "postalCode",
					"type": "string"
				},
				{
					"internalType": "string",
					"name": "phone",
					"type": "string"
				},
				{
					"internalType": "string",
					"name": "addressDetail",
					"type": "string"
				}
			],
			"stateMutability": "view",
			"type": "function"
		},
		{
			"inputs": [
				{
					"internalType": "address",
					"name": "",
					"type": "address"
				},
				{
					"internalType": "uint256",
					"name": "",
					"type": "uint256"
				}
			],
			"name": "mShippingInfoByAddress",
			"outputs": [
				{
					"internalType": "uint256",
					"name": "",
					"type": "uint256"
				}
			],
			"stateMutability": "view",
			"type": "function"
		},
		{
			"inputs": [
				{
					"internalType": "uint256",
					"name": "",
					"type": "uint256"
				}
			],
			"name": "mShippingInfoByOrder",
			"outputs": [
				{
					"internalType": "uint256",
					"name": "",
					"type": "uint256"
				}
			],
			"stateMutability": "view",
			"type": "function"
		},
		{
			"inputs": [],
			"name": "shippingCounter",
			"outputs": [
				{
					"internalType": "uint256",
					"name": "",
					"type": "uint256"
				}
			],
			"stateMutability": "view",
			"type": "function"
		},
		{
			"inputs": [
				{
					"internalType": "bytes32",
					"name": "_productID",
					"type": "bytes32"
				}
			],
			"name": "updateViewCount",
			"outputs": [],
			"stateMutability": "nonpayable",
			"type": "function"
		}
	]
}