{
	"data": {
		"bytecode": {
			"linkReferences": {},
			"object": "60808060405260018060a01b03193381600354161760035560028160045416176004556000338152600860205260408120600160ff198254161790556005549068010000000000000000821015620000b15760018201806005558210156200009d57600590527f036b6384b5eca791c62761152d0c79bb0604c104a5fb6f4eb0703f3154bb3db001805490911633179055615de49081620000c68239f35b634e487b7160e01b81526032600452602490fd5b634e487b7160e01b81526041600452602490fdfe6080604052600436101561001257600080fd5b60003560e01c806302b572d614612f7a578063041cbb1614612f0357806305d0af0b14612acc5780630b0fe44c14612a9b5780630c2ed96714612a295780630f8472ff146129ec578063103bb2b5146129af57806312ee84ef146128ac5780631c787f3e1461288e5780631e98fd1c1461283357806327b5084514611cea57806330d51a3214611cae578063350f31ea14611bc75780633f81714c14611a0757806351d04876146119db57806352023610146112c45780635a272403146111f85780635c8d05a4146111575780635d977ee1146110a9578063673047ba146110035780636f0243f314610fda57806370b9e00214610f385780637cf388ee14610e2e5780637f7c080814610de25780637f8c678f14610d9857806394284cbd14610d6f578063951a566214610cd85780639d6ffce014610b315780639f89a4b214610ad6578063a2b2fb5514610a85578063a559934e14610a39578063aaedfcd11461096f578063acfa58d21461022c578063af66932614610768578063b11e3c1a14610729578063b358fa8e146106b5578063b46b9a2d14610668578063b4a99a4e1461063f578063bfbe3ef714610613578063cb4e841b146105ea578063d888e7dc14610563578063da31f88a1461039f578063dc9a04cf14610353578063ddcd640814610307578063f09610c7146102af578063f29155ef14610286578063fb7ef3771461025d5763fdd719b11461022c57600080fd5b3461025857602036600319011261025857600435600052600f6020526020604060002054604051908152f35b600080fd5b34610258576000366003190112610258576002546040516001600160a01b039091168152602090f35b34610258576000366003190112610258576016546040516001600160a01b039091168152602090f35b34610258576040366003190112610258576102c8612fc4565b6001600160a01b03166000908152600e6020526040902080546024359190821015610258576020916102f99161305b565b90546040519160031b1c8152f35b3461025857602036600319011261025857610320612fc4565b6003546001600160a01b03919061033a90831633146138a3565b166001600160601b0360a01b6004541617600455600080f35b346102585760203660031901126102585761036c612fc4565b6003546001600160a01b03919061038690831633146138a3565b166001600160601b0360a01b6016541617601655600080f35b346102585760203660031901126102585760043560005260096020526040600020604051806103ce8184613578565b036103d990826130e1565b60405191826103eb8160018401613578565b036103f690846130e1565b604051806104078160028501613578565b0361041290826130e1565b604051806104238160038601613578565b0361042e90826130e1565b6040518061043f8160048701613578565b0361044a90826130e1565b604051908161045c8160058801613578565b0361046790836130e1565b60405192836104798160068901613578565b0361048490856130e1565b60405194856104968160078a01613578565b036104a190876130e1565b604051806008819901906104b491613578565b036104bf90886130e1565b604051988998610120808b528a016104d69161319d565b89810360208b01526104e79161319d565b88810360408a01526104f89161319d565b87810360608901526105099161319d565b868103608088015261051a9161319d565b85810360a087015261052b9161319d565b84810360c086015261053c9161319d565b83810360e085015261054d9161319d565b82810361010084015261055f9161319d565b0390f35b34610258576040366003190112610258576004356001600160401b0381116102585761059390369060040161311d565b602435906002821015610258576105d66105c29161055f9360405193849260406020850152606084019061319d565b90604083015203601f1981018352826130e1565b60405191829160208352602083019061319d565b3461025857602036600319011261025857600435600054811015610258576102f9602091612fda565b3461025857602036600319011261025857600435600052600c6020526020604060002054604051908152f35b34610258576000366003190112610258576003546040516001600160a01b039091168152602090f35b346102585760403660031901126102585760043563ffffffff8116810361025857610696906024359061452c565b9061055f6040519283921515835260406020840152604083019061384e565b346102585760603660031901126102585760406106d0612fc4565b6001600160a01b0316600081815260136020908152838220602435808452908252848320604435808552908352858420549484526012835285842091845290825284832090835281529083902054835192835290820152f35b34610258576020366003190112610258576001600160a01b0361074a612fc4565b166000526008602052602060ff604060002054166040519015158152f35b346102585761077636613164565b6000828152600a60209081526040808320600101546001600160a01b039081168085526013845282852087865284528285208686528452828520546004805460025495516323b872dd60e01b815233928101929092529484166024820152604481018290529497909695909491939192889284926064928492165af1801561096357610936575b5080600052601485526040600020826000528552604060002083600052855260ff6002604060002001541681600052601286526040600020836000528652604060002084600052865261085e604060002054610858836141cb565b906158bb565b82600052601287526040600020846000528752604060002085600052875260406000205581600052601286526040600020836000528652604060002084600052865260406000205494600482101561092057604080516001600160a01b03949094168452602084019490945292820193909352426060820152608081019390935260a083015260c0820152600060e08201527f7a349466f0b119934b2376706bf145e6fabe7eb4b8c4cba23bb8f5dc9cb74b759061010090a160405160018152f35b634e487b7160e01b600052602160045260246000fd5b61095590863d881161095c575b61094d81836130e1565b810190613f19565b50856107fd565b503d610943565b6040513d6000823e3d90fd5b34610258576060366003190112610258576004356001600160401b0381116102585761099f90369060040161311d565b6016546001600160a01b031633036109ce576109c46020916044359060243590614887565b6040519015158152f35b60405162461bcd60e51b815260206004820152603760248201527f7b2266726f6d223a2022466943616d2e736f6c222c2022636f6465223a20332c60448201527f20226d657373616765223a20224f6e6c7920504f53227d0000000000000000006064820152608490fd5b3461025857602036600319011261025857610a52612fc4565b6003546001600160a01b039190610a6c90831633146138a3565b166001600160601b0360a01b6002541617600255600080f35b34610258576020366003190112610258576004356015548110156102585760209060156000527f55f448fdea98c4d29eb340757ef0a66cd03dbb9538908a6a81d96026b71ec4750154604051908152f35b34610258576020366003190112610258576004356005548110156102585760056000527f036b6384b5eca791c62761152d0c79bb0604c104a5fb6f4eb0703f3154bb3db001546040516001600160a01b039091168152602090f35b3461025857602036600319011261025857610b4a612fc4565b336000526008602052610b69600160ff6040600020541615151461398a565b6001600160a01b0381166000908152600e6020526040902054610b8b906144dc565b9060005b6001600160a01b0382166000908152600e602052604090208054821015610cc25781610bba9161305b565b90549060031b1c600052600a602052604060002060405190610bdb8261308f565b8054825260018101546001600160a01b031660208301526002810154610c0081613327565b90610c0e60405192836130e1565b80825260208201906002840160005260206000206000925b828410610c8157505050508291600d916040610c7c9695015260038101546060840152610c556004820161424c565b6080840152015460a0820152610c6b8286613d36565b52610c768185613d36565b50613af1565b610b8f565b60036020600192604051610c94816130c6565b855481528486015483820152610cb460ff60028801541660408301613e9a565b815201920193019290610c26565b6040516020808252819061055f9082018761384e565b34610258576060366003190112610258576044356001600160401b0381116102585736602382011215610258578060040135610d1381613327565b610d2060405191826130e1565b81815260209260248483019360051b82010192368411610258576024859201905b848210610d605782610d5885602435600435614371565b604051908152f35b81358152908201908201610d41565b34610258576000366003190112610258576004546040516001600160a01b039091168152602090f35b3461025857610da636613164565b90336000526008602052610dc6600160ff6040600020541615151461398a565b600052600b602052601060406000200155602060405160018152f35b3461025857602036600319011261025857610dfb614208565b50600435600052600a60205261055f610e1a600460406000200161424c565b604051918291602083526020830190613700565b346102585760208060031936011261025857610e48614338565b50600435600052600a815260406000209060405191610e668361308f565b805483526001808201546001600160a01b0316838501526002808301805491929190610e9182613327565b93610e9f60405195866130e1565b828552600091825286822090878087015b858510610ef8578a82600d8b8b604085015260038101546060850152610ed86004820161424c565b6080850152015460a083015261055f6040519282849384528301906137c2565b8691600391604051610f09816130c6565b865481528487015483820152610f2860ff878901541660408301613e9a565b8152019301930192918890610eb0565b3461025857610f463661333e565b60405191608083019160209260608486015285518091528360a0860196019060005b818110610fbf575050509083610fab92610f8f87601f199485858303016040860152613700565b6001600160a01b039091166060830152039081018452836130e1565b61055f60405192828493845283019061319d565b90919685610fd06001928a516136d9565b9801929101610f68565b3461025857602036600319011261025857600435600154811015610258576102f9602091613024565b34610258576020806003193601126102585760043560005260108152604060002060405190818382549182815201908192600052846000209060005b86828210611095578686611055828803836130e1565b604051928392818401908285525180915260408401929160005b82811061107e57505050500390f35b83518552869550938101939281019260010161106f565b83548552909301926001928301920161103f565b34610258576020366003190112610258576110c2613c5e565b50600435600052600b60205261055f604060002060ff6011604051926110e784613073565b805484526110f76001820161360e565b6020850152600b8101546040850152600c8101546060850152600d8101546080850152600e81015460a0850152600f81015460c0850152601081015460e08501520154161515610100820152604051918291602083526020830190613261565b3461025857602036600319011261025857600435600052600b602052604060002080546111866001830161360e565b91600b81015490600c81015490600d810154600e820154600f8301549160ff6011601086015495015416946111cd604051998a998a526101208060208c01528a01906131c2565b9660408901526060880152608087015260a086015260c085015260e084015215156101008301520390f35b3461025857602036600319011261025857611211612fc4565b6003546001600160a01b03919061122b90831633146138a3565b168060005260086020526040600020600160ff19825416179055600554600160401b8110156112ae576001810180600555811015611298577f036b6384b5eca791c62761152d0c79bb0604c104a5fb6f4eb0703f3154bb3db00180546001600160a01b0319169091179055005b634e487b7160e01b600052603260045260246000fd5b634e487b7160e01b600052604160045260246000fd5b34610258576101a0366003190112610258576004356001600160401b038111610258576112f590369060040161311d565b6024356001600160401b0381116102585761131490369060040161311d565b6044356001600160401b0381116102585761133390369060040161311d565b6064356001600160401b0381116102585761135290369060040161311d565b6084356001600160401b0381116102585761137190369060040161311d565b90610184359283151584036102585733600052600860205261139f600160ff6040600020541615151461398a565b60405160208101906113f1602082816113be8c8781519384920161317a565b8a519082016113d282858301868f0161317a565b018651906113e582858301868b0161317a565b010380845201826130e1565b5190209460405196611402886130aa565b8752602087015260408601526060850152608084015260a43560a084015260c43560c084015260e43560e084015261010435610100840152610124356101208401526040519261145184613073565b82845260208401526101443560408401526000606084015260006080840152600060a08401526101643560c08401524260e084015280151561010084015281600052600b6020526040600020928051845560208101519384518051906001600160401b0382116112ae5781906114d7826114ce600187015461353e565b60018701613a0d565b602090601f83116001146119695760009261195e575b50508160011b916000199060031b1c19161760018201555b60208501518051906001600160401b0382116112ae5781906115378261152e600287015461353e565b60028701613a0d565b602090601f83116001146118ec576000926118e1575b50508160011b916000199060031b1c19161760028201555b60408501518051906001600160401b0382116112ae5781906115978261158e600387015461353e565b60038701613a0d565b602090601f831160011461186f57600092611864575b50508160011b916000199060031b1c19161760038201555b60608501518051906001600160401b0382116112ae5781906115f7826115ee600487015461353e565b60048701613a0d565b602090601f83116001146117f2576000926117e7575b50508160011b916000199060031b1c19161760048201555b60808501519485516001600160401b0381116112ae576116558161164c600586015461353e565b60058601613a0d565b6020601f821160011461176c576011928261010095936101209360019a9b600092611761575b5050600019600383901b1c191690891b1760058401555b60a0810151600684015560c0810151600784015560e081015160088401558481015160098401550151600a8201556040840151600b8201556060840151600c8201556080840151600d82015560a0840151600e82015560c0840151600f82015560e0840151601082015501910151151560ff80198354169116179055151514611753575b600054600160401b8110156112ae5761173881600161174f9301600055612fda565b819391549060031b91821b91600019901b19161790565b9055005b61175c81613aa9565b611716565b015190508b8061167b565b6005840160005260206000209760005b601f19841681106117cf57509260018381999a610120946011976101009997601f198116106117b6575b505050811b016005840155611692565b015160001960f88460031b161c191690558b80806117a6565b828201518a556001909901986020928301920161177c565b01519050878061160d565b9250600484016000526020600020906000935b601f1984168510611849576001945083601f19811610611830575b505050811b016004820155611625565b015160001960f88460031b161c19169055878080611820565b81810151835560209485019460019093019290910190611805565b0151905087806115ad565b9250600384016000526020600020906000935b601f19841685106118c6576001945083601f198116106118ad575b505050811b0160038201556115c5565b015160001960f88460031b161c1916905587808061189d565b81810151835560209485019460019093019290910190611882565b01519050878061154d565b9250600284016000526020600020906000935b601f1984168510611943576001945083601f1981161061192a575b505050811b016002820155611565565b015160001960f88460031b161c1916905587808061191a565b818101518355602094850194600190930192909101906118ff565b0151905087806114ed565b9250600184016000526020600020906000935b601f19841685106119c0576001945083601f198116106119a7575b505050811b016001820155611505565b015160001960f88460031b161c19169055878080611997565b8181015183556020948501946001909301929091019061197c565b346102585761055f6119ec36613164565b6040519160208301526040820152604081526105d6816130c6565b346102585760608060031936011261025857602435906004356000604435611a2e81613ce6565b946000936000926001918254935b848110611aae575b5050505050611a5281613ce6565b9460005b828110611a8557505050611a746040519484869586528501906132cb565b911515602084015260408301520390f35b80611a93611aa99284613d36565b51611a9e828a613d36565b52610c768189613d36565b611a56565b611ab781613024565b9054600391821b1c600052600b6020918183526010908160406000200154861115611aef575b50505050611aea90613af1565b611a3c565b909192939899868b10600014611bb057509160119160ff93611b108b613024565b9054911b1c60005281855260406000209160405195611b2e87613073565b83548752611b3d8a850161360e565b908701528201546040860152600c8201548d860152600d8201546080860152600e82015460a0860152600f82015460c086015281015460e08501520154161515610100820152611b8d878b613d36565b52611b98868a613d36565b50611aea611ba68697613af1565b95908b8080611add565b999a50505050505050915050918580808080611a44565b346102585760003660031901126102585760018054611be581613ce6565b9160005b828110611c06576040516020808252819061055f908201876132cb565b80611c13611ca992613024565b90549060031b1c600052600b60ff601160209280845260406000209060405194611c3c86613073565b82548652611c4b89840161360e565b908601528101546040850152600c8101546060850152600d8101546080850152600e81015460a0850152600f81015460c0850152601081015460e08501520154161515610100820152611c9e8287613d36565b52610c768186613d36565b611be9565b34610258576020366003190112610258576004356001600160401b03811161025857611cde90369060040161311d565b50602060405160018152f35b3461025857611cf83661333e565b8251604051606083901b6bffffffffffffffffffffffff1916602082019081526034820192909252426054820152611d3d81607481015b03601f1981018352826130e1565b519020600093845b8151861015611ec357611d588683613d36565b51958651600052600b9182602052611d766040600020541515613d4a565b60408801906004825110801561092057611d8f90613de2565b885160005283602052604060002093840190611dad82541515613e2e565b8251600481101561092057611ead57611df6611dfc9260208c0190611dd482518254613b63565b90558051611de7600c8901918254613e7a565b90556006870154905190613e87565b90613e7a565b975b600660208201519401549151600481101561092057611ea7947f0d0cb37444e42a97b69191186cac71d299bf85a8f4472c9e55cd9f7eb26c5b1e93611e758a93611e9f95519260018060a01b039485600254169560405197611e5f89613073565b1687526020870152604086015260608501613e9a565b42608084015260a08301523360c083015260e0820152600061010082015260405191829182613ea6565b0390a1613af1565b94611d45565b611ebd9150611df688888c613f31565b97611dfe565b600480546002546040516323b872dd60e01b815233938101939093526001600160a01b03908116602484015260448301939093529294926020908290606490829060009087165af190811561096357600091612814575b50156127d75760405193611f2d8561308f565b83855260208501958284168752604086019182524260608701526080860152600560a086015283600052600a6020526040600020958551875582600188019151166001600160601b0360a01b82541617905551805190600160401b82116112ae576002870154826002890155808310612768575b50602001906002870160005260206000206000925b8284106127255750505050606084015160038601556080840151805180516001600160401b0381116112ae57806004890192611ffc82611ff6865461353e565b86613a0d565b602090601f83116001146126bf576000926126b4575b50508160011b916000199060031b1c19161790555b602081015180516001600160401b0381116112ae5780600589019261205082611ff6865461353e565b602090601f831160011461264e57600092612643575b50508160011b916000199060031b1c19161790555b604081015180516001600160401b0381116112ae578060068901926120a482611ff6865461353e565b602090601f83116001146125dd576000926125d2575b50508160011b916000199060031b1c19161790555b606081015180516001600160401b0381116112ae578060078901926120f882611ff6865461353e565b602090601f831160011461256c57600092612561575b50508160011b916000199060031b1c19161790555b608081015180516001600160401b0381116112ae5780600889019261214c82611ff6865461353e565b602090601f83116001146124fb576000926124f0575b50508160011b916000199060031b1c19161790555b60a081015180516001600160401b0381116112ae578060098901926121a082611ff6865461353e565b602090601f831160011461248a5760009261247f575b50508160011b916000199060031b1c19161790555b60c081015180516001600160401b0381116112ae5780600a8901926121f482611ff6865461353e565b602090601f83116001146124195760009261240e575b50508160011b916000199060031b1c19161790555b60e081015180516001600160401b0381116112ae57600b88019161224d82612247855461353e565b85613a0d565b602090601f83116001146123a1576101009493929160009183612396575b50508160011b916000199060031b1c19161790555b01519485516001600160401b0381116112ae576020966122b0826122a7600c86015461353e565b600c8601613a0d565b8790601f831160011461231f579682600d9360a09361230b999a600092612314575b50508160011b916000199060031b1c191617600c8501555b01519101558116600052600e8452612306836040600020613acf565b613926565b610d5881613a61565b015190508b806122d2565b90600c8401600052886000209160005b601f198516811061237f57508360a09361230b999a93600193600d97601f19811610612366575b505050811b01600c8501556122ea565b015160001960f88460031b161c191690558b8080612356565b91928a60018192868501518155019401920161232f565b015190508a8061226b565b90601f198316918460005260206000209260005b8181106123f6575091600193918561010098979694106123dd575b505050811b019055612280565b015160001960f88460031b161c191690558a80806123d0565b929360206001819287860151815501950193016123b5565b01519050898061220a565b6000858152602081209350601f198516905b818110612467575090846001959493921061244e575b505050811b01905561221f565b015160001960f88460031b161c19169055898080612441565b9293602060018192878601518155019501930161242b565b0151905089806121b6565b6000858152602081209350601f198516905b8181106124d857509084600195949392106124bf575b505050811b0190556121cb565b015160001960f88460031b161c191690558980806124b2565b9293602060018192878601518155019501930161249c565b015190508980612162565b6000858152602081209350601f198516905b8181106125495750908460019594939210612530575b505050811b019055612177565b015160001960f88460031b161c19169055898080612523565b9293602060018192878601518155019501930161250d565b01519050898061210e565b6000858152602081209350601f198516905b8181106125ba57509084600195949392106125a1575b505050811b019055612123565b015160001960f88460031b161c19169055898080612594565b9293602060018192878601518155019501930161257e565b0151905089806120ba565b6000858152602081209350601f198516905b81811061262b5750908460019594939210612612575b505050811b0190556120cf565b015160001960f88460031b161c19169055898080612605565b929360206001819287860151815501950193016125ef565b015190508980612066565b6000858152602081209350601f198516905b81811061269c5750908460019594939210612683575b505050811b01905561207b565b015160001960f88460031b161c19169055898080612676565b92936020600181928786015181550195019301612660565b015190508980612012565b6000858152602081209350601f198516905b81811061270d57509084600195949392106126f4575b505050811b019055612027565b015160001960f88460031b161c191690558980806126e7565b929360206001819287860151815501950193016126d1565b6040815180518455602081015160018501550151906004821015610920576020600391600193600286019060ff8019835416911617905501920193019290611fb6565b60038181020481036127c15760038381020483036127c1576002880160005260206000208360030281015b82600302820181106127a6575050611fa1565b80600060039255600060018201556000600282015501612793565b634e487b7160e01b600052601160045260246000fd5b60405162461bcd60e51b8152602060048201526015602482015274151bdad95b881d1c985b9cd9995c8819985a5b1959605a1b6044820152606490fd5b61282d915060203d60201161095c5761094d81836130e1565b86611f1a565b34610258576020366003190112610258576004356006548110156102585760066000527ff652222313e28459528d920b65115c16c04f3efc82aaedc97be59f3f377c0d3f01546040516001600160a01b039091168152602090f35b34610258576000366003190112610258576020600754604051908152f35b34610258576000366003190112610258573360005260206008815260019060ff916128e181846040600020541615151461398a565b600054906128ee82613ce6565b9360005b83811061290c576040518581528061055f818801896132cb565b806129196129aa92612fda565b90549060031b1c600052600b80875283601160406000206040519361293d85613073565b8154855261294c89830161360e565b8b8601528101546040850152600c8101546060850152600d8101546080850152600e81015460a0850152600f81015460c0850152601081015460e0850152015416151561010082015261299f8289613d36565b52610c768188613d36565b6128f2565b34610258576020366003190112610258573360005260086020526129df600160ff6040600020541615151461398a565b60206109c4600435613b00565b3461025857602036600319011261025857336000526008602052612a1c600160ff6040600020541615151461398a565b60206109c4600435613b70565b346102585760603660031901126102585760043560005260206010815260406000206040519081838254918281520191600052836000209060005b85828210612a8757610d5886612a7c818803826130e1565b604435602435614371565b835485529093019260019283019201612a64565b3461025857612aa936613164565b90600052601060205260406000208054821015610258576020916102f99161305b565b3461025857610180366003190112610258576024356001600160401b03811161025857612afd90369060040161311d565b6044356001600160401b03811161025857612b1c90369060040161311d565b906064356001600160401b03811161025857612b3c90369060040161311d565b906084356001600160401b03811161025857612b5c90369060040161311d565b90336000526008602052612b7c600160ff6040600020541615151461398a565b600435600052600b60205260406000209060018201908051906001600160401b0382116112ae578190612bb382611ff6865461353e565b602090601f8311600114612e9757600092612e8c575b50508160011b916000199060031b1c19161790555b83516001600160401b0381116112ae57612c0881612bff600385015461353e565b60038501613a0d565b6020601f8211600114612e1d578192939495600092612e12575b50508160011b916000199060031b1c19161760038201555b6004810183516001600160401b0381116112ae57612c6281612c5c845461353e565b84613a0d565b602094601f8211600114612dac57948192939495600092612da1575b50508160011b916000199060031b1c19161790555b6005810182516001600160401b0381116112ae57612cb581612c5c845461353e565b6020601f8211600114612d3b5781929394600092612d30575b50508160011b916000199060031b1c19161790555b60a435600682015560c435600782015560e435600882015561010435600982015561012435600a82015561014435600b82015561016435600f820155601042910155602060405160018152f35b015190508480612cce565b601f198216908360005260206000209160005b818110612d8957509583600195969710612d70575b505050811b019055612ce3565b015160001960f88460031b161c19169055848080612d63565b9192602060018192868b015181550194019201612d4e565b015190508580612c7e565b601f198216958360005260206000209160005b888110612dfa57508360019596979810612de1575b505050811b019055612c93565b015160001960f88460031b161c19169055858080612dd4565b91926020600181928685015181550194019201612dbf565b015190508580612c22565b6003830160005260206000209060005b601f1984168110612e74575060019394959683601f19811610612e5b575b505050811b016003820155612c3a565b015160001960f88460031b161c19169055858080612e4b565b9091602060018192858b015181550193019101612e2d565b015190508780612bc9565b9250836000526020600020906000935b601f1984168510612ee8576001945083601f19811610612ecf575b505050811b019055612bde565b015160001960f88460031b161c19169055878080612ec2565b81810151835560209485019460019093019290910190612ea7565b346102585760203660031901126102585760043580600052600f6020526040600020612f2f8154613af1565b905560005260106020526040600020805490600160401b8210156112ae5781612f6091600161174f9401815561305b565b919091429083549060031b91821b91600019901b19161790565b3461025857604036600319011261025857612f93612fc4565b6001600160a01b03166000908152600d6020526040902080546024359190821015610258576020916102f99161305b565b600435906001600160a01b038216820361025857565b906000918254811015613010578280527f290decd9548b62a8d60345a988386fc84ba6bc95484008f6362f93160ef3e563019190565b634e487b7160e01b83526032600452602483fd5b6001548110156112985760016000527fb10e2d527612073b26eecdfd717e6a320cf44b4afac2b0732d9fcbe2b7fa0cf60190600090565b80548210156112985760005260206000200190600090565b61012081019081106001600160401b038211176112ae57604052565b60c081019081106001600160401b038211176112ae57604052565b61014081019081106001600160401b038211176112ae57604052565b606081019081106001600160401b038211176112ae57604052565b90601f801991011681019081106001600160401b038211176112ae57604052565b6001600160401b0381116112ae57601f01601f191660200190565b81601f820112156102585780359061313482613102565b9261314260405194856130e1565b8284526020838301011161025857816000926020809301838601378301015290565b6040906003190112610258576004359060243590565b60005b83811061318d5750506000910152565b818101518382015260200161317d565b906020916131b68151809281855285808601910161317a565b601f01601f1916010190565b9061322a6132186132066131f46131e2865161014080885287019061319d565b6020870151868203602088015261319d565b6040860151858203604087015261319d565b6060850151848203606086015261319d565b6080840151838203608085015261319d565b9160a081015160a083015260c081015160c083015260e081015160e083015261010080820151908301526101208091015191015290565b908151815261327f60208301516101208060208501528301906131c2565b9160408101516040830152606081015160608301526080810151608083015260a081015160a083015260c081015160c083015260e081015160e083015261010080910151151591015290565b908082519081815260208091019281808460051b8301019501936000915b8483106132f95750505050505090565b9091929394958480613317600193601f198682030187528a51613261565b98019301930191949392906132e9565b6001600160401b0381116112ae5760051b60200190565b9060606003198181850112610258576004938435946001600160401b03808711610258578260238801121561025857868201359461337b86613327565b60409861338a8a5192836130e1565b8782526020976024848a850192028301019187831161025857602401905b8282106134fd57505050976024359583871161025857610120908787030112610258578051966133d788613073565b868501358481116102585786866133f0928a010161311d565b8852602487013584811161025857868661340c928a010161311d565b90880152604486013583811161025857858561342a9289010161311d565b9087015260648501358281116102585784846134489288010161311d565b9086015260848401358181116102585783836134669287010161311d565b608086015260a48401358181116102585783836134859287010161311d565b60a086015260c48401358181116102585783836134a49287010161311d565b60c086015260e48401358181116102585783836134c39287010161311d565b60e0860152610104840135908111610258576134e093010161311d565b610100820152906044356001600160a01b03811681036102585790565b8482890312610258578b5190613512826130c6565b823582528a8301358b8301528c830135908882101561025857828c928f899501528152019101906133a8565b90600182811c9216801561356e575b602083101461355857565b634e487b7160e01b600052602260045260246000fd5b91607f169161354d565b90600092918054916135898361353e565b9182825260019384811690816000146135eb57506001146135ab575b50505050565b90919394506000526020928360002092846000945b8386106135d75750505050010190388080806135a5565b8054858701830152940193859082016135c0565b9294505050602093945060ff191683830152151560051b010190388080806135a5565b906040916101206009845192613623846130aa565b8395805161363c816136358186613578565b03826130e1565b85528051613651816136358160018701613578565b60208601528051613669816136358160028701613578565b818601528051613680816136358160038701613578565b606086015251613697816136358160048601613578565b6080850152600581015460a0850152600681015460c0850152600781015460e085015260088101546101008501520154910152565b9060048210156109205752565b906136fc60406060938051845260208101516020850152015160408301906136cc565b0190565b906137bf916137ab61379961378761377561376361375161373f61372d8851610120808c528b019061319d565b60208901518a820360208c015261319d565b604088015189820360408b015261319d565b606087015188820360608a015261319d565b6080860151878203608089015261319d565b60a085015186820360a088015261319d565b60c084015185820360c087015261319d565b60e083015184820360e086015261319d565b91610100809201519181840391015261319d565b90565b9060c0810182518252602060018060a01b0381850151168184015260408401519160c0604085015282518091528160e0850193019160005b828110613831575050505060a061382881926060860151606086015260808601518582036080870152613700565b93015191015290565b909192938261384360019287516136d9565b9501939291016137fa565b90815180825260208092019182818360051b82019501936000915b8483106138795750505050505090565b909192939495848061389383856001950387528a516137c2565b9801930193019194939290613869565b156138aa57565b60405162461bcd60e51b815260206004820152604860248201527f7b2266726f6d223a2022466943616d2e736f6c222c2022636f6465223a20312c60448201527f20226d657373616765223a2022496e76616c69642063616c6c65722d4f6e6c79606482015267204f776e6572227d60c01b608482015260a490fd5b600654600160401b8110156112ae5760018101806006558110156112985760066000527ff652222313e28459528d920b65115c16c04f3efc82aaedc97be59f3f377c0d3f0180546001600160a01b0319166001600160a01b03909216919091179055565b1561399157565b60405162461bcd60e51b815260206004820152604860248201527f7b2266726f6d223a2022466943616d2e736f6c222c2022636f6465223a20322c60448201527f20226d657373616765223a2022496e76616c69642063616c6c65722d4f6e6c796064820152672041646d696e227d60c01b608482015260a490fd5b90601f8111613a1b57505050565b600091825260208220906020601f850160051c83019410613a57575b601f0160051c01915b828110613a4c57505050565b818155600101613a40565b9092508290613a37565b601554600160401b8110156112ae5760018101806015558110156112985760156000527f55f448fdea98c4d29eb340757ef0a66cd03dbb9538908a6a81d96026b71ec4750155565b600154600160401b8110156112ae57611738816001613acb9301600155613024565b9055565b805490600160401b8210156112ae5781611738916001613acb9401815561305b565b60001981146127c15760010190565b80600052600b60205260116040600020016001908160ff198254161790556000918154925b838110613b3857506137bf919250613aa9565b81613b4282613024565b90549060031b1c14613b5c57613b5790613af1565b613b25565b5050905090565b919082039182116127c157565b6000818152600b60205260119182604083200160ff198154169055815b6001805480831015613c53578390613ba484613024565b929054600393841b1c14613bc357505050613bbe90613af1565b613b8d565b9094929195935060001993848201918211613c415750808210613c1d575b50508354908115613c095750810191613bf983613024565b81939154921b1b19169055815590565b634e487b7160e01b81526031600452602490fd5b611738613c2c613c3892613024565b905490871b1c92613024565b90553880613be1565b634e487b7160e01b8452600452602483fd5b505050505050600190565b60405190613c6b82613073565b600080835260405183613c7d826130aa565b82606080845280602085015280604085015280808501528060808501528160a08501528160c08501528160e08501526101009382858201528261012082015260208401528160408401528201528260808201528260a08201528260c08201528260e08201520152565b90613cf082613327565b613cfd60405191826130e1565b8281528092613d0e601f1991613327565b019060005b828110613d1f57505050565b602090613d2a613c5e565b82828501015201613d13565b80518210156112985760209160051b010190565b15613d5157565b60405162461bcd60e51b815260206004820152605b60248201527f7b2266726f6d223a2022466943616d2e736f6c222c2022636f6465223a20342c60448201527f20226d657373616765223a2022496e76616c69642070726f647563742049442060648201527f6f722070726f6475637420646f6573206e6f74206578697374227d0000000000608482015260a490fd5b15613de957565b60405162461bcd60e51b815260206004820152601960248201527f496e76616c696420737562736372697074696f6e2074797065000000000000006044820152606490fd5b15613e3557565b60405162461bcd60e51b815260206004820152601d60248201527f70726f647563742073746f72616765206973206e6f7420656e6f7567680000006044820152606490fd5b919082018092116127c157565b818102929181159184041417156127c157565b60048210156109205752565b91909161012081019260018060a01b038082511683526020820151602084015260408201516040840152613ee2606083015160608501906136cc565b6080820151608084015260a082015160a08401528060c08301511660c084015260e08201511660e083015261010080910151910152565b90816020910312610258575180151581036102585790565b92909160009260009480518652602095600b87526040918282209482938083019283519a60049b8c811015614170576001146141a7575b84518c81101561417057600214614183575b84518c81101561417057600314614137575b808201988951613fa1600b8301918254613b63565b9055613fb4600d8b519201918254613e7a565b90556001600160a01b03841680875260118252838720898852825283872083518852825283872042905585519099908d8110156141235790614000613ffa6002936141cb565b426158bb565b8b8952601284528589208b8a52845285892085518a528452858920558a8852601383528488208a8952835284882084518952835288858920558a8852601483528488208a8952835284882084518952835284882090845182555160018201550185518d8110156141235760ff8019835416911617905581519886526012815282862088875281528286209151865252808420549251938a8510156141105750516001600160a01b0391909116815260208101949094526040840194909452426060840152608083019390935260a082019290925260c0810191909152600060e0820152919250907f7a349466f0b119934b2376706bf145e6fabe7eb4b8c4cba23bb8f5dc9cb74b759061010090a1565b634e487b7160e01b815260218b52602490fd5b50634e487b7160e01b875260218d52602487fd5b9950614165955061416a600a8901546141558c840191825190613e87565b97889160078c0154905190613e87565b613e7a565b99613f8c565b634e487b7160e01b875260218d52602487fd5b995061416595506141a160098901546141558c840191825190613e87565b99613f7a565b995061416595506141c560088901546141558c840191825190613e87565b99613f68565b90600091600481101561092057806001146141ff575b600314806141f6575b6141f057565b600c9150565b600692506141ea565b600192506141e1565b6040519061421582613073565b8161010060609182815282602082015282604082015282808201528260808201528260a08201528260c08201528260e08201520152565b90600861010060409361433485519161426483613073565b61432d83978051614279816136358187613578565b8552805161428e816136358160018801613578565b602086015280516142a6816136358160028801613578565b8186015280516142bd816136358160038801613578565b606086015280516142d5816136358160048801613578565b608086015280516142ed816136358160058801613578565b60a08601528051614305816136358160068801613578565b60c0860152805161431d816136358160078801613578565b60e0860152518096819301613578565b03846130e1565b0152565b604051906143458261308f565b600060a08382815282602082015260606040820152826060820152614368614208565b60808201520152565b600093928492908183116144a257805184935b81851061445b575050839181515b80841061440257505050806143e15750815b808211156143b157505050565b6143bd92939450613b63565b90600182018092116143cd575090565b634e487b7160e01b81526011600452602490fd5b6000198101908111156143a457634e487b7160e01b83526011600452602483fd5b61440c8482613b63565b9061441b600192831c86613e7a565b91836144278487613d36565b511115614435575050614392565b90945081018091116144475792614392565b634e487b7160e01b86526011600452602486fd5b90936144678186613b63565b614475600191821c83613e7a565b91836144818487613d36565b51101561449a5750810180911161444757935b90614384565b955050614494565b60405162461bcd60e51b8152602060048201526012602482015271496e76616c69642074696d652072616e676560701b6044820152606490fd5b906144e682613327565b6144f360405191826130e1565b8281528092614504601f1991613327565b019060005b82811061451557505050565b602090614520614338565b82828501015201614509565b91909160609283600092338452602091600e83526040918286205461455081613327565b9061455d855192836130e1565b80825261456c601f1991613327565b01908536910137338652600e8452828620908351809283918782549182815201918a52878a20908a5b89828210614839575050505063ffffffff92916145b39103846130e1565b16946145bf8187613e87565b6145ca828451613e7a565b10156145da575050505050509190565b90919395929497506145ec8189613e87565b8251111561472d576145fd816144dc565b97835b895181101561471f57614629614623826141658661461e8188613e87565b613b63565b85613d36565b518552600a885286852087519061463f8261308f565b805482526001808201546001600160a01b03168b8401526002820180548c92918c61466983613327565b94614676825196876130e1565b838652808601928d52808d20928d925b8584106146dd579350505050856146d89796959350600d949250015260038101548a8401526146b76004820161424c565b6080840152015460a08201526146cd828d613d36565b52610c76818c613d36565b614600565b916003918361470e899551916146f2836130c6565b88548352868901548584015260ff60028a015416908301613e9a565b8152019301910190918f908f614686565b505050505050505060019190565b61475361474e614748614740848c613e87565b855190613b63565b83613b63565b6144dc565b97835b895181101561482d57614774614623826141658661461e8188613e87565b518552600a885286852087519061478a8261308f565b805482526001808201546001600160a01b03168b8401526002820180548c92918c6147b483613327565b946147c1825196876130e1565b838652808601928d52808d20928d925b858410614807579350505050856148029796959350600d949250015260038101548a8401526146b76004820161424c565b614756565b916003918361481c899551916146f2836130c6565b8152019301910190918f908f6147d1565b50505050925050509190565b835485528795509093019260019283019201614595565b9092919261485d81613102565b9161486b60405193846130e1565b82948284528282011161025857602061488593019061317a565b565b80518101604082602083019203126102585760208201516001600160401b03811161025857820181603f8201121561025857604091818360206148cd9401519101614850565b9101516002811015610258578015614a5c576001146148ee57505050600090565b6040818051810103126102585760406020820151910151926000828152600a60205260018060a01b03600160408320015416948582526013602052604082208483526020526040822081835260205261494e604083205480941015615836565b8582526014602052604082208483526020526040822081835260205260ff60026040842001541693868352601260205260408320818452602052604083208284526020526149a36040842054610858876141cb565b878452601260205260408420828552602052604084208385526020526040842055868352601260205260408320818452602052604083208284526020526040832054926004861015614a485750604080519788526020880191909152860152426060860152608085015260a084015260c083015260e08201527f7a349466f0b119934b2376706bf145e6fabe7eb4b8c4cba23bb8f5dc9cb74b759061010090a1600190565b634e487b7160e01b81526021600452602490fd5b50809391935181016060828203126102585760208201516001600160401b03811161025857820190602081019283603f84011215610258576020830151614aa281613327565b93614ab060405195866130e1565b818552604060606020870193028201019086821161025857604001915b8183106157cf5750505060408101516001600160401b03811161025857810193849261012095869103126102585760405194614b0886613073565b60208401516001600160401b03811161025857826020614b2a9287010161581c565b865260408401516001600160401b03811161025857826020614b4e9287010161581c565b602087015260608401516001600160401b03811161025857826020614b759287010161581c565b604087015260808401516001600160401b03811161025857826020614b9c9287010161581c565b606087015260a08401516001600160401b03811161025857826020614bc39287010161581c565b608087015260c08401516001600160401b03811161025857826020614bea9287010161581c565b60a087015260e08401516001600160401b03811161025857826020614c119287010161581c565b60c08701526101008401516001600160401b03811161025857826020614c399287010161581c565b60e0870152830151906001600160401b038211610258576020614c6092606095010161581c565b6101008501520151906001600160a01b0382168203610258578051604051606084901b6bffffffffffffffffffffffff1916602082019081526034820192909252426054820152614cb48160748101611d2f565b51902093600093845b8351861015614e4357614cd08685613d36565b51958651600052600b602052614cec6040600020541515613d4a565b6004604088015110801561092057614d0390613de2565b8651600052600b602052604060002091614d22600b8401541515613e2e565b6040880151600481101561092057614e2557614d7390611df660208a01614d4e8151600b880154613b63565b600b8701558051614d64600c8801918254613e7a565b90556006860154905190613e87565b965b60066020820151930154906040810151600481101561092057614e1f947f0d0cb37444e42a97b69191186cac71d299bf85a8f4472c9e55cd9f7eb26c5b1e93614df68b93611e9f95519260018060a01b03600254169460405196614dd888613073565b6001600160a01b031687526020870152604086015260608501613e9a565b42608084015260a08301523360c083015260e08201528c61010082015260405191829182613ea6565b94614cbd565b614e3d90611df66001600160a01b0389168b8b613f31565b96614d75565b919690939450614e569297501015615836565b60405194614e638661308f565b83865260018060a01b038316602087015260408601524260608601526080850152600560a085015281600052600a6020526040600020845181556001810160018060a01b036020870151166001600160601b0360a01b8254161790556040850151805190600160401b82116112ae576002830154826002850155808310615776575b50602001906002830160005260206000206000925b82841061571d57505050506060850151600382015560808501519485518051906001600160401b0382116112ae578190614f4482614f3b600488015461353e565b60048801613a0d565b602090601f83116001146156ab576000926156a0575b50508160011b916000199060031b1c19161760048301555b60208601518051906001600160401b0382116112ae578190614fa482614f9b600588015461353e565b60058801613a0d565b602090601f831160011461562e57600092615623575b50508160011b916000199060031b1c19161760058301555b60408601518051906001600160401b0382116112ae57819061500482614ffb600688015461353e565b60068801613a0d565b602090601f83116001146155b1576000926155a6575b50508160011b916000199060031b1c19161760068301555b60608601518051906001600160401b0382116112ae5781906150648261505b600788015461353e565b60078801613a0d565b602090601f831160011461553457600092615529575b50508160011b916000199060031b1c19161760078301555b60808601518051906001600160401b0382116112ae5781906150c4826150bb600888015461353e565b60088801613a0d565b602090601f83116001146154b7576000926154ac575b50508160011b916000199060031b1c19161760088301555b60a08601518051906001600160401b0382116112ae5781906151248261511b600988015461353e565b60098801613a0d565b602090601f831160011461543a5760009261542f575b50508160011b916000199060031b1c19161760098301555b60c08601518051906001600160401b0382116112ae5781906151848261517b600a88015461353e565b600a8801613a0d565b602090601f83116001146153bd576000926153b2575b50508160011b916000199060031b1c191617600a8301555b60e08601518051906001600160401b0382116112ae5781906151e4826151db600b88015461353e565b600b8801613a0d565b602090601f831160011461534057600092615335575b50508160011b916000199060031b1c191617600b8301555b610100600c83019601519586516001600160401b0381116112ae5761523b81612c5c845461353e565b6020601f82116001146152bf5792600d928260a0936152aa9897966152af9b9c6000926152b4575b50508160011b916000199060031b1c19161790555b015191015560018060a01b038116600052600e60205261529c836040600020613acf565b6001600160a01b0316613926565b613a61565b600190565b015190503880615263565b601f198216988360005260206000209960005b81811061531d5750836152af9a9b6152aa99989794600d979460a09760019510615304575b505050811b019055615278565b015160001960f88460031b161c191690553880806152f7565b838301518c556001909b019a602093840193016152d2565b0151905038806151fa565b9250600b85016000526020600020906000935b601f1984168510615397576001945083601f1981161061537e575b505050811b01600b830155615212565b015160001960f88460031b161c1916905538808061536e565b81810151835560209485019460019093019290910190615353565b01519050388061519a565b9250600a85016000526020600020906000935b601f1984168510615414576001945083601f198116106153fb575b505050811b01600a8301556151b2565b015160001960f88460031b161c191690553880806153eb565b818101518355602094850194600190930192909101906153d0565b01519050388061513a565b9250600985016000526020600020906000935b601f1984168510615491576001945083601f19811610615478575b505050811b016009830155615152565b015160001960f88460031b161c19169055388080615468565b8181015183556020948501946001909301929091019061544d565b0151905038806150da565b9250600885016000526020600020906000935b601f198416851061550e576001945083601f198116106154f5575b505050811b0160088301556150f2565b015160001960f88460031b161c191690553880806154e5565b818101518355602094850194600190930192909101906154ca565b01519050388061507a565b9250600785016000526020600020906000935b601f198416851061558b576001945083601f19811610615572575b505050811b016007830155615092565b015160001960f88460031b161c19169055388080615562565b81810151835560209485019460019093019290910190615547565b01519050388061501a565b9250600685016000526020600020906000935b601f1984168510615608576001945083601f198116106155ef575b505050811b016006830155615032565b015160001960f88460031b161c191690553880806155df565b818101518355602094850194600190930192909101906155c4565b015190503880614fba565b9250600585016000526020600020906000935b601f1984168510615685576001945083601f1981161061566c575b505050811b016005830155614fd2565b015160001960f88460031b161c1916905538808061565c565b81810151835560209485019460019093019290910190615641565b015190503880614f5a565b9250600485016000526020600020906000935b601f1984168510615702576001945083601f198116106156e9575b505050811b016004830155614f72565b015160001960f88460031b161c191690553880806156d9565b818101518355602094850194600190930192909101906156be565b604081518051845560208101516001850155015160048082101561576157506020600192600392600286019060ff8019835416911617905501920193019290614efa565b602190634e487b7160e01b6000525260246000fd5b60038181020481036127c15760038381020483036127c1576002840160005260206000208360030281015b82600302820181106157b4575050614ee5565b806000600392556000600182015560006002820155016157a1565b60606020848703011261025857604051906157e9826130c6565b83518252602084015160208301526040840151906004821015610258578260209260406060950152815201920191614acd565b9080601f830112156102585781516137bf92602001614850565b1561583d57565b60405162461bcd60e51b815260206004820152604a60248201527f7b2266726f6d223a2022466943616d2e736f6c222c2022636f6465223a20382c60448201527f20226d657373616765223a2022496e73756666696369656e74207061796d656e6064820152697420616d6f756e74227d60b01b608482015260a490fd5b919060009062010bd962015180808604828101939192858212801591861291821691151617615d41576226496501928462253d8c85129112908015821691151617615d2d578260021b906004918281058503615be75762023ab1809105948582029182058603615d1a5760039182810190888483129112908015821691151617615d0757908461594c920590615d67565b94600195868101878112898312908015821691151617615bfa57610fa09080820291820503615bfa5762164b096159909105918661598984615d9c565b0590615d67565b90601f82019189601f84129112908015821691151617615bfa578160500291605083058103615cf45761098f809305928381029081058403615c46579060506159da920590615d67565b90600b83059060028401938b600286129112908015821691151617615c4657600c93828502908582058403615c205790615a1391615d67565b9460301981019081138b16615c0d5780606402906064820503615c0d5791615a41615a4692615a4e94615d80565b615d80565b958294613e7a565b6000199586820194918511615c4657615a6b849182870490613e7a565b940689810192838211615c0d578a84148015615ceb575b8015615ce1575b8015615cd7575b8015615ccd575b8015615cc3575b8015615cba575b15615c6557601f80915b11615c5d575b506107b28510615c5957617d4a1982019182138a16615c46578a8512968715926112c087810190811285811690158b1617615c3357908a615b00615b07615b0c948a615b008b615d55565b0590615d80565b615d9c565b91018381138b16615c0d5784615b2185615d55565b059085820291808305871490151715615c205790615b3e91615d67565b61016f9080820291820503615c0d579084615b5a920590615d80565b9561132480950194851290811516911617615bfa5791615b7f91615b00606494615d55565b0580820291820503615be7579082615b98920590615d67565b62253d8b1981019390841316615bd45781830292808404831490151715615bd4575090615bc791850690613e7a565b928310615bd15750565b80fd5b634e487b7160e01b845260119052602483fd5b634e487b7160e01b865260118352602486fd5b634e487b7160e01b895260118652602489fd5b634e487b7160e01b8c526011895260248cfd5b634e487b7160e01b8d5260118a5260248dfd5b634e487b7160e01b8e5260118b5260248efd5b634e487b7160e01b8b526011885260248bfd5b8a80fd5b915038615ab5565b60028414615c7657601e8091615aaf565b8686161580615cae575b8015615ca2575b15615c995760ff601d5b168091615aaf565b60ff601c615c91565b50610190860615615c87565b50606486061515615c80565b50848414615aa5565b50600a8414615a9e565b5060088414615a97565b5060078414615a90565b5060058414615a89565b50868414615a82565b634e487b7160e01b8a526011875260248afd5b634e487b7160e01b885260118552602488fd5b634e487b7160e01b875260118452602487fd5b634e487b7160e01b84526011600452602484fd5b634e487b7160e01b85526011600452602485fd5b90600d1982019182136001166127c157565b818103929160001380158285131691841216176127c157565b919091600083820193841291129080158216911516176127c157565b906105b591808302928305036127c15756fea2646970667358221220e92c1fd6cdcde8afd3059ceefa04b267d2dffe267ddc55e789b2ef8f68b564ec64736f6c63430008130033",
			"opcodes": "PUSH1 0x80 DUP1 PUSH1 0x40 MSTORE PUSH1 0x1 DUP1 PUSH1 0xA0 SHL SUB NOT CALLER DUP2 PUSH1 0x3 SLOAD AND OR PUSH1 0x3 SSTORE PUSH1 0x2 DUP2 PUSH1 0x4 SLOAD AND OR PUSH1 0x4 SSTORE PUSH1 0x0 CALLER DUP2 MSTORE PUSH1 0x8 PUSH1 0x20 MSTORE PUSH1 0x40 DUP2 KECCAK256 PUSH1 0x1 PUSH1 0xFF NOT DUP3 SLOAD AND OR SWAP1 SSTORE PUSH1 0x5 SLOAD SWAP1 PUSH9 0x10000000000000000 DUP3 LT ISZERO PUSH3 0xB1 JUMPI PUSH1 0x1 DUP3 ADD DUP1 PUSH1 0x5 SSTORE DUP3 LT ISZERO PUSH3 0x9D JUMPI PUSH1 0x5 SWAP1 MSTORE PUSH32 0x36B6384B5ECA791C62761152D0C79BB0604C104A5FB6F4EB0703F3154BB3DB0 ADD DUP1 SLOAD SWAP1 SWAP2 AND CALLER OR SWAP1 SSTORE PUSH2 0x5DE4 SWAP1 DUP2 PUSH3 0xC6 DUP3 CODECOPY RETURN JUMPDEST PUSH4 0x4E487B71 PUSH1 0xE0 SHL DUP2 MSTORE PUSH1 0x32 PUSH1 0x4 MSTORE PUSH1 0x24 SWAP1 REVERT JUMPDEST PUSH4 0x4E487B71 PUSH1 0xE0 SHL DUP2 MSTORE PUSH1 0x41 PUSH1 0x4 MSTORE PUSH1 0x24 SWAP1 REVERT INVALID PUSH1 0x80 PUSH1 0x40 MSTORE PUSH1 0x4 CALLDATASIZE LT ISZERO PUSH2 0x12 JUMPI PUSH1 0x0 DUP1 REVERT JUMPDEST PUSH1 0x0 CALLDATALOAD PUSH1 0xE0 SHR DUP1 PUSH4 0x2B572D6 EQ PUSH2 0x2F7A JUMPI DUP1 PUSH4 0x41CBB16 EQ PUSH2 0x2F03 JUMPI DUP1 PUSH4 0x5D0AF0B EQ PUSH2 0x2ACC JUMPI DUP1 PUSH4 0xB0FE44C EQ PUSH2 0x2A9B JUMPI DUP1 PUSH4 0xC2ED967 EQ PUSH2 0x2A29 JUMPI DUP1 PUSH4 0xF8472FF EQ PUSH2 0x29EC JUMPI DUP1 PUSH4 0x103BB2B5 EQ PUSH2 0x29AF JUMPI DUP1 PUSH4 0x12EE84EF EQ PUSH2 0x28AC JUMPI DUP1 PUSH4 0x1C787F3E EQ PUSH2 0x288E JUMPI DUP1 PUSH4 0x1E98FD1C EQ PUSH2 0x2833 JUMPI DUP1 PUSH4 0x27B50845 EQ PUSH2 0x1CEA JUMPI DUP1 PUSH4 0x30D51A32 EQ PUSH2 0x1CAE JUMPI DUP1 PUSH4 0x350F31EA EQ PUSH2 0x1BC7 JUMPI DUP1 PUSH4 0x3F81714C EQ PUSH2 0x1A07 JUMPI DUP1 PUSH4 0x51D04876 EQ PUSH2 0x19DB JUMPI DUP1 PUSH4 0x52023610 EQ PUSH2 0x12C4 JUMPI DUP1 PUSH4 0x5A272403 EQ PUSH2 0x11F8 JUMPI DUP1 PUSH4 0x5C8D05A4 EQ PUSH2 0x1157 JUMPI DUP1 PUSH4 0x5D977EE1 EQ PUSH2 0x10A9 JUMPI DUP1 PUSH4 0x673047BA EQ PUSH2 0x1003 JUMPI DUP1 PUSH4 0x6F0243F3 EQ PUSH2 0xFDA JUMPI DUP1 PUSH4 0x70B9E002 EQ PUSH2 0xF38 JUMPI DUP1 PUSH4 0x7CF388EE EQ PUSH2 0xE2E JUMPI DUP1 PUSH4 0x7F7C0808 EQ PUSH2 0xDE2 JUMPI DUP1 PUSH4 0x7F8C678F EQ PUSH2 0xD98 JUMPI DUP1 PUSH4 0x94284CBD EQ PUSH2 0xD6F JUMPI DUP1 PUSH4 0x951A5662 EQ PUSH2 0xCD8 JUMPI DUP1 PUSH4 0x9D6FFCE0 EQ PUSH2 0xB31 JUMPI DUP1 PUSH4 0x9F89A4B2 EQ PUSH2 0xAD6 JUMPI DUP1 PUSH4 0xA2B2FB55 EQ PUSH2 0xA85 JUMPI DUP1 PUSH4 0xA559934E EQ PUSH2 0xA39 JUMPI DUP1 PUSH4 0xAAEDFCD1 EQ PUSH2 0x96F JUMPI DUP1 PUSH4 0xACFA58D2 EQ PUSH2 0x22C JUMPI DUP1 PUSH4 0xAF669326 EQ PUSH2 0x768 JUMPI DUP1 PUSH4 0xB11E3C1A EQ PUSH2 0x729 JUMPI DUP1 PUSH4 0xB358FA8E EQ PUSH2 0x6B5 JUMPI DUP1 PUSH4 0xB46B9A2D EQ PUSH2 0x668 JUMPI DUP1 PUSH4 0xB4A99A4E EQ PUSH2 0x63F JUMPI DUP1 PUSH4 0xBFBE3EF7 EQ PUSH2 0x613 JUMPI DUP1 PUSH4 0xCB4E841B EQ PUSH2 0x5EA JUMPI DUP1 PUSH4 0xD888E7DC EQ PUSH2 0x563 JUMPI DUP1 PUSH4 0xDA31F88A EQ PUSH2 0x39F JUMPI DUP1 PUSH4 0xDC9A04CF EQ PUSH2 0x353 JUMPI DUP1 PUSH4 0xDDCD6408 EQ PUSH2 0x307 JUMPI DUP1 PUSH4 0xF09610C7 EQ PUSH2 0x2AF JUMPI DUP1 PUSH4 0xF29155EF EQ PUSH2 0x286 JUMPI DUP1 PUSH4 0xFB7EF377 EQ PUSH2 0x25D JUMPI PUSH4 0xFDD719B1 EQ PUSH2 0x22C JUMPI PUSH1 0x0 DUP1 REVERT JUMPDEST CALLVALUE PUSH2 0x258 JUMPI PUSH1 0x20 CALLDATASIZE PUSH1 0x3 NOT ADD SLT PUSH2 0x258 JUMPI PUSH1 0x4 CALLDATALOAD PUSH1 0x0 MSTORE PUSH1 0xF PUSH1 0x20 MSTORE PUSH1 0x20 PUSH1 0x40 PUSH1 0x0 KECCAK256 SLOAD PUSH1 0x40 MLOAD SWAP1 DUP2 MSTORE RETURN JUMPDEST PUSH1 0x0 DUP1 REVERT JUMPDEST CALLVALUE PUSH2 0x258 JUMPI PUSH1 0x0 CALLDATASIZE PUSH1 0x3 NOT ADD SLT PUSH2 0x258 JUMPI PUSH1 0x2 SLOAD PUSH1 0x40 MLOAD PUSH1 0x1 PUSH1 0x1 PUSH1 0xA0 SHL SUB SWAP1 SWAP2 AND DUP2 MSTORE PUSH1 0x20 SWAP1 RETURN JUMPDEST CALLVALUE PUSH2 0x258 JUMPI PUSH1 0x0 CALLDATASIZE PUSH1 0x3 NOT ADD SLT PUSH2 0x258 JUMPI PUSH1 0x16 SLOAD PUSH1 0x40 MLOAD PUSH1 0x1 PUSH1 0x1 PUSH1 0xA0 SHL SUB SWAP1 SWAP2 AND DUP2 MSTORE PUSH1 0x20 SWAP1 RETURN JUMPDEST CALLVALUE PUSH2 0x258 JUMPI PUSH1 0x40 CALLDATASIZE PUSH1 0x3 NOT ADD SLT PUSH2 0x258 JUMPI PUSH2 0x2C8 PUSH2 0x2FC4 JUMP JUMPDEST PUSH1 0x1 PUSH1 0x1 PUSH1 0xA0 SHL SUB AND PUSH1 0x0 SWAP1 DUP2 MSTORE PUSH1 0xE PUSH1 0x20 MSTORE PUSH1 0x40 SWAP1 KECCAK256 DUP1 SLOAD PUSH1 0x24 CALLDATALOAD SWAP2 SWAP1 DUP3 LT ISZERO PUSH2 0x258 JUMPI PUSH1 0x20 SWAP2 PUSH2 0x2F9 SWAP2 PUSH2 0x305B JUMP JUMPDEST SWAP1 SLOAD PUSH1 0x40 MLOAD SWAP2 PUSH1 0x3 SHL SHR DUP2 MSTORE RETURN JUMPDEST CALLVALUE PUSH2 0x258 JUMPI PUSH1 0x20 CALLDATASIZE PUSH1 0x3 NOT ADD SLT PUSH2 0x258 JUMPI PUSH2 0x320 PUSH2 0x2FC4 JUMP JUMPDEST PUSH1 0x3 SLOAD PUSH1 0x1 PUSH1 0x1 PUSH1 0xA0 SHL SUB SWAP2 SWAP1 PUSH2 0x33A SWAP1 DUP4 AND CALLER EQ PUSH2 0x38A3 JUMP JUMPDEST AND PUSH1 0x1 PUSH1 0x1 PUSH1 0x60 SHL SUB PUSH1 0xA0 SHL PUSH1 0x4 SLOAD AND OR PUSH1 0x4 SSTORE PUSH1 0x0 DUP1 RETURN JUMPDEST CALLVALUE PUSH2 0x258 JUMPI PUSH1 0x20 CALLDATASIZE PUSH1 0x3 NOT ADD SLT PUSH2 0x258 JUMPI PUSH2 0x36C PUSH2 0x2FC4 JUMP JUMPDEST PUSH1 0x3 SLOAD PUSH1 0x1 PUSH1 0x1 PUSH1 0xA0 SHL SUB SWAP2 SWAP1 PUSH2 0x386 SWAP1 DUP4 AND CALLER EQ PUSH2 0x38A3 JUMP JUMPDEST AND PUSH1 0x1 PUSH1 0x1 PUSH1 0x60 SHL SUB PUSH1 0xA0 SHL PUSH1 0x16 SLOAD AND OR PUSH1 0x16 SSTORE PUSH1 0x0 DUP1 RETURN JUMPDEST CALLVALUE PUSH2 0x258 JUMPI PUSH1 0x20 CALLDATASIZE PUSH1 0x3 NOT ADD SLT PUSH2 0x258 JUMPI PUSH1 0x4 CALLDATALOAD PUSH1 0x0 MSTORE PUSH1 0x9 PUSH1 0x20 MSTORE PUSH1 0x40 PUSH1 0x0 KECCAK256 PUSH1 0x40 MLOAD DUP1 PUSH2 0x3CE DUP2 DUP5 PUSH2 0x3578 JUMP JUMPDEST SUB PUSH2 0x3D9 SWAP1 DUP3 PUSH2 0x30E1 JUMP JUMPDEST PUSH1 0x40 MLOAD SWAP2 DUP3 PUSH2 0x3EB DUP2 PUSH1 0x1 DUP5 ADD PUSH2 0x3578 JUMP JUMPDEST SUB PUSH2 0x3F6 SWAP1 DUP5 PUSH2 0x30E1 JUMP JUMPDEST PUSH1 0x40 MLOAD DUP1 PUSH2 0x407 DUP2 PUSH1 0x2 DUP6 ADD PUSH2 0x3578 JUMP JUMPDEST SUB PUSH2 0x412 SWAP1 DUP3 PUSH2 0x30E1 JUMP JUMPDEST PUSH1 0x40 MLOAD DUP1 PUSH2 0x423 DUP2 PUSH1 0x3 DUP7 ADD PUSH2 0x3578 JUMP JUMPDEST SUB PUSH2 0x42E SWAP1 DUP3 PUSH2 0x30E1 JUMP JUMPDEST PUSH1 0x40 MLOAD DUP1 PUSH2 0x43F DUP2 PUSH1 0x4 DUP8 ADD PUSH2 0x3578 JUMP JUMPDEST SUB PUSH2 0x44A SWAP1 DUP3 PUSH2 0x30E1 JUMP JUMPDEST PUSH1 0x40 MLOAD SWAP1 DUP2 PUSH2 0x45C DUP2 PUSH1 0x5 DUP9 ADD PUSH2 0x3578 JUMP JUMPDEST SUB PUSH2 0x467 SWAP1 DUP4 PUSH2 0x30E1 JUMP JUMPDEST PUSH1 0x40 MLOAD SWAP3 DUP4 PUSH2 0x479 DUP2 PUSH1 0x6 DUP10 ADD PUSH2 0x3578 JUMP JUMPDEST SUB PUSH2 0x484 SWAP1 DUP6 PUSH2 0x30E1 JUMP JUMPDEST PUSH1 0x40 MLOAD SWAP5 DUP6 PUSH2 0x496 DUP2 PUSH1 0x7 DUP11 ADD PUSH2 0x3578 JUMP JUMPDEST SUB PUSH2 0x4A1 SWAP1 DUP8 PUSH2 0x30E1 JUMP JUMPDEST PUSH1 0x40 MLOAD DUP1 PUSH1 0x8 DUP2 SWAP10 ADD SWAP1 PUSH2 0x4B4 SWAP2 PUSH2 0x3578 JUMP JUMPDEST SUB PUSH2 0x4BF SWAP1 DUP9 PUSH2 0x30E1 JUMP JUMPDEST PUSH1 0x40 MLOAD SWAP9 DUP10 SWAP9 PUSH2 0x120 DUP1 DUP12 MSTORE DUP11 ADD PUSH2 0x4D6 SWAP2 PUSH2 0x319D JUMP JUMPDEST DUP10 DUP2 SUB PUSH1 0x20 DUP12 ADD MSTORE PUSH2 0x4E7 SWAP2 PUSH2 0x319D JUMP JUMPDEST DUP9 DUP2 SUB PUSH1 0x40 DUP11 ADD MSTORE PUSH2 0x4F8 SWAP2 PUSH2 0x319D JUMP JUMPDEST DUP8 DUP2 SUB PUSH1 0x60 DUP10 ADD MSTORE PUSH2 0x509 SWAP2 PUSH2 0x319D JUMP JUMPDEST DUP7 DUP2 SUB PUSH1 0x80 DUP9 ADD MSTORE PUSH2 0x51A SWAP2 PUSH2 0x319D JUMP JUMPDEST DUP6 DUP2 SUB PUSH1 0xA0 DUP8 ADD MSTORE PUSH2 0x52B SWAP2 PUSH2 0x319D JUMP JUMPDEST DUP5 DUP2 SUB PUSH1 0xC0 DUP7 ADD MSTORE PUSH2 0x53C SWAP2 PUSH2 0x319D JUMP JUMPDEST DUP4 DUP2 SUB PUSH1 0xE0 DUP6 ADD MSTORE PUSH2 0x54D SWAP2 PUSH2 0x319D JUMP JUMPDEST DUP3 DUP2 SUB PUSH2 0x100 DUP5 ADD MSTORE PUSH2 0x55F SWAP2 PUSH2 0x319D JUMP JUMPDEST SUB SWAP1 RETURN JUMPDEST CALLVALUE PUSH2 0x258 JUMPI PUSH1 0x40 CALLDATASIZE PUSH1 0x3 NOT ADD SLT PUSH2 0x258 JUMPI PUSH1 0x4 CALLDATALOAD PUSH1 0x1 PUSH1 0x1 PUSH1 0x40 SHL SUB DUP2 GT PUSH2 0x258 JUMPI PUSH2 0x593 SWAP1 CALLDATASIZE SWAP1 PUSH1 0x4 ADD PUSH2 0x311D JUMP JUMPDEST PUSH1 0x24 CALLDATALOAD SWAP1 PUSH1 0x2 DUP3 LT ISZERO PUSH2 0x258 JUMPI PUSH2 0x5D6 PUSH2 0x5C2 SWAP2 PUSH2 0x55F SWAP4 PUSH1 0x40 MLOAD SWAP4 DUP5 SWAP3 PUSH1 0x40 PUSH1 0x20 DUP6 ADD MSTORE PUSH1 0x60 DUP5 ADD SWAP1 PUSH2 0x319D JUMP JUMPDEST SWAP1 PUSH1 0x40 DUP4 ADD MSTORE SUB PUSH1 0x1F NOT DUP2 ADD DUP4 MSTORE DUP3 PUSH2 0x30E1 JUMP JUMPDEST PUSH1 0x40 MLOAD SWAP2 DUP3 SWAP2 PUSH1 0x20 DUP4 MSTORE PUSH1 0x20 DUP4 ADD SWAP1 PUSH2 0x319D JUMP JUMPDEST CALLVALUE PUSH2 0x258 JUMPI PUSH1 0x20 CALLDATASIZE PUSH1 0x3 NOT ADD SLT PUSH2 0x258 JUMPI PUSH1 0x4 CALLDATALOAD PUSH1 0x0 SLOAD DUP2 LT ISZERO PUSH2 0x258 JUMPI PUSH2 0x2F9 PUSH1 0x20 SWAP2 PUSH2 0x2FDA JUMP JUMPDEST CALLVALUE PUSH2 0x258 JUMPI PUSH1 0x20 CALLDATASIZE PUSH1 0x3 NOT ADD SLT PUSH2 0x258 JUMPI PUSH1 0x4 CALLDATALOAD PUSH1 0x0 MSTORE PUSH1 0xC PUSH1 0x20 MSTORE PUSH1 0x20 PUSH1 0x40 PUSH1 0x0 KECCAK256 SLOAD PUSH1 0x40 MLOAD SWAP1 DUP2 MSTORE RETURN JUMPDEST CALLVALUE PUSH2 0x258 JUMPI PUSH1 0x0 CALLDATASIZE PUSH1 0x3 NOT ADD SLT PUSH2 0x258 JUMPI PUSH1 0x3 SLOAD PUSH1 0x40 MLOAD PUSH1 0x1 PUSH1 0x1 PUSH1 0xA0 SHL SUB SWAP1 SWAP2 AND DUP2 MSTORE PUSH1 0x20 SWAP1 RETURN JUMPDEST CALLVALUE PUSH2 0x258 JUMPI PUSH1 0x40 CALLDATASIZE PUSH1 0x3 NOT ADD SLT PUSH2 0x258 JUMPI PUSH1 0x4 CALLDATALOAD PUSH4 0xFFFFFFFF DUP2 AND DUP2 SUB PUSH2 0x258 JUMPI PUSH2 0x696 SWAP1 PUSH1 0x24 CALLDATALOAD SWAP1 PUSH2 0x452C JUMP JUMPDEST SWAP1 PUSH2 0x55F PUSH1 0x40 MLOAD SWAP3 DUP4 SWAP3 ISZERO ISZERO DUP4 MSTORE PUSH1 0x40 PUSH1 0x20 DUP5 ADD MSTORE PUSH1 0x40 DUP4 ADD SWAP1 PUSH2 0x384E JUMP JUMPDEST CALLVALUE PUSH2 0x258 JUMPI PUSH1 0x60 CALLDATASIZE PUSH1 0x3 NOT ADD SLT PUSH2 0x258 JUMPI PUSH1 0x40 PUSH2 0x6D0 PUSH2 0x2FC4 JUMP JUMPDEST PUSH1 0x1 PUSH1 0x1 PUSH1 0xA0 SHL SUB AND PUSH1 0x0 DUP2 DUP2 MSTORE PUSH1 0x13 PUSH1 0x20 SWAP1 DUP2 MSTORE DUP4 DUP3 KECCAK256 PUSH1 0x24 CALLDATALOAD DUP1 DUP5 MSTORE SWAP1 DUP3 MSTORE DUP5 DUP4 KECCAK256 PUSH1 0x44 CALLDATALOAD DUP1 DUP6 MSTORE SWAP1 DUP4 MSTORE DUP6 DUP5 KECCAK256 SLOAD SWAP5 DUP5 MSTORE PUSH1 0x12 DUP4 MSTORE DUP6 DUP5 KECCAK256 SWAP2 DUP5 MSTORE SWAP1 DUP3 MSTORE DUP5 DUP4 KECCAK256 SWAP1 DUP4 MSTORE DUP2 MSTORE SWAP1 DUP4 SWAP1 KECCAK256 SLOAD DUP4 MLOAD SWAP3 DUP4 MSTORE SWAP1 DUP3 ADD MSTORE RETURN JUMPDEST CALLVALUE PUSH2 0x258 JUMPI PUSH1 0x20 CALLDATASIZE PUSH1 0x3 NOT ADD SLT PUSH2 0x258 JUMPI PUSH1 0x1 PUSH1 0x1 PUSH1 0xA0 SHL SUB PUSH2 0x74A PUSH2 0x2FC4 JUMP JUMPDEST AND PUSH1 0x0 MSTORE PUSH1 0x8 PUSH1 0x20 MSTORE PUSH1 0x20 PUSH1 0xFF PUSH1 0x40 PUSH1 0x0 KECCAK256 SLOAD AND PUSH1 0x40 MLOAD SWAP1 ISZERO ISZERO DUP2 MSTORE RETURN JUMPDEST CALLVALUE PUSH2 0x258 JUMPI PUSH2 0x776 CALLDATASIZE PUSH2 0x3164 JUMP JUMPDEST PUSH1 0x0 DUP3 DUP2 MSTORE PUSH1 0xA PUSH1 0x20 SWAP1 DUP2 MSTORE PUSH1 0x40 DUP1 DUP4 KECCAK256 PUSH1 0x1 ADD SLOAD PUSH1 0x1 PUSH1 0x1 PUSH1 0xA0 SHL SUB SWAP1 DUP2 AND DUP1 DUP6 MSTORE PUSH1 0x13 DUP5 MSTORE DUP3 DUP6 KECCAK256 DUP8 DUP7 MSTORE DUP5 MSTORE DUP3 DUP6 KECCAK256 DUP7 DUP7 MSTORE DUP5 MSTORE DUP3 DUP6 KECCAK256 SLOAD PUSH1 0x4 DUP1 SLOAD PUSH1 0x2 SLOAD SWAP6 MLOAD PUSH4 0x23B872DD PUSH1 0xE0 SHL DUP2 MSTORE CALLER SWAP3 DUP2 ADD SWAP3 SWAP1 SWAP3 MSTORE SWAP5 DUP5 AND PUSH1 0x24 DUP3 ADD MSTORE PUSH1 0x44 DUP2 ADD DUP3 SWAP1 MSTORE SWAP5 SWAP8 SWAP1 SWAP7 SWAP6 SWAP1 SWAP5 SWAP2 SWAP4 SWAP2 SWAP3 DUP9 SWAP3 DUP5 SWAP3 PUSH1 0x64 SWAP3 DUP5 SWAP3 AND GAS CALL DUP1 ISZERO PUSH2 0x963 JUMPI PUSH2 0x936 JUMPI JUMPDEST POP DUP1 PUSH1 0x0 MSTORE PUSH1 0x14 DUP6 MSTORE PUSH1 0x40 PUSH1 0x0 KECCAK256 DUP3 PUSH1 0x0 MSTORE DUP6 MSTORE PUSH1 0x40 PUSH1 0x0 KECCAK256 DUP4 PUSH1 0x0 MSTORE DUP6 MSTORE PUSH1 0xFF PUSH1 0x2 PUSH1 0x40 PUSH1 0x0 KECCAK256 ADD SLOAD AND DUP2 PUSH1 0x0 MSTORE PUSH1 0x12 DUP7 MSTORE PUSH1 0x40 PUSH1 0x0 KECCAK256 DUP4 PUSH1 0x0 MSTORE DUP7 MSTORE PUSH1 0x40 PUSH1 0x0 KECCAK256 DUP5 PUSH1 0x0 MSTORE DUP7 MSTORE PUSH2 0x85E PUSH1 0x40 PUSH1 0x0 KECCAK256 SLOAD PUSH2 0x858 DUP4 PUSH2 0x41CB JUMP JUMPDEST SWAP1 PUSH2 0x58BB JUMP JUMPDEST DUP3 PUSH1 0x0 MSTORE PUSH1 0x12 DUP8 MSTORE PUSH1 0x40 PUSH1 0x0 KECCAK256 DUP5 PUSH1 0x0 MSTORE DUP8 MSTORE PUSH1 0x40 PUSH1 0x0 KECCAK256 DUP6 PUSH1 0x0 MSTORE DUP8 MSTORE PUSH1 0x40 PUSH1 0x0 KECCAK256 SSTORE DUP2 PUSH1 0x0 MSTORE PUSH1 0x12 DUP7 MSTORE PUSH1 0x40 PUSH1 0x0 KECCAK256 DUP4 PUSH1 0x0 MSTORE DUP7 MSTORE PUSH1 0x40 PUSH1 0x0 KECCAK256 DUP5 PUSH1 0x0 MSTORE DUP7 MSTORE PUSH1 0x40 PUSH1 0x0 KECCAK256 SLOAD SWAP5 PUSH1 0x4 DUP3 LT ISZERO PUSH2 0x920 JUMPI PUSH1 0x40 DUP1 MLOAD PUSH1 0x1 PUSH1 0x1 PUSH1 0xA0 SHL SUB SWAP5 SWAP1 SWAP5 AND DUP5 MSTORE PUSH1 0x20 DUP5 ADD SWAP5 SWAP1 SWAP5 MSTORE SWAP3 DUP3 ADD SWAP4 SWAP1 SWAP4 MSTORE TIMESTAMP PUSH1 0x60 DUP3 ADD MSTORE PUSH1 0x80 DUP2 ADD SWAP4 SWAP1 SWAP4 MSTORE PUSH1 0xA0 DUP4 ADD MSTORE PUSH1 0xC0 DUP3 ADD MSTORE PUSH1 0x0 PUSH1 0xE0 DUP3 ADD MSTORE PUSH32 0x7A349466F0B119934B2376706BF145E6FABE7EB4B8C4CBA23BB8F5DC9CB74B75 SWAP1 PUSH2 0x100 SWAP1 LOG1 PUSH1 0x40 MLOAD PUSH1 0x1 DUP2 MSTORE RETURN JUMPDEST PUSH4 0x4E487B71 PUSH1 0xE0 SHL PUSH1 0x0 MSTORE PUSH1 0x21 PUSH1 0x4 MSTORE PUSH1 0x24 PUSH1 0x0 REVERT JUMPDEST PUSH2 0x955 SWAP1 DUP7 RETURNDATASIZE DUP9 GT PUSH2 0x95C JUMPI JUMPDEST PUSH2 0x94D DUP2 DUP4 PUSH2 0x30E1 JUMP JUMPDEST DUP2 ADD SWAP1 PUSH2 0x3F19 JUMP JUMPDEST POP DUP6 PUSH2 0x7FD JUMP JUMPDEST POP RETURNDATASIZE PUSH2 0x943 JUMP JUMPDEST PUSH1 0x40 MLOAD RETURNDATASIZE PUSH1 0x0 DUP3 RETURNDATACOPY RETURNDATASIZE SWAP1 REVERT JUMPDEST CALLVALUE PUSH2 0x258 JUMPI PUSH1 0x60 CALLDATASIZE PUSH1 0x3 NOT ADD SLT PUSH2 0x258 JUMPI PUSH1 0x4 CALLDATALOAD PUSH1 0x1 PUSH1 0x1 PUSH1 0x40 SHL SUB DUP2 GT PUSH2 0x258 JUMPI PUSH2 0x99F SWAP1 CALLDATASIZE SWAP1 PUSH1 0x4 ADD PUSH2 0x311D JUMP JUMPDEST PUSH1 0x16 SLOAD PUSH1 0x1 PUSH1 0x1 PUSH1 0xA0 SHL SUB AND CALLER SUB PUSH2 0x9CE JUMPI PUSH2 0x9C4 PUSH1 0x20 SWAP2 PUSH1 0x44 CALLDATALOAD SWAP1 PUSH1 0x24 CALLDATALOAD SWAP1 PUSH2 0x4887 JUMP JUMPDEST PUSH1 0x40 MLOAD SWAP1 ISZERO ISZERO DUP2 MSTORE RETURN JUMPDEST PUSH1 0x40 MLOAD PUSH3 0x461BCD PUSH1 0xE5 SHL DUP2 MSTORE PUSH1 0x20 PUSH1 0x4 DUP3 ADD MSTORE PUSH1 0x37 PUSH1 0x24 DUP3 ADD MSTORE PUSH32 0x7B2266726F6D223A2022466943616D2E736F6C222C2022636F6465223A20332C PUSH1 0x44 DUP3 ADD MSTORE PUSH32 0x20226D657373616765223A20224F6E6C7920504F53227D000000000000000000 PUSH1 0x64 DUP3 ADD MSTORE PUSH1 0x84 SWAP1 REVERT JUMPDEST CALLVALUE PUSH2 0x258 JUMPI PUSH1 0x20 CALLDATASIZE PUSH1 0x3 NOT ADD SLT PUSH2 0x258 JUMPI PUSH2 0xA52 PUSH2 0x2FC4 JUMP JUMPDEST PUSH1 0x3 SLOAD PUSH1 0x1 PUSH1 0x1 PUSH1 0xA0 SHL SUB SWAP2 SWAP1 PUSH2 0xA6C SWAP1 DUP4 AND CALLER EQ PUSH2 0x38A3 JUMP JUMPDEST AND PUSH1 0x1 PUSH1 0x1 PUSH1 0x60 SHL SUB PUSH1 0xA0 SHL PUSH1 0x2 SLOAD AND OR PUSH1 0x2 SSTORE PUSH1 0x0 DUP1 RETURN JUMPDEST CALLVALUE PUSH2 0x258 JUMPI PUSH1 0x20 CALLDATASIZE PUSH1 0x3 NOT ADD SLT PUSH2 0x258 JUMPI PUSH1 0x4 CALLDATALOAD PUSH1 0x15 SLOAD DUP2 LT ISZERO PUSH2 0x258 JUMPI PUSH1 0x20 SWAP1 PUSH1 0x15 PUSH1 0x0 MSTORE PUSH32 0x55F448FDEA98C4D29EB340757EF0A66CD03DBB9538908A6A81D96026B71EC475 ADD SLOAD PUSH1 0x40 MLOAD SWAP1 DUP2 MSTORE RETURN JUMPDEST CALLVALUE PUSH2 0x258 JUMPI PUSH1 0x20 CALLDATASIZE PUSH1 0x3 NOT ADD SLT PUSH2 0x258 JUMPI PUSH1 0x4 CALLDATALOAD PUSH1 0x5 SLOAD DUP2 LT ISZERO PUSH2 0x258 JUMPI PUSH1 0x5 PUSH1 0x0 MSTORE PUSH32 0x36B6384B5ECA791C62761152D0C79BB0604C104A5FB6F4EB0703F3154BB3DB0 ADD SLOAD PUSH1 0x40 MLOAD PUSH1 0x1 PUSH1 0x1 PUSH1 0xA0 SHL SUB SWAP1 SWAP2 AND DUP2 MSTORE PUSH1 0x20 SWAP1 RETURN JUMPDEST CALLVALUE PUSH2 0x258 JUMPI PUSH1 0x20 CALLDATASIZE PUSH1 0x3 NOT ADD SLT PUSH2 0x258 JUMPI PUSH2 0xB4A PUSH2 0x2FC4 JUMP JUMPDEST CALLER PUSH1 0x0 MSTORE PUSH1 0x8 PUSH1 0x20 MSTORE PUSH2 0xB69 PUSH1 0x1 PUSH1 0xFF PUSH1 0x40 PUSH1 0x0 KECCAK256 SLOAD AND ISZERO ISZERO EQ PUSH2 0x398A JUMP JUMPDEST PUSH1 0x1 PUSH1 0x1 PUSH1 0xA0 SHL SUB DUP2 AND PUSH1 0x0 SWAP1 DUP2 MSTORE PUSH1 0xE PUSH1 0x20 MSTORE PUSH1 0x40 SWAP1 KECCAK256 SLOAD PUSH2 0xB8B SWAP1 PUSH2 0x44DC JUMP JUMPDEST SWAP1 PUSH1 0x0 JUMPDEST PUSH1 0x1 PUSH1 0x1 PUSH1 0xA0 SHL SUB DUP3 AND PUSH1 0x0 SWAP1 DUP2 MSTORE PUSH1 0xE PUSH1 0x20 MSTORE PUSH1 0x40 SWAP1 KECCAK256 DUP1 SLOAD DUP3 LT ISZERO PUSH2 0xCC2 JUMPI DUP2 PUSH2 0xBBA SWAP2 PUSH2 0x305B JUMP JUMPDEST SWAP1 SLOAD SWAP1 PUSH1 0x3 SHL SHR PUSH1 0x0 MSTORE PUSH1 0xA PUSH1 0x20 MSTORE PUSH1 0x40 PUSH1 0x0 KECCAK256 PUSH1 0x40 MLOAD SWAP1 PUSH2 0xBDB DUP3 PUSH2 0x308F JUMP JUMPDEST DUP1 SLOAD DUP3 MSTORE PUSH1 0x1 DUP2 ADD SLOAD PUSH1 0x1 PUSH1 0x1 PUSH1 0xA0 SHL SUB AND PUSH1 0x20 DUP4 ADD MSTORE PUSH1 0x2 DUP2 ADD SLOAD PUSH2 0xC00 DUP2 PUSH2 0x3327 JUMP JUMPDEST SWAP1 PUSH2 0xC0E PUSH1 0x40 MLOAD SWAP3 DUP4 PUSH2 0x30E1 JUMP JUMPDEST DUP1 DUP3 MSTORE PUSH1 0x20 DUP3 ADD SWAP1 PUSH1 0x2 DUP5 ADD PUSH1 0x0 MSTORE PUSH1 0x20 PUSH1 0x0 KECCAK256 PUSH1 0x0 SWAP3 JUMPDEST DUP3 DUP5 LT PUSH2 0xC81 JUMPI POP POP POP POP DUP3 SWAP2 PUSH1 0xD SWAP2 PUSH1 0x40 PUSH2 0xC7C SWAP7 SWAP6 ADD MSTORE PUSH1 0x3 DUP2 ADD SLOAD PUSH1 0x60 DUP5 ADD MSTORE PUSH2 0xC55 PUSH1 0x4 DUP3 ADD PUSH2 0x424C JUMP JUMPDEST PUSH1 0x80 DUP5 ADD MSTORE ADD SLOAD PUSH1 0xA0 DUP3 ADD MSTORE PUSH2 0xC6B DUP3 DUP7 PUSH2 0x3D36 JUMP JUMPDEST MSTORE PUSH2 0xC76 DUP2 DUP6 PUSH2 0x3D36 JUMP JUMPDEST POP PUSH2 0x3AF1 JUMP JUMPDEST PUSH2 0xB8F JUMP JUMPDEST PUSH1 0x3 PUSH1 0x20 PUSH1 0x1 SWAP3 PUSH1 0x40 MLOAD PUSH2 0xC94 DUP2 PUSH2 0x30C6 JUMP JUMPDEST DUP6 SLOAD DUP2 MSTORE DUP5 DUP7 ADD SLOAD DUP4 DUP3 ADD MSTORE PUSH2 0xCB4 PUSH1 0xFF PUSH1 0x2 DUP9 ADD SLOAD AND PUSH1 0x40 DUP4 ADD PUSH2 0x3E9A JUMP JUMPDEST DUP2 MSTORE ADD SWAP3 ADD SWAP4 ADD SWAP3 SWAP1 PUSH2 0xC26 JUMP JUMPDEST PUSH1 0x40 MLOAD PUSH1 0x20 DUP1 DUP3 MSTORE DUP2 SWAP1 PUSH2 0x55F SWAP1 DUP3 ADD DUP8 PUSH2 0x384E JUMP JUMPDEST CALLVALUE PUSH2 0x258 JUMPI PUSH1 0x60 CALLDATASIZE PUSH1 0x3 NOT ADD SLT PUSH2 0x258 JUMPI PUSH1 0x44 CALLDATALOAD PUSH1 0x1 PUSH1 0x1 PUSH1 0x40 SHL SUB DUP2 GT PUSH2 0x258 JUMPI CALLDATASIZE PUSH1 0x23 DUP3 ADD SLT ISZERO PUSH2 0x258 JUMPI DUP1 PUSH1 0x4 ADD CALLDATALOAD PUSH2 0xD13 DUP2 PUSH2 0x3327 JUMP JUMPDEST PUSH2 0xD20 PUSH1 0x40 MLOAD SWAP2 DUP3 PUSH2 0x30E1 JUMP JUMPDEST DUP2 DUP2 MSTORE PUSH1 0x20 SWAP3 PUSH1 0x24 DUP5 DUP4 ADD SWAP4 PUSH1 0x5 SHL DUP3 ADD ADD SWAP3 CALLDATASIZE DUP5 GT PUSH2 0x258 JUMPI PUSH1 0x24 DUP6 SWAP3 ADD SWAP1 JUMPDEST DUP5 DUP3 LT PUSH2 0xD60 JUMPI DUP3 PUSH2 0xD58 DUP6 PUSH1 0x24 CALLDATALOAD PUSH1 0x4 CALLDATALOAD PUSH2 0x4371 JUMP JUMPDEST PUSH1 0x40 MLOAD SWAP1 DUP2 MSTORE RETURN JUMPDEST DUP2 CALLDATALOAD DUP2 MSTORE SWAP1 DUP3 ADD SWAP1 DUP3 ADD PUSH2 0xD41 JUMP JUMPDEST CALLVALUE PUSH2 0x258 JUMPI PUSH1 0x0 CALLDATASIZE PUSH1 0x3 NOT ADD SLT PUSH2 0x258 JUMPI PUSH1 0x4 SLOAD PUSH1 0x40 MLOAD PUSH1 0x1 PUSH1 0x1 PUSH1 0xA0 SHL SUB SWAP1 SWAP2 AND DUP2 MSTORE PUSH1 0x20 SWAP1 RETURN JUMPDEST CALLVALUE PUSH2 0x258 JUMPI PUSH2 0xDA6 CALLDATASIZE PUSH2 0x3164 JUMP JUMPDEST SWAP1 CALLER PUSH1 0x0 MSTORE PUSH1 0x8 PUSH1 0x20 MSTORE PUSH2 0xDC6 PUSH1 0x1 PUSH1 0xFF PUSH1 0x40 PUSH1 0x0 KECCAK256 SLOAD AND ISZERO ISZERO EQ PUSH2 0x398A JUMP JUMPDEST PUSH1 0x0 MSTORE PUSH1 0xB PUSH1 0x20 MSTORE PUSH1 0x10 PUSH1 0x40 PUSH1 0x0 KECCAK256 ADD SSTORE PUSH1 0x20 PUSH1 0x40 MLOAD PUSH1 0x1 DUP2 MSTORE RETURN JUMPDEST CALLVALUE PUSH2 0x258 JUMPI PUSH1 0x20 CALLDATASIZE PUSH1 0x3 NOT ADD SLT PUSH2 0x258 JUMPI PUSH2 0xDFB PUSH2 0x4208 JUMP JUMPDEST POP PUSH1 0x4 CALLDATALOAD PUSH1 0x0 MSTORE PUSH1 0xA PUSH1 0x20 MSTORE PUSH2 0x55F PUSH2 0xE1A PUSH1 0x4 PUSH1 0x40 PUSH1 0x0 KECCAK256 ADD PUSH2 0x424C JUMP JUMPDEST PUSH1 0x40 MLOAD SWAP2 DUP3 SWAP2 PUSH1 0x20 DUP4 MSTORE PUSH1 0x20 DUP4 ADD SWAP1 PUSH2 0x3700 JUMP JUMPDEST CALLVALUE PUSH2 0x258 JUMPI PUSH1 0x20 DUP1 PUSH1 0x3 NOT CALLDATASIZE ADD SLT PUSH2 0x258 JUMPI PUSH2 0xE48 PUSH2 0x4338 JUMP JUMPDEST POP PUSH1 0x4 CALLDATALOAD PUSH1 0x0 MSTORE PUSH1 0xA DUP2 MSTORE PUSH1 0x40 PUSH1 0x0 KECCAK256 SWAP1 PUSH1 0x40 MLOAD SWAP2 PUSH2 0xE66 DUP4 PUSH2 0x308F JUMP JUMPDEST DUP1 SLOAD DUP4 MSTORE PUSH1 0x1 DUP1 DUP3 ADD SLOAD PUSH1 0x1 PUSH1 0x1 PUSH1 0xA0 SHL SUB AND DUP4 DUP6 ADD MSTORE PUSH1 0x2 DUP1 DUP4 ADD DUP1 SLOAD SWAP2 SWAP3 SWAP2 SWAP1 PUSH2 0xE91 DUP3 PUSH2 0x3327 JUMP JUMPDEST SWAP4 PUSH2 0xE9F PUSH1 0x40 MLOAD SWAP6 DUP7 PUSH2 0x30E1 JUMP JUMPDEST DUP3 DUP6 MSTORE PUSH1 0x0 SWAP2 DUP3 MSTORE DUP7 DUP3 KECCAK256 SWAP1 DUP8 DUP1 DUP8 ADD JUMPDEST DUP6 DUP6 LT PUSH2 0xEF8 JUMPI DUP11 DUP3 PUSH1 0xD DUP12 DUP12 PUSH1 0x40 DUP6 ADD MSTORE PUSH1 0x3 DUP2 ADD SLOAD PUSH1 0x60 DUP6 ADD MSTORE PUSH2 0xED8 PUSH1 0x4 DUP3 ADD PUSH2 0x424C JUMP JUMPDEST PUSH1 0x80 DUP6 ADD MSTORE ADD SLOAD PUSH1 0xA0 DUP4 ADD MSTORE PUSH2 0x55F PUSH1 0x40 MLOAD SWAP3 DUP3 DUP5 SWAP4 DUP5 MSTORE DUP4 ADD SWAP1 PUSH2 0x37C2 JUMP JUMPDEST DUP7 SWAP2 PUSH1 0x3 SWAP2 PUSH1 0x40 MLOAD PUSH2 0xF09 DUP2 PUSH2 0x30C6 JUMP JUMPDEST DUP7 SLOAD DUP2 MSTORE DUP5 DUP8 ADD SLOAD DUP4 DUP3 ADD MSTORE PUSH2 0xF28 PUSH1 0xFF DUP8 DUP10 ADD SLOAD AND PUSH1 0x40 DUP4 ADD PUSH2 0x3E9A JUMP JUMPDEST DUP2 MSTORE ADD SWAP4 ADD SWAP4 ADD SWAP3 SWAP2 DUP9 SWAP1 PUSH2 0xEB0 JUMP JUMPDEST CALLVALUE PUSH2 0x258 JUMPI PUSH2 0xF46 CALLDATASIZE PUSH2 0x333E JUMP JUMPDEST PUSH1 0x40 MLOAD SWAP2 PUSH1 0x80 DUP4 ADD SWAP2 PUSH1 0x20 SWAP3 PUSH1 0x60 DUP5 DUP7 ADD MSTORE DUP6 MLOAD DUP1 SWAP2 MSTORE DUP4 PUSH1 0xA0 DUP7 ADD SWAP7 ADD SWAP1 PUSH1 0x0 JUMPDEST DUP2 DUP2 LT PUSH2 0xFBF JUMPI POP POP POP SWAP1 DUP4 PUSH2 0xFAB SWAP3 PUSH2 0xF8F DUP8 PUSH1 0x1F NOT SWAP5 DUP6 DUP6 DUP4 SUB ADD PUSH1 0x40 DUP7 ADD MSTORE PUSH2 0x3700 JUMP JUMPDEST PUSH1 0x1 PUSH1 0x1 PUSH1 0xA0 SHL SUB SWAP1 SWAP2 AND PUSH1 0x60 DUP4 ADD MSTORE SUB SWAP1 DUP2 ADD DUP5 MSTORE DUP4 PUSH2 0x30E1 JUMP JUMPDEST PUSH2 0x55F PUSH1 0x40 MLOAD SWAP3 DUP3 DUP5 SWAP4 DUP5 MSTORE DUP4 ADD SWAP1 PUSH2 0x319D JUMP JUMPDEST SWAP1 SWAP2 SWAP7 DUP6 PUSH2 0xFD0 PUSH1 0x1 SWAP3 DUP11 MLOAD PUSH2 0x36D9 JUMP JUMPDEST SWAP9 ADD SWAP3 SWAP2 ADD PUSH2 0xF68 JUMP JUMPDEST CALLVALUE PUSH2 0x258 JUMPI PUSH1 0x20 CALLDATASIZE PUSH1 0x3 NOT ADD SLT PUSH2 0x258 JUMPI PUSH1 0x4 CALLDATALOAD PUSH1 0x1 SLOAD DUP2 LT ISZERO PUSH2 0x258 JUMPI PUSH2 0x2F9 PUSH1 0x20 SWAP2 PUSH2 0x3024 JUMP JUMPDEST CALLVALUE PUSH2 0x258 JUMPI PUSH1 0x20 DUP1 PUSH1 0x3 NOT CALLDATASIZE ADD SLT PUSH2 0x258 JUMPI PUSH1 0x4 CALLDATALOAD PUSH1 0x0 MSTORE PUSH1 0x10 DUP2 MSTORE PUSH1 0x40 PUSH1 0x0 KECCAK256 PUSH1 0x40 MLOAD SWAP1 DUP2 DUP4 DUP3 SLOAD SWAP2 DUP3 DUP2 MSTORE ADD SWAP1 DUP2 SWAP3 PUSH1 0x0 MSTORE DUP5 PUSH1 0x0 KECCAK256 SWAP1 PUSH1 0x0 JUMPDEST DUP7 DUP3 DUP3 LT PUSH2 0x1095 JUMPI DUP7 DUP7 PUSH2 0x1055 DUP3 DUP9 SUB DUP4 PUSH2 0x30E1 JUMP JUMPDEST PUSH1 0x40 MLOAD SWAP3 DUP4 SWAP3 DUP2 DUP5 ADD SWAP1 DUP3 DUP6 MSTORE MLOAD DUP1 SWAP2 MSTORE PUSH1 0x40 DUP5 ADD SWAP3 SWAP2 PUSH1 0x0 JUMPDEST DUP3 DUP2 LT PUSH2 0x107E JUMPI POP POP POP POP SUB SWAP1 RETURN JUMPDEST DUP4 MLOAD DUP6 MSTORE DUP7 SWAP6 POP SWAP4 DUP2 ADD SWAP4 SWAP3 DUP2 ADD SWAP3 PUSH1 0x1 ADD PUSH2 0x106F JUMP JUMPDEST DUP4 SLOAD DUP6 MSTORE SWAP1 SWAP4 ADD SWAP3 PUSH1 0x1 SWAP3 DUP4 ADD SWAP3 ADD PUSH2 0x103F JUMP JUMPDEST CALLVALUE PUSH2 0x258 JUMPI PUSH1 0x20 CALLDATASIZE PUSH1 0x3 NOT ADD SLT PUSH2 0x258 JUMPI PUSH2 0x10C2 PUSH2 0x3C5E JUMP JUMPDEST POP PUSH1 0x4 CALLDATALOAD PUSH1 0x0 MSTORE PUSH1 0xB PUSH1 0x20 MSTORE PUSH2 0x55F PUSH1 0x40 PUSH1 0x0 KECCAK256 PUSH1 0xFF PUSH1 0x11 PUSH1 0x40 MLOAD SWAP3 PUSH2 0x10E7 DUP5 PUSH2 0x3073 JUMP JUMPDEST DUP1 SLOAD DUP5 MSTORE PUSH2 0x10F7 PUSH1 0x1 DUP3 ADD PUSH2 0x360E JUMP JUMPDEST PUSH1 0x20 DUP6 ADD MSTORE PUSH1 0xB DUP2 ADD SLOAD PUSH1 0x40 DUP6 ADD MSTORE PUSH1 0xC DUP2 ADD SLOAD PUSH1 0x60 DUP6 ADD MSTORE PUSH1 0xD DUP2 ADD SLOAD PUSH1 0x80 DUP6 ADD MSTORE PUSH1 0xE DUP2 ADD SLOAD PUSH1 0xA0 DUP6 ADD MSTORE PUSH1 0xF DUP2 ADD SLOAD PUSH1 0xC0 DUP6 ADD MSTORE PUSH1 0x10 DUP2 ADD SLOAD PUSH1 0xE0 DUP6 ADD MSTORE ADD SLOAD AND ISZERO ISZERO PUSH2 0x100 DUP3 ADD MSTORE PUSH1 0x40 MLOAD SWAP2 DUP3 SWAP2 PUSH1 0x20 DUP4 MSTORE PUSH1 0x20 DUP4 ADD SWAP1 PUSH2 0x3261 JUMP JUMPDEST CALLVALUE PUSH2 0x258 JUMPI PUSH1 0x20 CALLDATASIZE PUSH1 0x3 NOT ADD SLT PUSH2 0x258 JUMPI PUSH1 0x4 CALLDATALOAD PUSH1 0x0 MSTORE PUSH1 0xB PUSH1 0x20 MSTORE PUSH1 0x40 PUSH1 0x0 KECCAK256 DUP1 SLOAD PUSH2 0x1186 PUSH1 0x1 DUP4 ADD PUSH2 0x360E JUMP JUMPDEST SWAP2 PUSH1 0xB DUP2 ADD SLOAD SWAP1 PUSH1 0xC DUP2 ADD SLOAD SWAP1 PUSH1 0xD DUP2 ADD SLOAD PUSH1 0xE DUP3 ADD SLOAD PUSH1 0xF DUP4 ADD SLOAD SWAP2 PUSH1 0xFF PUSH1 0x11 PUSH1 0x10 DUP7 ADD SLOAD SWAP6 ADD SLOAD AND SWAP5 PUSH2 0x11CD PUSH1 0x40 MLOAD SWAP10 DUP11 SWAP10 DUP11 MSTORE PUSH2 0x120 DUP1 PUSH1 0x20 DUP13 ADD MSTORE DUP11 ADD SWAP1 PUSH2 0x31C2 JUMP JUMPDEST SWAP7 PUSH1 0x40 DUP10 ADD MSTORE PUSH1 0x60 DUP9 ADD MSTORE PUSH1 0x80 DUP8 ADD MSTORE PUSH1 0xA0 DUP7 ADD MSTORE PUSH1 0xC0 DUP6 ADD MSTORE PUSH1 0xE0 DUP5 ADD MSTORE ISZERO ISZERO PUSH2 0x100 DUP4 ADD MSTORE SUB SWAP1 RETURN JUMPDEST CALLVALUE PUSH2 0x258 JUMPI PUSH1 0x20 CALLDATASIZE PUSH1 0x3 NOT ADD SLT PUSH2 0x258 JUMPI PUSH2 0x1211 PUSH2 0x2FC4 JUMP JUMPDEST PUSH1 0x3 SLOAD PUSH1 0x1 PUSH1 0x1 PUSH1 0xA0 SHL SUB SWAP2 SWAP1 PUSH2 0x122B SWAP1 DUP4 AND CALLER EQ PUSH2 0x38A3 JUMP JUMPDEST AND DUP1 PUSH1 0x0 MSTORE PUSH1 0x8 PUSH1 0x20 MSTORE PUSH1 0x40 PUSH1 0x0 KECCAK256 PUSH1 0x1 PUSH1 0xFF NOT DUP3 SLOAD AND OR SWAP1 SSTORE PUSH1 0x5 SLOAD PUSH1 0x1 PUSH1 0x40 SHL DUP2 LT ISZERO PUSH2 0x12AE JUMPI PUSH1 0x1 DUP2 ADD DUP1 PUSH1 0x5 SSTORE DUP2 LT ISZERO PUSH2 0x1298 JUMPI PUSH32 0x36B6384B5ECA791C62761152D0C79BB0604C104A5FB6F4EB0703F3154BB3DB0 ADD DUP1 SLOAD PUSH1 0x1 PUSH1 0x1 PUSH1 0xA0 SHL SUB NOT AND SWAP1 SWAP2 OR SWAP1 SSTORE STOP JUMPDEST PUSH4 0x4E487B71 PUSH1 0xE0 SHL PUSH1 0x0 MSTORE PUSH1 0x32 PUSH1 0x4 MSTORE PUSH1 0x24 PUSH1 0x0 REVERT JUMPDEST PUSH4 0x4E487B71 PUSH1 0xE0 SHL PUSH1 0x0 MSTORE PUSH1 0x41 PUSH1 0x4 MSTORE PUSH1 0x24 PUSH1 0x0 REVERT JUMPDEST CALLVALUE PUSH2 0x258 JUMPI PUSH2 0x1A0 CALLDATASIZE PUSH1 0x3 NOT ADD SLT PUSH2 0x258 JUMPI PUSH1 0x4 CALLDATALOAD PUSH1 0x1 PUSH1 0x1 PUSH1 0x40 SHL SUB DUP2 GT PUSH2 0x258 JUMPI PUSH2 0x12F5 SWAP1 CALLDATASIZE SWAP1 PUSH1 0x4 ADD PUSH2 0x311D JUMP JUMPDEST PUSH1 0x24 CALLDATALOAD PUSH1 0x1 PUSH1 0x1 PUSH1 0x40 SHL SUB DUP2 GT PUSH2 0x258 JUMPI PUSH2 0x1314 SWAP1 CALLDATASIZE SWAP1 PUSH1 0x4 ADD PUSH2 0x311D JUMP JUMPDEST PUSH1 0x44 CALLDATALOAD PUSH1 0x1 PUSH1 0x1 PUSH1 0x40 SHL SUB DUP2 GT PUSH2 0x258 JUMPI PUSH2 0x1333 SWAP1 CALLDATASIZE SWAP1 PUSH1 0x4 ADD PUSH2 0x311D JUMP JUMPDEST PUSH1 0x64 CALLDATALOAD PUSH1 0x1 PUSH1 0x1 PUSH1 0x40 SHL SUB DUP2 GT PUSH2 0x258 JUMPI PUSH2 0x1352 SWAP1 CALLDATASIZE SWAP1 PUSH1 0x4 ADD PUSH2 0x311D JUMP JUMPDEST PUSH1 0x84 CALLDATALOAD PUSH1 0x1 PUSH1 0x1 PUSH1 0x40 SHL SUB DUP2 GT PUSH2 0x258 JUMPI PUSH2 0x1371 SWAP1 CALLDATASIZE SWAP1 PUSH1 0x4 ADD PUSH2 0x311D JUMP JUMPDEST SWAP1 PUSH2 0x184 CALLDATALOAD SWAP3 DUP4 ISZERO ISZERO DUP5 SUB PUSH2 0x258 JUMPI CALLER PUSH1 0x0 MSTORE PUSH1 0x8 PUSH1 0x20 MSTORE PUSH2 0x139F PUSH1 0x1 PUSH1 0xFF PUSH1 0x40 PUSH1 0x0 KECCAK256 SLOAD AND ISZERO ISZERO EQ PUSH2 0x398A JUMP JUMPDEST PUSH1 0x40 MLOAD PUSH1 0x20 DUP2 ADD SWAP1 PUSH2 0x13F1 PUSH1 0x20 DUP3 DUP2 PUSH2 0x13BE DUP13 DUP8 DUP2 MLOAD SWAP4 DUP5 SWAP3 ADD PUSH2 0x317A JUMP JUMPDEST DUP11 MLOAD SWAP1 DUP3 ADD PUSH2 0x13D2 DUP3 DUP6 DUP4 ADD DUP7 DUP16 ADD PUSH2 0x317A JUMP JUMPDEST ADD DUP7 MLOAD SWAP1 PUSH2 0x13E5 DUP3 DUP6 DUP4 ADD DUP7 DUP12 ADD PUSH2 0x317A JUMP JUMPDEST ADD SUB DUP1 DUP5 MSTORE ADD DUP3 PUSH2 0x30E1 JUMP JUMPDEST MLOAD SWAP1 KECCAK256 SWAP5 PUSH1 0x40 MLOAD SWAP7 PUSH2 0x1402 DUP9 PUSH2 0x30AA JUMP JUMPDEST DUP8 MSTORE PUSH1 0x20 DUP8 ADD MSTORE PUSH1 0x40 DUP7 ADD MSTORE PUSH1 0x60 DUP6 ADD MSTORE PUSH1 0x80 DUP5 ADD MSTORE PUSH1 0xA4 CALLDATALOAD PUSH1 0xA0 DUP5 ADD MSTORE PUSH1 0xC4 CALLDATALOAD PUSH1 0xC0 DUP5 ADD MSTORE PUSH1 0xE4 CALLDATALOAD PUSH1 0xE0 DUP5 ADD MSTORE PUSH2 0x104 CALLDATALOAD PUSH2 0x100 DUP5 ADD MSTORE PUSH2 0x124 CALLDATALOAD PUSH2 0x120 DUP5 ADD MSTORE PUSH1 0x40 MLOAD SWAP3 PUSH2 0x1451 DUP5 PUSH2 0x3073 JUMP JUMPDEST DUP3 DUP5 MSTORE PUSH1 0x20 DUP5 ADD MSTORE PUSH2 0x144 CALLDATALOAD PUSH1 0x40 DUP5 ADD MSTORE PUSH1 0x0 PUSH1 0x60 DUP5 ADD MSTORE PUSH1 0x0 PUSH1 0x80 DUP5 ADD MSTORE PUSH1 0x0 PUSH1 0xA0 DUP5 ADD MSTORE PUSH2 0x164 CALLDATALOAD PUSH1 0xC0 DUP5 ADD MSTORE TIMESTAMP PUSH1 0xE0 DUP5 ADD MSTORE DUP1 ISZERO ISZERO PUSH2 0x100 DUP5 ADD MSTORE DUP2 PUSH1 0x0 MSTORE PUSH1 0xB PUSH1 0x20 MSTORE PUSH1 0x40 PUSH1 0x0 KECCAK256 SWAP3 DUP1 MLOAD DUP5 SSTORE PUSH1 0x20 DUP2 ADD MLOAD SWAP4 DUP5 MLOAD DUP1 MLOAD SWAP1 PUSH1 0x1 PUSH1 0x1 PUSH1 0x40 SHL SUB DUP3 GT PUSH2 0x12AE JUMPI DUP2 SWAP1 PUSH2 0x14D7 DUP3 PUSH2 0x14CE PUSH1 0x1 DUP8 ADD SLOAD PUSH2 0x353E JUMP JUMPDEST PUSH1 0x1 DUP8 ADD PUSH2 0x3A0D JUMP JUMPDEST PUSH1 0x20 SWAP1 PUSH1 0x1F DUP4 GT PUSH1 0x1 EQ PUSH2 0x1969 JUMPI PUSH1 0x0 SWAP3 PUSH2 0x195E JUMPI JUMPDEST POP POP DUP2 PUSH1 0x1 SHL SWAP2 PUSH1 0x0 NOT SWAP1 PUSH1 0x3 SHL SHR NOT AND OR PUSH1 0x1 DUP3 ADD SSTORE JUMPDEST PUSH1 0x20 DUP6 ADD MLOAD DUP1 MLOAD SWAP1 PUSH1 0x1 PUSH1 0x1 PUSH1 0x40 SHL SUB DUP3 GT PUSH2 0x12AE JUMPI DUP2 SWAP1 PUSH2 0x1537 DUP3 PUSH2 0x152E PUSH1 0x2 DUP8 ADD SLOAD PUSH2 0x353E JUMP JUMPDEST PUSH1 0x2 DUP8 ADD PUSH2 0x3A0D JUMP JUMPDEST PUSH1 0x20 SWAP1 PUSH1 0x1F DUP4 GT PUSH1 0x1 EQ PUSH2 0x18EC JUMPI PUSH1 0x0 SWAP3 PUSH2 0x18E1 JUMPI JUMPDEST POP POP DUP2 PUSH1 0x1 SHL SWAP2 PUSH1 0x0 NOT SWAP1 PUSH1 0x3 SHL SHR NOT AND OR PUSH1 0x2 DUP3 ADD SSTORE JUMPDEST PUSH1 0x40 DUP6 ADD MLOAD DUP1 MLOAD SWAP1 PUSH1 0x1 PUSH1 0x1 PUSH1 0x40 SHL SUB DUP3 GT PUSH2 0x12AE JUMPI DUP2 SWAP1 PUSH2 0x1597 DUP3 PUSH2 0x158E PUSH1 0x3 DUP8 ADD SLOAD PUSH2 0x353E JUMP JUMPDEST PUSH1 0x3 DUP8 ADD PUSH2 0x3A0D JUMP JUMPDEST PUSH1 0x20 SWAP1 PUSH1 0x1F DUP4 GT PUSH1 0x1 EQ PUSH2 0x186F JUMPI PUSH1 0x0 SWAP3 PUSH2 0x1864 JUMPI JUMPDEST POP POP DUP2 PUSH1 0x1 SHL SWAP2 PUSH1 0x0 NOT SWAP1 PUSH1 0x3 SHL SHR NOT AND OR PUSH1 0x3 DUP3 ADD SSTORE JUMPDEST PUSH1 0x60 DUP6 ADD MLOAD DUP1 MLOAD SWAP1 PUSH1 0x1 PUSH1 0x1 PUSH1 0x40 SHL SUB DUP3 GT PUSH2 0x12AE JUMPI DUP2 SWAP1 PUSH2 0x15F7 DUP3 PUSH2 0x15EE PUSH1 0x4 DUP8 ADD SLOAD PUSH2 0x353E JUMP JUMPDEST PUSH1 0x4 DUP8 ADD PUSH2 0x3A0D JUMP JUMPDEST PUSH1 0x20 SWAP1 PUSH1 0x1F DUP4 GT PUSH1 0x1 EQ PUSH2 0x17F2 JUMPI PUSH1 0x0 SWAP3 PUSH2 0x17E7 JUMPI JUMPDEST POP POP DUP2 PUSH1 0x1 SHL SWAP2 PUSH1 0x0 NOT SWAP1 PUSH1 0x3 SHL SHR NOT AND OR PUSH1 0x4 DUP3 ADD SSTORE JUMPDEST PUSH1 0x80 DUP6 ADD MLOAD SWAP5 DUP6 MLOAD PUSH1 0x1 PUSH1 0x1 PUSH1 0x40 SHL SUB DUP2 GT PUSH2 0x12AE JUMPI PUSH2 0x1655 DUP2 PUSH2 0x164C PUSH1 0x5 DUP7 ADD SLOAD PUSH2 0x353E JUMP JUMPDEST PUSH1 0x5 DUP7 ADD PUSH2 0x3A0D JUMP JUMPDEST PUSH1 0x20 PUSH1 0x1F DUP3 GT PUSH1 0x1 EQ PUSH2 0x176C JUMPI PUSH1 0x11 SWAP3 DUP3 PUSH2 0x100 SWAP6 SWAP4 PUSH2 0x120 SWAP4 PUSH1 0x1 SWAP11 SWAP12 PUSH1 0x0 SWAP3 PUSH2 0x1761 JUMPI JUMPDEST POP POP PUSH1 0x0 NOT PUSH1 0x3 DUP4 SWAP1 SHL SHR NOT AND SWAP1 DUP10 SHL OR PUSH1 0x5 DUP5 ADD SSTORE JUMPDEST PUSH1 0xA0 DUP2 ADD MLOAD PUSH1 0x6 DUP5 ADD SSTORE PUSH1 0xC0 DUP2 ADD MLOAD PUSH1 0x7 DUP5 ADD SSTORE PUSH1 0xE0 DUP2 ADD MLOAD PUSH1 0x8 DUP5 ADD SSTORE DUP5 DUP2 ADD MLOAD PUSH1 0x9 DUP5 ADD SSTORE ADD MLOAD PUSH1 0xA DUP3 ADD SSTORE PUSH1 0x40 DUP5 ADD MLOAD PUSH1 0xB DUP3 ADD SSTORE PUSH1 0x60 DUP5 ADD MLOAD PUSH1 0xC DUP3 ADD SSTORE PUSH1 0x80 DUP5 ADD MLOAD PUSH1 0xD DUP3 ADD SSTORE PUSH1 0xA0 DUP5 ADD MLOAD PUSH1 0xE DUP3 ADD SSTORE PUSH1 0xC0 DUP5 ADD MLOAD PUSH1 0xF DUP3 ADD SSTORE PUSH1 0xE0 DUP5 ADD MLOAD PUSH1 0x10 DUP3 ADD SSTORE ADD SWAP2 ADD MLOAD ISZERO ISZERO PUSH1 0xFF DUP1 NOT DUP4 SLOAD AND SWAP2 AND OR SWAP1 SSTORE ISZERO ISZERO EQ PUSH2 0x1753 JUMPI JUMPDEST PUSH1 0x0 SLOAD PUSH1 0x1 PUSH1 0x40 SHL DUP2 LT ISZERO PUSH2 0x12AE JUMPI PUSH2 0x1738 DUP2 PUSH1 0x1 PUSH2 0x174F SWAP4 ADD PUSH1 0x0 SSTORE PUSH2 0x2FDA JUMP JUMPDEST DUP2 SWAP4 SWAP2 SLOAD SWAP1 PUSH1 0x3 SHL SWAP2 DUP3 SHL SWAP2 PUSH1 0x0 NOT SWAP1 SHL NOT AND OR SWAP1 JUMP JUMPDEST SWAP1 SSTORE STOP JUMPDEST PUSH2 0x175C DUP2 PUSH2 0x3AA9 JUMP JUMPDEST PUSH2 0x1716 JUMP JUMPDEST ADD MLOAD SWAP1 POP DUP12 DUP1 PUSH2 0x167B JUMP JUMPDEST PUSH1 0x5 DUP5 ADD PUSH1 0x0 MSTORE PUSH1 0x20 PUSH1 0x0 KECCAK256 SWAP8 PUSH1 0x0 JUMPDEST PUSH1 0x1F NOT DUP5 AND DUP2 LT PUSH2 0x17CF JUMPI POP SWAP3 PUSH1 0x1 DUP4 DUP2 SWAP10 SWAP11 PUSH2 0x120 SWAP5 PUSH1 0x11 SWAP8 PUSH2 0x100 SWAP10 SWAP8 PUSH1 0x1F NOT DUP2 AND LT PUSH2 0x17B6 JUMPI JUMPDEST POP POP POP DUP2 SHL ADD PUSH1 0x5 DUP5 ADD SSTORE PUSH2 0x1692 JUMP JUMPDEST ADD MLOAD PUSH1 0x0 NOT PUSH1 0xF8 DUP5 PUSH1 0x3 SHL AND SHR NOT AND SWAP1 SSTORE DUP12 DUP1 DUP1 PUSH2 0x17A6 JUMP JUMPDEST DUP3 DUP3 ADD MLOAD DUP11 SSTORE PUSH1 0x1 SWAP1 SWAP10 ADD SWAP9 PUSH1 0x20 SWAP3 DUP4 ADD SWAP3 ADD PUSH2 0x177C JUMP JUMPDEST ADD MLOAD SWAP1 POP DUP8 DUP1 PUSH2 0x160D JUMP JUMPDEST SWAP3 POP PUSH1 0x4 DUP5 ADD PUSH1 0x0 MSTORE PUSH1 0x20 PUSH1 0x0 KECCAK256 SWAP1 PUSH1 0x0 SWAP4 JUMPDEST PUSH1 0x1F NOT DUP5 AND DUP6 LT PUSH2 0x1849 JUMPI PUSH1 0x1 SWAP5 POP DUP4 PUSH1 0x1F NOT DUP2 AND LT PUSH2 0x1830 JUMPI JUMPDEST POP POP POP DUP2 SHL ADD PUSH1 0x4 DUP3 ADD SSTORE PUSH2 0x1625 JUMP JUMPDEST ADD MLOAD PUSH1 0x0 NOT PUSH1 0xF8 DUP5 PUSH1 0x3 SHL AND SHR NOT AND SWAP1 SSTORE DUP8 DUP1 DUP1 PUSH2 0x1820 JUMP JUMPDEST DUP2 DUP2 ADD MLOAD DUP4 SSTORE PUSH1 0x20 SWAP5 DUP6 ADD SWAP5 PUSH1 0x1 SWAP1 SWAP4 ADD SWAP3 SWAP1 SWAP2 ADD SWAP1 PUSH2 0x1805 JUMP JUMPDEST ADD MLOAD SWAP1 POP DUP8 DUP1 PUSH2 0x15AD JUMP JUMPDEST SWAP3 POP PUSH1 0x3 DUP5 ADD PUSH1 0x0 MSTORE PUSH1 0x20 PUSH1 0x0 KECCAK256 SWAP1 PUSH1 0x0 SWAP4 JUMPDEST PUSH1 0x1F NOT DUP5 AND DUP6 LT PUSH2 0x18C6 JUMPI PUSH1 0x1 SWAP5 POP DUP4 PUSH1 0x1F NOT DUP2 AND LT PUSH2 0x18AD JUMPI JUMPDEST POP POP POP DUP2 SHL ADD PUSH1 0x3 DUP3 ADD SSTORE PUSH2 0x15C5 JUMP JUMPDEST ADD MLOAD PUSH1 0x0 NOT PUSH1 0xF8 DUP5 PUSH1 0x3 SHL AND SHR NOT AND SWAP1 SSTORE DUP8 DUP1 DUP1 PUSH2 0x189D JUMP JUMPDEST DUP2 DUP2 ADD MLOAD DUP4 SSTORE PUSH1 0x20 SWAP5 DUP6 ADD SWAP5 PUSH1 0x1 SWAP1 SWAP4 ADD SWAP3 SWAP1 SWAP2 ADD SWAP1 PUSH2 0x1882 JUMP JUMPDEST ADD MLOAD SWAP1 POP DUP8 DUP1 PUSH2 0x154D JUMP JUMPDEST SWAP3 POP PUSH1 0x2 DUP5 ADD PUSH1 0x0 MSTORE PUSH1 0x20 PUSH1 0x0 KECCAK256 SWAP1 PUSH1 0x0 SWAP4 JUMPDEST PUSH1 0x1F NOT DUP5 AND DUP6 LT PUSH2 0x1943 JUMPI PUSH1 0x1 SWAP5 POP DUP4 PUSH1 0x1F NOT DUP2 AND LT PUSH2 0x192A JUMPI JUMPDEST POP POP POP DUP2 SHL ADD PUSH1 0x2 DUP3 ADD SSTORE PUSH2 0x1565 JUMP JUMPDEST ADD MLOAD PUSH1 0x0 NOT PUSH1 0xF8 DUP5 PUSH1 0x3 SHL AND SHR NOT AND SWAP1 SSTORE DUP8 DUP1 DUP1 PUSH2 0x191A JUMP JUMPDEST DUP2 DUP2 ADD MLOAD DUP4 SSTORE PUSH1 0x20 SWAP5 DUP6 ADD SWAP5 PUSH1 0x1 SWAP1 SWAP4 ADD SWAP3 SWAP1 SWAP2 ADD SWAP1 PUSH2 0x18FF JUMP JUMPDEST ADD MLOAD SWAP1 POP DUP8 DUP1 PUSH2 0x14ED JUMP JUMPDEST SWAP3 POP PUSH1 0x1 DUP5 ADD PUSH1 0x0 MSTORE PUSH1 0x20 PUSH1 0x0 KECCAK256 SWAP1 PUSH1 0x0 SWAP4 JUMPDEST PUSH1 0x1F NOT DUP5 AND DUP6 LT PUSH2 0x19C0 JUMPI PUSH1 0x1 SWAP5 POP DUP4 PUSH1 0x1F NOT DUP2 AND LT PUSH2 0x19A7 JUMPI JUMPDEST POP POP POP DUP2 SHL ADD PUSH1 0x1 DUP3 ADD SSTORE PUSH2 0x1505 JUMP JUMPDEST ADD MLOAD PUSH1 0x0 NOT PUSH1 0xF8 DUP5 PUSH1 0x3 SHL AND SHR NOT AND SWAP1 SSTORE DUP8 DUP1 DUP1 PUSH2 0x1997 JUMP JUMPDEST DUP2 DUP2 ADD MLOAD DUP4 SSTORE PUSH1 0x20 SWAP5 DUP6 ADD SWAP5 PUSH1 0x1 SWAP1 SWAP4 ADD SWAP3 SWAP1 SWAP2 ADD SWAP1 PUSH2 0x197C JUMP JUMPDEST CALLVALUE PUSH2 0x258 JUMPI PUSH2 0x55F PUSH2 0x19EC CALLDATASIZE PUSH2 0x3164 JUMP JUMPDEST PUSH1 0x40 MLOAD SWAP2 PUSH1 0x20 DUP4 ADD MSTORE PUSH1 0x40 DUP3 ADD MSTORE PUSH1 0x40 DUP2 MSTORE PUSH2 0x5D6 DUP2 PUSH2 0x30C6 JUMP JUMPDEST CALLVALUE PUSH2 0x258 JUMPI PUSH1 0x60 DUP1 PUSH1 0x3 NOT CALLDATASIZE ADD SLT PUSH2 0x258 JUMPI PUSH1 0x24 CALLDATALOAD SWAP1 PUSH1 0x4 CALLDATALOAD PUSH1 0x0 PUSH1 0x44 CALLDATALOAD PUSH2 0x1A2E DUP2 PUSH2 0x3CE6 JUMP JUMPDEST SWAP5 PUSH1 0x0 SWAP4 PUSH1 0x0 SWAP3 PUSH1 0x1 SWAP2 DUP3 SLOAD SWAP4 JUMPDEST DUP5 DUP2 LT PUSH2 0x1AAE JUMPI JUMPDEST POP POP POP POP POP PUSH2 0x1A52 DUP2 PUSH2 0x3CE6 JUMP JUMPDEST SWAP5 PUSH1 0x0 JUMPDEST DUP3 DUP2 LT PUSH2 0x1A85 JUMPI POP POP POP PUSH2 0x1A74 PUSH1 0x40 MLOAD SWAP5 DUP5 DUP7 SWAP6 DUP7 MSTORE DUP6 ADD SWAP1 PUSH2 0x32CB JUMP JUMPDEST SWAP2 ISZERO ISZERO PUSH1 0x20 DUP5 ADD MSTORE PUSH1 0x40 DUP4 ADD MSTORE SUB SWAP1 RETURN JUMPDEST DUP1 PUSH2 0x1A93 PUSH2 0x1AA9 SWAP3 DUP5 PUSH2 0x3D36 JUMP JUMPDEST MLOAD PUSH2 0x1A9E DUP3 DUP11 PUSH2 0x3D36 JUMP JUMPDEST MSTORE PUSH2 0xC76 DUP2 DUP10 PUSH2 0x3D36 JUMP JUMPDEST PUSH2 0x1A56 JUMP JUMPDEST PUSH2 0x1AB7 DUP2 PUSH2 0x3024 JUMP JUMPDEST SWAP1 SLOAD PUSH1 0x3 SWAP2 DUP3 SHL SHR PUSH1 0x0 MSTORE PUSH1 0xB PUSH1 0x20 SWAP2 DUP2 DUP4 MSTORE PUSH1 0x10 SWAP1 DUP2 PUSH1 0x40 PUSH1 0x0 KECCAK256 ADD SLOAD DUP7 GT ISZERO PUSH2 0x1AEF JUMPI JUMPDEST POP POP POP POP PUSH2 0x1AEA SWAP1 PUSH2 0x3AF1 JUMP JUMPDEST PUSH2 0x1A3C JUMP JUMPDEST SWAP1 SWAP2 SWAP3 SWAP4 SWAP9 SWAP10 DUP7 DUP12 LT PUSH1 0x0 EQ PUSH2 0x1BB0 JUMPI POP SWAP2 PUSH1 0x11 SWAP2 PUSH1 0xFF SWAP4 PUSH2 0x1B10 DUP12 PUSH2 0x3024 JUMP JUMPDEST SWAP1 SLOAD SWAP2 SHL SHR PUSH1 0x0 MSTORE DUP2 DUP6 MSTORE PUSH1 0x40 PUSH1 0x0 KECCAK256 SWAP2 PUSH1 0x40 MLOAD SWAP6 PUSH2 0x1B2E DUP8 PUSH2 0x3073 JUMP JUMPDEST DUP4 SLOAD DUP8 MSTORE PUSH2 0x1B3D DUP11 DUP6 ADD PUSH2 0x360E JUMP JUMPDEST SWAP1 DUP8 ADD MSTORE DUP3 ADD SLOAD PUSH1 0x40 DUP7 ADD MSTORE PUSH1 0xC DUP3 ADD SLOAD DUP14 DUP7 ADD MSTORE PUSH1 0xD DUP3 ADD SLOAD PUSH1 0x80 DUP7 ADD MSTORE PUSH1 0xE DUP3 ADD SLOAD PUSH1 0xA0 DUP7 ADD MSTORE PUSH1 0xF DUP3 ADD SLOAD PUSH1 0xC0 DUP7 ADD MSTORE DUP2 ADD SLOAD PUSH1 0xE0 DUP6 ADD MSTORE ADD SLOAD AND ISZERO ISZERO PUSH2 0x100 DUP3 ADD MSTORE PUSH2 0x1B8D DUP8 DUP12 PUSH2 0x3D36 JUMP JUMPDEST MSTORE PUSH2 0x1B98 DUP7 DUP11 PUSH2 0x3D36 JUMP JUMPDEST POP PUSH2 0x1AEA PUSH2 0x1BA6 DUP7 SWAP8 PUSH2 0x3AF1 JUMP JUMPDEST SWAP6 SWAP1 DUP12 DUP1 DUP1 PUSH2 0x1ADD JUMP JUMPDEST SWAP10 SWAP11 POP POP POP POP POP POP POP SWAP2 POP POP SWAP2 DUP6 DUP1 DUP1 DUP1 DUP1 PUSH2 0x1A44 JUMP JUMPDEST CALLVALUE PUSH2 0x258 JUMPI PUSH1 0x0 CALLDATASIZE PUSH1 0x3 NOT ADD SLT PUSH2 0x258 JUMPI PUSH1 0x1 DUP1 SLOAD PUSH2 0x1BE5 DUP2 PUSH2 0x3CE6 JUMP JUMPDEST SWAP2 PUSH1 0x0 JUMPDEST DUP3 DUP2 LT PUSH2 0x1C06 JUMPI PUSH1 0x40 MLOAD PUSH1 0x20 DUP1 DUP3 MSTORE DUP2 SWAP1 PUSH2 0x55F SWAP1 DUP3 ADD DUP8 PUSH2 0x32CB JUMP JUMPDEST DUP1 PUSH2 0x1C13 PUSH2 0x1CA9 SWAP3 PUSH2 0x3024 JUMP JUMPDEST SWAP1 SLOAD SWAP1 PUSH1 0x3 SHL SHR PUSH1 0x0 MSTORE PUSH1 0xB PUSH1 0xFF PUSH1 0x11 PUSH1 0x20 SWAP3 DUP1 DUP5 MSTORE PUSH1 0x40 PUSH1 0x0 KECCAK256 SWAP1 PUSH1 0x40 MLOAD SWAP5 PUSH2 0x1C3C DUP7 PUSH2 0x3073 JUMP JUMPDEST DUP3 SLOAD DUP7 MSTORE PUSH2 0x1C4B DUP10 DUP5 ADD PUSH2 0x360E JUMP JUMPDEST SWAP1 DUP7 ADD MSTORE DUP2 ADD SLOAD PUSH1 0x40 DUP6 ADD MSTORE PUSH1 0xC DUP2 ADD SLOAD PUSH1 0x60 DUP6 ADD MSTORE PUSH1 0xD DUP2 ADD SLOAD PUSH1 0x80 DUP6 ADD MSTORE PUSH1 0xE DUP2 ADD SLOAD PUSH1 0xA0 DUP6 ADD MSTORE PUSH1 0xF DUP2 ADD SLOAD PUSH1 0xC0 DUP6 ADD MSTORE PUSH1 0x10 DUP2 ADD SLOAD PUSH1 0xE0 DUP6 ADD MSTORE ADD SLOAD AND ISZERO ISZERO PUSH2 0x100 DUP3 ADD MSTORE PUSH2 0x1C9E DUP3 DUP8 PUSH2 0x3D36 JUMP JUMPDEST MSTORE PUSH2 0xC76 DUP2 DUP7 PUSH2 0x3D36 JUMP JUMPDEST PUSH2 0x1BE9 JUMP JUMPDEST CALLVALUE PUSH2 0x258 JUMPI PUSH1 0x20 CALLDATASIZE PUSH1 0x3 NOT ADD SLT PUSH2 0x258 JUMPI PUSH1 0x4 CALLDATALOAD PUSH1 0x1 PUSH1 0x1 PUSH1 0x40 SHL SUB DUP2 GT PUSH2 0x258 JUMPI PUSH2 0x1CDE SWAP1 CALLDATASIZE SWAP1 PUSH1 0x4 ADD PUSH2 0x311D JUMP JUMPDEST POP PUSH1 0x20 PUSH1 0x40 MLOAD PUSH1 0x1 DUP2 MSTORE RETURN JUMPDEST CALLVALUE PUSH2 0x258 JUMPI PUSH2 0x1CF8 CALLDATASIZE PUSH2 0x333E JUMP JUMPDEST DUP3 MLOAD PUSH1 0x40 MLOAD PUSH1 0x60 DUP4 SWAP1 SHL PUSH12 0xFFFFFFFFFFFFFFFFFFFFFFFF NOT AND PUSH1 0x20 DUP3 ADD SWAP1 DUP2 MSTORE PUSH1 0x34 DUP3 ADD SWAP3 SWAP1 SWAP3 MSTORE TIMESTAMP PUSH1 0x54 DUP3 ADD MSTORE PUSH2 0x1D3D DUP2 PUSH1 0x74 DUP2 ADD JUMPDEST SUB PUSH1 0x1F NOT DUP2 ADD DUP4 MSTORE DUP3 PUSH2 0x30E1 JUMP JUMPDEST MLOAD SWAP1 KECCAK256 PUSH1 0x0 SWAP4 DUP5 JUMPDEST DUP2 MLOAD DUP7 LT ISZERO PUSH2 0x1EC3 JUMPI PUSH2 0x1D58 DUP7 DUP4 PUSH2 0x3D36 JUMP JUMPDEST MLOAD SWAP6 DUP7 MLOAD PUSH1 0x0 MSTORE PUSH1 0xB SWAP2 DUP3 PUSH1 0x20 MSTORE PUSH2 0x1D76 PUSH1 0x40 PUSH1 0x0 KECCAK256 SLOAD ISZERO ISZERO PUSH2 0x3D4A JUMP JUMPDEST PUSH1 0x40 DUP9 ADD SWAP1 PUSH1 0x4 DUP3 MLOAD LT DUP1 ISZERO PUSH2 0x920 JUMPI PUSH2 0x1D8F SWAP1 PUSH2 0x3DE2 JUMP JUMPDEST DUP9 MLOAD PUSH1 0x0 MSTORE DUP4 PUSH1 0x20 MSTORE PUSH1 0x40 PUSH1 0x0 KECCAK256 SWAP4 DUP5 ADD SWAP1 PUSH2 0x1DAD DUP3 SLOAD ISZERO ISZERO PUSH2 0x3E2E JUMP JUMPDEST DUP3 MLOAD PUSH1 0x4 DUP2 LT ISZERO PUSH2 0x920 JUMPI PUSH2 0x1EAD JUMPI PUSH2 0x1DF6 PUSH2 0x1DFC SWAP3 PUSH1 0x20 DUP13 ADD SWAP1 PUSH2 0x1DD4 DUP3 MLOAD DUP3 SLOAD PUSH2 0x3B63 JUMP JUMPDEST SWAP1 SSTORE DUP1 MLOAD PUSH2 0x1DE7 PUSH1 0xC DUP10 ADD SWAP2 DUP3 SLOAD PUSH2 0x3E7A JUMP JUMPDEST SWAP1 SSTORE PUSH1 0x6 DUP8 ADD SLOAD SWAP1 MLOAD SWAP1 PUSH2 0x3E87 JUMP JUMPDEST SWAP1 PUSH2 0x3E7A JUMP JUMPDEST SWAP8 JUMPDEST PUSH1 0x6 PUSH1 0x20 DUP3 ADD MLOAD SWAP5 ADD SLOAD SWAP2 MLOAD PUSH1 0x4 DUP2 LT ISZERO PUSH2 0x920 JUMPI PUSH2 0x1EA7 SWAP5 PUSH32 0xD0CB37444E42A97B69191186CAC71D299BF85A8F4472C9E55CD9F7EB26C5B1E SWAP4 PUSH2 0x1E75 DUP11 SWAP4 PUSH2 0x1E9F SWAP6 MLOAD SWAP3 PUSH1 0x1 DUP1 PUSH1 0xA0 SHL SUB SWAP5 DUP6 PUSH1 0x2 SLOAD AND SWAP6 PUSH1 0x40 MLOAD SWAP8 PUSH2 0x1E5F DUP10 PUSH2 0x3073 JUMP JUMPDEST AND DUP8 MSTORE PUSH1 0x20 DUP8 ADD MSTORE PUSH1 0x40 DUP7 ADD MSTORE PUSH1 0x60 DUP6 ADD PUSH2 0x3E9A JUMP JUMPDEST TIMESTAMP PUSH1 0x80 DUP5 ADD MSTORE PUSH1 0xA0 DUP4 ADD MSTORE CALLER PUSH1 0xC0 DUP4 ADD MSTORE PUSH1 0xE0 DUP3 ADD MSTORE PUSH1 0x0 PUSH2 0x100 DUP3 ADD MSTORE PUSH1 0x40 MLOAD SWAP2 DUP3 SWAP2 DUP3 PUSH2 0x3EA6 JUMP JUMPDEST SUB SWAP1 LOG1 PUSH2 0x3AF1 JUMP JUMPDEST SWAP5 PUSH2 0x1D45 JUMP JUMPDEST PUSH2 0x1EBD SWAP2 POP PUSH2 0x1DF6 DUP9 DUP9 DUP13 PUSH2 0x3F31 JUMP JUMPDEST SWAP8 PUSH2 0x1DFE JUMP JUMPDEST PUSH1 0x4 DUP1 SLOAD PUSH1 0x2 SLOAD PUSH1 0x40 MLOAD PUSH4 0x23B872DD PUSH1 0xE0 SHL DUP2 MSTORE CALLER SWAP4 DUP2 ADD SWAP4 SWAP1 SWAP4 MSTORE PUSH1 0x1 PUSH1 0x1 PUSH1 0xA0 SHL SUB SWAP1 DUP2 AND PUSH1 0x24 DUP5 ADD MSTORE PUSH1 0x44 DUP4 ADD SWAP4 SWAP1 SWAP4 MSTORE SWAP3 SWAP5 SWAP3 PUSH1 0x20 SWAP1 DUP3 SWAP1 PUSH1 0x64 SWAP1 DUP3 SWAP1 PUSH1 0x0 SWAP1 DUP8 AND GAS CALL SWAP1 DUP2 ISZERO PUSH2 0x963 JUMPI PUSH1 0x0 SWAP2 PUSH2 0x2814 JUMPI JUMPDEST POP ISZERO PUSH2 0x27D7 JUMPI PUSH1 0x40 MLOAD SWAP4 PUSH2 0x1F2D DUP6 PUSH2 0x308F JUMP JUMPDEST DUP4 DUP6 MSTORE PUSH1 0x20 DUP6 ADD SWAP6 DUP3 DUP5 AND DUP8 MSTORE PUSH1 0x40 DUP7 ADD SWAP2 DUP3 MSTORE TIMESTAMP PUSH1 0x60 DUP8 ADD MSTORE PUSH1 0x80 DUP7 ADD MSTORE PUSH1 0x5 PUSH1 0xA0 DUP7 ADD MSTORE DUP4 PUSH1 0x0 MSTORE PUSH1 0xA PUSH1 0x20 MSTORE PUSH1 0x40 PUSH1 0x0 KECCAK256 SWAP6 DUP6 MLOAD DUP8 SSTORE DUP3 PUSH1 0x1 DUP9 ADD SWAP2 MLOAD AND PUSH1 0x1 PUSH1 0x1 PUSH1 0x60 SHL SUB PUSH1 0xA0 SHL DUP3 SLOAD AND OR SWAP1 SSTORE MLOAD DUP1 MLOAD SWAP1 PUSH1 0x1 PUSH1 0x40 SHL DUP3 GT PUSH2 0x12AE JUMPI PUSH1 0x2 DUP8 ADD SLOAD DUP3 PUSH1 0x2 DUP10 ADD SSTORE DUP1 DUP4 LT PUSH2 0x2768 JUMPI JUMPDEST POP PUSH1 0x20 ADD SWAP1 PUSH1 0x2 DUP8 ADD PUSH1 0x0 MSTORE PUSH1 0x20 PUSH1 0x0 KECCAK256 PUSH1 0x0 SWAP3 JUMPDEST DUP3 DUP5 LT PUSH2 0x2725 JUMPI POP POP POP POP PUSH1 0x60 DUP5 ADD MLOAD PUSH1 0x3 DUP7 ADD SSTORE PUSH1 0x80 DUP5 ADD MLOAD DUP1 MLOAD DUP1 MLOAD PUSH1 0x1 PUSH1 0x1 PUSH1 0x40 SHL SUB DUP2 GT PUSH2 0x12AE JUMPI DUP1 PUSH1 0x4 DUP10 ADD SWAP3 PUSH2 0x1FFC DUP3 PUSH2 0x1FF6 DUP7 SLOAD PUSH2 0x353E JUMP JUMPDEST DUP7 PUSH2 0x3A0D JUMP JUMPDEST PUSH1 0x20 SWAP1 PUSH1 0x1F DUP4 GT PUSH1 0x1 EQ PUSH2 0x26BF JUMPI PUSH1 0x0 SWAP3 PUSH2 0x26B4 JUMPI JUMPDEST POP POP DUP2 PUSH1 0x1 SHL SWAP2 PUSH1 0x0 NOT SWAP1 PUSH1 0x3 SHL SHR NOT AND OR SWAP1 SSTORE JUMPDEST PUSH1 0x20 DUP2 ADD MLOAD DUP1 MLOAD PUSH1 0x1 PUSH1 0x1 PUSH1 0x40 SHL SUB DUP2 GT PUSH2 0x12AE JUMPI DUP1 PUSH1 0x5 DUP10 ADD SWAP3 PUSH2 0x2050 DUP3 PUSH2 0x1FF6 DUP7 SLOAD PUSH2 0x353E JUMP JUMPDEST PUSH1 0x20 SWAP1 PUSH1 0x1F DUP4 GT PUSH1 0x1 EQ PUSH2 0x264E JUMPI PUSH1 0x0 SWAP3 PUSH2 0x2643 JUMPI JUMPDEST POP POP DUP2 PUSH1 0x1 SHL SWAP2 PUSH1 0x0 NOT SWAP1 PUSH1 0x3 SHL SHR NOT AND OR SWAP1 SSTORE JUMPDEST PUSH1 0x40 DUP2 ADD MLOAD DUP1 MLOAD PUSH1 0x1 PUSH1 0x1 PUSH1 0x40 SHL SUB DUP2 GT PUSH2 0x12AE JUMPI DUP1 PUSH1 0x6 DUP10 ADD SWAP3 PUSH2 0x20A4 DUP3 PUSH2 0x1FF6 DUP7 SLOAD PUSH2 0x353E JUMP JUMPDEST PUSH1 0x20 SWAP1 PUSH1 0x1F DUP4 GT PUSH1 0x1 EQ PUSH2 0x25DD JUMPI PUSH1 0x0 SWAP3 PUSH2 0x25D2 JUMPI JUMPDEST POP POP DUP2 PUSH1 0x1 SHL SWAP2 PUSH1 0x0 NOT SWAP1 PUSH1 0x3 SHL SHR NOT AND OR SWAP1 SSTORE JUMPDEST PUSH1 0x60 DUP2 ADD MLOAD DUP1 MLOAD PUSH1 0x1 PUSH1 0x1 PUSH1 0x40 SHL SUB DUP2 GT PUSH2 0x12AE JUMPI DUP1 PUSH1 0x7 DUP10 ADD SWAP3 PUSH2 0x20F8 DUP3 PUSH2 0x1FF6 DUP7 SLOAD PUSH2 0x353E JUMP JUMPDEST PUSH1 0x20 SWAP1 PUSH1 0x1F DUP4 GT PUSH1 0x1 EQ PUSH2 0x256C JUMPI PUSH1 0x0 SWAP3 PUSH2 0x2561 JUMPI JUMPDEST POP POP DUP2 PUSH1 0x1 SHL SWAP2 PUSH1 0x0 NOT SWAP1 PUSH1 0x3 SHL SHR NOT AND OR SWAP1 SSTORE JUMPDEST PUSH1 0x80 DUP2 ADD MLOAD DUP1 MLOAD PUSH1 0x1 PUSH1 0x1 PUSH1 0x40 SHL SUB DUP2 GT PUSH2 0x12AE JUMPI DUP1 PUSH1 0x8 DUP10 ADD SWAP3 PUSH2 0x214C DUP3 PUSH2 0x1FF6 DUP7 SLOAD PUSH2 0x353E JUMP JUMPDEST PUSH1 0x20 SWAP1 PUSH1 0x1F DUP4 GT PUSH1 0x1 EQ PUSH2 0x24FB JUMPI PUSH1 0x0 SWAP3 PUSH2 0x24F0 JUMPI JUMPDEST POP POP DUP2 PUSH1 0x1 SHL SWAP2 PUSH1 0x0 NOT SWAP1 PUSH1 0x3 SHL SHR NOT AND OR SWAP1 SSTORE JUMPDEST PUSH1 0xA0 DUP2 ADD MLOAD DUP1 MLOAD PUSH1 0x1 PUSH1 0x1 PUSH1 0x40 SHL SUB DUP2 GT PUSH2 0x12AE JUMPI DUP1 PUSH1 0x9 DUP10 ADD SWAP3 PUSH2 0x21A0 DUP3 PUSH2 0x1FF6 DUP7 SLOAD PUSH2 0x353E JUMP JUMPDEST PUSH1 0x20 SWAP1 PUSH1 0x1F DUP4 GT PUSH1 0x1 EQ PUSH2 0x248A JUMPI PUSH1 0x0 SWAP3 PUSH2 0x247F JUMPI JUMPDEST POP POP DUP2 PUSH1 0x1 SHL SWAP2 PUSH1 0x0 NOT SWAP1 PUSH1 0x3 SHL SHR NOT AND OR SWAP1 SSTORE JUMPDEST PUSH1 0xC0 DUP2 ADD MLOAD DUP1 MLOAD PUSH1 0x1 PUSH1 0x1 PUSH1 0x40 SHL SUB DUP2 GT PUSH2 0x12AE JUMPI DUP1 PUSH1 0xA DUP10 ADD SWAP3 PUSH2 0x21F4 DUP3 PUSH2 0x1FF6 DUP7 SLOAD PUSH2 0x353E JUMP JUMPDEST PUSH1 0x20 SWAP1 PUSH1 0x1F DUP4 GT PUSH1 0x1 EQ PUSH2 0x2419 JUMPI PUSH1 0x0 SWAP3 PUSH2 0x240E JUMPI JUMPDEST POP POP DUP2 PUSH1 0x1 SHL SWAP2 PUSH1 0x0 NOT SWAP1 PUSH1 0x3 SHL SHR NOT AND OR SWAP1 SSTORE JUMPDEST PUSH1 0xE0 DUP2 ADD MLOAD DUP1 MLOAD PUSH1 0x1 PUSH1 0x1 PUSH1 0x40 SHL SUB DUP2 GT PUSH2 0x12AE JUMPI PUSH1 0xB DUP9 ADD SWAP2 PUSH2 0x224D DUP3 PUSH2 0x2247 DUP6 SLOAD PUSH2 0x353E JUMP JUMPDEST DUP6 PUSH2 0x3A0D JUMP JUMPDEST PUSH1 0x20 SWAP1 PUSH1 0x1F DUP4 GT PUSH1 0x1 EQ PUSH2 0x23A1 JUMPI PUSH2 0x100 SWAP5 SWAP4 SWAP3 SWAP2 PUSH1 0x0 SWAP2 DUP4 PUSH2 0x2396 JUMPI JUMPDEST POP POP DUP2 PUSH1 0x1 SHL SWAP2 PUSH1 0x0 NOT SWAP1 PUSH1 0x3 SHL SHR NOT AND OR SWAP1 SSTORE JUMPDEST ADD MLOAD SWAP5 DUP6 MLOAD PUSH1 0x1 PUSH1 0x1 PUSH1 0x40 SHL SUB DUP2 GT PUSH2 0x12AE JUMPI PUSH1 0x20 SWAP7 PUSH2 0x22B0 DUP3 PUSH2 0x22A7 PUSH1 0xC DUP7 ADD SLOAD PUSH2 0x353E JUMP JUMPDEST PUSH1 0xC DUP7 ADD PUSH2 0x3A0D JUMP JUMPDEST DUP8 SWAP1 PUSH1 0x1F DUP4 GT PUSH1 0x1 EQ PUSH2 0x231F JUMPI SWAP7 DUP3 PUSH1 0xD SWAP4 PUSH1 0xA0 SWAP4 PUSH2 0x230B SWAP10 SWAP11 PUSH1 0x0 SWAP3 PUSH2 0x2314 JUMPI JUMPDEST POP POP DUP2 PUSH1 0x1 SHL SWAP2 PUSH1 0x0 NOT SWAP1 PUSH1 0x3 SHL SHR NOT AND OR PUSH1 0xC DUP6 ADD SSTORE JUMPDEST ADD MLOAD SWAP2 ADD SSTORE DUP2 AND PUSH1 0x0 MSTORE PUSH1 0xE DUP5 MSTORE PUSH2 0x2306 DUP4 PUSH1 0x40 PUSH1 0x0 KECCAK256 PUSH2 0x3ACF JUMP JUMPDEST PUSH2 0x3926 JUMP JUMPDEST PUSH2 0xD58 DUP2 PUSH2 0x3A61 JUMP JUMPDEST ADD MLOAD SWAP1 POP DUP12 DUP1 PUSH2 0x22D2 JUMP JUMPDEST SWAP1 PUSH1 0xC DUP5 ADD PUSH1 0x0 MSTORE DUP9 PUSH1 0x0 KECCAK256 SWAP2 PUSH1 0x0 JUMPDEST PUSH1 0x1F NOT DUP6 AND DUP2 LT PUSH2 0x237F JUMPI POP DUP4 PUSH1 0xA0 SWAP4 PUSH2 0x230B SWAP10 SWAP11 SWAP4 PUSH1 0x1 SWAP4 PUSH1 0xD SWAP8 PUSH1 0x1F NOT DUP2 AND LT PUSH2 0x2366 JUMPI JUMPDEST POP POP POP DUP2 SHL ADD PUSH1 0xC DUP6 ADD SSTORE PUSH2 0x22EA JUMP JUMPDEST ADD MLOAD PUSH1 0x0 NOT PUSH1 0xF8 DUP5 PUSH1 0x3 SHL AND SHR NOT AND SWAP1 SSTORE DUP12 DUP1 DUP1 PUSH2 0x2356 JUMP JUMPDEST SWAP2 SWAP3 DUP11 PUSH1 0x1 DUP2 SWAP3 DUP7 DUP6 ADD MLOAD DUP2 SSTORE ADD SWAP5 ADD SWAP3 ADD PUSH2 0x232F JUMP JUMPDEST ADD MLOAD SWAP1 POP DUP11 DUP1 PUSH2 0x226B JUMP JUMPDEST SWAP1 PUSH1 0x1F NOT DUP4 AND SWAP2 DUP5 PUSH1 0x0 MSTORE PUSH1 0x20 PUSH1 0x0 KECCAK256 SWAP3 PUSH1 0x0 JUMPDEST DUP2 DUP2 LT PUSH2 0x23F6 JUMPI POP SWAP2 PUSH1 0x1 SWAP4 SWAP2 DUP6 PUSH2 0x100 SWAP9 SWAP8 SWAP7 SWAP5 LT PUSH2 0x23DD JUMPI JUMPDEST POP POP POP DUP2 SHL ADD SWAP1 SSTORE PUSH2 0x2280 JUMP JUMPDEST ADD MLOAD PUSH1 0x0 NOT PUSH1 0xF8 DUP5 PUSH1 0x3 SHL AND SHR NOT AND SWAP1 SSTORE DUP11 DUP1 DUP1 PUSH2 0x23D0 JUMP JUMPDEST SWAP3 SWAP4 PUSH1 0x20 PUSH1 0x1 DUP2 SWAP3 DUP8 DUP7 ADD MLOAD DUP2 SSTORE ADD SWAP6 ADD SWAP4 ADD PUSH2 0x23B5 JUMP JUMPDEST ADD MLOAD SWAP1 POP DUP10 DUP1 PUSH2 0x220A JUMP JUMPDEST PUSH1 0x0 DUP6 DUP2 MSTORE PUSH1 0x20 DUP2 KECCAK256 SWAP4 POP PUSH1 0x1F NOT DUP6 AND SWAP1 JUMPDEST DUP2 DUP2 LT PUSH2 0x2467 JUMPI POP SWAP1 DUP5 PUSH1 0x1 SWAP6 SWAP5 SWAP4 SWAP3 LT PUSH2 0x244E JUMPI JUMPDEST POP POP POP DUP2 SHL ADD SWAP1 SSTORE PUSH2 0x221F JUMP JUMPDEST ADD MLOAD PUSH1 0x0 NOT PUSH1 0xF8 DUP5 PUSH1 0x3 SHL AND SHR NOT AND SWAP1 SSTORE DUP10 DUP1 DUP1 PUSH2 0x2441 JUMP JUMPDEST SWAP3 SWAP4 PUSH1 0x20 PUSH1 0x1 DUP2 SWAP3 DUP8 DUP7 ADD MLOAD DUP2 SSTORE ADD SWAP6 ADD SWAP4 ADD PUSH2 0x242B JUMP JUMPDEST ADD MLOAD SWAP1 POP DUP10 DUP1 PUSH2 0x21B6 JUMP JUMPDEST PUSH1 0x0 DUP6 DUP2 MSTORE PUSH1 0x20 DUP2 KECCAK256 SWAP4 POP PUSH1 0x1F NOT DUP6 AND SWAP1 JUMPDEST DUP2 DUP2 LT PUSH2 0x24D8 JUMPI POP SWAP1 DUP5 PUSH1 0x1 SWAP6 SWAP5 SWAP4 SWAP3 LT PUSH2 0x24BF JUMPI JUMPDEST POP POP POP DUP2 SHL ADD SWAP1 SSTORE PUSH2 0x21CB JUMP JUMPDEST ADD MLOAD PUSH1 0x0 NOT PUSH1 0xF8 DUP5 PUSH1 0x3 SHL AND SHR NOT AND SWAP1 SSTORE DUP10 DUP1 DUP1 PUSH2 0x24B2 JUMP JUMPDEST SWAP3 SWAP4 PUSH1 0x20 PUSH1 0x1 DUP2 SWAP3 DUP8 DUP7 ADD MLOAD DUP2 SSTORE ADD SWAP6 ADD SWAP4 ADD PUSH2 0x249C JUMP JUMPDEST ADD MLOAD SWAP1 POP DUP10 DUP1 PUSH2 0x2162 JUMP JUMPDEST PUSH1 0x0 DUP6 DUP2 MSTORE PUSH1 0x20 DUP2 KECCAK256 SWAP4 POP PUSH1 0x1F NOT DUP6 AND SWAP1 JUMPDEST DUP2 DUP2 LT PUSH2 0x2549 JUMPI POP SWAP1 DUP5 PUSH1 0x1 SWAP6 SWAP5 SWAP4 SWAP3 LT PUSH2 0x2530 JUMPI JUMPDEST POP POP POP DUP2 SHL ADD SWAP1 SSTORE PUSH2 0x2177 JUMP JUMPDEST ADD MLOAD PUSH1 0x0 NOT PUSH1 0xF8 DUP5 PUSH1 0x3 SHL AND SHR NOT AND SWAP1 SSTORE DUP10 DUP1 DUP1 PUSH2 0x2523 JUMP JUMPDEST SWAP3 SWAP4 PUSH1 0x20 PUSH1 0x1 DUP2 SWAP3 DUP8 DUP7 ADD MLOAD DUP2 SSTORE ADD SWAP6 ADD SWAP4 ADD PUSH2 0x250D JUMP JUMPDEST ADD MLOAD SWAP1 POP DUP10 DUP1 PUSH2 0x210E JUMP JUMPDEST PUSH1 0x0 DUP6 DUP2 MSTORE PUSH1 0x20 DUP2 KECCAK256 SWAP4 POP PUSH1 0x1F NOT DUP6 AND SWAP1 JUMPDEST DUP2 DUP2 LT PUSH2 0x25BA JUMPI POP SWAP1 DUP5 PUSH1 0x1 SWAP6 SWAP5 SWAP4 SWAP3 LT PUSH2 0x25A1 JUMPI JUMPDEST POP POP POP DUP2 SHL ADD SWAP1 SSTORE PUSH2 0x2123 JUMP JUMPDEST ADD MLOAD PUSH1 0x0 NOT PUSH1 0xF8 DUP5 PUSH1 0x3 SHL AND SHR NOT AND SWAP1 SSTORE DUP10 DUP1 DUP1 PUSH2 0x2594 JUMP JUMPDEST SWAP3 SWAP4 PUSH1 0x20 PUSH1 0x1 DUP2 SWAP3 DUP8 DUP7 ADD MLOAD DUP2 SSTORE ADD SWAP6 ADD SWAP4 ADD PUSH2 0x257E JUMP JUMPDEST ADD MLOAD SWAP1 POP DUP10 DUP1 PUSH2 0x20BA JUMP JUMPDEST PUSH1 0x0 DUP6 DUP2 MSTORE PUSH1 0x20 DUP2 KECCAK256 SWAP4 POP PUSH1 0x1F NOT DUP6 AND SWAP1 JUMPDEST DUP2 DUP2 LT PUSH2 0x262B JUMPI POP SWAP1 DUP5 PUSH1 0x1 SWAP6 SWAP5 SWAP4 SWAP3 LT PUSH2 0x2612 JUMPI JUMPDEST POP POP POP DUP2 SHL ADD SWAP1 SSTORE PUSH2 0x20CF JUMP JUMPDEST ADD MLOAD PUSH1 0x0 NOT PUSH1 0xF8 DUP5 PUSH1 0x3 SHL AND SHR NOT AND SWAP1 SSTORE DUP10 DUP1 DUP1 PUSH2 0x2605 JUMP JUMPDEST SWAP3 SWAP4 PUSH1 0x20 PUSH1 0x1 DUP2 SWAP3 DUP8 DUP7 ADD MLOAD DUP2 SSTORE ADD SWAP6 ADD SWAP4 ADD PUSH2 0x25EF JUMP JUMPDEST ADD MLOAD SWAP1 POP DUP10 DUP1 PUSH2 0x2066 JUMP JUMPDEST PUSH1 0x0 DUP6 DUP2 MSTORE PUSH1 0x20 DUP2 KECCAK256 SWAP4 POP PUSH1 0x1F NOT DUP6 AND SWAP1 JUMPDEST DUP2 DUP2 LT PUSH2 0x269C JUMPI POP SWAP1 DUP5 PUSH1 0x1 SWAP6 SWAP5 SWAP4 SWAP3 LT PUSH2 0x2683 JUMPI JUMPDEST POP POP POP DUP2 SHL ADD SWAP1 SSTORE PUSH2 0x207B JUMP JUMPDEST ADD MLOAD PUSH1 0x0 NOT PUSH1 0xF8 DUP5 PUSH1 0x3 SHL AND SHR NOT AND SWAP1 SSTORE DUP10 DUP1 DUP1 PUSH2 0x2676 JUMP JUMPDEST SWAP3 SWAP4 PUSH1 0x20 PUSH1 0x1 DUP2 SWAP3 DUP8 DUP7 ADD MLOAD DUP2 SSTORE ADD SWAP6 ADD SWAP4 ADD PUSH2 0x2660 JUMP JUMPDEST ADD MLOAD SWAP1 POP DUP10 DUP1 PUSH2 0x2012 JUMP JUMPDEST PUSH1 0x0 DUP6 DUP2 MSTORE PUSH1 0x20 DUP2 KECCAK256 SWAP4 POP PUSH1 0x1F NOT DUP6 AND SWAP1 JUMPDEST DUP2 DUP2 LT PUSH2 0x270D JUMPI POP SWAP1 DUP5 PUSH1 0x1 SWAP6 SWAP5 SWAP4 SWAP3 LT PUSH2 0x26F4 JUMPI JUMPDEST POP POP POP DUP2 SHL ADD SWAP1 SSTORE PUSH2 0x2027 JUMP JUMPDEST ADD MLOAD PUSH1 0x0 NOT PUSH1 0xF8 DUP5 PUSH1 0x3 SHL AND SHR NOT AND SWAP1 SSTORE DUP10 DUP1 DUP1 PUSH2 0x26E7 JUMP JUMPDEST SWAP3 SWAP4 PUSH1 0x20 PUSH1 0x1 DUP2 SWAP3 DUP8 DUP7 ADD MLOAD DUP2 SSTORE ADD SWAP6 ADD SWAP4 ADD PUSH2 0x26D1 JUMP JUMPDEST PUSH1 0x40 DUP2 MLOAD DUP1 MLOAD DUP5 SSTORE PUSH1 0x20 DUP2 ADD MLOAD PUSH1 0x1 DUP6 ADD SSTORE ADD MLOAD SWAP1 PUSH1 0x4 DUP3 LT ISZERO PUSH2 0x920 JUMPI PUSH1 0x20 PUSH1 0x3 SWAP2 PUSH1 0x1 SWAP4 PUSH1 0x2 DUP7 ADD SWAP1 PUSH1 0xFF DUP1 NOT DUP4 SLOAD AND SWAP2 AND OR SWAP1 SSTORE ADD SWAP3 ADD SWAP4 ADD SWAP3 SWAP1 PUSH2 0x1FB6 JUMP JUMPDEST PUSH1 0x3 DUP2 DUP2 MUL DIV DUP2 SUB PUSH2 0x27C1 JUMPI PUSH1 0x3 DUP4 DUP2 MUL DIV DUP4 SUB PUSH2 0x27C1 JUMPI PUSH1 0x2 DUP9 ADD PUSH1 0x0 MSTORE PUSH1 0x20 PUSH1 0x0 KECCAK256 DUP4 PUSH1 0x3 MUL DUP2 ADD JUMPDEST DUP3 PUSH1 0x3 MUL DUP3 ADD DUP2 LT PUSH2 0x27A6 JUMPI POP POP PUSH2 0x1FA1 JUMP JUMPDEST DUP1 PUSH1 0x0 PUSH1 0x3 SWAP3 SSTORE PUSH1 0x0 PUSH1 0x1 DUP3 ADD SSTORE PUSH1 0x0 PUSH1 0x2 DUP3 ADD SSTORE ADD PUSH2 0x2793 JUMP JUMPDEST PUSH4 0x4E487B71 PUSH1 0xE0 SHL PUSH1 0x0 MSTORE PUSH1 0x11 PUSH1 0x4 MSTORE PUSH1 0x24 PUSH1 0x0 REVERT JUMPDEST PUSH1 0x40 MLOAD PUSH3 0x461BCD PUSH1 0xE5 SHL DUP2 MSTORE PUSH1 0x20 PUSH1 0x4 DUP3 ADD MSTORE PUSH1 0x15 PUSH1 0x24 DUP3 ADD MSTORE PUSH21 0x151BDAD95B881D1C985B9CD9995C8819985A5B1959 PUSH1 0x5A SHL PUSH1 0x44 DUP3 ADD MSTORE PUSH1 0x64 SWAP1 REVERT JUMPDEST PUSH2 0x282D SWAP2 POP PUSH1 0x20 RETURNDATASIZE PUSH1 0x20 GT PUSH2 0x95C JUMPI PUSH2 0x94D DUP2 DUP4 PUSH2 0x30E1 JUMP JUMPDEST DUP7 PUSH2 0x1F1A JUMP JUMPDEST CALLVALUE PUSH2 0x258 JUMPI PUSH1 0x20 CALLDATASIZE PUSH1 0x3 NOT ADD SLT PUSH2 0x258 JUMPI PUSH1 0x4 CALLDATALOAD PUSH1 0x6 SLOAD DUP2 LT ISZERO PUSH2 0x258 JUMPI PUSH1 0x6 PUSH1 0x0 MSTORE PUSH32 0xF652222313E28459528D920B65115C16C04F3EFC82AAEDC97BE59F3F377C0D3F ADD SLOAD PUSH1 0x40 MLOAD PUSH1 0x1 PUSH1 0x1 PUSH1 0xA0 SHL SUB SWAP1 SWAP2 AND DUP2 MSTORE PUSH1 0x20 SWAP1 RETURN JUMPDEST CALLVALUE PUSH2 0x258 JUMPI PUSH1 0x0 CALLDATASIZE PUSH1 0x3 NOT ADD SLT PUSH2 0x258 JUMPI PUSH1 0x20 PUSH1 0x7 SLOAD PUSH1 0x40 MLOAD SWAP1 DUP2 MSTORE RETURN JUMPDEST CALLVALUE PUSH2 0x258 JUMPI PUSH1 0x0 CALLDATASIZE PUSH1 0x3 NOT ADD SLT PUSH2 0x258 JUMPI CALLER PUSH1 0x0 MSTORE PUSH1 0x20 PUSH1 0x8 DUP2 MSTORE PUSH1 0x1 SWAP1 PUSH1 0xFF SWAP2 PUSH2 0x28E1 DUP2 DUP5 PUSH1 0x40 PUSH1 0x0 KECCAK256 SLOAD AND ISZERO ISZERO EQ PUSH2 0x398A JUMP JUMPDEST PUSH1 0x0 SLOAD SWAP1 PUSH2 0x28EE DUP3 PUSH2 0x3CE6 JUMP JUMPDEST SWAP4 PUSH1 0x0 JUMPDEST DUP4 DUP2 LT PUSH2 0x290C JUMPI PUSH1 0x40 MLOAD DUP6 DUP2 MSTORE DUP1 PUSH2 0x55F DUP2 DUP9 ADD DUP10 PUSH2 0x32CB JUMP JUMPDEST DUP1 PUSH2 0x2919 PUSH2 0x29AA SWAP3 PUSH2 0x2FDA JUMP JUMPDEST SWAP1 SLOAD SWAP1 PUSH1 0x3 SHL SHR PUSH1 0x0 MSTORE PUSH1 0xB DUP1 DUP8 MSTORE DUP4 PUSH1 0x11 PUSH1 0x40 PUSH1 0x0 KECCAK256 PUSH1 0x40 MLOAD SWAP4 PUSH2 0x293D DUP6 PUSH2 0x3073 JUMP JUMPDEST DUP2 SLOAD DUP6 MSTORE PUSH2 0x294C DUP10 DUP4 ADD PUSH2 0x360E JUMP JUMPDEST DUP12 DUP7 ADD MSTORE DUP2 ADD SLOAD PUSH1 0x40 DUP6 ADD MSTORE PUSH1 0xC DUP2 ADD SLOAD PUSH1 0x60 DUP6 ADD MSTORE PUSH1 0xD DUP2 ADD SLOAD PUSH1 0x80 DUP6 ADD MSTORE PUSH1 0xE DUP2 ADD SLOAD PUSH1 0xA0 DUP6 ADD MSTORE PUSH1 0xF DUP2 ADD SLOAD PUSH1 0xC0 DUP6 ADD MSTORE PUSH1 0x10 DUP2 ADD SLOAD PUSH1 0xE0 DUP6 ADD MSTORE ADD SLOAD AND ISZERO ISZERO PUSH2 0x100 DUP3 ADD MSTORE PUSH2 0x299F DUP3 DUP10 PUSH2 0x3D36 JUMP JUMPDEST MSTORE PUSH2 0xC76 DUP2 DUP9 PUSH2 0x3D36 JUMP JUMPDEST PUSH2 0x28F2 JUMP JUMPDEST CALLVALUE PUSH2 0x258 JUMPI PUSH1 0x20 CALLDATASIZE PUSH1 0x3 NOT ADD SLT PUSH2 0x258 JUMPI CALLER PUSH1 0x0 MSTORE PUSH1 0x8 PUSH1 0x20 MSTORE PUSH2 0x29DF PUSH1 0x1 PUSH1 0xFF PUSH1 0x40 PUSH1 0x0 KECCAK256 SLOAD AND ISZERO ISZERO EQ PUSH2 0x398A JUMP JUMPDEST PUSH1 0x20 PUSH2 0x9C4 PUSH1 0x4 CALLDATALOAD PUSH2 0x3B00 JUMP JUMPDEST CALLVALUE PUSH2 0x258 JUMPI PUSH1 0x20 CALLDATASIZE PUSH1 0x3 NOT ADD SLT PUSH2 0x258 JUMPI CALLER PUSH1 0x0 MSTORE PUSH1 0x8 PUSH1 0x20 MSTORE PUSH2 0x2A1C PUSH1 0x1 PUSH1 0xFF PUSH1 0x40 PUSH1 0x0 KECCAK256 SLOAD AND ISZERO ISZERO EQ PUSH2 0x398A JUMP JUMPDEST PUSH1 0x20 PUSH2 0x9C4 PUSH1 0x4 CALLDATALOAD PUSH2 0x3B70 JUMP JUMPDEST CALLVALUE PUSH2 0x258 JUMPI PUSH1 0x60 CALLDATASIZE PUSH1 0x3 NOT ADD SLT PUSH2 0x258 JUMPI PUSH1 0x4 CALLDATALOAD PUSH1 0x0 MSTORE PUSH1 0x20 PUSH1 0x10 DUP2 MSTORE PUSH1 0x40 PUSH1 0x0 KECCAK256 PUSH1 0x40 MLOAD SWAP1 DUP2 DUP4 DUP3 SLOAD SWAP2 DUP3 DUP2 MSTORE ADD SWAP2 PUSH1 0x0 MSTORE DUP4 PUSH1 0x0 KECCAK256 SWAP1 PUSH1 0x0 JUMPDEST DUP6 DUP3 DUP3 LT PUSH2 0x2A87 JUMPI PUSH2 0xD58 DUP7 PUSH2 0x2A7C DUP2 DUP9 SUB DUP3 PUSH2 0x30E1 JUMP JUMPDEST PUSH1 0x44 CALLDATALOAD PUSH1 0x24 CALLDATALOAD PUSH2 0x4371 JUMP JUMPDEST DUP4 SLOAD DUP6 MSTORE SWAP1 SWAP4 ADD SWAP3 PUSH1 0x1 SWAP3 DUP4 ADD SWAP3 ADD PUSH2 0x2A64 JUMP JUMPDEST CALLVALUE PUSH2 0x258 JUMPI PUSH2 0x2AA9 CALLDATASIZE PUSH2 0x3164 JUMP JUMPDEST SWAP1 PUSH1 0x0 MSTORE PUSH1 0x10 PUSH1 0x20 MSTORE PUSH1 0x40 PUSH1 0x0 KECCAK256 DUP1 SLOAD DUP3 LT ISZERO PUSH2 0x258 JUMPI PUSH1 0x20 SWAP2 PUSH2 0x2F9 SWAP2 PUSH2 0x305B JUMP JUMPDEST CALLVALUE PUSH2 0x258 JUMPI PUSH2 0x180 CALLDATASIZE PUSH1 0x3 NOT ADD SLT PUSH2 0x258 JUMPI PUSH1 0x24 CALLDATALOAD PUSH1 0x1 PUSH1 0x1 PUSH1 0x40 SHL SUB DUP2 GT PUSH2 0x258 JUMPI PUSH2 0x2AFD SWAP1 CALLDATASIZE SWAP1 PUSH1 0x4 ADD PUSH2 0x311D JUMP JUMPDEST PUSH1 0x44 CALLDATALOAD PUSH1 0x1 PUSH1 0x1 PUSH1 0x40 SHL SUB DUP2 GT PUSH2 0x258 JUMPI PUSH2 0x2B1C SWAP1 CALLDATASIZE SWAP1 PUSH1 0x4 ADD PUSH2 0x311D JUMP JUMPDEST SWAP1 PUSH1 0x64 CALLDATALOAD PUSH1 0x1 PUSH1 0x1 PUSH1 0x40 SHL SUB DUP2 GT PUSH2 0x258 JUMPI PUSH2 0x2B3C SWAP1 CALLDATASIZE SWAP1 PUSH1 0x4 ADD PUSH2 0x311D JUMP JUMPDEST SWAP1 PUSH1 0x84 CALLDATALOAD PUSH1 0x1 PUSH1 0x1 PUSH1 0x40 SHL SUB DUP2 GT PUSH2 0x258 JUMPI PUSH2 0x2B5C SWAP1 CALLDATASIZE SWAP1 PUSH1 0x4 ADD PUSH2 0x311D JUMP JUMPDEST SWAP1 CALLER PUSH1 0x0 MSTORE PUSH1 0x8 PUSH1 0x20 MSTORE PUSH2 0x2B7C PUSH1 0x1 PUSH1 0xFF PUSH1 0x40 PUSH1 0x0 KECCAK256 SLOAD AND ISZERO ISZERO EQ PUSH2 0x398A JUMP JUMPDEST PUSH1 0x4 CALLDATALOAD PUSH1 0x0 MSTORE PUSH1 0xB PUSH1 0x20 MSTORE PUSH1 0x40 PUSH1 0x0 KECCAK256 SWAP1 PUSH1 0x1 DUP3 ADD SWAP1 DUP1 MLOAD SWAP1 PUSH1 0x1 PUSH1 0x1 PUSH1 0x40 SHL SUB DUP3 GT PUSH2 0x12AE JUMPI DUP2 SWAP1 PUSH2 0x2BB3 DUP3 PUSH2 0x1FF6 DUP7 SLOAD PUSH2 0x353E JUMP JUMPDEST PUSH1 0x20 SWAP1 PUSH1 0x1F DUP4 GT PUSH1 0x1 EQ PUSH2 0x2E97 JUMPI PUSH1 0x0 SWAP3 PUSH2 0x2E8C JUMPI JUMPDEST POP POP DUP2 PUSH1 0x1 SHL SWAP2 PUSH1 0x0 NOT SWAP1 PUSH1 0x3 SHL SHR NOT AND OR SWAP1 SSTORE JUMPDEST DUP4 MLOAD PUSH1 0x1 PUSH1 0x1 PUSH1 0x40 SHL SUB DUP2 GT PUSH2 0x12AE JUMPI PUSH2 0x2C08 DUP2 PUSH2 0x2BFF PUSH1 0x3 DUP6 ADD SLOAD PUSH2 0x353E JUMP JUMPDEST PUSH1 0x3 DUP6 ADD PUSH2 0x3A0D JUMP JUMPDEST PUSH1 0x20 PUSH1 0x1F DUP3 GT PUSH1 0x1 EQ PUSH2 0x2E1D JUMPI DUP2 SWAP3 SWAP4 SWAP5 SWAP6 PUSH1 0x0 SWAP3 PUSH2 0x2E12 JUMPI JUMPDEST POP POP DUP2 PUSH1 0x1 SHL SWAP2 PUSH1 0x0 NOT SWAP1 PUSH1 0x3 SHL SHR NOT AND OR PUSH1 0x3 DUP3 ADD SSTORE JUMPDEST PUSH1 0x4 DUP2 ADD DUP4 MLOAD PUSH1 0x1 PUSH1 0x1 PUSH1 0x40 SHL SUB DUP2 GT PUSH2 0x12AE JUMPI PUSH2 0x2C62 DUP2 PUSH2 0x2C5C DUP5 SLOAD PUSH2 0x353E JUMP JUMPDEST DUP5 PUSH2 0x3A0D JUMP JUMPDEST PUSH1 0x20 SWAP5 PUSH1 0x1F DUP3 GT PUSH1 0x1 EQ PUSH2 0x2DAC JUMPI SWAP5 DUP2 SWAP3 SWAP4 SWAP5 SWAP6 PUSH1 0x0 SWAP3 PUSH2 0x2DA1 JUMPI JUMPDEST POP POP DUP2 PUSH1 0x1 SHL SWAP2 PUSH1 0x0 NOT SWAP1 PUSH1 0x3 SHL SHR NOT AND OR SWAP1 SSTORE JUMPDEST PUSH1 0x5 DUP2 ADD DUP3 MLOAD PUSH1 0x1 PUSH1 0x1 PUSH1 0x40 SHL SUB DUP2 GT PUSH2 0x12AE JUMPI PUSH2 0x2CB5 DUP2 PUSH2 0x2C5C DUP5 SLOAD PUSH2 0x353E JUMP JUMPDEST PUSH1 0x20 PUSH1 0x1F DUP3 GT PUSH1 0x1 EQ PUSH2 0x2D3B JUMPI DUP2 SWAP3 SWAP4 SWAP5 PUSH1 0x0 SWAP3 PUSH2 0x2D30 JUMPI JUMPDEST POP POP DUP2 PUSH1 0x1 SHL SWAP2 PUSH1 0x0 NOT SWAP1 PUSH1 0x3 SHL SHR NOT AND OR SWAP1 SSTORE JUMPDEST PUSH1 0xA4 CALLDATALOAD PUSH1 0x6 DUP3 ADD SSTORE PUSH1 0xC4 CALLDATALOAD PUSH1 0x7 DUP3 ADD SSTORE PUSH1 0xE4 CALLDATALOAD PUSH1 0x8 DUP3 ADD SSTORE PUSH2 0x104 CALLDATALOAD PUSH1 0x9 DUP3 ADD SSTORE PUSH2 0x124 CALLDATALOAD PUSH1 0xA DUP3 ADD SSTORE PUSH2 0x144 CALLDATALOAD PUSH1 0xB DUP3 ADD SSTORE PUSH2 0x164 CALLDATALOAD PUSH1 0xF DUP3 ADD SSTORE PUSH1 0x10 TIMESTAMP SWAP2 ADD SSTORE PUSH1 0x20 PUSH1 0x40 MLOAD PUSH1 0x1 DUP2 MSTORE RETURN JUMPDEST ADD MLOAD SWAP1 POP DUP5 DUP1 PUSH2 0x2CCE JUMP JUMPDEST PUSH1 0x1F NOT DUP3 AND SWAP1 DUP4 PUSH1 0x0 MSTORE PUSH1 0x20 PUSH1 0x0 KECCAK256 SWAP2 PUSH1 0x0 JUMPDEST DUP2 DUP2 LT PUSH2 0x2D89 JUMPI POP SWAP6 DUP4 PUSH1 0x1 SWAP6 SWAP7 SWAP8 LT PUSH2 0x2D70 JUMPI JUMPDEST POP POP POP DUP2 SHL ADD SWAP1 SSTORE PUSH2 0x2CE3 JUMP JUMPDEST ADD MLOAD PUSH1 0x0 NOT PUSH1 0xF8 DUP5 PUSH1 0x3 SHL AND SHR NOT AND SWAP1 SSTORE DUP5 DUP1 DUP1 PUSH2 0x2D63 JUMP JUMPDEST SWAP2 SWAP3 PUSH1 0x20 PUSH1 0x1 DUP2 SWAP3 DUP7 DUP12 ADD MLOAD DUP2 SSTORE ADD SWAP5 ADD SWAP3 ADD PUSH2 0x2D4E JUMP JUMPDEST ADD MLOAD SWAP1 POP DUP6 DUP1 PUSH2 0x2C7E JUMP JUMPDEST PUSH1 0x1F NOT DUP3 AND SWAP6 DUP4 PUSH1 0x0 MSTORE PUSH1 0x20 PUSH1 0x0 KECCAK256 SWAP2 PUSH1 0x0 JUMPDEST DUP9 DUP2 LT PUSH2 0x2DFA JUMPI POP DUP4 PUSH1 0x1 SWAP6 SWAP7 SWAP8 SWAP9 LT PUSH2 0x2DE1 JUMPI JUMPDEST POP POP POP DUP2 SHL ADD SWAP1 SSTORE PUSH2 0x2C93 JUMP JUMPDEST ADD MLOAD PUSH1 0x0 NOT PUSH1 0xF8 DUP5 PUSH1 0x3 SHL AND SHR NOT AND SWAP1 SSTORE DUP6 DUP1 DUP1 PUSH2 0x2DD4 JUMP JUMPDEST SWAP2 SWAP3 PUSH1 0x20 PUSH1 0x1 DUP2 SWAP3 DUP7 DUP6 ADD MLOAD DUP2 SSTORE ADD SWAP5 ADD SWAP3 ADD PUSH2 0x2DBF JUMP JUMPDEST ADD MLOAD SWAP1 POP DUP6 DUP1 PUSH2 0x2C22 JUMP JUMPDEST PUSH1 0x3 DUP4 ADD PUSH1 0x0 MSTORE PUSH1 0x20 PUSH1 0x0 KECCAK256 SWAP1 PUSH1 0x0 JUMPDEST PUSH1 0x1F NOT DUP5 AND DUP2 LT PUSH2 0x2E74 JUMPI POP PUSH1 0x1 SWAP4 SWAP5 SWAP6 SWAP7 DUP4 PUSH1 0x1F NOT DUP2 AND LT PUSH2 0x2E5B JUMPI JUMPDEST POP POP POP DUP2 SHL ADD PUSH1 0x3 DUP3 ADD SSTORE PUSH2 0x2C3A JUMP JUMPDEST ADD MLOAD PUSH1 0x0 NOT PUSH1 0xF8 DUP5 PUSH1 0x3 SHL AND SHR NOT AND SWAP1 SSTORE DUP6 DUP1 DUP1 PUSH2 0x2E4B JUMP JUMPDEST SWAP1 SWAP2 PUSH1 0x20 PUSH1 0x1 DUP2 SWAP3 DUP6 DUP12 ADD MLOAD DUP2 SSTORE ADD SWAP4 ADD SWAP2 ADD PUSH2 0x2E2D JUMP JUMPDEST ADD MLOAD SWAP1 POP DUP8 DUP1 PUSH2 0x2BC9 JUMP JUMPDEST SWAP3 POP DUP4 PUSH1 0x0 MSTORE PUSH1 0x20 PUSH1 0x0 KECCAK256 SWAP1 PUSH1 0x0 SWAP4 JUMPDEST PUSH1 0x1F NOT DUP5 AND DUP6 LT PUSH2 0x2EE8 JUMPI PUSH1 0x1 SWAP5 POP DUP4 PUSH1 0x1F NOT DUP2 AND LT PUSH2 0x2ECF JUMPI JUMPDEST POP POP POP DUP2 SHL ADD SWAP1 SSTORE PUSH2 0x2BDE JUMP JUMPDEST ADD MLOAD PUSH1 0x0 NOT PUSH1 0xF8 DUP5 PUSH1 0x3 SHL AND SHR NOT AND SWAP1 SSTORE DUP8 DUP1 DUP1 PUSH2 0x2EC2 JUMP JUMPDEST DUP2 DUP2 ADD MLOAD DUP4 SSTORE PUSH1 0x20 SWAP5 DUP6 ADD SWAP5 PUSH1 0x1 SWAP1 SWAP4 ADD SWAP3 SWAP1 SWAP2 ADD SWAP1 PUSH2 0x2EA7 JUMP JUMPDEST CALLVALUE PUSH2 0x258 JUMPI PUSH1 0x20 CALLDATASIZE PUSH1 0x3 NOT ADD SLT PUSH2 0x258 JUMPI PUSH1 0x4 CALLDATALOAD DUP1 PUSH1 0x0 MSTORE PUSH1 0xF PUSH1 0x20 MSTORE PUSH1 0x40 PUSH1 0x0 KECCAK256 PUSH2 0x2F2F DUP2 SLOAD PUSH2 0x3AF1 JUMP JUMPDEST SWAP1 SSTORE PUSH1 0x0 MSTORE PUSH1 0x10 PUSH1 0x20 MSTORE PUSH1 0x40 PUSH1 0x0 KECCAK256 DUP1 SLOAD SWAP1 PUSH1 0x1 PUSH1 0x40 SHL DUP3 LT ISZERO PUSH2 0x12AE JUMPI DUP2 PUSH2 0x2F60 SWAP2 PUSH1 0x1 PUSH2 0x174F SWAP5 ADD DUP2 SSTORE PUSH2 0x305B JUMP JUMPDEST SWAP2 SWAP1 SWAP2 TIMESTAMP SWAP1 DUP4 SLOAD SWAP1 PUSH1 0x3 SHL SWAP2 DUP3 SHL SWAP2 PUSH1 0x0 NOT SWAP1 SHL NOT AND OR SWAP1 JUMP JUMPDEST CALLVALUE PUSH2 0x258 JUMPI PUSH1 0x40 CALLDATASIZE PUSH1 0x3 NOT ADD SLT PUSH2 0x258 JUMPI PUSH2 0x2F93 PUSH2 0x2FC4 JUMP JUMPDEST PUSH1 0x1 PUSH1 0x1 PUSH1 0xA0 SHL SUB AND PUSH1 0x0 SWAP1 DUP2 MSTORE PUSH1 0xD PUSH1 0x20 MSTORE PUSH1 0x40 SWAP1 KECCAK256 DUP1 SLOAD PUSH1 0x24 CALLDATALOAD SWAP2 SWAP1 DUP3 LT ISZERO PUSH2 0x258 JUMPI PUSH1 0x20 SWAP2 PUSH2 0x2F9 SWAP2 PUSH2 0x305B JUMP JUMPDEST PUSH1 0x4 CALLDATALOAD SWAP1 PUSH1 0x1 PUSH1 0x1 PUSH1 0xA0 SHL SUB DUP3 AND DUP3 SUB PUSH2 0x258 JUMPI JUMP JUMPDEST SWAP1 PUSH1 0x0 SWAP2 DUP3 SLOAD DUP2 LT ISZERO PUSH2 0x3010 JUMPI DUP3 DUP1 MSTORE PUSH32 0x290DECD9548B62A8D60345A988386FC84BA6BC95484008F6362F93160EF3E563 ADD SWAP2 SWAP1 JUMP JUMPDEST PUSH4 0x4E487B71 PUSH1 0xE0 SHL DUP4 MSTORE PUSH1 0x32 PUSH1 0x4 MSTORE PUSH1 0x24 DUP4 REVERT JUMPDEST PUSH1 0x1 SLOAD DUP2 LT ISZERO PUSH2 0x1298 JUMPI PUSH1 0x1 PUSH1 0x0 MSTORE PUSH32 0xB10E2D527612073B26EECDFD717E6A320CF44B4AFAC2B0732D9FCBE2B7FA0CF6 ADD SWAP1 PUSH1 0x0 SWAP1 JUMP JUMPDEST DUP1 SLOAD DUP3 LT ISZERO PUSH2 0x1298 JUMPI PUSH1 0x0 MSTORE PUSH1 0x20 PUSH1 0x0 KECCAK256 ADD SWAP1 PUSH1 0x0 SWAP1 JUMP JUMPDEST PUSH2 0x120 DUP2 ADD SWAP1 DUP2 LT PUSH1 0x1 PUSH1 0x1 PUSH1 0x40 SHL SUB DUP3 GT OR PUSH2 0x12AE JUMPI PUSH1 0x40 MSTORE JUMP JUMPDEST PUSH1 0xC0 DUP2 ADD SWAP1 DUP2 LT PUSH1 0x1 PUSH1 0x1 PUSH1 0x40 SHL SUB DUP3 GT OR PUSH2 0x12AE JUMPI PUSH1 0x40 MSTORE JUMP JUMPDEST PUSH2 0x140 DUP2 ADD SWAP1 DUP2 LT PUSH1 0x1 PUSH1 0x1 PUSH1 0x40 SHL SUB DUP3 GT OR PUSH2 0x12AE JUMPI PUSH1 0x40 MSTORE JUMP JUMPDEST PUSH1 0x60 DUP2 ADD SWAP1 DUP2 LT PUSH1 0x1 PUSH1 0x1 PUSH1 0x40 SHL SUB DUP3 GT OR PUSH2 0x12AE JUMPI PUSH1 0x40 MSTORE JUMP JUMPDEST SWAP1 PUSH1 0x1F DUP1 NOT SWAP2 ADD AND DUP2 ADD SWAP1 DUP2 LT PUSH1 0x1 PUSH1 0x1 PUSH1 0x40 SHL SUB DUP3 GT OR PUSH2 0x12AE JUMPI PUSH1 0x40 MSTORE JUMP JUMPDEST PUSH1 0x1 PUSH1 0x1 PUSH1 0x40 SHL SUB DUP2 GT PUSH2 0x12AE JUMPI PUSH1 0x1F ADD PUSH1 0x1F NOT AND PUSH1 0x20 ADD SWAP1 JUMP JUMPDEST DUP2 PUSH1 0x1F DUP3 ADD SLT ISZERO PUSH2 0x258 JUMPI DUP1 CALLDATALOAD SWAP1 PUSH2 0x3134 DUP3 PUSH2 0x3102 JUMP JUMPDEST SWAP3 PUSH2 0x3142 PUSH1 0x40 MLOAD SWAP5 DUP6 PUSH2 0x30E1 JUMP JUMPDEST DUP3 DUP5 MSTORE PUSH1 0x20 DUP4 DUP4 ADD ADD GT PUSH2 0x258 JUMPI DUP2 PUSH1 0x0 SWAP3 PUSH1 0x20 DUP1 SWAP4 ADD DUP4 DUP7 ADD CALLDATACOPY DUP4 ADD ADD MSTORE SWAP1 JUMP JUMPDEST PUSH1 0x40 SWAP1 PUSH1 0x3 NOT ADD SLT PUSH2 0x258 JUMPI PUSH1 0x4 CALLDATALOAD SWAP1 PUSH1 0x24 CALLDATALOAD SWAP1 JUMP JUMPDEST PUSH1 0x0 JUMPDEST DUP4 DUP2 LT PUSH2 0x318D JUMPI POP POP PUSH1 0x0 SWAP2 ADD MSTORE JUMP JUMPDEST DUP2 DUP2 ADD MLOAD DUP4 DUP3 ADD MSTORE PUSH1 0x20 ADD PUSH2 0x317D JUMP JUMPDEST SWAP1 PUSH1 0x20 SWAP2 PUSH2 0x31B6 DUP2 MLOAD DUP1 SWAP3 DUP2 DUP6 MSTORE DUP6 DUP1 DUP7 ADD SWAP2 ADD PUSH2 0x317A JUMP JUMPDEST PUSH1 0x1F ADD PUSH1 0x1F NOT AND ADD ADD SWAP1 JUMP JUMPDEST SWAP1 PUSH2 0x322A PUSH2 0x3218 PUSH2 0x3206 PUSH2 0x31F4 PUSH2 0x31E2 DUP7 MLOAD PUSH2 0x140 DUP1 DUP9 MSTORE DUP8 ADD SWAP1 PUSH2 0x319D JUMP JUMPDEST PUSH1 0x20 DUP8 ADD MLOAD DUP7 DUP3 SUB PUSH1 0x20 DUP9 ADD MSTORE PUSH2 0x319D JUMP JUMPDEST PUSH1 0x40 DUP7 ADD MLOAD DUP6 DUP3 SUB PUSH1 0x40 DUP8 ADD MSTORE PUSH2 0x319D JUMP JUMPDEST PUSH1 0x60 DUP6 ADD MLOAD DUP5 DUP3 SUB PUSH1 0x60 DUP7 ADD MSTORE PUSH2 0x319D JUMP JUMPDEST PUSH1 0x80 DUP5 ADD MLOAD DUP4 DUP3 SUB PUSH1 0x80 DUP6 ADD MSTORE PUSH2 0x319D JUMP JUMPDEST SWAP2 PUSH1 0xA0 DUP2 ADD MLOAD PUSH1 0xA0 DUP4 ADD MSTORE PUSH1 0xC0 DUP2 ADD MLOAD PUSH1 0xC0 DUP4 ADD MSTORE PUSH1 0xE0 DUP2 ADD MLOAD PUSH1 0xE0 DUP4 ADD MSTORE PUSH2 0x100 DUP1 DUP3 ADD MLOAD SWAP1 DUP4 ADD MSTORE PUSH2 0x120 DUP1 SWAP2 ADD MLOAD SWAP2 ADD MSTORE SWAP1 JUMP JUMPDEST SWAP1 DUP2 MLOAD DUP2 MSTORE PUSH2 0x327F PUSH1 0x20 DUP4 ADD MLOAD PUSH2 0x120 DUP1 PUSH1 0x20 DUP6 ADD MSTORE DUP4 ADD SWAP1 PUSH2 0x31C2 JUMP JUMPDEST SWAP2 PUSH1 0x40 DUP2 ADD MLOAD PUSH1 0x40 DUP4 ADD MSTORE PUSH1 0x60 DUP2 ADD MLOAD PUSH1 0x60 DUP4 ADD MSTORE PUSH1 0x80 DUP2 ADD MLOAD PUSH1 0x80 DUP4 ADD MSTORE PUSH1 0xA0 DUP2 ADD MLOAD PUSH1 0xA0 DUP4 ADD MSTORE PUSH1 0xC0 DUP2 ADD MLOAD PUSH1 0xC0 DUP4 ADD MSTORE PUSH1 0xE0 DUP2 ADD MLOAD PUSH1 0xE0 DUP4 ADD MSTORE PUSH2 0x100 DUP1 SWAP2 ADD MLOAD ISZERO ISZERO SWAP2 ADD MSTORE SWAP1 JUMP JUMPDEST SWAP1 DUP1 DUP3 MLOAD SWAP1 DUP2 DUP2 MSTORE PUSH1 0x20 DUP1 SWAP2 ADD SWAP3 DUP2 DUP1 DUP5 PUSH1 0x5 SHL DUP4 ADD ADD SWAP6 ADD SWAP4 PUSH1 0x0 SWAP2 JUMPDEST DUP5 DUP4 LT PUSH2 0x32F9 JUMPI POP POP POP POP POP POP SWAP1 JUMP JUMPDEST SWAP1 SWAP2 SWAP3 SWAP4 SWAP5 SWAP6 DUP5 DUP1 PUSH2 0x3317 PUSH1 0x1 SWAP4 PUSH1 0x1F NOT DUP7 DUP3 SUB ADD DUP8 MSTORE DUP11 MLOAD PUSH2 0x3261 JUMP JUMPDEST SWAP9 ADD SWAP4 ADD SWAP4 ADD SWAP2 SWAP5 SWAP4 SWAP3 SWAP1 PUSH2 0x32E9 JUMP JUMPDEST PUSH1 0x1 PUSH1 0x1 PUSH1 0x40 SHL SUB DUP2 GT PUSH2 0x12AE JUMPI PUSH1 0x5 SHL PUSH1 0x20 ADD SWAP1 JUMP JUMPDEST SWAP1 PUSH1 0x60 PUSH1 0x3 NOT DUP2 DUP2 DUP6 ADD SLT PUSH2 0x258 JUMPI PUSH1 0x4 SWAP4 DUP5 CALLDATALOAD SWAP5 PUSH1 0x1 PUSH1 0x1 PUSH1 0x40 SHL SUB DUP1 DUP8 GT PUSH2 0x258 JUMPI DUP3 PUSH1 0x23 DUP9 ADD SLT ISZERO PUSH2 0x258 JUMPI DUP7 DUP3 ADD CALLDATALOAD SWAP5 PUSH2 0x337B DUP7 PUSH2 0x3327 JUMP JUMPDEST PUSH1 0x40 SWAP9 PUSH2 0x338A DUP11 MLOAD SWAP3 DUP4 PUSH2 0x30E1 JUMP JUMPDEST DUP8 DUP3 MSTORE PUSH1 0x20 SWAP8 PUSH1 0x24 DUP5 DUP11 DUP6 ADD SWAP3 MUL DUP4 ADD ADD SWAP2 DUP8 DUP4 GT PUSH2 0x258 JUMPI PUSH1 0x24 ADD SWAP1 JUMPDEST DUP3 DUP3 LT PUSH2 0x34FD JUMPI POP POP POP SWAP8 PUSH1 0x24 CALLDATALOAD SWAP6 DUP4 DUP8 GT PUSH2 0x258 JUMPI PUSH2 0x120 SWAP1 DUP8 DUP8 SUB ADD SLT PUSH2 0x258 JUMPI DUP1 MLOAD SWAP7 PUSH2 0x33D7 DUP9 PUSH2 0x3073 JUMP JUMPDEST DUP7 DUP6 ADD CALLDATALOAD DUP5 DUP2 GT PUSH2 0x258 JUMPI DUP7 DUP7 PUSH2 0x33F0 SWAP3 DUP11 ADD ADD PUSH2 0x311D JUMP JUMPDEST DUP9 MSTORE PUSH1 0x24 DUP8 ADD CALLDATALOAD DUP5 DUP2 GT PUSH2 0x258 JUMPI DUP7 DUP7 PUSH2 0x340C SWAP3 DUP11 ADD ADD PUSH2 0x311D JUMP JUMPDEST SWAP1 DUP9 ADD MSTORE PUSH1 0x44 DUP7 ADD CALLDATALOAD DUP4 DUP2 GT PUSH2 0x258 JUMPI DUP6 DUP6 PUSH2 0x342A SWAP3 DUP10 ADD ADD PUSH2 0x311D JUMP JUMPDEST SWAP1 DUP8 ADD MSTORE PUSH1 0x64 DUP6 ADD CALLDATALOAD DUP3 DUP2 GT PUSH2 0x258 JUMPI DUP5 DUP5 PUSH2 0x3448 SWAP3 DUP9 ADD ADD PUSH2 0x311D JUMP JUMPDEST SWAP1 DUP7 ADD MSTORE PUSH1 0x84 DUP5 ADD CALLDATALOAD DUP2 DUP2 GT PUSH2 0x258 JUMPI DUP4 DUP4 PUSH2 0x3466 SWAP3 DUP8 ADD ADD PUSH2 0x311D JUMP JUMPDEST PUSH1 0x80 DUP7 ADD MSTORE PUSH1 0xA4 DUP5 ADD CALLDATALOAD DUP2 DUP2 GT PUSH2 0x258 JUMPI DUP4 DUP4 PUSH2 0x3485 SWAP3 DUP8 ADD ADD PUSH2 0x311D JUMP JUMPDEST PUSH1 0xA0 DUP7 ADD MSTORE PUSH1 0xC4 DUP5 ADD CALLDATALOAD DUP2 DUP2 GT PUSH2 0x258 JUMPI DUP4 DUP4 PUSH2 0x34A4 SWAP3 DUP8 ADD ADD PUSH2 0x311D JUMP JUMPDEST PUSH1 0xC0 DUP7 ADD MSTORE PUSH1 0xE4 DUP5 ADD CALLDATALOAD DUP2 DUP2 GT PUSH2 0x258 JUMPI DUP4 DUP4 PUSH2 0x34C3 SWAP3 DUP8 ADD ADD PUSH2 0x311D JUMP JUMPDEST PUSH1 0xE0 DUP7 ADD MSTORE PUSH2 0x104 DUP5 ADD CALLDATALOAD SWAP1 DUP2 GT PUSH2 0x258 JUMPI PUSH2 0x34E0 SWAP4 ADD ADD PUSH2 0x311D JUMP JUMPDEST PUSH2 0x100 DUP3 ADD MSTORE SWAP1 PUSH1 0x44 CALLDATALOAD PUSH1 0x1 PUSH1 0x1 PUSH1 0xA0 SHL SUB DUP2 AND DUP2 SUB PUSH2 0x258 JUMPI SWAP1 JUMP JUMPDEST DUP5 DUP3 DUP10 SUB SLT PUSH2 0x258 JUMPI DUP12 MLOAD SWAP1 PUSH2 0x3512 DUP3 PUSH2 0x30C6 JUMP JUMPDEST DUP3 CALLDATALOAD DUP3 MSTORE DUP11 DUP4 ADD CALLDATALOAD DUP12 DUP4 ADD MSTORE DUP13 DUP4 ADD CALLDATALOAD SWAP1 DUP9 DUP3 LT ISZERO PUSH2 0x258 JUMPI DUP3 DUP13 SWAP3 DUP16 DUP10 SWAP6 ADD MSTORE DUP2 MSTORE ADD SWAP2 ADD SWAP1 PUSH2 0x33A8 JUMP JUMPDEST SWAP1 PUSH1 0x1 DUP3 DUP2 SHR SWAP3 AND DUP1 ISZERO PUSH2 0x356E JUMPI JUMPDEST PUSH1 0x20 DUP4 LT EQ PUSH2 0x3558 JUMPI JUMP JUMPDEST PUSH4 0x4E487B71 PUSH1 0xE0 SHL PUSH1 0x0 MSTORE PUSH1 0x22 PUSH1 0x4 MSTORE PUSH1 0x24 PUSH1 0x0 REVERT JUMPDEST SWAP2 PUSH1 0x7F AND SWAP2 PUSH2 0x354D JUMP JUMPDEST SWAP1 PUSH1 0x0 SWAP3 SWAP2 DUP1 SLOAD SWAP2 PUSH2 0x3589 DUP4 PUSH2 0x353E JUMP JUMPDEST SWAP2 DUP3 DUP3 MSTORE PUSH1 0x1 SWAP4 DUP5 DUP2 AND SWAP1 DUP2 PUSH1 0x0 EQ PUSH2 0x35EB JUMPI POP PUSH1 0x1 EQ PUSH2 0x35AB JUMPI JUMPDEST POP POP POP POP JUMP JUMPDEST SWAP1 SWAP2 SWAP4 SWAP5 POP PUSH1 0x0 MSTORE PUSH1 0x20 SWAP3 DUP4 PUSH1 0x0 KECCAK256 SWAP3 DUP5 PUSH1 0x0 SWAP5 JUMPDEST DUP4 DUP7 LT PUSH2 0x35D7 JUMPI POP POP POP POP ADD ADD SWAP1 CODESIZE DUP1 DUP1 DUP1 PUSH2 0x35A5 JUMP JUMPDEST DUP1 SLOAD DUP6 DUP8 ADD DUP4 ADD MSTORE SWAP5 ADD SWAP4 DUP6 SWAP1 DUP3 ADD PUSH2 0x35C0 JUMP JUMPDEST SWAP3 SWAP5 POP POP POP PUSH1 0x20 SWAP4 SWAP5 POP PUSH1 0xFF NOT AND DUP4 DUP4 ADD MSTORE ISZERO ISZERO PUSH1 0x5 SHL ADD ADD SWAP1 CODESIZE DUP1 DUP1 DUP1 PUSH2 0x35A5 JUMP JUMPDEST SWAP1 PUSH1 0x40 SWAP2 PUSH2 0x120 PUSH1 0x9 DUP5 MLOAD SWAP3 PUSH2 0x3623 DUP5 PUSH2 0x30AA JUMP JUMPDEST DUP4 SWAP6 DUP1 MLOAD PUSH2 0x363C DUP2 PUSH2 0x3635 DUP2 DUP7 PUSH2 0x3578 JUMP JUMPDEST SUB DUP3 PUSH2 0x30E1 JUMP JUMPDEST DUP6 MSTORE DUP1 MLOAD PUSH2 0x3651 DUP2 PUSH2 0x3635 DUP2 PUSH1 0x1 DUP8 ADD PUSH2 0x3578 JUMP JUMPDEST PUSH1 0x20 DUP7 ADD MSTORE DUP1 MLOAD PUSH2 0x3669 DUP2 PUSH2 0x3635 DUP2 PUSH1 0x2 DUP8 ADD PUSH2 0x3578 JUMP JUMPDEST DUP2 DUP7 ADD MSTORE DUP1 MLOAD PUSH2 0x3680 DUP2 PUSH2 0x3635 DUP2 PUSH1 0x3 DUP8 ADD PUSH2 0x3578 JUMP JUMPDEST PUSH1 0x60 DUP7 ADD MSTORE MLOAD PUSH2 0x3697 DUP2 PUSH2 0x3635 DUP2 PUSH1 0x4 DUP7 ADD PUSH2 0x3578 JUMP JUMPDEST PUSH1 0x80 DUP6 ADD MSTORE PUSH1 0x5 DUP2 ADD SLOAD PUSH1 0xA0 DUP6 ADD MSTORE PUSH1 0x6 DUP2 ADD SLOAD PUSH1 0xC0 DUP6 ADD MSTORE PUSH1 0x7 DUP2 ADD SLOAD PUSH1 0xE0 DUP6 ADD MSTORE PUSH1 0x8 DUP2 ADD SLOAD PUSH2 0x100 DUP6 ADD MSTORE ADD SLOAD SWAP2 ADD MSTORE JUMP JUMPDEST SWAP1 PUSH1 0x4 DUP3 LT ISZERO PUSH2 0x920 JUMPI MSTORE JUMP JUMPDEST SWAP1 PUSH2 0x36FC PUSH1 0x40 PUSH1 0x60 SWAP4 DUP1 MLOAD DUP5 MSTORE PUSH1 0x20 DUP2 ADD MLOAD PUSH1 0x20 DUP6 ADD MSTORE ADD MLOAD PUSH1 0x40 DUP4 ADD SWAP1 PUSH2 0x36CC JUMP JUMPDEST ADD SWAP1 JUMP JUMPDEST SWAP1 PUSH2 0x37BF SWAP2 PUSH2 0x37AB PUSH2 0x3799 PUSH2 0x3787 PUSH2 0x3775 PUSH2 0x3763 PUSH2 0x3751 PUSH2 0x373F PUSH2 0x372D DUP9 MLOAD PUSH2 0x120 DUP1 DUP13 MSTORE DUP12 ADD SWAP1 PUSH2 0x319D JUMP JUMPDEST PUSH1 0x20 DUP10 ADD MLOAD DUP11 DUP3 SUB PUSH1 0x20 DUP13 ADD MSTORE PUSH2 0x319D JUMP JUMPDEST PUSH1 0x40 DUP9 ADD MLOAD DUP10 DUP3 SUB PUSH1 0x40 DUP12 ADD MSTORE PUSH2 0x319D JUMP JUMPDEST PUSH1 0x60 DUP8 ADD MLOAD DUP9 DUP3 SUB PUSH1 0x60 DUP11 ADD MSTORE PUSH2 0x319D JUMP JUMPDEST PUSH1 0x80 DUP7 ADD MLOAD DUP8 DUP3 SUB PUSH1 0x80 DUP10 ADD MSTORE PUSH2 0x319D JUMP JUMPDEST PUSH1 0xA0 DUP6 ADD MLOAD DUP7 DUP3 SUB PUSH1 0xA0 DUP9 ADD MSTORE PUSH2 0x319D JUMP JUMPDEST PUSH1 0xC0 DUP5 ADD MLOAD DUP6 DUP3 SUB PUSH1 0xC0 DUP8 ADD MSTORE PUSH2 0x319D JUMP JUMPDEST PUSH1 0xE0 DUP4 ADD MLOAD DUP5 DUP3 SUB PUSH1 0xE0 DUP7 ADD MSTORE PUSH2 0x319D JUMP JUMPDEST SWAP2 PUSH2 0x100 DUP1 SWAP3 ADD MLOAD SWAP2 DUP2 DUP5 SUB SWAP2 ADD MSTORE PUSH2 0x319D JUMP JUMPDEST SWAP1 JUMP JUMPDEST SWAP1 PUSH1 0xC0 DUP2 ADD DUP3 MLOAD DUP3 MSTORE PUSH1 0x20 PUSH1 0x1 DUP1 PUSH1 0xA0 SHL SUB DUP2 DUP6 ADD MLOAD AND DUP2 DUP5 ADD MSTORE PUSH1 0x40 DUP5 ADD MLOAD SWAP2 PUSH1 0xC0 PUSH1 0x40 DUP6 ADD MSTORE DUP3 MLOAD DUP1 SWAP2 MSTORE DUP2 PUSH1 0xE0 DUP6 ADD SWAP4 ADD SWAP2 PUSH1 0x0 JUMPDEST DUP3 DUP2 LT PUSH2 0x3831 JUMPI POP POP POP POP PUSH1 0xA0 PUSH2 0x3828 DUP2 SWAP3 PUSH1 0x60 DUP7 ADD MLOAD PUSH1 0x60 DUP7 ADD MSTORE PUSH1 0x80 DUP7 ADD MLOAD DUP6 DUP3 SUB PUSH1 0x80 DUP8 ADD MSTORE PUSH2 0x3700 JUMP JUMPDEST SWAP4 ADD MLOAD SWAP2 ADD MSTORE SWAP1 JUMP JUMPDEST SWAP1 SWAP2 SWAP3 SWAP4 DUP3 PUSH2 0x3843 PUSH1 0x1 SWAP3 DUP8 MLOAD PUSH2 0x36D9 JUMP JUMPDEST SWAP6 ADD SWAP4 SWAP3 SWAP2 ADD PUSH2 0x37FA JUMP JUMPDEST SWAP1 DUP2 MLOAD DUP1 DUP3 MSTORE PUSH1 0x20 DUP1 SWAP3 ADD SWAP2 DUP3 DUP2 DUP4 PUSH1 0x5 SHL DUP3 ADD SWAP6 ADD SWAP4 PUSH1 0x0 SWAP2 JUMPDEST DUP5 DUP4 LT PUSH2 0x3879 JUMPI POP POP POP POP POP POP SWAP1 JUMP JUMPDEST SWAP1 SWAP2 SWAP3 SWAP4 SWAP5 SWAP6 DUP5 DUP1 PUSH2 0x3893 DUP4 DUP6 PUSH1 0x1 SWAP6 SUB DUP8 MSTORE DUP11 MLOAD PUSH2 0x37C2 JUMP JUMPDEST SWAP9 ADD SWAP4 ADD SWAP4 ADD SWAP2 SWAP5 SWAP4 SWAP3 SWAP1 PUSH2 0x3869 JUMP JUMPDEST ISZERO PUSH2 0x38AA JUMPI JUMP JUMPDEST PUSH1 0x40 MLOAD PUSH3 0x461BCD PUSH1 0xE5 SHL DUP2 MSTORE PUSH1 0x20 PUSH1 0x4 DUP3 ADD MSTORE PUSH1 0x48 PUSH1 0x24 DUP3 ADD MSTORE PUSH32 0x7B2266726F6D223A2022466943616D2E736F6C222C2022636F6465223A20312C PUSH1 0x44 DUP3 ADD MSTORE PUSH32 0x20226D657373616765223A2022496E76616C69642063616C6C65722D4F6E6C79 PUSH1 0x64 DUP3 ADD MSTORE PUSH8 0x204F776E6572227D PUSH1 0xC0 SHL PUSH1 0x84 DUP3 ADD MSTORE PUSH1 0xA4 SWAP1 REVERT JUMPDEST PUSH1 0x6 SLOAD PUSH1 0x1 PUSH1 0x40 SHL DUP2 LT ISZERO PUSH2 0x12AE JUMPI PUSH1 0x1 DUP2 ADD DUP1 PUSH1 0x6 SSTORE DUP2 LT ISZERO PUSH2 0x1298 JUMPI PUSH1 0x6 PUSH1 0x0 MSTORE PUSH32 0xF652222313E28459528D920B65115C16C04F3EFC82AAEDC97BE59F3F377C0D3F ADD DUP1 SLOAD PUSH1 0x1 PUSH1 0x1 PUSH1 0xA0 SHL SUB NOT AND PUSH1 0x1 PUSH1 0x1 PUSH1 0xA0 SHL SUB SWAP1 SWAP3 AND SWAP2 SWAP1 SWAP2 OR SWAP1 SSTORE JUMP JUMPDEST ISZERO PUSH2 0x3991 JUMPI JUMP JUMPDEST PUSH1 0x40 MLOAD PUSH3 0x461BCD PUSH1 0xE5 SHL DUP2 MSTORE PUSH1 0x20 PUSH1 0x4 DUP3 ADD MSTORE PUSH1 0x48 PUSH1 0x24 DUP3 ADD MSTORE PUSH32 0x7B2266726F6D223A2022466943616D2E736F6C222C2022636F6465223A20322C PUSH1 0x44 DUP3 ADD MSTORE PUSH32 0x20226D657373616765223A2022496E76616C69642063616C6C65722D4F6E6C79 PUSH1 0x64 DUP3 ADD MSTORE PUSH8 0x2041646D696E227D PUSH1 0xC0 SHL PUSH1 0x84 DUP3 ADD MSTORE PUSH1 0xA4 SWAP1 REVERT JUMPDEST SWAP1 PUSH1 0x1F DUP2 GT PUSH2 0x3A1B JUMPI POP POP POP JUMP JUMPDEST PUSH1 0x0 SWAP2 DUP3 MSTORE PUSH1 0x20 DUP3 KECCAK256 SWAP1 PUSH1 0x20 PUSH1 0x1F DUP6 ADD PUSH1 0x5 SHR DUP4 ADD SWAP5 LT PUSH2 0x3A57 JUMPI JUMPDEST PUSH1 0x1F ADD PUSH1 0x5 SHR ADD SWAP2 JUMPDEST DUP3 DUP2 LT PUSH2 0x3A4C JUMPI POP POP POP JUMP JUMPDEST DUP2 DUP2 SSTORE PUSH1 0x1 ADD PUSH2 0x3A40 JUMP JUMPDEST SWAP1 SWAP3 POP DUP3 SWAP1 PUSH2 0x3A37 JUMP JUMPDEST PUSH1 0x15 SLOAD PUSH1 0x1 PUSH1 0x40 SHL DUP2 LT ISZERO PUSH2 0x12AE JUMPI PUSH1 0x1 DUP2 ADD DUP1 PUSH1 0x15 SSTORE DUP2 LT ISZERO PUSH2 0x1298 JUMPI PUSH1 0x15 PUSH1 0x0 MSTORE PUSH32 0x55F448FDEA98C4D29EB340757EF0A66CD03DBB9538908A6A81D96026B71EC475 ADD SSTORE JUMP JUMPDEST PUSH1 0x1 SLOAD PUSH1 0x1 PUSH1 0x40 SHL DUP2 LT ISZERO PUSH2 0x12AE JUMPI PUSH2 0x1738 DUP2 PUSH1 0x1 PUSH2 0x3ACB SWAP4 ADD PUSH1 0x1 SSTORE PUSH2 0x3024 JUMP JUMPDEST SWAP1 SSTORE JUMP JUMPDEST DUP1 SLOAD SWAP1 PUSH1 0x1 PUSH1 0x40 SHL DUP3 LT ISZERO PUSH2 0x12AE JUMPI DUP2 PUSH2 0x1738 SWAP2 PUSH1 0x1 PUSH2 0x3ACB SWAP5 ADD DUP2 SSTORE PUSH2 0x305B JUMP JUMPDEST PUSH1 0x0 NOT DUP2 EQ PUSH2 0x27C1 JUMPI PUSH1 0x1 ADD SWAP1 JUMP JUMPDEST DUP1 PUSH1 0x0 MSTORE PUSH1 0xB PUSH1 0x20 MSTORE PUSH1 0x11 PUSH1 0x40 PUSH1 0x0 KECCAK256 ADD PUSH1 0x1 SWAP1 DUP2 PUSH1 0xFF NOT DUP3 SLOAD AND OR SWAP1 SSTORE PUSH1 0x0 SWAP2 DUP2 SLOAD SWAP3 JUMPDEST DUP4 DUP2 LT PUSH2 0x3B38 JUMPI POP PUSH2 0x37BF SWAP2 SWAP3 POP PUSH2 0x3AA9 JUMP JUMPDEST DUP2 PUSH2 0x3B42 DUP3 PUSH2 0x3024 JUMP JUMPDEST SWAP1 SLOAD SWAP1 PUSH1 0x3 SHL SHR EQ PUSH2 0x3B5C JUMPI PUSH2 0x3B57 SWAP1 PUSH2 0x3AF1 JUMP JUMPDEST PUSH2 0x3B25 JUMP JUMPDEST POP POP SWAP1 POP SWAP1 JUMP JUMPDEST SWAP2 SWAP1 DUP3 SUB SWAP2 DUP3 GT PUSH2 0x27C1 JUMPI JUMP JUMPDEST PUSH1 0x0 DUP2 DUP2 MSTORE PUSH1 0xB PUSH1 0x20 MSTORE PUSH1 0x11 SWAP2 DUP3 PUSH1 0x40 DUP4 KECCAK256 ADD PUSH1 0xFF NOT DUP2 SLOAD AND SWAP1 SSTORE DUP2 JUMPDEST PUSH1 0x1 DUP1 SLOAD DUP1 DUP4 LT ISZERO PUSH2 0x3C53 JUMPI DUP4 SWAP1 PUSH2 0x3BA4 DUP5 PUSH2 0x3024 JUMP JUMPDEST SWAP3 SWAP1 SLOAD PUSH1 0x3 SWAP4 DUP5 SHL SHR EQ PUSH2 0x3BC3 JUMPI POP POP POP PUSH2 0x3BBE SWAP1 PUSH2 0x3AF1 JUMP JUMPDEST PUSH2 0x3B8D JUMP JUMPDEST SWAP1 SWAP5 SWAP3 SWAP2 SWAP6 SWAP4 POP PUSH1 0x0 NOT SWAP4 DUP5 DUP3 ADD SWAP2 DUP3 GT PUSH2 0x3C41 JUMPI POP DUP1 DUP3 LT PUSH2 0x3C1D JUMPI JUMPDEST POP POP DUP4 SLOAD SWAP1 DUP2 ISZERO PUSH2 0x3C09 JUMPI POP DUP2 ADD SWAP2 PUSH2 0x3BF9 DUP4 PUSH2 0x3024 JUMP JUMPDEST DUP2 SWAP4 SWAP2 SLOAD SWAP3 SHL SHL NOT AND SWAP1 SSTORE DUP2 SSTORE SWAP1 JUMP JUMPDEST PUSH4 0x4E487B71 PUSH1 0xE0 SHL DUP2 MSTORE PUSH1 0x31 PUSH1 0x4 MSTORE PUSH1 0x24 SWAP1 REVERT JUMPDEST PUSH2 0x1738 PUSH2 0x3C2C PUSH2 0x3C38 SWAP3 PUSH2 0x3024 JUMP JUMPDEST SWAP1 SLOAD SWAP1 DUP8 SHL SHR SWAP3 PUSH2 0x3024 JUMP JUMPDEST SWAP1 SSTORE CODESIZE DUP1 PUSH2 0x3BE1 JUMP JUMPDEST PUSH4 0x4E487B71 PUSH1 0xE0 SHL DUP5 MSTORE PUSH1 0x4 MSTORE PUSH1 0x24 DUP4 REVERT JUMPDEST POP POP POP POP POP POP PUSH1 0x1 SWAP1 JUMP JUMPDEST PUSH1 0x40 MLOAD SWAP1 PUSH2 0x3C6B DUP3 PUSH2 0x3073 JUMP JUMPDEST PUSH1 0x0 DUP1 DUP4 MSTORE PUSH1 0x40 MLOAD DUP4 PUSH2 0x3C7D DUP3 PUSH2 0x30AA JUMP JUMPDEST DUP3 PUSH1 0x60 DUP1 DUP5 MSTORE DUP1 PUSH1 0x20 DUP6 ADD MSTORE DUP1 PUSH1 0x40 DUP6 ADD MSTORE DUP1 DUP1 DUP6 ADD MSTORE DUP1 PUSH1 0x80 DUP6 ADD MSTORE DUP2 PUSH1 0xA0 DUP6 ADD MSTORE DUP2 PUSH1 0xC0 DUP6 ADD MSTORE DUP2 PUSH1 0xE0 DUP6 ADD MSTORE PUSH2 0x100 SWAP4 DUP3 DUP6 DUP3 ADD MSTORE DUP3 PUSH2 0x120 DUP3 ADD MSTORE PUSH1 0x20 DUP5 ADD MSTORE DUP2 PUSH1 0x40 DUP5 ADD MSTORE DUP3 ADD MSTORE DUP3 PUSH1 0x80 DUP3 ADD MSTORE DUP3 PUSH1 0xA0 DUP3 ADD MSTORE DUP3 PUSH1 0xC0 DUP3 ADD MSTORE DUP3 PUSH1 0xE0 DUP3 ADD MSTORE ADD MSTORE JUMP JUMPDEST SWAP1 PUSH2 0x3CF0 DUP3 PUSH2 0x3327 JUMP JUMPDEST PUSH2 0x3CFD PUSH1 0x40 MLOAD SWAP2 DUP3 PUSH2 0x30E1 JUMP JUMPDEST DUP3 DUP2 MSTORE DUP1 SWAP3 PUSH2 0x3D0E PUSH1 0x1F NOT SWAP2 PUSH2 0x3327 JUMP JUMPDEST ADD SWAP1 PUSH1 0x0 JUMPDEST DUP3 DUP2 LT PUSH2 0x3D1F JUMPI POP POP POP JUMP JUMPDEST PUSH1 0x20 SWAP1 PUSH2 0x3D2A PUSH2 0x3C5E JUMP JUMPDEST DUP3 DUP3 DUP6 ADD ADD MSTORE ADD PUSH2 0x3D13 JUMP JUMPDEST DUP1 MLOAD DUP3 LT ISZERO PUSH2 0x1298 JUMPI PUSH1 0x20 SWAP2 PUSH1 0x5 SHL ADD ADD SWAP1 JUMP JUMPDEST ISZERO PUSH2 0x3D51 JUMPI JUMP JUMPDEST PUSH1 0x40 MLOAD PUSH3 0x461BCD PUSH1 0xE5 SHL DUP2 MSTORE PUSH1 0x20 PUSH1 0x4 DUP3 ADD MSTORE PUSH1 0x5B PUSH1 0x24 DUP3 ADD MSTORE PUSH32 0x7B2266726F6D223A2022466943616D2E736F6C222C2022636F6465223A20342C PUSH1 0x44 DUP3 ADD MSTORE PUSH32 0x20226D657373616765223A2022496E76616C69642070726F6475637420494420 PUSH1 0x64 DUP3 ADD MSTORE PUSH32 0x6F722070726F6475637420646F6573206E6F74206578697374227D0000000000 PUSH1 0x84 DUP3 ADD MSTORE PUSH1 0xA4 SWAP1 REVERT JUMPDEST ISZERO PUSH2 0x3DE9 JUMPI JUMP JUMPDEST PUSH1 0x40 MLOAD PUSH3 0x461BCD PUSH1 0xE5 SHL DUP2 MSTORE PUSH1 0x20 PUSH1 0x4 DUP3 ADD MSTORE PUSH1 0x19 PUSH1 0x24 DUP3 ADD MSTORE PUSH32 0x496E76616C696420737562736372697074696F6E207479706500000000000000 PUSH1 0x44 DUP3 ADD MSTORE PUSH1 0x64 SWAP1 REVERT JUMPDEST ISZERO PUSH2 0x3E35 JUMPI JUMP JUMPDEST PUSH1 0x40 MLOAD PUSH3 0x461BCD PUSH1 0xE5 SHL DUP2 MSTORE PUSH1 0x20 PUSH1 0x4 DUP3 ADD MSTORE PUSH1 0x1D PUSH1 0x24 DUP3 ADD MSTORE PUSH32 0x70726F647563742073746F72616765206973206E6F7420656E6F756768000000 PUSH1 0x44 DUP3 ADD MSTORE PUSH1 0x64 SWAP1 REVERT JUMPDEST SWAP2 SWAP1 DUP3 ADD DUP1 SWAP3 GT PUSH2 0x27C1 JUMPI JUMP JUMPDEST DUP2 DUP2 MUL SWAP3 SWAP2 DUP2 ISZERO SWAP2 DUP5 DIV EQ OR ISZERO PUSH2 0x27C1 JUMPI JUMP JUMPDEST PUSH1 0x4 DUP3 LT ISZERO PUSH2 0x920 JUMPI MSTORE JUMP JUMPDEST SWAP2 SWAP1 SWAP2 PUSH2 0x120 DUP2 ADD SWAP3 PUSH1 0x1 DUP1 PUSH1 0xA0 SHL SUB DUP1 DUP3 MLOAD AND DUP4 MSTORE PUSH1 0x20 DUP3 ADD MLOAD PUSH1 0x20 DUP5 ADD MSTORE PUSH1 0x40 DUP3 ADD MLOAD PUSH1 0x40 DUP5 ADD MSTORE PUSH2 0x3EE2 PUSH1 0x60 DUP4 ADD MLOAD PUSH1 0x60 DUP6 ADD SWAP1 PUSH2 0x36CC JUMP JUMPDEST PUSH1 0x80 DUP3 ADD MLOAD PUSH1 0x80 DUP5 ADD MSTORE PUSH1 0xA0 DUP3 ADD MLOAD PUSH1 0xA0 DUP5 ADD MSTORE DUP1 PUSH1 0xC0 DUP4 ADD MLOAD AND PUSH1 0xC0 DUP5 ADD MSTORE PUSH1 0xE0 DUP3 ADD MLOAD AND PUSH1 0xE0 DUP4 ADD MSTORE PUSH2 0x100 DUP1 SWAP2 ADD MLOAD SWAP2 ADD MSTORE JUMP JUMPDEST SWAP1 DUP2 PUSH1 0x20 SWAP2 SUB SLT PUSH2 0x258 JUMPI MLOAD DUP1 ISZERO ISZERO DUP2 SUB PUSH2 0x258 JUMPI SWAP1 JUMP JUMPDEST SWAP3 SWAP1 SWAP2 PUSH1 0x0 SWAP3 PUSH1 0x0 SWAP5 DUP1 MLOAD DUP7 MSTORE PUSH1 0x20 SWAP6 PUSH1 0xB DUP8 MSTORE PUSH1 0x40 SWAP2 DUP3 DUP3 KECCAK256 SWAP5 DUP3 SWAP4 DUP1 DUP4 ADD SWAP3 DUP4 MLOAD SWAP11 PUSH1 0x4 SWAP12 DUP13 DUP2 LT ISZERO PUSH2 0x4170 JUMPI PUSH1 0x1 EQ PUSH2 0x41A7 JUMPI JUMPDEST DUP5 MLOAD DUP13 DUP2 LT ISZERO PUSH2 0x4170 JUMPI PUSH1 0x2 EQ PUSH2 0x4183 JUMPI JUMPDEST DUP5 MLOAD DUP13 DUP2 LT ISZERO PUSH2 0x4170 JUMPI PUSH1 0x3 EQ PUSH2 0x4137 JUMPI JUMPDEST DUP1 DUP3 ADD SWAP9 DUP10 MLOAD PUSH2 0x3FA1 PUSH1 0xB DUP4 ADD SWAP2 DUP3 SLOAD PUSH2 0x3B63 JUMP JUMPDEST SWAP1 SSTORE PUSH2 0x3FB4 PUSH1 0xD DUP12 MLOAD SWAP3 ADD SWAP2 DUP3 SLOAD PUSH2 0x3E7A JUMP JUMPDEST SWAP1 SSTORE PUSH1 0x1 PUSH1 0x1 PUSH1 0xA0 SHL SUB DUP5 AND DUP1 DUP8 MSTORE PUSH1 0x11 DUP3 MSTORE DUP4 DUP8 KECCAK256 DUP10 DUP9 MSTORE DUP3 MSTORE DUP4 DUP8 KECCAK256 DUP4 MLOAD DUP9 MSTORE DUP3 MSTORE DUP4 DUP8 KECCAK256 TIMESTAMP SWAP1 SSTORE DUP6 MLOAD SWAP1 SWAP10 SWAP1 DUP14 DUP2 LT ISZERO PUSH2 0x4123 JUMPI SWAP1 PUSH2 0x4000 PUSH2 0x3FFA PUSH1 0x2 SWAP4 PUSH2 0x41CB JUMP JUMPDEST TIMESTAMP PUSH2 0x58BB JUMP JUMPDEST DUP12 DUP10 MSTORE PUSH1 0x12 DUP5 MSTORE DUP6 DUP10 KECCAK256 DUP12 DUP11 MSTORE DUP5 MSTORE DUP6 DUP10 KECCAK256 DUP6 MLOAD DUP11 MSTORE DUP5 MSTORE DUP6 DUP10 KECCAK256 SSTORE DUP11 DUP9 MSTORE PUSH1 0x13 DUP4 MSTORE DUP5 DUP9 KECCAK256 DUP11 DUP10 MSTORE DUP4 MSTORE DUP5 DUP9 KECCAK256 DUP5 MLOAD DUP10 MSTORE DUP4 MSTORE DUP9 DUP6 DUP10 KECCAK256 SSTORE DUP11 DUP9 MSTORE PUSH1 0x14 DUP4 MSTORE DUP5 DUP9 KECCAK256 DUP11 DUP10 MSTORE DUP4 MSTORE DUP5 DUP9 KECCAK256 DUP5 MLOAD DUP10 MSTORE DUP4 MSTORE DUP5 DUP9 KECCAK256 SWAP1 DUP5 MLOAD DUP3 SSTORE MLOAD PUSH1 0x1 DUP3 ADD SSTORE ADD DUP6 MLOAD DUP14 DUP2 LT ISZERO PUSH2 0x4123 JUMPI PUSH1 0xFF DUP1 NOT DUP4 SLOAD AND SWAP2 AND OR SWAP1 SSTORE DUP2 MLOAD SWAP9 DUP7 MSTORE PUSH1 0x12 DUP2 MSTORE DUP3 DUP7 KECCAK256 DUP9 DUP8 MSTORE DUP2 MSTORE DUP3 DUP7 KECCAK256 SWAP2 MLOAD DUP7 MSTORE MSTORE DUP1 DUP5 KECCAK256 SLOAD SWAP3 MLOAD SWAP4 DUP11 DUP6 LT ISZERO PUSH2 0x4110 JUMPI POP MLOAD PUSH1 0x1 PUSH1 0x1 PUSH1 0xA0 SHL SUB SWAP2 SWAP1 SWAP2 AND DUP2 MSTORE PUSH1 0x20 DUP2 ADD SWAP5 SWAP1 SWAP5 MSTORE PUSH1 0x40 DUP5 ADD SWAP5 SWAP1 SWAP5 MSTORE TIMESTAMP PUSH1 0x60 DUP5 ADD MSTORE PUSH1 0x80 DUP4 ADD SWAP4 SWAP1 SWAP4 MSTORE PUSH1 0xA0 DUP3 ADD SWAP3 SWAP1 SWAP3 MSTORE PUSH1 0xC0 DUP2 ADD SWAP2 SWAP1 SWAP2 MSTORE PUSH1 0x0 PUSH1 0xE0 DUP3 ADD MSTORE SWAP2 SWAP3 POP SWAP1 PUSH32 0x7A349466F0B119934B2376706BF145E6FABE7EB4B8C4CBA23BB8F5DC9CB74B75 SWAP1 PUSH2 0x100 SWAP1 LOG1 JUMP JUMPDEST PUSH4 0x4E487B71 PUSH1 0xE0 SHL DUP2 MSTORE PUSH1 0x21 DUP12 MSTORE PUSH1 0x24 SWAP1 REVERT JUMPDEST POP PUSH4 0x4E487B71 PUSH1 0xE0 SHL DUP8 MSTORE PUSH1 0x21 DUP14 MSTORE PUSH1 0x24 DUP8 REVERT JUMPDEST SWAP10 POP PUSH2 0x4165 SWAP6 POP PUSH2 0x416A PUSH1 0xA DUP10 ADD SLOAD PUSH2 0x4155 DUP13 DUP5 ADD SWAP2 DUP3 MLOAD SWAP1 PUSH2 0x3E87 JUMP JUMPDEST SWAP8 DUP9 SWAP2 PUSH1 0x7 DUP13 ADD SLOAD SWAP1 MLOAD SWAP1 PUSH2 0x3E87 JUMP JUMPDEST PUSH2 0x3E7A JUMP JUMPDEST SWAP10 PUSH2 0x3F8C JUMP JUMPDEST PUSH4 0x4E487B71 PUSH1 0xE0 SHL DUP8 MSTORE PUSH1 0x21 DUP14 MSTORE PUSH1 0x24 DUP8 REVERT JUMPDEST SWAP10 POP PUSH2 0x4165 SWAP6 POP PUSH2 0x41A1 PUSH1 0x9 DUP10 ADD SLOAD PUSH2 0x4155 DUP13 DUP5 ADD SWAP2 DUP3 MLOAD SWAP1 PUSH2 0x3E87 JUMP JUMPDEST SWAP10 PUSH2 0x3F7A JUMP JUMPDEST SWAP10 POP PUSH2 0x4165 SWAP6 POP PUSH2 0x41C5 PUSH1 0x8 DUP10 ADD SLOAD PUSH2 0x4155 DUP13 DUP5 ADD SWAP2 DUP3 MLOAD SWAP1 PUSH2 0x3E87 JUMP JUMPDEST SWAP10 PUSH2 0x3F68 JUMP JUMPDEST SWAP1 PUSH1 0x0 SWAP2 PUSH1 0x4 DUP2 LT ISZERO PUSH2 0x920 JUMPI DUP1 PUSH1 0x1 EQ PUSH2 0x41FF JUMPI JUMPDEST PUSH1 0x3 EQ DUP1 PUSH2 0x41F6 JUMPI JUMPDEST PUSH2 0x41F0 JUMPI JUMP JUMPDEST PUSH1 0xC SWAP2 POP JUMP JUMPDEST PUSH1 0x6 SWAP3 POP PUSH2 0x41EA JUMP JUMPDEST PUSH1 0x1 SWAP3 POP PUSH2 0x41E1 JUMP JUMPDEST PUSH1 0x40 MLOAD SWAP1 PUSH2 0x4215 DUP3 PUSH2 0x3073 JUMP JUMPDEST DUP2 PUSH2 0x100 PUSH1 0x60 SWAP2 DUP3 DUP2 MSTORE DUP3 PUSH1 0x20 DUP3 ADD MSTORE DUP3 PUSH1 0x40 DUP3 ADD MSTORE DUP3 DUP1 DUP3 ADD MSTORE DUP3 PUSH1 0x80 DUP3 ADD MSTORE DUP3 PUSH1 0xA0 DUP3 ADD MSTORE DUP3 PUSH1 0xC0 DUP3 ADD MSTORE DUP3 PUSH1 0xE0 DUP3 ADD MSTORE ADD MSTORE JUMP JUMPDEST SWAP1 PUSH1 0x8 PUSH2 0x100 PUSH1 0x40 SWAP4 PUSH2 0x4334 DUP6 MLOAD SWAP2 PUSH2 0x4264 DUP4 PUSH2 0x3073 JUMP JUMPDEST PUSH2 0x432D DUP4 SWAP8 DUP1 MLOAD PUSH2 0x4279 DUP2 PUSH2 0x3635 DUP2 DUP8 PUSH2 0x3578 JUMP JUMPDEST DUP6 MSTORE DUP1 MLOAD PUSH2 0x428E DUP2 PUSH2 0x3635 DUP2 PUSH1 0x1 DUP9 ADD PUSH2 0x3578 JUMP JUMPDEST PUSH1 0x20 DUP7 ADD MSTORE DUP1 MLOAD PUSH2 0x42A6 DUP2 PUSH2 0x3635 DUP2 PUSH1 0x2 DUP9 ADD PUSH2 0x3578 JUMP JUMPDEST DUP2 DUP7 ADD MSTORE DUP1 MLOAD PUSH2 0x42BD DUP2 PUSH2 0x3635 DUP2 PUSH1 0x3 DUP9 ADD PUSH2 0x3578 JUMP JUMPDEST PUSH1 0x60 DUP7 ADD MSTORE DUP1 MLOAD PUSH2 0x42D5 DUP2 PUSH2 0x3635 DUP2 PUSH1 0x4 DUP9 ADD PUSH2 0x3578 JUMP JUMPDEST PUSH1 0x80 DUP7 ADD MSTORE DUP1 MLOAD PUSH2 0x42ED DUP2 PUSH2 0x3635 DUP2 PUSH1 0x5 DUP9 ADD PUSH2 0x3578 JUMP JUMPDEST PUSH1 0xA0 DUP7 ADD MSTORE DUP1 MLOAD PUSH2 0x4305 DUP2 PUSH2 0x3635 DUP2 PUSH1 0x6 DUP9 ADD PUSH2 0x3578 JUMP JUMPDEST PUSH1 0xC0 DUP7 ADD MSTORE DUP1 MLOAD PUSH2 0x431D DUP2 PUSH2 0x3635 DUP2 PUSH1 0x7 DUP9 ADD PUSH2 0x3578 JUMP JUMPDEST PUSH1 0xE0 DUP7 ADD MSTORE MLOAD DUP1 SWAP7 DUP2 SWAP4 ADD PUSH2 0x3578 JUMP JUMPDEST SUB DUP5 PUSH2 0x30E1 JUMP JUMPDEST ADD MSTORE JUMP JUMPDEST PUSH1 0x40 MLOAD SWAP1 PUSH2 0x4345 DUP3 PUSH2 0x308F JUMP JUMPDEST PUSH1 0x0 PUSH1 0xA0 DUP4 DUP3 DUP2 MSTORE DUP3 PUSH1 0x20 DUP3 ADD MSTORE PUSH1 0x60 PUSH1 0x40 DUP3 ADD MSTORE DUP3 PUSH1 0x60 DUP3 ADD MSTORE PUSH2 0x4368 PUSH2 0x4208 JUMP JUMPDEST PUSH1 0x80 DUP3 ADD MSTORE ADD MSTORE JUMP JUMPDEST PUSH1 0x0 SWAP4 SWAP3 DUP5 SWAP3 SWAP1 DUP2 DUP4 GT PUSH2 0x44A2 JUMPI DUP1 MLOAD DUP5 SWAP4 JUMPDEST DUP2 DUP6 LT PUSH2 0x445B JUMPI POP POP DUP4 SWAP2 DUP2 MLOAD JUMPDEST DUP1 DUP5 LT PUSH2 0x4402 JUMPI POP POP POP DUP1 PUSH2 0x43E1 JUMPI POP DUP2 JUMPDEST DUP1 DUP3 GT ISZERO PUSH2 0x43B1 JUMPI POP POP POP JUMP JUMPDEST PUSH2 0x43BD SWAP3 SWAP4 SWAP5 POP PUSH2 0x3B63 JUMP JUMPDEST SWAP1 PUSH1 0x1 DUP3 ADD DUP1 SWAP3 GT PUSH2 0x43CD JUMPI POP SWAP1 JUMP JUMPDEST PUSH4 0x4E487B71 PUSH1 0xE0 SHL DUP2 MSTORE PUSH1 0x11 PUSH1 0x4 MSTORE PUSH1 0x24 SWAP1 REVERT JUMPDEST PUSH1 0x0 NOT DUP2 ADD SWAP1 DUP2 GT ISZERO PUSH2 0x43A4 JUMPI PUSH4 0x4E487B71 PUSH1 0xE0 SHL DUP4 MSTORE PUSH1 0x11 PUSH1 0x4 MSTORE PUSH1 0x24 DUP4 REVERT JUMPDEST PUSH2 0x440C DUP5 DUP3 PUSH2 0x3B63 JUMP JUMPDEST SWAP1 PUSH2 0x441B PUSH1 0x1 SWAP3 DUP4 SHR DUP7 PUSH2 0x3E7A JUMP JUMPDEST SWAP2 DUP4 PUSH2 0x4427 DUP5 DUP8 PUSH2 0x3D36 JUMP JUMPDEST MLOAD GT ISZERO PUSH2 0x4435 JUMPI POP POP PUSH2 0x4392 JUMP JUMPDEST SWAP1 SWAP5 POP DUP2 ADD DUP1 SWAP2 GT PUSH2 0x4447 JUMPI SWAP3 PUSH2 0x4392 JUMP JUMPDEST PUSH4 0x4E487B71 PUSH1 0xE0 SHL DUP7 MSTORE PUSH1 0x11 PUSH1 0x4 MSTORE PUSH1 0x24 DUP7 REVERT JUMPDEST SWAP1 SWAP4 PUSH2 0x4467 DUP2 DUP7 PUSH2 0x3B63 JUMP JUMPDEST PUSH2 0x4475 PUSH1 0x1 SWAP2 DUP3 SHR DUP4 PUSH2 0x3E7A JUMP JUMPDEST SWAP2 DUP4 PUSH2 0x4481 DUP5 DUP8 PUSH2 0x3D36 JUMP JUMPDEST MLOAD LT ISZERO PUSH2 0x449A JUMPI POP DUP2 ADD DUP1 SWAP2 GT PUSH2 0x4447 JUMPI SWAP4 JUMPDEST SWAP1 PUSH2 0x4384 JUMP JUMPDEST SWAP6 POP POP PUSH2 0x4494 JUMP JUMPDEST PUSH1 0x40 MLOAD PUSH3 0x461BCD PUSH1 0xE5 SHL DUP2 MSTORE PUSH1 0x20 PUSH1 0x4 DUP3 ADD MSTORE PUSH1 0x12 PUSH1 0x24 DUP3 ADD MSTORE PUSH18 0x496E76616C69642074696D652072616E6765 PUSH1 0x70 SHL PUSH1 0x44 DUP3 ADD MSTORE PUSH1 0x64 SWAP1 REVERT JUMPDEST SWAP1 PUSH2 0x44E6 DUP3 PUSH2 0x3327 JUMP JUMPDEST PUSH2 0x44F3 PUSH1 0x40 MLOAD SWAP2 DUP3 PUSH2 0x30E1 JUMP JUMPDEST DUP3 DUP2 MSTORE DUP1 SWAP3 PUSH2 0x4504 PUSH1 0x1F NOT SWAP2 PUSH2 0x3327 JUMP JUMPDEST ADD SWAP1 PUSH1 0x0 JUMPDEST DUP3 DUP2 LT PUSH2 0x4515 JUMPI POP POP POP JUMP JUMPDEST PUSH1 0x20 SWAP1 PUSH2 0x4520 PUSH2 0x4338 JUMP JUMPDEST DUP3 DUP3 DUP6 ADD ADD MSTORE ADD PUSH2 0x4509 JUMP JUMPDEST SWAP2 SWAP1 SWAP2 PUSH1 0x60 SWAP3 DUP4 PUSH1 0x0 SWAP3 CALLER DUP5 MSTORE PUSH1 0x20 SWAP2 PUSH1 0xE DUP4 MSTORE PUSH1 0x40 SWAP2 DUP3 DUP7 KECCAK256 SLOAD PUSH2 0x4550 DUP2 PUSH2 0x3327 JUMP JUMPDEST SWAP1 PUSH2 0x455D DUP6 MLOAD SWAP3 DUP4 PUSH2 0x30E1 JUMP JUMPDEST DUP1 DUP3 MSTORE PUSH2 0x456C PUSH1 0x1F NOT SWAP2 PUSH2 0x3327 JUMP JUMPDEST ADD SWAP1 DUP6 CALLDATASIZE SWAP2 ADD CALLDATACOPY CALLER DUP7 MSTORE PUSH1 0xE DUP5 MSTORE DUP3 DUP7 KECCAK256 SWAP1 DUP4 MLOAD DUP1 SWAP3 DUP4 SWAP2 DUP8 DUP3 SLOAD SWAP2 DUP3 DUP2 MSTORE ADD SWAP2 DUP11 MSTORE DUP8 DUP11 KECCAK256 SWAP1 DUP11 JUMPDEST DUP10 DUP3 DUP3 LT PUSH2 0x4839 JUMPI POP POP POP POP PUSH4 0xFFFFFFFF SWAP3 SWAP2 PUSH2 0x45B3 SWAP2 SUB DUP5 PUSH2 0x30E1 JUMP JUMPDEST AND SWAP5 PUSH2 0x45BF DUP2 DUP8 PUSH2 0x3E87 JUMP JUMPDEST PUSH2 0x45CA DUP3 DUP5 MLOAD PUSH2 0x3E7A JUMP JUMPDEST LT ISZERO PUSH2 0x45DA JUMPI POP POP POP POP POP POP SWAP2 SWAP1 JUMP JUMPDEST SWAP1 SWAP2 SWAP4 SWAP6 SWAP3 SWAP5 SWAP8 POP PUSH2 0x45EC DUP2 DUP10 PUSH2 0x3E87 JUMP JUMPDEST DUP3 MLOAD GT ISZERO PUSH2 0x472D JUMPI PUSH2 0x45FD DUP2 PUSH2 0x44DC JUMP JUMPDEST SWAP8 DUP4 JUMPDEST DUP10 MLOAD DUP2 LT ISZERO PUSH2 0x471F JUMPI PUSH2 0x4629 PUSH2 0x4623 DUP3 PUSH2 0x4165 DUP7 PUSH2 0x461E DUP2 DUP9 PUSH2 0x3E87 JUMP JUMPDEST PUSH2 0x3B63 JUMP JUMPDEST DUP6 PUSH2 0x3D36 JUMP JUMPDEST MLOAD DUP6 MSTORE PUSH1 0xA DUP9 MSTORE DUP7 DUP6 KECCAK256 DUP8 MLOAD SWAP1 PUSH2 0x463F DUP3 PUSH2 0x308F JUMP JUMPDEST DUP1 SLOAD DUP3 MSTORE PUSH1 0x1 DUP1 DUP3 ADD SLOAD PUSH1 0x1 PUSH1 0x1 PUSH1 0xA0 SHL SUB AND DUP12 DUP5 ADD MSTORE PUSH1 0x2 DUP3 ADD DUP1 SLOAD DUP13 SWAP3 SWAP2 DUP13 PUSH2 0x4669 DUP4 PUSH2 0x3327 JUMP JUMPDEST SWAP5 PUSH2 0x4676 DUP3 MLOAD SWAP7 DUP8 PUSH2 0x30E1 JUMP JUMPDEST DUP4 DUP7 MSTORE DUP1 DUP7 ADD SWAP3 DUP14 MSTORE DUP1 DUP14 KECCAK256 SWAP3 DUP14 SWAP3 JUMPDEST DUP6 DUP5 LT PUSH2 0x46DD JUMPI SWAP4 POP POP POP POP DUP6 PUSH2 0x46D8 SWAP8 SWAP7 SWAP6 SWAP4 POP PUSH1 0xD SWAP5 SWAP3 POP ADD MSTORE PUSH1 0x3 DUP2 ADD SLOAD DUP11 DUP5 ADD MSTORE PUSH2 0x46B7 PUSH1 0x4 DUP3 ADD PUSH2 0x424C JUMP JUMPDEST PUSH1 0x80 DUP5 ADD MSTORE ADD SLOAD PUSH1 0xA0 DUP3 ADD MSTORE PUSH2 0x46CD DUP3 DUP14 PUSH2 0x3D36 JUMP JUMPDEST MSTORE PUSH2 0xC76 DUP2 DUP13 PUSH2 0x3D36 JUMP JUMPDEST PUSH2 0x4600 JUMP JUMPDEST SWAP2 PUSH1 0x3 SWAP2 DUP4 PUSH2 0x470E DUP10 SWAP6 MLOAD SWAP2 PUSH2 0x46F2 DUP4 PUSH2 0x30C6 JUMP JUMPDEST DUP9 SLOAD DUP4 MSTORE DUP7 DUP10 ADD SLOAD DUP6 DUP5 ADD MSTORE PUSH1 0xFF PUSH1 0x2 DUP11 ADD SLOAD AND SWAP1 DUP4 ADD PUSH2 0x3E9A JUMP JUMPDEST DUP2 MSTORE ADD SWAP4 ADD SWAP2 ADD SWAP1 SWAP2 DUP16 SWAP1 DUP16 PUSH2 0x4686 JUMP JUMPDEST POP POP POP POP POP POP POP POP PUSH1 0x1 SWAP2 SWAP1 JUMP JUMPDEST PUSH2 0x4753 PUSH2 0x474E PUSH2 0x4748 PUSH2 0x4740 DUP5 DUP13 PUSH2 0x3E87 JUMP JUMPDEST DUP6 MLOAD SWAP1 PUSH2 0x3B63 JUMP JUMPDEST DUP4 PUSH2 0x3B63 JUMP JUMPDEST PUSH2 0x44DC JUMP JUMPDEST SWAP8 DUP4 JUMPDEST DUP10 MLOAD DUP2 LT ISZERO PUSH2 0x482D JUMPI PUSH2 0x4774 PUSH2 0x4623 DUP3 PUSH2 0x4165 DUP7 PUSH2 0x461E DUP2 DUP9 PUSH2 0x3E87 JUMP JUMPDEST MLOAD DUP6 MSTORE PUSH1 0xA DUP9 MSTORE DUP7 DUP6 KECCAK256 DUP8 MLOAD SWAP1 PUSH2 0x478A DUP3 PUSH2 0x308F JUMP JUMPDEST DUP1 SLOAD DUP3 MSTORE PUSH1 0x1 DUP1 DUP3 ADD SLOAD PUSH1 0x1 PUSH1 0x1 PUSH1 0xA0 SHL SUB AND DUP12 DUP5 ADD MSTORE PUSH1 0x2 DUP3 ADD DUP1 SLOAD DUP13 SWAP3 SWAP2 DUP13 PUSH2 0x47B4 DUP4 PUSH2 0x3327 JUMP JUMPDEST SWAP5 PUSH2 0x47C1 DUP3 MLOAD SWAP7 DUP8 PUSH2 0x30E1 JUMP JUMPDEST DUP4 DUP7 MSTORE DUP1 DUP7 ADD SWAP3 DUP14 MSTORE DUP1 DUP14 KECCAK256 SWAP3 DUP14 SWAP3 JUMPDEST DUP6 DUP5 LT PUSH2 0x4807 JUMPI SWAP4 POP POP POP POP DUP6 PUSH2 0x4802 SWAP8 SWAP7 SWAP6 SWAP4 POP PUSH1 0xD SWAP5 SWAP3 POP ADD MSTORE PUSH1 0x3 DUP2 ADD SLOAD DUP11 DUP5 ADD MSTORE PUSH2 0x46B7 PUSH1 0x4 DUP3 ADD PUSH2 0x424C JUMP JUMPDEST PUSH2 0x4756 JUMP JUMPDEST SWAP2 PUSH1 0x3 SWAP2 DUP4 PUSH2 0x481C DUP10 SWAP6 MLOAD SWAP2 PUSH2 0x46F2 DUP4 PUSH2 0x30C6 JUMP JUMPDEST DUP2 MSTORE ADD SWAP4 ADD SWAP2 ADD SWAP1 SWAP2 DUP16 SWAP1 DUP16 PUSH2 0x47D1 JUMP JUMPDEST POP POP POP POP SWAP3 POP POP POP SWAP2 SWAP1 JUMP JUMPDEST DUP4 SLOAD DUP6 MSTORE DUP8 SWAP6 POP SWAP1 SWAP4 ADD SWAP3 PUSH1 0x1 SWAP3 DUP4 ADD SWAP3 ADD PUSH2 0x4595 JUMP JUMPDEST SWAP1 SWAP3 SWAP2 SWAP3 PUSH2 0x485D DUP2 PUSH2 0x3102 JUMP JUMPDEST SWAP2 PUSH2 0x486B PUSH1 0x40 MLOAD SWAP4 DUP5 PUSH2 0x30E1 JUMP JUMPDEST DUP3 SWAP5 DUP3 DUP5 MSTORE DUP3 DUP3 ADD GT PUSH2 0x258 JUMPI PUSH1 0x20 PUSH2 0x4885 SWAP4 ADD SWAP1 PUSH2 0x317A JUMP JUMPDEST JUMP JUMPDEST DUP1 MLOAD DUP2 ADD PUSH1 0x40 DUP3 PUSH1 0x20 DUP4 ADD SWAP3 SUB SLT PUSH2 0x258 JUMPI PUSH1 0x20 DUP3 ADD MLOAD PUSH1 0x1 PUSH1 0x1 PUSH1 0x40 SHL SUB DUP2 GT PUSH2 0x258 JUMPI DUP3 ADD DUP2 PUSH1 0x3F DUP3 ADD SLT ISZERO PUSH2 0x258 JUMPI PUSH1 0x40 SWAP2 DUP2 DUP4 PUSH1 0x20 PUSH2 0x48CD SWAP5 ADD MLOAD SWAP2 ADD PUSH2 0x4850 JUMP JUMPDEST SWAP2 ADD MLOAD PUSH1 0x2 DUP2 LT ISZERO PUSH2 0x258 JUMPI DUP1 ISZERO PUSH2 0x4A5C JUMPI PUSH1 0x1 EQ PUSH2 0x48EE JUMPI POP POP POP PUSH1 0x0 SWAP1 JUMP JUMPDEST PUSH1 0x40 DUP2 DUP1 MLOAD DUP2 ADD SUB SLT PUSH2 0x258 JUMPI PUSH1 0x40 PUSH1 0x20 DUP3 ADD MLOAD SWAP2 ADD MLOAD SWAP3 PUSH1 0x0 DUP3 DUP2 MSTORE PUSH1 0xA PUSH1 0x20 MSTORE PUSH1 0x1 DUP1 PUSH1 0xA0 SHL SUB PUSH1 0x1 PUSH1 0x40 DUP4 KECCAK256 ADD SLOAD AND SWAP5 DUP6 DUP3 MSTORE PUSH1 0x13 PUSH1 0x20 MSTORE PUSH1 0x40 DUP3 KECCAK256 DUP5 DUP4 MSTORE PUSH1 0x20 MSTORE PUSH1 0x40 DUP3 KECCAK256 DUP2 DUP4 MSTORE PUSH1 0x20 MSTORE PUSH2 0x494E PUSH1 0x40 DUP4 KECCAK256 SLOAD DUP1 SWAP5 LT ISZERO PUSH2 0x5836 JUMP JUMPDEST DUP6 DUP3 MSTORE PUSH1 0x14 PUSH1 0x20 MSTORE PUSH1 0x40 DUP3 KECCAK256 DUP5 DUP4 MSTORE PUSH1 0x20 MSTORE PUSH1 0x40 DUP3 KECCAK256 DUP2 DUP4 MSTORE PUSH1 0x20 MSTORE PUSH1 0xFF PUSH1 0x2 PUSH1 0x40 DUP5 KECCAK256 ADD SLOAD AND SWAP4 DUP7 DUP4 MSTORE PUSH1 0x12 PUSH1 0x20 MSTORE PUSH1 0x40 DUP4 KECCAK256 DUP2 DUP5 MSTORE PUSH1 0x20 MSTORE PUSH1 0x40 DUP4 KECCAK256 DUP3 DUP5 MSTORE PUSH1 0x20 MSTORE PUSH2 0x49A3 PUSH1 0x40 DUP5 KECCAK256 SLOAD PUSH2 0x858 DUP8 PUSH2 0x41CB JUMP JUMPDEST DUP8 DUP5 MSTORE PUSH1 0x12 PUSH1 0x20 MSTORE PUSH1 0x40 DUP5 KECCAK256 DUP3 DUP6 MSTORE PUSH1 0x20 MSTORE PUSH1 0x40 DUP5 KECCAK256 DUP4 DUP6 MSTORE PUSH1 0x20 MSTORE PUSH1 0x40 DUP5 KECCAK256 SSTORE DUP7 DUP4 MSTORE PUSH1 0x12 PUSH1 0x20 MSTORE PUSH1 0x40 DUP4 KECCAK256 DUP2 DUP5 MSTORE PUSH1 0x20 MSTORE PUSH1 0x40 DUP4 KECCAK256 DUP3 DUP5 MSTORE PUSH1 0x20 MSTORE PUSH1 0x40 DUP4 KECCAK256 SLOAD SWAP3 PUSH1 0x4 DUP7 LT ISZERO PUSH2 0x4A48 JUMPI POP PUSH1 0x40 DUP1 MLOAD SWAP8 DUP9 MSTORE PUSH1 0x20 DUP9 ADD SWAP2 SWAP1 SWAP2 MSTORE DUP7 ADD MSTORE TIMESTAMP PUSH1 0x60 DUP7 ADD MSTORE PUSH1 0x80 DUP6 ADD MSTORE PUSH1 0xA0 DUP5 ADD MSTORE PUSH1 0xC0 DUP4 ADD MSTORE PUSH1 0xE0 DUP3 ADD MSTORE PUSH32 0x7A349466F0B119934B2376706BF145E6FABE7EB4B8C4CBA23BB8F5DC9CB74B75 SWAP1 PUSH2 0x100 SWAP1 LOG1 PUSH1 0x1 SWAP1 JUMP JUMPDEST PUSH4 0x4E487B71 PUSH1 0xE0 SHL DUP2 MSTORE PUSH1 0x21 PUSH1 0x4 MSTORE PUSH1 0x24 SWAP1 REVERT JUMPDEST POP DUP1 SWAP4 SWAP2 SWAP4 MLOAD DUP2 ADD PUSH1 0x60 DUP3 DUP3 SUB SLT PUSH2 0x258 JUMPI PUSH1 0x20 DUP3 ADD MLOAD PUSH1 0x1 PUSH1 0x1 PUSH1 0x40 SHL SUB DUP2 GT PUSH2 0x258 JUMPI DUP3 ADD SWAP1 PUSH1 0x20 DUP2 ADD SWAP3 DUP4 PUSH1 0x3F DUP5 ADD SLT ISZERO PUSH2 0x258 JUMPI PUSH1 0x20 DUP4 ADD MLOAD PUSH2 0x4AA2 DUP2 PUSH2 0x3327 JUMP JUMPDEST SWAP4 PUSH2 0x4AB0 PUSH1 0x40 MLOAD SWAP6 DUP7 PUSH2 0x30E1 JUMP JUMPDEST DUP2 DUP6 MSTORE PUSH1 0x40 PUSH1 0x60 PUSH1 0x20 DUP8 ADD SWAP4 MUL DUP3 ADD ADD SWAP1 DUP7 DUP3 GT PUSH2 0x258 JUMPI PUSH1 0x40 ADD SWAP2 JUMPDEST DUP2 DUP4 LT PUSH2 0x57CF JUMPI POP POP POP PUSH1 0x40 DUP2 ADD MLOAD PUSH1 0x1 PUSH1 0x1 PUSH1 0x40 SHL SUB DUP2 GT PUSH2 0x258 JUMPI DUP2 ADD SWAP4 DUP5 SWAP3 PUSH2 0x120 SWAP6 DUP7 SWAP2 SUB SLT PUSH2 0x258 JUMPI PUSH1 0x40 MLOAD SWAP5 PUSH2 0x4B08 DUP7 PUSH2 0x3073 JUMP JUMPDEST PUSH1 0x20 DUP5 ADD MLOAD PUSH1 0x1 PUSH1 0x1 PUSH1 0x40 SHL SUB DUP2 GT PUSH2 0x258 JUMPI DUP3 PUSH1 0x20 PUSH2 0x4B2A SWAP3 DUP8 ADD ADD PUSH2 0x581C JUMP JUMPDEST DUP7 MSTORE PUSH1 0x40 DUP5 ADD MLOAD PUSH1 0x1 PUSH1 0x1 PUSH1 0x40 SHL SUB DUP2 GT PUSH2 0x258 JUMPI DUP3 PUSH1 0x20 PUSH2 0x4B4E SWAP3 DUP8 ADD ADD PUSH2 0x581C JUMP JUMPDEST PUSH1 0x20 DUP8 ADD MSTORE PUSH1 0x60 DUP5 ADD MLOAD PUSH1 0x1 PUSH1 0x1 PUSH1 0x40 SHL SUB DUP2 GT PUSH2 0x258 JUMPI DUP3 PUSH1 0x20 PUSH2 0x4B75 SWAP3 DUP8 ADD ADD PUSH2 0x581C JUMP JUMPDEST PUSH1 0x40 DUP8 ADD MSTORE PUSH1 0x80 DUP5 ADD MLOAD PUSH1 0x1 PUSH1 0x1 PUSH1 0x40 SHL SUB DUP2 GT PUSH2 0x258 JUMPI DUP3 PUSH1 0x20 PUSH2 0x4B9C SWAP3 DUP8 ADD ADD PUSH2 0x581C JUMP JUMPDEST PUSH1 0x60 DUP8 ADD MSTORE PUSH1 0xA0 DUP5 ADD MLOAD PUSH1 0x1 PUSH1 0x1 PUSH1 0x40 SHL SUB DUP2 GT PUSH2 0x258 JUMPI DUP3 PUSH1 0x20 PUSH2 0x4BC3 SWAP3 DUP8 ADD ADD PUSH2 0x581C JUMP JUMPDEST PUSH1 0x80 DUP8 ADD MSTORE PUSH1 0xC0 DUP5 ADD MLOAD PUSH1 0x1 PUSH1 0x1 PUSH1 0x40 SHL SUB DUP2 GT PUSH2 0x258 JUMPI DUP3 PUSH1 0x20 PUSH2 0x4BEA SWAP3 DUP8 ADD ADD PUSH2 0x581C JUMP JUMPDEST PUSH1 0xA0 DUP8 ADD MSTORE PUSH1 0xE0 DUP5 ADD MLOAD PUSH1 0x1 PUSH1 0x1 PUSH1 0x40 SHL SUB DUP2 GT PUSH2 0x258 JUMPI DUP3 PUSH1 0x20 PUSH2 0x4C11 SWAP3 DUP8 ADD ADD PUSH2 0x581C JUMP JUMPDEST PUSH1 0xC0 DUP8 ADD MSTORE PUSH2 0x100 DUP5 ADD MLOAD PUSH1 0x1 PUSH1 0x1 PUSH1 0x40 SHL SUB DUP2 GT PUSH2 0x258 JUMPI DUP3 PUSH1 0x20 PUSH2 0x4C39 SWAP3 DUP8 ADD ADD PUSH2 0x581C JUMP JUMPDEST PUSH1 0xE0 DUP8 ADD MSTORE DUP4 ADD MLOAD SWAP1 PUSH1 0x1 PUSH1 0x1 PUSH1 0x40 SHL SUB DUP3 GT PUSH2 0x258 JUMPI PUSH1 0x20 PUSH2 0x4C60 SWAP3 PUSH1 0x60 SWAP6 ADD ADD PUSH2 0x581C JUMP JUMPDEST PUSH2 0x100 DUP6 ADD MSTORE ADD MLOAD SWAP1 PUSH1 0x1 PUSH1 0x1 PUSH1 0xA0 SHL SUB DUP3 AND DUP3 SUB PUSH2 0x258 JUMPI DUP1 MLOAD PUSH1 0x40 MLOAD PUSH1 0x60 DUP5 SWAP1 SHL PUSH12 0xFFFFFFFFFFFFFFFFFFFFFFFF NOT AND PUSH1 0x20 DUP3 ADD SWAP1 DUP2 MSTORE PUSH1 0x34 DUP3 ADD SWAP3 SWAP1 SWAP3 MSTORE TIMESTAMP PUSH1 0x54 DUP3 ADD MSTORE PUSH2 0x4CB4 DUP2 PUSH1 0x74 DUP2 ADD PUSH2 0x1D2F JUMP JUMPDEST MLOAD SWAP1 KECCAK256 SWAP4 PUSH1 0x0 SWAP4 DUP5 JUMPDEST DUP4 MLOAD DUP7 LT ISZERO PUSH2 0x4E43 JUMPI PUSH2 0x4CD0 DUP7 DUP6 PUSH2 0x3D36 JUMP JUMPDEST MLOAD SWAP6 DUP7 MLOAD PUSH1 0x0 MSTORE PUSH1 0xB PUSH1 0x20 MSTORE PUSH2 0x4CEC PUSH1 0x40 PUSH1 0x0 KECCAK256 SLOAD ISZERO ISZERO PUSH2 0x3D4A JUMP JUMPDEST PUSH1 0x4 PUSH1 0x40 DUP9 ADD MLOAD LT DUP1 ISZERO PUSH2 0x920 JUMPI PUSH2 0x4D03 SWAP1 PUSH2 0x3DE2 JUMP JUMPDEST DUP7 MLOAD PUSH1 0x0 MSTORE PUSH1 0xB PUSH1 0x20 MSTORE PUSH1 0x40 PUSH1 0x0 KECCAK256 SWAP2 PUSH2 0x4D22 PUSH1 0xB DUP5 ADD SLOAD ISZERO ISZERO PUSH2 0x3E2E JUMP JUMPDEST PUSH1 0x40 DUP9 ADD MLOAD PUSH1 0x4 DUP2 LT ISZERO PUSH2 0x920 JUMPI PUSH2 0x4E25 JUMPI PUSH2 0x4D73 SWAP1 PUSH2 0x1DF6 PUSH1 0x20 DUP11 ADD PUSH2 0x4D4E DUP2 MLOAD PUSH1 0xB DUP9 ADD SLOAD PUSH2 0x3B63 JUMP JUMPDEST PUSH1 0xB DUP8 ADD SSTORE DUP1 MLOAD PUSH2 0x4D64 PUSH1 0xC DUP9 ADD SWAP2 DUP3 SLOAD PUSH2 0x3E7A JUMP JUMPDEST SWAP1 SSTORE PUSH1 0x6 DUP7 ADD SLOAD SWAP1 MLOAD SWAP1 PUSH2 0x3E87 JUMP JUMPDEST SWAP7 JUMPDEST PUSH1 0x6 PUSH1 0x20 DUP3 ADD MLOAD SWAP4 ADD SLOAD SWAP1 PUSH1 0x40 DUP2 ADD MLOAD PUSH1 0x4 DUP2 LT ISZERO PUSH2 0x920 JUMPI PUSH2 0x4E1F SWAP5 PUSH32 0xD0CB37444E42A97B69191186CAC71D299BF85A8F4472C9E55CD9F7EB26C5B1E SWAP4 PUSH2 0x4DF6 DUP12 SWAP4 PUSH2 0x1E9F SWAP6 MLOAD SWAP3 PUSH1 0x1 DUP1 PUSH1 0xA0 SHL SUB PUSH1 0x2 SLOAD AND SWAP5 PUSH1 0x40 MLOAD SWAP7 PUSH2 0x4DD8 DUP9 PUSH2 0x3073 JUMP JUMPDEST PUSH1 0x1 PUSH1 0x1 PUSH1 0xA0 SHL SUB AND DUP8 MSTORE PUSH1 0x20 DUP8 ADD MSTORE PUSH1 0x40 DUP7 ADD MSTORE PUSH1 0x60 DUP6 ADD PUSH2 0x3E9A JUMP JUMPDEST TIMESTAMP PUSH1 0x80 DUP5 ADD MSTORE PUSH1 0xA0 DUP4 ADD MSTORE CALLER PUSH1 0xC0 DUP4 ADD MSTORE PUSH1 0xE0 DUP3 ADD MSTORE DUP13 PUSH2 0x100 DUP3 ADD MSTORE PUSH1 0x40 MLOAD SWAP2 DUP3 SWAP2 DUP3 PUSH2 0x3EA6 JUMP JUMPDEST SWAP5 PUSH2 0x4CBD JUMP JUMPDEST PUSH2 0x4E3D SWAP1 PUSH2 0x1DF6 PUSH1 0x1 PUSH1 0x1 PUSH1 0xA0 SHL SUB DUP10 AND DUP12 DUP12 PUSH2 0x3F31 JUMP JUMPDEST SWAP7 PUSH2 0x4D75 JUMP JUMPDEST SWAP2 SWAP7 SWAP1 SWAP4 SWAP5 POP PUSH2 0x4E56 SWAP3 SWAP8 POP LT ISZERO PUSH2 0x5836 JUMP JUMPDEST PUSH1 0x40 MLOAD SWAP5 PUSH2 0x4E63 DUP7 PUSH2 0x308F JUMP JUMPDEST DUP4 DUP7 MSTORE PUSH1 0x1 DUP1 PUSH1 0xA0 SHL SUB DUP4 AND PUSH1 0x20 DUP8 ADD MSTORE PUSH1 0x40 DUP7 ADD MSTORE TIMESTAMP PUSH1 0x60 DUP7 ADD MSTORE PUSH1 0x80 DUP6 ADD MSTORE PUSH1 0x5 PUSH1 0xA0 DUP6 ADD MSTORE DUP2 PUSH1 0x0 MSTORE PUSH1 0xA PUSH1 0x20 MSTORE PUSH1 0x40 PUSH1 0x0 KECCAK256 DUP5 MLOAD DUP2 SSTORE PUSH1 0x1 DUP2 ADD PUSH1 0x1 DUP1 PUSH1 0xA0 SHL SUB PUSH1 0x20 DUP8 ADD MLOAD AND PUSH1 0x1 PUSH1 0x1 PUSH1 0x60 SHL SUB PUSH1 0xA0 SHL DUP3 SLOAD AND OR SWAP1 SSTORE PUSH1 0x40 DUP6 ADD MLOAD DUP1 MLOAD SWAP1 PUSH1 0x1 PUSH1 0x40 SHL DUP3 GT PUSH2 0x12AE JUMPI PUSH1 0x2 DUP4 ADD SLOAD DUP3 PUSH1 0x2 DUP6 ADD SSTORE DUP1 DUP4 LT PUSH2 0x5776 JUMPI JUMPDEST POP PUSH1 0x20 ADD SWAP1 PUSH1 0x2 DUP4 ADD PUSH1 0x0 MSTORE PUSH1 0x20 PUSH1 0x0 KECCAK256 PUSH1 0x0 SWAP3 JUMPDEST DUP3 DUP5 LT PUSH2 0x571D JUMPI POP POP POP POP PUSH1 0x60 DUP6 ADD MLOAD PUSH1 0x3 DUP3 ADD SSTORE PUSH1 0x80 DUP6 ADD MLOAD SWAP5 DUP6 MLOAD DUP1 MLOAD SWAP1 PUSH1 0x1 PUSH1 0x1 PUSH1 0x40 SHL SUB DUP3 GT PUSH2 0x12AE JUMPI DUP2 SWAP1 PUSH2 0x4F44 DUP3 PUSH2 0x4F3B PUSH1 0x4 DUP9 ADD SLOAD PUSH2 0x353E JUMP JUMPDEST PUSH1 0x4 DUP9 ADD PUSH2 0x3A0D JUMP JUMPDEST PUSH1 0x20 SWAP1 PUSH1 0x1F DUP4 GT PUSH1 0x1 EQ PUSH2 0x56AB JUMPI PUSH1 0x0 SWAP3 PUSH2 0x56A0 JUMPI JUMPDEST POP POP DUP2 PUSH1 0x1 SHL SWAP2 PUSH1 0x0 NOT SWAP1 PUSH1 0x3 SHL SHR NOT AND OR PUSH1 0x4 DUP4 ADD SSTORE JUMPDEST PUSH1 0x20 DUP7 ADD MLOAD DUP1 MLOAD SWAP1 PUSH1 0x1 PUSH1 0x1 PUSH1 0x40 SHL SUB DUP3 GT PUSH2 0x12AE JUMPI DUP2 SWAP1 PUSH2 0x4FA4 DUP3 PUSH2 0x4F9B PUSH1 0x5 DUP9 ADD SLOAD PUSH2 0x353E JUMP JUMPDEST PUSH1 0x5 DUP9 ADD PUSH2 0x3A0D JUMP JUMPDEST PUSH1 0x20 SWAP1 PUSH1 0x1F DUP4 GT PUSH1 0x1 EQ PUSH2 0x562E JUMPI PUSH1 0x0 SWAP3 PUSH2 0x5623 JUMPI JUMPDEST POP POP DUP2 PUSH1 0x1 SHL SWAP2 PUSH1 0x0 NOT SWAP1 PUSH1 0x3 SHL SHR NOT AND OR PUSH1 0x5 DUP4 ADD SSTORE JUMPDEST PUSH1 0x40 DUP7 ADD MLOAD DUP1 MLOAD SWAP1 PUSH1 0x1 PUSH1 0x1 PUSH1 0x40 SHL SUB DUP3 GT PUSH2 0x12AE JUMPI DUP2 SWAP1 PUSH2 0x5004 DUP3 PUSH2 0x4FFB PUSH1 0x6 DUP9 ADD SLOAD PUSH2 0x353E JUMP JUMPDEST PUSH1 0x6 DUP9 ADD PUSH2 0x3A0D JUMP JUMPDEST PUSH1 0x20 SWAP1 PUSH1 0x1F DUP4 GT PUSH1 0x1 EQ PUSH2 0x55B1 JUMPI PUSH1 0x0 SWAP3 PUSH2 0x55A6 JUMPI JUMPDEST POP POP DUP2 PUSH1 0x1 SHL SWAP2 PUSH1 0x0 NOT SWAP1 PUSH1 0x3 SHL SHR NOT AND OR PUSH1 0x6 DUP4 ADD SSTORE JUMPDEST PUSH1 0x60 DUP7 ADD MLOAD DUP1 MLOAD SWAP1 PUSH1 0x1 PUSH1 0x1 PUSH1 0x40 SHL SUB DUP3 GT PUSH2 0x12AE JUMPI DUP2 SWAP1 PUSH2 0x5064 DUP3 PUSH2 0x505B PUSH1 0x7 DUP9 ADD SLOAD PUSH2 0x353E JUMP JUMPDEST PUSH1 0x7 DUP9 ADD PUSH2 0x3A0D JUMP JUMPDEST PUSH1 0x20 SWAP1 PUSH1 0x1F DUP4 GT PUSH1 0x1 EQ PUSH2 0x5534 JUMPI PUSH1 0x0 SWAP3 PUSH2 0x5529 JUMPI JUMPDEST POP POP DUP2 PUSH1 0x1 SHL SWAP2 PUSH1 0x0 NOT SWAP1 PUSH1 0x3 SHL SHR NOT AND OR PUSH1 0x7 DUP4 ADD SSTORE JUMPDEST PUSH1 0x80 DUP7 ADD MLOAD DUP1 MLOAD SWAP1 PUSH1 0x1 PUSH1 0x1 PUSH1 0x40 SHL SUB DUP3 GT PUSH2 0x12AE JUMPI DUP2 SWAP1 PUSH2 0x50C4 DUP3 PUSH2 0x50BB PUSH1 0x8 DUP9 ADD SLOAD PUSH2 0x353E JUMP JUMPDEST PUSH1 0x8 DUP9 ADD PUSH2 0x3A0D JUMP JUMPDEST PUSH1 0x20 SWAP1 PUSH1 0x1F DUP4 GT PUSH1 0x1 EQ PUSH2 0x54B7 JUMPI PUSH1 0x0 SWAP3 PUSH2 0x54AC JUMPI JUMPDEST POP POP DUP2 PUSH1 0x1 SHL SWAP2 PUSH1 0x0 NOT SWAP1 PUSH1 0x3 SHL SHR NOT AND OR PUSH1 0x8 DUP4 ADD SSTORE JUMPDEST PUSH1 0xA0 DUP7 ADD MLOAD DUP1 MLOAD SWAP1 PUSH1 0x1 PUSH1 0x1 PUSH1 0x40 SHL SUB DUP3 GT PUSH2 0x12AE JUMPI DUP2 SWAP1 PUSH2 0x5124 DUP3 PUSH2 0x511B PUSH1 0x9 DUP9 ADD SLOAD PUSH2 0x353E JUMP JUMPDEST PUSH1 0x9 DUP9 ADD PUSH2 0x3A0D JUMP JUMPDEST PUSH1 0x20 SWAP1 PUSH1 0x1F DUP4 GT PUSH1 0x1 EQ PUSH2 0x543A JUMPI PUSH1 0x0 SWAP3 PUSH2 0x542F JUMPI JUMPDEST POP POP DUP2 PUSH1 0x1 SHL SWAP2 PUSH1 0x0 NOT SWAP1 PUSH1 0x3 SHL SHR NOT AND OR PUSH1 0x9 DUP4 ADD SSTORE JUMPDEST PUSH1 0xC0 DUP7 ADD MLOAD DUP1 MLOAD SWAP1 PUSH1 0x1 PUSH1 0x1 PUSH1 0x40 SHL SUB DUP3 GT PUSH2 0x12AE JUMPI DUP2 SWAP1 PUSH2 0x5184 DUP3 PUSH2 0x517B PUSH1 0xA DUP9 ADD SLOAD PUSH2 0x353E JUMP JUMPDEST PUSH1 0xA DUP9 ADD PUSH2 0x3A0D JUMP JUMPDEST PUSH1 0x20 SWAP1 PUSH1 0x1F DUP4 GT PUSH1 0x1 EQ PUSH2 0x53BD JUMPI PUSH1 0x0 SWAP3 PUSH2 0x53B2 JUMPI JUMPDEST POP POP DUP2 PUSH1 0x1 SHL SWAP2 PUSH1 0x0 NOT SWAP1 PUSH1 0x3 SHL SHR NOT AND OR PUSH1 0xA DUP4 ADD SSTORE JUMPDEST PUSH1 0xE0 DUP7 ADD MLOAD DUP1 MLOAD SWAP1 PUSH1 0x1 PUSH1 0x1 PUSH1 0x40 SHL SUB DUP3 GT PUSH2 0x12AE JUMPI DUP2 SWAP1 PUSH2 0x51E4 DUP3 PUSH2 0x51DB PUSH1 0xB DUP9 ADD SLOAD PUSH2 0x353E JUMP JUMPDEST PUSH1 0xB DUP9 ADD PUSH2 0x3A0D JUMP JUMPDEST PUSH1 0x20 SWAP1 PUSH1 0x1F DUP4 GT PUSH1 0x1 EQ PUSH2 0x5340 JUMPI PUSH1 0x0 SWAP3 PUSH2 0x5335 JUMPI JUMPDEST POP POP DUP2 PUSH1 0x1 SHL SWAP2 PUSH1 0x0 NOT SWAP1 PUSH1 0x3 SHL SHR NOT AND OR PUSH1 0xB DUP4 ADD SSTORE JUMPDEST PUSH2 0x100 PUSH1 0xC DUP4 ADD SWAP7 ADD MLOAD SWAP6 DUP7 MLOAD PUSH1 0x1 PUSH1 0x1 PUSH1 0x40 SHL SUB DUP2 GT PUSH2 0x12AE JUMPI PUSH2 0x523B DUP2 PUSH2 0x2C5C DUP5 SLOAD PUSH2 0x353E JUMP JUMPDEST PUSH1 0x20 PUSH1 0x1F DUP3 GT PUSH1 0x1 EQ PUSH2 0x52BF JUMPI SWAP3 PUSH1 0xD SWAP3 DUP3 PUSH1 0xA0 SWAP4 PUSH2 0x52AA SWAP9 SWAP8 SWAP7 PUSH2 0x52AF SWAP12 SWAP13 PUSH1 0x0 SWAP3 PUSH2 0x52B4 JUMPI JUMPDEST POP POP DUP2 PUSH1 0x1 SHL SWAP2 PUSH1 0x0 NOT SWAP1 PUSH1 0x3 SHL SHR NOT AND OR SWAP1 SSTORE JUMPDEST ADD MLOAD SWAP2 ADD SSTORE PUSH1 0x1 DUP1 PUSH1 0xA0 SHL SUB DUP2 AND PUSH1 0x0 MSTORE PUSH1 0xE PUSH1 0x20 MSTORE PUSH2 0x529C DUP4 PUSH1 0x40 PUSH1 0x0 KECCAK256 PUSH2 0x3ACF JUMP JUMPDEST PUSH1 0x1 PUSH1 0x1 PUSH1 0xA0 SHL SUB AND PUSH2 0x3926 JUMP JUMPDEST PUSH2 0x3A61 JUMP JUMPDEST PUSH1 0x1 SWAP1 JUMP JUMPDEST ADD MLOAD SWAP1 POP CODESIZE DUP1 PUSH2 0x5263 JUMP JUMPDEST PUSH1 0x1F NOT DUP3 AND SWAP9 DUP4 PUSH1 0x0 MSTORE PUSH1 0x20 PUSH1 0x0 KECCAK256 SWAP10 PUSH1 0x0 JUMPDEST DUP2 DUP2 LT PUSH2 0x531D JUMPI POP DUP4 PUSH2 0x52AF SWAP11 SWAP12 PUSH2 0x52AA SWAP10 SWAP9 SWAP8 SWAP5 PUSH1 0xD SWAP8 SWAP5 PUSH1 0xA0 SWAP8 PUSH1 0x1 SWAP6 LT PUSH2 0x5304 JUMPI JUMPDEST POP POP POP DUP2 SHL ADD SWAP1 SSTORE PUSH2 0x5278 JUMP JUMPDEST ADD MLOAD PUSH1 0x0 NOT PUSH1 0xF8 DUP5 PUSH1 0x3 SHL AND SHR NOT AND SWAP1 SSTORE CODESIZE DUP1 DUP1 PUSH2 0x52F7 JUMP JUMPDEST DUP4 DUP4 ADD MLOAD DUP13 SSTORE PUSH1 0x1 SWAP1 SWAP12 ADD SWAP11 PUSH1 0x20 SWAP4 DUP5 ADD SWAP4 ADD PUSH2 0x52D2 JUMP JUMPDEST ADD MLOAD SWAP1 POP CODESIZE DUP1 PUSH2 0x51FA JUMP JUMPDEST SWAP3 POP PUSH1 0xB DUP6 ADD PUSH1 0x0 MSTORE PUSH1 0x20 PUSH1 0x0 KECCAK256 SWAP1 PUSH1 0x0 SWAP4 JUMPDEST PUSH1 0x1F NOT DUP5 AND DUP6 LT PUSH2 0x5397 JUMPI PUSH1 0x1 SWAP5 POP DUP4 PUSH1 0x1F NOT DUP2 AND LT PUSH2 0x537E JUMPI JUMPDEST POP POP POP DUP2 SHL ADD PUSH1 0xB DUP4 ADD SSTORE PUSH2 0x5212 JUMP JUMPDEST ADD MLOAD PUSH1 0x0 NOT PUSH1 0xF8 DUP5 PUSH1 0x3 SHL AND SHR NOT AND SWAP1 SSTORE CODESIZE DUP1 DUP1 PUSH2 0x536E JUMP JUMPDEST DUP2 DUP2 ADD MLOAD DUP4 SSTORE PUSH1 0x20 SWAP5 DUP6 ADD SWAP5 PUSH1 0x1 SWAP1 SWAP4 ADD SWAP3 SWAP1 SWAP2 ADD SWAP1 PUSH2 0x5353 JUMP JUMPDEST ADD MLOAD SWAP1 POP CODESIZE DUP1 PUSH2 0x519A JUMP JUMPDEST SWAP3 POP PUSH1 0xA DUP6 ADD PUSH1 0x0 MSTORE PUSH1 0x20 PUSH1 0x0 KECCAK256 SWAP1 PUSH1 0x0 SWAP4 JUMPDEST PUSH1 0x1F NOT DUP5 AND DUP6 LT PUSH2 0x5414 JUMPI PUSH1 0x1 SWAP5 POP DUP4 PUSH1 0x1F NOT DUP2 AND LT PUSH2 0x53FB JUMPI JUMPDEST POP POP POP DUP2 SHL ADD PUSH1 0xA DUP4 ADD SSTORE PUSH2 0x51B2 JUMP JUMPDEST ADD MLOAD PUSH1 0x0 NOT PUSH1 0xF8 DUP5 PUSH1 0x3 SHL AND SHR NOT AND SWAP1 SSTORE CODESIZE DUP1 DUP1 PUSH2 0x53EB JUMP JUMPDEST DUP2 DUP2 ADD MLOAD DUP4 SSTORE PUSH1 0x20 SWAP5 DUP6 ADD SWAP5 PUSH1 0x1 SWAP1 SWAP4 ADD SWAP3 SWAP1 SWAP2 ADD SWAP1 PUSH2 0x53D0 JUMP JUMPDEST ADD MLOAD SWAP1 POP CODESIZE DUP1 PUSH2 0x513A JUMP JUMPDEST SWAP3 POP PUSH1 0x9 DUP6 ADD PUSH1 0x0 MSTORE PUSH1 0x20 PUSH1 0x0 KECCAK256 SWAP1 PUSH1 0x0 SWAP4 JUMPDEST PUSH1 0x1F NOT DUP5 AND DUP6 LT PUSH2 0x5491 JUMPI PUSH1 0x1 SWAP5 POP DUP4 PUSH1 0x1F NOT DUP2 AND LT PUSH2 0x5478 JUMPI JUMPDEST POP POP POP DUP2 SHL ADD PUSH1 0x9 DUP4 ADD SSTORE PUSH2 0x5152 JUMP JUMPDEST ADD MLOAD PUSH1 0x0 NOT PUSH1 0xF8 DUP5 PUSH1 0x3 SHL AND SHR NOT AND SWAP1 SSTORE CODESIZE DUP1 DUP1 PUSH2 0x5468 JUMP JUMPDEST DUP2 DUP2 ADD MLOAD DUP4 SSTORE PUSH1 0x20 SWAP5 DUP6 ADD SWAP5 PUSH1 0x1 SWAP1 SWAP4 ADD SWAP3 SWAP1 SWAP2 ADD SWAP1 PUSH2 0x544D JUMP JUMPDEST ADD MLOAD SWAP1 POP CODESIZE DUP1 PUSH2 0x50DA JUMP JUMPDEST SWAP3 POP PUSH1 0x8 DUP6 ADD PUSH1 0x0 MSTORE PUSH1 0x20 PUSH1 0x0 KECCAK256 SWAP1 PUSH1 0x0 SWAP4 JUMPDEST PUSH1 0x1F NOT DUP5 AND DUP6 LT PUSH2 0x550E JUMPI PUSH1 0x1 SWAP5 POP DUP4 PUSH1 0x1F NOT DUP2 AND LT PUSH2 0x54F5 JUMPI JUMPDEST POP POP POP DUP2 SHL ADD PUSH1 0x8 DUP4 ADD SSTORE PUSH2 0x50F2 JUMP JUMPDEST ADD MLOAD PUSH1 0x0 NOT PUSH1 0xF8 DUP5 PUSH1 0x3 SHL AND SHR NOT AND SWAP1 SSTORE CODESIZE DUP1 DUP1 PUSH2 0x54E5 JUMP JUMPDEST DUP2 DUP2 ADD MLOAD DUP4 SSTORE PUSH1 0x20 SWAP5 DUP6 ADD SWAP5 PUSH1 0x1 SWAP1 SWAP4 ADD SWAP3 SWAP1 SWAP2 ADD SWAP1 PUSH2 0x54CA JUMP JUMPDEST ADD MLOAD SWAP1 POP CODESIZE DUP1 PUSH2 0x507A JUMP JUMPDEST SWAP3 POP PUSH1 0x7 DUP6 ADD PUSH1 0x0 MSTORE PUSH1 0x20 PUSH1 0x0 KECCAK256 SWAP1 PUSH1 0x0 SWAP4 JUMPDEST PUSH1 0x1F NOT DUP5 AND DUP6 LT PUSH2 0x558B JUMPI PUSH1 0x1 SWAP5 POP DUP4 PUSH1 0x1F NOT DUP2 AND LT PUSH2 0x5572 JUMPI JUMPDEST POP POP POP DUP2 SHL ADD PUSH1 0x7 DUP4 ADD SSTORE PUSH2 0x5092 JUMP JUMPDEST ADD MLOAD PUSH1 0x0 NOT PUSH1 0xF8 DUP5 PUSH1 0x3 SHL AND SHR NOT AND SWAP1 SSTORE CODESIZE DUP1 DUP1 PUSH2 0x5562 JUMP JUMPDEST DUP2 DUP2 ADD MLOAD DUP4 SSTORE PUSH1 0x20 SWAP5 DUP6 ADD SWAP5 PUSH1 0x1 SWAP1 SWAP4 ADD SWAP3 SWAP1 SWAP2 ADD SWAP1 PUSH2 0x5547 JUMP JUMPDEST ADD MLOAD SWAP1 POP CODESIZE DUP1 PUSH2 0x501A JUMP JUMPDEST SWAP3 POP PUSH1 0x6 DUP6 ADD PUSH1 0x0 MSTORE PUSH1 0x20 PUSH1 0x0 KECCAK256 SWAP1 PUSH1 0x0 SWAP4 JUMPDEST PUSH1 0x1F NOT DUP5 AND DUP6 LT PUSH2 0x5608 JUMPI PUSH1 0x1 SWAP5 POP DUP4 PUSH1 0x1F NOT DUP2 AND LT PUSH2 0x55EF JUMPI JUMPDEST POP POP POP DUP2 SHL ADD PUSH1 0x6 DUP4 ADD SSTORE PUSH2 0x5032 JUMP JUMPDEST ADD MLOAD PUSH1 0x0 NOT PUSH1 0xF8 DUP5 PUSH1 0x3 SHL AND SHR NOT AND SWAP1 SSTORE CODESIZE DUP1 DUP1 PUSH2 0x55DF JUMP JUMPDEST DUP2 DUP2 ADD MLOAD DUP4 SSTORE PUSH1 0x20 SWAP5 DUP6 ADD SWAP5 PUSH1 0x1 SWAP1 SWAP4 ADD SWAP3 SWAP1 SWAP2 ADD SWAP1 PUSH2 0x55C4 JUMP JUMPDEST ADD MLOAD SWAP1 POP CODESIZE DUP1 PUSH2 0x4FBA JUMP JUMPDEST SWAP3 POP PUSH1 0x5 DUP6 ADD PUSH1 0x0 MSTORE PUSH1 0x20 PUSH1 0x0 KECCAK256 SWAP1 PUSH1 0x0 SWAP4 JUMPDEST PUSH1 0x1F NOT DUP5 AND DUP6 LT PUSH2 0x5685 JUMPI PUSH1 0x1 SWAP5 POP DUP4 PUSH1 0x1F NOT DUP2 AND LT PUSH2 0x566C JUMPI JUMPDEST POP POP POP DUP2 SHL ADD PUSH1 0x5 DUP4 ADD SSTORE PUSH2 0x4FD2 JUMP JUMPDEST ADD MLOAD PUSH1 0x0 NOT PUSH1 0xF8 DUP5 PUSH1 0x3 SHL AND SHR NOT AND SWAP1 SSTORE CODESIZE DUP1 DUP1 PUSH2 0x565C JUMP JUMPDEST DUP2 DUP2 ADD MLOAD DUP4 SSTORE PUSH1 0x20 SWAP5 DUP6 ADD SWAP5 PUSH1 0x1 SWAP1 SWAP4 ADD SWAP3 SWAP1 SWAP2 ADD SWAP1 PUSH2 0x5641 JUMP JUMPDEST ADD MLOAD SWAP1 POP CODESIZE DUP1 PUSH2 0x4F5A JUMP JUMPDEST SWAP3 POP PUSH1 0x4 DUP6 ADD PUSH1 0x0 MSTORE PUSH1 0x20 PUSH1 0x0 KECCAK256 SWAP1 PUSH1 0x0 SWAP4 JUMPDEST PUSH1 0x1F NOT DUP5 AND DUP6 LT PUSH2 0x5702 JUMPI PUSH1 0x1 SWAP5 POP DUP4 PUSH1 0x1F NOT DUP2 AND LT PUSH2 0x56E9 JUMPI JUMPDEST POP POP POP DUP2 SHL ADD PUSH1 0x4 DUP4 ADD SSTORE PUSH2 0x4F72 JUMP JUMPDEST ADD MLOAD PUSH1 0x0 NOT PUSH1 0xF8 DUP5 PUSH1 0x3 SHL AND SHR NOT AND SWAP1 SSTORE CODESIZE DUP1 DUP1 PUSH2 0x56D9 JUMP JUMPDEST DUP2 DUP2 ADD MLOAD DUP4 SSTORE PUSH1 0x20 SWAP5 DUP6 ADD SWAP5 PUSH1 0x1 SWAP1 SWAP4 ADD SWAP3 SWAP1 SWAP2 ADD SWAP1 PUSH2 0x56BE JUMP JUMPDEST PUSH1 0x40 DUP2 MLOAD DUP1 MLOAD DUP5 SSTORE PUSH1 0x20 DUP2 ADD MLOAD PUSH1 0x1 DUP6 ADD SSTORE ADD MLOAD PUSH1 0x4 DUP1 DUP3 LT ISZERO PUSH2 0x5761 JUMPI POP PUSH1 0x20 PUSH1 0x1 SWAP3 PUSH1 0x3 SWAP3 PUSH1 0x2 DUP7 ADD SWAP1 PUSH1 0xFF DUP1 NOT DUP4 SLOAD AND SWAP2 AND OR SWAP1 SSTORE ADD SWAP3 ADD SWAP4 ADD SWAP3 SWAP1 PUSH2 0x4EFA JUMP JUMPDEST PUSH1 0x21 SWAP1 PUSH4 0x4E487B71 PUSH1 0xE0 SHL PUSH1 0x0 MSTORE MSTORE PUSH1 0x24 PUSH1 0x0 REVERT JUMPDEST PUSH1 0x3 DUP2 DUP2 MUL DIV DUP2 SUB PUSH2 0x27C1 JUMPI PUSH1 0x3 DUP4 DUP2 MUL DIV DUP4 SUB PUSH2 0x27C1 JUMPI PUSH1 0x2 DUP5 ADD PUSH1 0x0 MSTORE PUSH1 0x20 PUSH1 0x0 KECCAK256 DUP4 PUSH1 0x3 MUL DUP2 ADD JUMPDEST DUP3 PUSH1 0x3 MUL DUP3 ADD DUP2 LT PUSH2 0x57B4 JUMPI POP POP PUSH2 0x4EE5 JUMP JUMPDEST DUP1 PUSH1 0x0 PUSH1 0x3 SWAP3 SSTORE PUSH1 0x0 PUSH1 0x1 DUP3 ADD SSTORE PUSH1 0x0 PUSH1 0x2 DUP3 ADD SSTORE ADD PUSH2 0x57A1 JUMP JUMPDEST PUSH1 0x60 PUSH1 0x20 DUP5 DUP8 SUB ADD SLT PUSH2 0x258 JUMPI PUSH1 0x40 MLOAD SWAP1 PUSH2 0x57E9 DUP3 PUSH2 0x30C6 JUMP JUMPDEST DUP4 MLOAD DUP3 MSTORE PUSH1 0x20 DUP5 ADD MLOAD PUSH1 0x20 DUP4 ADD MSTORE PUSH1 0x40 DUP5 ADD MLOAD SWAP1 PUSH1 0x4 DUP3 LT ISZERO PUSH2 0x258 JUMPI DUP3 PUSH1 0x20 SWAP3 PUSH1 0x40 PUSH1 0x60 SWAP6 ADD MSTORE DUP2 MSTORE ADD SWAP3 ADD SWAP2 PUSH2 0x4ACD JUMP JUMPDEST SWAP1 DUP1 PUSH1 0x1F DUP4 ADD SLT ISZERO PUSH2 0x258 JUMPI DUP2 MLOAD PUSH2 0x37BF SWAP3 PUSH1 0x20 ADD PUSH2 0x4850 JUMP JUMPDEST ISZERO PUSH2 0x583D JUMPI JUMP JUMPDEST PUSH1 0x40 MLOAD PUSH3 0x461BCD PUSH1 0xE5 SHL DUP2 MSTORE PUSH1 0x20 PUSH1 0x4 DUP3 ADD MSTORE PUSH1 0x4A PUSH1 0x24 DUP3 ADD MSTORE PUSH32 0x7B2266726F6D223A2022466943616D2E736F6C222C2022636F6465223A20382C PUSH1 0x44 DUP3 ADD MSTORE PUSH32 0x20226D657373616765223A2022496E73756666696369656E74207061796D656E PUSH1 0x64 DUP3 ADD MSTORE PUSH10 0x7420616D6F756E74227D PUSH1 0xB0 SHL PUSH1 0x84 DUP3 ADD MSTORE PUSH1 0xA4 SWAP1 REVERT JUMPDEST SWAP2 SWAP1 PUSH1 0x0 SWAP1 PUSH3 0x10BD9 PUSH3 0x15180 DUP1 DUP7 DIV DUP3 DUP2 ADD SWAP4 SWAP2 SWAP3 DUP6 DUP3 SLT DUP1 ISZERO SWAP2 DUP7 SLT SWAP2 DUP3 AND SWAP2 ISZERO AND OR PUSH2 0x5D41 JUMPI PUSH3 0x264965 ADD SWAP3 DUP5 PUSH3 0x253D8C DUP6 SLT SWAP2 SLT SWAP1 DUP1 ISZERO DUP3 AND SWAP2 ISZERO AND OR PUSH2 0x5D2D JUMPI DUP3 PUSH1 0x2 SHL SWAP1 PUSH1 0x4 SWAP2 DUP3 DUP2 SDIV DUP6 SUB PUSH2 0x5BE7 JUMPI PUSH3 0x23AB1 DUP1 SWAP2 SDIV SWAP5 DUP6 DUP3 MUL SWAP2 DUP3 SDIV DUP7 SUB PUSH2 0x5D1A JUMPI PUSH1 0x3 SWAP2 DUP3 DUP2 ADD SWAP1 DUP9 DUP5 DUP4 SLT SWAP2 SLT SWAP1 DUP1 ISZERO DUP3 AND SWAP2 ISZERO AND OR PUSH2 0x5D07 JUMPI SWAP1 DUP5 PUSH2 0x594C SWAP3 SDIV SWAP1 PUSH2 0x5D67 JUMP JUMPDEST SWAP5 PUSH1 0x1 SWAP6 DUP7 DUP2 ADD DUP8 DUP2 SLT DUP10 DUP4 SLT SWAP1 DUP1 ISZERO DUP3 AND SWAP2 ISZERO AND OR PUSH2 0x5BFA JUMPI PUSH2 0xFA0 SWAP1 DUP1 DUP3 MUL SWAP2 DUP3 SDIV SUB PUSH2 0x5BFA JUMPI PUSH3 0x164B09 PUSH2 0x5990 SWAP2 SDIV SWAP2 DUP7 PUSH2 0x5989 DUP5 PUSH2 0x5D9C JUMP JUMPDEST SDIV SWAP1 PUSH2 0x5D67 JUMP JUMPDEST SWAP1 PUSH1 0x1F DUP3 ADD SWAP2 DUP10 PUSH1 0x1F DUP5 SLT SWAP2 SLT SWAP1 DUP1 ISZERO DUP3 AND SWAP2 ISZERO AND OR PUSH2 0x5BFA JUMPI DUP2 PUSH1 0x50 MUL SWAP2 PUSH1 0x50 DUP4 SDIV DUP2 SUB PUSH2 0x5CF4 JUMPI PUSH2 0x98F DUP1 SWAP4 SDIV SWAP3 DUP4 DUP2 MUL SWAP1 DUP2 SDIV DUP5 SUB PUSH2 0x5C46 JUMPI SWAP1 PUSH1 0x50 PUSH2 0x59DA SWAP3 SDIV SWAP1 PUSH2 0x5D67 JUMP JUMPDEST SWAP1 PUSH1 0xB DUP4 SDIV SWAP1 PUSH1 0x2 DUP5 ADD SWAP4 DUP12 PUSH1 0x2 DUP7 SLT SWAP2 SLT SWAP1 DUP1 ISZERO DUP3 AND SWAP2 ISZERO AND OR PUSH2 0x5C46 JUMPI PUSH1 0xC SWAP4 DUP3 DUP6 MUL SWAP1 DUP6 DUP3 SDIV DUP5 SUB PUSH2 0x5C20 JUMPI SWAP1 PUSH2 0x5A13 SWAP2 PUSH2 0x5D67 JUMP JUMPDEST SWAP5 PUSH1 0x30 NOT DUP2 ADD SWAP1 DUP2 SGT DUP12 AND PUSH2 0x5C0D JUMPI DUP1 PUSH1 0x64 MUL SWAP1 PUSH1 0x64 DUP3 SDIV SUB PUSH2 0x5C0D JUMPI SWAP2 PUSH2 0x5A41 PUSH2 0x5A46 SWAP3 PUSH2 0x5A4E SWAP5 PUSH2 0x5D80 JUMP JUMPDEST PUSH2 0x5D80 JUMP JUMPDEST SWAP6 DUP3 SWAP5 PUSH2 0x3E7A JUMP JUMPDEST PUSH1 0x0 NOT SWAP6 DUP7 DUP3 ADD SWAP5 SWAP2 DUP6 GT PUSH2 0x5C46 JUMPI PUSH2 0x5A6B DUP5 SWAP2 DUP3 DUP8 DIV SWAP1 PUSH2 0x3E7A JUMP JUMPDEST SWAP5 MOD DUP10 DUP2 ADD SWAP3 DUP4 DUP3 GT PUSH2 0x5C0D JUMPI DUP11 DUP5 EQ DUP1 ISZERO PUSH2 0x5CEB JUMPI JUMPDEST DUP1 ISZERO PUSH2 0x5CE1 JUMPI JUMPDEST DUP1 ISZERO PUSH2 0x5CD7 JUMPI JUMPDEST DUP1 ISZERO PUSH2 0x5CCD JUMPI JUMPDEST DUP1 ISZERO PUSH2 0x5CC3 JUMPI JUMPDEST DUP1 ISZERO PUSH2 0x5CBA JUMPI JUMPDEST ISZERO PUSH2 0x5C65 JUMPI PUSH1 0x1F DUP1 SWAP2 JUMPDEST GT PUSH2 0x5C5D JUMPI JUMPDEST POP PUSH2 0x7B2 DUP6 LT PUSH2 0x5C59 JUMPI PUSH2 0x7D4A NOT DUP3 ADD SWAP2 DUP3 SGT DUP11 AND PUSH2 0x5C46 JUMPI DUP11 DUP6 SLT SWAP7 DUP8 ISZERO SWAP3 PUSH2 0x12C0 DUP8 DUP2 ADD SWAP1 DUP2 SLT DUP6 DUP2 AND SWAP1 ISZERO DUP12 AND OR PUSH2 0x5C33 JUMPI SWAP1 DUP11 PUSH2 0x5B00 PUSH2 0x5B07 PUSH2 0x5B0C SWAP5 DUP11 PUSH2 0x5B00 DUP12 PUSH2 0x5D55 JUMP JUMPDEST SDIV SWAP1 PUSH2 0x5D80 JUMP JUMPDEST PUSH2 0x5D9C JUMP JUMPDEST SWAP2 ADD DUP4 DUP2 SGT DUP12 AND PUSH2 0x5C0D JUMPI DUP5 PUSH2 0x5B21 DUP6 PUSH2 0x5D55 JUMP JUMPDEST SDIV SWAP1 DUP6 DUP3 MUL SWAP2 DUP1 DUP4 SDIV DUP8 EQ SWAP1 ISZERO OR ISZERO PUSH2 0x5C20 JUMPI SWAP1 PUSH2 0x5B3E SWAP2 PUSH2 0x5D67 JUMP JUMPDEST PUSH2 0x16F SWAP1 DUP1 DUP3 MUL SWAP2 DUP3 SDIV SUB PUSH2 0x5C0D JUMPI SWAP1 DUP5 PUSH2 0x5B5A SWAP3 SDIV SWAP1 PUSH2 0x5D80 JUMP JUMPDEST SWAP6 PUSH2 0x1324 DUP1 SWAP6 ADD SWAP5 DUP6 SLT SWAP1 DUP2 ISZERO AND SWAP2 AND OR PUSH2 0x5BFA JUMPI SWAP2 PUSH2 0x5B7F SWAP2 PUSH2 0x5B00 PUSH1 0x64 SWAP5 PUSH2 0x5D55 JUMP JUMPDEST SDIV DUP1 DUP3 MUL SWAP2 DUP3 SDIV SUB PUSH2 0x5BE7 JUMPI SWAP1 DUP3 PUSH2 0x5B98 SWAP3 SDIV SWAP1 PUSH2 0x5D67 JUMP JUMPDEST PUSH3 0x253D8B NOT DUP2 ADD SWAP4 SWAP1 DUP5 SGT AND PUSH2 0x5BD4 JUMPI DUP2 DUP4 MUL SWAP3 DUP1 DUP5 DIV DUP4 EQ SWAP1 ISZERO OR ISZERO PUSH2 0x5BD4 JUMPI POP SWAP1 PUSH2 0x5BC7 SWAP2 DUP6 MOD SWAP1 PUSH2 0x3E7A JUMP JUMPDEST SWAP3 DUP4 LT PUSH2 0x5BD1 JUMPI POP JUMP JUMPDEST DUP1 REVERT JUMPDEST PUSH4 0x4E487B71 PUSH1 0xE0 SHL DUP5 MSTORE PUSH1 0x11 SWAP1 MSTORE PUSH1 0x24 DUP4 REVERT JUMPDEST PUSH4 0x4E487B71 PUSH1 0xE0 SHL DUP7 MSTORE PUSH1 0x11 DUP4 MSTORE PUSH1 0x24 DUP7 REVERT JUMPDEST PUSH4 0x4E487B71 PUSH1 0xE0 SHL DUP10 MSTORE PUSH1 0x11 DUP7 MSTORE PUSH1 0x24 DUP10 REVERT JUMPDEST PUSH4 0x4E487B71 PUSH1 0xE0 SHL DUP13 MSTORE PUSH1 0x11 DUP10 MSTORE PUSH1 0x24 DUP13 REVERT JUMPDEST PUSH4 0x4E487B71 PUSH1 0xE0 SHL DUP14 MSTORE PUSH1 0x11 DUP11 MSTORE PUSH1 0x24 DUP14 REVERT JUMPDEST PUSH4 0x4E487B71 PUSH1 0xE0 SHL DUP15 MSTORE PUSH1 0x11 DUP12 MSTORE PUSH1 0x24 DUP15 REVERT JUMPDEST PUSH4 0x4E487B71 PUSH1 0xE0 SHL DUP12 MSTORE PUSH1 0x11 DUP9 MSTORE PUSH1 0x24 DUP12 REVERT JUMPDEST DUP11 DUP1 REVERT JUMPDEST SWAP2 POP CODESIZE PUSH2 0x5AB5 JUMP JUMPDEST PUSH1 0x2 DUP5 EQ PUSH2 0x5C76 JUMPI PUSH1 0x1E DUP1 SWAP2 PUSH2 0x5AAF JUMP JUMPDEST DUP7 DUP7 AND ISZERO DUP1 PUSH2 0x5CAE JUMPI JUMPDEST DUP1 ISZERO PUSH2 0x5CA2 JUMPI JUMPDEST ISZERO PUSH2 0x5C99 JUMPI PUSH1 0xFF PUSH1 0x1D JUMPDEST AND DUP1 SWAP2 PUSH2 0x5AAF JUMP JUMPDEST PUSH1 0xFF PUSH1 0x1C PUSH2 0x5C91 JUMP JUMPDEST POP PUSH2 0x190 DUP7 MOD ISZERO PUSH2 0x5C87 JUMP JUMPDEST POP PUSH1 0x64 DUP7 MOD ISZERO ISZERO PUSH2 0x5C80 JUMP JUMPDEST POP DUP5 DUP5 EQ PUSH2 0x5AA5 JUMP JUMPDEST POP PUSH1 0xA DUP5 EQ PUSH2 0x5A9E JUMP JUMPDEST POP PUSH1 0x8 DUP5 EQ PUSH2 0x5A97 JUMP JUMPDEST POP PUSH1 0x7 DUP5 EQ PUSH2 0x5A90 JUMP JUMPDEST POP PUSH1 0x5 DUP5 EQ PUSH2 0x5A89 JUMP JUMPDEST POP DUP7 DUP5 EQ PUSH2 0x5A82 JUMP JUMPDEST PUSH4 0x4E487B71 PUSH1 0xE0 SHL DUP11 MSTORE PUSH1 0x11 DUP8 MSTORE PUSH1 0x24 DUP11 REVERT JUMPDEST PUSH4 0x4E487B71 PUSH1 0xE0 SHL DUP9 MSTORE PUSH1 0x11 DUP6 MSTORE PUSH1 0x24 DUP9 REVERT JUMPDEST PUSH4 0x4E487B71 PUSH1 0xE0 SHL DUP8 MSTORE PUSH1 0x11 DUP5 MSTORE PUSH1 0x24 DUP8 REVERT JUMPDEST PUSH4 0x4E487B71 PUSH1 0xE0 SHL DUP5 MSTORE PUSH1 0x11 PUSH1 0x4 MSTORE PUSH1 0x24 DUP5 REVERT JUMPDEST PUSH4 0x4E487B71 PUSH1 0xE0 SHL DUP6 MSTORE PUSH1 0x11 PUSH1 0x4 MSTORE PUSH1 0x24 DUP6 REVERT JUMPDEST SWAP1 PUSH1 0xD NOT DUP3 ADD SWAP2 DUP3 SGT PUSH1 0x1 AND PUSH2 0x27C1 JUMPI JUMP JUMPDEST DUP2 DUP2 SUB SWAP3 SWAP2 PUSH1 0x0 SGT DUP1 ISZERO DUP3 DUP6 SGT AND SWAP2 DUP5 SLT AND OR PUSH2 0x27C1 JUMPI JUMP JUMPDEST SWAP2 SWAP1 SWAP2 PUSH1 0x0 DUP4 DUP3 ADD SWAP4 DUP5 SLT SWAP2 SLT SWAP1 DUP1 ISZERO DUP3 AND SWAP2 ISZERO AND OR PUSH2 0x27C1 JUMPI JUMP JUMPDEST SWAP1 PUSH2 0x5B5 SWAP2 DUP1 DUP4 MUL SWAP3 DUP4 SDIV SUB PUSH2 0x27C1 JUMPI JUMP INVALID LOG2 PUSH5 0x6970667358 0x22 SLT KECCAK256 0xE9 0x2C 0x1F 0xD6 0xCD 0xCD 0xE8 0xAF 0xD3 SDIV SWAP13 0xEE STATICCALL DIV 0xB2 PUSH8 0xD2DFFE267DDC55E7 DUP10 0xB2 0xEF DUP16 PUSH9 0xB564EC64736F6C6343 STOP ADDMOD SGT STOP CALLER "
		},
		"gasEstimates": {
			"creation": {
				"codeDepositCost": "4807200",
				"executionCost": "126915",
				"totalCost": "4934115"
			},
			"external": {
				"ActiveProduct(uint256)": "7006",
				"AdminActiveProduct(bytes32)": "79700",
				"AdminAddProduct(string,string,string,string,string,uint256,uint256,uint256,uint256,uint256,uint256,uint256,bool)": "infinite",
				"AdminDeactiveProduct(bytes32)": "infinite",
				"AdminEditUpdateAt(bytes32,uint256)": "25115",
				"AdminUpdateProductInfo(bytes32,string,string,string,string,uint256,uint256,uint256,uint256,uint256,uint256,uint256)": "infinite",
				"AdminViewOrder(address)": "infinite",
				"AdminViewProduct()": "infinite",
				"Admins(uint256)": "5033",
				"CallDataOrder((bytes32,uint256,uint8)[],(string,string,string,string,string,string,string,string,string),address)": "infinite",
				"CallDataRenew(bytes32,bytes32)": "infinite",
				"CheckCallData(bytes)": "infinite",
				"ExecuteOrder(bytes,bytes32,uint256)": "infinite",
				"GetCallData(bytes,uint8)": "infinite",
				"GetMyOrder(uint32,uint256)": "infinite",
				"IsAdmin(address)": "3161",
				"ListProductID(uint256)": "7430",
				"MakeOrder((bytes32,uint256,uint8)[],(string,string,string,string,string,string,string,string,string),address)": "infinite",
				"MasterPool()": "3286",
				"OrderIDs(uint256)": "5034",
				"Owner()": "3088",
				"POS()": "3264",
				"RenewSub(bytes32,bytes32)": "infinite",
				"SCUsdt()": "2824",
				"SetAdmin(address)": "75529",
				"SetMasterPool(address)": "27276",
				"SetPOS(address)": "27540",
				"SetUsdt(address)": "27562",
				"UserViewProduct()": "infinite",
				"Users(uint256)": "4615",
				"ViewProduct(bytes32)": "infinite",
				"ViewProducts(uint256,uint256,uint256)": "infinite",
				"countElementsInRange(uint256,uint256,uint256[])": "infinite",
				"getProductTrend(bytes32)": "infinite",
				"getProductTrendByTime(bytes32,uint256,uint256)": "infinite",
				"getProductViewCount(bytes32)": "3347",
				"getRentalInfo(address,bytes32,bytes32)": "5640",
				"getShipInfo(bytes32)": "infinite",
				"getmIDTOOrder(bytes32)": "infinite",
				"mAddressTOOrderID(address,uint256)": "7739",
				"mIDToProduct(bytes32)": "infinite",
				"mProductSearchTrend(bytes32,uint256)": "6776",
				"mProductViewCount(bytes32)": "3020",
				"mShippingInfo(uint256)": "infinite",
				"mShippingInfoByAddress(address,uint256)": "6771",
				"mShippingInfoByOrder(uint256)": "3152",
				"shippingCounter()": "2426",
				"updateViewCount(bytes32)": "75285"
			},
			"internal": {
				"OrderLock(bytes memory,bytes32,uint256)": "infinite",
				"RenewSubLock(bytes memory,bytes32,uint256)": "infinite",
				"_rent(struct OrderInput memory,bytes32,address)": "infinite",
				"findIndex(uint256,bool,uint256[] memory)": "infinite",
				"getMonth(enum SUBCRIPTION_TYPE)": "151"
			}
		},
		"methodIdentifiers": {
			"ActiveProduct(uint256)": "6f0243f3",
			"AdminActiveProduct(bytes32)": "103bb2b5",
			"AdminAddProduct(string,string,string,string,string,uint256,uint256,uint256,uint256,uint256,uint256,uint256,bool)": "52023610",
			"AdminDeactiveProduct(bytes32)": "0f8472ff",
			"AdminEditUpdateAt(bytes32,uint256)": "7f8c678f",
			"AdminUpdateProductInfo(bytes32,string,string,string,string,uint256,uint256,uint256,uint256,uint256,uint256,uint256)": "05d0af0b",
			"AdminViewOrder(address)": "9d6ffce0",
			"AdminViewProduct()": "12ee84ef",
			"Admins(uint256)": "9f89a4b2",
			"CallDataOrder((bytes32,uint256,uint8)[],(string,string,string,string,string,string,string,string,string),address)": "70b9e002",
			"CallDataRenew(bytes32,bytes32)": "51d04876",
			"CheckCallData(bytes)": "30d51a32",
			"ExecuteOrder(bytes,bytes32,uint256)": "aaedfcd1",
			"GetCallData(bytes,uint8)": "d888e7dc",
			"GetMyOrder(uint32,uint256)": "b46b9a2d",
			"IsAdmin(address)": "b11e3c1a",
			"ListProductID(uint256)": "cb4e841b",
			"MakeOrder((bytes32,uint256,uint8)[],(string,string,string,string,string,string,string,string,string),address)": "27b50845",
			"MasterPool()": "fb7ef377",
			"OrderIDs(uint256)": "a2b2fb55",
			"Owner()": "b4a99a4e",
			"POS()": "f29155ef",
			"RenewSub(bytes32,bytes32)": "af669326",
			"SCUsdt()": "94284cbd",
			"SetAdmin(address)": "5a272403",
			"SetMasterPool(address)": "a559934e",
			"SetPOS(address)": "dc9a04cf",
			"SetUsdt(address)": "ddcd6408",
			"UserViewProduct()": "350f31ea",
			"Users(uint256)": "1e98fd1c",
			"ViewProduct(bytes32)": "5d977ee1",
			"ViewProducts(uint256,uint256,uint256)": "3f81714c",
			"countElementsInRange(uint256,uint256,uint256[])": "951a5662",
			"getProductTrend(bytes32)": "673047ba",
			"getProductTrendByTime(bytes32,uint256,uint256)": "0c2ed967",
			"getProductViewCount(bytes32)": "fdd719b1",
			"getRentalInfo(address,bytes32,bytes32)": "b358fa8e",
			"getShipInfo(bytes32)": "7f7c0808",
			"getmIDTOOrder(bytes32)": "7cf388ee",
			"mAddressTOOrderID(address,uint256)": "f09610c7",
			"mIDToProduct(bytes32)": "5c8d05a4",
			"mProductSearchTrend(bytes32,uint256)": "0b0fe44c",
			"mProductViewCount(bytes32)": "acfa58d2",
			"mShippingInfo(uint256)": "da31f88a",
			"mShippingInfoByAddress(address,uint256)": "02b572d6",
			"mShippingInfoByOrder(uint256)": "bfbe3ef7",
			"shippingCounter()": "1c787f3e",
			"updateViewCount(bytes32)": "041cbb16"
		}
	},
	"abi": [
		{
			"inputs": [],
			"stateMutability": "payable",
			"type": "constructor"
		},
		{
			"anonymous": false,
			"inputs": [
				{
					"indexed": false,
					"internalType": "address",
					"name": "buyer",
					"type": "address"
				},
				{
					"indexed": false,
					"internalType": "bytes32",
					"name": "orderId",
					"type": "bytes32"
				},
				{
					"indexed": false,
					"internalType": "bytes32",
					"name": "productId",
					"type": "bytes32"
				},
				{
					"indexed": false,
					"internalType": "uint256",
					"name": "firstTimePay",
					"type": "uint256"
				},
				{
					"indexed": false,
					"internalType": "uint256",
					"name": "nextTimePay",
					"type": "uint256"
				},
				{
					"indexed": false,
					"internalType": "uint256",
					"name": "amount",
					"type": "uint256"
				},
				{
					"indexed": false,
					"internalType": "uint256",
					"name": "typSub",
					"type": "uint256"
				},
				{
					"indexed": false,
					"internalType": "bytes32",
					"name": "idPayment",
					"type": "bytes32"
				}
			],
			"name": "Hire",
			"type": "event"
		},
		{
			"anonymous": false,
			"inputs": [
				{
					"components": [
						{
							"internalType": "address",
							"name": "add",
							"type": "address"
						},
						{
							"internalType": "uint256",
							"name": "quantity",
							"type": "uint256"
						},
						{
							"internalType": "uint256",
							"name": "price",
							"type": "uint256"
						},
						{
							"internalType": "enum SUBCRIPTION_TYPE",
							"name": "subTyp",
							"type": "uint8"
						},
						{
							"internalType": "uint256",
							"name": "time",
							"type": "uint256"
						},
						{
							"internalType": "bytes32",
							"name": "id",
							"type": "bytes32"
						},
						{
							"internalType": "address",
							"name": "from",
							"type": "address"
						},
						{
							"internalType": "address",
							"name": "to",
							"type": "address"
						},
						{
							"internalType": "bytes32",
							"name": "idPayment",
							"type": "bytes32"
						}
					],
					"indexed": false,
					"internalType": "struct FiCam.EventInput",
					"name": "eventOrder",
					"type": "tuple"
				}
			],
			"name": "eBuyProduct",
			"type": "event"
		},
		{
			"inputs": [
				{
					"internalType": "uint256",
					"name": "",
					"type": "uint256"
				}
			],
			"name": "ActiveProduct",
			"outputs": [
				{
					"internalType": "bytes32",
					"name": "",
					"type": "bytes32"
				}
			],
			"stateMutability": "view",
			"type": "function"
		},
		{
			"inputs": [
				{
					"internalType": "bytes32",
					"name": "_id",
					"type": "bytes32"
				}
			],
			"name": "AdminActiveProduct",
			"outputs": [
				{
					"internalType": "bool",
					"name": "",
					"type": "bool"
				}
			],
			"stateMutability": "nonpayable",
			"type": "function"
		},
		{
			"inputs": [
				{
					"internalType": "string",
					"name": "_imgUrl",
					"type": "string"
				},
				{
					"internalType": "string",
					"name": "_name",
					"type": "string"
				},
				{
					"internalType": "string",
					"name": "_desc",
					"type": "string"
				},
				{
					"internalType": "string",
					"name": "_advantages",
					"type": "string"
				},
				{
					"internalType": "string",
					"name": "_videoUrl",
					"type": "string"
				},
				{
					"internalType": "uint256",
					"name": "_salePrice",
					"type": "uint256"
				},
				{
					"internalType": "uint256",
					"name": "_rentalPrice",
					"type": "uint256"
				},
				{
					"internalType": "uint256",
					"name": "_monthlyPrice",
					"type": "uint256"
				},
				{
					"internalType": "uint256",
					"name": "_sixMonthsPrice",
					"type": "uint256"
				},
				{
					"internalType": "uint256",
					"name": "_yearlyPrice",
					"type": "uint256"
				},
				{
					"internalType": "uint256",
					"name": "_storageQuantity",
					"type": "uint256"
				},
				{
					"internalType": "uint256",
					"name": "_remainTime",
					"type": "uint256"
				},
				{
					"internalType": "bool",
					"name": "_active",
					"type": "bool"
				}
			],
			"name": "AdminAddProduct",
			"outputs": [],
			"stateMutability": "nonpayable",
			"type": "function"
		},
		{
			"inputs": [
				{
					"internalType": "bytes32",
					"name": "_id",
					"type": "bytes32"
				}
			],
			"name": "AdminDeactiveProduct",
			"outputs": [
				{
					"internalType": "bool",
					"name": "",
					"type": "bool"
				}
			],
			"stateMutability": "nonpayable",
			"type": "function"
		},
		{
			"inputs": [
				{
					"internalType": "bytes32",
					"name": "_id",
					"type": "bytes32"
				},
				{
					"internalType": "uint256",
					"name": "_updateAt",
					"type": "uint256"
				}
			],
			"name": "AdminEditUpdateAt",
			"outputs": [
				{
					"internalType": "bool",
					"name": "",
					"type": "bool"
				}
			],
			"stateMutability": "nonpayable",
			"type": "function"
		},
		{
			"inputs": [
				{
					"internalType": "bytes32",
					"name": "_id",
					"type": "bytes32"
				},
				{
					"internalType": "string",
					"name": "_imgUrl",
					"type": "string"
				},
				{
					"internalType": "string",
					"name": "_desc",
					"type": "string"
				},
				{
					"internalType": "string",
					"name": "_advantages",
					"type": "string"
				},
				{
					"internalType": "string",
					"name": "_videoUrl",
					"type": "string"
				},
				{
					"internalType": "uint256",
					"name": "_salePrice",
					"type": "uint256"
				},
				{
					"internalType": "uint256",
					"name": "_rentalPrice",
					"type": "uint256"
				},
				{
					"internalType": "uint256",
					"name": "_monthlyPrice",
					"type": "uint256"
				},
				{
					"internalType": "uint256",
					"name": "_sixMonthsPrice",
					"type": "uint256"
				},
				{
					"internalType": "uint256",
					"name": "_yearlyPrice",
					"type": "uint256"
				},
				{
					"internalType": "uint256",
					"name": "_storageQuantity",
					"type": "uint256"
				},
				{
					"internalType": "uint256",
					"name": "_remainTime",
					"type": "uint256"
				}
			],
			"name": "AdminUpdateProductInfo",
			"outputs": [
				{
					"internalType": "bool",
					"name": "",
					"type": "bool"
				}
			],
			"stateMutability": "nonpayable",
			"type": "function"
		},
		{
			"inputs": [
				{
					"internalType": "address",
					"name": "_to",
					"type": "address"
				}
			],
			"name": "AdminViewOrder",
			"outputs": [
				{
					"components": [
						{
							"internalType": "bytes32",
							"name": "id",
							"type": "bytes32"
						},
						{
							"internalType": "address",
							"name": "customer",
							"type": "address"
						},
						{
							"components": [
								{
									"internalType": "bytes32",
									"name": "id",
									"type": "bytes32"
								},
								{
									"internalType": "uint256",
									"name": "quantity",
									"type": "uint256"
								},
								{
									"internalType": "enum SUBCRIPTION_TYPE",
									"name": "typ",
									"type": "uint8"
								}
							],
							"internalType": "struct OrderInput[]",
							"name": "products",
							"type": "tuple[]"
						},
						{
							"internalType": "uint256",
							"name": "createAt",
							"type": "uint256"
						},
						{
							"components": [
								{
									"internalType": "string",
									"name": "firstName",
									"type": "string"
								},
								{
									"internalType": "string",
									"name": "lastName",
									"type": "string"
								},
								{
									"internalType": "string",
									"name": "email",
									"type": "string"
								},
								{
									"internalType": "string",
									"name": "country",
									"type": "string"
								},
								{
									"internalType": "string",
									"name": "city",
									"type": "string"
								},
								{
									"internalType": "string",
									"name": "stateOrProvince",
									"type": "string"
								},
								{
									"internalType": "string",
									"name": "postalCode",
									"type": "string"
								},
								{
									"internalType": "string",
									"name": "phone",
									"type": "string"
								},
								{
									"internalType": "string",
									"name": "addressDetail",
									"type": "string"
								}
							],
							"internalType": "struct ShippingParams",
							"name": "shipInfo",
							"type": "tuple"
						},
						{
							"internalType": "uint256",
							"name": "shippingFee",
							"type": "uint256"
						}
					],
					"internalType": "struct Order[]",
					"name": "orders",
					"type": "tuple[]"
				}
			],
			"stateMutability": "view",
			"type": "function"
		},
		{
			"inputs": [],
			"name": "AdminViewProduct",
			"outputs": [
				{
					"components": [
						{
							"internalType": "bytes32",
							"name": "id",
							"type": "bytes32"
						},
						{
							"components": [
								{
									"internalType": "string",
									"name": "imgUrl",
									"type": "string"
								},
								{
									"internalType": "string",
									"name": "name",
									"type": "string"
								},
								{
									"internalType": "bytes",
									"name": "desc",
									"type": "bytes"
								},
								{
									"internalType": "string",
									"name": "advantages",
									"type": "string"
								},
								{
									"internalType": "string",
									"name": "videoUrl",
									"type": "string"
								},
								{
									"internalType": "uint256",
									"name": "salePrice",
									"type": "uint256"
								},
								{
									"internalType": "uint256",
									"name": "rentalPrice",
									"type": "uint256"
								},
								{
									"internalType": "uint256",
									"name": "monthlyPrice",
									"type": "uint256"
								},
								{
									"internalType": "uint256",
									"name": "sixMonthsPrice",
									"type": "uint256"
								},
								{
									"internalType": "uint256",
									"name": "yearlyPrice",
									"type": "uint256"
								}
							],
							"internalType": "struct createProductParams",
							"name": "params",
							"type": "tuple"
						},
						{
							"internalType": "uint256",
							"name": "storageQuantity",
							"type": "uint256"
						},
						{
							"internalType": "uint256",
							"name": "saleQuantity",
							"type": "uint256"
						},
						{
							"internalType": "uint256",
							"name": "hireQuantity",
							"type": "uint256"
						},
						{
							"internalType": "uint256",
							"name": "returnHiredQuantity",
							"type": "uint256"
						},
						{
							"internalType": "uint256",
							"name": "remainTime",
							"type": "uint256"
						},
						{
							"internalType": "uint256",
							"name": "updateAt",
							"type": "uint256"
						},
						{
							"internalType": "bool",
							"name": "active",
							"type": "bool"
						}
					],
					"internalType": "struct Product[]",
					"name": "products",
					"type": "tuple[]"
				}
			],
			"stateMutability": "view",
			"type": "function"
		},
		{
			"inputs": [
				{
					"internalType": "uint256",
					"name": "",
					"type": "uint256"
				}
			],
			"name": "Admins",
			"outputs": [
				{
					"internalType": "address",
					"name": "",
					"type": "address"
				}
			],
			"stateMutability": "view",
			"type": "function"
		},
		{
			"inputs": [
				{
					"components": [
						{
							"internalType": "bytes32",
							"name": "id",
							"type": "bytes32"
						},
						{
							"internalType": "uint256",
							"name": "quantity",
							"type": "uint256"
						},
						{
							"internalType": "enum SUBCRIPTION_TYPE",
							"name": "typ",
							"type": "uint8"
						}
					],
					"internalType": "struct OrderInput[]",
					"name": "_input",
					"type": "tuple[]"
				},
				{
					"components": [
						{
							"internalType": "string",
							"name": "firstName",
							"type": "string"
						},
						{
							"internalType": "string",
							"name": "lastName",
							"type": "string"
						},
						{
							"internalType": "string",
							"name": "email",
							"type": "string"
						},
						{
							"internalType": "string",
							"name": "country",
							"type": "string"
						},
						{
							"internalType": "string",
							"name": "city",
							"type": "string"
						},
						{
							"internalType": "string",
							"name": "stateOrProvince",
							"type": "string"
						},
						{
							"internalType": "string",
							"name": "postalCode",
							"type": "string"
						},
						{
							"internalType": "string",
							"name": "phone",
							"type": "string"
						},
						{
							"internalType": "string",
							"name": "addressDetail",
							"type": "string"
						}
					],
					"internalType": "struct ShippingParams",
					"name": "_shipParams",
					"type": "tuple"
				},
				{
					"internalType": "address",
					"name": "_address",
					"type": "address"
				}
			],
			"name": "CallDataOrder",
			"outputs": [
				{
					"internalType": "bytes",
					"name": "callData",
					"type": "bytes"
				}
			],
			"stateMutability": "pure",
			"type": "function"
		},
		{
			"inputs": [
				{
					"internalType": "bytes32",
					"name": "_orderId",
					"type": "bytes32"
				},
				{
					"internalType": "bytes32",
					"name": "_idProduct",
					"type": "bytes32"
				}
			],
			"name": "CallDataRenew",
			"outputs": [
				{
					"internalType": "bytes",
					"name": "callData",
					"type": "bytes"
				}
			],
			"stateMutability": "pure",
			"type": "function"
		},
		{
			"inputs": [
				{
					"internalType": "bytes",
					"name": "callData",
					"type": "bytes"
				}
			],
			"name": "CheckCallData",
			"outputs": [
				{
					"internalType": "bool",
					"name": "",
					"type": "bool"
				}
			],
			"stateMutability": "nonpayable",
			"type": "function"
		},
		{
			"inputs": [
				{
					"internalType": "bytes",
					"name": "callData",
					"type": "bytes"
				},
				{
					"internalType": "bytes32",
					"name": "orderId",
					"type": "bytes32"
				},
				{
					"internalType": "uint256",
					"name": "paymentAmount",
					"type": "uint256"
				}
			],
			"name": "ExecuteOrder",
			"outputs": [
				{
					"internalType": "bool",
					"name": "",
					"type": "bool"
				}
			],
			"stateMutability": "nonpayable",
			"type": "function"
		},
		{
			"inputs": [
				{
					"internalType": "bytes",
					"name": "callData",
					"type": "bytes"
				},
				{
					"internalType": "enum FiCam.ExecuteOrderType",
					"name": "typ",
					"type": "uint8"
				}
			],
			"name": "GetCallData",
			"outputs": [
				{
					"internalType": "bytes",
					"name": "action",
					"type": "bytes"
				}
			],
			"stateMutability": "pure",
			"type": "function"
		},
		{
			"inputs": [
				{
					"internalType": "uint32",
					"name": "_page",
					"type": "uint32"
				},
				{
					"internalType": "uint256",
					"name": "returnRIP",
					"type": "uint256"
				}
			],
			"name": "GetMyOrder",
			"outputs": [
				{
					"internalType": "bool",
					"name": "isMore",
					"type": "bool"
				},
				{
					"components": [
						{
							"internalType": "bytes32",
							"name": "id",
							"type": "bytes32"
						},
						{
							"internalType": "address",
							"name": "customer",
							"type": "address"
						},
						{
							"components": [
								{
									"internalType": "bytes32",
									"name": "id",
									"type": "bytes32"
								},
								{
									"internalType": "uint256",
									"name": "quantity",
									"type": "uint256"
								},
								{
									"internalType": "enum SUBCRIPTION_TYPE",
									"name": "typ",
									"type": "uint8"
								}
							],
							"internalType": "struct OrderInput[]",
							"name": "products",
							"type": "tuple[]"
						},
						{
							"internalType": "uint256",
							"name": "createAt",
							"type": "uint256"
						},
						{
							"components": [
								{
									"internalType": "string",
									"name": "firstName",
									"type": "string"
								},
								{
									"internalType": "string",
									"name": "lastName",
									"type": "string"
								},
								{
									"internalType": "string",
									"name": "email",
									"type": "string"
								},
								{
									"internalType": "string",
									"name": "country",
									"type": "string"
								},
								{
									"internalType": "string",
									"name": "city",
									"type": "string"
								},
								{
									"internalType": "string",
									"name": "stateOrProvince",
									"type": "string"
								},
								{
									"internalType": "string",
									"name": "postalCode",
									"type": "string"
								},
								{
									"internalType": "string",
									"name": "phone",
									"type": "string"
								},
								{
									"internalType": "string",
									"name": "addressDetail",
									"type": "string"
								}
							],
							"internalType": "struct ShippingParams",
							"name": "shipInfo",
							"type": "tuple"
						},
						{
							"internalType": "uint256",
							"name": "shippingFee",
							"type": "uint256"
						}
					],
					"internalType": "struct Order[]",
					"name": "arrayOrder",
					"type": "tuple[]"
				}
			],
			"stateMutability": "view",
			"type": "function"
		},
		{
			"inputs": [
				{
					"internalType": "address",
					"name": "",
					"type": "address"
				}
			],
			"name": "IsAdmin",
			"outputs": [
				{
					"internalType": "bool",
					"name": "",
					"type": "bool"
				}
			],
			"stateMutability": "view",
			"type": "function"
		},
		{
			"inputs": [
				{
					"internalType": "uint256",
					"name": "",
					"type": "uint256"
				}
			],
			"name": "ListProductID",
			"outputs": [
				{
					"internalType": "bytes32",
					"name": "",
					"type": "bytes32"
				}
			],
			"stateMutability": "view",
			"type": "function"
		},
		{
			"inputs": [
				{
					"components": [
						{
							"internalType": "bytes32",
							"name": "id",
							"type": "bytes32"
						},
						{
							"internalType": "uint256",
							"name": "quantity",
							"type": "uint256"
						},
						{
							"internalType": "enum SUBCRIPTION_TYPE",
							"name": "typ",
							"type": "uint8"
						}
					],
					"internalType": "struct OrderInput[]",
					"name": "orderInputs",
					"type": "tuple[]"
				},
				{
					"components": [
						{
							"internalType": "string",
							"name": "firstName",
							"type": "string"
						},
						{
							"internalType": "string",
							"name": "lastName",
							"type": "string"
						},
						{
							"internalType": "string",
							"name": "email",
							"type": "string"
						},
						{
							"internalType": "string",
							"name": "country",
							"type": "string"
						},
						{
							"internalType": "string",
							"name": "city",
							"type": "string"
						},
						{
							"internalType": "string",
							"name": "stateOrProvince",
							"type": "string"
						},
						{
							"internalType": "string",
							"name": "postalCode",
							"type": "string"
						},
						{
							"internalType": "string",
							"name": "phone",
							"type": "string"
						},
						{
							"internalType": "string",
							"name": "addressDetail",
							"type": "string"
						}
					],
					"internalType": "struct ShippingParams",
					"name": "shipParams",
					"type": "tuple"
				},
				{
					"internalType": "address",
					"name": "to",
					"type": "address"
				}
			],
			"name": "MakeOrder",
			"outputs": [
				{
					"internalType": "bytes32",
					"name": "",
					"type": "bytes32"
				}
			],
			"stateMutability": "nonpayable",
			"type": "function"
		},
		{
			"inputs": [],
			"name": "MasterPool",
			"outputs": [
				{
					"internalType": "address",
					"name": "",
					"type": "address"
				}
			],
			"stateMutability": "view",
			"type": "function"
		},
		{
			"inputs": [
				{
					"internalType": "uint256",
					"name": "",
					"type": "uint256"
				}
			],
			"name": "OrderIDs",
			"outputs": [
				{
					"internalType": "bytes32",
					"name": "",
					"type": "bytes32"
				}
			],
			"stateMutability": "view",
			"type": "function"
		},
		{
			"inputs": [],
			"name": "Owner",
			"outputs": [
				{
					"internalType": "address",
					"name": "",
					"type": "address"
				}
			],
			"stateMutability": "view",
			"type": "function"
		},
		{
			"inputs": [],
			"name": "POS",
			"outputs": [
				{
					"internalType": "address",
					"name": "",
					"type": "address"
				}
			],
			"stateMutability": "view",
			"type": "function"
		},
		{
			"inputs": [
				{
					"internalType": "bytes32",
					"name": "_orderId",
					"type": "bytes32"
				},
				{
					"internalType": "bytes32",
					"name": "_idProduct",
					"type": "bytes32"
				}
			],
			"name": "RenewSub",
			"outputs": [
				{
					"internalType": "bool",
					"name": "",
					"type": "bool"
				}
			],
			"stateMutability": "nonpayable",
			"type": "function"
		},
		{
			"inputs": [],
			"name": "SCUsdt",
			"outputs": [
				{
					"internalType": "contract IERC20",
					"name": "",
					"type": "address"
				}
			],
			"stateMutability": "view",
			"type": "function"
		},
		{
			"inputs": [
				{
					"internalType": "address",
					"name": "_admin",
					"type": "address"
				}
			],
			"name": "SetAdmin",
			"outputs": [],
			"stateMutability": "nonpayable",
			"type": "function"
		},
		{
			"inputs": [
				{
					"internalType": "address",
					"name": "_masterPool",
					"type": "address"
				}
			],
			"name": "SetMasterPool",
			"outputs": [],
			"stateMutability": "nonpayable",
			"type": "function"
		},
		{
			"inputs": [
				{
					"internalType": "address",
					"name": "_pos",
					"type": "address"
				}
			],
			"name": "SetPOS",
			"outputs": [],
			"stateMutability": "nonpayable",
			"type": "function"
		},
		{
			"inputs": [
				{
					"internalType": "address",
					"name": "_usdt",
					"type": "address"
				}
			],
			"name": "SetUsdt",
			"outputs": [],
			"stateMutability": "nonpayable",
			"type": "function"
		},
		{
			"inputs": [],
			"name": "UserViewProduct",
			"outputs": [
				{
					"components": [
						{
							"internalType": "bytes32",
							"name": "id",
							"type": "bytes32"
						},
						{
							"components": [
								{
									"internalType": "string",
									"name": "imgUrl",
									"type": "string"
								},
								{
									"internalType": "string",
									"name": "name",
									"type": "string"
								},
								{
									"internalType": "bytes",
									"name": "desc",
									"type": "bytes"
								},
								{
									"internalType": "string",
									"name": "advantages",
									"type": "string"
								},
								{
									"internalType": "string",
									"name": "videoUrl",
									"type": "string"
								},
								{
									"internalType": "uint256",
									"name": "salePrice",
									"type": "uint256"
								},
								{
									"internalType": "uint256",
									"name": "rentalPrice",
									"type": "uint256"
								},
								{
									"internalType": "uint256",
									"name": "monthlyPrice",
									"type": "uint256"
								},
								{
									"internalType": "uint256",
									"name": "sixMonthsPrice",
									"type": "uint256"
								},
								{
									"internalType": "uint256",
									"name": "yearlyPrice",
									"type": "uint256"
								}
							],
							"internalType": "struct createProductParams",
							"name": "params",
							"type": "tuple"
						},
						{
							"internalType": "uint256",
							"name": "storageQuantity",
							"type": "uint256"
						},
						{
							"internalType": "uint256",
							"name": "saleQuantity",
							"type": "uint256"
						},
						{
							"internalType": "uint256",
							"name": "hireQuantity",
							"type": "uint256"
						},
						{
							"internalType": "uint256",
							"name": "returnHiredQuantity",
							"type": "uint256"
						},
						{
							"internalType": "uint256",
							"name": "remainTime",
							"type": "uint256"
						},
						{
							"internalType": "uint256",
							"name": "updateAt",
							"type": "uint256"
						},
						{
							"internalType": "bool",
							"name": "active",
							"type": "bool"
						}
					],
					"internalType": "struct Product[]",
					"name": "_products",
					"type": "tuple[]"
				}
			],
			"stateMutability": "view",
			"type": "function"
		},
		{
			"inputs": [
				{
					"internalType": "uint256",
					"name": "",
					"type": "uint256"
				}
			],
			"name": "Users",
			"outputs": [
				{
					"internalType": "address",
					"name": "",
					"type": "address"
				}
			],
			"stateMutability": "view",
			"type": "function"
		},
		{
			"inputs": [
				{
					"internalType": "bytes32",
					"name": "_id",
					"type": "bytes32"
				}
			],
			"name": "ViewProduct",
			"outputs": [
				{
					"components": [
						{
							"internalType": "bytes32",
							"name": "id",
							"type": "bytes32"
						},
						{
							"components": [
								{
									"internalType": "string",
									"name": "imgUrl",
									"type": "string"
								},
								{
									"internalType": "string",
									"name": "name",
									"type": "string"
								},
								{
									"internalType": "bytes",
									"name": "desc",
									"type": "bytes"
								},
								{
									"internalType": "string",
									"name": "advantages",
									"type": "string"
								},
								{
									"internalType": "string",
									"name": "videoUrl",
									"type": "string"
								},
								{
									"internalType": "uint256",
									"name": "salePrice",
									"type": "uint256"
								},
								{
									"internalType": "uint256",
									"name": "rentalPrice",
									"type": "uint256"
								},
								{
									"internalType": "uint256",
									"name": "monthlyPrice",
									"type": "uint256"
								},
								{
									"internalType": "uint256",
									"name": "sixMonthsPrice",
									"type": "uint256"
								},
								{
									"internalType": "uint256",
									"name": "yearlyPrice",
									"type": "uint256"
								}
							],
							"internalType": "struct createProductParams",
							"name": "params",
							"type": "tuple"
						},
						{
							"internalType": "uint256",
							"name": "storageQuantity",
							"type": "uint256"
						},
						{
							"internalType": "uint256",
							"name": "saleQuantity",
							"type": "uint256"
						},
						{
							"internalType": "uint256",
							"name": "hireQuantity",
							"type": "uint256"
						},
						{
							"internalType": "uint256",
							"name": "returnHiredQuantity",
							"type": "uint256"
						},
						{
							"internalType": "uint256",
							"name": "remainTime",
							"type": "uint256"
						},
						{
							"internalType": "uint256",
							"name": "updateAt",
							"type": "uint256"
						},
						{
							"internalType": "bool",
							"name": "active",
							"type": "bool"
						}
					],
					"internalType": "struct Product",
					"name": "rs",
					"type": "tuple"
				}
			],
			"stateMutability": "view",
			"type": "function"
		},
		{
			"inputs": [
				{
					"internalType": "uint256",
					"name": "_updateAt",
					"type": "uint256"
				},
				{
					"internalType": "uint256",
					"name": "_index",
					"type": "uint256"
				},
				{
					"internalType": "uint256",
					"name": "_limit",
					"type": "uint256"
				}
			],
			"name": "ViewProducts",
			"outputs": [
				{
					"components": [
						{
							"internalType": "bytes32",
							"name": "id",
							"type": "bytes32"
						},
						{
							"components": [
								{
									"internalType": "string",
									"name": "imgUrl",
									"type": "string"
								},
								{
									"internalType": "string",
									"name": "name",
									"type": "string"
								},
								{
									"internalType": "bytes",
									"name": "desc",
									"type": "bytes"
								},
								{
									"internalType": "string",
									"name": "advantages",
									"type": "string"
								},
								{
									"internalType": "string",
									"name": "videoUrl",
									"type": "string"
								},
								{
									"internalType": "uint256",
									"name": "salePrice",
									"type": "uint256"
								},
								{
									"internalType": "uint256",
									"name": "rentalPrice",
									"type": "uint256"
								},
								{
									"internalType": "uint256",
									"name": "monthlyPrice",
									"type": "uint256"
								},
								{
									"internalType": "uint256",
									"name": "sixMonthsPrice",
									"type": "uint256"
								},
								{
									"internalType": "uint256",
									"name": "yearlyPrice",
									"type": "uint256"
								}
							],
							"internalType": "struct createProductParams",
							"name": "params",
							"type": "tuple"
						},
						{
							"internalType": "uint256",
							"name": "storageQuantity",
							"type": "uint256"
						},
						{
							"internalType": "uint256",
							"name": "saleQuantity",
							"type": "uint256"
						},
						{
							"internalType": "uint256",
							"name": "hireQuantity",
							"type": "uint256"
						},
						{
							"internalType": "uint256",
							"name": "returnHiredQuantity",
							"type": "uint256"
						},
						{
							"internalType": "uint256",
							"name": "remainTime",
							"type": "uint256"
						},
						{
							"internalType": "uint256",
							"name": "updateAt",
							"type": "uint256"
						},
						{
							"internalType": "bool",
							"name": "active",
							"type": "bool"
						}
					],
					"internalType": "struct Product[]",
					"name": "rs",
					"type": "tuple[]"
				},
				{
					"internalType": "bool",
					"name": "isMore",
					"type": "bool"
				},
				{
					"internalType": "uint256",
					"name": "lastIndex",
					"type": "uint256"
				}
			],
			"stateMutability": "view",
			"type": "function"
		},
		{
			"inputs": [
				{
					"internalType": "uint256",
					"name": "beginTime",
					"type": "uint256"
				},
				{
					"internalType": "uint256",
					"name": "endTime",
					"type": "uint256"
				},
				{
					"internalType": "uint256[]",
					"name": "sortedArray",
					"type": "uint256[]"
				}
			],
			"name": "countElementsInRange",
			"outputs": [
				{
					"internalType": "uint256",
					"name": "count",
					"type": "uint256"
				}
			],
			"stateMutability": "pure",
			"type": "function"
		},
		{
			"inputs": [
				{
					"internalType": "bytes32",
					"name": "_productID",
					"type": "bytes32"
				}
			],
			"name": "getProductTrend",
			"outputs": [
				{
					"internalType": "uint256[]",
					"name": "",
					"type": "uint256[]"
				}
			],
			"stateMutability": "view",
			"type": "function"
		},
		{
			"inputs": [
				{
					"internalType": "bytes32",
					"name": "_productID",
					"type": "bytes32"
				},
				{
					"internalType": "uint256",
					"name": "_from",
					"type": "uint256"
				},
				{
					"internalType": "uint256",
					"name": "_to",
					"type": "uint256"
				}
			],
			"name": "getProductTrendByTime",
			"outputs": [
				{
					"internalType": "uint256",
					"name": "count",
					"type": "uint256"
				}
			],
			"stateMutability": "view",
			"type": "function"
		},
		{
			"inputs": [
				{
					"internalType": "bytes32",
					"name": "_productID",
					"type": "bytes32"
				}
			],
			"name": "getProductViewCount",
			"outputs": [
				{
					"internalType": "uint256",
					"name": "",
					"type": "uint256"
				}
			],
			"stateMutability": "view",
			"type": "function"
		},
		{
			"inputs": [
				{
					"internalType": "address",
					"name": "hirer",
					"type": "address"
				},
				{
					"internalType": "bytes32",
					"name": "_orderId",
					"type": "bytes32"
				},
				{
					"internalType": "bytes32",
					"name": "_idProduct",
					"type": "bytes32"
				}
			],
			"name": "getRentalInfo",
			"outputs": [
				{
					"internalType": "uint256",
					"name": "rentalAmount",
					"type": "uint256"
				},
				{
					"internalType": "uint256",
					"name": "nextTime",
					"type": "uint256"
				}
			],
			"stateMutability": "view",
			"type": "function"
		},
		{
			"inputs": [
				{
					"internalType": "bytes32",
					"name": "_orderId",
					"type": "bytes32"
				}
			],
			"name": "getShipInfo",
			"outputs": [
				{
					"components": [
						{
							"internalType": "string",
							"name": "firstName",
							"type": "string"
						},
						{
							"internalType": "string",
							"name": "lastName",
							"type": "string"
						},
						{
							"internalType": "string",
							"name": "email",
							"type": "string"
						},
						{
							"internalType": "string",
							"name": "country",
							"type": "string"
						},
						{
							"internalType": "string",
							"name": "city",
							"type": "string"
						},
						{
							"internalType": "string",
							"name": "stateOrProvince",
							"type": "string"
						},
						{
							"internalType": "string",
							"name": "postalCode",
							"type": "string"
						},
						{
							"internalType": "string",
							"name": "phone",
							"type": "string"
						},
						{
							"internalType": "string",
							"name": "addressDetail",
							"type": "string"
						}
					],
					"internalType": "struct ShippingParams",
					"name": "",
					"type": "tuple"
				}
			],
			"stateMutability": "view",
			"type": "function"
		},
		{
			"inputs": [
				{
					"internalType": "bytes32",
					"name": "_orderId",
					"type": "bytes32"
				}
			],
			"name": "getmIDTOOrder",
			"outputs": [
				{
					"components": [
						{
							"internalType": "bytes32",
							"name": "id",
							"type": "bytes32"
						},
						{
							"internalType": "address",
							"name": "customer",
							"type": "address"
						},
						{
							"components": [
								{
									"internalType": "bytes32",
									"name": "id",
									"type": "bytes32"
								},
								{
									"internalType": "uint256",
									"name": "quantity",
									"type": "uint256"
								},
								{
									"internalType": "enum SUBCRIPTION_TYPE",
									"name": "typ",
									"type": "uint8"
								}
							],
							"internalType": "struct OrderInput[]",
							"name": "products",
							"type": "tuple[]"
						},
						{
							"internalType": "uint256",
							"name": "createAt",
							"type": "uint256"
						},
						{
							"components": [
								{
									"internalType": "string",
									"name": "firstName",
									"type": "string"
								},
								{
									"internalType": "string",
									"name": "lastName",
									"type": "string"
								},
								{
									"internalType": "string",
									"name": "email",
									"type": "string"
								},
								{
									"internalType": "string",
									"name": "country",
									"type": "string"
								},
								{
									"internalType": "string",
									"name": "city",
									"type": "string"
								},
								{
									"internalType": "string",
									"name": "stateOrProvince",
									"type": "string"
								},
								{
									"internalType": "string",
									"name": "postalCode",
									"type": "string"
								},
								{
									"internalType": "string",
									"name": "phone",
									"type": "string"
								},
								{
									"internalType": "string",
									"name": "addressDetail",
									"type": "string"
								}
							],
							"internalType": "struct ShippingParams",
							"name": "shipInfo",
							"type": "tuple"
						},
						{
							"internalType": "uint256",
							"name": "shippingFee",
							"type": "uint256"
						}
					],
					"internalType": "struct Order",
					"name": "",
					"type": "tuple"
				}
			],
			"stateMutability": "view",
			"type": "function"
		},
		{
			"inputs": [
				{
					"internalType": "address",
					"name": "",
					"type": "address"
				},
				{
					"internalType": "uint256",
					"name": "",
					"type": "uint256"
				}
			],
			"name": "mAddressTOOrderID",
			"outputs": [
				{
					"internalType": "bytes32",
					"name": "",
					"type": "bytes32"
				}
			],
			"stateMutability": "view",
			"type": "function"
		},
		{
			"inputs": [
				{
					"internalType": "bytes32",
					"name": "",
					"type": "bytes32"
				}
			],
			"name": "mIDToProduct",
			"outputs": [
				{
					"internalType": "bytes32",
					"name": "id",
					"type": "bytes32"
				},
				{
					"components": [
						{
							"internalType": "string",
							"name": "imgUrl",
							"type": "string"
						},
						{
							"internalType": "string",
							"name": "name",
							"type": "string"
						},
						{
							"internalType": "bytes",
							"name": "desc",
							"type": "bytes"
						},
						{
							"internalType": "string",
							"name": "advantages",
							"type": "string"
						},
						{
							"internalType": "string",
							"name": "videoUrl",
							"type": "string"
						},
						{
							"internalType": "uint256",
							"name": "salePrice",
							"type": "uint256"
						},
						{
							"internalType": "uint256",
							"name": "rentalPrice",
							"type": "uint256"
						},
						{
							"internalType": "uint256",
							"name": "monthlyPrice",
							"type": "uint256"
						},
						{
							"internalType": "uint256",
							"name": "sixMonthsPrice",
							"type": "uint256"
						},
						{
							"internalType": "uint256",
							"name": "yearlyPrice",
							"type": "uint256"
						}
					],
					"internalType": "struct createProductParams",
					"name": "params",
					"type": "tuple"
				},
				{
					"internalType": "uint256",
					"name": "storageQuantity",
					"type": "uint256"
				},
				{
					"internalType": "uint256",
					"name": "saleQuantity",
					"type": "uint256"
				},
				{
					"internalType": "uint256",
					"name": "hireQuantity",
					"type": "uint256"
				},
				{
					"internalType": "uint256",
					"name": "returnHiredQuantity",
					"type": "uint256"
				},
				{
					"internalType": "uint256",
					"name": "remainTime",
					"type": "uint256"
				},
				{
					"internalType": "uint256",
					"name": "updateAt",
					"type": "uint256"
				},
				{
					"internalType": "bool",
					"name": "active",
					"type": "bool"
				}
			],
			"stateMutability": "view",
			"type": "function"
		},
		{
			"inputs": [
				{
					"internalType": "bytes32",
					"name": "",
					"type": "bytes32"
				},
				{
					"internalType": "uint256",
					"name": "",
					"type": "uint256"
				}
			],
			"name": "mProductSearchTrend",
			"outputs": [
				{
					"internalType": "uint256",
					"name": "",
					"type": "uint256"
				}
			],
			"stateMutability": "view",
			"type": "function"
		},
		{
			"inputs": [
				{
					"internalType": "bytes32",
					"name": "",
					"type": "bytes32"
				}
			],
			"name": "mProductViewCount",
			"outputs": [
				{
					"internalType": "uint256",
					"name": "",
					"type": "uint256"
				}
			],
			"stateMutability": "view",
			"type": "function"
		},
		{
			"inputs": [
				{
					"internalType": "uint256",
					"name": "",
					"type": "uint256"
				}
			],
			"name": "mShippingInfo",
			"outputs": [
				{
					"internalType": "string",
					"name": "firstName",
					"type": "string"
				},
				{
					"internalType": "string",
					"name": "lastName",
					"type": "string"
				},
				{
					"internalType": "string",
					"name": "email",
					"type": "string"
				},
				{
					"internalType": "string",
					"name": "country",
					"type": "string"
				},
				{
					"internalType": "string",
					"name": "city",
					"type": "string"
				},
				{
					"internalType": "string",
					"name": "stateOrProvince",
					"type": "string"
				},
				{
					"internalType": "string",
					"name": "postalCode",
					"type": "string"
				},
				{
					"internalType": "string",
					"name": "phone",
					"type": "string"
				},
				{
					"internalType": "string",
					"name": "addressDetail",
					"type": "string"
				}
			],
			"stateMutability": "view",
			"type": "function"
		},
		{
			"inputs": [
				{
					"internalType": "address",
					"name": "",
					"type": "address"
				},
				{
					"internalType": "uint256",
					"name": "",
					"type": "uint256"
				}
			],
			"name": "mShippingInfoByAddress",
			"outputs": [
				{
					"internalType": "uint256",
					"name": "",
					"type": "uint256"
				}
			],
			"stateMutability": "view",
			"type": "function"
		},
		{
			"inputs": [
				{
					"internalType": "uint256",
					"name": "",
					"type": "uint256"
				}
			],
			"name": "mShippingInfoByOrder",
			"outputs": [
				{
					"internalType": "uint256",
					"name": "",
					"type": "uint256"
				}
			],
			"stateMutability": "view",
			"type": "function"
		},
		{
			"inputs": [],
			"name": "shippingCounter",
			"outputs": [
				{
					"internalType": "uint256",
					"name": "",
					"type": "uint256"
				}
			],
			"stateMutability": "view",
			"type": "function"
		},
		{
			"inputs": [
				{
					"internalType": "bytes32",
					"name": "_productID",
					"type": "bytes32"
				}
			],
			"name": "updateViewCount",
			"outputs": [],
			"stateMutability": "nonpayable",
			"type": "function"
		}
	]
}